{
	"contracts/VotingRegions.sol": {
		"VotingRegions": {
			"abi": [
				{
					"inputs": [
						{
							"internalType": "string[]",
							"name": "regions",
							"type": "string[]"
						},
						{
							"internalType": "address",
							"name": "accessControlAddress",
							"type": "address"
						}
					],
					"stateMutability": "nonpayable",
					"type": "constructor"
				},
				{
					"inputs": [],
					"name": "ADMIN",
					"outputs": [
						{
							"internalType": "bytes32",
							"name": "",
							"type": "bytes32"
						}
					],
					"stateMutability": "view",
					"type": "function"
				},
				{
					"inputs": [],
					"name": "CANDIDATE",
					"outputs": [
						{
							"internalType": "bytes32",
							"name": "",
							"type": "bytes32"
						}
					],
					"stateMutability": "view",
					"type": "function"
				},
				{
					"inputs": [],
					"name": "DEPLOYER",
					"outputs": [
						{
							"internalType": "bytes32",
							"name": "",
							"type": "bytes32"
						}
					],
					"stateMutability": "view",
					"type": "function"
				},
				{
					"inputs": [],
					"name": "USER",
					"outputs": [
						{
							"internalType": "bytes32",
							"name": "",
							"type": "bytes32"
						}
					],
					"stateMutability": "view",
					"type": "function"
				},
				{
					"inputs": [
						{
							"internalType": "string",
							"name": "region",
							"type": "string"
						}
					],
					"name": "addRegions",
					"outputs": [],
					"stateMutability": "nonpayable",
					"type": "function"
				},
				{
					"inputs": [],
					"name": "contractAddress",
					"outputs": [
						{
							"internalType": "address",
							"name": "",
							"type": "address"
						}
					],
					"stateMutability": "view",
					"type": "function"
				},
				{
					"inputs": [],
					"name": "getRegions",
					"outputs": [
						{
							"internalType": "string[]",
							"name": "",
							"type": "string[]"
						}
					],
					"stateMutability": "view",
					"type": "function"
				},
				{
					"inputs": [],
					"name": "owner",
					"outputs": [
						{
							"internalType": "address",
							"name": "",
							"type": "address"
						}
					],
					"stateMutability": "view",
					"type": "function"
				},
				{
					"inputs": [
						{
							"internalType": "uint256",
							"name": "",
							"type": "uint256"
						}
					],
					"name": "votingRegions",
					"outputs": [
						{
							"internalType": "string",
							"name": "",
							"type": "string"
						}
					],
					"stateMutability": "view",
					"type": "function"
				}
			],
			"devdoc": {
				"kind": "dev",
				"methods": {},
				"version": 1
			},
			"evm": {
				"assembly": "    /* \"contracts/VotingRegions.sol\":197:1640  contract VotingRegions{... */\n  mstore(0x40, 0x80)\n    /* \"contracts/VotingRegions.sol\":578:839  constructor(string[] memory regions, address accessControlAddress){... */\n  callvalue\n  dup1\n  iszero\n  tag_1\n  jumpi\n  0x00\n  dup1\n  revert\ntag_1:\n  pop\n  mload(0x40)\n  sub(codesize, bytecodeSize)\n  dup1\n  bytecodeSize\n  dup4\n  codecopy\n  dup2\n  dup2\n  add\n  0x40\n  mstore\n  dup2\n  add\n  swap1\n  tag_2\n  swap2\n  swap1\n  tag_3\n  jump\t// in\ntag_2:\n    /* \"contracts/VotingRegions.sol\":665:675  msg.sender */\n  caller\n    /* \"contracts/VotingRegions.sol\":657:662  owner */\n  0x01\n  0x00\n    /* \"contracts/VotingRegions.sol\":657:675  owner = msg.sender */\n  0x0100\n  exp\n  dup2\n  sload\n  dup2\n  0xffffffffffffffffffffffffffffffffffffffff\n  mul\n  not\n  and\n  swap1\n  dup4\n  0xffffffffffffffffffffffffffffffffffffffff\n  and\n  mul\n  or\n  swap1\n  sstore\n  pop\n    /* \"contracts/VotingRegions.sol\":771:778  regions */\n  dup2\n    /* \"contracts/VotingRegions.sol\":755:768  votingRegions */\n  0x00\n    /* \"contracts/VotingRegions.sol\":755:778  votingRegions = regions */\n  swap1\n  dup1\n  mload\n  swap1\n  0x20\n  add\n  swap1\n  tag_6\n  swap3\n  swap2\n  swap1\n  tag_7\n  jump\t// in\ntag_6:\n  pop\n    /* \"contracts/VotingRegions.sol\":809:829  accessControlAddress */\n  dup1\n    /* \"contracts/VotingRegions.sol\":791:806  contractAddress */\n  0x02\n  0x00\n    /* \"contracts/VotingRegions.sol\":791:829  contractAddress = accessControlAddress */\n  0x0100\n  exp\n  dup2\n  sload\n  dup2\n  0xffffffffffffffffffffffffffffffffffffffff\n  mul\n  not\n  and\n  swap1\n  dup4\n  0xffffffffffffffffffffffffffffffffffffffff\n  and\n  mul\n  or\n  swap1\n  sstore\n  pop\n    /* \"contracts/VotingRegions.sol\":578:839  constructor(string[] memory regions, address accessControlAddress){... */\n  pop\n  pop\n    /* \"contracts/VotingRegions.sol\":197:1640  contract VotingRegions{... */\n  jump(tag_8)\ntag_7:\n  dup3\n  dup1\n  sload\n  dup3\n  dup3\n  sstore\n  swap1\n  0x00\n  mstore\n  keccak256(0x00, 0x20)\n  swap1\n  dup2\n  add\n  swap3\n  dup3\n  iszero\n  tag_9\n  jumpi\n  swap2\n  0x20\n  mul\n  dup3\n  add\ntag_10:\n  dup3\n  dup2\n  gt\n  iszero\n  tag_11\n  jumpi\n  dup3\n  mload\n  dup3\n  swap1\n  dup2\n  tag_12\n  swap2\n  swap1\n  tag_13\n  jump\t// in\ntag_12:\n  pop\n  swap2\n  0x20\n  add\n  swap2\n  swap1\n  0x01\n  add\n  swap1\n  jump(tag_10)\ntag_11:\ntag_9:\n  pop\n  swap1\n  pop\n  tag_14\n  swap2\n  swap1\n  tag_15\n  jump\t// in\ntag_14:\n  pop\n  swap1\n  jump\t// out\ntag_15:\ntag_16:\n  dup1\n  dup3\n  gt\n  iszero\n  tag_17\n  jumpi\n  0x00\n  dup2\n  dup2\n  tag_18\n  swap2\n  swap1\n  tag_19\n  jump\t// in\ntag_18:\n  pop\n  0x01\n  add\n  jump(tag_16)\ntag_17:\n  pop\n  swap1\n  jump\t// out\ntag_19:\n  pop\n  dup1\n  sload\n  tag_20\n  swap1\n  tag_21\n  jump\t// in\ntag_20:\n  0x00\n  dup3\n  sstore\n  dup1\n  0x1f\n  lt\n  tag_23\n  jumpi\n  pop\n  jump(tag_22)\ntag_23:\n  0x1f\n  add\n  0x20\n  swap1\n  div\n  swap1\n  0x00\n  mstore\n  keccak256(0x00, 0x20)\n  swap1\n  dup2\n  add\n  swap1\n  tag_24\n  swap2\n  swap1\n  tag_25\n  jump\t// in\ntag_24:\ntag_22:\n  pop\n  jump\t// out\ntag_25:\ntag_26:\n  dup1\n  dup3\n  gt\n  iszero\n  tag_27\n  jumpi\n  0x00\n  dup2\n  0x00\n  swap1\n  sstore\n  pop\n  0x01\n  add\n  jump(tag_26)\ntag_27:\n  pop\n  swap1\n  jump\t// out\n    /* \"#utility.yul\":7:82   */\ntag_28:\n    /* \"#utility.yul\":40:46   */\n  0x00\n    /* \"#utility.yul\":73:75   */\n  0x40\n    /* \"#utility.yul\":67:76   */\n  mload\n    /* \"#utility.yul\":57:76   */\n  swap1\n  pop\n    /* \"#utility.yul\":7:82   */\n  swap1\n  jump\t// out\n    /* \"#utility.yul\":88:205   */\ntag_29:\n    /* \"#utility.yul\":197:198   */\n  0x00\n    /* \"#utility.yul\":194:195   */\n  dup1\n    /* \"#utility.yul\":187:199   */\n  revert\n    /* \"#utility.yul\":211:328   */\ntag_30:\n    /* \"#utility.yul\":320:321   */\n  0x00\n    /* \"#utility.yul\":317:318   */\n  dup1\n    /* \"#utility.yul\":310:322   */\n  revert\n    /* \"#utility.yul\":334:451   */\ntag_31:\n    /* \"#utility.yul\":443:444   */\n  0x00\n    /* \"#utility.yul\":440:441   */\n  dup1\n    /* \"#utility.yul\":433:445   */\n  revert\n    /* \"#utility.yul\":457:559   */\ntag_32:\n    /* \"#utility.yul\":498:504   */\n  0x00\n    /* \"#utility.yul\":549:551   */\n  0x1f\n    /* \"#utility.yul\":545:552   */\n  not\n    /* \"#utility.yul\":540:542   */\n  0x1f\n    /* \"#utility.yul\":533:538   */\n  dup4\n    /* \"#utility.yul\":529:543   */\n  add\n    /* \"#utility.yul\":525:553   */\n  and\n    /* \"#utility.yul\":515:553   */\n  swap1\n  pop\n    /* \"#utility.yul\":457:559   */\n  swap2\n  swap1\n  pop\n  jump\t// out\n    /* \"#utility.yul\":565:745   */\ntag_33:\n    /* \"#utility.yul\":613:690   */\n  0x4e487b7100000000000000000000000000000000000000000000000000000000\n    /* \"#utility.yul\":610:611   */\n  0x00\n    /* \"#utility.yul\":603:691   */\n  mstore\n    /* \"#utility.yul\":710:714   */\n  0x41\n    /* \"#utility.yul\":707:708   */\n  0x04\n    /* \"#utility.yul\":700:715   */\n  mstore\n    /* \"#utility.yul\":734:738   */\n  0x24\n    /* \"#utility.yul\":731:732   */\n  0x00\n    /* \"#utility.yul\":724:739   */\n  revert\n    /* \"#utility.yul\":751:1032   */\ntag_34:\n    /* \"#utility.yul\":834:861   */\n  tag_75\n    /* \"#utility.yul\":856:860   */\n  dup3\n    /* \"#utility.yul\":834:861   */\n  tag_32\n  jump\t// in\ntag_75:\n    /* \"#utility.yul\":826:832   */\n  dup2\n    /* \"#utility.yul\":822:862   */\n  add\n    /* \"#utility.yul\":964:970   */\n  dup2\n    /* \"#utility.yul\":952:962   */\n  dup2\n    /* \"#utility.yul\":949:971   */\n  lt\n    /* \"#utility.yul\":928:946   */\n  0xffffffffffffffff\n    /* \"#utility.yul\":916:926   */\n  dup3\n    /* \"#utility.yul\":913:947   */\n  gt\n    /* \"#utility.yul\":910:972   */\n  or\n    /* \"#utility.yul\":907:995   */\n  iszero\n  tag_76\n  jumpi\n    /* \"#utility.yul\":975:993   */\n  tag_77\n  tag_33\n  jump\t// in\ntag_77:\n    /* \"#utility.yul\":907:995   */\ntag_76:\n    /* \"#utility.yul\":1015:1025   */\n  dup1\n    /* \"#utility.yul\":1011:1013   */\n  0x40\n    /* \"#utility.yul\":1004:1026   */\n  mstore\n    /* \"#utility.yul\":794:1032   */\n  pop\n    /* \"#utility.yul\":751:1032   */\n  pop\n  pop\n  jump\t// out\n    /* \"#utility.yul\":1038:1167   */\ntag_35:\n    /* \"#utility.yul\":1072:1078   */\n  0x00\n    /* \"#utility.yul\":1099:1119   */\n  tag_79\n  tag_28\n  jump\t// in\ntag_79:\n    /* \"#utility.yul\":1089:1119   */\n  swap1\n  pop\n    /* \"#utility.yul\":1128:1161   */\n  tag_80\n    /* \"#utility.yul\":1156:1160   */\n  dup3\n    /* \"#utility.yul\":1148:1154   */\n  dup3\n    /* \"#utility.yul\":1128:1161   */\n  tag_34\n  jump\t// in\ntag_80:\n    /* \"#utility.yul\":1038:1167   */\n  swap2\n  swap1\n  pop\n  jump\t// out\n    /* \"#utility.yul\":1173:1494   */\ntag_36:\n    /* \"#utility.yul\":1260:1264   */\n  0x00\n    /* \"#utility.yul\":1350:1368   */\n  0xffffffffffffffff\n    /* \"#utility.yul\":1342:1348   */\n  dup3\n    /* \"#utility.yul\":1339:1369   */\n  gt\n    /* \"#utility.yul\":1336:1392   */\n  iszero\n  tag_82\n  jumpi\n    /* \"#utility.yul\":1372:1390   */\n  tag_83\n  tag_33\n  jump\t// in\ntag_83:\n    /* \"#utility.yul\":1336:1392   */\ntag_82:\n    /* \"#utility.yul\":1422:1426   */\n  0x20\n    /* \"#utility.yul\":1414:1420   */\n  dup3\n    /* \"#utility.yul\":1410:1427   */\n  mul\n    /* \"#utility.yul\":1402:1427   */\n  swap1\n  pop\n    /* \"#utility.yul\":1482:1486   */\n  0x20\n    /* \"#utility.yul\":1476:1480   */\n  dup2\n    /* \"#utility.yul\":1472:1487   */\n  add\n    /* \"#utility.yul\":1464:1487   */\n  swap1\n  pop\n    /* \"#utility.yul\":1173:1494   */\n  swap2\n  swap1\n  pop\n  jump\t// out\n    /* \"#utility.yul\":1500:1617   */\ntag_37:\n    /* \"#utility.yul\":1609:1610   */\n  0x00\n    /* \"#utility.yul\":1606:1607   */\n  dup1\n    /* \"#utility.yul\":1599:1611   */\n  revert\n    /* \"#utility.yul\":1623:1740   */\ntag_38:\n    /* \"#utility.yul\":1732:1733   */\n  0x00\n    /* \"#utility.yul\":1729:1730   */\n  dup1\n    /* \"#utility.yul\":1722:1734   */\n  revert\n    /* \"#utility.yul\":1746:2054   */\ntag_39:\n    /* \"#utility.yul\":1808:1812   */\n  0x00\n    /* \"#utility.yul\":1898:1916   */\n  0xffffffffffffffff\n    /* \"#utility.yul\":1890:1896   */\n  dup3\n    /* \"#utility.yul\":1887:1917   */\n  gt\n    /* \"#utility.yul\":1884:1940   */\n  iszero\n  tag_87\n  jumpi\n    /* \"#utility.yul\":1920:1938   */\n  tag_88\n  tag_33\n  jump\t// in\ntag_88:\n    /* \"#utility.yul\":1884:1940   */\ntag_87:\n    /* \"#utility.yul\":1958:1987   */\n  tag_89\n    /* \"#utility.yul\":1980:1986   */\n  dup3\n    /* \"#utility.yul\":1958:1987   */\n  tag_32\n  jump\t// in\ntag_89:\n    /* \"#utility.yul\":1950:1987   */\n  swap1\n  pop\n    /* \"#utility.yul\":2042:2046   */\n  0x20\n    /* \"#utility.yul\":2036:2040   */\n  dup2\n    /* \"#utility.yul\":2032:2047   */\n  add\n    /* \"#utility.yul\":2024:2047   */\n  swap1\n  pop\n    /* \"#utility.yul\":1746:2054   */\n  swap2\n  swap1\n  pop\n  jump\t// out\n    /* \"#utility.yul\":2060:2199   */\ntag_40:\n    /* \"#utility.yul\":2149:2155   */\n  dup3\n    /* \"#utility.yul\":2144:2147   */\n  dup2\n    /* \"#utility.yul\":2139:2142   */\n  dup4\n    /* \"#utility.yul\":2133:2156   */\n  mcopy\n    /* \"#utility.yul\":2190:2191   */\n  0x00\n    /* \"#utility.yul\":2181:2187   */\n  dup4\n    /* \"#utility.yul\":2176:2179   */\n  dup4\n    /* \"#utility.yul\":2172:2188   */\n  add\n    /* \"#utility.yul\":2165:2192   */\n  mstore\n    /* \"#utility.yul\":2060:2199   */\n  pop\n  pop\n  pop\n  jump\t// out\n    /* \"#utility.yul\":2205:2639   */\ntag_41:\n    /* \"#utility.yul\":2294:2299   */\n  0x00\n    /* \"#utility.yul\":2319:2385   */\n  tag_92\n    /* \"#utility.yul\":2335:2384   */\n  tag_93\n    /* \"#utility.yul\":2377:2383   */\n  dup5\n    /* \"#utility.yul\":2335:2384   */\n  tag_39\n  jump\t// in\ntag_93:\n    /* \"#utility.yul\":2319:2385   */\n  tag_35\n  jump\t// in\ntag_92:\n    /* \"#utility.yul\":2310:2385   */\n  swap1\n  pop\n    /* \"#utility.yul\":2408:2414   */\n  dup3\n    /* \"#utility.yul\":2401:2406   */\n  dup2\n    /* \"#utility.yul\":2394:2415   */\n  mstore\n    /* \"#utility.yul\":2446:2450   */\n  0x20\n    /* \"#utility.yul\":2439:2444   */\n  dup2\n    /* \"#utility.yul\":2435:2451   */\n  add\n    /* \"#utility.yul\":2484:2487   */\n  dup5\n    /* \"#utility.yul\":2475:2481   */\n  dup5\n    /* \"#utility.yul\":2470:2473   */\n  dup5\n    /* \"#utility.yul\":2466:2482   */\n  add\n    /* \"#utility.yul\":2463:2488   */\n  gt\n    /* \"#utility.yul\":2460:2572   */\n  iszero\n  tag_94\n  jumpi\n    /* \"#utility.yul\":2491:2570   */\n  tag_95\n  tag_38\n  jump\t// in\ntag_95:\n    /* \"#utility.yul\":2460:2572   */\ntag_94:\n    /* \"#utility.yul\":2581:2633   */\n  tag_96\n    /* \"#utility.yul\":2626:2632   */\n  dup5\n    /* \"#utility.yul\":2621:2624   */\n  dup3\n    /* \"#utility.yul\":2616:2619   */\n  dup6\n    /* \"#utility.yul\":2581:2633   */\n  tag_40\n  jump\t// in\ntag_96:\n    /* \"#utility.yul\":2300:2639   */\n  pop\n    /* \"#utility.yul\":2205:2639   */\n  swap4\n  swap3\n  pop\n  pop\n  pop\n  jump\t// out\n    /* \"#utility.yul\":2659:3014   */\ntag_42:\n    /* \"#utility.yul\":2726:2731   */\n  0x00\n    /* \"#utility.yul\":2775:2778   */\n  dup3\n    /* \"#utility.yul\":2768:2772   */\n  0x1f\n    /* \"#utility.yul\":2760:2766   */\n  dup4\n    /* \"#utility.yul\":2756:2773   */\n  add\n    /* \"#utility.yul\":2752:2779   */\n  slt\n    /* \"#utility.yul\":2742:2864   */\n  tag_98\n  jumpi\n    /* \"#utility.yul\":2783:2862   */\n  tag_99\n  tag_31\n  jump\t// in\ntag_99:\n    /* \"#utility.yul\":2742:2864   */\ntag_98:\n    /* \"#utility.yul\":2893:2899   */\n  dup2\n    /* \"#utility.yul\":2887:2900   */\n  mload\n    /* \"#utility.yul\":2918:3008   */\n  tag_100\n    /* \"#utility.yul\":3004:3007   */\n  dup5\n    /* \"#utility.yul\":2996:3002   */\n  dup3\n    /* \"#utility.yul\":2989:2993   */\n  0x20\n    /* \"#utility.yul\":2981:2987   */\n  dup7\n    /* \"#utility.yul\":2977:2994   */\n  add\n    /* \"#utility.yul\":2918:3008   */\n  tag_41\n  jump\t// in\ntag_100:\n    /* \"#utility.yul\":2909:3008   */\n  swap2\n  pop\n    /* \"#utility.yul\":2732:3014   */\n  pop\n    /* \"#utility.yul\":2659:3014   */\n  swap3\n  swap2\n  pop\n  pop\n  jump\t// out\n    /* \"#utility.yul\":3036:3996   */\ntag_43:\n    /* \"#utility.yul\":3153:3158   */\n  0x00\n    /* \"#utility.yul\":3178:3269   */\n  tag_102\n    /* \"#utility.yul\":3194:3268   */\n  tag_103\n    /* \"#utility.yul\":3261:3267   */\n  dup5\n    /* \"#utility.yul\":3194:3268   */\n  tag_36\n  jump\t// in\ntag_103:\n    /* \"#utility.yul\":3178:3269   */\n  tag_35\n  jump\t// in\ntag_102:\n    /* \"#utility.yul\":3169:3269   */\n  swap1\n  pop\n    /* \"#utility.yul\":3289:3294   */\n  dup1\n    /* \"#utility.yul\":3318:3324   */\n  dup4\n    /* \"#utility.yul\":3311:3316   */\n  dup3\n    /* \"#utility.yul\":3304:3325   */\n  mstore\n    /* \"#utility.yul\":3352:3356   */\n  0x20\n    /* \"#utility.yul\":3345:3350   */\n  dup3\n    /* \"#utility.yul\":3341:3357   */\n  add\n    /* \"#utility.yul\":3334:3357   */\n  swap1\n  pop\n    /* \"#utility.yul\":3405:3409   */\n  0x20\n    /* \"#utility.yul\":3397:3403   */\n  dup5\n    /* \"#utility.yul\":3393:3410   */\n  mul\n    /* \"#utility.yul\":3385:3391   */\n  dup4\n    /* \"#utility.yul\":3381:3411   */\n  add\n    /* \"#utility.yul\":3434:3437   */\n  dup6\n    /* \"#utility.yul\":3426:3432   */\n  dup2\n    /* \"#utility.yul\":3423:3438   */\n  gt\n    /* \"#utility.yul\":3420:3542   */\n  iszero\n  tag_104\n  jumpi\n    /* \"#utility.yul\":3453:3532   */\n  tag_105\n  tag_37\n  jump\t// in\ntag_105:\n    /* \"#utility.yul\":3420:3542   */\ntag_104:\n    /* \"#utility.yul\":3568:3574   */\n  dup4\n    /* \"#utility.yul\":3551:3990   */\ntag_106:\n    /* \"#utility.yul\":3585:3591   */\n  dup2\n    /* \"#utility.yul\":3580:3583   */\n  dup2\n    /* \"#utility.yul\":3577:3592   */\n  lt\n    /* \"#utility.yul\":3551:3990   */\n  iszero\n  tag_108\n  jumpi\n    /* \"#utility.yul\":3667:3670   */\n  dup1\n    /* \"#utility.yul\":3661:3671   */\n  mload\n    /* \"#utility.yul\":3703:3721   */\n  0xffffffffffffffff\n    /* \"#utility.yul\":3690:3701   */\n  dup2\n    /* \"#utility.yul\":3687:3722   */\n  gt\n    /* \"#utility.yul\":3684:3806   */\n  iszero\n  tag_109\n  jumpi\n    /* \"#utility.yul\":3725:3804   */\n  tag_110\n  tag_31\n  jump\t// in\ntag_110:\n    /* \"#utility.yul\":3684:3806   */\ntag_109:\n    /* \"#utility.yul\":3849:3860   */\n  dup1\n    /* \"#utility.yul\":3841:3847   */\n  dup7\n    /* \"#utility.yul\":3837:3861   */\n  add\n    /* \"#utility.yul\":3887:3945   */\n  tag_111\n    /* \"#utility.yul\":3941:3944   */\n  dup10\n    /* \"#utility.yul\":3929:3939   */\n  dup3\n    /* \"#utility.yul\":3887:3945   */\n  tag_42\n  jump\t// in\ntag_111:\n    /* \"#utility.yul\":3882:3885   */\n  dup6\n    /* \"#utility.yul\":3875:3946   */\n  mstore\n    /* \"#utility.yul\":3975:3979   */\n  0x20\n    /* \"#utility.yul\":3970:3973   */\n  dup6\n    /* \"#utility.yul\":3966:3980   */\n  add\n    /* \"#utility.yul\":3959:3980   */\n  swap5\n  pop\n    /* \"#utility.yul\":3627:3990   */\n  pop\n  pop\n    /* \"#utility.yul\":3611:3615   */\n  0x20\n    /* \"#utility.yul\":3606:3609   */\n  dup2\n    /* \"#utility.yul\":3602:3616   */\n  add\n    /* \"#utility.yul\":3595:3616   */\n  swap1\n  pop\n    /* \"#utility.yul\":3551:3990   */\n  jump(tag_106)\ntag_108:\n    /* \"#utility.yul\":3555:3576   */\n  pop\n    /* \"#utility.yul\":3159:3996   */\n  pop\n  pop\n    /* \"#utility.yul\":3036:3996   */\n  swap4\n  swap3\n  pop\n  pop\n  pop\n  jump\t// out\n    /* \"#utility.yul\":4018:4423   */\ntag_44:\n    /* \"#utility.yul\":4110:4115   */\n  0x00\n    /* \"#utility.yul\":4159:4162   */\n  dup3\n    /* \"#utility.yul\":4152:4156   */\n  0x1f\n    /* \"#utility.yul\":4144:4150   */\n  dup4\n    /* \"#utility.yul\":4140:4157   */\n  add\n    /* \"#utility.yul\":4136:4163   */\n  slt\n    /* \"#utility.yul\":4126:4248   */\n  tag_113\n  jumpi\n    /* \"#utility.yul\":4167:4246   */\n  tag_114\n  tag_31\n  jump\t// in\ntag_114:\n    /* \"#utility.yul\":4126:4248   */\ntag_113:\n    /* \"#utility.yul\":4277:4283   */\n  dup2\n    /* \"#utility.yul\":4271:4284   */\n  mload\n    /* \"#utility.yul\":4302:4417   */\n  tag_115\n    /* \"#utility.yul\":4413:4416   */\n  dup5\n    /* \"#utility.yul\":4405:4411   */\n  dup3\n    /* \"#utility.yul\":4398:4402   */\n  0x20\n    /* \"#utility.yul\":4390:4396   */\n  dup7\n    /* \"#utility.yul\":4386:4403   */\n  add\n    /* \"#utility.yul\":4302:4417   */\n  tag_43\n  jump\t// in\ntag_115:\n    /* \"#utility.yul\":4293:4417   */\n  swap2\n  pop\n    /* \"#utility.yul\":4116:4423   */\n  pop\n    /* \"#utility.yul\":4018:4423   */\n  swap3\n  swap2\n  pop\n  pop\n  jump\t// out\n    /* \"#utility.yul\":4429:4555   */\ntag_45:\n    /* \"#utility.yul\":4466:4473   */\n  0x00\n    /* \"#utility.yul\":4506:4548   */\n  0xffffffffffffffffffffffffffffffffffffffff\n    /* \"#utility.yul\":4499:4504   */\n  dup3\n    /* \"#utility.yul\":4495:4549   */\n  and\n    /* \"#utility.yul\":4484:4549   */\n  swap1\n  pop\n    /* \"#utility.yul\":4429:4555   */\n  swap2\n  swap1\n  pop\n  jump\t// out\n    /* \"#utility.yul\":4561:4657   */\ntag_46:\n    /* \"#utility.yul\":4598:4605   */\n  0x00\n    /* \"#utility.yul\":4627:4651   */\n  tag_118\n    /* \"#utility.yul\":4645:4650   */\n  dup3\n    /* \"#utility.yul\":4627:4651   */\n  tag_45\n  jump\t// in\ntag_118:\n    /* \"#utility.yul\":4616:4651   */\n  swap1\n  pop\n    /* \"#utility.yul\":4561:4657   */\n  swap2\n  swap1\n  pop\n  jump\t// out\n    /* \"#utility.yul\":4663:4785   */\ntag_47:\n    /* \"#utility.yul\":4736:4760   */\n  tag_120\n    /* \"#utility.yul\":4754:4759   */\n  dup2\n    /* \"#utility.yul\":4736:4760   */\n  tag_46\n  jump\t// in\ntag_120:\n    /* \"#utility.yul\":4729:4734   */\n  dup2\n    /* \"#utility.yul\":4726:4761   */\n  eq\n    /* \"#utility.yul\":4716:4779   */\n  tag_121\n  jumpi\n    /* \"#utility.yul\":4775:4776   */\n  0x00\n    /* \"#utility.yul\":4772:4773   */\n  dup1\n    /* \"#utility.yul\":4765:4777   */\n  revert\n    /* \"#utility.yul\":4716:4779   */\ntag_121:\n    /* \"#utility.yul\":4663:4785   */\n  pop\n  jump\t// out\n    /* \"#utility.yul\":4791:4934   */\ntag_48:\n    /* \"#utility.yul\":4848:4853   */\n  0x00\n    /* \"#utility.yul\":4879:4885   */\n  dup2\n    /* \"#utility.yul\":4873:4886   */\n  mload\n    /* \"#utility.yul\":4864:4886   */\n  swap1\n  pop\n    /* \"#utility.yul\":4895:4928   */\n  tag_123\n    /* \"#utility.yul\":4922:4927   */\n  dup2\n    /* \"#utility.yul\":4895:4928   */\n  tag_47\n  jump\t// in\ntag_123:\n    /* \"#utility.yul\":4791:4934   */\n  swap3\n  swap2\n  pop\n  pop\n  jump\t// out\n    /* \"#utility.yul\":4940:5670   */\ntag_3:\n    /* \"#utility.yul\":5054:5060   */\n  0x00\n    /* \"#utility.yul\":5062:5068   */\n  dup1\n    /* \"#utility.yul\":5111:5113   */\n  0x40\n    /* \"#utility.yul\":5099:5108   */\n  dup4\n    /* \"#utility.yul\":5090:5097   */\n  dup6\n    /* \"#utility.yul\":5086:5109   */\n  sub\n    /* \"#utility.yul\":5082:5114   */\n  slt\n    /* \"#utility.yul\":5079:5198   */\n  iszero\n  tag_125\n  jumpi\n    /* \"#utility.yul\":5117:5196   */\n  tag_126\n  tag_29\n  jump\t// in\ntag_126:\n    /* \"#utility.yul\":5079:5198   */\ntag_125:\n    /* \"#utility.yul\":5258:5259   */\n  0x00\n    /* \"#utility.yul\":5247:5256   */\n  dup4\n    /* \"#utility.yul\":5243:5260   */\n  add\n    /* \"#utility.yul\":5237:5261   */\n  mload\n    /* \"#utility.yul\":5288:5306   */\n  0xffffffffffffffff\n    /* \"#utility.yul\":5280:5286   */\n  dup2\n    /* \"#utility.yul\":5277:5307   */\n  gt\n    /* \"#utility.yul\":5274:5391   */\n  iszero\n  tag_127\n  jumpi\n    /* \"#utility.yul\":5310:5389   */\n  tag_128\n  tag_30\n  jump\t// in\ntag_128:\n    /* \"#utility.yul\":5274:5391   */\ntag_127:\n    /* \"#utility.yul\":5415:5514   */\n  tag_129\n    /* \"#utility.yul\":5506:5513   */\n  dup6\n    /* \"#utility.yul\":5497:5503   */\n  dup3\n    /* \"#utility.yul\":5486:5495   */\n  dup7\n    /* \"#utility.yul\":5482:5504   */\n  add\n    /* \"#utility.yul\":5415:5514   */\n  tag_44\n  jump\t// in\ntag_129:\n    /* \"#utility.yul\":5405:5514   */\n  swap3\n  pop\n    /* \"#utility.yul\":5208:5524   */\n  pop\n    /* \"#utility.yul\":5563:5565   */\n  0x20\n    /* \"#utility.yul\":5589:5653   */\n  tag_130\n    /* \"#utility.yul\":5645:5652   */\n  dup6\n    /* \"#utility.yul\":5636:5642   */\n  dup3\n    /* \"#utility.yul\":5625:5634   */\n  dup7\n    /* \"#utility.yul\":5621:5643   */\n  add\n    /* \"#utility.yul\":5589:5653   */\n  tag_48\n  jump\t// in\ntag_130:\n    /* \"#utility.yul\":5579:5653   */\n  swap2\n  pop\n    /* \"#utility.yul\":5534:5663   */\n  pop\n    /* \"#utility.yul\":4940:5670   */\n  swap3\n  pop\n  swap3\n  swap1\n  pop\n  jump\t// out\n    /* \"#utility.yul\":5676:5775   */\ntag_49:\n    /* \"#utility.yul\":5728:5734   */\n  0x00\n    /* \"#utility.yul\":5762:5767   */\n  dup2\n    /* \"#utility.yul\":5756:5768   */\n  mload\n    /* \"#utility.yul\":5746:5768   */\n  swap1\n  pop\n    /* \"#utility.yul\":5676:5775   */\n  swap2\n  swap1\n  pop\n  jump\t// out\n    /* \"#utility.yul\":5781:5961   */\ntag_50:\n    /* \"#utility.yul\":5829:5906   */\n  0x4e487b7100000000000000000000000000000000000000000000000000000000\n    /* \"#utility.yul\":5826:5827   */\n  0x00\n    /* \"#utility.yul\":5819:5907   */\n  mstore\n    /* \"#utility.yul\":5926:5930   */\n  0x22\n    /* \"#utility.yul\":5923:5924   */\n  0x04\n    /* \"#utility.yul\":5916:5931   */\n  mstore\n    /* \"#utility.yul\":5950:5954   */\n  0x24\n    /* \"#utility.yul\":5947:5948   */\n  0x00\n    /* \"#utility.yul\":5940:5955   */\n  revert\n    /* \"#utility.yul\":5967:6287   */\ntag_21:\n    /* \"#utility.yul\":6011:6017   */\n  0x00\n    /* \"#utility.yul\":6048:6049   */\n  0x02\n    /* \"#utility.yul\":6042:6046   */\n  dup3\n    /* \"#utility.yul\":6038:6050   */\n  div\n    /* \"#utility.yul\":6028:6050   */\n  swap1\n  pop\n    /* \"#utility.yul\":6095:6096   */\n  0x01\n    /* \"#utility.yul\":6089:6093   */\n  dup3\n    /* \"#utility.yul\":6085:6097   */\n  and\n    /* \"#utility.yul\":6116:6134   */\n  dup1\n    /* \"#utility.yul\":6106:6187   */\n  tag_134\n  jumpi\n    /* \"#utility.yul\":6172:6176   */\n  0x7f\n    /* \"#utility.yul\":6164:6170   */\n  dup3\n    /* \"#utility.yul\":6160:6177   */\n  and\n    /* \"#utility.yul\":6150:6177   */\n  swap2\n  pop\n    /* \"#utility.yul\":6106:6187   */\ntag_134:\n    /* \"#utility.yul\":6234:6236   */\n  0x20\n    /* \"#utility.yul\":6226:6232   */\n  dup3\n    /* \"#utility.yul\":6223:6237   */\n  lt\n    /* \"#utility.yul\":6203:6221   */\n  dup2\n    /* \"#utility.yul\":6200:6238   */\n  sub\n    /* \"#utility.yul\":6197:6281   */\n  tag_135\n  jumpi\n    /* \"#utility.yul\":6253:6271   */\n  tag_136\n  tag_50\n  jump\t// in\ntag_136:\n    /* \"#utility.yul\":6197:6281   */\ntag_135:\n    /* \"#utility.yul\":6018:6287   */\n  pop\n    /* \"#utility.yul\":5967:6287   */\n  swap2\n  swap1\n  pop\n  jump\t// out\n    /* \"#utility.yul\":6293:6434   */\ntag_51:\n    /* \"#utility.yul\":6342:6346   */\n  0x00\n    /* \"#utility.yul\":6365:6368   */\n  dup2\n    /* \"#utility.yul\":6357:6368   */\n  swap1\n  pop\n    /* \"#utility.yul\":6388:6391   */\n  dup2\n    /* \"#utility.yul\":6385:6386   */\n  0x00\n    /* \"#utility.yul\":6378:6392   */\n  mstore\n    /* \"#utility.yul\":6422:6426   */\n  0x20\n    /* \"#utility.yul\":6419:6420   */\n  0x00\n    /* \"#utility.yul\":6409:6427   */\n  keccak256\n    /* \"#utility.yul\":6401:6427   */\n  swap1\n  pop\n    /* \"#utility.yul\":6293:6434   */\n  swap2\n  swap1\n  pop\n  jump\t// out\n    /* \"#utility.yul\":6440:6533   */\ntag_52:\n    /* \"#utility.yul\":6477:6483   */\n  0x00\n    /* \"#utility.yul\":6524:6526   */\n  0x20\n    /* \"#utility.yul\":6519:6521   */\n  0x1f\n    /* \"#utility.yul\":6512:6517   */\n  dup4\n    /* \"#utility.yul\":6508:6522   */\n  add\n    /* \"#utility.yul\":6504:6527   */\n  div\n    /* \"#utility.yul\":6494:6527   */\n  swap1\n  pop\n    /* \"#utility.yul\":6440:6533   */\n  swap2\n  swap1\n  pop\n  jump\t// out\n    /* \"#utility.yul\":6539:6646   */\ntag_53:\n    /* \"#utility.yul\":6583:6591   */\n  0x00\n    /* \"#utility.yul\":6633:6638   */\n  dup3\n    /* \"#utility.yul\":6627:6631   */\n  dup3\n    /* \"#utility.yul\":6623:6639   */\n  shl\n    /* \"#utility.yul\":6602:6639   */\n  swap1\n  pop\n    /* \"#utility.yul\":6539:6646   */\n  swap3\n  swap2\n  pop\n  pop\n  jump\t// out\n    /* \"#utility.yul\":6652:7045   */\ntag_54:\n    /* \"#utility.yul\":6721:6727   */\n  0x00\n    /* \"#utility.yul\":6771:6772   */\n  0x08\n    /* \"#utility.yul\":6759:6769   */\n  dup4\n    /* \"#utility.yul\":6755:6773   */\n  mul\n    /* \"#utility.yul\":6794:6891   */\n  tag_141\n    /* \"#utility.yul\":6824:6890   */\n  0xffffffffffffffffffffffffffffffffffffffffffffffffffffffffffffffff\n    /* \"#utility.yul\":6813:6822   */\n  dup3\n    /* \"#utility.yul\":6794:6891   */\n  tag_53\n  jump\t// in\ntag_141:\n    /* \"#utility.yul\":6912:6951   */\n  tag_142\n    /* \"#utility.yul\":6942:6950   */\n  dup7\n    /* \"#utility.yul\":6931:6940   */\n  dup4\n    /* \"#utility.yul\":6912:6951   */\n  tag_53\n  jump\t// in\ntag_142:\n    /* \"#utility.yul\":6900:6951   */\n  swap6\n  pop\n    /* \"#utility.yul\":6984:6988   */\n  dup1\n    /* \"#utility.yul\":6980:6989   */\n  not\n    /* \"#utility.yul\":6973:6978   */\n  dup5\n    /* \"#utility.yul\":6969:6990   */\n  and\n    /* \"#utility.yul\":6960:6990   */\n  swap4\n  pop\n    /* \"#utility.yul\":7033:7037   */\n  dup1\n    /* \"#utility.yul\":7023:7031   */\n  dup7\n    /* \"#utility.yul\":7019:7038   */\n  and\n    /* \"#utility.yul\":7012:7017   */\n  dup5\n    /* \"#utility.yul\":7009:7039   */\n  or\n    /* \"#utility.yul\":6999:7039   */\n  swap3\n  pop\n    /* \"#utility.yul\":6728:7045   */\n  pop\n  pop\n    /* \"#utility.yul\":6652:7045   */\n  swap4\n  swap3\n  pop\n  pop\n  pop\n  jump\t// out\n    /* \"#utility.yul\":7051:7128   */\ntag_55:\n    /* \"#utility.yul\":7088:7095   */\n  0x00\n    /* \"#utility.yul\":7117:7122   */\n  dup2\n    /* \"#utility.yul\":7106:7122   */\n  swap1\n  pop\n    /* \"#utility.yul\":7051:7128   */\n  swap2\n  swap1\n  pop\n  jump\t// out\n    /* \"#utility.yul\":7134:7194   */\ntag_56:\n    /* \"#utility.yul\":7162:7165   */\n  0x00\n    /* \"#utility.yul\":7183:7188   */\n  dup2\n    /* \"#utility.yul\":7176:7188   */\n  swap1\n  pop\n    /* \"#utility.yul\":7134:7194   */\n  swap2\n  swap1\n  pop\n  jump\t// out\n    /* \"#utility.yul\":7200:7342   */\ntag_57:\n    /* \"#utility.yul\":7250:7259   */\n  0x00\n    /* \"#utility.yul\":7283:7336   */\n  tag_146\n    /* \"#utility.yul\":7301:7335   */\n  tag_147\n    /* \"#utility.yul\":7310:7334   */\n  tag_148\n    /* \"#utility.yul\":7328:7333   */\n  dup5\n    /* \"#utility.yul\":7310:7334   */\n  tag_55\n  jump\t// in\ntag_148:\n    /* \"#utility.yul\":7301:7335   */\n  tag_56\n  jump\t// in\ntag_147:\n    /* \"#utility.yul\":7283:7336   */\n  tag_55\n  jump\t// in\ntag_146:\n    /* \"#utility.yul\":7270:7336   */\n  swap1\n  pop\n    /* \"#utility.yul\":7200:7342   */\n  swap2\n  swap1\n  pop\n  jump\t// out\n    /* \"#utility.yul\":7348:7423   */\ntag_58:\n    /* \"#utility.yul\":7391:7394   */\n  0x00\n    /* \"#utility.yul\":7412:7417   */\n  dup2\n    /* \"#utility.yul\":7405:7417   */\n  swap1\n  pop\n    /* \"#utility.yul\":7348:7423   */\n  swap2\n  swap1\n  pop\n  jump\t// out\n    /* \"#utility.yul\":7429:7698   */\ntag_59:\n    /* \"#utility.yul\":7539:7578   */\n  tag_151\n    /* \"#utility.yul\":7570:7577   */\n  dup4\n    /* \"#utility.yul\":7539:7578   */\n  tag_57\n  jump\t// in\ntag_151:\n    /* \"#utility.yul\":7600:7691   */\n  tag_152\n    /* \"#utility.yul\":7649:7690   */\n  tag_153\n    /* \"#utility.yul\":7673:7689   */\n  dup3\n    /* \"#utility.yul\":7649:7690   */\n  tag_58\n  jump\t// in\ntag_153:\n    /* \"#utility.yul\":7641:7647   */\n  dup5\n    /* \"#utility.yul\":7634:7638   */\n  dup5\n    /* \"#utility.yul\":7628:7639   */\n  sload\n    /* \"#utility.yul\":7600:7691   */\n  tag_54\n  jump\t// in\ntag_152:\n    /* \"#utility.yul\":7594:7598   */\n  dup3\n    /* \"#utility.yul\":7587:7692   */\n  sstore\n    /* \"#utility.yul\":7505:7698   */\n  pop\n    /* \"#utility.yul\":7429:7698   */\n  pop\n  pop\n  pop\n  jump\t// out\n    /* \"#utility.yul\":7704:7777   */\ntag_60:\n    /* \"#utility.yul\":7749:7752   */\n  0x00\n    /* \"#utility.yul\":7704:7777   */\n  swap1\n  jump\t// out\n    /* \"#utility.yul\":7783:7972   */\ntag_61:\n    /* \"#utility.yul\":7860:7892   */\n  tag_156\n  tag_60\n  jump\t// in\ntag_156:\n    /* \"#utility.yul\":7901:7966   */\n  tag_157\n    /* \"#utility.yul\":7959:7965   */\n  dup2\n    /* \"#utility.yul\":7951:7957   */\n  dup5\n    /* \"#utility.yul\":7945:7949   */\n  dup5\n    /* \"#utility.yul\":7901:7966   */\n  tag_59\n  jump\t// in\ntag_157:\n    /* \"#utility.yul\":7836:7972   */\n  pop\n    /* \"#utility.yul\":7783:7972   */\n  pop\n  pop\n  jump\t// out\n    /* \"#utility.yul\":7978:8164   */\ntag_62:\n    /* \"#utility.yul\":8038:8158   */\ntag_159:\n    /* \"#utility.yul\":8055:8058   */\n  dup2\n    /* \"#utility.yul\":8048:8053   */\n  dup2\n    /* \"#utility.yul\":8045:8059   */\n  lt\n    /* \"#utility.yul\":8038:8158   */\n  iszero\n  tag_161\n  jumpi\n    /* \"#utility.yul\":8109:8148   */\n  tag_162\n    /* \"#utility.yul\":8146:8147   */\n  0x00\n    /* \"#utility.yul\":8139:8144   */\n  dup3\n    /* \"#utility.yul\":8109:8148   */\n  tag_61\n  jump\t// in\ntag_162:\n    /* \"#utility.yul\":8082:8083   */\n  0x01\n    /* \"#utility.yul\":8075:8080   */\n  dup2\n    /* \"#utility.yul\":8071:8084   */\n  add\n    /* \"#utility.yul\":8062:8084   */\n  swap1\n  pop\n    /* \"#utility.yul\":8038:8158   */\n  jump(tag_159)\ntag_161:\n    /* \"#utility.yul\":7978:8164   */\n  pop\n  pop\n  jump\t// out\n    /* \"#utility.yul\":8170:8713   */\ntag_63:\n    /* \"#utility.yul\":8271:8273   */\n  0x1f\n    /* \"#utility.yul\":8266:8269   */\n  dup3\n    /* \"#utility.yul\":8263:8274   */\n  gt\n    /* \"#utility.yul\":8260:8706   */\n  iszero\n  tag_164\n  jumpi\n    /* \"#utility.yul\":8305:8343   */\n  tag_165\n    /* \"#utility.yul\":8337:8342   */\n  dup2\n    /* \"#utility.yul\":8305:8343   */\n  tag_51\n  jump\t// in\ntag_165:\n    /* \"#utility.yul\":8389:8418   */\n  tag_166\n    /* \"#utility.yul\":8407:8417   */\n  dup5\n    /* \"#utility.yul\":8389:8418   */\n  tag_52\n  jump\t// in\ntag_166:\n    /* \"#utility.yul\":8379:8387   */\n  dup2\n    /* \"#utility.yul\":8375:8419   */\n  add\n    /* \"#utility.yul\":8572:8574   */\n  0x20\n    /* \"#utility.yul\":8560:8570   */\n  dup6\n    /* \"#utility.yul\":8557:8575   */\n  lt\n    /* \"#utility.yul\":8554:8603   */\n  iszero\n  tag_167\n  jumpi\n    /* \"#utility.yul\":8593:8601   */\n  dup2\n    /* \"#utility.yul\":8578:8601   */\n  swap1\n  pop\n    /* \"#utility.yul\":8554:8603   */\ntag_167:\n    /* \"#utility.yul\":8616:8696   */\n  tag_168\n    /* \"#utility.yul\":8672:8694   */\n  tag_169\n    /* \"#utility.yul\":8690:8693   */\n  dup6\n    /* \"#utility.yul\":8672:8694   */\n  tag_52\n  jump\t// in\ntag_169:\n    /* \"#utility.yul\":8662:8670   */\n  dup4\n    /* \"#utility.yul\":8658:8695   */\n  add\n    /* \"#utility.yul\":8645:8656   */\n  dup3\n    /* \"#utility.yul\":8616:8696   */\n  tag_62\n  jump\t// in\ntag_168:\n    /* \"#utility.yul\":8275:8706   */\n  pop\n  pop\n    /* \"#utility.yul\":8260:8706   */\ntag_164:\n    /* \"#utility.yul\":8170:8713   */\n  pop\n  pop\n  pop\n  jump\t// out\n    /* \"#utility.yul\":8719:8836   */\ntag_64:\n    /* \"#utility.yul\":8773:8781   */\n  0x00\n    /* \"#utility.yul\":8823:8828   */\n  dup3\n    /* \"#utility.yul\":8817:8821   */\n  dup3\n    /* \"#utility.yul\":8813:8829   */\n  shr\n    /* \"#utility.yul\":8792:8829   */\n  swap1\n  pop\n    /* \"#utility.yul\":8719:8836   */\n  swap3\n  swap2\n  pop\n  pop\n  jump\t// out\n    /* \"#utility.yul\":8842:9011   */\ntag_65:\n    /* \"#utility.yul\":8886:8892   */\n  0x00\n    /* \"#utility.yul\":8919:8970   */\n  tag_172\n    /* \"#utility.yul\":8967:8968   */\n  0x00\n    /* \"#utility.yul\":8963:8969   */\n  not\n    /* \"#utility.yul\":8955:8960   */\n  dup5\n    /* \"#utility.yul\":8952:8953   */\n  0x08\n    /* \"#utility.yul\":8948:8961   */\n  mul\n    /* \"#utility.yul\":8919:8970   */\n  tag_64\n  jump\t// in\ntag_172:\n    /* \"#utility.yul\":8915:8971   */\n  not\n    /* \"#utility.yul\":9000:9004   */\n  dup1\n    /* \"#utility.yul\":8994:8998   */\n  dup4\n    /* \"#utility.yul\":8990:9005   */\n  and\n    /* \"#utility.yul\":8980:9005   */\n  swap2\n  pop\n    /* \"#utility.yul\":8893:9011   */\n  pop\n    /* \"#utility.yul\":8842:9011   */\n  swap3\n  swap2\n  pop\n  pop\n  jump\t// out\n    /* \"#utility.yul\":9016:9311   */\ntag_66:\n    /* \"#utility.yul\":9092:9096   */\n  0x00\n    /* \"#utility.yul\":9238:9267   */\n  tag_174\n    /* \"#utility.yul\":9263:9266   */\n  dup4\n    /* \"#utility.yul\":9257:9261   */\n  dup4\n    /* \"#utility.yul\":9238:9267   */\n  tag_65\n  jump\t// in\ntag_174:\n    /* \"#utility.yul\":9230:9267   */\n  swap2\n  pop\n    /* \"#utility.yul\":9300:9303   */\n  dup3\n    /* \"#utility.yul\":9297:9298   */\n  0x02\n    /* \"#utility.yul\":9293:9304   */\n  mul\n    /* \"#utility.yul\":9287:9291   */\n  dup3\n    /* \"#utility.yul\":9284:9305   */\n  or\n    /* \"#utility.yul\":9276:9305   */\n  swap1\n  pop\n    /* \"#utility.yul\":9016:9311   */\n  swap3\n  swap2\n  pop\n  pop\n  jump\t// out\n    /* \"#utility.yul\":9316:10711   */\ntag_13:\n    /* \"#utility.yul\":9433:9470   */\n  tag_176\n    /* \"#utility.yul\":9466:9469   */\n  dup3\n    /* \"#utility.yul\":9433:9470   */\n  tag_49\n  jump\t// in\ntag_176:\n    /* \"#utility.yul\":9535:9553   */\n  0xffffffffffffffff\n    /* \"#utility.yul\":9527:9533   */\n  dup2\n    /* \"#utility.yul\":9524:9554   */\n  gt\n    /* \"#utility.yul\":9521:9577   */\n  iszero\n  tag_177\n  jumpi\n    /* \"#utility.yul\":9557:9575   */\n  tag_178\n  tag_33\n  jump\t// in\ntag_178:\n    /* \"#utility.yul\":9521:9577   */\ntag_177:\n    /* \"#utility.yul\":9601:9639   */\n  tag_179\n    /* \"#utility.yul\":9633:9637   */\n  dup3\n    /* \"#utility.yul\":9627:9638   */\n  sload\n    /* \"#utility.yul\":9601:9639   */\n  tag_21\n  jump\t// in\ntag_179:\n    /* \"#utility.yul\":9686:9753   */\n  tag_180\n    /* \"#utility.yul\":9746:9752   */\n  dup3\n    /* \"#utility.yul\":9738:9744   */\n  dup3\n    /* \"#utility.yul\":9732:9736   */\n  dup6\n    /* \"#utility.yul\":9686:9753   */\n  tag_63\n  jump\t// in\ntag_180:\n    /* \"#utility.yul\":9780:9781   */\n  0x00\n    /* \"#utility.yul\":9804:9808   */\n  0x20\n    /* \"#utility.yul\":9791:9808   */\n  swap1\n  pop\n    /* \"#utility.yul\":9836:9838   */\n  0x1f\n    /* \"#utility.yul\":9828:9834   */\n  dup4\n    /* \"#utility.yul\":9825:9839   */\n  gt\n    /* \"#utility.yul\":9853:9854   */\n  0x01\n    /* \"#utility.yul\":9848:10466   */\n  dup2\n  eq\n  tag_182\n  jumpi\n    /* \"#utility.yul\":10510:10511   */\n  0x00\n    /* \"#utility.yul\":10527:10533   */\n  dup5\n    /* \"#utility.yul\":10524:10601   */\n  iszero\n  tag_183\n  jumpi\n    /* \"#utility.yul\":10576:10585   */\n  dup3\n    /* \"#utility.yul\":10571:10574   */\n  dup8\n    /* \"#utility.yul\":10567:10586   */\n  add\n    /* \"#utility.yul\":10561:10587   */\n  mload\n    /* \"#utility.yul\":10552:10587   */\n  swap1\n  pop\n    /* \"#utility.yul\":10524:10601   */\ntag_183:\n    /* \"#utility.yul\":10627:10694   */\n  tag_184\n    /* \"#utility.yul\":10687:10693   */\n  dup6\n    /* \"#utility.yul\":10680:10685   */\n  dup3\n    /* \"#utility.yul\":10627:10694   */\n  tag_66\n  jump\t// in\ntag_184:\n    /* \"#utility.yul\":10621:10625   */\n  dup7\n    /* \"#utility.yul\":10614:10695   */\n  sstore\n    /* \"#utility.yul\":10483:10705   */\n  pop\n    /* \"#utility.yul\":9818:10705   */\n  jump(tag_181)\n    /* \"#utility.yul\":9848:10466   */\ntag_182:\n    /* \"#utility.yul\":9900:9904   */\n  0x1f\n    /* \"#utility.yul\":9896:9905   */\n  not\n    /* \"#utility.yul\":9888:9894   */\n  dup5\n    /* \"#utility.yul\":9884:9906   */\n  and\n    /* \"#utility.yul\":9934:9971   */\n  tag_185\n    /* \"#utility.yul\":9966:9970   */\n  dup7\n    /* \"#utility.yul\":9934:9971   */\n  tag_51\n  jump\t// in\ntag_185:\n    /* \"#utility.yul\":9993:9994   */\n  0x00\n    /* \"#utility.yul\":10007:10215   */\ntag_186:\n    /* \"#utility.yul\":10021:10028   */\n  dup3\n    /* \"#utility.yul\":10018:10019   */\n  dup2\n    /* \"#utility.yul\":10015:10029   */\n  lt\n    /* \"#utility.yul\":10007:10215   */\n  iszero\n  tag_188\n  jumpi\n    /* \"#utility.yul\":10100:10109   */\n  dup5\n    /* \"#utility.yul\":10095:10098   */\n  dup10\n    /* \"#utility.yul\":10091:10110   */\n  add\n    /* \"#utility.yul\":10085:10111   */\n  mload\n    /* \"#utility.yul\":10077:10083   */\n  dup3\n    /* \"#utility.yul\":10070:10112   */\n  sstore\n    /* \"#utility.yul\":10151:10152   */\n  0x01\n    /* \"#utility.yul\":10143:10149   */\n  dup3\n    /* \"#utility.yul\":10139:10153   */\n  add\n    /* \"#utility.yul\":10129:10153   */\n  swap2\n  pop\n    /* \"#utility.yul\":10198:10200   */\n  0x20\n    /* \"#utility.yul\":10187:10196   */\n  dup6\n    /* \"#utility.yul\":10183:10201   */\n  add\n    /* \"#utility.yul\":10170:10201   */\n  swap5\n  pop\n    /* \"#utility.yul\":10044:10048   */\n  0x20\n    /* \"#utility.yul\":10041:10042   */\n  dup2\n    /* \"#utility.yul\":10037:10049   */\n  add\n    /* \"#utility.yul\":10032:10049   */\n  swap1\n  pop\n    /* \"#utility.yul\":10007:10215   */\n  jump(tag_186)\ntag_188:\n    /* \"#utility.yul\":10243:10249   */\n  dup7\n    /* \"#utility.yul\":10234:10241   */\n  dup4\n    /* \"#utility.yul\":10231:10250   */\n  lt\n    /* \"#utility.yul\":10228:10407   */\n  iszero\n  tag_189\n  jumpi\n    /* \"#utility.yul\":10301:10310   */\n  dup5\n    /* \"#utility.yul\":10296:10299   */\n  dup10\n    /* \"#utility.yul\":10292:10311   */\n  add\n    /* \"#utility.yul\":10286:10312   */\n  mload\n    /* \"#utility.yul\":10344:10392   */\n  tag_190\n    /* \"#utility.yul\":10386:10390   */\n  0x1f\n    /* \"#utility.yul\":10378:10384   */\n  dup10\n    /* \"#utility.yul\":10374:10391   */\n  and\n    /* \"#utility.yul\":10363:10372   */\n  dup3\n    /* \"#utility.yul\":10344:10392   */\n  tag_65\n  jump\t// in\ntag_190:\n    /* \"#utility.yul\":10336:10342   */\n  dup4\n    /* \"#utility.yul\":10329:10393   */\n  sstore\n    /* \"#utility.yul\":10251:10407   */\n  pop\n    /* \"#utility.yul\":10228:10407   */\ntag_189:\n    /* \"#utility.yul\":10453:10454   */\n  0x01\n    /* \"#utility.yul\":10449:10450   */\n  0x02\n    /* \"#utility.yul\":10441:10447   */\n  dup9\n    /* \"#utility.yul\":10437:10451   */\n  mul\n    /* \"#utility.yul\":10433:10455   */\n  add\n    /* \"#utility.yul\":10427:10431   */\n  dup9\n    /* \"#utility.yul\":10420:10456   */\n  sstore\n    /* \"#utility.yul\":9855:10466   */\n  pop\n  pop\n  pop\n    /* \"#utility.yul\":9818:10705   */\ntag_181:\n  pop\n    /* \"#utility.yul\":9408:10711   */\n  pop\n  pop\n  pop\n    /* \"#utility.yul\":9316:10711   */\n  pop\n  pop\n  jump\t// out\n    /* \"contracts/VotingRegions.sol\":197:1640  contract VotingRegions{... */\ntag_8:\n  dataSize(sub_0)\n  dup1\n  dataOffset(sub_0)\n  0x00\n  codecopy\n  0x00\n  return\nstop\n\nsub_0: assembly {\n        /* \"contracts/VotingRegions.sol\":197:1640  contract VotingRegions{... */\n      mstore(0x40, 0x80)\n      callvalue\n      dup1\n      iszero\n      tag_1\n      jumpi\n      0x00\n      dup1\n      revert\n    tag_1:\n      pop\n      jumpi(tag_2, lt(calldatasize, 0x04))\n      shr(0xe0, calldataload(0x00))\n      dup1\n      0xb71b9dab\n      gt\n      tag_12\n      jumpi\n      dup1\n      0xb71b9dab\n      eq\n      tag_7\n      jumpi\n      dup1\n      0xc1b8411a\n      eq\n      tag_8\n      jumpi\n      dup1\n      0xcb26765f\n      eq\n      tag_9\n      jumpi\n      dup1\n      0xefd077d1\n      eq\n      tag_10\n      jumpi\n      dup1\n      0xf6b4dfb4\n      eq\n      tag_11\n      jumpi\n      jump(tag_2)\n    tag_12:\n      dup1\n      0x1bb42ab4\n      eq\n      tag_3\n      jumpi\n      dup1\n      0x2a0acc6a\n      eq\n      tag_4\n      jumpi\n      dup1\n      0x81e167cf\n      eq\n      tag_5\n      jumpi\n      dup1\n      0x8da5cb5b\n      eq\n      tag_6\n      jumpi\n    tag_2:\n      0x00\n      dup1\n      revert\n        /* \"contracts/VotingRegions.sol\":228:259  string[]  public  votingRegions */\n    tag_3:\n      tag_13\n      0x04\n      dup1\n      calldatasize\n      sub\n      dup2\n      add\n      swap1\n      tag_14\n      swap2\n      swap1\n      tag_15\n      jump\t// in\n    tag_14:\n      tag_16\n      jump\t// in\n    tag_13:\n      mload(0x40)\n      tag_17\n      swap2\n      swap1\n      tag_18\n      jump\t// in\n    tag_17:\n      mload(0x40)\n      dup1\n      swap2\n      sub\n      swap1\n      return\n        /* \"contracts/VotingRegions.sol\":294:344  bytes32 public constant ADMIN = keccak256(\"ADMIN\") */\n    tag_4:\n      tag_19\n      tag_20\n      jump\t// in\n    tag_19:\n      mload(0x40)\n      tag_21\n      swap2\n      swap1\n      tag_22\n      jump\t// in\n    tag_21:\n      mload(0x40)\n      dup1\n      swap2\n      sub\n      swap1\n      return\n        /* \"contracts/VotingRegions.sol\":351:399  bytes32 public constant USER = keccak256(\"USER\") */\n    tag_5:\n      tag_23\n      tag_24\n      jump\t// in\n    tag_23:\n      mload(0x40)\n      tag_25\n      swap2\n      swap1\n      tag_22\n      jump\t// in\n    tag_25:\n      mload(0x40)\n      dup1\n      swap2\n      sub\n      swap1\n      return\n        /* \"contracts/VotingRegions.sol\":266:287  address public  owner */\n    tag_6:\n      tag_26\n      tag_27\n      jump\t// in\n    tag_26:\n      mload(0x40)\n      tag_28\n      swap2\n      swap1\n      tag_29\n      jump\t// in\n    tag_28:\n      mload(0x40)\n      dup1\n      swap2\n      sub\n      swap1\n      return\n        /* \"contracts/VotingRegions.sol\":847:957  function getRegions() public view returns (string[] memory){... */\n    tag_7:\n      tag_30\n      tag_31\n      jump\t// in\n    tag_30:\n      mload(0x40)\n      tag_32\n      swap2\n      swap1\n      tag_33\n      jump\t// in\n    tag_32:\n      mload(0x40)\n      dup1\n      swap2\n      sub\n      swap1\n      return\n        /* \"contracts/VotingRegions.sol\":471:527  bytes32 public constant DEPLOYER = keccak256(\"DEPLOYER\") */\n    tag_8:\n      tag_34\n      tag_35\n      jump\t// in\n    tag_34:\n      mload(0x40)\n      tag_36\n      swap2\n      swap1\n      tag_22\n      jump\t// in\n    tag_36:\n      mload(0x40)\n      dup1\n      swap2\n      sub\n      swap1\n      return\n        /* \"contracts/VotingRegions.sol\":406:464  bytes32 public constant CANDIDATE = keccak256(\"CANDIDATE\") */\n    tag_9:\n      tag_37\n      tag_38\n      jump\t// in\n    tag_37:\n      mload(0x40)\n      tag_39\n      swap2\n      swap1\n      tag_22\n      jump\t// in\n    tag_39:\n      mload(0x40)\n      dup1\n      swap2\n      sub\n      swap1\n      return\n        /* \"contracts/VotingRegions.sol\":966:1516  function addRegions(string memory region)  external {... */\n    tag_10:\n      tag_40\n      0x04\n      dup1\n      calldatasize\n      sub\n      dup2\n      add\n      swap1\n      tag_41\n      swap2\n      swap1\n      tag_42\n      jump\t// in\n    tag_41:\n      tag_43\n      jump\t// in\n    tag_40:\n      stop\n        /* \"contracts/VotingRegions.sol\":536:566  address public contractAddress */\n    tag_11:\n      tag_44\n      tag_45\n      jump\t// in\n    tag_44:\n      mload(0x40)\n      tag_46\n      swap2\n      swap1\n      tag_29\n      jump\t// in\n    tag_46:\n      mload(0x40)\n      dup1\n      swap2\n      sub\n      swap1\n      return\n        /* \"contracts/VotingRegions.sol\":228:259  string[]  public  votingRegions */\n    tag_16:\n      0x00\n      dup2\n      dup2\n      sload\n      dup2\n      lt\n      tag_47\n      jumpi\n      0x00\n      dup1\n      revert\n    tag_47:\n      swap1\n      0x00\n      mstore\n      keccak256(0x00, 0x20)\n      add\n      0x00\n      swap2\n      pop\n      swap1\n      pop\n      dup1\n      sload\n      tag_49\n      swap1\n      tag_50\n      jump\t// in\n    tag_49:\n      dup1\n      0x1f\n      add\n      0x20\n      dup1\n      swap2\n      div\n      mul\n      0x20\n      add\n      mload(0x40)\n      swap1\n      dup2\n      add\n      0x40\n      mstore\n      dup1\n      swap3\n      swap2\n      swap1\n      dup2\n      dup2\n      mstore\n      0x20\n      add\n      dup3\n      dup1\n      sload\n      tag_51\n      swap1\n      tag_50\n      jump\t// in\n    tag_51:\n      dup1\n      iszero\n      tag_52\n      jumpi\n      dup1\n      0x1f\n      lt\n      tag_53\n      jumpi\n      0x0100\n      dup1\n      dup4\n      sload\n      div\n      mul\n      dup4\n      mstore\n      swap2\n      0x20\n      add\n      swap2\n      jump(tag_52)\n    tag_53:\n      dup3\n      add\n      swap2\n      swap1\n      0x00\n      mstore\n      keccak256(0x00, 0x20)\n      swap1\n    tag_54:\n      dup2\n      sload\n      dup2\n      mstore\n      swap1\n      0x01\n      add\n      swap1\n      0x20\n      add\n      dup1\n      dup4\n      gt\n      tag_54\n      jumpi\n      dup3\n      swap1\n      sub\n      0x1f\n      and\n      dup3\n      add\n      swap2\n    tag_52:\n      pop\n      pop\n      pop\n      pop\n      pop\n      dup2\n      jump\t// out\n        /* \"contracts/VotingRegions.sol\":294:344  bytes32 public constant ADMIN = keccak256(\"ADMIN\") */\n    tag_20:\n        /* \"contracts/VotingRegions.sol\":326:344  keccak256(\"ADMIN\") */\n      0xdf8b4c520ffe197c5343c6f5aec59570151ef9a492f2c624fd45ddde6135ec42\n        /* \"contracts/VotingRegions.sol\":294:344  bytes32 public constant ADMIN = keccak256(\"ADMIN\") */\n      dup2\n      jump\t// out\n        /* \"contracts/VotingRegions.sol\":351:399  bytes32 public constant USER = keccak256(\"USER\") */\n    tag_24:\n        /* \"contracts/VotingRegions.sol\":382:399  keccak256(\"USER\") */\n      0x2db9fd3d099848027c2383d0a083396f6c41510d7acfd92adc99b6cffcf31e96\n        /* \"contracts/VotingRegions.sol\":351:399  bytes32 public constant USER = keccak256(\"USER\") */\n      dup2\n      jump\t// out\n        /* \"contracts/VotingRegions.sol\":266:287  address public  owner */\n    tag_27:\n      0x01\n      0x00\n      swap1\n      sload\n      swap1\n      0x0100\n      exp\n      swap1\n      div\n      0xffffffffffffffffffffffffffffffffffffffff\n      and\n      dup2\n      jump\t// out\n        /* \"contracts/VotingRegions.sol\":847:957  function getRegions() public view returns (string[] memory){... */\n    tag_31:\n        /* \"contracts/VotingRegions.sol\":890:905  string[] memory */\n      0x60\n        /* \"contracts/VotingRegions.sol\":926:939  votingRegions */\n      0x00\n        /* \"contracts/VotingRegions.sol\":919:939  return votingRegions */\n      dup1\n      sload\n      dup1\n      0x20\n      mul\n      0x20\n      add\n      mload(0x40)\n      swap1\n      dup2\n      add\n      0x40\n      mstore\n      dup1\n      swap3\n      swap2\n      swap1\n      dup2\n      dup2\n      mstore\n      0x20\n      add\n      0x00\n      swap1\n    tag_56:\n      dup3\n      dup3\n      lt\n      iszero\n      tag_57\n      jumpi\n      dup4\n      dup3\n      swap1\n      0x00\n      mstore\n      keccak256(0x00, 0x20)\n      add\n      dup1\n      sload\n      tag_59\n      swap1\n      tag_50\n      jump\t// in\n    tag_59:\n      dup1\n      0x1f\n      add\n      0x20\n      dup1\n      swap2\n      div\n      mul\n      0x20\n      add\n      mload(0x40)\n      swap1\n      dup2\n      add\n      0x40\n      mstore\n      dup1\n      swap3\n      swap2\n      swap1\n      dup2\n      dup2\n      mstore\n      0x20\n      add\n      dup3\n      dup1\n      sload\n      tag_60\n      swap1\n      tag_50\n      jump\t// in\n    tag_60:\n      dup1\n      iszero\n      tag_61\n      jumpi\n      dup1\n      0x1f\n      lt\n      tag_62\n      jumpi\n      0x0100\n      dup1\n      dup4\n      sload\n      div\n      mul\n      dup4\n      mstore\n      swap2\n      0x20\n      add\n      swap2\n      jump(tag_61)\n    tag_62:\n      dup3\n      add\n      swap2\n      swap1\n      0x00\n      mstore\n      keccak256(0x00, 0x20)\n      swap1\n    tag_63:\n      dup2\n      sload\n      dup2\n      mstore\n      swap1\n      0x01\n      add\n      swap1\n      0x20\n      add\n      dup1\n      dup4\n      gt\n      tag_63\n      jumpi\n      dup3\n      swap1\n      sub\n      0x1f\n      and\n      dup3\n      add\n      swap2\n    tag_61:\n      pop\n      pop\n      pop\n      pop\n      pop\n      dup2\n      mstore\n      0x20\n      add\n      swap1\n      0x01\n      add\n      swap1\n      jump(tag_56)\n    tag_57:\n      pop\n      pop\n      pop\n      pop\n      swap1\n      pop\n        /* \"contracts/VotingRegions.sol\":847:957  function getRegions() public view returns (string[] memory){... */\n      swap1\n      jump\t// out\n        /* \"contracts/VotingRegions.sol\":471:527  bytes32 public constant DEPLOYER = keccak256(\"DEPLOYER\") */\n    tag_35:\n        /* \"contracts/VotingRegions.sol\":506:527  keccak256(\"DEPLOYER\") */\n      0x503cf060389b91af8851125bd70ce66d16d12330718b103fc7674ef6d27e70c9\n        /* \"contracts/VotingRegions.sol\":471:527  bytes32 public constant DEPLOYER = keccak256(\"DEPLOYER\") */\n      dup2\n      jump\t// out\n        /* \"contracts/VotingRegions.sol\":406:464  bytes32 public constant CANDIDATE = keccak256(\"CANDIDATE\") */\n    tag_38:\n        /* \"contracts/VotingRegions.sol\":442:464  keccak256(\"CANDIDATE\") */\n      0xa62771101a79dd4b4d7b861524e85faa4569e99d6bb6b09233805dccb1ea480f\n        /* \"contracts/VotingRegions.sol\":406:464  bytes32 public constant CANDIDATE = keccak256(\"CANDIDATE\") */\n      dup2\n      jump\t// out\n        /* \"contracts/VotingRegions.sol\":966:1516  function addRegions(string memory region)  external {... */\n    tag_43:\n        /* \"contracts/VotingRegions.sol\":1080:1086  bool a */\n      0x00\n        /* \"contracts/VotingRegions.sol\":1104:1119  contractAddress */\n      0x02\n      0x00\n      swap1\n      sload\n      swap1\n      0x0100\n      exp\n      swap1\n      div\n      0xffffffffffffffffffffffffffffffffffffffff\n      and\n        /* \"contracts/VotingRegions.sol\":1089:1137  IAccessControl(contractAddress).getRoleOfAddress */\n      0xffffffffffffffffffffffffffffffffffffffff\n      and\n      0x4a65ec81\n        /* \"contracts/VotingRegions.sol\":1138:1148  msg.sender */\n      caller\n        /* \"contracts/VotingRegions.sol\":326:344  keccak256(\"ADMIN\") */\n      0xdf8b4c520ffe197c5343c6f5aec59570151ef9a492f2c624fd45ddde6135ec42\n        /* \"contracts/VotingRegions.sol\":1089:1155  IAccessControl(contractAddress).getRoleOfAddress(msg.sender,ADMIN) */\n      mload(0x40)\n      dup4\n      0xffffffff\n      and\n      0xe0\n      shl\n      dup2\n      mstore\n      0x04\n      add\n      tag_65\n      swap3\n      swap2\n      swap1\n      tag_66\n      jump\t// in\n    tag_65:\n      0x20\n      mload(0x40)\n      dup1\n      dup4\n      sub\n      dup2\n      dup7\n      gas\n      staticcall\n      iszero\n      dup1\n      iszero\n      tag_68\n      jumpi\n      returndatasize\n      0x00\n      dup1\n      returndatacopy\n      revert(0x00, returndatasize)\n    tag_68:\n      pop\n      pop\n      pop\n      pop\n      mload(0x40)\n      returndatasize\n      not(0x1f)\n      0x1f\n      dup3\n      add\n      and\n      dup3\n      add\n      dup1\n      0x40\n      mstore\n      pop\n      dup2\n      add\n      swap1\n      tag_69\n      swap2\n      swap1\n      tag_70\n      jump\t// in\n    tag_69:\n        /* \"contracts/VotingRegions.sol\":1080:1155  bool a = IAccessControl(contractAddress).getRoleOfAddress(msg.sender,ADMIN) */\n      swap1\n      pop\n        /* \"contracts/VotingRegions.sol\":1174:1175  a */\n      dup1\n        /* \"contracts/VotingRegions.sol\":1166:1211  require(a, \"only the admins can add regions\") */\n      tag_71\n      jumpi\n      mload(0x40)\n      0x08c379a000000000000000000000000000000000000000000000000000000000\n      dup2\n      mstore\n      0x04\n      add\n      tag_72\n      swap1\n      tag_73\n      jump\t// in\n    tag_72:\n      mload(0x40)\n      dup1\n      swap2\n      sub\n      swap1\n      revert\n    tag_71:\n        /* \"contracts/VotingRegions.sol\":1228:1237  uint256 i */\n      0x00\n        /* \"contracts/VotingRegions.sol\":1224:1460  for(uint256 i=0 ; i<votingRegions.length; i++){... */\n    tag_74:\n        /* \"contracts/VotingRegions.sol\":1244:1257  votingRegions */\n      0x00\n        /* \"contracts/VotingRegions.sol\":1244:1264  votingRegions.length */\n      dup1\n      sload\n      swap1\n      pop\n        /* \"contracts/VotingRegions.sol\":1242:1243  i */\n      dup2\n        /* \"contracts/VotingRegions.sol\":1242:1264  i<votingRegions.length */\n      lt\n        /* \"contracts/VotingRegions.sol\":1224:1460  for(uint256 i=0 ; i<votingRegions.length; i++){... */\n      iszero\n      tag_75\n      jumpi\n        /* \"contracts/VotingRegions.sol\":1359:1365  region */\n      dup3\n        /* \"contracts/VotingRegions.sol\":1343:1367  keccak256(bytes(region)) */\n      dup1\n      mload\n      swap1\n      0x20\n      add\n      keccak256\n        /* \"contracts/VotingRegions.sol\":1321:1334  votingRegions */\n      0x00\n        /* \"contracts/VotingRegions.sol\":1335:1336  i */\n      dup3\n        /* \"contracts/VotingRegions.sol\":1321:1337  votingRegions[i] */\n      dup2\n      sload\n      dup2\n      lt\n      tag_77\n      jumpi\n      tag_78\n      tag_79\n      jump\t// in\n    tag_78:\n    tag_77:\n      swap1\n      0x00\n      mstore\n      keccak256(0x00, 0x20)\n      add\n        /* \"contracts/VotingRegions.sol\":1305:1339  keccak256(bytes(votingRegions[i])) */\n      mload(0x40)\n      tag_81\n      swap2\n      swap1\n      tag_82\n      jump\t// in\n    tag_81:\n      mload(0x40)\n      dup1\n      swap2\n      sub\n      swap1\n      keccak256\n        /* \"contracts/VotingRegions.sol\":1305:1367  keccak256(bytes(votingRegions[i])) == keccak256(bytes(region)) */\n      sub\n        /* \"contracts/VotingRegions.sol\":1301:1447  if( keccak256(bytes(votingRegions[i])) == keccak256(bytes(region))){... */\n      tag_83\n      jumpi\n        /* \"contracts/VotingRegions.sol\":1397:1402  false */\n      0x00\n        /* \"contracts/VotingRegions.sol\":1389:1431  require(false,\"the region is a duplicate\") */\n      tag_84\n      jumpi\n      mload(0x40)\n      0x08c379a000000000000000000000000000000000000000000000000000000000\n      dup2\n      mstore\n      0x04\n      add\n      tag_85\n      swap1\n      tag_86\n      jump\t// in\n    tag_85:\n      mload(0x40)\n      dup1\n      swap2\n      sub\n      swap1\n      revert\n    tag_84:\n        /* \"contracts/VotingRegions.sol\":1301:1447  if( keccak256(bytes(votingRegions[i])) == keccak256(bytes(region))){... */\n    tag_83:\n        /* \"contracts/VotingRegions.sol\":1266:1269  i++ */\n      dup1\n      dup1\n      0x01\n      add\n      swap2\n      pop\n      pop\n        /* \"contracts/VotingRegions.sol\":1224:1460  for(uint256 i=0 ; i<votingRegions.length; i++){... */\n      jump(tag_74)\n    tag_75:\n      pop\n        /* \"contracts/VotingRegions.sol\":1482:1495  votingRegions */\n      0x00\n        /* \"contracts/VotingRegions.sol\":1501:1507  region */\n      dup3\n        /* \"contracts/VotingRegions.sol\":1482:1508  votingRegions.push(region) */\n      swap1\n      dup1\n      0x01\n      dup2\n      sload\n      add\n      dup1\n      dup3\n      sstore\n      dup1\n      swap2\n      pop\n      pop\n      0x01\n      swap1\n      sub\n      swap1\n      0x00\n      mstore\n      keccak256(0x00, 0x20)\n      add\n      0x00\n      swap1\n      swap2\n      swap1\n      swap2\n      swap1\n      swap2\n      pop\n      swap1\n      dup2\n      tag_88\n      swap2\n      swap1\n      tag_89\n      jump\t// in\n    tag_88:\n      pop\n        /* \"contracts/VotingRegions.sol\":1018:1516  {... */\n      pop\n        /* \"contracts/VotingRegions.sol\":966:1516  function addRegions(string memory region)  external {... */\n      pop\n      jump\t// out\n        /* \"contracts/VotingRegions.sol\":536:566  address public contractAddress */\n    tag_45:\n      0x02\n      0x00\n      swap1\n      sload\n      swap1\n      0x0100\n      exp\n      swap1\n      div\n      0xffffffffffffffffffffffffffffffffffffffff\n      and\n      dup2\n      jump\t// out\n        /* \"#utility.yul\":7:82   */\n    tag_90:\n        /* \"#utility.yul\":40:46   */\n      0x00\n        /* \"#utility.yul\":73:75   */\n      0x40\n        /* \"#utility.yul\":67:76   */\n      mload\n        /* \"#utility.yul\":57:76   */\n      swap1\n      pop\n        /* \"#utility.yul\":7:82   */\n      swap1\n      jump\t// out\n        /* \"#utility.yul\":88:205   */\n    tag_91:\n        /* \"#utility.yul\":197:198   */\n      0x00\n        /* \"#utility.yul\":194:195   */\n      dup1\n        /* \"#utility.yul\":187:199   */\n      revert\n        /* \"#utility.yul\":211:328   */\n    tag_92:\n        /* \"#utility.yul\":320:321   */\n      0x00\n        /* \"#utility.yul\":317:318   */\n      dup1\n        /* \"#utility.yul\":310:322   */\n      revert\n        /* \"#utility.yul\":334:411   */\n    tag_93:\n        /* \"#utility.yul\":371:378   */\n      0x00\n        /* \"#utility.yul\":400:405   */\n      dup2\n        /* \"#utility.yul\":389:405   */\n      swap1\n      pop\n        /* \"#utility.yul\":334:411   */\n      swap2\n      swap1\n      pop\n      jump\t// out\n        /* \"#utility.yul\":417:539   */\n    tag_94:\n        /* \"#utility.yul\":490:514   */\n      tag_155\n        /* \"#utility.yul\":508:513   */\n      dup2\n        /* \"#utility.yul\":490:514   */\n      tag_93\n      jump\t// in\n    tag_155:\n        /* \"#utility.yul\":483:488   */\n      dup2\n        /* \"#utility.yul\":480:515   */\n      eq\n        /* \"#utility.yul\":470:533   */\n      tag_156\n      jumpi\n        /* \"#utility.yul\":529:530   */\n      0x00\n        /* \"#utility.yul\":526:527   */\n      dup1\n        /* \"#utility.yul\":519:531   */\n      revert\n        /* \"#utility.yul\":470:533   */\n    tag_156:\n        /* \"#utility.yul\":417:539   */\n      pop\n      jump\t// out\n        /* \"#utility.yul\":545:684   */\n    tag_95:\n        /* \"#utility.yul\":591:596   */\n      0x00\n        /* \"#utility.yul\":629:635   */\n      dup2\n        /* \"#utility.yul\":616:636   */\n      calldataload\n        /* \"#utility.yul\":607:636   */\n      swap1\n      pop\n        /* \"#utility.yul\":645:678   */\n      tag_158\n        /* \"#utility.yul\":672:677   */\n      dup2\n        /* \"#utility.yul\":645:678   */\n      tag_94\n      jump\t// in\n    tag_158:\n        /* \"#utility.yul\":545:684   */\n      swap3\n      swap2\n      pop\n      pop\n      jump\t// out\n        /* \"#utility.yul\":690:1019   */\n    tag_15:\n        /* \"#utility.yul\":749:755   */\n      0x00\n        /* \"#utility.yul\":798:800   */\n      0x20\n        /* \"#utility.yul\":786:795   */\n      dup3\n        /* \"#utility.yul\":777:784   */\n      dup5\n        /* \"#utility.yul\":773:796   */\n      sub\n        /* \"#utility.yul\":769:801   */\n      slt\n        /* \"#utility.yul\":766:885   */\n      iszero\n      tag_160\n      jumpi\n        /* \"#utility.yul\":804:883   */\n      tag_161\n      tag_91\n      jump\t// in\n    tag_161:\n        /* \"#utility.yul\":766:885   */\n    tag_160:\n        /* \"#utility.yul\":924:925   */\n      0x00\n        /* \"#utility.yul\":949:1002   */\n      tag_162\n        /* \"#utility.yul\":994:1001   */\n      dup5\n        /* \"#utility.yul\":985:991   */\n      dup3\n        /* \"#utility.yul\":974:983   */\n      dup6\n        /* \"#utility.yul\":970:992   */\n      add\n        /* \"#utility.yul\":949:1002   */\n      tag_95\n      jump\t// in\n    tag_162:\n        /* \"#utility.yul\":939:1002   */\n      swap2\n      pop\n        /* \"#utility.yul\":895:1012   */\n      pop\n        /* \"#utility.yul\":690:1019   */\n      swap3\n      swap2\n      pop\n      pop\n      jump\t// out\n        /* \"#utility.yul\":1025:1124   */\n    tag_96:\n        /* \"#utility.yul\":1077:1083   */\n      0x00\n        /* \"#utility.yul\":1111:1116   */\n      dup2\n        /* \"#utility.yul\":1105:1117   */\n      mload\n        /* \"#utility.yul\":1095:1117   */\n      swap1\n      pop\n        /* \"#utility.yul\":1025:1124   */\n      swap2\n      swap1\n      pop\n      jump\t// out\n        /* \"#utility.yul\":1130:1299   */\n    tag_97:\n        /* \"#utility.yul\":1214:1225   */\n      0x00\n        /* \"#utility.yul\":1248:1254   */\n      dup3\n        /* \"#utility.yul\":1243:1246   */\n      dup3\n        /* \"#utility.yul\":1236:1255   */\n      mstore\n        /* \"#utility.yul\":1288:1292   */\n      0x20\n        /* \"#utility.yul\":1283:1286   */\n      dup3\n        /* \"#utility.yul\":1279:1293   */\n      add\n        /* \"#utility.yul\":1264:1293   */\n      swap1\n      pop\n        /* \"#utility.yul\":1130:1299   */\n      swap3\n      swap2\n      pop\n      pop\n      jump\t// out\n        /* \"#utility.yul\":1305:1444   */\n    tag_98:\n        /* \"#utility.yul\":1394:1400   */\n      dup3\n        /* \"#utility.yul\":1389:1392   */\n      dup2\n        /* \"#utility.yul\":1384:1387   */\n      dup4\n        /* \"#utility.yul\":1378:1401   */\n      mcopy\n        /* \"#utility.yul\":1435:1436   */\n      0x00\n        /* \"#utility.yul\":1426:1432   */\n      dup4\n        /* \"#utility.yul\":1421:1424   */\n      dup4\n        /* \"#utility.yul\":1417:1433   */\n      add\n        /* \"#utility.yul\":1410:1437   */\n      mstore\n        /* \"#utility.yul\":1305:1444   */\n      pop\n      pop\n      pop\n      jump\t// out\n        /* \"#utility.yul\":1450:1552   */\n    tag_99:\n        /* \"#utility.yul\":1491:1497   */\n      0x00\n        /* \"#utility.yul\":1542:1544   */\n      0x1f\n        /* \"#utility.yul\":1538:1545   */\n      not\n        /* \"#utility.yul\":1533:1535   */\n      0x1f\n        /* \"#utility.yul\":1526:1531   */\n      dup4\n        /* \"#utility.yul\":1522:1536   */\n      add\n        /* \"#utility.yul\":1518:1546   */\n      and\n        /* \"#utility.yul\":1508:1546   */\n      swap1\n      pop\n        /* \"#utility.yul\":1450:1552   */\n      swap2\n      swap1\n      pop\n      jump\t// out\n        /* \"#utility.yul\":1558:1935   */\n    tag_100:\n        /* \"#utility.yul\":1646:1649   */\n      0x00\n        /* \"#utility.yul\":1674:1713   */\n      tag_168\n        /* \"#utility.yul\":1707:1712   */\n      dup3\n        /* \"#utility.yul\":1674:1713   */\n      tag_96\n      jump\t// in\n    tag_168:\n        /* \"#utility.yul\":1729:1800   */\n      tag_169\n        /* \"#utility.yul\":1793:1799   */\n      dup2\n        /* \"#utility.yul\":1788:1791   */\n      dup6\n        /* \"#utility.yul\":1729:1800   */\n      tag_97\n      jump\t// in\n    tag_169:\n        /* \"#utility.yul\":1722:1800   */\n      swap4\n      pop\n        /* \"#utility.yul\":1809:1874   */\n      tag_170\n        /* \"#utility.yul\":1867:1873   */\n      dup2\n        /* \"#utility.yul\":1862:1865   */\n      dup6\n        /* \"#utility.yul\":1855:1859   */\n      0x20\n        /* \"#utility.yul\":1848:1853   */\n      dup7\n        /* \"#utility.yul\":1844:1860   */\n      add\n        /* \"#utility.yul\":1809:1874   */\n      tag_98\n      jump\t// in\n    tag_170:\n        /* \"#utility.yul\":1899:1928   */\n      tag_171\n        /* \"#utility.yul\":1921:1927   */\n      dup2\n        /* \"#utility.yul\":1899:1928   */\n      tag_99\n      jump\t// in\n    tag_171:\n        /* \"#utility.yul\":1894:1897   */\n      dup5\n        /* \"#utility.yul\":1890:1929   */\n      add\n        /* \"#utility.yul\":1883:1929   */\n      swap2\n      pop\n        /* \"#utility.yul\":1650:1935   */\n      pop\n        /* \"#utility.yul\":1558:1935   */\n      swap3\n      swap2\n      pop\n      pop\n      jump\t// out\n        /* \"#utility.yul\":1941:2254   */\n    tag_18:\n        /* \"#utility.yul\":2054:2058   */\n      0x00\n        /* \"#utility.yul\":2092:2094   */\n      0x20\n        /* \"#utility.yul\":2081:2090   */\n      dup3\n        /* \"#utility.yul\":2077:2095   */\n      add\n        /* \"#utility.yul\":2069:2095   */\n      swap1\n      pop\n        /* \"#utility.yul\":2141:2150   */\n      dup2\n        /* \"#utility.yul\":2135:2139   */\n      dup2\n        /* \"#utility.yul\":2131:2151   */\n      sub\n        /* \"#utility.yul\":2127:2128   */\n      0x00\n        /* \"#utility.yul\":2116:2125   */\n      dup4\n        /* \"#utility.yul\":2112:2129   */\n      add\n        /* \"#utility.yul\":2105:2152   */\n      mstore\n        /* \"#utility.yul\":2169:2247   */\n      tag_173\n        /* \"#utility.yul\":2242:2246   */\n      dup2\n        /* \"#utility.yul\":2233:2239   */\n      dup5\n        /* \"#utility.yul\":2169:2247   */\n      tag_100\n      jump\t// in\n    tag_173:\n        /* \"#utility.yul\":2161:2247   */\n      swap1\n      pop\n        /* \"#utility.yul\":1941:2254   */\n      swap3\n      swap2\n      pop\n      pop\n      jump\t// out\n        /* \"#utility.yul\":2260:2337   */\n    tag_101:\n        /* \"#utility.yul\":2297:2304   */\n      0x00\n        /* \"#utility.yul\":2326:2331   */\n      dup2\n        /* \"#utility.yul\":2315:2331   */\n      swap1\n      pop\n        /* \"#utility.yul\":2260:2337   */\n      swap2\n      swap1\n      pop\n      jump\t// out\n        /* \"#utility.yul\":2343:2461   */\n    tag_102:\n        /* \"#utility.yul\":2430:2454   */\n      tag_176\n        /* \"#utility.yul\":2448:2453   */\n      dup2\n        /* \"#utility.yul\":2430:2454   */\n      tag_101\n      jump\t// in\n    tag_176:\n        /* \"#utility.yul\":2425:2428   */\n      dup3\n        /* \"#utility.yul\":2418:2455   */\n      mstore\n        /* \"#utility.yul\":2343:2461   */\n      pop\n      pop\n      jump\t// out\n        /* \"#utility.yul\":2467:2689   */\n    tag_22:\n        /* \"#utility.yul\":2560:2564   */\n      0x00\n        /* \"#utility.yul\":2598:2600   */\n      0x20\n        /* \"#utility.yul\":2587:2596   */\n      dup3\n        /* \"#utility.yul\":2583:2601   */\n      add\n        /* \"#utility.yul\":2575:2601   */\n      swap1\n      pop\n        /* \"#utility.yul\":2611:2682   */\n      tag_178\n        /* \"#utility.yul\":2679:2680   */\n      0x00\n        /* \"#utility.yul\":2668:2677   */\n      dup4\n        /* \"#utility.yul\":2664:2681   */\n      add\n        /* \"#utility.yul\":2655:2661   */\n      dup5\n        /* \"#utility.yul\":2611:2682   */\n      tag_102\n      jump\t// in\n    tag_178:\n        /* \"#utility.yul\":2467:2689   */\n      swap3\n      swap2\n      pop\n      pop\n      jump\t// out\n        /* \"#utility.yul\":2695:2821   */\n    tag_103:\n        /* \"#utility.yul\":2732:2739   */\n      0x00\n        /* \"#utility.yul\":2772:2814   */\n      0xffffffffffffffffffffffffffffffffffffffff\n        /* \"#utility.yul\":2765:2770   */\n      dup3\n        /* \"#utility.yul\":2761:2815   */\n      and\n        /* \"#utility.yul\":2750:2815   */\n      swap1\n      pop\n        /* \"#utility.yul\":2695:2821   */\n      swap2\n      swap1\n      pop\n      jump\t// out\n        /* \"#utility.yul\":2827:2923   */\n    tag_104:\n        /* \"#utility.yul\":2864:2871   */\n      0x00\n        /* \"#utility.yul\":2893:2917   */\n      tag_181\n        /* \"#utility.yul\":2911:2916   */\n      dup3\n        /* \"#utility.yul\":2893:2917   */\n      tag_103\n      jump\t// in\n    tag_181:\n        /* \"#utility.yul\":2882:2917   */\n      swap1\n      pop\n        /* \"#utility.yul\":2827:2923   */\n      swap2\n      swap1\n      pop\n      jump\t// out\n        /* \"#utility.yul\":2929:3047   */\n    tag_105:\n        /* \"#utility.yul\":3016:3040   */\n      tag_183\n        /* \"#utility.yul\":3034:3039   */\n      dup2\n        /* \"#utility.yul\":3016:3040   */\n      tag_104\n      jump\t// in\n    tag_183:\n        /* \"#utility.yul\":3011:3014   */\n      dup3\n        /* \"#utility.yul\":3004:3041   */\n      mstore\n        /* \"#utility.yul\":2929:3047   */\n      pop\n      pop\n      jump\t// out\n        /* \"#utility.yul\":3053:3275   */\n    tag_29:\n        /* \"#utility.yul\":3146:3150   */\n      0x00\n        /* \"#utility.yul\":3184:3186   */\n      0x20\n        /* \"#utility.yul\":3173:3182   */\n      dup3\n        /* \"#utility.yul\":3169:3187   */\n      add\n        /* \"#utility.yul\":3161:3187   */\n      swap1\n      pop\n        /* \"#utility.yul\":3197:3268   */\n      tag_185\n        /* \"#utility.yul\":3265:3266   */\n      0x00\n        /* \"#utility.yul\":3254:3263   */\n      dup4\n        /* \"#utility.yul\":3250:3267   */\n      add\n        /* \"#utility.yul\":3241:3247   */\n      dup5\n        /* \"#utility.yul\":3197:3268   */\n      tag_105\n      jump\t// in\n    tag_185:\n        /* \"#utility.yul\":3053:3275   */\n      swap3\n      swap2\n      pop\n      pop\n      jump\t// out\n        /* \"#utility.yul\":3281:3405   */\n    tag_106:\n        /* \"#utility.yul\":3358:3364   */\n      0x00\n        /* \"#utility.yul\":3392:3397   */\n      dup2\n        /* \"#utility.yul\":3386:3398   */\n      mload\n        /* \"#utility.yul\":3376:3398   */\n      swap1\n      pop\n        /* \"#utility.yul\":3281:3405   */\n      swap2\n      swap1\n      pop\n      jump\t// out\n        /* \"#utility.yul\":3411:3605   */\n    tag_107:\n        /* \"#utility.yul\":3520:3531   */\n      0x00\n        /* \"#utility.yul\":3554:3560   */\n      dup3\n        /* \"#utility.yul\":3549:3552   */\n      dup3\n        /* \"#utility.yul\":3542:3561   */\n      mstore\n        /* \"#utility.yul\":3594:3598   */\n      0x20\n        /* \"#utility.yul\":3589:3592   */\n      dup3\n        /* \"#utility.yul\":3585:3599   */\n      add\n        /* \"#utility.yul\":3570:3599   */\n      swap1\n      pop\n        /* \"#utility.yul\":3411:3605   */\n      swap3\n      swap2\n      pop\n      pop\n      jump\t// out\n        /* \"#utility.yul\":3611:3753   */\n    tag_108:\n        /* \"#utility.yul\":3688:3692   */\n      0x00\n        /* \"#utility.yul\":3711:3714   */\n      dup2\n        /* \"#utility.yul\":3703:3714   */\n      swap1\n      pop\n        /* \"#utility.yul\":3741:3745   */\n      0x20\n        /* \"#utility.yul\":3736:3739   */\n      dup3\n        /* \"#utility.yul\":3732:3746   */\n      add\n        /* \"#utility.yul\":3724:3746   */\n      swap1\n      pop\n        /* \"#utility.yul\":3611:3753   */\n      swap2\n      swap1\n      pop\n      jump\t// out\n        /* \"#utility.yul\":3759:3918   */\n    tag_109:\n        /* \"#utility.yul\":3833:3844   */\n      0x00\n        /* \"#utility.yul\":3867:3873   */\n      dup3\n        /* \"#utility.yul\":3862:3865   */\n      dup3\n        /* \"#utility.yul\":3855:3874   */\n      mstore\n        /* \"#utility.yul\":3907:3911   */\n      0x20\n        /* \"#utility.yul\":3902:3905   */\n      dup3\n        /* \"#utility.yul\":3898:3912   */\n      add\n        /* \"#utility.yul\":3883:3912   */\n      swap1\n      pop\n        /* \"#utility.yul\":3759:3918   */\n      swap3\n      swap2\n      pop\n      pop\n      jump\t// out\n        /* \"#utility.yul\":3924:4281   */\n    tag_110:\n        /* \"#utility.yul\":4002:4005   */\n      0x00\n        /* \"#utility.yul\":4030:4069   */\n      tag_191\n        /* \"#utility.yul\":4063:4068   */\n      dup3\n        /* \"#utility.yul\":4030:4069   */\n      tag_96\n      jump\t// in\n    tag_191:\n        /* \"#utility.yul\":4085:4146   */\n      tag_192\n        /* \"#utility.yul\":4139:4145   */\n      dup2\n        /* \"#utility.yul\":4134:4137   */\n      dup6\n        /* \"#utility.yul\":4085:4146   */\n      tag_109\n      jump\t// in\n    tag_192:\n        /* \"#utility.yul\":4078:4146   */\n      swap4\n      pop\n        /* \"#utility.yul\":4155:4220   */\n      tag_193\n        /* \"#utility.yul\":4213:4219   */\n      dup2\n        /* \"#utility.yul\":4208:4211   */\n      dup6\n        /* \"#utility.yul\":4201:4205   */\n      0x20\n        /* \"#utility.yul\":4194:4199   */\n      dup7\n        /* \"#utility.yul\":4190:4206   */\n      add\n        /* \"#utility.yul\":4155:4220   */\n      tag_98\n      jump\t// in\n    tag_193:\n        /* \"#utility.yul\":4245:4274   */\n      tag_194\n        /* \"#utility.yul\":4267:4273   */\n      dup2\n        /* \"#utility.yul\":4245:4274   */\n      tag_99\n      jump\t// in\n    tag_194:\n        /* \"#utility.yul\":4240:4243   */\n      dup5\n        /* \"#utility.yul\":4236:4275   */\n      add\n        /* \"#utility.yul\":4229:4275   */\n      swap2\n      pop\n        /* \"#utility.yul\":4006:4281   */\n      pop\n        /* \"#utility.yul\":3924:4281   */\n      swap3\n      swap2\n      pop\n      pop\n      jump\t// out\n        /* \"#utility.yul\":4287:4483   */\n    tag_111:\n        /* \"#utility.yul\":4376:4386   */\n      0x00\n        /* \"#utility.yul\":4411:4477   */\n      tag_196\n        /* \"#utility.yul\":4473:4476   */\n      dup4\n        /* \"#utility.yul\":4465:4471   */\n      dup4\n        /* \"#utility.yul\":4411:4477   */\n      tag_110\n      jump\t// in\n    tag_196:\n        /* \"#utility.yul\":4397:4477   */\n      swap1\n      pop\n        /* \"#utility.yul\":4287:4483   */\n      swap3\n      swap2\n      pop\n      pop\n      jump\t// out\n        /* \"#utility.yul\":4489:4612   */\n    tag_112:\n        /* \"#utility.yul\":4569:4573   */\n      0x00\n        /* \"#utility.yul\":4601:4605   */\n      0x20\n        /* \"#utility.yul\":4596:4599   */\n      dup3\n        /* \"#utility.yul\":4592:4606   */\n      add\n        /* \"#utility.yul\":4584:4606   */\n      swap1\n      pop\n        /* \"#utility.yul\":4489:4612   */\n      swap2\n      swap1\n      pop\n      jump\t// out\n        /* \"#utility.yul\":4646:5637   */\n    tag_113:\n        /* \"#utility.yul\":4785:4788   */\n      0x00\n        /* \"#utility.yul\":4814:4878   */\n      tag_199\n        /* \"#utility.yul\":4872:4877   */\n      dup3\n        /* \"#utility.yul\":4814:4878   */\n      tag_106\n      jump\t// in\n    tag_199:\n        /* \"#utility.yul\":4894:4990   */\n      tag_200\n        /* \"#utility.yul\":4983:4989   */\n      dup2\n        /* \"#utility.yul\":4978:4981   */\n      dup6\n        /* \"#utility.yul\":4894:4990   */\n      tag_107\n      jump\t// in\n    tag_200:\n        /* \"#utility.yul\":4887:4990   */\n      swap4\n      pop\n        /* \"#utility.yul\":5016:5019   */\n      dup4\n        /* \"#utility.yul\":5061:5065   */\n      0x20\n        /* \"#utility.yul\":5053:5059   */\n      dup3\n        /* \"#utility.yul\":5049:5066   */\n      mul\n        /* \"#utility.yul\":5044:5047   */\n      dup6\n        /* \"#utility.yul\":5040:5067   */\n      add\n        /* \"#utility.yul\":5091:5157   */\n      tag_201\n        /* \"#utility.yul\":5151:5156   */\n      dup6\n        /* \"#utility.yul\":5091:5157   */\n      tag_108\n      jump\t// in\n    tag_201:\n        /* \"#utility.yul\":5180:5187   */\n      dup1\n        /* \"#utility.yul\":5211:5212   */\n      0x00\n        /* \"#utility.yul\":5196:5592   */\n    tag_202:\n        /* \"#utility.yul\":5221:5227   */\n      dup6\n        /* \"#utility.yul\":5218:5219   */\n      dup2\n        /* \"#utility.yul\":5215:5228   */\n      lt\n        /* \"#utility.yul\":5196:5592   */\n      iszero\n      tag_204\n      jumpi\n        /* \"#utility.yul\":5292:5301   */\n      dup5\n        /* \"#utility.yul\":5286:5290   */\n      dup5\n        /* \"#utility.yul\":5282:5302   */\n      sub\n        /* \"#utility.yul\":5277:5280   */\n      dup10\n        /* \"#utility.yul\":5270:5303   */\n      mstore\n        /* \"#utility.yul\":5343:5349   */\n      dup2\n        /* \"#utility.yul\":5337:5350   */\n      mload\n        /* \"#utility.yul\":5371:5455   */\n      tag_205\n        /* \"#utility.yul\":5450:5454   */\n      dup6\n        /* \"#utility.yul\":5435:5448   */\n      dup3\n        /* \"#utility.yul\":5371:5455   */\n      tag_111\n      jump\t// in\n    tag_205:\n        /* \"#utility.yul\":5363:5455   */\n      swap5\n      pop\n        /* \"#utility.yul\":5478:5548   */\n      tag_206\n        /* \"#utility.yul\":5541:5547   */\n      dup4\n        /* \"#utility.yul\":5478:5548   */\n      tag_112\n      jump\t// in\n    tag_206:\n        /* \"#utility.yul\":5468:5548   */\n      swap3\n      pop\n        /* \"#utility.yul\":5577:5581   */\n      0x20\n        /* \"#utility.yul\":5572:5575   */\n      dup11\n        /* \"#utility.yul\":5568:5582   */\n      add\n        /* \"#utility.yul\":5561:5582   */\n      swap10\n      pop\n        /* \"#utility.yul\":5256:5592   */\n      pop\n        /* \"#utility.yul\":5243:5244   */\n      0x01\n        /* \"#utility.yul\":5240:5241   */\n      dup2\n        /* \"#utility.yul\":5236:5245   */\n      add\n        /* \"#utility.yul\":5231:5245   */\n      swap1\n      pop\n        /* \"#utility.yul\":5196:5592   */\n      jump(tag_202)\n    tag_204:\n        /* \"#utility.yul\":5200:5214   */\n      pop\n        /* \"#utility.yul\":5608:5612   */\n      dup3\n        /* \"#utility.yul\":5601:5612   */\n      swap8\n      pop\n        /* \"#utility.yul\":5628:5631   */\n      dup8\n        /* \"#utility.yul\":5621:5631   */\n      swap6\n      pop\n        /* \"#utility.yul\":4790:5637   */\n      pop\n      pop\n      pop\n      pop\n      pop\n        /* \"#utility.yul\":4646:5637   */\n      swap3\n      swap2\n      pop\n      pop\n      jump\t// out\n        /* \"#utility.yul\":5643:6056   */\n    tag_33:\n        /* \"#utility.yul\":5806:5810   */\n      0x00\n        /* \"#utility.yul\":5844:5846   */\n      0x20\n        /* \"#utility.yul\":5833:5842   */\n      dup3\n        /* \"#utility.yul\":5829:5847   */\n      add\n        /* \"#utility.yul\":5821:5847   */\n      swap1\n      pop\n        /* \"#utility.yul\":5893:5902   */\n      dup2\n        /* \"#utility.yul\":5887:5891   */\n      dup2\n        /* \"#utility.yul\":5883:5903   */\n      sub\n        /* \"#utility.yul\":5879:5880   */\n      0x00\n        /* \"#utility.yul\":5868:5877   */\n      dup4\n        /* \"#utility.yul\":5864:5881   */\n      add\n        /* \"#utility.yul\":5857:5904   */\n      mstore\n        /* \"#utility.yul\":5921:6049   */\n      tag_208\n        /* \"#utility.yul\":6044:6048   */\n      dup2\n        /* \"#utility.yul\":6035:6041   */\n      dup5\n        /* \"#utility.yul\":5921:6049   */\n      tag_113\n      jump\t// in\n    tag_208:\n        /* \"#utility.yul\":5913:6049   */\n      swap1\n      pop\n        /* \"#utility.yul\":5643:6056   */\n      swap3\n      swap2\n      pop\n      pop\n      jump\t// out\n        /* \"#utility.yul\":6062:6179   */\n    tag_114:\n        /* \"#utility.yul\":6171:6172   */\n      0x00\n        /* \"#utility.yul\":6168:6169   */\n      dup1\n        /* \"#utility.yul\":6161:6173   */\n      revert\n        /* \"#utility.yul\":6185:6302   */\n    tag_115:\n        /* \"#utility.yul\":6294:6295   */\n      0x00\n        /* \"#utility.yul\":6291:6292   */\n      dup1\n        /* \"#utility.yul\":6284:6296   */\n      revert\n        /* \"#utility.yul\":6308:6488   */\n    tag_116:\n        /* \"#utility.yul\":6356:6433   */\n      0x4e487b7100000000000000000000000000000000000000000000000000000000\n        /* \"#utility.yul\":6353:6354   */\n      0x00\n        /* \"#utility.yul\":6346:6434   */\n      mstore\n        /* \"#utility.yul\":6453:6457   */\n      0x41\n        /* \"#utility.yul\":6450:6451   */\n      0x04\n        /* \"#utility.yul\":6443:6458   */\n      mstore\n        /* \"#utility.yul\":6477:6481   */\n      0x24\n        /* \"#utility.yul\":6474:6475   */\n      0x00\n        /* \"#utility.yul\":6467:6482   */\n      revert\n        /* \"#utility.yul\":6494:6775   */\n    tag_117:\n        /* \"#utility.yul\":6577:6604   */\n      tag_213\n        /* \"#utility.yul\":6599:6603   */\n      dup3\n        /* \"#utility.yul\":6577:6604   */\n      tag_99\n      jump\t// in\n    tag_213:\n        /* \"#utility.yul\":6569:6575   */\n      dup2\n        /* \"#utility.yul\":6565:6605   */\n      add\n        /* \"#utility.yul\":6707:6713   */\n      dup2\n        /* \"#utility.yul\":6695:6705   */\n      dup2\n        /* \"#utility.yul\":6692:6714   */\n      lt\n        /* \"#utility.yul\":6671:6689   */\n      0xffffffffffffffff\n        /* \"#utility.yul\":6659:6669   */\n      dup3\n        /* \"#utility.yul\":6656:6690   */\n      gt\n        /* \"#utility.yul\":6653:6715   */\n      or\n        /* \"#utility.yul\":6650:6738   */\n      iszero\n      tag_214\n      jumpi\n        /* \"#utility.yul\":6718:6736   */\n      tag_215\n      tag_116\n      jump\t// in\n    tag_215:\n        /* \"#utility.yul\":6650:6738   */\n    tag_214:\n        /* \"#utility.yul\":6758:6768   */\n      dup1\n        /* \"#utility.yul\":6754:6756   */\n      0x40\n        /* \"#utility.yul\":6747:6769   */\n      mstore\n        /* \"#utility.yul\":6537:6775   */\n      pop\n        /* \"#utility.yul\":6494:6775   */\n      pop\n      pop\n      jump\t// out\n        /* \"#utility.yul\":6781:6910   */\n    tag_118:\n        /* \"#utility.yul\":6815:6821   */\n      0x00\n        /* \"#utility.yul\":6842:6862   */\n      tag_217\n      tag_90\n      jump\t// in\n    tag_217:\n        /* \"#utility.yul\":6832:6862   */\n      swap1\n      pop\n        /* \"#utility.yul\":6871:6904   */\n      tag_218\n        /* \"#utility.yul\":6899:6903   */\n      dup3\n        /* \"#utility.yul\":6891:6897   */\n      dup3\n        /* \"#utility.yul\":6871:6904   */\n      tag_117\n      jump\t// in\n    tag_218:\n        /* \"#utility.yul\":6781:6910   */\n      swap2\n      swap1\n      pop\n      jump\t// out\n        /* \"#utility.yul\":6916:7224   */\n    tag_119:\n        /* \"#utility.yul\":6978:6982   */\n      0x00\n        /* \"#utility.yul\":7068:7086   */\n      0xffffffffffffffff\n        /* \"#utility.yul\":7060:7066   */\n      dup3\n        /* \"#utility.yul\":7057:7087   */\n      gt\n        /* \"#utility.yul\":7054:7110   */\n      iszero\n      tag_220\n      jumpi\n        /* \"#utility.yul\":7090:7108   */\n      tag_221\n      tag_116\n      jump\t// in\n    tag_221:\n        /* \"#utility.yul\":7054:7110   */\n    tag_220:\n        /* \"#utility.yul\":7128:7157   */\n      tag_222\n        /* \"#utility.yul\":7150:7156   */\n      dup3\n        /* \"#utility.yul\":7128:7157   */\n      tag_99\n      jump\t// in\n    tag_222:\n        /* \"#utility.yul\":7120:7157   */\n      swap1\n      pop\n        /* \"#utility.yul\":7212:7216   */\n      0x20\n        /* \"#utility.yul\":7206:7210   */\n      dup2\n        /* \"#utility.yul\":7202:7217   */\n      add\n        /* \"#utility.yul\":7194:7217   */\n      swap1\n      pop\n        /* \"#utility.yul\":6916:7224   */\n      swap2\n      swap1\n      pop\n      jump\t// out\n        /* \"#utility.yul\":7230:7378   */\n    tag_120:\n        /* \"#utility.yul\":7328:7334   */\n      dup3\n        /* \"#utility.yul\":7323:7326   */\n      dup2\n        /* \"#utility.yul\":7318:7321   */\n      dup4\n        /* \"#utility.yul\":7305:7335   */\n      calldatacopy\n        /* \"#utility.yul\":7369:7370   */\n      0x00\n        /* \"#utility.yul\":7360:7366   */\n      dup4\n        /* \"#utility.yul\":7355:7358   */\n      dup4\n        /* \"#utility.yul\":7351:7367   */\n      add\n        /* \"#utility.yul\":7344:7371   */\n      mstore\n        /* \"#utility.yul\":7230:7378   */\n      pop\n      pop\n      pop\n      jump\t// out\n        /* \"#utility.yul\":7384:7809   */\n    tag_121:\n        /* \"#utility.yul\":7462:7467   */\n      0x00\n        /* \"#utility.yul\":7487:7553   */\n      tag_225\n        /* \"#utility.yul\":7503:7552   */\n      tag_226\n        /* \"#utility.yul\":7545:7551   */\n      dup5\n        /* \"#utility.yul\":7503:7552   */\n      tag_119\n      jump\t// in\n    tag_226:\n        /* \"#utility.yul\":7487:7553   */\n      tag_118\n      jump\t// in\n    tag_225:\n        /* \"#utility.yul\":7478:7553   */\n      swap1\n      pop\n        /* \"#utility.yul\":7576:7582   */\n      dup3\n        /* \"#utility.yul\":7569:7574   */\n      dup2\n        /* \"#utility.yul\":7562:7583   */\n      mstore\n        /* \"#utility.yul\":7614:7618   */\n      0x20\n        /* \"#utility.yul\":7607:7612   */\n      dup2\n        /* \"#utility.yul\":7603:7619   */\n      add\n        /* \"#utility.yul\":7652:7655   */\n      dup5\n        /* \"#utility.yul\":7643:7649   */\n      dup5\n        /* \"#utility.yul\":7638:7641   */\n      dup5\n        /* \"#utility.yul\":7634:7650   */\n      add\n        /* \"#utility.yul\":7631:7656   */\n      gt\n        /* \"#utility.yul\":7628:7740   */\n      iszero\n      tag_227\n      jumpi\n        /* \"#utility.yul\":7659:7738   */\n      tag_228\n      tag_115\n      jump\t// in\n    tag_228:\n        /* \"#utility.yul\":7628:7740   */\n    tag_227:\n        /* \"#utility.yul\":7749:7803   */\n      tag_229\n        /* \"#utility.yul\":7796:7802   */\n      dup5\n        /* \"#utility.yul\":7791:7794   */\n      dup3\n        /* \"#utility.yul\":7786:7789   */\n      dup6\n        /* \"#utility.yul\":7749:7803   */\n      tag_120\n      jump\t// in\n    tag_229:\n        /* \"#utility.yul\":7468:7809   */\n      pop\n        /* \"#utility.yul\":7384:7809   */\n      swap4\n      swap3\n      pop\n      pop\n      pop\n      jump\t// out\n        /* \"#utility.yul\":7829:8169   */\n    tag_122:\n        /* \"#utility.yul\":7885:7890   */\n      0x00\n        /* \"#utility.yul\":7934:7937   */\n      dup3\n        /* \"#utility.yul\":7927:7931   */\n      0x1f\n        /* \"#utility.yul\":7919:7925   */\n      dup4\n        /* \"#utility.yul\":7915:7932   */\n      add\n        /* \"#utility.yul\":7911:7938   */\n      slt\n        /* \"#utility.yul\":7901:8023   */\n      tag_231\n      jumpi\n        /* \"#utility.yul\":7942:8021   */\n      tag_232\n      tag_114\n      jump\t// in\n    tag_232:\n        /* \"#utility.yul\":7901:8023   */\n    tag_231:\n        /* \"#utility.yul\":8059:8065   */\n      dup2\n        /* \"#utility.yul\":8046:8066   */\n      calldataload\n        /* \"#utility.yul\":8084:8163   */\n      tag_233\n        /* \"#utility.yul\":8159:8162   */\n      dup5\n        /* \"#utility.yul\":8151:8157   */\n      dup3\n        /* \"#utility.yul\":8144:8148   */\n      0x20\n        /* \"#utility.yul\":8136:8142   */\n      dup7\n        /* \"#utility.yul\":8132:8149   */\n      add\n        /* \"#utility.yul\":8084:8163   */\n      tag_121\n      jump\t// in\n    tag_233:\n        /* \"#utility.yul\":8075:8163   */\n      swap2\n      pop\n        /* \"#utility.yul\":7891:8169   */\n      pop\n        /* \"#utility.yul\":7829:8169   */\n      swap3\n      swap2\n      pop\n      pop\n      jump\t// out\n        /* \"#utility.yul\":8175:8684   */\n    tag_42:\n        /* \"#utility.yul\":8244:8250   */\n      0x00\n        /* \"#utility.yul\":8293:8295   */\n      0x20\n        /* \"#utility.yul\":8281:8290   */\n      dup3\n        /* \"#utility.yul\":8272:8279   */\n      dup5\n        /* \"#utility.yul\":8268:8291   */\n      sub\n        /* \"#utility.yul\":8264:8296   */\n      slt\n        /* \"#utility.yul\":8261:8380   */\n      iszero\n      tag_235\n      jumpi\n        /* \"#utility.yul\":8299:8378   */\n      tag_236\n      tag_91\n      jump\t// in\n    tag_236:\n        /* \"#utility.yul\":8261:8380   */\n    tag_235:\n        /* \"#utility.yul\":8447:8448   */\n      0x00\n        /* \"#utility.yul\":8436:8445   */\n      dup3\n        /* \"#utility.yul\":8432:8449   */\n      add\n        /* \"#utility.yul\":8419:8450   */\n      calldataload\n        /* \"#utility.yul\":8477:8495   */\n      0xffffffffffffffff\n        /* \"#utility.yul\":8469:8475   */\n      dup2\n        /* \"#utility.yul\":8466:8496   */\n      gt\n        /* \"#utility.yul\":8463:8580   */\n      iszero\n      tag_237\n      jumpi\n        /* \"#utility.yul\":8499:8578   */\n      tag_238\n      tag_92\n      jump\t// in\n    tag_238:\n        /* \"#utility.yul\":8463:8580   */\n    tag_237:\n        /* \"#utility.yul\":8604:8667   */\n      tag_239\n        /* \"#utility.yul\":8659:8666   */\n      dup5\n        /* \"#utility.yul\":8650:8656   */\n      dup3\n        /* \"#utility.yul\":8639:8648   */\n      dup6\n        /* \"#utility.yul\":8635:8657   */\n      add\n        /* \"#utility.yul\":8604:8667   */\n      tag_122\n      jump\t// in\n    tag_239:\n        /* \"#utility.yul\":8594:8667   */\n      swap2\n      pop\n        /* \"#utility.yul\":8390:8677   */\n      pop\n        /* \"#utility.yul\":8175:8684   */\n      swap3\n      swap2\n      pop\n      pop\n      jump\t// out\n        /* \"#utility.yul\":8690:8870   */\n    tag_123:\n        /* \"#utility.yul\":8738:8815   */\n      0x4e487b7100000000000000000000000000000000000000000000000000000000\n        /* \"#utility.yul\":8735:8736   */\n      0x00\n        /* \"#utility.yul\":8728:8816   */\n      mstore\n        /* \"#utility.yul\":8835:8839   */\n      0x22\n        /* \"#utility.yul\":8832:8833   */\n      0x04\n        /* \"#utility.yul\":8825:8840   */\n      mstore\n        /* \"#utility.yul\":8859:8863   */\n      0x24\n        /* \"#utility.yul\":8856:8857   */\n      0x00\n        /* \"#utility.yul\":8849:8864   */\n      revert\n        /* \"#utility.yul\":8876:9196   */\n    tag_50:\n        /* \"#utility.yul\":8920:8926   */\n      0x00\n        /* \"#utility.yul\":8957:8958   */\n      0x02\n        /* \"#utility.yul\":8951:8955   */\n      dup3\n        /* \"#utility.yul\":8947:8959   */\n      div\n        /* \"#utility.yul\":8937:8959   */\n      swap1\n      pop\n        /* \"#utility.yul\":9004:9005   */\n      0x01\n        /* \"#utility.yul\":8998:9002   */\n      dup3\n        /* \"#utility.yul\":8994:9006   */\n      and\n        /* \"#utility.yul\":9025:9043   */\n      dup1\n        /* \"#utility.yul\":9015:9096   */\n      tag_242\n      jumpi\n        /* \"#utility.yul\":9081:9085   */\n      0x7f\n        /* \"#utility.yul\":9073:9079   */\n      dup3\n        /* \"#utility.yul\":9069:9086   */\n      and\n        /* \"#utility.yul\":9059:9086   */\n      swap2\n      pop\n        /* \"#utility.yul\":9015:9096   */\n    tag_242:\n        /* \"#utility.yul\":9143:9145   */\n      0x20\n        /* \"#utility.yul\":9135:9141   */\n      dup3\n        /* \"#utility.yul\":9132:9146   */\n      lt\n        /* \"#utility.yul\":9112:9130   */\n      dup2\n        /* \"#utility.yul\":9109:9147   */\n      sub\n        /* \"#utility.yul\":9106:9190   */\n      tag_243\n      jumpi\n        /* \"#utility.yul\":9162:9180   */\n      tag_244\n      tag_123\n      jump\t// in\n    tag_244:\n        /* \"#utility.yul\":9106:9190   */\n    tag_243:\n        /* \"#utility.yul\":8927:9196   */\n      pop\n        /* \"#utility.yul\":8876:9196   */\n      swap2\n      swap1\n      pop\n      jump\t// out\n        /* \"#utility.yul\":9202:9534   */\n    tag_66:\n        /* \"#utility.yul\":9323:9327   */\n      0x00\n        /* \"#utility.yul\":9361:9363   */\n      0x40\n        /* \"#utility.yul\":9350:9359   */\n      dup3\n        /* \"#utility.yul\":9346:9364   */\n      add\n        /* \"#utility.yul\":9338:9364   */\n      swap1\n      pop\n        /* \"#utility.yul\":9374:9445   */\n      tag_246\n        /* \"#utility.yul\":9442:9443   */\n      0x00\n        /* \"#utility.yul\":9431:9440   */\n      dup4\n        /* \"#utility.yul\":9427:9444   */\n      add\n        /* \"#utility.yul\":9418:9424   */\n      dup6\n        /* \"#utility.yul\":9374:9445   */\n      tag_105\n      jump\t// in\n    tag_246:\n        /* \"#utility.yul\":9455:9527   */\n      tag_247\n        /* \"#utility.yul\":9523:9525   */\n      0x20\n        /* \"#utility.yul\":9512:9521   */\n      dup4\n        /* \"#utility.yul\":9508:9526   */\n      add\n        /* \"#utility.yul\":9499:9505   */\n      dup5\n        /* \"#utility.yul\":9455:9527   */\n      tag_102\n      jump\t// in\n    tag_247:\n        /* \"#utility.yul\":9202:9534   */\n      swap4\n      swap3\n      pop\n      pop\n      pop\n      jump\t// out\n        /* \"#utility.yul\":9540:9630   */\n    tag_124:\n        /* \"#utility.yul\":9574:9581   */\n      0x00\n        /* \"#utility.yul\":9617:9622   */\n      dup2\n        /* \"#utility.yul\":9610:9623   */\n      iszero\n        /* \"#utility.yul\":9603:9624   */\n      iszero\n        /* \"#utility.yul\":9592:9624   */\n      swap1\n      pop\n        /* \"#utility.yul\":9540:9630   */\n      swap2\n      swap1\n      pop\n      jump\t// out\n        /* \"#utility.yul\":9636:9752   */\n    tag_125:\n        /* \"#utility.yul\":9706:9727   */\n      tag_250\n        /* \"#utility.yul\":9721:9726   */\n      dup2\n        /* \"#utility.yul\":9706:9727   */\n      tag_124\n      jump\t// in\n    tag_250:\n        /* \"#utility.yul\":9699:9704   */\n      dup2\n        /* \"#utility.yul\":9696:9728   */\n      eq\n        /* \"#utility.yul\":9686:9746   */\n      tag_251\n      jumpi\n        /* \"#utility.yul\":9742:9743   */\n      0x00\n        /* \"#utility.yul\":9739:9740   */\n      dup1\n        /* \"#utility.yul\":9732:9744   */\n      revert\n        /* \"#utility.yul\":9686:9746   */\n    tag_251:\n        /* \"#utility.yul\":9636:9752   */\n      pop\n      jump\t// out\n        /* \"#utility.yul\":9758:9895   */\n    tag_126:\n        /* \"#utility.yul\":9812:9817   */\n      0x00\n        /* \"#utility.yul\":9843:9849   */\n      dup2\n        /* \"#utility.yul\":9837:9850   */\n      mload\n        /* \"#utility.yul\":9828:9850   */\n      swap1\n      pop\n        /* \"#utility.yul\":9859:9889   */\n      tag_253\n        /* \"#utility.yul\":9883:9888   */\n      dup2\n        /* \"#utility.yul\":9859:9889   */\n      tag_125\n      jump\t// in\n    tag_253:\n        /* \"#utility.yul\":9758:9895   */\n      swap3\n      swap2\n      pop\n      pop\n      jump\t// out\n        /* \"#utility.yul\":9901:10246   */\n    tag_70:\n        /* \"#utility.yul\":9968:9974   */\n      0x00\n        /* \"#utility.yul\":10017:10019   */\n      0x20\n        /* \"#utility.yul\":10005:10014   */\n      dup3\n        /* \"#utility.yul\":9996:10003   */\n      dup5\n        /* \"#utility.yul\":9992:10015   */\n      sub\n        /* \"#utility.yul\":9988:10020   */\n      slt\n        /* \"#utility.yul\":9985:10104   */\n      iszero\n      tag_255\n      jumpi\n        /* \"#utility.yul\":10023:10102   */\n      tag_256\n      tag_91\n      jump\t// in\n    tag_256:\n        /* \"#utility.yul\":9985:10104   */\n    tag_255:\n        /* \"#utility.yul\":10143:10144   */\n      0x00\n        /* \"#utility.yul\":10168:10229   */\n      tag_257\n        /* \"#utility.yul\":10221:10228   */\n      dup5\n        /* \"#utility.yul\":10212:10218   */\n      dup3\n        /* \"#utility.yul\":10201:10210   */\n      dup6\n        /* \"#utility.yul\":10197:10219   */\n      add\n        /* \"#utility.yul\":10168:10229   */\n      tag_126\n      jump\t// in\n    tag_257:\n        /* \"#utility.yul\":10158:10229   */\n      swap2\n      pop\n        /* \"#utility.yul\":10114:10239   */\n      pop\n        /* \"#utility.yul\":9901:10246   */\n      swap3\n      swap2\n      pop\n      pop\n      jump\t// out\n        /* \"#utility.yul\":10252:10433   */\n    tag_127:\n        /* \"#utility.yul\":10392:10425   */\n      0x6f6e6c79207468652061646d696e732063616e2061646420726567696f6e7300\n        /* \"#utility.yul\":10388:10389   */\n      0x00\n        /* \"#utility.yul\":10380:10386   */\n      dup3\n        /* \"#utility.yul\":10376:10390   */\n      add\n        /* \"#utility.yul\":10369:10426   */\n      mstore\n        /* \"#utility.yul\":10252:10433   */\n      pop\n      jump\t// out\n        /* \"#utility.yul\":10439:10805   */\n    tag_128:\n        /* \"#utility.yul\":10581:10584   */\n      0x00\n        /* \"#utility.yul\":10602:10669   */\n      tag_260\n        /* \"#utility.yul\":10666:10668   */\n      0x1f\n        /* \"#utility.yul\":10661:10664   */\n      dup4\n        /* \"#utility.yul\":10602:10669   */\n      tag_97\n      jump\t// in\n    tag_260:\n        /* \"#utility.yul\":10595:10669   */\n      swap2\n      pop\n        /* \"#utility.yul\":10678:10771   */\n      tag_261\n        /* \"#utility.yul\":10767:10770   */\n      dup3\n        /* \"#utility.yul\":10678:10771   */\n      tag_127\n      jump\t// in\n    tag_261:\n        /* \"#utility.yul\":10796:10798   */\n      0x20\n        /* \"#utility.yul\":10791:10794   */\n      dup3\n        /* \"#utility.yul\":10787:10799   */\n      add\n        /* \"#utility.yul\":10780:10799   */\n      swap1\n      pop\n        /* \"#utility.yul\":10439:10805   */\n      swap2\n      swap1\n      pop\n      jump\t// out\n        /* \"#utility.yul\":10811:11230   */\n    tag_73:\n        /* \"#utility.yul\":10977:10981   */\n      0x00\n        /* \"#utility.yul\":11015:11017   */\n      0x20\n        /* \"#utility.yul\":11004:11013   */\n      dup3\n        /* \"#utility.yul\":11000:11018   */\n      add\n        /* \"#utility.yul\":10992:11018   */\n      swap1\n      pop\n        /* \"#utility.yul\":11064:11073   */\n      dup2\n        /* \"#utility.yul\":11058:11062   */\n      dup2\n        /* \"#utility.yul\":11054:11074   */\n      sub\n        /* \"#utility.yul\":11050:11051   */\n      0x00\n        /* \"#utility.yul\":11039:11048   */\n      dup4\n        /* \"#utility.yul\":11035:11052   */\n      add\n        /* \"#utility.yul\":11028:11075   */\n      mstore\n        /* \"#utility.yul\":11092:11223   */\n      tag_263\n        /* \"#utility.yul\":11218:11222   */\n      dup2\n        /* \"#utility.yul\":11092:11223   */\n      tag_128\n      jump\t// in\n    tag_263:\n        /* \"#utility.yul\":11084:11223   */\n      swap1\n      pop\n        /* \"#utility.yul\":10811:11230   */\n      swap2\n      swap1\n      pop\n      jump\t// out\n        /* \"#utility.yul\":11236:11416   */\n    tag_79:\n        /* \"#utility.yul\":11284:11361   */\n      0x4e487b7100000000000000000000000000000000000000000000000000000000\n        /* \"#utility.yul\":11281:11282   */\n      0x00\n        /* \"#utility.yul\":11274:11362   */\n      mstore\n        /* \"#utility.yul\":11381:11385   */\n      0x32\n        /* \"#utility.yul\":11378:11379   */\n      0x04\n        /* \"#utility.yul\":11371:11386   */\n      mstore\n        /* \"#utility.yul\":11405:11409   */\n      0x24\n        /* \"#utility.yul\":11402:11403   */\n      0x00\n        /* \"#utility.yul\":11395:11410   */\n      revert\n        /* \"#utility.yul\":11422:11569   */\n    tag_129:\n        /* \"#utility.yul\":11523:11534   */\n      0x00\n        /* \"#utility.yul\":11560:11563   */\n      dup2\n        /* \"#utility.yul\":11545:11563   */\n      swap1\n      pop\n        /* \"#utility.yul\":11422:11569   */\n      swap3\n      swap2\n      pop\n      pop\n      jump\t// out\n        /* \"#utility.yul\":11575:11719   */\n    tag_130:\n        /* \"#utility.yul\":11627:11631   */\n      0x00\n        /* \"#utility.yul\":11650:11653   */\n      dup2\n        /* \"#utility.yul\":11642:11653   */\n      swap1\n      pop\n        /* \"#utility.yul\":11673:11676   */\n      dup2\n        /* \"#utility.yul\":11670:11671   */\n      0x00\n        /* \"#utility.yul\":11663:11677   */\n      mstore\n        /* \"#utility.yul\":11707:11711   */\n      0x20\n        /* \"#utility.yul\":11704:11705   */\n      0x00\n        /* \"#utility.yul\":11694:11712   */\n      keccak256\n        /* \"#utility.yul\":11686:11712   */\n      swap1\n      pop\n        /* \"#utility.yul\":11575:11719   */\n      swap2\n      swap1\n      pop\n      jump\t// out\n        /* \"#utility.yul\":11747:12625   */\n    tag_131:\n        /* \"#utility.yul\":11852:11855   */\n      0x00\n        /* \"#utility.yul\":11889:11894   */\n      dup2\n        /* \"#utility.yul\":11883:11895   */\n      sload\n        /* \"#utility.yul\":11918:11954   */\n      tag_268\n        /* \"#utility.yul\":11944:11953   */\n      dup2\n        /* \"#utility.yul\":11918:11954   */\n      tag_50\n      jump\t// in\n    tag_268:\n        /* \"#utility.yul\":11970:12058   */\n      tag_269\n        /* \"#utility.yul\":12051:12057   */\n      dup2\n        /* \"#utility.yul\":12046:12049   */\n      dup7\n        /* \"#utility.yul\":11970:12058   */\n      tag_129\n      jump\t// in\n    tag_269:\n        /* \"#utility.yul\":11963:12058   */\n      swap5\n      pop\n        /* \"#utility.yul\":12089:12090   */\n      0x01\n        /* \"#utility.yul\":12078:12087   */\n      dup3\n        /* \"#utility.yul\":12074:12091   */\n      and\n        /* \"#utility.yul\":12105:12106   */\n      0x00\n        /* \"#utility.yul\":12100:12266   */\n      dup2\n      eq\n      tag_271\n      jumpi\n        /* \"#utility.yul\":12280:12281   */\n      0x01\n        /* \"#utility.yul\":12275:12619   */\n      dup2\n      eq\n      tag_272\n      jumpi\n        /* \"#utility.yul\":12067:12619   */\n      jump(tag_270)\n        /* \"#utility.yul\":12100:12266   */\n    tag_271:\n        /* \"#utility.yul\":12184:12188   */\n      0xff\n        /* \"#utility.yul\":12180:12189   */\n      not\n        /* \"#utility.yul\":12169:12178   */\n      dup4\n        /* \"#utility.yul\":12165:12190   */\n      and\n        /* \"#utility.yul\":12160:12163   */\n      dup7\n        /* \"#utility.yul\":12153:12191   */\n      mstore\n        /* \"#utility.yul\":12246:12252   */\n      dup2\n        /* \"#utility.yul\":12239:12253   */\n      iszero\n        /* \"#utility.yul\":12232:12254   */\n      iszero\n        /* \"#utility.yul\":12224:12230   */\n      dup3\n        /* \"#utility.yul\":12220:12255   */\n      mul\n        /* \"#utility.yul\":12215:12218   */\n      dup7\n        /* \"#utility.yul\":12211:12256   */\n      add\n        /* \"#utility.yul\":12204:12256   */\n      swap4\n      pop\n        /* \"#utility.yul\":12100:12266   */\n      jump(tag_270)\n        /* \"#utility.yul\":12275:12619   */\n    tag_272:\n        /* \"#utility.yul\":12342:12383   */\n      tag_273\n        /* \"#utility.yul\":12377:12382   */\n      dup6\n        /* \"#utility.yul\":12342:12383   */\n      tag_130\n      jump\t// in\n    tag_273:\n        /* \"#utility.yul\":12405:12406   */\n      0x00\n        /* \"#utility.yul\":12419:12573   */\n    tag_274:\n        /* \"#utility.yul\":12433:12439   */\n      dup4\n        /* \"#utility.yul\":12430:12431   */\n      dup2\n        /* \"#utility.yul\":12427:12440   */\n      lt\n        /* \"#utility.yul\":12419:12573   */\n      iszero\n      tag_276\n      jumpi\n        /* \"#utility.yul\":12507:12514   */\n      dup2\n        /* \"#utility.yul\":12501:12515   */\n      sload\n        /* \"#utility.yul\":12497:12498   */\n      dup2\n        /* \"#utility.yul\":12492:12495   */\n      dup10\n        /* \"#utility.yul\":12488:12499   */\n      add\n        /* \"#utility.yul\":12481:12516   */\n      mstore\n        /* \"#utility.yul\":12557:12558   */\n      0x01\n        /* \"#utility.yul\":12548:12555   */\n      dup3\n        /* \"#utility.yul\":12544:12559   */\n      add\n        /* \"#utility.yul\":12533:12559   */\n      swap2\n      pop\n        /* \"#utility.yul\":12455:12459   */\n      0x20\n        /* \"#utility.yul\":12452:12453   */\n      dup2\n        /* \"#utility.yul\":12448:12460   */\n      add\n        /* \"#utility.yul\":12443:12460   */\n      swap1\n      pop\n        /* \"#utility.yul\":12419:12573   */\n      jump(tag_274)\n    tag_276:\n        /* \"#utility.yul\":12602:12608   */\n      dup4\n        /* \"#utility.yul\":12597:12600   */\n      dup9\n        /* \"#utility.yul\":12593:12609   */\n      add\n        /* \"#utility.yul\":12586:12609   */\n      swap6\n      pop\n        /* \"#utility.yul\":12282:12619   */\n      pop\n      pop\n        /* \"#utility.yul\":12067:12619   */\n    tag_270:\n      pop\n        /* \"#utility.yul\":11856:12625   */\n      pop\n      pop\n        /* \"#utility.yul\":11747:12625   */\n      swap3\n      swap2\n      pop\n      pop\n      jump\t// out\n        /* \"#utility.yul\":12631:12904   */\n    tag_82:\n        /* \"#utility.yul\":12762:12765   */\n      0x00\n        /* \"#utility.yul\":12784:12878   */\n      tag_278\n        /* \"#utility.yul\":12874:12877   */\n      dup3\n        /* \"#utility.yul\":12865:12871   */\n      dup5\n        /* \"#utility.yul\":12784:12878   */\n      tag_131\n      jump\t// in\n    tag_278:\n        /* \"#utility.yul\":12777:12878   */\n      swap2\n      pop\n        /* \"#utility.yul\":12895:12898   */\n      dup2\n        /* \"#utility.yul\":12888:12898   */\n      swap1\n      pop\n        /* \"#utility.yul\":12631:12904   */\n      swap3\n      swap2\n      pop\n      pop\n      jump\t// out\n        /* \"#utility.yul\":12910:13085   */\n    tag_132:\n        /* \"#utility.yul\":13050:13077   */\n      0x74686520726567696f6e2069732061206475706c696361746500000000000000\n        /* \"#utility.yul\":13046:13047   */\n      0x00\n        /* \"#utility.yul\":13038:13044   */\n      dup3\n        /* \"#utility.yul\":13034:13048   */\n      add\n        /* \"#utility.yul\":13027:13078   */\n      mstore\n        /* \"#utility.yul\":12910:13085   */\n      pop\n      jump\t// out\n        /* \"#utility.yul\":13091:13457   */\n    tag_133:\n        /* \"#utility.yul\":13233:13236   */\n      0x00\n        /* \"#utility.yul\":13254:13321   */\n      tag_281\n        /* \"#utility.yul\":13318:13320   */\n      0x19\n        /* \"#utility.yul\":13313:13316   */\n      dup4\n        /* \"#utility.yul\":13254:13321   */\n      tag_97\n      jump\t// in\n    tag_281:\n        /* \"#utility.yul\":13247:13321   */\n      swap2\n      pop\n        /* \"#utility.yul\":13330:13423   */\n      tag_282\n        /* \"#utility.yul\":13419:13422   */\n      dup3\n        /* \"#utility.yul\":13330:13423   */\n      tag_132\n      jump\t// in\n    tag_282:\n        /* \"#utility.yul\":13448:13450   */\n      0x20\n        /* \"#utility.yul\":13443:13446   */\n      dup3\n        /* \"#utility.yul\":13439:13451   */\n      add\n        /* \"#utility.yul\":13432:13451   */\n      swap1\n      pop\n        /* \"#utility.yul\":13091:13457   */\n      swap2\n      swap1\n      pop\n      jump\t// out\n        /* \"#utility.yul\":13463:13882   */\n    tag_86:\n        /* \"#utility.yul\":13629:13633   */\n      0x00\n        /* \"#utility.yul\":13667:13669   */\n      0x20\n        /* \"#utility.yul\":13656:13665   */\n      dup3\n        /* \"#utility.yul\":13652:13670   */\n      add\n        /* \"#utility.yul\":13644:13670   */\n      swap1\n      pop\n        /* \"#utility.yul\":13716:13725   */\n      dup2\n        /* \"#utility.yul\":13710:13714   */\n      dup2\n        /* \"#utility.yul\":13706:13726   */\n      sub\n        /* \"#utility.yul\":13702:13703   */\n      0x00\n        /* \"#utility.yul\":13691:13700   */\n      dup4\n        /* \"#utility.yul\":13687:13704   */\n      add\n        /* \"#utility.yul\":13680:13727   */\n      mstore\n        /* \"#utility.yul\":13744:13875   */\n      tag_284\n        /* \"#utility.yul\":13870:13874   */\n      dup2\n        /* \"#utility.yul\":13744:13875   */\n      tag_133\n      jump\t// in\n    tag_284:\n        /* \"#utility.yul\":13736:13875   */\n      swap1\n      pop\n        /* \"#utility.yul\":13463:13882   */\n      swap2\n      swap1\n      pop\n      jump\t// out\n        /* \"#utility.yul\":13888:14029   */\n    tag_134:\n        /* \"#utility.yul\":13937:13941   */\n      0x00\n        /* \"#utility.yul\":13960:13963   */\n      dup2\n        /* \"#utility.yul\":13952:13963   */\n      swap1\n      pop\n        /* \"#utility.yul\":13983:13986   */\n      dup2\n        /* \"#utility.yul\":13980:13981   */\n      0x00\n        /* \"#utility.yul\":13973:13987   */\n      mstore\n        /* \"#utility.yul\":14017:14021   */\n      0x20\n        /* \"#utility.yul\":14014:14015   */\n      0x00\n        /* \"#utility.yul\":14004:14022   */\n      keccak256\n        /* \"#utility.yul\":13996:14022   */\n      swap1\n      pop\n        /* \"#utility.yul\":13888:14029   */\n      swap2\n      swap1\n      pop\n      jump\t// out\n        /* \"#utility.yul\":14035:14128   */\n    tag_135:\n        /* \"#utility.yul\":14072:14078   */\n      0x00\n        /* \"#utility.yul\":14119:14121   */\n      0x20\n        /* \"#utility.yul\":14114:14116   */\n      0x1f\n        /* \"#utility.yul\":14107:14112   */\n      dup4\n        /* \"#utility.yul\":14103:14117   */\n      add\n        /* \"#utility.yul\":14099:14122   */\n      div\n        /* \"#utility.yul\":14089:14122   */\n      swap1\n      pop\n        /* \"#utility.yul\":14035:14128   */\n      swap2\n      swap1\n      pop\n      jump\t// out\n        /* \"#utility.yul\":14134:14241   */\n    tag_136:\n        /* \"#utility.yul\":14178:14186   */\n      0x00\n        /* \"#utility.yul\":14228:14233   */\n      dup3\n        /* \"#utility.yul\":14222:14226   */\n      dup3\n        /* \"#utility.yul\":14218:14234   */\n      shl\n        /* \"#utility.yul\":14197:14234   */\n      swap1\n      pop\n        /* \"#utility.yul\":14134:14241   */\n      swap3\n      swap2\n      pop\n      pop\n      jump\t// out\n        /* \"#utility.yul\":14247:14640   */\n    tag_137:\n        /* \"#utility.yul\":14316:14322   */\n      0x00\n        /* \"#utility.yul\":14366:14367   */\n      0x08\n        /* \"#utility.yul\":14354:14364   */\n      dup4\n        /* \"#utility.yul\":14350:14368   */\n      mul\n        /* \"#utility.yul\":14389:14486   */\n      tag_289\n        /* \"#utility.yul\":14419:14485   */\n      0xffffffffffffffffffffffffffffffffffffffffffffffffffffffffffffffff\n        /* \"#utility.yul\":14408:14417   */\n      dup3\n        /* \"#utility.yul\":14389:14486   */\n      tag_136\n      jump\t// in\n    tag_289:\n        /* \"#utility.yul\":14507:14546   */\n      tag_290\n        /* \"#utility.yul\":14537:14545   */\n      dup7\n        /* \"#utility.yul\":14526:14535   */\n      dup4\n        /* \"#utility.yul\":14507:14546   */\n      tag_136\n      jump\t// in\n    tag_290:\n        /* \"#utility.yul\":14495:14546   */\n      swap6\n      pop\n        /* \"#utility.yul\":14579:14583   */\n      dup1\n        /* \"#utility.yul\":14575:14584   */\n      not\n        /* \"#utility.yul\":14568:14573   */\n      dup5\n        /* \"#utility.yul\":14564:14585   */\n      and\n        /* \"#utility.yul\":14555:14585   */\n      swap4\n      pop\n        /* \"#utility.yul\":14628:14632   */\n      dup1\n        /* \"#utility.yul\":14618:14626   */\n      dup7\n        /* \"#utility.yul\":14614:14633   */\n      and\n        /* \"#utility.yul\":14607:14612   */\n      dup5\n        /* \"#utility.yul\":14604:14634   */\n      or\n        /* \"#utility.yul\":14594:14634   */\n      swap3\n      pop\n        /* \"#utility.yul\":14323:14640   */\n      pop\n      pop\n        /* \"#utility.yul\":14247:14640   */\n      swap4\n      swap3\n      pop\n      pop\n      pop\n      jump\t// out\n        /* \"#utility.yul\":14646:14706   */\n    tag_138:\n        /* \"#utility.yul\":14674:14677   */\n      0x00\n        /* \"#utility.yul\":14695:14700   */\n      dup2\n        /* \"#utility.yul\":14688:14700   */\n      swap1\n      pop\n        /* \"#utility.yul\":14646:14706   */\n      swap2\n      swap1\n      pop\n      jump\t// out\n        /* \"#utility.yul\":14712:14854   */\n    tag_139:\n        /* \"#utility.yul\":14762:14771   */\n      0x00\n        /* \"#utility.yul\":14795:14848   */\n      tag_293\n        /* \"#utility.yul\":14813:14847   */\n      tag_294\n        /* \"#utility.yul\":14822:14846   */\n      tag_295\n        /* \"#utility.yul\":14840:14845   */\n      dup5\n        /* \"#utility.yul\":14822:14846   */\n      tag_93\n      jump\t// in\n    tag_295:\n        /* \"#utility.yul\":14813:14847   */\n      tag_138\n      jump\t// in\n    tag_294:\n        /* \"#utility.yul\":14795:14848   */\n      tag_93\n      jump\t// in\n    tag_293:\n        /* \"#utility.yul\":14782:14848   */\n      swap1\n      pop\n        /* \"#utility.yul\":14712:14854   */\n      swap2\n      swap1\n      pop\n      jump\t// out\n        /* \"#utility.yul\":14860:14935   */\n    tag_140:\n        /* \"#utility.yul\":14903:14906   */\n      0x00\n        /* \"#utility.yul\":14924:14929   */\n      dup2\n        /* \"#utility.yul\":14917:14929   */\n      swap1\n      pop\n        /* \"#utility.yul\":14860:14935   */\n      swap2\n      swap1\n      pop\n      jump\t// out\n        /* \"#utility.yul\":14941:15210   */\n    tag_141:\n        /* \"#utility.yul\":15051:15090   */\n      tag_298\n        /* \"#utility.yul\":15082:15089   */\n      dup4\n        /* \"#utility.yul\":15051:15090   */\n      tag_139\n      jump\t// in\n    tag_298:\n        /* \"#utility.yul\":15112:15203   */\n      tag_299\n        /* \"#utility.yul\":15161:15202   */\n      tag_300\n        /* \"#utility.yul\":15185:15201   */\n      dup3\n        /* \"#utility.yul\":15161:15202   */\n      tag_140\n      jump\t// in\n    tag_300:\n        /* \"#utility.yul\":15153:15159   */\n      dup5\n        /* \"#utility.yul\":15146:15150   */\n      dup5\n        /* \"#utility.yul\":15140:15151   */\n      sload\n        /* \"#utility.yul\":15112:15203   */\n      tag_137\n      jump\t// in\n    tag_299:\n        /* \"#utility.yul\":15106:15110   */\n      dup3\n        /* \"#utility.yul\":15099:15204   */\n      sstore\n        /* \"#utility.yul\":15017:15210   */\n      pop\n        /* \"#utility.yul\":14941:15210   */\n      pop\n      pop\n      pop\n      jump\t// out\n        /* \"#utility.yul\":15216:15289   */\n    tag_142:\n        /* \"#utility.yul\":15261:15264   */\n      0x00\n        /* \"#utility.yul\":15216:15289   */\n      swap1\n      jump\t// out\n        /* \"#utility.yul\":15295:15484   */\n    tag_143:\n        /* \"#utility.yul\":15372:15404   */\n      tag_303\n      tag_142\n      jump\t// in\n    tag_303:\n        /* \"#utility.yul\":15413:15478   */\n      tag_304\n        /* \"#utility.yul\":15471:15477   */\n      dup2\n        /* \"#utility.yul\":15463:15469   */\n      dup5\n        /* \"#utility.yul\":15457:15461   */\n      dup5\n        /* \"#utility.yul\":15413:15478   */\n      tag_141\n      jump\t// in\n    tag_304:\n        /* \"#utility.yul\":15348:15484   */\n      pop\n        /* \"#utility.yul\":15295:15484   */\n      pop\n      pop\n      jump\t// out\n        /* \"#utility.yul\":15490:15676   */\n    tag_144:\n        /* \"#utility.yul\":15550:15670   */\n    tag_306:\n        /* \"#utility.yul\":15567:15570   */\n      dup2\n        /* \"#utility.yul\":15560:15565   */\n      dup2\n        /* \"#utility.yul\":15557:15571   */\n      lt\n        /* \"#utility.yul\":15550:15670   */\n      iszero\n      tag_308\n      jumpi\n        /* \"#utility.yul\":15621:15660   */\n      tag_309\n        /* \"#utility.yul\":15658:15659   */\n      0x00\n        /* \"#utility.yul\":15651:15656   */\n      dup3\n        /* \"#utility.yul\":15621:15660   */\n      tag_143\n      jump\t// in\n    tag_309:\n        /* \"#utility.yul\":15594:15595   */\n      0x01\n        /* \"#utility.yul\":15587:15592   */\n      dup2\n        /* \"#utility.yul\":15583:15596   */\n      add\n        /* \"#utility.yul\":15574:15596   */\n      swap1\n      pop\n        /* \"#utility.yul\":15550:15670   */\n      jump(tag_306)\n    tag_308:\n        /* \"#utility.yul\":15490:15676   */\n      pop\n      pop\n      jump\t// out\n        /* \"#utility.yul\":15682:16225   */\n    tag_145:\n        /* \"#utility.yul\":15783:15785   */\n      0x1f\n        /* \"#utility.yul\":15778:15781   */\n      dup3\n        /* \"#utility.yul\":15775:15786   */\n      gt\n        /* \"#utility.yul\":15772:16218   */\n      iszero\n      tag_311\n      jumpi\n        /* \"#utility.yul\":15817:15855   */\n      tag_312\n        /* \"#utility.yul\":15849:15854   */\n      dup2\n        /* \"#utility.yul\":15817:15855   */\n      tag_134\n      jump\t// in\n    tag_312:\n        /* \"#utility.yul\":15901:15930   */\n      tag_313\n        /* \"#utility.yul\":15919:15929   */\n      dup5\n        /* \"#utility.yul\":15901:15930   */\n      tag_135\n      jump\t// in\n    tag_313:\n        /* \"#utility.yul\":15891:15899   */\n      dup2\n        /* \"#utility.yul\":15887:15931   */\n      add\n        /* \"#utility.yul\":16084:16086   */\n      0x20\n        /* \"#utility.yul\":16072:16082   */\n      dup6\n        /* \"#utility.yul\":16069:16087   */\n      lt\n        /* \"#utility.yul\":16066:16115   */\n      iszero\n      tag_314\n      jumpi\n        /* \"#utility.yul\":16105:16113   */\n      dup2\n        /* \"#utility.yul\":16090:16113   */\n      swap1\n      pop\n        /* \"#utility.yul\":16066:16115   */\n    tag_314:\n        /* \"#utility.yul\":16128:16208   */\n      tag_315\n        /* \"#utility.yul\":16184:16206   */\n      tag_316\n        /* \"#utility.yul\":16202:16205   */\n      dup6\n        /* \"#utility.yul\":16184:16206   */\n      tag_135\n      jump\t// in\n    tag_316:\n        /* \"#utility.yul\":16174:16182   */\n      dup4\n        /* \"#utility.yul\":16170:16207   */\n      add\n        /* \"#utility.yul\":16157:16168   */\n      dup3\n        /* \"#utility.yul\":16128:16208   */\n      tag_144\n      jump\t// in\n    tag_315:\n        /* \"#utility.yul\":15787:16218   */\n      pop\n      pop\n        /* \"#utility.yul\":15772:16218   */\n    tag_311:\n        /* \"#utility.yul\":15682:16225   */\n      pop\n      pop\n      pop\n      jump\t// out\n        /* \"#utility.yul\":16231:16348   */\n    tag_146:\n        /* \"#utility.yul\":16285:16293   */\n      0x00\n        /* \"#utility.yul\":16335:16340   */\n      dup3\n        /* \"#utility.yul\":16329:16333   */\n      dup3\n        /* \"#utility.yul\":16325:16341   */\n      shr\n        /* \"#utility.yul\":16304:16341   */\n      swap1\n      pop\n        /* \"#utility.yul\":16231:16348   */\n      swap3\n      swap2\n      pop\n      pop\n      jump\t// out\n        /* \"#utility.yul\":16354:16523   */\n    tag_147:\n        /* \"#utility.yul\":16398:16404   */\n      0x00\n        /* \"#utility.yul\":16431:16482   */\n      tag_319\n        /* \"#utility.yul\":16479:16480   */\n      0x00\n        /* \"#utility.yul\":16475:16481   */\n      not\n        /* \"#utility.yul\":16467:16472   */\n      dup5\n        /* \"#utility.yul\":16464:16465   */\n      0x08\n        /* \"#utility.yul\":16460:16473   */\n      mul\n        /* \"#utility.yul\":16431:16482   */\n      tag_146\n      jump\t// in\n    tag_319:\n        /* \"#utility.yul\":16427:16483   */\n      not\n        /* \"#utility.yul\":16512:16516   */\n      dup1\n        /* \"#utility.yul\":16506:16510   */\n      dup4\n        /* \"#utility.yul\":16502:16517   */\n      and\n        /* \"#utility.yul\":16492:16517   */\n      swap2\n      pop\n        /* \"#utility.yul\":16405:16523   */\n      pop\n        /* \"#utility.yul\":16354:16523   */\n      swap3\n      swap2\n      pop\n      pop\n      jump\t// out\n        /* \"#utility.yul\":16528:16823   */\n    tag_148:\n        /* \"#utility.yul\":16604:16608   */\n      0x00\n        /* \"#utility.yul\":16750:16779   */\n      tag_321\n        /* \"#utility.yul\":16775:16778   */\n      dup4\n        /* \"#utility.yul\":16769:16773   */\n      dup4\n        /* \"#utility.yul\":16750:16779   */\n      tag_147\n      jump\t// in\n    tag_321:\n        /* \"#utility.yul\":16742:16779   */\n      swap2\n      pop\n        /* \"#utility.yul\":16812:16815   */\n      dup3\n        /* \"#utility.yul\":16809:16810   */\n      0x02\n        /* \"#utility.yul\":16805:16816   */\n      mul\n        /* \"#utility.yul\":16799:16803   */\n      dup3\n        /* \"#utility.yul\":16796:16817   */\n      or\n        /* \"#utility.yul\":16788:16817   */\n      swap1\n      pop\n        /* \"#utility.yul\":16528:16823   */\n      swap3\n      swap2\n      pop\n      pop\n      jump\t// out\n        /* \"#utility.yul\":16828:18223   */\n    tag_89:\n        /* \"#utility.yul\":16945:16982   */\n      tag_323\n        /* \"#utility.yul\":16978:16981   */\n      dup3\n        /* \"#utility.yul\":16945:16982   */\n      tag_96\n      jump\t// in\n    tag_323:\n        /* \"#utility.yul\":17047:17065   */\n      0xffffffffffffffff\n        /* \"#utility.yul\":17039:17045   */\n      dup2\n        /* \"#utility.yul\":17036:17066   */\n      gt\n        /* \"#utility.yul\":17033:17089   */\n      iszero\n      tag_324\n      jumpi\n        /* \"#utility.yul\":17069:17087   */\n      tag_325\n      tag_116\n      jump\t// in\n    tag_325:\n        /* \"#utility.yul\":17033:17089   */\n    tag_324:\n        /* \"#utility.yul\":17113:17151   */\n      tag_326\n        /* \"#utility.yul\":17145:17149   */\n      dup3\n        /* \"#utility.yul\":17139:17150   */\n      sload\n        /* \"#utility.yul\":17113:17151   */\n      tag_50\n      jump\t// in\n    tag_326:\n        /* \"#utility.yul\":17198:17265   */\n      tag_327\n        /* \"#utility.yul\":17258:17264   */\n      dup3\n        /* \"#utility.yul\":17250:17256   */\n      dup3\n        /* \"#utility.yul\":17244:17248   */\n      dup6\n        /* \"#utility.yul\":17198:17265   */\n      tag_145\n      jump\t// in\n    tag_327:\n        /* \"#utility.yul\":17292:17293   */\n      0x00\n        /* \"#utility.yul\":17316:17320   */\n      0x20\n        /* \"#utility.yul\":17303:17320   */\n      swap1\n      pop\n        /* \"#utility.yul\":17348:17350   */\n      0x1f\n        /* \"#utility.yul\":17340:17346   */\n      dup4\n        /* \"#utility.yul\":17337:17351   */\n      gt\n        /* \"#utility.yul\":17365:17366   */\n      0x01\n        /* \"#utility.yul\":17360:17978   */\n      dup2\n      eq\n      tag_329\n      jumpi\n        /* \"#utility.yul\":18022:18023   */\n      0x00\n        /* \"#utility.yul\":18039:18045   */\n      dup5\n        /* \"#utility.yul\":18036:18113   */\n      iszero\n      tag_330\n      jumpi\n        /* \"#utility.yul\":18088:18097   */\n      dup3\n        /* \"#utility.yul\":18083:18086   */\n      dup8\n        /* \"#utility.yul\":18079:18098   */\n      add\n        /* \"#utility.yul\":18073:18099   */\n      mload\n        /* \"#utility.yul\":18064:18099   */\n      swap1\n      pop\n        /* \"#utility.yul\":18036:18113   */\n    tag_330:\n        /* \"#utility.yul\":18139:18206   */\n      tag_331\n        /* \"#utility.yul\":18199:18205   */\n      dup6\n        /* \"#utility.yul\":18192:18197   */\n      dup3\n        /* \"#utility.yul\":18139:18206   */\n      tag_148\n      jump\t// in\n    tag_331:\n        /* \"#utility.yul\":18133:18137   */\n      dup7\n        /* \"#utility.yul\":18126:18207   */\n      sstore\n        /* \"#utility.yul\":17995:18217   */\n      pop\n        /* \"#utility.yul\":17330:18217   */\n      jump(tag_328)\n        /* \"#utility.yul\":17360:17978   */\n    tag_329:\n        /* \"#utility.yul\":17412:17416   */\n      0x1f\n        /* \"#utility.yul\":17408:17417   */\n      not\n        /* \"#utility.yul\":17400:17406   */\n      dup5\n        /* \"#utility.yul\":17396:17418   */\n      and\n        /* \"#utility.yul\":17446:17483   */\n      tag_332\n        /* \"#utility.yul\":17478:17482   */\n      dup7\n        /* \"#utility.yul\":17446:17483   */\n      tag_134\n      jump\t// in\n    tag_332:\n        /* \"#utility.yul\":17505:17506   */\n      0x00\n        /* \"#utility.yul\":17519:17727   */\n    tag_333:\n        /* \"#utility.yul\":17533:17540   */\n      dup3\n        /* \"#utility.yul\":17530:17531   */\n      dup2\n        /* \"#utility.yul\":17527:17541   */\n      lt\n        /* \"#utility.yul\":17519:17727   */\n      iszero\n      tag_335\n      jumpi\n        /* \"#utility.yul\":17612:17621   */\n      dup5\n        /* \"#utility.yul\":17607:17610   */\n      dup10\n        /* \"#utility.yul\":17603:17622   */\n      add\n        /* \"#utility.yul\":17597:17623   */\n      mload\n        /* \"#utility.yul\":17589:17595   */\n      dup3\n        /* \"#utility.yul\":17582:17624   */\n      sstore\n        /* \"#utility.yul\":17663:17664   */\n      0x01\n        /* \"#utility.yul\":17655:17661   */\n      dup3\n        /* \"#utility.yul\":17651:17665   */\n      add\n        /* \"#utility.yul\":17641:17665   */\n      swap2\n      pop\n        /* \"#utility.yul\":17710:17712   */\n      0x20\n        /* \"#utility.yul\":17699:17708   */\n      dup6\n        /* \"#utility.yul\":17695:17713   */\n      add\n        /* \"#utility.yul\":17682:17713   */\n      swap5\n      pop\n        /* \"#utility.yul\":17556:17560   */\n      0x20\n        /* \"#utility.yul\":17553:17554   */\n      dup2\n        /* \"#utility.yul\":17549:17561   */\n      add\n        /* \"#utility.yul\":17544:17561   */\n      swap1\n      pop\n        /* \"#utility.yul\":17519:17727   */\n      jump(tag_333)\n    tag_335:\n        /* \"#utility.yul\":17755:17761   */\n      dup7\n        /* \"#utility.yul\":17746:17753   */\n      dup4\n        /* \"#utility.yul\":17743:17762   */\n      lt\n        /* \"#utility.yul\":17740:17919   */\n      iszero\n      tag_336\n      jumpi\n        /* \"#utility.yul\":17813:17822   */\n      dup5\n        /* \"#utility.yul\":17808:17811   */\n      dup10\n        /* \"#utility.yul\":17804:17823   */\n      add\n        /* \"#utility.yul\":17798:17824   */\n      mload\n        /* \"#utility.yul\":17856:17904   */\n      tag_337\n        /* \"#utility.yul\":17898:17902   */\n      0x1f\n        /* \"#utility.yul\":17890:17896   */\n      dup10\n        /* \"#utility.yul\":17886:17903   */\n      and\n        /* \"#utility.yul\":17875:17884   */\n      dup3\n        /* \"#utility.yul\":17856:17904   */\n      tag_147\n      jump\t// in\n    tag_337:\n        /* \"#utility.yul\":17848:17854   */\n      dup4\n        /* \"#utility.yul\":17841:17905   */\n      sstore\n        /* \"#utility.yul\":17763:17919   */\n      pop\n        /* \"#utility.yul\":17740:17919   */\n    tag_336:\n        /* \"#utility.yul\":17965:17966   */\n      0x01\n        /* \"#utility.yul\":17961:17962   */\n      0x02\n        /* \"#utility.yul\":17953:17959   */\n      dup9\n        /* \"#utility.yul\":17949:17963   */\n      mul\n        /* \"#utility.yul\":17945:17967   */\n      add\n        /* \"#utility.yul\":17939:17943   */\n      dup9\n        /* \"#utility.yul\":17932:17968   */\n      sstore\n        /* \"#utility.yul\":17367:17978   */\n      pop\n      pop\n      pop\n        /* \"#utility.yul\":17330:18217   */\n    tag_328:\n      pop\n        /* \"#utility.yul\":16920:18223   */\n      pop\n      pop\n      pop\n        /* \"#utility.yul\":16828:18223   */\n      pop\n      pop\n      jump\t// out\n\n    auxdata: 0xa26469706673582212204fe59a9697106e4c3d4c877da1a068cdaa30d54fea868fb8240b7977a2d3d9ca64736f6c63430008190033\n}\n",
				"bytecode": {
					"linkReferences": {},
					"object": "608060405234801561000f575f80fd5b5060405161169138038061169183398181016040528101906100319190610429565b3360015f6101000a81548173ffffffffffffffffffffffffffffffffffffffff021916908373ffffffffffffffffffffffffffffffffffffffff160217905550815f90805190602001906100869291906100ce565b508060025f6101000a81548173ffffffffffffffffffffffffffffffffffffffff021916908373ffffffffffffffffffffffffffffffffffffffff160217905550505061075f565b828054828255905f5260205f20908101928215610114579160200282015b828111156101135782518290816101039190610690565b50916020019190600101906100ec565b5b5090506101219190610125565b5090565b5b80821115610144575f818161013b9190610148565b50600101610126565b5090565b508054610154906104ba565b5f825580601f106101655750610182565b601f0160209004905f5260205f20908101906101819190610185565b5b50565b5b8082111561019c575f815f905550600101610186565b5090565b5f604051905090565b5f80fd5b5f80fd5b5f80fd5b5f601f19601f8301169050919050565b7f4e487b71000000000000000000000000000000000000000000000000000000005f52604160045260245ffd5b6101fb826101b5565b810181811067ffffffffffffffff8211171561021a576102196101c5565b5b80604052505050565b5f61022c6101a0565b905061023882826101f2565b919050565b5f67ffffffffffffffff821115610257576102566101c5565b5b602082029050602081019050919050565b5f80fd5b5f80fd5b5f67ffffffffffffffff82111561028a576102896101c5565b5b610293826101b5565b9050602081019050919050565b8281835e5f83830152505050565b5f6102c06102bb84610270565b610223565b9050828152602081018484840111156102dc576102db61026c565b5b6102e78482856102a0565b509392505050565b5f82601f830112610303576103026101b1565b5b81516103138482602086016102ae565b91505092915050565b5f61032e6103298461023d565b610223565b9050808382526020820190506020840283018581111561035157610350610268565b5b835b8181101561039857805167ffffffffffffffff811115610376576103756101b1565b5b80860161038389826102ef565b85526020850194505050602081019050610353565b5050509392505050565b5f82601f8301126103b6576103b56101b1565b5b81516103c684826020860161031c565b91505092915050565b5f73ffffffffffffffffffffffffffffffffffffffff82169050919050565b5f6103f8826103cf565b9050919050565b610408816103ee565b8114610412575f80fd5b50565b5f81519050610423816103ff565b92915050565b5f806040838503121561043f5761043e6101a9565b5b5f83015167ffffffffffffffff81111561045c5761045b6101ad565b5b610468858286016103a2565b925050602061047985828601610415565b9150509250929050565b5f81519050919050565b7f4e487b71000000000000000000000000000000000000000000000000000000005f52602260045260245ffd5b5f60028204905060018216806104d157607f821691505b6020821081036104e4576104e361048d565b5b50919050565b5f819050815f5260205f209050919050565b5f6020601f8301049050919050565b5f82821b905092915050565b5f600883026105467fffffffffffffffffffffffffffffffffffffffffffffffffffffffffffffffff8261050b565b610550868361050b565b95508019841693508086168417925050509392505050565b5f819050919050565b5f819050919050565b5f61059461058f61058a84610568565b610571565b610568565b9050919050565b5f819050919050565b6105ad8361057a565b6105c16105b98261059b565b848454610517565b825550505050565b5f90565b6105d56105c9565b6105e08184846105a4565b505050565b5b81811015610603576105f85f826105cd565b6001810190506105e6565b5050565b601f82111561064857610619816104ea565b610622846104fc565b81016020851015610631578190505b61064561063d856104fc565b8301826105e5565b50505b505050565b5f82821c905092915050565b5f6106685f198460080261064d565b1980831691505092915050565b5f6106808383610659565b9150826002028217905092915050565b61069982610483565b67ffffffffffffffff8111156106b2576106b16101c5565b5b6106bc82546104ba565b6106c7828285610607565b5f60209050601f8311600181146106f8575f84156106e6578287015190505b6106f08582610675565b865550610757565b601f198416610706866104ea565b5f5b8281101561072d57848901518255600182019150602085019450602081019050610708565b8683101561074a5784890151610746601f891682610659565b8355505b6001600288020188555050505b505050505050565b610f258061076c5f395ff3fe608060405234801561000f575f80fd5b5060043610610091575f3560e01c8063b71b9dab11610064578063b71b9dab1461011f578063c1b8411a1461013d578063cb26765f1461015b578063efd077d114610179578063f6b4dfb41461019557610091565b80631bb42ab4146100955780632a0acc6a146100c557806381e167cf146100e35780638da5cb5b14610101575b5f80fd5b6100af60048036038101906100aa9190610616565b6101b3565b6040516100bc91906106b1565b60405180910390f35b6100cd610258565b6040516100da91906106e9565b60405180910390f35b6100eb61027c565b6040516100f891906106e9565b60405180910390f35b6101096102a0565b6040516101169190610741565b60405180910390f35b6101276102c5565b604051610134919061085d565b60405180910390f35b610145610398565b60405161015291906106e9565b60405180910390f35b6101636103bc565b60405161017091906106e9565b60405180910390f35b610193600480360381019061018e91906109a9565b6103e0565b005b61019d6105ad565b6040516101aa9190610741565b60405180910390f35b5f81815481106101c1575f80fd5b905f5260205f20015f9150905080546101d990610a1d565b80601f016020809104026020016040519081016040528092919081815260200182805461020590610a1d565b80156102505780601f1061022757610100808354040283529160200191610250565b820191905f5260205f20905b81548152906001019060200180831161023357829003601f168201915b505050505081565b7fdf8b4c520ffe197c5343c6f5aec59570151ef9a492f2c624fd45ddde6135ec4281565b7f2db9fd3d099848027c2383d0a083396f6c41510d7acfd92adc99b6cffcf31e9681565b60015f9054906101000a900473ffffffffffffffffffffffffffffffffffffffff1681565b60605f805480602002602001604051908101604052809291908181526020015f905b8282101561038f578382905f5260205f2001805461030490610a1d565b80601f016020809104026020016040519081016040528092919081815260200182805461033090610a1d565b801561037b5780601f106103525761010080835404028352916020019161037b565b820191905f5260205f20905b81548152906001019060200180831161035e57829003601f168201915b5050505050815260200190600101906102e7565b50505050905090565b7f503cf060389b91af8851125bd70ce66d16d12330718b103fc7674ef6d27e70c981565b7fa62771101a79dd4b4d7b861524e85faa4569e99d6bb6b09233805dccb1ea480f81565b5f60025f9054906101000a900473ffffffffffffffffffffffffffffffffffffffff1673ffffffffffffffffffffffffffffffffffffffff16634a65ec81337fdf8b4c520ffe197c5343c6f5aec59570151ef9a492f2c624fd45ddde6135ec426040518363ffffffff1660e01b815260040161045d929190610a4d565b602060405180830381865afa158015610478573d5f803e3d5ffd5b505050506040513d601f19601f8201168201806040525081019061049c9190610aa9565b9050806104de576040517f08c379a00000000000000000000000000000000000000000000000000000000081526004016104d590610b1e565b60405180910390fd5b5f5b5f805490508110156105775782805190602001205f828154811061050757610506610b3c565b5b905f5260205f200160405161051c9190610c05565b60405180910390200361056a575f610569576040517f08c379a000000000000000000000000000000000000000000000000000000000815260040161056090610c65565b60405180910390fd5b5b80806001019150506104e0565b505f82908060018154018082558091505060019003905f5260205f20015f9091909190915090816105a89190610e20565b505050565b60025f9054906101000a900473ffffffffffffffffffffffffffffffffffffffff1681565b5f604051905090565b5f80fd5b5f80fd5b5f819050919050565b6105f5816105e3565b81146105ff575f80fd5b50565b5f81359050610610816105ec565b92915050565b5f6020828403121561062b5761062a6105db565b5b5f61063884828501610602565b91505092915050565b5f81519050919050565b5f82825260208201905092915050565b8281835e5f83830152505050565b5f601f19601f8301169050919050565b5f61068382610641565b61068d818561064b565b935061069d81856020860161065b565b6106a681610669565b840191505092915050565b5f6020820190508181035f8301526106c98184610679565b905092915050565b5f819050919050565b6106e3816106d1565b82525050565b5f6020820190506106fc5f8301846106da565b92915050565b5f73ffffffffffffffffffffffffffffffffffffffff82169050919050565b5f61072b82610702565b9050919050565b61073b81610721565b82525050565b5f6020820190506107545f830184610732565b92915050565b5f81519050919050565b5f82825260208201905092915050565b5f819050602082019050919050565b5f82825260208201905092915050565b5f61079d82610641565b6107a78185610783565b93506107b781856020860161065b565b6107c081610669565b840191505092915050565b5f6107d68383610793565b905092915050565b5f602082019050919050565b5f6107f48261075a565b6107fe8185610764565b93508360208202850161081085610774565b805f5b8581101561084b578484038952815161082c85826107cb565b9450610837836107de565b925060208a01995050600181019050610813565b50829750879550505050505092915050565b5f6020820190508181035f83015261087581846107ea565b905092915050565b5f80fd5b5f80fd5b7f4e487b71000000000000000000000000000000000000000000000000000000005f52604160045260245ffd5b6108bb82610669565b810181811067ffffffffffffffff821117156108da576108d9610885565b5b80604052505050565b5f6108ec6105d2565b90506108f882826108b2565b919050565b5f67ffffffffffffffff82111561091757610916610885565b5b61092082610669565b9050602081019050919050565b828183375f83830152505050565b5f61094d610948846108fd565b6108e3565b90508281526020810184848401111561096957610968610881565b5b61097484828561092d565b509392505050565b5f82601f8301126109905761098f61087d565b5b81356109a084826020860161093b565b91505092915050565b5f602082840312156109be576109bd6105db565b5b5f82013567ffffffffffffffff8111156109db576109da6105df565b5b6109e78482850161097c565b91505092915050565b7f4e487b71000000000000000000000000000000000000000000000000000000005f52602260045260245ffd5b5f6002820490506001821680610a3457607f821691505b602082108103610a4757610a466109f0565b5b50919050565b5f604082019050610a605f830185610732565b610a6d60208301846106da565b9392505050565b5f8115159050919050565b610a8881610a74565b8114610a92575f80fd5b50565b5f81519050610aa381610a7f565b92915050565b5f60208284031215610abe57610abd6105db565b5b5f610acb84828501610a95565b91505092915050565b7f6f6e6c79207468652061646d696e732063616e2061646420726567696f6e73005f82015250565b5f610b08601f8361064b565b9150610b1382610ad4565b602082019050919050565b5f6020820190508181035f830152610b3581610afc565b9050919050565b7f4e487b71000000000000000000000000000000000000000000000000000000005f52603260045260245ffd5b5f81905092915050565b5f819050815f5260205f209050919050565b5f8154610b9181610a1d565b610b9b8186610b69565b9450600182165f8114610bb55760018114610bca57610bfc565b60ff1983168652811515820286019350610bfc565b610bd385610b73565b5f5b83811015610bf457815481890152600182019150602081019050610bd5565b838801955050505b50505092915050565b5f610c108284610b85565b915081905092915050565b7f74686520726567696f6e2069732061206475706c6963617465000000000000005f82015250565b5f610c4f60198361064b565b9150610c5a82610c1b565b602082019050919050565b5f6020820190508181035f830152610c7c81610c43565b9050919050565b5f819050815f5260205f209050919050565b5f6020601f8301049050919050565b5f82821b905092915050565b5f60088302610cdf7fffffffffffffffffffffffffffffffffffffffffffffffffffffffffffffffff82610ca4565b610ce98683610ca4565b95508019841693508086168417925050509392505050565b5f819050919050565b5f610d24610d1f610d1a846105e3565b610d01565b6105e3565b9050919050565b5f819050919050565b610d3d83610d0a565b610d51610d4982610d2b565b848454610cb0565b825550505050565b5f90565b610d65610d59565b610d70818484610d34565b505050565b5b81811015610d9357610d885f82610d5d565b600181019050610d76565b5050565b601f821115610dd857610da981610c83565b610db284610c95565b81016020851015610dc1578190505b610dd5610dcd85610c95565b830182610d75565b50505b505050565b5f82821c905092915050565b5f610df85f1984600802610ddd565b1980831691505092915050565b5f610e108383610de9565b9150826002028217905092915050565b610e2982610641565b67ffffffffffffffff811115610e4257610e41610885565b5b610e4c8254610a1d565b610e57828285610d97565b5f60209050601f831160018114610e88575f8415610e76578287015190505b610e808582610e05565b865550610ee7565b601f198416610e9686610c83565b5f5b82811015610ebd57848901518255600182019150602085019450602081019050610e98565b86831015610eda5784890151610ed6601f891682610de9565b8355505b6001600288020188555050505b50505050505056fea26469706673582212204fe59a9697106e4c3d4c877da1a068cdaa30d54fea868fb8240b7977a2d3d9ca64736f6c63430008190033",
					"opcodes": "PUSH1 0x80 PUSH1 0x40 MSTORE CALLVALUE DUP1 ISZERO PUSH2 0xF JUMPI PUSH0 DUP1 REVERT JUMPDEST POP PUSH1 0x40 MLOAD PUSH2 0x1691 CODESIZE SUB DUP1 PUSH2 0x1691 DUP4 CODECOPY DUP2 DUP2 ADD PUSH1 0x40 MSTORE DUP2 ADD SWAP1 PUSH2 0x31 SWAP2 SWAP1 PUSH2 0x429 JUMP JUMPDEST CALLER PUSH1 0x1 PUSH0 PUSH2 0x100 EXP DUP2 SLOAD DUP2 PUSH20 0xFFFFFFFFFFFFFFFFFFFFFFFFFFFFFFFFFFFFFFFF MUL NOT AND SWAP1 DUP4 PUSH20 0xFFFFFFFFFFFFFFFFFFFFFFFFFFFFFFFFFFFFFFFF AND MUL OR SWAP1 SSTORE POP DUP2 PUSH0 SWAP1 DUP1 MLOAD SWAP1 PUSH1 0x20 ADD SWAP1 PUSH2 0x86 SWAP3 SWAP2 SWAP1 PUSH2 0xCE JUMP JUMPDEST POP DUP1 PUSH1 0x2 PUSH0 PUSH2 0x100 EXP DUP2 SLOAD DUP2 PUSH20 0xFFFFFFFFFFFFFFFFFFFFFFFFFFFFFFFFFFFFFFFF MUL NOT AND SWAP1 DUP4 PUSH20 0xFFFFFFFFFFFFFFFFFFFFFFFFFFFFFFFFFFFFFFFF AND MUL OR SWAP1 SSTORE POP POP POP PUSH2 0x75F JUMP JUMPDEST DUP3 DUP1 SLOAD DUP3 DUP3 SSTORE SWAP1 PUSH0 MSTORE PUSH1 0x20 PUSH0 KECCAK256 SWAP1 DUP2 ADD SWAP3 DUP3 ISZERO PUSH2 0x114 JUMPI SWAP2 PUSH1 0x20 MUL DUP3 ADD JUMPDEST DUP3 DUP2 GT ISZERO PUSH2 0x113 JUMPI DUP3 MLOAD DUP3 SWAP1 DUP2 PUSH2 0x103 SWAP2 SWAP1 PUSH2 0x690 JUMP JUMPDEST POP SWAP2 PUSH1 0x20 ADD SWAP2 SWAP1 PUSH1 0x1 ADD SWAP1 PUSH2 0xEC JUMP JUMPDEST JUMPDEST POP SWAP1 POP PUSH2 0x121 SWAP2 SWAP1 PUSH2 0x125 JUMP JUMPDEST POP SWAP1 JUMP JUMPDEST JUMPDEST DUP1 DUP3 GT ISZERO PUSH2 0x144 JUMPI PUSH0 DUP2 DUP2 PUSH2 0x13B SWAP2 SWAP1 PUSH2 0x148 JUMP JUMPDEST POP PUSH1 0x1 ADD PUSH2 0x126 JUMP JUMPDEST POP SWAP1 JUMP JUMPDEST POP DUP1 SLOAD PUSH2 0x154 SWAP1 PUSH2 0x4BA JUMP JUMPDEST PUSH0 DUP3 SSTORE DUP1 PUSH1 0x1F LT PUSH2 0x165 JUMPI POP PUSH2 0x182 JUMP JUMPDEST PUSH1 0x1F ADD PUSH1 0x20 SWAP1 DIV SWAP1 PUSH0 MSTORE PUSH1 0x20 PUSH0 KECCAK256 SWAP1 DUP2 ADD SWAP1 PUSH2 0x181 SWAP2 SWAP1 PUSH2 0x185 JUMP JUMPDEST JUMPDEST POP JUMP JUMPDEST JUMPDEST DUP1 DUP3 GT ISZERO PUSH2 0x19C JUMPI PUSH0 DUP2 PUSH0 SWAP1 SSTORE POP PUSH1 0x1 ADD PUSH2 0x186 JUMP JUMPDEST POP SWAP1 JUMP JUMPDEST PUSH0 PUSH1 0x40 MLOAD SWAP1 POP SWAP1 JUMP JUMPDEST PUSH0 DUP1 REVERT JUMPDEST PUSH0 DUP1 REVERT JUMPDEST PUSH0 DUP1 REVERT JUMPDEST PUSH0 PUSH1 0x1F NOT PUSH1 0x1F DUP4 ADD AND SWAP1 POP SWAP2 SWAP1 POP JUMP JUMPDEST PUSH32 0x4E487B7100000000000000000000000000000000000000000000000000000000 PUSH0 MSTORE PUSH1 0x41 PUSH1 0x4 MSTORE PUSH1 0x24 PUSH0 REVERT JUMPDEST PUSH2 0x1FB DUP3 PUSH2 0x1B5 JUMP JUMPDEST DUP2 ADD DUP2 DUP2 LT PUSH8 0xFFFFFFFFFFFFFFFF DUP3 GT OR ISZERO PUSH2 0x21A JUMPI PUSH2 0x219 PUSH2 0x1C5 JUMP JUMPDEST JUMPDEST DUP1 PUSH1 0x40 MSTORE POP POP POP JUMP JUMPDEST PUSH0 PUSH2 0x22C PUSH2 0x1A0 JUMP JUMPDEST SWAP1 POP PUSH2 0x238 DUP3 DUP3 PUSH2 0x1F2 JUMP JUMPDEST SWAP2 SWAP1 POP JUMP JUMPDEST PUSH0 PUSH8 0xFFFFFFFFFFFFFFFF DUP3 GT ISZERO PUSH2 0x257 JUMPI PUSH2 0x256 PUSH2 0x1C5 JUMP JUMPDEST JUMPDEST PUSH1 0x20 DUP3 MUL SWAP1 POP PUSH1 0x20 DUP2 ADD SWAP1 POP SWAP2 SWAP1 POP JUMP JUMPDEST PUSH0 DUP1 REVERT JUMPDEST PUSH0 DUP1 REVERT JUMPDEST PUSH0 PUSH8 0xFFFFFFFFFFFFFFFF DUP3 GT ISZERO PUSH2 0x28A JUMPI PUSH2 0x289 PUSH2 0x1C5 JUMP JUMPDEST JUMPDEST PUSH2 0x293 DUP3 PUSH2 0x1B5 JUMP JUMPDEST SWAP1 POP PUSH1 0x20 DUP2 ADD SWAP1 POP SWAP2 SWAP1 POP JUMP JUMPDEST DUP3 DUP2 DUP4 MCOPY PUSH0 DUP4 DUP4 ADD MSTORE POP POP POP JUMP JUMPDEST PUSH0 PUSH2 0x2C0 PUSH2 0x2BB DUP5 PUSH2 0x270 JUMP JUMPDEST PUSH2 0x223 JUMP JUMPDEST SWAP1 POP DUP3 DUP2 MSTORE PUSH1 0x20 DUP2 ADD DUP5 DUP5 DUP5 ADD GT ISZERO PUSH2 0x2DC JUMPI PUSH2 0x2DB PUSH2 0x26C JUMP JUMPDEST JUMPDEST PUSH2 0x2E7 DUP5 DUP3 DUP6 PUSH2 0x2A0 JUMP JUMPDEST POP SWAP4 SWAP3 POP POP POP JUMP JUMPDEST PUSH0 DUP3 PUSH1 0x1F DUP4 ADD SLT PUSH2 0x303 JUMPI PUSH2 0x302 PUSH2 0x1B1 JUMP JUMPDEST JUMPDEST DUP2 MLOAD PUSH2 0x313 DUP5 DUP3 PUSH1 0x20 DUP7 ADD PUSH2 0x2AE JUMP JUMPDEST SWAP2 POP POP SWAP3 SWAP2 POP POP JUMP JUMPDEST PUSH0 PUSH2 0x32E PUSH2 0x329 DUP5 PUSH2 0x23D JUMP JUMPDEST PUSH2 0x223 JUMP JUMPDEST SWAP1 POP DUP1 DUP4 DUP3 MSTORE PUSH1 0x20 DUP3 ADD SWAP1 POP PUSH1 0x20 DUP5 MUL DUP4 ADD DUP6 DUP2 GT ISZERO PUSH2 0x351 JUMPI PUSH2 0x350 PUSH2 0x268 JUMP JUMPDEST JUMPDEST DUP4 JUMPDEST DUP2 DUP2 LT ISZERO PUSH2 0x398 JUMPI DUP1 MLOAD PUSH8 0xFFFFFFFFFFFFFFFF DUP2 GT ISZERO PUSH2 0x376 JUMPI PUSH2 0x375 PUSH2 0x1B1 JUMP JUMPDEST JUMPDEST DUP1 DUP7 ADD PUSH2 0x383 DUP10 DUP3 PUSH2 0x2EF JUMP JUMPDEST DUP6 MSTORE PUSH1 0x20 DUP6 ADD SWAP5 POP POP POP PUSH1 0x20 DUP2 ADD SWAP1 POP PUSH2 0x353 JUMP JUMPDEST POP POP POP SWAP4 SWAP3 POP POP POP JUMP JUMPDEST PUSH0 DUP3 PUSH1 0x1F DUP4 ADD SLT PUSH2 0x3B6 JUMPI PUSH2 0x3B5 PUSH2 0x1B1 JUMP JUMPDEST JUMPDEST DUP2 MLOAD PUSH2 0x3C6 DUP5 DUP3 PUSH1 0x20 DUP7 ADD PUSH2 0x31C JUMP JUMPDEST SWAP2 POP POP SWAP3 SWAP2 POP POP JUMP JUMPDEST PUSH0 PUSH20 0xFFFFFFFFFFFFFFFFFFFFFFFFFFFFFFFFFFFFFFFF DUP3 AND SWAP1 POP SWAP2 SWAP1 POP JUMP JUMPDEST PUSH0 PUSH2 0x3F8 DUP3 PUSH2 0x3CF JUMP JUMPDEST SWAP1 POP SWAP2 SWAP1 POP JUMP JUMPDEST PUSH2 0x408 DUP2 PUSH2 0x3EE JUMP JUMPDEST DUP2 EQ PUSH2 0x412 JUMPI PUSH0 DUP1 REVERT JUMPDEST POP JUMP JUMPDEST PUSH0 DUP2 MLOAD SWAP1 POP PUSH2 0x423 DUP2 PUSH2 0x3FF JUMP JUMPDEST SWAP3 SWAP2 POP POP JUMP JUMPDEST PUSH0 DUP1 PUSH1 0x40 DUP4 DUP6 SUB SLT ISZERO PUSH2 0x43F JUMPI PUSH2 0x43E PUSH2 0x1A9 JUMP JUMPDEST JUMPDEST PUSH0 DUP4 ADD MLOAD PUSH8 0xFFFFFFFFFFFFFFFF DUP2 GT ISZERO PUSH2 0x45C JUMPI PUSH2 0x45B PUSH2 0x1AD JUMP JUMPDEST JUMPDEST PUSH2 0x468 DUP6 DUP3 DUP7 ADD PUSH2 0x3A2 JUMP JUMPDEST SWAP3 POP POP PUSH1 0x20 PUSH2 0x479 DUP6 DUP3 DUP7 ADD PUSH2 0x415 JUMP JUMPDEST SWAP2 POP POP SWAP3 POP SWAP3 SWAP1 POP JUMP JUMPDEST PUSH0 DUP2 MLOAD SWAP1 POP SWAP2 SWAP1 POP JUMP JUMPDEST PUSH32 0x4E487B7100000000000000000000000000000000000000000000000000000000 PUSH0 MSTORE PUSH1 0x22 PUSH1 0x4 MSTORE PUSH1 0x24 PUSH0 REVERT JUMPDEST PUSH0 PUSH1 0x2 DUP3 DIV SWAP1 POP PUSH1 0x1 DUP3 AND DUP1 PUSH2 0x4D1 JUMPI PUSH1 0x7F DUP3 AND SWAP2 POP JUMPDEST PUSH1 0x20 DUP3 LT DUP2 SUB PUSH2 0x4E4 JUMPI PUSH2 0x4E3 PUSH2 0x48D JUMP JUMPDEST JUMPDEST POP SWAP2 SWAP1 POP JUMP JUMPDEST PUSH0 DUP2 SWAP1 POP DUP2 PUSH0 MSTORE PUSH1 0x20 PUSH0 KECCAK256 SWAP1 POP SWAP2 SWAP1 POP JUMP JUMPDEST PUSH0 PUSH1 0x20 PUSH1 0x1F DUP4 ADD DIV SWAP1 POP SWAP2 SWAP1 POP JUMP JUMPDEST PUSH0 DUP3 DUP3 SHL SWAP1 POP SWAP3 SWAP2 POP POP JUMP JUMPDEST PUSH0 PUSH1 0x8 DUP4 MUL PUSH2 0x546 PUSH32 0xFFFFFFFFFFFFFFFFFFFFFFFFFFFFFFFFFFFFFFFFFFFFFFFFFFFFFFFFFFFFFFFF DUP3 PUSH2 0x50B JUMP JUMPDEST PUSH2 0x550 DUP7 DUP4 PUSH2 0x50B JUMP JUMPDEST SWAP6 POP DUP1 NOT DUP5 AND SWAP4 POP DUP1 DUP7 AND DUP5 OR SWAP3 POP POP POP SWAP4 SWAP3 POP POP POP JUMP JUMPDEST PUSH0 DUP2 SWAP1 POP SWAP2 SWAP1 POP JUMP JUMPDEST PUSH0 DUP2 SWAP1 POP SWAP2 SWAP1 POP JUMP JUMPDEST PUSH0 PUSH2 0x594 PUSH2 0x58F PUSH2 0x58A DUP5 PUSH2 0x568 JUMP JUMPDEST PUSH2 0x571 JUMP JUMPDEST PUSH2 0x568 JUMP JUMPDEST SWAP1 POP SWAP2 SWAP1 POP JUMP JUMPDEST PUSH0 DUP2 SWAP1 POP SWAP2 SWAP1 POP JUMP JUMPDEST PUSH2 0x5AD DUP4 PUSH2 0x57A JUMP JUMPDEST PUSH2 0x5C1 PUSH2 0x5B9 DUP3 PUSH2 0x59B JUMP JUMPDEST DUP5 DUP5 SLOAD PUSH2 0x517 JUMP JUMPDEST DUP3 SSTORE POP POP POP POP JUMP JUMPDEST PUSH0 SWAP1 JUMP JUMPDEST PUSH2 0x5D5 PUSH2 0x5C9 JUMP JUMPDEST PUSH2 0x5E0 DUP2 DUP5 DUP5 PUSH2 0x5A4 JUMP JUMPDEST POP POP POP JUMP JUMPDEST JUMPDEST DUP2 DUP2 LT ISZERO PUSH2 0x603 JUMPI PUSH2 0x5F8 PUSH0 DUP3 PUSH2 0x5CD JUMP JUMPDEST PUSH1 0x1 DUP2 ADD SWAP1 POP PUSH2 0x5E6 JUMP JUMPDEST POP POP JUMP JUMPDEST PUSH1 0x1F DUP3 GT ISZERO PUSH2 0x648 JUMPI PUSH2 0x619 DUP2 PUSH2 0x4EA JUMP JUMPDEST PUSH2 0x622 DUP5 PUSH2 0x4FC JUMP JUMPDEST DUP2 ADD PUSH1 0x20 DUP6 LT ISZERO PUSH2 0x631 JUMPI DUP2 SWAP1 POP JUMPDEST PUSH2 0x645 PUSH2 0x63D DUP6 PUSH2 0x4FC JUMP JUMPDEST DUP4 ADD DUP3 PUSH2 0x5E5 JUMP JUMPDEST POP POP JUMPDEST POP POP POP JUMP JUMPDEST PUSH0 DUP3 DUP3 SHR SWAP1 POP SWAP3 SWAP2 POP POP JUMP JUMPDEST PUSH0 PUSH2 0x668 PUSH0 NOT DUP5 PUSH1 0x8 MUL PUSH2 0x64D JUMP JUMPDEST NOT DUP1 DUP4 AND SWAP2 POP POP SWAP3 SWAP2 POP POP JUMP JUMPDEST PUSH0 PUSH2 0x680 DUP4 DUP4 PUSH2 0x659 JUMP JUMPDEST SWAP2 POP DUP3 PUSH1 0x2 MUL DUP3 OR SWAP1 POP SWAP3 SWAP2 POP POP JUMP JUMPDEST PUSH2 0x699 DUP3 PUSH2 0x483 JUMP JUMPDEST PUSH8 0xFFFFFFFFFFFFFFFF DUP2 GT ISZERO PUSH2 0x6B2 JUMPI PUSH2 0x6B1 PUSH2 0x1C5 JUMP JUMPDEST JUMPDEST PUSH2 0x6BC DUP3 SLOAD PUSH2 0x4BA JUMP JUMPDEST PUSH2 0x6C7 DUP3 DUP3 DUP6 PUSH2 0x607 JUMP JUMPDEST PUSH0 PUSH1 0x20 SWAP1 POP PUSH1 0x1F DUP4 GT PUSH1 0x1 DUP2 EQ PUSH2 0x6F8 JUMPI PUSH0 DUP5 ISZERO PUSH2 0x6E6 JUMPI DUP3 DUP8 ADD MLOAD SWAP1 POP JUMPDEST PUSH2 0x6F0 DUP6 DUP3 PUSH2 0x675 JUMP JUMPDEST DUP7 SSTORE POP PUSH2 0x757 JUMP JUMPDEST PUSH1 0x1F NOT DUP5 AND PUSH2 0x706 DUP7 PUSH2 0x4EA JUMP JUMPDEST PUSH0 JUMPDEST DUP3 DUP2 LT ISZERO PUSH2 0x72D JUMPI DUP5 DUP10 ADD MLOAD DUP3 SSTORE PUSH1 0x1 DUP3 ADD SWAP2 POP PUSH1 0x20 DUP6 ADD SWAP5 POP PUSH1 0x20 DUP2 ADD SWAP1 POP PUSH2 0x708 JUMP JUMPDEST DUP7 DUP4 LT ISZERO PUSH2 0x74A JUMPI DUP5 DUP10 ADD MLOAD PUSH2 0x746 PUSH1 0x1F DUP10 AND DUP3 PUSH2 0x659 JUMP JUMPDEST DUP4 SSTORE POP JUMPDEST PUSH1 0x1 PUSH1 0x2 DUP9 MUL ADD DUP9 SSTORE POP POP POP JUMPDEST POP POP POP POP POP POP JUMP JUMPDEST PUSH2 0xF25 DUP1 PUSH2 0x76C PUSH0 CODECOPY PUSH0 RETURN INVALID PUSH1 0x80 PUSH1 0x40 MSTORE CALLVALUE DUP1 ISZERO PUSH2 0xF JUMPI PUSH0 DUP1 REVERT JUMPDEST POP PUSH1 0x4 CALLDATASIZE LT PUSH2 0x91 JUMPI PUSH0 CALLDATALOAD PUSH1 0xE0 SHR DUP1 PUSH4 0xB71B9DAB GT PUSH2 0x64 JUMPI DUP1 PUSH4 0xB71B9DAB EQ PUSH2 0x11F JUMPI DUP1 PUSH4 0xC1B8411A EQ PUSH2 0x13D JUMPI DUP1 PUSH4 0xCB26765F EQ PUSH2 0x15B JUMPI DUP1 PUSH4 0xEFD077D1 EQ PUSH2 0x179 JUMPI DUP1 PUSH4 0xF6B4DFB4 EQ PUSH2 0x195 JUMPI PUSH2 0x91 JUMP JUMPDEST DUP1 PUSH4 0x1BB42AB4 EQ PUSH2 0x95 JUMPI DUP1 PUSH4 0x2A0ACC6A EQ PUSH2 0xC5 JUMPI DUP1 PUSH4 0x81E167CF EQ PUSH2 0xE3 JUMPI DUP1 PUSH4 0x8DA5CB5B EQ PUSH2 0x101 JUMPI JUMPDEST PUSH0 DUP1 REVERT JUMPDEST PUSH2 0xAF PUSH1 0x4 DUP1 CALLDATASIZE SUB DUP2 ADD SWAP1 PUSH2 0xAA SWAP2 SWAP1 PUSH2 0x616 JUMP JUMPDEST PUSH2 0x1B3 JUMP JUMPDEST PUSH1 0x40 MLOAD PUSH2 0xBC SWAP2 SWAP1 PUSH2 0x6B1 JUMP JUMPDEST PUSH1 0x40 MLOAD DUP1 SWAP2 SUB SWAP1 RETURN JUMPDEST PUSH2 0xCD PUSH2 0x258 JUMP JUMPDEST PUSH1 0x40 MLOAD PUSH2 0xDA SWAP2 SWAP1 PUSH2 0x6E9 JUMP JUMPDEST PUSH1 0x40 MLOAD DUP1 SWAP2 SUB SWAP1 RETURN JUMPDEST PUSH2 0xEB PUSH2 0x27C JUMP JUMPDEST PUSH1 0x40 MLOAD PUSH2 0xF8 SWAP2 SWAP1 PUSH2 0x6E9 JUMP JUMPDEST PUSH1 0x40 MLOAD DUP1 SWAP2 SUB SWAP1 RETURN JUMPDEST PUSH2 0x109 PUSH2 0x2A0 JUMP JUMPDEST PUSH1 0x40 MLOAD PUSH2 0x116 SWAP2 SWAP1 PUSH2 0x741 JUMP JUMPDEST PUSH1 0x40 MLOAD DUP1 SWAP2 SUB SWAP1 RETURN JUMPDEST PUSH2 0x127 PUSH2 0x2C5 JUMP JUMPDEST PUSH1 0x40 MLOAD PUSH2 0x134 SWAP2 SWAP1 PUSH2 0x85D JUMP JUMPDEST PUSH1 0x40 MLOAD DUP1 SWAP2 SUB SWAP1 RETURN JUMPDEST PUSH2 0x145 PUSH2 0x398 JUMP JUMPDEST PUSH1 0x40 MLOAD PUSH2 0x152 SWAP2 SWAP1 PUSH2 0x6E9 JUMP JUMPDEST PUSH1 0x40 MLOAD DUP1 SWAP2 SUB SWAP1 RETURN JUMPDEST PUSH2 0x163 PUSH2 0x3BC JUMP JUMPDEST PUSH1 0x40 MLOAD PUSH2 0x170 SWAP2 SWAP1 PUSH2 0x6E9 JUMP JUMPDEST PUSH1 0x40 MLOAD DUP1 SWAP2 SUB SWAP1 RETURN JUMPDEST PUSH2 0x193 PUSH1 0x4 DUP1 CALLDATASIZE SUB DUP2 ADD SWAP1 PUSH2 0x18E SWAP2 SWAP1 PUSH2 0x9A9 JUMP JUMPDEST PUSH2 0x3E0 JUMP JUMPDEST STOP JUMPDEST PUSH2 0x19D PUSH2 0x5AD JUMP JUMPDEST PUSH1 0x40 MLOAD PUSH2 0x1AA SWAP2 SWAP1 PUSH2 0x741 JUMP JUMPDEST PUSH1 0x40 MLOAD DUP1 SWAP2 SUB SWAP1 RETURN JUMPDEST PUSH0 DUP2 DUP2 SLOAD DUP2 LT PUSH2 0x1C1 JUMPI PUSH0 DUP1 REVERT JUMPDEST SWAP1 PUSH0 MSTORE PUSH1 0x20 PUSH0 KECCAK256 ADD PUSH0 SWAP2 POP SWAP1 POP DUP1 SLOAD PUSH2 0x1D9 SWAP1 PUSH2 0xA1D JUMP JUMPDEST DUP1 PUSH1 0x1F ADD PUSH1 0x20 DUP1 SWAP2 DIV MUL PUSH1 0x20 ADD PUSH1 0x40 MLOAD SWAP1 DUP2 ADD PUSH1 0x40 MSTORE DUP1 SWAP3 SWAP2 SWAP1 DUP2 DUP2 MSTORE PUSH1 0x20 ADD DUP3 DUP1 SLOAD PUSH2 0x205 SWAP1 PUSH2 0xA1D JUMP JUMPDEST DUP1 ISZERO PUSH2 0x250 JUMPI DUP1 PUSH1 0x1F LT PUSH2 0x227 JUMPI PUSH2 0x100 DUP1 DUP4 SLOAD DIV MUL DUP4 MSTORE SWAP2 PUSH1 0x20 ADD SWAP2 PUSH2 0x250 JUMP JUMPDEST DUP3 ADD SWAP2 SWAP1 PUSH0 MSTORE PUSH1 0x20 PUSH0 KECCAK256 SWAP1 JUMPDEST DUP2 SLOAD DUP2 MSTORE SWAP1 PUSH1 0x1 ADD SWAP1 PUSH1 0x20 ADD DUP1 DUP4 GT PUSH2 0x233 JUMPI DUP3 SWAP1 SUB PUSH1 0x1F AND DUP3 ADD SWAP2 JUMPDEST POP POP POP POP POP DUP2 JUMP JUMPDEST PUSH32 0xDF8B4C520FFE197C5343C6F5AEC59570151EF9A492F2C624FD45DDDE6135EC42 DUP2 JUMP JUMPDEST PUSH32 0x2DB9FD3D099848027C2383D0A083396F6C41510D7ACFD92ADC99B6CFFCF31E96 DUP2 JUMP JUMPDEST PUSH1 0x1 PUSH0 SWAP1 SLOAD SWAP1 PUSH2 0x100 EXP SWAP1 DIV PUSH20 0xFFFFFFFFFFFFFFFFFFFFFFFFFFFFFFFFFFFFFFFF AND DUP2 JUMP JUMPDEST PUSH1 0x60 PUSH0 DUP1 SLOAD DUP1 PUSH1 0x20 MUL PUSH1 0x20 ADD PUSH1 0x40 MLOAD SWAP1 DUP2 ADD PUSH1 0x40 MSTORE DUP1 SWAP3 SWAP2 SWAP1 DUP2 DUP2 MSTORE PUSH1 0x20 ADD PUSH0 SWAP1 JUMPDEST DUP3 DUP3 LT ISZERO PUSH2 0x38F JUMPI DUP4 DUP3 SWAP1 PUSH0 MSTORE PUSH1 0x20 PUSH0 KECCAK256 ADD DUP1 SLOAD PUSH2 0x304 SWAP1 PUSH2 0xA1D JUMP JUMPDEST DUP1 PUSH1 0x1F ADD PUSH1 0x20 DUP1 SWAP2 DIV MUL PUSH1 0x20 ADD PUSH1 0x40 MLOAD SWAP1 DUP2 ADD PUSH1 0x40 MSTORE DUP1 SWAP3 SWAP2 SWAP1 DUP2 DUP2 MSTORE PUSH1 0x20 ADD DUP3 DUP1 SLOAD PUSH2 0x330 SWAP1 PUSH2 0xA1D JUMP JUMPDEST DUP1 ISZERO PUSH2 0x37B JUMPI DUP1 PUSH1 0x1F LT PUSH2 0x352 JUMPI PUSH2 0x100 DUP1 DUP4 SLOAD DIV MUL DUP4 MSTORE SWAP2 PUSH1 0x20 ADD SWAP2 PUSH2 0x37B JUMP JUMPDEST DUP3 ADD SWAP2 SWAP1 PUSH0 MSTORE PUSH1 0x20 PUSH0 KECCAK256 SWAP1 JUMPDEST DUP2 SLOAD DUP2 MSTORE SWAP1 PUSH1 0x1 ADD SWAP1 PUSH1 0x20 ADD DUP1 DUP4 GT PUSH2 0x35E JUMPI DUP3 SWAP1 SUB PUSH1 0x1F AND DUP3 ADD SWAP2 JUMPDEST POP POP POP POP POP DUP2 MSTORE PUSH1 0x20 ADD SWAP1 PUSH1 0x1 ADD SWAP1 PUSH2 0x2E7 JUMP JUMPDEST POP POP POP POP SWAP1 POP SWAP1 JUMP JUMPDEST PUSH32 0x503CF060389B91AF8851125BD70CE66D16D12330718B103FC7674EF6D27E70C9 DUP2 JUMP JUMPDEST PUSH32 0xA62771101A79DD4B4D7B861524E85FAA4569E99D6BB6B09233805DCCB1EA480F DUP2 JUMP JUMPDEST PUSH0 PUSH1 0x2 PUSH0 SWAP1 SLOAD SWAP1 PUSH2 0x100 EXP SWAP1 DIV PUSH20 0xFFFFFFFFFFFFFFFFFFFFFFFFFFFFFFFFFFFFFFFF AND PUSH20 0xFFFFFFFFFFFFFFFFFFFFFFFFFFFFFFFFFFFFFFFF AND PUSH4 0x4A65EC81 CALLER PUSH32 0xDF8B4C520FFE197C5343C6F5AEC59570151EF9A492F2C624FD45DDDE6135EC42 PUSH1 0x40 MLOAD DUP4 PUSH4 0xFFFFFFFF AND PUSH1 0xE0 SHL DUP2 MSTORE PUSH1 0x4 ADD PUSH2 0x45D SWAP3 SWAP2 SWAP1 PUSH2 0xA4D JUMP JUMPDEST PUSH1 0x20 PUSH1 0x40 MLOAD DUP1 DUP4 SUB DUP2 DUP7 GAS STATICCALL ISZERO DUP1 ISZERO PUSH2 0x478 JUMPI RETURNDATASIZE PUSH0 DUP1 RETURNDATACOPY RETURNDATASIZE PUSH0 REVERT JUMPDEST POP POP POP POP PUSH1 0x40 MLOAD RETURNDATASIZE PUSH1 0x1F NOT PUSH1 0x1F DUP3 ADD AND DUP3 ADD DUP1 PUSH1 0x40 MSTORE POP DUP2 ADD SWAP1 PUSH2 0x49C SWAP2 SWAP1 PUSH2 0xAA9 JUMP JUMPDEST SWAP1 POP DUP1 PUSH2 0x4DE JUMPI PUSH1 0x40 MLOAD PUSH32 0x8C379A000000000000000000000000000000000000000000000000000000000 DUP2 MSTORE PUSH1 0x4 ADD PUSH2 0x4D5 SWAP1 PUSH2 0xB1E JUMP JUMPDEST PUSH1 0x40 MLOAD DUP1 SWAP2 SUB SWAP1 REVERT JUMPDEST PUSH0 JUMPDEST PUSH0 DUP1 SLOAD SWAP1 POP DUP2 LT ISZERO PUSH2 0x577 JUMPI DUP3 DUP1 MLOAD SWAP1 PUSH1 0x20 ADD KECCAK256 PUSH0 DUP3 DUP2 SLOAD DUP2 LT PUSH2 0x507 JUMPI PUSH2 0x506 PUSH2 0xB3C JUMP JUMPDEST JUMPDEST SWAP1 PUSH0 MSTORE PUSH1 0x20 PUSH0 KECCAK256 ADD PUSH1 0x40 MLOAD PUSH2 0x51C SWAP2 SWAP1 PUSH2 0xC05 JUMP JUMPDEST PUSH1 0x40 MLOAD DUP1 SWAP2 SUB SWAP1 KECCAK256 SUB PUSH2 0x56A JUMPI PUSH0 PUSH2 0x569 JUMPI PUSH1 0x40 MLOAD PUSH32 0x8C379A000000000000000000000000000000000000000000000000000000000 DUP2 MSTORE PUSH1 0x4 ADD PUSH2 0x560 SWAP1 PUSH2 0xC65 JUMP JUMPDEST PUSH1 0x40 MLOAD DUP1 SWAP2 SUB SWAP1 REVERT JUMPDEST JUMPDEST DUP1 DUP1 PUSH1 0x1 ADD SWAP2 POP POP PUSH2 0x4E0 JUMP JUMPDEST POP PUSH0 DUP3 SWAP1 DUP1 PUSH1 0x1 DUP2 SLOAD ADD DUP1 DUP3 SSTORE DUP1 SWAP2 POP POP PUSH1 0x1 SWAP1 SUB SWAP1 PUSH0 MSTORE PUSH1 0x20 PUSH0 KECCAK256 ADD PUSH0 SWAP1 SWAP2 SWAP1 SWAP2 SWAP1 SWAP2 POP SWAP1 DUP2 PUSH2 0x5A8 SWAP2 SWAP1 PUSH2 0xE20 JUMP JUMPDEST POP POP POP JUMP JUMPDEST PUSH1 0x2 PUSH0 SWAP1 SLOAD SWAP1 PUSH2 0x100 EXP SWAP1 DIV PUSH20 0xFFFFFFFFFFFFFFFFFFFFFFFFFFFFFFFFFFFFFFFF AND DUP2 JUMP JUMPDEST PUSH0 PUSH1 0x40 MLOAD SWAP1 POP SWAP1 JUMP JUMPDEST PUSH0 DUP1 REVERT JUMPDEST PUSH0 DUP1 REVERT JUMPDEST PUSH0 DUP2 SWAP1 POP SWAP2 SWAP1 POP JUMP JUMPDEST PUSH2 0x5F5 DUP2 PUSH2 0x5E3 JUMP JUMPDEST DUP2 EQ PUSH2 0x5FF JUMPI PUSH0 DUP1 REVERT JUMPDEST POP JUMP JUMPDEST PUSH0 DUP2 CALLDATALOAD SWAP1 POP PUSH2 0x610 DUP2 PUSH2 0x5EC JUMP JUMPDEST SWAP3 SWAP2 POP POP JUMP JUMPDEST PUSH0 PUSH1 0x20 DUP3 DUP5 SUB SLT ISZERO PUSH2 0x62B JUMPI PUSH2 0x62A PUSH2 0x5DB JUMP JUMPDEST JUMPDEST PUSH0 PUSH2 0x638 DUP5 DUP3 DUP6 ADD PUSH2 0x602 JUMP JUMPDEST SWAP2 POP POP SWAP3 SWAP2 POP POP JUMP JUMPDEST PUSH0 DUP2 MLOAD SWAP1 POP SWAP2 SWAP1 POP JUMP JUMPDEST PUSH0 DUP3 DUP3 MSTORE PUSH1 0x20 DUP3 ADD SWAP1 POP SWAP3 SWAP2 POP POP JUMP JUMPDEST DUP3 DUP2 DUP4 MCOPY PUSH0 DUP4 DUP4 ADD MSTORE POP POP POP JUMP JUMPDEST PUSH0 PUSH1 0x1F NOT PUSH1 0x1F DUP4 ADD AND SWAP1 POP SWAP2 SWAP1 POP JUMP JUMPDEST PUSH0 PUSH2 0x683 DUP3 PUSH2 0x641 JUMP JUMPDEST PUSH2 0x68D DUP2 DUP6 PUSH2 0x64B JUMP JUMPDEST SWAP4 POP PUSH2 0x69D DUP2 DUP6 PUSH1 0x20 DUP7 ADD PUSH2 0x65B JUMP JUMPDEST PUSH2 0x6A6 DUP2 PUSH2 0x669 JUMP JUMPDEST DUP5 ADD SWAP2 POP POP SWAP3 SWAP2 POP POP JUMP JUMPDEST PUSH0 PUSH1 0x20 DUP3 ADD SWAP1 POP DUP2 DUP2 SUB PUSH0 DUP4 ADD MSTORE PUSH2 0x6C9 DUP2 DUP5 PUSH2 0x679 JUMP JUMPDEST SWAP1 POP SWAP3 SWAP2 POP POP JUMP JUMPDEST PUSH0 DUP2 SWAP1 POP SWAP2 SWAP1 POP JUMP JUMPDEST PUSH2 0x6E3 DUP2 PUSH2 0x6D1 JUMP JUMPDEST DUP3 MSTORE POP POP JUMP JUMPDEST PUSH0 PUSH1 0x20 DUP3 ADD SWAP1 POP PUSH2 0x6FC PUSH0 DUP4 ADD DUP5 PUSH2 0x6DA JUMP JUMPDEST SWAP3 SWAP2 POP POP JUMP JUMPDEST PUSH0 PUSH20 0xFFFFFFFFFFFFFFFFFFFFFFFFFFFFFFFFFFFFFFFF DUP3 AND SWAP1 POP SWAP2 SWAP1 POP JUMP JUMPDEST PUSH0 PUSH2 0x72B DUP3 PUSH2 0x702 JUMP JUMPDEST SWAP1 POP SWAP2 SWAP1 POP JUMP JUMPDEST PUSH2 0x73B DUP2 PUSH2 0x721 JUMP JUMPDEST DUP3 MSTORE POP POP JUMP JUMPDEST PUSH0 PUSH1 0x20 DUP3 ADD SWAP1 POP PUSH2 0x754 PUSH0 DUP4 ADD DUP5 PUSH2 0x732 JUMP JUMPDEST SWAP3 SWAP2 POP POP JUMP JUMPDEST PUSH0 DUP2 MLOAD SWAP1 POP SWAP2 SWAP1 POP JUMP JUMPDEST PUSH0 DUP3 DUP3 MSTORE PUSH1 0x20 DUP3 ADD SWAP1 POP SWAP3 SWAP2 POP POP JUMP JUMPDEST PUSH0 DUP2 SWAP1 POP PUSH1 0x20 DUP3 ADD SWAP1 POP SWAP2 SWAP1 POP JUMP JUMPDEST PUSH0 DUP3 DUP3 MSTORE PUSH1 0x20 DUP3 ADD SWAP1 POP SWAP3 SWAP2 POP POP JUMP JUMPDEST PUSH0 PUSH2 0x79D DUP3 PUSH2 0x641 JUMP JUMPDEST PUSH2 0x7A7 DUP2 DUP6 PUSH2 0x783 JUMP JUMPDEST SWAP4 POP PUSH2 0x7B7 DUP2 DUP6 PUSH1 0x20 DUP7 ADD PUSH2 0x65B JUMP JUMPDEST PUSH2 0x7C0 DUP2 PUSH2 0x669 JUMP JUMPDEST DUP5 ADD SWAP2 POP POP SWAP3 SWAP2 POP POP JUMP JUMPDEST PUSH0 PUSH2 0x7D6 DUP4 DUP4 PUSH2 0x793 JUMP JUMPDEST SWAP1 POP SWAP3 SWAP2 POP POP JUMP JUMPDEST PUSH0 PUSH1 0x20 DUP3 ADD SWAP1 POP SWAP2 SWAP1 POP JUMP JUMPDEST PUSH0 PUSH2 0x7F4 DUP3 PUSH2 0x75A JUMP JUMPDEST PUSH2 0x7FE DUP2 DUP6 PUSH2 0x764 JUMP JUMPDEST SWAP4 POP DUP4 PUSH1 0x20 DUP3 MUL DUP6 ADD PUSH2 0x810 DUP6 PUSH2 0x774 JUMP JUMPDEST DUP1 PUSH0 JUMPDEST DUP6 DUP2 LT ISZERO PUSH2 0x84B JUMPI DUP5 DUP5 SUB DUP10 MSTORE DUP2 MLOAD PUSH2 0x82C DUP6 DUP3 PUSH2 0x7CB JUMP JUMPDEST SWAP5 POP PUSH2 0x837 DUP4 PUSH2 0x7DE JUMP JUMPDEST SWAP3 POP PUSH1 0x20 DUP11 ADD SWAP10 POP POP PUSH1 0x1 DUP2 ADD SWAP1 POP PUSH2 0x813 JUMP JUMPDEST POP DUP3 SWAP8 POP DUP8 SWAP6 POP POP POP POP POP POP SWAP3 SWAP2 POP POP JUMP JUMPDEST PUSH0 PUSH1 0x20 DUP3 ADD SWAP1 POP DUP2 DUP2 SUB PUSH0 DUP4 ADD MSTORE PUSH2 0x875 DUP2 DUP5 PUSH2 0x7EA JUMP JUMPDEST SWAP1 POP SWAP3 SWAP2 POP POP JUMP JUMPDEST PUSH0 DUP1 REVERT JUMPDEST PUSH0 DUP1 REVERT JUMPDEST PUSH32 0x4E487B7100000000000000000000000000000000000000000000000000000000 PUSH0 MSTORE PUSH1 0x41 PUSH1 0x4 MSTORE PUSH1 0x24 PUSH0 REVERT JUMPDEST PUSH2 0x8BB DUP3 PUSH2 0x669 JUMP JUMPDEST DUP2 ADD DUP2 DUP2 LT PUSH8 0xFFFFFFFFFFFFFFFF DUP3 GT OR ISZERO PUSH2 0x8DA JUMPI PUSH2 0x8D9 PUSH2 0x885 JUMP JUMPDEST JUMPDEST DUP1 PUSH1 0x40 MSTORE POP POP POP JUMP JUMPDEST PUSH0 PUSH2 0x8EC PUSH2 0x5D2 JUMP JUMPDEST SWAP1 POP PUSH2 0x8F8 DUP3 DUP3 PUSH2 0x8B2 JUMP JUMPDEST SWAP2 SWAP1 POP JUMP JUMPDEST PUSH0 PUSH8 0xFFFFFFFFFFFFFFFF DUP3 GT ISZERO PUSH2 0x917 JUMPI PUSH2 0x916 PUSH2 0x885 JUMP JUMPDEST JUMPDEST PUSH2 0x920 DUP3 PUSH2 0x669 JUMP JUMPDEST SWAP1 POP PUSH1 0x20 DUP2 ADD SWAP1 POP SWAP2 SWAP1 POP JUMP JUMPDEST DUP3 DUP2 DUP4 CALLDATACOPY PUSH0 DUP4 DUP4 ADD MSTORE POP POP POP JUMP JUMPDEST PUSH0 PUSH2 0x94D PUSH2 0x948 DUP5 PUSH2 0x8FD JUMP JUMPDEST PUSH2 0x8E3 JUMP JUMPDEST SWAP1 POP DUP3 DUP2 MSTORE PUSH1 0x20 DUP2 ADD DUP5 DUP5 DUP5 ADD GT ISZERO PUSH2 0x969 JUMPI PUSH2 0x968 PUSH2 0x881 JUMP JUMPDEST JUMPDEST PUSH2 0x974 DUP5 DUP3 DUP6 PUSH2 0x92D JUMP JUMPDEST POP SWAP4 SWAP3 POP POP POP JUMP JUMPDEST PUSH0 DUP3 PUSH1 0x1F DUP4 ADD SLT PUSH2 0x990 JUMPI PUSH2 0x98F PUSH2 0x87D JUMP JUMPDEST JUMPDEST DUP2 CALLDATALOAD PUSH2 0x9A0 DUP5 DUP3 PUSH1 0x20 DUP7 ADD PUSH2 0x93B JUMP JUMPDEST SWAP2 POP POP SWAP3 SWAP2 POP POP JUMP JUMPDEST PUSH0 PUSH1 0x20 DUP3 DUP5 SUB SLT ISZERO PUSH2 0x9BE JUMPI PUSH2 0x9BD PUSH2 0x5DB JUMP JUMPDEST JUMPDEST PUSH0 DUP3 ADD CALLDATALOAD PUSH8 0xFFFFFFFFFFFFFFFF DUP2 GT ISZERO PUSH2 0x9DB JUMPI PUSH2 0x9DA PUSH2 0x5DF JUMP JUMPDEST JUMPDEST PUSH2 0x9E7 DUP5 DUP3 DUP6 ADD PUSH2 0x97C JUMP JUMPDEST SWAP2 POP POP SWAP3 SWAP2 POP POP JUMP JUMPDEST PUSH32 0x4E487B7100000000000000000000000000000000000000000000000000000000 PUSH0 MSTORE PUSH1 0x22 PUSH1 0x4 MSTORE PUSH1 0x24 PUSH0 REVERT JUMPDEST PUSH0 PUSH1 0x2 DUP3 DIV SWAP1 POP PUSH1 0x1 DUP3 AND DUP1 PUSH2 0xA34 JUMPI PUSH1 0x7F DUP3 AND SWAP2 POP JUMPDEST PUSH1 0x20 DUP3 LT DUP2 SUB PUSH2 0xA47 JUMPI PUSH2 0xA46 PUSH2 0x9F0 JUMP JUMPDEST JUMPDEST POP SWAP2 SWAP1 POP JUMP JUMPDEST PUSH0 PUSH1 0x40 DUP3 ADD SWAP1 POP PUSH2 0xA60 PUSH0 DUP4 ADD DUP6 PUSH2 0x732 JUMP JUMPDEST PUSH2 0xA6D PUSH1 0x20 DUP4 ADD DUP5 PUSH2 0x6DA JUMP JUMPDEST SWAP4 SWAP3 POP POP POP JUMP JUMPDEST PUSH0 DUP2 ISZERO ISZERO SWAP1 POP SWAP2 SWAP1 POP JUMP JUMPDEST PUSH2 0xA88 DUP2 PUSH2 0xA74 JUMP JUMPDEST DUP2 EQ PUSH2 0xA92 JUMPI PUSH0 DUP1 REVERT JUMPDEST POP JUMP JUMPDEST PUSH0 DUP2 MLOAD SWAP1 POP PUSH2 0xAA3 DUP2 PUSH2 0xA7F JUMP JUMPDEST SWAP3 SWAP2 POP POP JUMP JUMPDEST PUSH0 PUSH1 0x20 DUP3 DUP5 SUB SLT ISZERO PUSH2 0xABE JUMPI PUSH2 0xABD PUSH2 0x5DB JUMP JUMPDEST JUMPDEST PUSH0 PUSH2 0xACB DUP5 DUP3 DUP6 ADD PUSH2 0xA95 JUMP JUMPDEST SWAP2 POP POP SWAP3 SWAP2 POP POP JUMP JUMPDEST PUSH32 0x6F6E6C79207468652061646D696E732063616E2061646420726567696F6E7300 PUSH0 DUP3 ADD MSTORE POP JUMP JUMPDEST PUSH0 PUSH2 0xB08 PUSH1 0x1F DUP4 PUSH2 0x64B JUMP JUMPDEST SWAP2 POP PUSH2 0xB13 DUP3 PUSH2 0xAD4 JUMP JUMPDEST PUSH1 0x20 DUP3 ADD SWAP1 POP SWAP2 SWAP1 POP JUMP JUMPDEST PUSH0 PUSH1 0x20 DUP3 ADD SWAP1 POP DUP2 DUP2 SUB PUSH0 DUP4 ADD MSTORE PUSH2 0xB35 DUP2 PUSH2 0xAFC JUMP JUMPDEST SWAP1 POP SWAP2 SWAP1 POP JUMP JUMPDEST PUSH32 0x4E487B7100000000000000000000000000000000000000000000000000000000 PUSH0 MSTORE PUSH1 0x32 PUSH1 0x4 MSTORE PUSH1 0x24 PUSH0 REVERT JUMPDEST PUSH0 DUP2 SWAP1 POP SWAP3 SWAP2 POP POP JUMP JUMPDEST PUSH0 DUP2 SWAP1 POP DUP2 PUSH0 MSTORE PUSH1 0x20 PUSH0 KECCAK256 SWAP1 POP SWAP2 SWAP1 POP JUMP JUMPDEST PUSH0 DUP2 SLOAD PUSH2 0xB91 DUP2 PUSH2 0xA1D JUMP JUMPDEST PUSH2 0xB9B DUP2 DUP7 PUSH2 0xB69 JUMP JUMPDEST SWAP5 POP PUSH1 0x1 DUP3 AND PUSH0 DUP2 EQ PUSH2 0xBB5 JUMPI PUSH1 0x1 DUP2 EQ PUSH2 0xBCA JUMPI PUSH2 0xBFC JUMP JUMPDEST PUSH1 0xFF NOT DUP4 AND DUP7 MSTORE DUP2 ISZERO ISZERO DUP3 MUL DUP7 ADD SWAP4 POP PUSH2 0xBFC JUMP JUMPDEST PUSH2 0xBD3 DUP6 PUSH2 0xB73 JUMP JUMPDEST PUSH0 JUMPDEST DUP4 DUP2 LT ISZERO PUSH2 0xBF4 JUMPI DUP2 SLOAD DUP2 DUP10 ADD MSTORE PUSH1 0x1 DUP3 ADD SWAP2 POP PUSH1 0x20 DUP2 ADD SWAP1 POP PUSH2 0xBD5 JUMP JUMPDEST DUP4 DUP9 ADD SWAP6 POP POP POP JUMPDEST POP POP POP SWAP3 SWAP2 POP POP JUMP JUMPDEST PUSH0 PUSH2 0xC10 DUP3 DUP5 PUSH2 0xB85 JUMP JUMPDEST SWAP2 POP DUP2 SWAP1 POP SWAP3 SWAP2 POP POP JUMP JUMPDEST PUSH32 0x74686520726567696F6E2069732061206475706C696361746500000000000000 PUSH0 DUP3 ADD MSTORE POP JUMP JUMPDEST PUSH0 PUSH2 0xC4F PUSH1 0x19 DUP4 PUSH2 0x64B JUMP JUMPDEST SWAP2 POP PUSH2 0xC5A DUP3 PUSH2 0xC1B JUMP JUMPDEST PUSH1 0x20 DUP3 ADD SWAP1 POP SWAP2 SWAP1 POP JUMP JUMPDEST PUSH0 PUSH1 0x20 DUP3 ADD SWAP1 POP DUP2 DUP2 SUB PUSH0 DUP4 ADD MSTORE PUSH2 0xC7C DUP2 PUSH2 0xC43 JUMP JUMPDEST SWAP1 POP SWAP2 SWAP1 POP JUMP JUMPDEST PUSH0 DUP2 SWAP1 POP DUP2 PUSH0 MSTORE PUSH1 0x20 PUSH0 KECCAK256 SWAP1 POP SWAP2 SWAP1 POP JUMP JUMPDEST PUSH0 PUSH1 0x20 PUSH1 0x1F DUP4 ADD DIV SWAP1 POP SWAP2 SWAP1 POP JUMP JUMPDEST PUSH0 DUP3 DUP3 SHL SWAP1 POP SWAP3 SWAP2 POP POP JUMP JUMPDEST PUSH0 PUSH1 0x8 DUP4 MUL PUSH2 0xCDF PUSH32 0xFFFFFFFFFFFFFFFFFFFFFFFFFFFFFFFFFFFFFFFFFFFFFFFFFFFFFFFFFFFFFFFF DUP3 PUSH2 0xCA4 JUMP JUMPDEST PUSH2 0xCE9 DUP7 DUP4 PUSH2 0xCA4 JUMP JUMPDEST SWAP6 POP DUP1 NOT DUP5 AND SWAP4 POP DUP1 DUP7 AND DUP5 OR SWAP3 POP POP POP SWAP4 SWAP3 POP POP POP JUMP JUMPDEST PUSH0 DUP2 SWAP1 POP SWAP2 SWAP1 POP JUMP JUMPDEST PUSH0 PUSH2 0xD24 PUSH2 0xD1F PUSH2 0xD1A DUP5 PUSH2 0x5E3 JUMP JUMPDEST PUSH2 0xD01 JUMP JUMPDEST PUSH2 0x5E3 JUMP JUMPDEST SWAP1 POP SWAP2 SWAP1 POP JUMP JUMPDEST PUSH0 DUP2 SWAP1 POP SWAP2 SWAP1 POP JUMP JUMPDEST PUSH2 0xD3D DUP4 PUSH2 0xD0A JUMP JUMPDEST PUSH2 0xD51 PUSH2 0xD49 DUP3 PUSH2 0xD2B JUMP JUMPDEST DUP5 DUP5 SLOAD PUSH2 0xCB0 JUMP JUMPDEST DUP3 SSTORE POP POP POP POP JUMP JUMPDEST PUSH0 SWAP1 JUMP JUMPDEST PUSH2 0xD65 PUSH2 0xD59 JUMP JUMPDEST PUSH2 0xD70 DUP2 DUP5 DUP5 PUSH2 0xD34 JUMP JUMPDEST POP POP POP JUMP JUMPDEST JUMPDEST DUP2 DUP2 LT ISZERO PUSH2 0xD93 JUMPI PUSH2 0xD88 PUSH0 DUP3 PUSH2 0xD5D JUMP JUMPDEST PUSH1 0x1 DUP2 ADD SWAP1 POP PUSH2 0xD76 JUMP JUMPDEST POP POP JUMP JUMPDEST PUSH1 0x1F DUP3 GT ISZERO PUSH2 0xDD8 JUMPI PUSH2 0xDA9 DUP2 PUSH2 0xC83 JUMP JUMPDEST PUSH2 0xDB2 DUP5 PUSH2 0xC95 JUMP JUMPDEST DUP2 ADD PUSH1 0x20 DUP6 LT ISZERO PUSH2 0xDC1 JUMPI DUP2 SWAP1 POP JUMPDEST PUSH2 0xDD5 PUSH2 0xDCD DUP6 PUSH2 0xC95 JUMP JUMPDEST DUP4 ADD DUP3 PUSH2 0xD75 JUMP JUMPDEST POP POP JUMPDEST POP POP POP JUMP JUMPDEST PUSH0 DUP3 DUP3 SHR SWAP1 POP SWAP3 SWAP2 POP POP JUMP JUMPDEST PUSH0 PUSH2 0xDF8 PUSH0 NOT DUP5 PUSH1 0x8 MUL PUSH2 0xDDD JUMP JUMPDEST NOT DUP1 DUP4 AND SWAP2 POP POP SWAP3 SWAP2 POP POP JUMP JUMPDEST PUSH0 PUSH2 0xE10 DUP4 DUP4 PUSH2 0xDE9 JUMP JUMPDEST SWAP2 POP DUP3 PUSH1 0x2 MUL DUP3 OR SWAP1 POP SWAP3 SWAP2 POP POP JUMP JUMPDEST PUSH2 0xE29 DUP3 PUSH2 0x641 JUMP JUMPDEST PUSH8 0xFFFFFFFFFFFFFFFF DUP2 GT ISZERO PUSH2 0xE42 JUMPI PUSH2 0xE41 PUSH2 0x885 JUMP JUMPDEST JUMPDEST PUSH2 0xE4C DUP3 SLOAD PUSH2 0xA1D JUMP JUMPDEST PUSH2 0xE57 DUP3 DUP3 DUP6 PUSH2 0xD97 JUMP JUMPDEST PUSH0 PUSH1 0x20 SWAP1 POP PUSH1 0x1F DUP4 GT PUSH1 0x1 DUP2 EQ PUSH2 0xE88 JUMPI PUSH0 DUP5 ISZERO PUSH2 0xE76 JUMPI DUP3 DUP8 ADD MLOAD SWAP1 POP JUMPDEST PUSH2 0xE80 DUP6 DUP3 PUSH2 0xE05 JUMP JUMPDEST DUP7 SSTORE POP PUSH2 0xEE7 JUMP JUMPDEST PUSH1 0x1F NOT DUP5 AND PUSH2 0xE96 DUP7 PUSH2 0xC83 JUMP JUMPDEST PUSH0 JUMPDEST DUP3 DUP2 LT ISZERO PUSH2 0xEBD JUMPI DUP5 DUP10 ADD MLOAD DUP3 SSTORE PUSH1 0x1 DUP3 ADD SWAP2 POP PUSH1 0x20 DUP6 ADD SWAP5 POP PUSH1 0x20 DUP2 ADD SWAP1 POP PUSH2 0xE98 JUMP JUMPDEST DUP7 DUP4 LT ISZERO PUSH2 0xEDA JUMPI DUP5 DUP10 ADD MLOAD PUSH2 0xED6 PUSH1 0x1F DUP10 AND DUP3 PUSH2 0xDE9 JUMP JUMPDEST DUP4 SSTORE POP JUMPDEST PUSH1 0x1 PUSH1 0x2 DUP9 MUL ADD DUP9 SSTORE POP POP POP JUMPDEST POP POP POP POP POP POP JUMP INVALID LOG2 PUSH5 0x6970667358 0x22 SLT KECCAK256 0x4F 0xE5 SWAP11 SWAP7 SWAP8 LT PUSH15 0x4C3D4C877DA1A068CDAA30D54FEA86 DUP16 0xB8 0x24 SIGNEXTEND PUSH26 0x77A2D3D9CA64736F6C6343000819003300000000000000000000 "
				},
				"gasEstimates": {
					"creation": {
						"codeDepositCost": "775400",
						"executionCost": "infinite",
						"totalCost": "infinite"
					},
					"external": {
						"ADMIN()": "348",
						"CANDIDATE()": "369",
						"DEPLOYER()": "347",
						"USER()": "370",
						"addRegions(string)": "infinite",
						"contractAddress()": "2596",
						"getRegions()": "infinite",
						"owner()": "2575",
						"votingRegions(uint256)": "infinite"
					}
				},
				"methodIdentifiers": {
					"ADMIN()": "2a0acc6a",
					"CANDIDATE()": "cb26765f",
					"DEPLOYER()": "c1b8411a",
					"USER()": "81e167cf",
					"addRegions(string)": "efd077d1",
					"contractAddress()": "f6b4dfb4",
					"getRegions()": "b71b9dab",
					"owner()": "8da5cb5b",
					"votingRegions(uint256)": "1bb42ab4"
				}
			},
			"storageLayout": {
				"storage": [
					{
						"astId": 14,
						"contract": "contracts/VotingRegions.sol:VotingRegions",
						"label": "votingRegions",
						"offset": 0,
						"slot": "0",
						"type": "t_array(t_string_storage)dyn_storage"
					},
					{
						"astId": 16,
						"contract": "contracts/VotingRegions.sol:VotingRegions",
						"label": "owner",
						"offset": 0,
						"slot": "1",
						"type": "t_address"
					},
					{
						"astId": 38,
						"contract": "contracts/VotingRegions.sol:VotingRegions",
						"label": "contractAddress",
						"offset": 0,
						"slot": "2",
						"type": "t_address"
					}
				],
				"types": {
					"t_address": {
						"encoding": "inplace",
						"label": "address",
						"numberOfBytes": "20"
					},
					"t_array(t_string_storage)dyn_storage": {
						"base": "t_string_storage",
						"encoding": "dynamic_array",
						"label": "string[]",
						"numberOfBytes": "32"
					},
					"t_string_storage": {
						"encoding": "bytes",
						"label": "string",
						"numberOfBytes": "32"
					}
				}
			},
			"userdoc": {
				"kind": "user",
				"methods": {},
				"version": 1
			}
		}
	}
}