{
	"contracts/StringUtils.sol": {
		"StringUtils": {
			"abi": [
				{
					"inputs": [
						{
							"internalType": "bytes32",
							"name": "v",
							"type": "bytes32"
						}
					],
					"name": "bytesToUInt",
					"outputs": [
						{
							"internalType": "uint256",
							"name": "ret",
							"type": "uint256"
						}
					],
					"stateMutability": "pure",
					"type": "function"
				},
				{
					"inputs": [
						{
							"internalType": "string",
							"name": "_src",
							"type": "string"
						}
					],
					"name": "stringToBytes32",
					"outputs": [
						{
							"internalType": "bytes32",
							"name": "",
							"type": "bytes32"
						}
					],
					"stateMutability": "pure",
					"type": "function"
				},
				{
					"inputs": [
						{
							"internalType": "uint256",
							"name": "v",
							"type": "uint256"
						}
					],
					"name": "uintToBytes",
					"outputs": [
						{
							"internalType": "bytes32",
							"name": "ret",
							"type": "bytes32"
						}
					],
					"stateMutability": "pure",
					"type": "function"
				}
			],
			"devdoc": {
				"author": "Piper Merriam - <pipermerriam@gmail.com>",
				"kind": "dev",
				"methods": {
					"bytesToUInt(bytes32)": {
						"details": "Converts a numeric string to it's unsigned integer representation.",
						"params": {
							"v": "The string to be converted."
						}
					},
					"uintToBytes(uint256)": {
						"details": "Converts an unsigned integert to its string representation.",
						"params": {
							"v": "The number to be converted."
						}
					}
				},
				"title": "String Utils - String utility functions",
				"version": 1
			},
			"evm": {
				"assembly": "    /* \"contracts/StringUtils.sol\":1774:2420  library StringUtils {... */\n  dataSize(sub_0)\n  dataOffset(sub_0)\n  0x0b\n  dup3\n  dup3\n  dup3\n  codecopy\n  dup1\n  mload\n  0x00\n  byte\n  0x73\n  eq\n  tag_1\n  jumpi\n  mstore(0x00, 0x4e487b7100000000000000000000000000000000000000000000000000000000)\n  mstore(0x04, 0x00)\n  revert(0x00, 0x24)\ntag_1:\n  mstore(0x00, address)\n  0x73\n  dup2\n  mstore8\n  dup3\n  dup2\n  return\nstop\n\nsub_0: assembly {\n        /* \"contracts/StringUtils.sol\":1774:2420  library StringUtils {... */\n      eq(address, deployTimeAddress())\n      mstore(0x40, 0x80)\n      jumpi(tag_1, lt(calldatasize, 0x04))\n      shr(0xe0, calldataload(0x00))\n      dup1\n      0x81a33a6f\n      eq\n      tag_2\n      jumpi\n      dup1\n      0x94e8767d\n      eq\n      tag_3\n      jumpi\n      dup1\n      0xcfb51928\n      eq\n      tag_4\n      jumpi\n    tag_1:\n      0x00\n      dup1\n      revert\n        /* \"contracts/StringUtils.sol\":2167:2278  function bytesToUInt(bytes32 v) public pure returns (uint ret) {... */\n    tag_2:\n      tag_5\n      0x04\n      dup1\n      calldatasize\n      sub\n      dup2\n      add\n      swap1\n      tag_6\n      swap2\n      swap1\n      tag_7\n      jump\t// in\n    tag_6:\n      tag_8\n      jump\t// in\n    tag_5:\n      mload(0x40)\n      tag_9\n      swap2\n      swap1\n      tag_10\n      jump\t// in\n    tag_9:\n      mload(0x40)\n      dup1\n      swap2\n      sub\n      swap1\n      return\n        /* \"contracts/StringUtils.sol\":1921:2032  function uintToBytes(uint v) public pure returns (bytes32 ret) {... */\n    tag_3:\n      tag_11\n      0x04\n      dup1\n      calldatasize\n      sub\n      dup2\n      add\n      swap1\n      tag_12\n      swap2\n      swap1\n      tag_13\n      jump\t// in\n    tag_12:\n      tag_14\n      jump\t// in\n    tag_11:\n      mload(0x40)\n      tag_15\n      swap2\n      swap1\n      tag_16\n      jump\t// in\n    tag_15:\n      mload(0x40)\n      dup1\n      swap2\n      sub\n      swap1\n      return\n        /* \"contracts/StringUtils.sol\":2286:2417  function stringToBytes32(string memory _src)  public pure returns (bytes32) {... */\n    tag_4:\n      tag_17\n      0x04\n      dup1\n      calldatasize\n      sub\n      dup2\n      add\n      swap1\n      tag_18\n      swap2\n      swap1\n      tag_19\n      jump\t// in\n    tag_18:\n      tag_20\n      jump\t// in\n    tag_17:\n      mload(0x40)\n      tag_21\n      swap2\n      swap1\n      tag_16\n      jump\t// in\n    tag_21:\n      mload(0x40)\n      dup1\n      swap2\n      sub\n      swap1\n      return\n        /* \"contracts/StringUtils.sol\":2167:2278  function bytesToUInt(bytes32 v) public pure returns (uint ret) {... */\n    tag_8:\n        /* \"contracts/StringUtils.sol\":2220:2228  uint ret */\n      0x00\n        /* \"contracts/StringUtils.sol\":2246:2255  StringLib */\n      linkerSymbol(\"a1a28301a0c3a1a0a3f7b8f1e53fe40bd9ce601c879895fdb28f09acc46d6fed\")\n        /* \"contracts/StringUtils.sol\":2246:2267  StringLib.bytesToUInt */\n      0x81a33a6f\n        /* \"contracts/StringUtils.sol\":2268:2269  v */\n      dup4\n        /* \"contracts/StringUtils.sol\":2246:2270  StringLib.bytesToUInt(v) */\n      mload(0x40)\n      dup3\n      0xffffffff\n      and\n      0xe0\n      shl\n      dup2\n      mstore\n      0x04\n      add\n      tag_23\n      swap2\n      swap1\n      tag_16\n      jump\t// in\n    tag_23:\n      0x20\n      mload(0x40)\n      dup1\n      dup4\n      sub\n      dup2\n      dup7\n      gas\n      delegatecall\n      iszero\n      dup1\n      iszero\n      tag_25\n      jumpi\n      returndatasize\n      0x00\n      dup1\n      returndatacopy\n      revert(0x00, returndatasize)\n    tag_25:\n      pop\n      pop\n      pop\n      pop\n      mload(0x40)\n      returndatasize\n      not(0x1f)\n      0x1f\n      dup3\n      add\n      and\n      dup3\n      add\n      dup1\n      0x40\n      mstore\n      pop\n      dup2\n      add\n      swap1\n      tag_26\n      swap2\n      swap1\n      tag_27\n      jump\t// in\n    tag_26:\n        /* \"contracts/StringUtils.sol\":2239:2270  return StringLib.bytesToUInt(v) */\n      swap1\n      pop\n        /* \"contracts/StringUtils.sol\":2167:2278  function bytesToUInt(bytes32 v) public pure returns (uint ret) {... */\n      swap2\n      swap1\n      pop\n      jump\t// out\n        /* \"contracts/StringUtils.sol\":1921:2032  function uintToBytes(uint v) public pure returns (bytes32 ret) {... */\n    tag_14:\n        /* \"contracts/StringUtils.sol\":1971:1982  bytes32 ret */\n      0x00\n        /* \"contracts/StringUtils.sol\":2000:2009  StringLib */\n      linkerSymbol(\"a1a28301a0c3a1a0a3f7b8f1e53fe40bd9ce601c879895fdb28f09acc46d6fed\")\n        /* \"contracts/StringUtils.sol\":2000:2021  StringLib.uintToBytes */\n      0x94e8767d\n        /* \"contracts/StringUtils.sol\":2022:2023  v */\n      dup4\n        /* \"contracts/StringUtils.sol\":2000:2024  StringLib.uintToBytes(v) */\n      mload(0x40)\n      dup3\n      0xffffffff\n      and\n      0xe0\n      shl\n      dup2\n      mstore\n      0x04\n      add\n      tag_29\n      swap2\n      swap1\n      tag_10\n      jump\t// in\n    tag_29:\n      0x20\n      mload(0x40)\n      dup1\n      dup4\n      sub\n      dup2\n      dup7\n      gas\n      delegatecall\n      iszero\n      dup1\n      iszero\n      tag_31\n      jumpi\n      returndatasize\n      0x00\n      dup1\n      returndatacopy\n      revert(0x00, returndatasize)\n    tag_31:\n      pop\n      pop\n      pop\n      pop\n      mload(0x40)\n      returndatasize\n      not(0x1f)\n      0x1f\n      dup3\n      add\n      and\n      dup3\n      add\n      dup1\n      0x40\n      mstore\n      pop\n      dup2\n      add\n      swap1\n      tag_32\n      swap2\n      swap1\n      tag_33\n      jump\t// in\n    tag_32:\n        /* \"contracts/StringUtils.sol\":1993:2024  return StringLib.uintToBytes(v) */\n      swap1\n      pop\n        /* \"contracts/StringUtils.sol\":1921:2032  function uintToBytes(uint v) public pure returns (bytes32 ret) {... */\n      swap2\n      swap1\n      pop\n      jump\t// out\n        /* \"contracts/StringUtils.sol\":2286:2417  function stringToBytes32(string memory _src)  public pure returns (bytes32) {... */\n    tag_20:\n        /* \"contracts/StringUtils.sol\":2353:2360  bytes32 */\n      0x00\n        /* \"contracts/StringUtils.sol\":2378:2387  StringLib */\n      linkerSymbol(\"a1a28301a0c3a1a0a3f7b8f1e53fe40bd9ce601c879895fdb28f09acc46d6fed\")\n        /* \"contracts/StringUtils.sol\":2378:2403  StringLib.stringToBytes32 */\n      0xcfb51928\n        /* \"contracts/StringUtils.sol\":2404:2408  _src */\n      dup4\n        /* \"contracts/StringUtils.sol\":2378:2409  StringLib.stringToBytes32(_src) */\n      mload(0x40)\n      dup3\n      0xffffffff\n      and\n      0xe0\n      shl\n      dup2\n      mstore\n      0x04\n      add\n      tag_35\n      swap2\n      swap1\n      tag_36\n      jump\t// in\n    tag_35:\n      0x20\n      mload(0x40)\n      dup1\n      dup4\n      sub\n      dup2\n      dup7\n      gas\n      delegatecall\n      iszero\n      dup1\n      iszero\n      tag_38\n      jumpi\n      returndatasize\n      0x00\n      dup1\n      returndatacopy\n      revert(0x00, returndatasize)\n    tag_38:\n      pop\n      pop\n      pop\n      pop\n      mload(0x40)\n      returndatasize\n      not(0x1f)\n      0x1f\n      dup3\n      add\n      and\n      dup3\n      add\n      dup1\n      0x40\n      mstore\n      pop\n      dup2\n      add\n      swap1\n      tag_39\n      swap2\n      swap1\n      tag_33\n      jump\t// in\n    tag_39:\n        /* \"contracts/StringUtils.sol\":2371:2409  return StringLib.stringToBytes32(_src) */\n      swap1\n      pop\n        /* \"contracts/StringUtils.sol\":2286:2417  function stringToBytes32(string memory _src)  public pure returns (bytes32) {... */\n      swap2\n      swap1\n      pop\n      jump\t// out\n        /* \"#utility.yul\":7:82   */\n    tag_40:\n        /* \"#utility.yul\":40:46   */\n      0x00\n        /* \"#utility.yul\":73:75   */\n      0x40\n        /* \"#utility.yul\":67:76   */\n      mload\n        /* \"#utility.yul\":57:76   */\n      swap1\n      pop\n        /* \"#utility.yul\":7:82   */\n      swap1\n      jump\t// out\n        /* \"#utility.yul\":88:205   */\n    tag_41:\n        /* \"#utility.yul\":197:198   */\n      0x00\n        /* \"#utility.yul\":194:195   */\n      dup1\n        /* \"#utility.yul\":187:199   */\n      revert\n        /* \"#utility.yul\":211:328   */\n    tag_42:\n        /* \"#utility.yul\":320:321   */\n      0x00\n        /* \"#utility.yul\":317:318   */\n      dup1\n        /* \"#utility.yul\":310:322   */\n      revert\n        /* \"#utility.yul\":334:411   */\n    tag_43:\n        /* \"#utility.yul\":371:378   */\n      0x00\n        /* \"#utility.yul\":400:405   */\n      dup2\n        /* \"#utility.yul\":389:405   */\n      swap1\n      pop\n        /* \"#utility.yul\":334:411   */\n      swap2\n      swap1\n      pop\n      jump\t// out\n        /* \"#utility.yul\":417:539   */\n    tag_44:\n        /* \"#utility.yul\":490:514   */\n      tag_73\n        /* \"#utility.yul\":508:513   */\n      dup2\n        /* \"#utility.yul\":490:514   */\n      tag_43\n      jump\t// in\n    tag_73:\n        /* \"#utility.yul\":483:488   */\n      dup2\n        /* \"#utility.yul\":480:515   */\n      eq\n        /* \"#utility.yul\":470:533   */\n      tag_74\n      jumpi\n        /* \"#utility.yul\":529:530   */\n      0x00\n        /* \"#utility.yul\":526:527   */\n      dup1\n        /* \"#utility.yul\":519:531   */\n      revert\n        /* \"#utility.yul\":470:533   */\n    tag_74:\n        /* \"#utility.yul\":417:539   */\n      pop\n      jump\t// out\n        /* \"#utility.yul\":545:684   */\n    tag_45:\n        /* \"#utility.yul\":591:596   */\n      0x00\n        /* \"#utility.yul\":629:635   */\n      dup2\n        /* \"#utility.yul\":616:636   */\n      calldataload\n        /* \"#utility.yul\":607:636   */\n      swap1\n      pop\n        /* \"#utility.yul\":645:678   */\n      tag_76\n        /* \"#utility.yul\":672:677   */\n      dup2\n        /* \"#utility.yul\":645:678   */\n      tag_44\n      jump\t// in\n    tag_76:\n        /* \"#utility.yul\":545:684   */\n      swap3\n      swap2\n      pop\n      pop\n      jump\t// out\n        /* \"#utility.yul\":690:1019   */\n    tag_7:\n        /* \"#utility.yul\":749:755   */\n      0x00\n        /* \"#utility.yul\":798:800   */\n      0x20\n        /* \"#utility.yul\":786:795   */\n      dup3\n        /* \"#utility.yul\":777:784   */\n      dup5\n        /* \"#utility.yul\":773:796   */\n      sub\n        /* \"#utility.yul\":769:801   */\n      slt\n        /* \"#utility.yul\":766:885   */\n      iszero\n      tag_78\n      jumpi\n        /* \"#utility.yul\":804:883   */\n      tag_79\n      tag_41\n      jump\t// in\n    tag_79:\n        /* \"#utility.yul\":766:885   */\n    tag_78:\n        /* \"#utility.yul\":924:925   */\n      0x00\n        /* \"#utility.yul\":949:1002   */\n      tag_80\n        /* \"#utility.yul\":994:1001   */\n      dup5\n        /* \"#utility.yul\":985:991   */\n      dup3\n        /* \"#utility.yul\":974:983   */\n      dup6\n        /* \"#utility.yul\":970:992   */\n      add\n        /* \"#utility.yul\":949:1002   */\n      tag_45\n      jump\t// in\n    tag_80:\n        /* \"#utility.yul\":939:1002   */\n      swap2\n      pop\n        /* \"#utility.yul\":895:1012   */\n      pop\n        /* \"#utility.yul\":690:1019   */\n      swap3\n      swap2\n      pop\n      pop\n      jump\t// out\n        /* \"#utility.yul\":1025:1102   */\n    tag_46:\n        /* \"#utility.yul\":1062:1069   */\n      0x00\n        /* \"#utility.yul\":1091:1096   */\n      dup2\n        /* \"#utility.yul\":1080:1096   */\n      swap1\n      pop\n        /* \"#utility.yul\":1025:1102   */\n      swap2\n      swap1\n      pop\n      jump\t// out\n        /* \"#utility.yul\":1108:1234   */\n    tag_47:\n        /* \"#utility.yul\":1203:1227   */\n      tag_83\n        /* \"#utility.yul\":1221:1226   */\n      dup2\n        /* \"#utility.yul\":1203:1227   */\n      tag_46\n      jump\t// in\n    tag_83:\n        /* \"#utility.yul\":1198:1201   */\n      dup3\n        /* \"#utility.yul\":1191:1228   */\n      mstore\n        /* \"#utility.yul\":1108:1234   */\n      pop\n      pop\n      jump\t// out\n        /* \"#utility.yul\":1240:1478   */\n    tag_10:\n        /* \"#utility.yul\":1341:1345   */\n      0x00\n        /* \"#utility.yul\":1379:1381   */\n      0x20\n        /* \"#utility.yul\":1368:1377   */\n      dup3\n        /* \"#utility.yul\":1364:1382   */\n      add\n        /* \"#utility.yul\":1356:1382   */\n      swap1\n      pop\n        /* \"#utility.yul\":1392:1471   */\n      tag_85\n        /* \"#utility.yul\":1468:1469   */\n      0x00\n        /* \"#utility.yul\":1457:1466   */\n      dup4\n        /* \"#utility.yul\":1453:1470   */\n      add\n        /* \"#utility.yul\":1444:1450   */\n      dup5\n        /* \"#utility.yul\":1392:1471   */\n      tag_47\n      jump\t// in\n    tag_85:\n        /* \"#utility.yul\":1240:1478   */\n      swap3\n      swap2\n      pop\n      pop\n      jump\t// out\n        /* \"#utility.yul\":1484:1606   */\n    tag_48:\n        /* \"#utility.yul\":1557:1581   */\n      tag_87\n        /* \"#utility.yul\":1575:1580   */\n      dup2\n        /* \"#utility.yul\":1557:1581   */\n      tag_46\n      jump\t// in\n    tag_87:\n        /* \"#utility.yul\":1550:1555   */\n      dup2\n        /* \"#utility.yul\":1547:1582   */\n      eq\n        /* \"#utility.yul\":1537:1600   */\n      tag_88\n      jumpi\n        /* \"#utility.yul\":1596:1597   */\n      0x00\n        /* \"#utility.yul\":1593:1594   */\n      dup1\n        /* \"#utility.yul\":1586:1598   */\n      revert\n        /* \"#utility.yul\":1537:1600   */\n    tag_88:\n        /* \"#utility.yul\":1484:1606   */\n      pop\n      jump\t// out\n        /* \"#utility.yul\":1612:1751   */\n    tag_49:\n        /* \"#utility.yul\":1658:1663   */\n      0x00\n        /* \"#utility.yul\":1696:1702   */\n      dup2\n        /* \"#utility.yul\":1683:1703   */\n      calldataload\n        /* \"#utility.yul\":1674:1703   */\n      swap1\n      pop\n        /* \"#utility.yul\":1712:1745   */\n      tag_90\n        /* \"#utility.yul\":1739:1744   */\n      dup2\n        /* \"#utility.yul\":1712:1745   */\n      tag_48\n      jump\t// in\n    tag_90:\n        /* \"#utility.yul\":1612:1751   */\n      swap3\n      swap2\n      pop\n      pop\n      jump\t// out\n        /* \"#utility.yul\":1757:2086   */\n    tag_13:\n        /* \"#utility.yul\":1816:1822   */\n      0x00\n        /* \"#utility.yul\":1865:1867   */\n      0x20\n        /* \"#utility.yul\":1853:1862   */\n      dup3\n        /* \"#utility.yul\":1844:1851   */\n      dup5\n        /* \"#utility.yul\":1840:1863   */\n      sub\n        /* \"#utility.yul\":1836:1868   */\n      slt\n        /* \"#utility.yul\":1833:1952   */\n      iszero\n      tag_92\n      jumpi\n        /* \"#utility.yul\":1871:1950   */\n      tag_93\n      tag_41\n      jump\t// in\n    tag_93:\n        /* \"#utility.yul\":1833:1952   */\n    tag_92:\n        /* \"#utility.yul\":1991:1992   */\n      0x00\n        /* \"#utility.yul\":2016:2069   */\n      tag_94\n        /* \"#utility.yul\":2061:2068   */\n      dup5\n        /* \"#utility.yul\":2052:2058   */\n      dup3\n        /* \"#utility.yul\":2041:2050   */\n      dup6\n        /* \"#utility.yul\":2037:2059   */\n      add\n        /* \"#utility.yul\":2016:2069   */\n      tag_49\n      jump\t// in\n    tag_94:\n        /* \"#utility.yul\":2006:2069   */\n      swap2\n      pop\n        /* \"#utility.yul\":1962:2079   */\n      pop\n        /* \"#utility.yul\":1757:2086   */\n      swap3\n      swap2\n      pop\n      pop\n      jump\t// out\n        /* \"#utility.yul\":2092:2218   */\n    tag_50:\n        /* \"#utility.yul\":2187:2211   */\n      tag_96\n        /* \"#utility.yul\":2205:2210   */\n      dup2\n        /* \"#utility.yul\":2187:2211   */\n      tag_43\n      jump\t// in\n    tag_96:\n        /* \"#utility.yul\":2182:2185   */\n      dup3\n        /* \"#utility.yul\":2175:2212   */\n      mstore\n        /* \"#utility.yul\":2092:2218   */\n      pop\n      pop\n      jump\t// out\n        /* \"#utility.yul\":2224:2462   */\n    tag_16:\n        /* \"#utility.yul\":2325:2329   */\n      0x00\n        /* \"#utility.yul\":2363:2365   */\n      0x20\n        /* \"#utility.yul\":2352:2361   */\n      dup3\n        /* \"#utility.yul\":2348:2366   */\n      add\n        /* \"#utility.yul\":2340:2366   */\n      swap1\n      pop\n        /* \"#utility.yul\":2376:2455   */\n      tag_98\n        /* \"#utility.yul\":2452:2453   */\n      0x00\n        /* \"#utility.yul\":2441:2450   */\n      dup4\n        /* \"#utility.yul\":2437:2454   */\n      add\n        /* \"#utility.yul\":2428:2434   */\n      dup5\n        /* \"#utility.yul\":2376:2455   */\n      tag_50\n      jump\t// in\n    tag_98:\n        /* \"#utility.yul\":2224:2462   */\n      swap3\n      swap2\n      pop\n      pop\n      jump\t// out\n        /* \"#utility.yul\":2468:2585   */\n    tag_51:\n        /* \"#utility.yul\":2577:2578   */\n      0x00\n        /* \"#utility.yul\":2574:2575   */\n      dup1\n        /* \"#utility.yul\":2567:2579   */\n      revert\n        /* \"#utility.yul\":2591:2708   */\n    tag_52:\n        /* \"#utility.yul\":2700:2701   */\n      0x00\n        /* \"#utility.yul\":2697:2698   */\n      dup1\n        /* \"#utility.yul\":2690:2702   */\n      revert\n        /* \"#utility.yul\":2714:2816   */\n    tag_53:\n        /* \"#utility.yul\":2755:2761   */\n      0x00\n        /* \"#utility.yul\":2806:2808   */\n      0x1f\n        /* \"#utility.yul\":2802:2809   */\n      not\n        /* \"#utility.yul\":2797:2799   */\n      0x1f\n        /* \"#utility.yul\":2790:2795   */\n      dup4\n        /* \"#utility.yul\":2786:2800   */\n      add\n        /* \"#utility.yul\":2782:2810   */\n      and\n        /* \"#utility.yul\":2772:2810   */\n      swap1\n      pop\n        /* \"#utility.yul\":2714:2816   */\n      swap2\n      swap1\n      pop\n      jump\t// out\n        /* \"#utility.yul\":2822:3002   */\n    tag_54:\n        /* \"#utility.yul\":2870:2947   */\n      0x4e487b7100000000000000000000000000000000000000000000000000000000\n        /* \"#utility.yul\":2867:2868   */\n      0x00\n        /* \"#utility.yul\":2860:2948   */\n      mstore\n        /* \"#utility.yul\":2967:2971   */\n      0x41\n        /* \"#utility.yul\":2964:2965   */\n      0x04\n        /* \"#utility.yul\":2957:2972   */\n      mstore\n        /* \"#utility.yul\":2991:2995   */\n      0x24\n        /* \"#utility.yul\":2988:2989   */\n      0x00\n        /* \"#utility.yul\":2981:2996   */\n      revert\n        /* \"#utility.yul\":3008:3289   */\n    tag_55:\n        /* \"#utility.yul\":3091:3118   */\n      tag_104\n        /* \"#utility.yul\":3113:3117   */\n      dup3\n        /* \"#utility.yul\":3091:3118   */\n      tag_53\n      jump\t// in\n    tag_104:\n        /* \"#utility.yul\":3083:3089   */\n      dup2\n        /* \"#utility.yul\":3079:3119   */\n      add\n        /* \"#utility.yul\":3221:3227   */\n      dup2\n        /* \"#utility.yul\":3209:3219   */\n      dup2\n        /* \"#utility.yul\":3206:3228   */\n      lt\n        /* \"#utility.yul\":3185:3203   */\n      0xffffffffffffffff\n        /* \"#utility.yul\":3173:3183   */\n      dup3\n        /* \"#utility.yul\":3170:3204   */\n      gt\n        /* \"#utility.yul\":3167:3229   */\n      or\n        /* \"#utility.yul\":3164:3252   */\n      iszero\n      tag_105\n      jumpi\n        /* \"#utility.yul\":3232:3250   */\n      tag_106\n      tag_54\n      jump\t// in\n    tag_106:\n        /* \"#utility.yul\":3164:3252   */\n    tag_105:\n        /* \"#utility.yul\":3272:3282   */\n      dup1\n        /* \"#utility.yul\":3268:3270   */\n      0x40\n        /* \"#utility.yul\":3261:3283   */\n      mstore\n        /* \"#utility.yul\":3051:3289   */\n      pop\n        /* \"#utility.yul\":3008:3289   */\n      pop\n      pop\n      jump\t// out\n        /* \"#utility.yul\":3295:3424   */\n    tag_56:\n        /* \"#utility.yul\":3329:3335   */\n      0x00\n        /* \"#utility.yul\":3356:3376   */\n      tag_108\n      tag_40\n      jump\t// in\n    tag_108:\n        /* \"#utility.yul\":3346:3376   */\n      swap1\n      pop\n        /* \"#utility.yul\":3385:3418   */\n      tag_109\n        /* \"#utility.yul\":3413:3417   */\n      dup3\n        /* \"#utility.yul\":3405:3411   */\n      dup3\n        /* \"#utility.yul\":3385:3418   */\n      tag_55\n      jump\t// in\n    tag_109:\n        /* \"#utility.yul\":3295:3424   */\n      swap2\n      swap1\n      pop\n      jump\t// out\n        /* \"#utility.yul\":3430:3738   */\n    tag_57:\n        /* \"#utility.yul\":3492:3496   */\n      0x00\n        /* \"#utility.yul\":3582:3600   */\n      0xffffffffffffffff\n        /* \"#utility.yul\":3574:3580   */\n      dup3\n        /* \"#utility.yul\":3571:3601   */\n      gt\n        /* \"#utility.yul\":3568:3624   */\n      iszero\n      tag_111\n      jumpi\n        /* \"#utility.yul\":3604:3622   */\n      tag_112\n      tag_54\n      jump\t// in\n    tag_112:\n        /* \"#utility.yul\":3568:3624   */\n    tag_111:\n        /* \"#utility.yul\":3642:3671   */\n      tag_113\n        /* \"#utility.yul\":3664:3670   */\n      dup3\n        /* \"#utility.yul\":3642:3671   */\n      tag_53\n      jump\t// in\n    tag_113:\n        /* \"#utility.yul\":3634:3671   */\n      swap1\n      pop\n        /* \"#utility.yul\":3726:3730   */\n      0x20\n        /* \"#utility.yul\":3720:3724   */\n      dup2\n        /* \"#utility.yul\":3716:3731   */\n      add\n        /* \"#utility.yul\":3708:3731   */\n      swap1\n      pop\n        /* \"#utility.yul\":3430:3738   */\n      swap2\n      swap1\n      pop\n      jump\t// out\n        /* \"#utility.yul\":3744:3892   */\n    tag_58:\n        /* \"#utility.yul\":3842:3848   */\n      dup3\n        /* \"#utility.yul\":3837:3840   */\n      dup2\n        /* \"#utility.yul\":3832:3835   */\n      dup4\n        /* \"#utility.yul\":3819:3849   */\n      calldatacopy\n        /* \"#utility.yul\":3883:3884   */\n      0x00\n        /* \"#utility.yul\":3874:3880   */\n      dup4\n        /* \"#utility.yul\":3869:3872   */\n      dup4\n        /* \"#utility.yul\":3865:3881   */\n      add\n        /* \"#utility.yul\":3858:3885   */\n      mstore\n        /* \"#utility.yul\":3744:3892   */\n      pop\n      pop\n      pop\n      jump\t// out\n        /* \"#utility.yul\":3898:4323   */\n    tag_59:\n        /* \"#utility.yul\":3976:3981   */\n      0x00\n        /* \"#utility.yul\":4001:4067   */\n      tag_116\n        /* \"#utility.yul\":4017:4066   */\n      tag_117\n        /* \"#utility.yul\":4059:4065   */\n      dup5\n        /* \"#utility.yul\":4017:4066   */\n      tag_57\n      jump\t// in\n    tag_117:\n        /* \"#utility.yul\":4001:4067   */\n      tag_56\n      jump\t// in\n    tag_116:\n        /* \"#utility.yul\":3992:4067   */\n      swap1\n      pop\n        /* \"#utility.yul\":4090:4096   */\n      dup3\n        /* \"#utility.yul\":4083:4088   */\n      dup2\n        /* \"#utility.yul\":4076:4097   */\n      mstore\n        /* \"#utility.yul\":4128:4132   */\n      0x20\n        /* \"#utility.yul\":4121:4126   */\n      dup2\n        /* \"#utility.yul\":4117:4133   */\n      add\n        /* \"#utility.yul\":4166:4169   */\n      dup5\n        /* \"#utility.yul\":4157:4163   */\n      dup5\n        /* \"#utility.yul\":4152:4155   */\n      dup5\n        /* \"#utility.yul\":4148:4164   */\n      add\n        /* \"#utility.yul\":4145:4170   */\n      gt\n        /* \"#utility.yul\":4142:4254   */\n      iszero\n      tag_118\n      jumpi\n        /* \"#utility.yul\":4173:4252   */\n      tag_119\n      tag_52\n      jump\t// in\n    tag_119:\n        /* \"#utility.yul\":4142:4254   */\n    tag_118:\n        /* \"#utility.yul\":4263:4317   */\n      tag_120\n        /* \"#utility.yul\":4310:4316   */\n      dup5\n        /* \"#utility.yul\":4305:4308   */\n      dup3\n        /* \"#utility.yul\":4300:4303   */\n      dup6\n        /* \"#utility.yul\":4263:4317   */\n      tag_58\n      jump\t// in\n    tag_120:\n        /* \"#utility.yul\":3982:4323   */\n      pop\n        /* \"#utility.yul\":3898:4323   */\n      swap4\n      swap3\n      pop\n      pop\n      pop\n      jump\t// out\n        /* \"#utility.yul\":4343:4683   */\n    tag_60:\n        /* \"#utility.yul\":4399:4404   */\n      0x00\n        /* \"#utility.yul\":4448:4451   */\n      dup3\n        /* \"#utility.yul\":4441:4445   */\n      0x1f\n        /* \"#utility.yul\":4433:4439   */\n      dup4\n        /* \"#utility.yul\":4429:4446   */\n      add\n        /* \"#utility.yul\":4425:4452   */\n      slt\n        /* \"#utility.yul\":4415:4537   */\n      tag_122\n      jumpi\n        /* \"#utility.yul\":4456:4535   */\n      tag_123\n      tag_51\n      jump\t// in\n    tag_123:\n        /* \"#utility.yul\":4415:4537   */\n    tag_122:\n        /* \"#utility.yul\":4573:4579   */\n      dup2\n        /* \"#utility.yul\":4560:4580   */\n      calldataload\n        /* \"#utility.yul\":4598:4677   */\n      tag_124\n        /* \"#utility.yul\":4673:4676   */\n      dup5\n        /* \"#utility.yul\":4665:4671   */\n      dup3\n        /* \"#utility.yul\":4658:4662   */\n      0x20\n        /* \"#utility.yul\":4650:4656   */\n      dup7\n        /* \"#utility.yul\":4646:4663   */\n      add\n        /* \"#utility.yul\":4598:4677   */\n      tag_59\n      jump\t// in\n    tag_124:\n        /* \"#utility.yul\":4589:4677   */\n      swap2\n      pop\n        /* \"#utility.yul\":4405:4683   */\n      pop\n        /* \"#utility.yul\":4343:4683   */\n      swap3\n      swap2\n      pop\n      pop\n      jump\t// out\n        /* \"#utility.yul\":4689:5198   */\n    tag_19:\n        /* \"#utility.yul\":4758:4764   */\n      0x00\n        /* \"#utility.yul\":4807:4809   */\n      0x20\n        /* \"#utility.yul\":4795:4804   */\n      dup3\n        /* \"#utility.yul\":4786:4793   */\n      dup5\n        /* \"#utility.yul\":4782:4805   */\n      sub\n        /* \"#utility.yul\":4778:4810   */\n      slt\n        /* \"#utility.yul\":4775:4894   */\n      iszero\n      tag_126\n      jumpi\n        /* \"#utility.yul\":4813:4892   */\n      tag_127\n      tag_41\n      jump\t// in\n    tag_127:\n        /* \"#utility.yul\":4775:4894   */\n    tag_126:\n        /* \"#utility.yul\":4961:4962   */\n      0x00\n        /* \"#utility.yul\":4950:4959   */\n      dup3\n        /* \"#utility.yul\":4946:4963   */\n      add\n        /* \"#utility.yul\":4933:4964   */\n      calldataload\n        /* \"#utility.yul\":4991:5009   */\n      0xffffffffffffffff\n        /* \"#utility.yul\":4983:4989   */\n      dup2\n        /* \"#utility.yul\":4980:5010   */\n      gt\n        /* \"#utility.yul\":4977:5094   */\n      iszero\n      tag_128\n      jumpi\n        /* \"#utility.yul\":5013:5092   */\n      tag_129\n      tag_42\n      jump\t// in\n    tag_129:\n        /* \"#utility.yul\":4977:5094   */\n    tag_128:\n        /* \"#utility.yul\":5118:5181   */\n      tag_130\n        /* \"#utility.yul\":5173:5180   */\n      dup5\n        /* \"#utility.yul\":5164:5170   */\n      dup3\n        /* \"#utility.yul\":5153:5162   */\n      dup6\n        /* \"#utility.yul\":5149:5171   */\n      add\n        /* \"#utility.yul\":5118:5181   */\n      tag_60\n      jump\t// in\n    tag_130:\n        /* \"#utility.yul\":5108:5181   */\n      swap2\n      pop\n        /* \"#utility.yul\":4904:5191   */\n      pop\n        /* \"#utility.yul\":4689:5198   */\n      swap3\n      swap2\n      pop\n      pop\n      jump\t// out\n        /* \"#utility.yul\":5204:5347   */\n    tag_61:\n        /* \"#utility.yul\":5261:5266   */\n      0x00\n        /* \"#utility.yul\":5292:5298   */\n      dup2\n        /* \"#utility.yul\":5286:5299   */\n      mload\n        /* \"#utility.yul\":5277:5299   */\n      swap1\n      pop\n        /* \"#utility.yul\":5308:5341   */\n      tag_132\n        /* \"#utility.yul\":5335:5340   */\n      dup2\n        /* \"#utility.yul\":5308:5341   */\n      tag_48\n      jump\t// in\n    tag_132:\n        /* \"#utility.yul\":5204:5347   */\n      swap3\n      swap2\n      pop\n      pop\n      jump\t// out\n        /* \"#utility.yul\":5353:5704   */\n    tag_27:\n        /* \"#utility.yul\":5423:5429   */\n      0x00\n        /* \"#utility.yul\":5472:5474   */\n      0x20\n        /* \"#utility.yul\":5460:5469   */\n      dup3\n        /* \"#utility.yul\":5451:5458   */\n      dup5\n        /* \"#utility.yul\":5447:5470   */\n      sub\n        /* \"#utility.yul\":5443:5475   */\n      slt\n        /* \"#utility.yul\":5440:5559   */\n      iszero\n      tag_134\n      jumpi\n        /* \"#utility.yul\":5478:5557   */\n      tag_135\n      tag_41\n      jump\t// in\n    tag_135:\n        /* \"#utility.yul\":5440:5559   */\n    tag_134:\n        /* \"#utility.yul\":5598:5599   */\n      0x00\n        /* \"#utility.yul\":5623:5687   */\n      tag_136\n        /* \"#utility.yul\":5679:5686   */\n      dup5\n        /* \"#utility.yul\":5670:5676   */\n      dup3\n        /* \"#utility.yul\":5659:5668   */\n      dup6\n        /* \"#utility.yul\":5655:5677   */\n      add\n        /* \"#utility.yul\":5623:5687   */\n      tag_61\n      jump\t// in\n    tag_136:\n        /* \"#utility.yul\":5613:5687   */\n      swap2\n      pop\n        /* \"#utility.yul\":5569:5697   */\n      pop\n        /* \"#utility.yul\":5353:5704   */\n      swap3\n      swap2\n      pop\n      pop\n      jump\t// out\n        /* \"#utility.yul\":5710:5853   */\n    tag_62:\n        /* \"#utility.yul\":5767:5772   */\n      0x00\n        /* \"#utility.yul\":5798:5804   */\n      dup2\n        /* \"#utility.yul\":5792:5805   */\n      mload\n        /* \"#utility.yul\":5783:5805   */\n      swap1\n      pop\n        /* \"#utility.yul\":5814:5847   */\n      tag_138\n        /* \"#utility.yul\":5841:5846   */\n      dup2\n        /* \"#utility.yul\":5814:5847   */\n      tag_44\n      jump\t// in\n    tag_138:\n        /* \"#utility.yul\":5710:5853   */\n      swap3\n      swap2\n      pop\n      pop\n      jump\t// out\n        /* \"#utility.yul\":5859:6210   */\n    tag_33:\n        /* \"#utility.yul\":5929:5935   */\n      0x00\n        /* \"#utility.yul\":5978:5980   */\n      0x20\n        /* \"#utility.yul\":5966:5975   */\n      dup3\n        /* \"#utility.yul\":5957:5964   */\n      dup5\n        /* \"#utility.yul\":5953:5976   */\n      sub\n        /* \"#utility.yul\":5949:5981   */\n      slt\n        /* \"#utility.yul\":5946:6065   */\n      iszero\n      tag_140\n      jumpi\n        /* \"#utility.yul\":5984:6063   */\n      tag_141\n      tag_41\n      jump\t// in\n    tag_141:\n        /* \"#utility.yul\":5946:6065   */\n    tag_140:\n        /* \"#utility.yul\":6104:6105   */\n      0x00\n        /* \"#utility.yul\":6129:6193   */\n      tag_142\n        /* \"#utility.yul\":6185:6192   */\n      dup5\n        /* \"#utility.yul\":6176:6182   */\n      dup3\n        /* \"#utility.yul\":6165:6174   */\n      dup6\n        /* \"#utility.yul\":6161:6183   */\n      add\n        /* \"#utility.yul\":6129:6193   */\n      tag_62\n      jump\t// in\n    tag_142:\n        /* \"#utility.yul\":6119:6193   */\n      swap2\n      pop\n        /* \"#utility.yul\":6075:6203   */\n      pop\n        /* \"#utility.yul\":5859:6210   */\n      swap3\n      swap2\n      pop\n      pop\n      jump\t// out\n        /* \"#utility.yul\":6216:6315   */\n    tag_63:\n        /* \"#utility.yul\":6268:6274   */\n      0x00\n        /* \"#utility.yul\":6302:6307   */\n      dup2\n        /* \"#utility.yul\":6296:6308   */\n      mload\n        /* \"#utility.yul\":6286:6308   */\n      swap1\n      pop\n        /* \"#utility.yul\":6216:6315   */\n      swap2\n      swap1\n      pop\n      jump\t// out\n        /* \"#utility.yul\":6321:6498   */\n    tag_64:\n        /* \"#utility.yul\":6413:6424   */\n      0x00\n        /* \"#utility.yul\":6447:6453   */\n      dup3\n        /* \"#utility.yul\":6442:6445   */\n      dup3\n        /* \"#utility.yul\":6435:6454   */\n      mstore\n        /* \"#utility.yul\":6487:6491   */\n      0x20\n        /* \"#utility.yul\":6482:6485   */\n      dup3\n        /* \"#utility.yul\":6478:6492   */\n      add\n        /* \"#utility.yul\":6463:6492   */\n      swap1\n      pop\n        /* \"#utility.yul\":6321:6498   */\n      swap3\n      swap2\n      pop\n      pop\n      jump\t// out\n        /* \"#utility.yul\":6504:6643   */\n    tag_65:\n        /* \"#utility.yul\":6593:6599   */\n      dup3\n        /* \"#utility.yul\":6588:6591   */\n      dup2\n        /* \"#utility.yul\":6583:6586   */\n      dup4\n        /* \"#utility.yul\":6577:6600   */\n      mcopy\n        /* \"#utility.yul\":6634:6635   */\n      0x00\n        /* \"#utility.yul\":6625:6631   */\n      dup4\n        /* \"#utility.yul\":6620:6623   */\n      dup4\n        /* \"#utility.yul\":6616:6632   */\n      add\n        /* \"#utility.yul\":6609:6636   */\n      mstore\n        /* \"#utility.yul\":6504:6643   */\n      pop\n      pop\n      pop\n      jump\t// out\n        /* \"#utility.yul\":6649:7042   */\n    tag_66:\n        /* \"#utility.yul\":6745:6748   */\n      0x00\n        /* \"#utility.yul\":6773:6812   */\n      tag_147\n        /* \"#utility.yul\":6806:6811   */\n      dup3\n        /* \"#utility.yul\":6773:6812   */\n      tag_63\n      jump\t// in\n    tag_147:\n        /* \"#utility.yul\":6828:6907   */\n      tag_148\n        /* \"#utility.yul\":6900:6906   */\n      dup2\n        /* \"#utility.yul\":6895:6898   */\n      dup6\n        /* \"#utility.yul\":6828:6907   */\n      tag_64\n      jump\t// in\n    tag_148:\n        /* \"#utility.yul\":6821:6907   */\n      swap4\n      pop\n        /* \"#utility.yul\":6916:6981   */\n      tag_149\n        /* \"#utility.yul\":6974:6980   */\n      dup2\n        /* \"#utility.yul\":6969:6972   */\n      dup6\n        /* \"#utility.yul\":6962:6966   */\n      0x20\n        /* \"#utility.yul\":6955:6960   */\n      dup7\n        /* \"#utility.yul\":6951:6967   */\n      add\n        /* \"#utility.yul\":6916:6981   */\n      tag_65\n      jump\t// in\n    tag_149:\n        /* \"#utility.yul\":7006:7035   */\n      tag_150\n        /* \"#utility.yul\":7028:7034   */\n      dup2\n        /* \"#utility.yul\":7006:7035   */\n      tag_53\n      jump\t// in\n    tag_150:\n        /* \"#utility.yul\":7001:7004   */\n      dup5\n        /* \"#utility.yul\":6997:7036   */\n      add\n        /* \"#utility.yul\":6990:7036   */\n      swap2\n      pop\n        /* \"#utility.yul\":6749:7042   */\n      pop\n        /* \"#utility.yul\":6649:7042   */\n      swap3\n      swap2\n      pop\n      pop\n      jump\t// out\n        /* \"#utility.yul\":7048:7377   */\n    tag_36:\n        /* \"#utility.yul\":7169:7173   */\n      0x00\n        /* \"#utility.yul\":7207:7209   */\n      0x20\n        /* \"#utility.yul\":7196:7205   */\n      dup3\n        /* \"#utility.yul\":7192:7210   */\n      add\n        /* \"#utility.yul\":7184:7210   */\n      swap1\n      pop\n        /* \"#utility.yul\":7256:7265   */\n      dup2\n        /* \"#utility.yul\":7250:7254   */\n      dup2\n        /* \"#utility.yul\":7246:7266   */\n      sub\n        /* \"#utility.yul\":7242:7243   */\n      0x00\n        /* \"#utility.yul\":7231:7240   */\n      dup4\n        /* \"#utility.yul\":7227:7244   */\n      add\n        /* \"#utility.yul\":7220:7267   */\n      mstore\n        /* \"#utility.yul\":7284:7370   */\n      tag_152\n        /* \"#utility.yul\":7365:7369   */\n      dup2\n        /* \"#utility.yul\":7356:7362   */\n      dup5\n        /* \"#utility.yul\":7284:7370   */\n      tag_66\n      jump\t// in\n    tag_152:\n        /* \"#utility.yul\":7276:7370   */\n      swap1\n      pop\n        /* \"#utility.yul\":7048:7377   */\n      swap3\n      swap2\n      pop\n      pop\n      jump\t// out\n\n    auxdata: 0xa2646970667358221220475451c1ad06f85681715a6c6acafd3ed3265098c29db8767449d3afdb78505c64736f6c63430008190033\n}\n",
				"bytecode": {
					"linkReferences": {
						"contracts/StringUtils.sol": {
							"StringLib": [
								{
									"length": 20,
									"start": 302
								},
								{
									"length": 20,
									"start": 428
								},
								{
									"length": 20,
									"start": 554
								}
							]
						}
					},
					"object": "61062c61004d600b8282823980515f1a6073146041577f4e487b71000000000000000000000000000000000000000000000000000000005f525f60045260245ffd5b305f52607381538281f3fe730000000000000000000000000000000000000000301460806040526004361061004a575f3560e01c806381a33a6f1461004e57806394e8767d1461007e578063cfb51928146100ae575b5f80fd5b6100686004803603810190610063919061029c565b6100de565b60405161007591906102df565b60405180910390f35b61009860048036038101906100939190610322565b61015c565b6040516100a5919061035c565b60405180910390f35b6100c860048036038101906100c391906104b1565b6101da565b6040516100d5919061035c565b60405180910390f35b5f73__$a1a28301a0c3a1a0a3f7b8f1e53fe40bd9$__6381a33a6f836040518263ffffffff1660e01b8152600401610116919061035c565b602060405180830381865af4158015610131573d5f803e3d5ffd5b505050506040513d601f19601f82011682018060405250810190610155919061050c565b9050919050565b5f73__$a1a28301a0c3a1a0a3f7b8f1e53fe40bd9$__6394e8767d836040518263ffffffff1660e01b815260040161019491906102df565b602060405180830381865af41580156101af573d5f803e3d5ffd5b505050506040513d601f19601f820116820180604052508101906101d3919061054b565b9050919050565b5f73__$a1a28301a0c3a1a0a3f7b8f1e53fe40bd9$__63cfb51928836040518263ffffffff1660e01b815260040161021291906105d6565b602060405180830381865af415801561022d573d5f803e3d5ffd5b505050506040513d601f19601f82011682018060405250810190610251919061054b565b9050919050565b5f604051905090565b5f80fd5b5f80fd5b5f819050919050565b61027b81610269565b8114610285575f80fd5b50565b5f8135905061029681610272565b92915050565b5f602082840312156102b1576102b0610261565b5b5f6102be84828501610288565b91505092915050565b5f819050919050565b6102d9816102c7565b82525050565b5f6020820190506102f25f8301846102d0565b92915050565b610301816102c7565b811461030b575f80fd5b50565b5f8135905061031c816102f8565b92915050565b5f6020828403121561033757610336610261565b5b5f6103448482850161030e565b91505092915050565b61035681610269565b82525050565b5f60208201905061036f5f83018461034d565b92915050565b5f80fd5b5f80fd5b5f601f19601f8301169050919050565b7f4e487b71000000000000000000000000000000000000000000000000000000005f52604160045260245ffd5b6103c38261037d565b810181811067ffffffffffffffff821117156103e2576103e161038d565b5b80604052505050565b5f6103f4610258565b905061040082826103ba565b919050565b5f67ffffffffffffffff82111561041f5761041e61038d565b5b6104288261037d565b9050602081019050919050565b828183375f83830152505050565b5f61045561045084610405565b6103eb565b90508281526020810184848401111561047157610470610379565b5b61047c848285610435565b509392505050565b5f82601f83011261049857610497610375565b5b81356104a8848260208601610443565b91505092915050565b5f602082840312156104c6576104c5610261565b5b5f82013567ffffffffffffffff8111156104e3576104e2610265565b5b6104ef84828501610484565b91505092915050565b5f81519050610506816102f8565b92915050565b5f6020828403121561052157610520610261565b5b5f61052e848285016104f8565b91505092915050565b5f8151905061054581610272565b92915050565b5f602082840312156105605761055f610261565b5b5f61056d84828501610537565b91505092915050565b5f81519050919050565b5f82825260208201905092915050565b8281835e5f83830152505050565b5f6105a882610576565b6105b28185610580565b93506105c2818560208601610590565b6105cb8161037d565b840191505092915050565b5f6020820190508181035f8301526105ee818461059e565b90509291505056fea2646970667358221220475451c1ad06f85681715a6c6acafd3ed3265098c29db8767449d3afdb78505c64736f6c63430008190033",
					"opcodes": "PUSH2 0x62C PUSH2 0x4D PUSH1 0xB DUP3 DUP3 DUP3 CODECOPY DUP1 MLOAD PUSH0 BYTE PUSH1 0x73 EQ PUSH1 0x41 JUMPI PUSH32 0x4E487B7100000000000000000000000000000000000000000000000000000000 PUSH0 MSTORE PUSH0 PUSH1 0x4 MSTORE PUSH1 0x24 PUSH0 REVERT JUMPDEST ADDRESS PUSH0 MSTORE PUSH1 0x73 DUP2 MSTORE8 DUP3 DUP2 RETURN INVALID PUSH20 0x0 ADDRESS EQ PUSH1 0x80 PUSH1 0x40 MSTORE PUSH1 0x4 CALLDATASIZE LT PUSH2 0x4A JUMPI PUSH0 CALLDATALOAD PUSH1 0xE0 SHR DUP1 PUSH4 0x81A33A6F EQ PUSH2 0x4E JUMPI DUP1 PUSH4 0x94E8767D EQ PUSH2 0x7E JUMPI DUP1 PUSH4 0xCFB51928 EQ PUSH2 0xAE JUMPI JUMPDEST PUSH0 DUP1 REVERT JUMPDEST PUSH2 0x68 PUSH1 0x4 DUP1 CALLDATASIZE SUB DUP2 ADD SWAP1 PUSH2 0x63 SWAP2 SWAP1 PUSH2 0x29C JUMP JUMPDEST PUSH2 0xDE JUMP JUMPDEST PUSH1 0x40 MLOAD PUSH2 0x75 SWAP2 SWAP1 PUSH2 0x2DF JUMP JUMPDEST PUSH1 0x40 MLOAD DUP1 SWAP2 SUB SWAP1 RETURN JUMPDEST PUSH2 0x98 PUSH1 0x4 DUP1 CALLDATASIZE SUB DUP2 ADD SWAP1 PUSH2 0x93 SWAP2 SWAP1 PUSH2 0x322 JUMP JUMPDEST PUSH2 0x15C JUMP JUMPDEST PUSH1 0x40 MLOAD PUSH2 0xA5 SWAP2 SWAP1 PUSH2 0x35C JUMP JUMPDEST PUSH1 0x40 MLOAD DUP1 SWAP2 SUB SWAP1 RETURN JUMPDEST PUSH2 0xC8 PUSH1 0x4 DUP1 CALLDATASIZE SUB DUP2 ADD SWAP1 PUSH2 0xC3 SWAP2 SWAP1 PUSH2 0x4B1 JUMP JUMPDEST PUSH2 0x1DA JUMP JUMPDEST PUSH1 0x40 MLOAD PUSH2 0xD5 SWAP2 SWAP1 PUSH2 0x35C JUMP JUMPDEST PUSH1 0x40 MLOAD DUP1 SWAP2 SUB SWAP1 RETURN JUMPDEST PUSH0 PUSH20 0x0 PUSH4 0x81A33A6F DUP4 PUSH1 0x40 MLOAD DUP3 PUSH4 0xFFFFFFFF AND PUSH1 0xE0 SHL DUP2 MSTORE PUSH1 0x4 ADD PUSH2 0x116 SWAP2 SWAP1 PUSH2 0x35C JUMP JUMPDEST PUSH1 0x20 PUSH1 0x40 MLOAD DUP1 DUP4 SUB DUP2 DUP7 GAS DELEGATECALL ISZERO DUP1 ISZERO PUSH2 0x131 JUMPI RETURNDATASIZE PUSH0 DUP1 RETURNDATACOPY RETURNDATASIZE PUSH0 REVERT JUMPDEST POP POP POP POP PUSH1 0x40 MLOAD RETURNDATASIZE PUSH1 0x1F NOT PUSH1 0x1F DUP3 ADD AND DUP3 ADD DUP1 PUSH1 0x40 MSTORE POP DUP2 ADD SWAP1 PUSH2 0x155 SWAP2 SWAP1 PUSH2 0x50C JUMP JUMPDEST SWAP1 POP SWAP2 SWAP1 POP JUMP JUMPDEST PUSH0 PUSH20 0x0 PUSH4 0x94E8767D DUP4 PUSH1 0x40 MLOAD DUP3 PUSH4 0xFFFFFFFF AND PUSH1 0xE0 SHL DUP2 MSTORE PUSH1 0x4 ADD PUSH2 0x194 SWAP2 SWAP1 PUSH2 0x2DF JUMP JUMPDEST PUSH1 0x20 PUSH1 0x40 MLOAD DUP1 DUP4 SUB DUP2 DUP7 GAS DELEGATECALL ISZERO DUP1 ISZERO PUSH2 0x1AF JUMPI RETURNDATASIZE PUSH0 DUP1 RETURNDATACOPY RETURNDATASIZE PUSH0 REVERT JUMPDEST POP POP POP POP PUSH1 0x40 MLOAD RETURNDATASIZE PUSH1 0x1F NOT PUSH1 0x1F DUP3 ADD AND DUP3 ADD DUP1 PUSH1 0x40 MSTORE POP DUP2 ADD SWAP1 PUSH2 0x1D3 SWAP2 SWAP1 PUSH2 0x54B JUMP JUMPDEST SWAP1 POP SWAP2 SWAP1 POP JUMP JUMPDEST PUSH0 PUSH20 0x0 PUSH4 0xCFB51928 DUP4 PUSH1 0x40 MLOAD DUP3 PUSH4 0xFFFFFFFF AND PUSH1 0xE0 SHL DUP2 MSTORE PUSH1 0x4 ADD PUSH2 0x212 SWAP2 SWAP1 PUSH2 0x5D6 JUMP JUMPDEST PUSH1 0x20 PUSH1 0x40 MLOAD DUP1 DUP4 SUB DUP2 DUP7 GAS DELEGATECALL ISZERO DUP1 ISZERO PUSH2 0x22D JUMPI RETURNDATASIZE PUSH0 DUP1 RETURNDATACOPY RETURNDATASIZE PUSH0 REVERT JUMPDEST POP POP POP POP PUSH1 0x40 MLOAD RETURNDATASIZE PUSH1 0x1F NOT PUSH1 0x1F DUP3 ADD AND DUP3 ADD DUP1 PUSH1 0x40 MSTORE POP DUP2 ADD SWAP1 PUSH2 0x251 SWAP2 SWAP1 PUSH2 0x54B JUMP JUMPDEST SWAP1 POP SWAP2 SWAP1 POP JUMP JUMPDEST PUSH0 PUSH1 0x40 MLOAD SWAP1 POP SWAP1 JUMP JUMPDEST PUSH0 DUP1 REVERT JUMPDEST PUSH0 DUP1 REVERT JUMPDEST PUSH0 DUP2 SWAP1 POP SWAP2 SWAP1 POP JUMP JUMPDEST PUSH2 0x27B DUP2 PUSH2 0x269 JUMP JUMPDEST DUP2 EQ PUSH2 0x285 JUMPI PUSH0 DUP1 REVERT JUMPDEST POP JUMP JUMPDEST PUSH0 DUP2 CALLDATALOAD SWAP1 POP PUSH2 0x296 DUP2 PUSH2 0x272 JUMP JUMPDEST SWAP3 SWAP2 POP POP JUMP JUMPDEST PUSH0 PUSH1 0x20 DUP3 DUP5 SUB SLT ISZERO PUSH2 0x2B1 JUMPI PUSH2 0x2B0 PUSH2 0x261 JUMP JUMPDEST JUMPDEST PUSH0 PUSH2 0x2BE DUP5 DUP3 DUP6 ADD PUSH2 0x288 JUMP JUMPDEST SWAP2 POP POP SWAP3 SWAP2 POP POP JUMP JUMPDEST PUSH0 DUP2 SWAP1 POP SWAP2 SWAP1 POP JUMP JUMPDEST PUSH2 0x2D9 DUP2 PUSH2 0x2C7 JUMP JUMPDEST DUP3 MSTORE POP POP JUMP JUMPDEST PUSH0 PUSH1 0x20 DUP3 ADD SWAP1 POP PUSH2 0x2F2 PUSH0 DUP4 ADD DUP5 PUSH2 0x2D0 JUMP JUMPDEST SWAP3 SWAP2 POP POP JUMP JUMPDEST PUSH2 0x301 DUP2 PUSH2 0x2C7 JUMP JUMPDEST DUP2 EQ PUSH2 0x30B JUMPI PUSH0 DUP1 REVERT JUMPDEST POP JUMP JUMPDEST PUSH0 DUP2 CALLDATALOAD SWAP1 POP PUSH2 0x31C DUP2 PUSH2 0x2F8 JUMP JUMPDEST SWAP3 SWAP2 POP POP JUMP JUMPDEST PUSH0 PUSH1 0x20 DUP3 DUP5 SUB SLT ISZERO PUSH2 0x337 JUMPI PUSH2 0x336 PUSH2 0x261 JUMP JUMPDEST JUMPDEST PUSH0 PUSH2 0x344 DUP5 DUP3 DUP6 ADD PUSH2 0x30E JUMP JUMPDEST SWAP2 POP POP SWAP3 SWAP2 POP POP JUMP JUMPDEST PUSH2 0x356 DUP2 PUSH2 0x269 JUMP JUMPDEST DUP3 MSTORE POP POP JUMP JUMPDEST PUSH0 PUSH1 0x20 DUP3 ADD SWAP1 POP PUSH2 0x36F PUSH0 DUP4 ADD DUP5 PUSH2 0x34D JUMP JUMPDEST SWAP3 SWAP2 POP POP JUMP JUMPDEST PUSH0 DUP1 REVERT JUMPDEST PUSH0 DUP1 REVERT JUMPDEST PUSH0 PUSH1 0x1F NOT PUSH1 0x1F DUP4 ADD AND SWAP1 POP SWAP2 SWAP1 POP JUMP JUMPDEST PUSH32 0x4E487B7100000000000000000000000000000000000000000000000000000000 PUSH0 MSTORE PUSH1 0x41 PUSH1 0x4 MSTORE PUSH1 0x24 PUSH0 REVERT JUMPDEST PUSH2 0x3C3 DUP3 PUSH2 0x37D JUMP JUMPDEST DUP2 ADD DUP2 DUP2 LT PUSH8 0xFFFFFFFFFFFFFFFF DUP3 GT OR ISZERO PUSH2 0x3E2 JUMPI PUSH2 0x3E1 PUSH2 0x38D JUMP JUMPDEST JUMPDEST DUP1 PUSH1 0x40 MSTORE POP POP POP JUMP JUMPDEST PUSH0 PUSH2 0x3F4 PUSH2 0x258 JUMP JUMPDEST SWAP1 POP PUSH2 0x400 DUP3 DUP3 PUSH2 0x3BA JUMP JUMPDEST SWAP2 SWAP1 POP JUMP JUMPDEST PUSH0 PUSH8 0xFFFFFFFFFFFFFFFF DUP3 GT ISZERO PUSH2 0x41F JUMPI PUSH2 0x41E PUSH2 0x38D JUMP JUMPDEST JUMPDEST PUSH2 0x428 DUP3 PUSH2 0x37D JUMP JUMPDEST SWAP1 POP PUSH1 0x20 DUP2 ADD SWAP1 POP SWAP2 SWAP1 POP JUMP JUMPDEST DUP3 DUP2 DUP4 CALLDATACOPY PUSH0 DUP4 DUP4 ADD MSTORE POP POP POP JUMP JUMPDEST PUSH0 PUSH2 0x455 PUSH2 0x450 DUP5 PUSH2 0x405 JUMP JUMPDEST PUSH2 0x3EB JUMP JUMPDEST SWAP1 POP DUP3 DUP2 MSTORE PUSH1 0x20 DUP2 ADD DUP5 DUP5 DUP5 ADD GT ISZERO PUSH2 0x471 JUMPI PUSH2 0x470 PUSH2 0x379 JUMP JUMPDEST JUMPDEST PUSH2 0x47C DUP5 DUP3 DUP6 PUSH2 0x435 JUMP JUMPDEST POP SWAP4 SWAP3 POP POP POP JUMP JUMPDEST PUSH0 DUP3 PUSH1 0x1F DUP4 ADD SLT PUSH2 0x498 JUMPI PUSH2 0x497 PUSH2 0x375 JUMP JUMPDEST JUMPDEST DUP2 CALLDATALOAD PUSH2 0x4A8 DUP5 DUP3 PUSH1 0x20 DUP7 ADD PUSH2 0x443 JUMP JUMPDEST SWAP2 POP POP SWAP3 SWAP2 POP POP JUMP JUMPDEST PUSH0 PUSH1 0x20 DUP3 DUP5 SUB SLT ISZERO PUSH2 0x4C6 JUMPI PUSH2 0x4C5 PUSH2 0x261 JUMP JUMPDEST JUMPDEST PUSH0 DUP3 ADD CALLDATALOAD PUSH8 0xFFFFFFFFFFFFFFFF DUP2 GT ISZERO PUSH2 0x4E3 JUMPI PUSH2 0x4E2 PUSH2 0x265 JUMP JUMPDEST JUMPDEST PUSH2 0x4EF DUP5 DUP3 DUP6 ADD PUSH2 0x484 JUMP JUMPDEST SWAP2 POP POP SWAP3 SWAP2 POP POP JUMP JUMPDEST PUSH0 DUP2 MLOAD SWAP1 POP PUSH2 0x506 DUP2 PUSH2 0x2F8 JUMP JUMPDEST SWAP3 SWAP2 POP POP JUMP JUMPDEST PUSH0 PUSH1 0x20 DUP3 DUP5 SUB SLT ISZERO PUSH2 0x521 JUMPI PUSH2 0x520 PUSH2 0x261 JUMP JUMPDEST JUMPDEST PUSH0 PUSH2 0x52E DUP5 DUP3 DUP6 ADD PUSH2 0x4F8 JUMP JUMPDEST SWAP2 POP POP SWAP3 SWAP2 POP POP JUMP JUMPDEST PUSH0 DUP2 MLOAD SWAP1 POP PUSH2 0x545 DUP2 PUSH2 0x272 JUMP JUMPDEST SWAP3 SWAP2 POP POP JUMP JUMPDEST PUSH0 PUSH1 0x20 DUP3 DUP5 SUB SLT ISZERO PUSH2 0x560 JUMPI PUSH2 0x55F PUSH2 0x261 JUMP JUMPDEST JUMPDEST PUSH0 PUSH2 0x56D DUP5 DUP3 DUP6 ADD PUSH2 0x537 JUMP JUMPDEST SWAP2 POP POP SWAP3 SWAP2 POP POP JUMP JUMPDEST PUSH0 DUP2 MLOAD SWAP1 POP SWAP2 SWAP1 POP JUMP JUMPDEST PUSH0 DUP3 DUP3 MSTORE PUSH1 0x20 DUP3 ADD SWAP1 POP SWAP3 SWAP2 POP POP JUMP JUMPDEST DUP3 DUP2 DUP4 MCOPY PUSH0 DUP4 DUP4 ADD MSTORE POP POP POP JUMP JUMPDEST PUSH0 PUSH2 0x5A8 DUP3 PUSH2 0x576 JUMP JUMPDEST PUSH2 0x5B2 DUP2 DUP6 PUSH2 0x580 JUMP JUMPDEST SWAP4 POP PUSH2 0x5C2 DUP2 DUP6 PUSH1 0x20 DUP7 ADD PUSH2 0x590 JUMP JUMPDEST PUSH2 0x5CB DUP2 PUSH2 0x37D JUMP JUMPDEST DUP5 ADD SWAP2 POP POP SWAP3 SWAP2 POP POP JUMP JUMPDEST PUSH0 PUSH1 0x20 DUP3 ADD SWAP1 POP DUP2 DUP2 SUB PUSH0 DUP4 ADD MSTORE PUSH2 0x5EE DUP2 DUP5 PUSH2 0x59E JUMP JUMPDEST SWAP1 POP SWAP3 SWAP2 POP POP JUMP INVALID LOG2 PUSH5 0x6970667358 0x22 SLT KECCAK256 SELFBALANCE SLOAD MLOAD 0xC1 0xAD MOD 0xF8 JUMP DUP2 PUSH18 0x5A6C6ACAFD3ED3265098C29DB8767449D3AF 0xDB PUSH25 0x505C64736F6C63430008190033000000000000000000000000 "
				},
				"gasEstimates": {
					"creation": {
						"codeDepositCost": "316000",
						"executionCost": "378",
						"totalCost": "316378"
					},
					"external": {
						"bytesToUInt(bytes32)": "infinite",
						"stringToBytes32(string)": "infinite",
						"uintToBytes(uint256)": "infinite"
					}
				},
				"methodIdentifiers": {
					"bytesToUInt(bytes32)": "81a33a6f",
					"stringToBytes32(string)": "cfb51928",
					"uintToBytes(uint256)": "94e8767d"
				}
			},
			"storageLayout": {
				"storage": [],
				"types": null
			},
			"userdoc": {
				"kind": "user",
				"methods": {},
				"version": 1
			}
		}
	}
}