{
	"contracts/DateUtils.sol": {
		"DateUtils": {
			"abi": [
				{
					"inputs": [
						{
							"internalType": "uint256",
							"name": "_dt",
							"type": "uint256"
						}
					],
					"name": "convertTimestampToYMDHMS",
					"outputs": [
						{
							"internalType": "uint16",
							"name": "year",
							"type": "uint16"
						},
						{
							"internalType": "uint8",
							"name": "month",
							"type": "uint8"
						},
						{
							"internalType": "uint8",
							"name": "day",
							"type": "uint8"
						},
						{
							"internalType": "uint8",
							"name": "hour",
							"type": "uint8"
						},
						{
							"internalType": "uint8",
							"name": "minute",
							"type": "uint8"
						},
						{
							"internalType": "uint8",
							"name": "second",
							"type": "uint8"
						}
					],
					"stateMutability": "pure",
					"type": "function"
				},
				{
					"inputs": [
						{
							"internalType": "uint16",
							"name": "_year",
							"type": "uint16"
						},
						{
							"internalType": "uint8",
							"name": "_month",
							"type": "uint8"
						},
						{
							"internalType": "uint8",
							"name": "_day",
							"type": "uint8"
						},
						{
							"internalType": "uint8",
							"name": "_hour",
							"type": "uint8"
						},
						{
							"internalType": "uint8",
							"name": "_minute",
							"type": "uint8"
						},
						{
							"internalType": "uint8",
							"name": "_second",
							"type": "uint8"
						}
					],
					"name": "convertYMDHMStoTimestamp",
					"outputs": [
						{
							"internalType": "uint256",
							"name": "",
							"type": "uint256"
						}
					],
					"stateMutability": "pure",
					"type": "function"
				}
			],
			"devdoc": {
				"author": "Skeleton Codeworks, LLC <skeleton.codeworks@gmail.com>",
				"details": "This library primarily provides utilities to convert between various date and time formats.  The supported formats are: 1) Unix timestamps, 2) strings in yyyy-mm-dd format (also known as ISO), and 3) YMD format (year, month, day, as integers). Additionally, support is provided for the date and time formats analogous to the date formats above: 1) Unix timestamps (identical to the format above), 2) strings in yyyy-mm-dd hh:mm:ss format, and 3) YMDHMS format (year, month, day, hour, minute, second, as integers). Hours, minutes, and seconds are in 24-hour clock format (i.e., hour from 0 - 23, minute from 0 - 59, and second from 0 - 59). Convenience functions for validation, splitting date strings, and calculating the day of the week are also provided. Note that this library does not use \"yyyy-mm-ddThh:mm:ssZ\" as valid date and time format, but rather \"yyyy-mm-dd hh:mm:ss\".",
				"kind": "dev",
				"methods": {
					"convertTimestampToYMDHMS(uint256)": {
						"details": "Convert timestamp to YMDHMS (year, month, day, hour, minute, second)",
						"params": {
							"_dt": "Date as timestamp integer"
						},
						"returns": {
							"day": "Returns day as `uint8`",
							"hour": "Returns hour as `uint8`",
							"minute": "Returns minute as `uint8`",
							"month": "Returns month as `uint8`",
							"second": "Returns second as `uint8`",
							"year": "Returns year as `uint16`"
						}
					},
					"convertYMDHMStoTimestamp(uint16,uint8,uint8,uint8,uint8,uint8)": {
						"details": "Convert YMDHMS (year, month, day, hour, minute, second) to timestamp",
						"params": {
							"_day": "Day as integer",
							"_hour": "Hour as integer",
							"_minute": "Minute as integer",
							"_month": "Month as integer",
							"_second": "Second as integer",
							"_year": "Year as integer"
						},
						"returns": {
							"_0": "Returns timestamp as `uint256`"
						}
					}
				},
				"title": "Date utility library for Solidity contracts",
				"version": 1
			},
			"evm": {
				"assembly": "    /* \"contracts/DateUtils.sol\":1238:30054  library DateUtils {... */\n  dataSize(sub_0)\n  dataOffset(sub_0)\n  0x0b\n  dup3\n  dup3\n  dup3\n  codecopy\n  dup1\n  mload\n  0x00\n  byte\n  0x73\n  eq\n  tag_1\n  jumpi\n  mstore(0x00, 0x4e487b7100000000000000000000000000000000000000000000000000000000)\n  mstore(0x04, 0x00)\n  revert(0x00, 0x24)\ntag_1:\n  mstore(0x00, address)\n  0x73\n  dup2\n  mstore8\n  dup3\n  dup2\n  return\nstop\n\nsub_0: assembly {\n        /* \"contracts/DateUtils.sol\":1238:30054  library DateUtils {... */\n      eq(address, deployTimeAddress())\n      mstore(0x40, 0x80)\n      jumpi(tag_1, lt(calldatasize, 0x04))\n      shr(0xe0, calldataload(0x00))\n      dup1\n      0x315f706d\n      eq\n      tag_2\n      jumpi\n      dup1\n      0xc802fd63\n      eq\n      tag_3\n      jumpi\n    tag_1:\n      0x00\n      dup1\n      revert\n        /* \"contracts/DateUtils.sol\":29276:30051  function convertYMDHMStoTimestamp(uint16 _year,... */\n    tag_2:\n      tag_4\n      0x04\n      dup1\n      calldatasize\n      sub\n      dup2\n      add\n      swap1\n      tag_5\n      swap2\n      swap1\n      tag_6\n      jump\t// in\n    tag_5:\n      tag_7\n      jump\t// in\n    tag_4:\n      mload(0x40)\n      tag_8\n      swap2\n      swap1\n      tag_9\n      jump\t// in\n    tag_8:\n      mload(0x40)\n      dup1\n      swap2\n      sub\n      swap1\n      return\n        /* \"contracts/DateUtils.sol\":20582:21431  function convertTimestampToYMDHMS(uint256 _dt)... */\n    tag_3:\n      tag_10\n      0x04\n      dup1\n      calldatasize\n      sub\n      dup2\n      add\n      swap1\n      tag_11\n      swap2\n      swap1\n      tag_12\n      jump\t// in\n    tag_11:\n      tag_13\n      jump\t// in\n    tag_10:\n      mload(0x40)\n      tag_14\n      swap7\n      swap6\n      swap5\n      swap4\n      swap3\n      swap2\n      swap1\n      tag_15\n      jump\t// in\n    tag_14:\n      mload(0x40)\n      dup1\n      swap2\n      sub\n      swap1\n      return\n        /* \"contracts/DateUtils.sol\":29276:30051  function convertYMDHMStoTimestamp(uint16 _year,... */\n    tag_7:\n        /* \"contracts/DateUtils.sol\":29681:29688  uint256 */\n      0x00\n        /* \"contracts/DateUtils.sol\":29708:29767  isValidYMDHMS(_year, _month, _day, _hour, _minute, _second) */\n      tag_17\n        /* \"contracts/DateUtils.sol\":29722:29727  _year */\n      dup8\n        /* \"contracts/DateUtils.sol\":29729:29735  _month */\n      dup8\n        /* \"contracts/DateUtils.sol\":29737:29741  _day */\n      dup8\n        /* \"contracts/DateUtils.sol\":29743:29748  _hour */\n      dup8\n        /* \"contracts/DateUtils.sol\":29750:29757  _minute */\n      dup8\n        /* \"contracts/DateUtils.sol\":29759:29766  _second */\n      dup8\n        /* \"contracts/DateUtils.sol\":29708:29721  isValidYMDHMS */\n      tag_18\n        /* \"contracts/DateUtils.sol\":29708:29767  isValidYMDHMS(_year, _month, _day, _hour, _minute, _second) */\n      jump\t// in\n    tag_17:\n        /* \"contracts/DateUtils.sol\":29700:29768  require(isValidYMDHMS(_year, _month, _day, _hour, _minute, _second)) */\n      tag_19\n      jumpi\n      0x00\n      dup1\n      revert\n    tag_19:\n        /* \"contracts/DateUtils.sol\":29778:29788  uint256 ts */\n      0x00\n        /* \"contracts/DateUtils.sol\":29807:29832  addYearSeconds(ts, _year) */\n      tag_20\n        /* \"contracts/DateUtils.sol\":29822:29824  ts */\n      dup2\n        /* \"contracts/DateUtils.sol\":29826:29831  _year */\n      dup10\n        /* \"contracts/DateUtils.sol\":29807:29821  addYearSeconds */\n      tag_21\n        /* \"contracts/DateUtils.sol\":29807:29832  addYearSeconds(ts, _year) */\n      jump\t// in\n    tag_20:\n        /* \"contracts/DateUtils.sol\":29802:29832  ts = addYearSeconds(ts, _year) */\n      swap1\n      pop\n        /* \"contracts/DateUtils.sol\":29846:29876  addMonthSeconds(_year, _month) */\n      tag_22\n        /* \"contracts/DateUtils.sol\":29862:29867  _year */\n      dup9\n        /* \"contracts/DateUtils.sol\":29869:29875  _month */\n      dup9\n        /* \"contracts/DateUtils.sol\":29846:29861  addMonthSeconds */\n      tag_23\n        /* \"contracts/DateUtils.sol\":29846:29876  addMonthSeconds(_year, _month) */\n      jump\t// in\n    tag_22:\n        /* \"contracts/DateUtils.sol\":29840:29876  ts += addMonthSeconds(_year, _month) */\n      dup2\n      tag_24\n      swap2\n      swap1\n      tag_25\n      jump\t// in\n    tag_24:\n      swap1\n      pop\n        /* \"contracts/DateUtils.sol\":1444:1449  86400 */\n      0x015180\n        /* \"contracts/DateUtils.sol\":29898:29899  1 */\n      0x01\n        /* \"contracts/DateUtils.sol\":29891:29895  _day */\n      dup8\n        /* \"contracts/DateUtils.sol\":29891:29899  _day - 1 */\n      tag_26\n      swap2\n      swap1\n      tag_27\n      jump\t// in\n    tag_26:\n        /* \"contracts/DateUtils.sol\":29890:29917  (_day - 1) * SECONDS_IN_DAY */\n      0xff\n      and\n      tag_28\n      swap2\n      swap1\n      tag_29\n      jump\t// in\n    tag_28:\n        /* \"contracts/DateUtils.sol\":29884:29917  ts += (_day - 1) * SECONDS_IN_DAY */\n      dup2\n      tag_30\n      swap2\n      swap1\n      tag_25\n      jump\t// in\n    tag_30:\n      swap1\n      pop\n        /* \"contracts/DateUtils.sol\":1400:1404  3600 */\n      0x0e10\n        /* \"contracts/DateUtils.sol\":29931:29936  _hour */\n      dup6\n        /* \"contracts/DateUtils.sol\":29931:29954  _hour * SECONDS_IN_HOUR */\n      0xff\n      and\n      tag_31\n      swap2\n      swap1\n      tag_29\n      jump\t// in\n    tag_31:\n        /* \"contracts/DateUtils.sol\":29925:29954  ts += _hour * SECONDS_IN_HOUR */\n      dup2\n      tag_32\n      swap2\n      swap1\n      tag_25\n      jump\t// in\n    tag_32:\n      swap1\n      pop\n        /* \"contracts/DateUtils.sol\":1357:1359  60 */\n      0x3c\n        /* \"contracts/DateUtils.sol\":29968:29975  _minute */\n      dup5\n        /* \"contracts/DateUtils.sol\":29968:29995  _minute * SECONDS_IN_MINUTE */\n      0xff\n      and\n      tag_33\n      swap2\n      swap1\n      tag_29\n      jump\t// in\n    tag_33:\n        /* \"contracts/DateUtils.sol\":29962:29995  ts += _minute * SECONDS_IN_MINUTE */\n      dup2\n      tag_34\n      swap2\n      swap1\n      tag_25\n      jump\t// in\n    tag_34:\n      swap1\n      pop\n        /* \"contracts/DateUtils.sol\":30017:30024  _second */\n      dup3\n        /* \"contracts/DateUtils.sol\":30009:30025  uint256(_second) */\n      0xff\n      and\n        /* \"contracts/DateUtils.sol\":30003:30025  ts += uint256(_second) */\n      dup2\n      tag_35\n      swap2\n      swap1\n      tag_25\n      jump\t// in\n    tag_35:\n      swap1\n      pop\n        /* \"contracts/DateUtils.sol\":30042:30044  ts */\n      dup1\n        /* \"contracts/DateUtils.sol\":30035:30044  return ts */\n      swap2\n      pop\n      pop\n        /* \"contracts/DateUtils.sol\":29276:30051  function convertYMDHMStoTimestamp(uint16 _year,... */\n      swap7\n      swap6\n      pop\n      pop\n      pop\n      pop\n      pop\n      pop\n      jump\t// out\n        /* \"contracts/DateUtils.sol\":20582:21431  function convertTimestampToYMDHMS(uint256 _dt)... */\n    tag_13:\n        /* \"contracts/DateUtils.sol\":20726:20737  uint16 year */\n      0x00\n        /* \"contracts/DateUtils.sol\":20786:20797  uint8 month */\n      dup1\n        /* \"contracts/DateUtils.sol\":20846:20855  uint8 day */\n      0x00\n        /* \"contracts/DateUtils.sol\":20904:20914  uint8 hour */\n      dup1\n        /* \"contracts/DateUtils.sol\":20963:20975  uint8 minute */\n      0x00\n        /* \"contracts/DateUtils.sol\":21024:21036  uint8 second */\n      dup1\n        /* \"contracts/DateUtils.sol\":21048:21072  uint256 secondsRemaining */\n      0x00\n        /* \"contracts/DateUtils.sol\":21075:21078  _dt */\n      dup8\n        /* \"contracts/DateUtils.sol\":21048:21078  uint256 secondsRemaining = _dt */\n      swap1\n      pop\n        /* \"contracts/DateUtils.sol\":21114:21139  getYear(secondsRemaining) */\n      tag_37\n        /* \"contracts/DateUtils.sol\":21122:21138  secondsRemaining */\n      dup2\n        /* \"contracts/DateUtils.sol\":21114:21121  getYear */\n      tag_38\n        /* \"contracts/DateUtils.sol\":21114:21139  getYear(secondsRemaining) */\n      jump\t// in\n    tag_37:\n        /* \"contracts/DateUtils.sol\":21087:21139  (secondsRemaining, year) = getYear(secondsRemaining) */\n      dup1\n      swap9\n      pop\n      dup2\n      swap3\n      pop\n      pop\n      pop\n        /* \"contracts/DateUtils.sol\":21174:21206  getMonth(secondsRemaining, year) */\n      tag_39\n        /* \"contracts/DateUtils.sol\":21183:21199  secondsRemaining */\n      dup2\n        /* \"contracts/DateUtils.sol\":21201:21205  year */\n      dup9\n        /* \"contracts/DateUtils.sol\":21174:21182  getMonth */\n      tag_40\n        /* \"contracts/DateUtils.sol\":21174:21206  getMonth(secondsRemaining, year) */\n      jump\t// in\n    tag_39:\n        /* \"contracts/DateUtils.sol\":21146:21206  (secondsRemaining, month) = getMonth(secondsRemaining, year) */\n      dup1\n      swap8\n      pop\n      dup2\n      swap3\n      pop\n      pop\n      pop\n        /* \"contracts/DateUtils.sol\":21239:21263  getDay(secondsRemaining) */\n      tag_41\n        /* \"contracts/DateUtils.sol\":21246:21262  secondsRemaining */\n      dup2\n        /* \"contracts/DateUtils.sol\":21239:21245  getDay */\n      tag_42\n        /* \"contracts/DateUtils.sol\":21239:21263  getDay(secondsRemaining) */\n      jump\t// in\n    tag_41:\n        /* \"contracts/DateUtils.sol\":21213:21263  (secondsRemaining, day) = getDay(secondsRemaining) */\n      dup1\n      swap7\n      pop\n      dup2\n      swap3\n      pop\n      pop\n      pop\n        /* \"contracts/DateUtils.sol\":21297:21322  getHour(secondsRemaining) */\n      tag_43\n        /* \"contracts/DateUtils.sol\":21305:21321  secondsRemaining */\n      dup2\n        /* \"contracts/DateUtils.sol\":21297:21304  getHour */\n      tag_44\n        /* \"contracts/DateUtils.sol\":21297:21322  getHour(secondsRemaining) */\n      jump\t// in\n    tag_43:\n        /* \"contracts/DateUtils.sol\":21270:21322  (secondsRemaining, hour) = getHour(secondsRemaining) */\n      dup1\n      swap6\n      pop\n      dup2\n      swap3\n      pop\n      pop\n      pop\n        /* \"contracts/DateUtils.sol\":21358:21385  getMinute(secondsRemaining) */\n      tag_45\n        /* \"contracts/DateUtils.sol\":21368:21384  secondsRemaining */\n      dup2\n        /* \"contracts/DateUtils.sol\":21358:21367  getMinute */\n      tag_46\n        /* \"contracts/DateUtils.sol\":21358:21385  getMinute(secondsRemaining) */\n      jump\t// in\n    tag_45:\n        /* \"contracts/DateUtils.sol\":21329:21385  (secondsRemaining, minute) = getMinute(secondsRemaining) */\n      dup1\n      swap5\n      pop\n      dup2\n      swap3\n      pop\n      pop\n      pop\n        /* \"contracts/DateUtils.sol\":21407:21423  secondsRemaining */\n      dup1\n        /* \"contracts/DateUtils.sol\":21392:21424  second = uint8(secondsRemaining) */\n      swap2\n      pop\n        /* \"contracts/DateUtils.sol\":21038:21431  {... */\n      pop\n        /* \"contracts/DateUtils.sol\":20582:21431  function convertTimestampToYMDHMS(uint256 _dt)... */\n      swap2\n      swap4\n      swap6\n      pop\n      swap2\n      swap4\n      swap6\n      jump\t// out\n        /* \"contracts/DateUtils.sol\":4327:4949  function isValidYMDHMS(uint16 _y,... */\n    tag_18:\n        /* \"contracts/DateUtils.sol\":4625:4629  bool */\n      0x00\n        /* \"contracts/DateUtils.sol\":4646:4661  isValidYear(_y) */\n      tag_48\n        /* \"contracts/DateUtils.sol\":4658:4660  _y */\n      dup8\n        /* \"contracts/DateUtils.sol\":4646:4657  isValidYear */\n      tag_49\n        /* \"contracts/DateUtils.sol\":4646:4661  isValidYear(_y) */\n      jump\t// in\n    tag_48:\n        /* \"contracts/DateUtils.sol\":4641:4680  if (!isValidYear(_y)) { return false; } */\n      tag_50\n      jumpi\n        /* \"contracts/DateUtils.sol\":4672:4677  false */\n      0x00\n        /* \"contracts/DateUtils.sol\":4665:4677  return false */\n      swap1\n      pop\n      jump(tag_47)\n        /* \"contracts/DateUtils.sol\":4641:4680  if (!isValidYear(_y)) { return false; } */\n    tag_50:\n        /* \"contracts/DateUtils.sol\":4692:4708  isValidMonth(_m) */\n      tag_51\n        /* \"contracts/DateUtils.sol\":4705:4707  _m */\n      dup7\n        /* \"contracts/DateUtils.sol\":4692:4704  isValidMonth */\n      tag_52\n        /* \"contracts/DateUtils.sol\":4692:4708  isValidMonth(_m) */\n      jump\t// in\n    tag_51:\n        /* \"contracts/DateUtils.sol\":4687:4727  if (!isValidMonth(_m)) { return false; } */\n      tag_53\n      jumpi\n        /* \"contracts/DateUtils.sol\":4719:4724  false */\n      0x00\n        /* \"contracts/DateUtils.sol\":4712:4724  return false */\n      swap1\n      pop\n      jump(tag_47)\n        /* \"contracts/DateUtils.sol\":4687:4727  if (!isValidMonth(_m)) { return false; } */\n    tag_53:\n        /* \"contracts/DateUtils.sol\":4739:4761  isValidDay(_y, _m, _d) */\n      tag_54\n        /* \"contracts/DateUtils.sol\":4750:4752  _y */\n      dup8\n        /* \"contracts/DateUtils.sol\":4754:4756  _m */\n      dup8\n        /* \"contracts/DateUtils.sol\":4758:4760  _d */\n      dup8\n        /* \"contracts/DateUtils.sol\":4739:4749  isValidDay */\n      tag_55\n        /* \"contracts/DateUtils.sol\":4739:4761  isValidDay(_y, _m, _d) */\n      jump\t// in\n    tag_54:\n        /* \"contracts/DateUtils.sol\":4734:4780  if (!isValidDay(_y, _m, _d)) { return false; } */\n      tag_56\n      jumpi\n        /* \"contracts/DateUtils.sol\":4772:4777  false */\n      0x00\n        /* \"contracts/DateUtils.sol\":4765:4777  return false */\n      swap1\n      pop\n      jump(tag_47)\n        /* \"contracts/DateUtils.sol\":4734:4780  if (!isValidDay(_y, _m, _d)) { return false; } */\n    tag_56:\n        /* \"contracts/DateUtils.sol\":4792:4807  isValidHour(_h) */\n      tag_57\n        /* \"contracts/DateUtils.sol\":4804:4806  _h */\n      dup5\n        /* \"contracts/DateUtils.sol\":4792:4803  isValidHour */\n      tag_58\n        /* \"contracts/DateUtils.sol\":4792:4807  isValidHour(_h) */\n      jump\t// in\n    tag_57:\n        /* \"contracts/DateUtils.sol\":4787:4826  if (!isValidHour(_h)) { return false; } */\n      tag_59\n      jumpi\n        /* \"contracts/DateUtils.sol\":4818:4823  false */\n      0x00\n        /* \"contracts/DateUtils.sol\":4811:4823  return false */\n      swap1\n      pop\n      jump(tag_47)\n        /* \"contracts/DateUtils.sol\":4787:4826  if (!isValidHour(_h)) { return false; } */\n    tag_59:\n        /* \"contracts/DateUtils.sol\":4838:4857  isValidMinute(_min) */\n      tag_60\n        /* \"contracts/DateUtils.sol\":4852:4856  _min */\n      dup4\n        /* \"contracts/DateUtils.sol\":4838:4851  isValidMinute */\n      tag_61\n        /* \"contracts/DateUtils.sol\":4838:4857  isValidMinute(_min) */\n      jump\t// in\n    tag_60:\n        /* \"contracts/DateUtils.sol\":4833:4876  if (!isValidMinute(_min)) { return false; } */\n      tag_62\n      jumpi\n        /* \"contracts/DateUtils.sol\":4868:4873  false */\n      0x00\n        /* \"contracts/DateUtils.sol\":4861:4873  return false */\n      swap1\n      pop\n      jump(tag_47)\n        /* \"contracts/DateUtils.sol\":4833:4876  if (!isValidMinute(_min)) { return false; } */\n    tag_62:\n        /* \"contracts/DateUtils.sol\":4888:4905  isValidSecond(_s) */\n      tag_63\n        /* \"contracts/DateUtils.sol\":4902:4904  _s */\n      dup3\n        /* \"contracts/DateUtils.sol\":4888:4901  isValidSecond */\n      tag_64\n        /* \"contracts/DateUtils.sol\":4888:4905  isValidSecond(_s) */\n      jump\t// in\n    tag_63:\n        /* \"contracts/DateUtils.sol\":4883:4924  if (!isValidSecond(_s)) { return false; } */\n      tag_65\n      jumpi\n        /* \"contracts/DateUtils.sol\":4916:4921  false */\n      0x00\n        /* \"contracts/DateUtils.sol\":4909:4921  return false */\n      swap1\n      pop\n      jump(tag_47)\n        /* \"contracts/DateUtils.sol\":4883:4924  if (!isValidSecond(_s)) { return false; } */\n    tag_65:\n        /* \"contracts/DateUtils.sol\":4938:4942  true */\n      0x01\n        /* \"contracts/DateUtils.sol\":4931:4942  return true */\n      swap1\n      pop\n        /* \"contracts/DateUtils.sol\":4327:4949  function isValidYMDHMS(uint16 _y,... */\n    tag_47:\n      swap7\n      swap6\n      pop\n      pop\n      pop\n      pop\n      pop\n      pop\n      jump\t// out\n        /* \"contracts/DateUtils.sol\":15911:17259  function addYearSeconds(uint256 _ts,... */\n    tag_21:\n        /* \"contracts/DateUtils.sol\":16068:16075  uint256 */\n      0x00\n        /* \"contracts/DateUtils.sol\":16087:16105  uint16 yearCounter */\n      dup1\n        /* \"contracts/DateUtils.sol\":16113:16123  uint256 ts */\n      0x00\n        /* \"contracts/DateUtils.sol\":16126:16129  _ts */\n      dup5\n        /* \"contracts/DateUtils.sol\":16113:16129  uint256 ts = _ts */\n      swap1\n      pop\n        /* \"contracts/DateUtils.sol\":16151:16155  1972 */\n      0x07b4\n        /* \"contracts/DateUtils.sol\":16143:16148  _year */\n      dup5\n        /* \"contracts/DateUtils.sol\":16143:16155  _year < 1972 */\n      0xffff\n      and\n      lt\n        /* \"contracts/DateUtils.sol\":16139:17234  if (_year < 1972) {... */\n      iszero\n      tag_67\n      jumpi\n        /* \"contracts/DateUtils.sol\":1490:1498  31536000 */\n      0x01e13380\n        /* \"contracts/DateUtils.sol\":16184:16188  1970 */\n      0x07b2\n        /* \"contracts/DateUtils.sol\":16176:16181  _year */\n      dup6\n        /* \"contracts/DateUtils.sol\":16176:16188  _year - 1970 */\n      tag_68\n      swap2\n      swap1\n      tag_69\n      jump\t// in\n    tag_68:\n        /* \"contracts/DateUtils.sol\":16175:16207  (_year - 1970) * SECONDS_IN_YEAR */\n      0xffff\n      and\n      tag_70\n      swap2\n      swap1\n      tag_29\n      jump\t// in\n    tag_70:\n        /* \"contracts/DateUtils.sol\":16169:16207  ts += (_year - 1970) * SECONDS_IN_YEAR */\n      dup2\n      tag_71\n      swap2\n      swap1\n      tag_25\n      jump\t// in\n    tag_71:\n      swap1\n      pop\n        /* \"contracts/DateUtils.sol\":16139:17234  if (_year < 1972) {... */\n      jump(tag_72)\n    tag_67:\n        /* \"contracts/DateUtils.sol\":1490:1498  31536000 */\n      0x01e13380\n        /* \"contracts/DateUtils.sol\":16242:16243  2 */\n      0x02\n        /* \"contracts/DateUtils.sol\":16242:16261  2 * SECONDS_IN_YEAR */\n      tag_73\n      swap2\n      swap1\n      tag_29\n      jump\t// in\n    tag_73:\n        /* \"contracts/DateUtils.sol\":16236:16261  ts += 2 * SECONDS_IN_YEAR */\n      dup2\n      tag_74\n      swap2\n      swap1\n      tag_25\n      jump\t// in\n    tag_74:\n      swap1\n      pop\n        /* \"contracts/DateUtils.sol\":16285:16289  1972 */\n      0x07b4\n        /* \"contracts/DateUtils.sol\":16271:16289  yearCounter = 1972 */\n      swap2\n      pop\n        /* \"contracts/DateUtils.sol\":16314:16318  2000 */\n      0x07d0\n        /* \"contracts/DateUtils.sol\":16305:16310  _year */\n      dup5\n        /* \"contracts/DateUtils.sol\":16305:16318  _year >= 2000 */\n      0xffff\n      and\n      lt\n        /* \"contracts/DateUtils.sol\":16301:16826  if (_year >= 2000) {... */\n      tag_75\n      jumpi\n        /* \"contracts/DateUtils.sol\":1637:1646  883612800 */\n      0x34aadc80\n        /* \"contracts/DateUtils.sol\":16334:16382  ts += SECONDS_BETWEEN_JAN_1_1972_AND_DEC_31_1999 */\n      dup2\n      tag_76\n      swap2\n      swap1\n      tag_25\n      jump\t// in\n    tag_76:\n      swap1\n      pop\n        /* \"contracts/DateUtils.sol\":16408:16412  2000 */\n      0x07d0\n        /* \"contracts/DateUtils.sol\":16394:16412  yearCounter = 2000 */\n      swap2\n      pop\n        /* \"contracts/DateUtils.sol\":16446:16578  incrementYearAndTimestamp(_year, yearCounter, ts,... */\n      tag_77\n        /* \"contracts/DateUtils.sol\":16472:16477  _year */\n      dup5\n        /* \"contracts/DateUtils.sol\":16479:16490  yearCounter */\n      dup4\n        /* \"contracts/DateUtils.sol\":16492:16494  ts */\n      dup4\n        /* \"contracts/DateUtils.sol\":16552:16555  400 */\n      0x0190\n        /* \"contracts/DateUtils.sol\":1748:1759  12622780800 */\n      0x02f0605980\n        /* \"contracts/DateUtils.sol\":16446:16471  incrementYearAndTimestamp */\n      tag_78\n        /* \"contracts/DateUtils.sol\":16446:16578  incrementYearAndTimestamp(_year, yearCounter, ts,... */\n      jump\t// in\n    tag_77:\n        /* \"contracts/DateUtils.sol\":16426:16578  (yearCounter, ts) = incrementYearAndTimestamp(_year, yearCounter, ts,... */\n      dup1\n      swap3\n      pop\n      dup2\n      swap4\n      pop\n      pop\n      pop\n        /* \"contracts/DateUtils.sol\":16610:16651  incrementLeapYear(_year, yearCounter, ts) */\n      tag_79\n        /* \"contracts/DateUtils.sol\":16628:16633  _year */\n      dup5\n        /* \"contracts/DateUtils.sol\":16635:16646  yearCounter */\n      dup4\n        /* \"contracts/DateUtils.sol\":16648:16650  ts */\n      dup4\n        /* \"contracts/DateUtils.sol\":16610:16627  incrementLeapYear */\n      tag_80\n        /* \"contracts/DateUtils.sol\":16610:16651  incrementLeapYear(_year, yearCounter, ts) */\n      jump\t// in\n    tag_79:\n        /* \"contracts/DateUtils.sol\":16590:16651  (yearCounter, ts) = incrementLeapYear(_year, yearCounter, ts) */\n      dup1\n      swap3\n      pop\n      dup2\n      swap4\n      pop\n      pop\n      pop\n        /* \"contracts/DateUtils.sol\":16683:16815  incrementYearAndTimestamp(_year, yearCounter, ts,... */\n      tag_81\n        /* \"contracts/DateUtils.sol\":16709:16714  _year */\n      dup5\n        /* \"contracts/DateUtils.sol\":16716:16727  yearCounter */\n      dup4\n        /* \"contracts/DateUtils.sol\":16729:16731  ts */\n      dup4\n        /* \"contracts/DateUtils.sol\":16789:16792  100 */\n      0x64\n        /* \"contracts/DateUtils.sol\":1692:1702  3155673600 */\n      0xbc17c200\n        /* \"contracts/DateUtils.sol\":16683:16708  incrementYearAndTimestamp */\n      tag_78\n        /* \"contracts/DateUtils.sol\":16683:16815  incrementYearAndTimestamp(_year, yearCounter, ts,... */\n      jump\t// in\n    tag_81:\n        /* \"contracts/DateUtils.sol\":16663:16815  (yearCounter, ts) = incrementYearAndTimestamp(_year, yearCounter, ts,... */\n      dup1\n      swap3\n      pop\n      dup2\n      swap4\n      pop\n      pop\n      pop\n        /* \"contracts/DateUtils.sol\":16301:16826  if (_year >= 2000) {... */\n    tag_75:\n        /* \"contracts/DateUtils.sol\":16857:17001  incrementYearAndTimestamp(_year, yearCounter, ts,... */\n      tag_82\n        /* \"contracts/DateUtils.sol\":16883:16888  _year */\n      dup5\n        /* \"contracts/DateUtils.sol\":16890:16901  yearCounter */\n      dup4\n        /* \"contracts/DateUtils.sol\":16903:16905  ts */\n      dup4\n        /* \"contracts/DateUtils.sol\":16961:16962  4 */\n      0x04\n        /* \"contracts/DateUtils.sol\":1560:1569  126230400 */\n      0x07861f80\n        /* \"contracts/DateUtils.sol\":16857:16882  incrementYearAndTimestamp */\n      tag_78\n        /* \"contracts/DateUtils.sol\":16857:17001  incrementYearAndTimestamp(_year, yearCounter, ts,... */\n      jump\t// in\n    tag_82:\n        /* \"contracts/DateUtils.sol\":16837:17001  (yearCounter, ts) = incrementYearAndTimestamp(_year, yearCounter, ts,... */\n      dup1\n      swap3\n      pop\n      dup2\n      swap4\n      pop\n      pop\n      pop\n        /* \"contracts/DateUtils.sol\":17031:17072  incrementLeapYear(_year, yearCounter, ts) */\n      tag_83\n        /* \"contracts/DateUtils.sol\":17049:17054  _year */\n      dup5\n        /* \"contracts/DateUtils.sol\":17056:17067  yearCounter */\n      dup4\n        /* \"contracts/DateUtils.sol\":17069:17071  ts */\n      dup4\n        /* \"contracts/DateUtils.sol\":17031:17048  incrementLeapYear */\n      tag_80\n        /* \"contracts/DateUtils.sol\":17031:17072  incrementLeapYear(_year, yearCounter, ts) */\n      jump\t// in\n    tag_83:\n        /* \"contracts/DateUtils.sol\":17011:17072  (yearCounter, ts) = incrementLeapYear(_year, yearCounter, ts) */\n      dup1\n      swap3\n      pop\n      dup2\n      swap4\n      pop\n      pop\n      pop\n        /* \"contracts/DateUtils.sol\":17102:17225  incrementYearAndTimestamp(_year, yearCounter, ts,... */\n      tag_84\n        /* \"contracts/DateUtils.sol\":17128:17133  _year */\n      dup5\n        /* \"contracts/DateUtils.sol\":17135:17146  yearCounter */\n      dup4\n        /* \"contracts/DateUtils.sol\":17148:17150  ts */\n      dup4\n        /* \"contracts/DateUtils.sol\":17206:17207  1 */\n      0x01\n        /* \"contracts/DateUtils.sol\":1490:1498  31536000 */\n      0x01e13380\n        /* \"contracts/DateUtils.sol\":17102:17127  incrementYearAndTimestamp */\n      tag_78\n        /* \"contracts/DateUtils.sol\":17102:17225  incrementYearAndTimestamp(_year, yearCounter, ts,... */\n      jump\t// in\n    tag_84:\n        /* \"contracts/DateUtils.sol\":17082:17225  (yearCounter, ts) = incrementYearAndTimestamp(_year, yearCounter, ts,... */\n      dup1\n      swap3\n      pop\n      dup2\n      swap4\n      pop\n      pop\n      pop\n        /* \"contracts/DateUtils.sol\":16139:17234  if (_year < 1972) {... */\n    tag_72:\n        /* \"contracts/DateUtils.sol\":17250:17252  ts */\n      dup1\n        /* \"contracts/DateUtils.sol\":17243:17252  return ts */\n      swap3\n      pop\n      pop\n      pop\n        /* \"contracts/DateUtils.sol\":15911:17259  function addYearSeconds(uint256 _ts,... */\n      swap3\n      swap2\n      pop\n      pop\n      jump\t// out\n        /* \"contracts/DateUtils.sol\":17266:17999  function addMonthSeconds(uint16 _year,... */\n    tag_23:\n        /* \"contracts/DateUtils.sol\":17428:17435  uint256 */\n      0x00\n        /* \"contracts/DateUtils.sol\":17447:17480  uint32[13] memory monthSecondsMap */\n      tag_86\n      tag_87\n      jump\t// in\n    tag_86:\n        /* \"contracts/DateUtils.sol\":17494:17511  isLeapYear(_year) */\n      tag_88\n        /* \"contracts/DateUtils.sol\":17505:17510  _year */\n      dup5\n        /* \"contracts/DateUtils.sol\":17494:17504  isLeapYear */\n      tag_89\n        /* \"contracts/DateUtils.sol\":17494:17511  isLeapYear(_year) */\n      jump\t// in\n    tag_88:\n        /* \"contracts/DateUtils.sol\":17490:17940  if (isLeapYear(_year)){... */\n      iszero\n      tag_90\n      jumpi\n        /* \"contracts/DateUtils.sol\":17522:17714  monthSecondsMap = [0, 2678400, 5184000, 7862400, 10454400, 13132800,... */\n      mload(0x40)\n      dup1\n      0x01a0\n      add\n      0x40\n      mstore\n      dup1\n        /* \"contracts/DateUtils.sol\":17541:17542  0 */\n      0x00\n        /* \"contracts/DateUtils.sol\":17522:17714  monthSecondsMap = [0, 2678400, 5184000, 7862400, 10454400, 13132800,... */\n      0xffffffff\n      and\n      dup2\n      mstore\n      0x20\n      add\n        /* \"contracts/DateUtils.sol\":17544:17551  2678400 */\n      0x28de80\n        /* \"contracts/DateUtils.sol\":17522:17714  monthSecondsMap = [0, 2678400, 5184000, 7862400, 10454400, 13132800,... */\n      0xffffffff\n      and\n      dup2\n      mstore\n      0x20\n      add\n        /* \"contracts/DateUtils.sol\":17553:17560  5184000 */\n      0x4f1a00\n        /* \"contracts/DateUtils.sol\":17522:17714  monthSecondsMap = [0, 2678400, 5184000, 7862400, 10454400, 13132800,... */\n      0xffffffff\n      and\n      dup2\n      mstore\n      0x20\n      add\n        /* \"contracts/DateUtils.sol\":17562:17569  7862400 */\n      0x77f880\n        /* \"contracts/DateUtils.sol\":17522:17714  monthSecondsMap = [0, 2678400, 5184000, 7862400, 10454400, 13132800,... */\n      0xffffffff\n      and\n      dup2\n      mstore\n      0x20\n      add\n        /* \"contracts/DateUtils.sol\":17571:17579  10454400 */\n      0x9f8580\n        /* \"contracts/DateUtils.sol\":17522:17714  monthSecondsMap = [0, 2678400, 5184000, 7862400, 10454400, 13132800,... */\n      0xffffffff\n      and\n      dup2\n      mstore\n      0x20\n      add\n        /* \"contracts/DateUtils.sol\":17581:17589  13132800 */\n      0xc86400\n        /* \"contracts/DateUtils.sol\":17522:17714  monthSecondsMap = [0, 2678400, 5184000, 7862400, 10454400, 13132800,... */\n      0xffffffff\n      and\n      dup2\n      mstore\n      0x20\n      add\n        /* \"contracts/DateUtils.sol\":17618:17626  15724800 */\n      0xeff100\n        /* \"contracts/DateUtils.sol\":17522:17714  monthSecondsMap = [0, 2678400, 5184000, 7862400, 10454400, 13132800,... */\n      0xffffffff\n      and\n      dup2\n      mstore\n      0x20\n      add\n        /* \"contracts/DateUtils.sol\":17628:17636  18403200 */\n      0x0118cf80\n        /* \"contracts/DateUtils.sol\":17522:17714  monthSecondsMap = [0, 2678400, 5184000, 7862400, 10454400, 13132800,... */\n      0xffffffff\n      and\n      dup2\n      mstore\n      0x20\n      add\n        /* \"contracts/DateUtils.sol\":17638:17646  21081600 */\n      0x0141ae00\n        /* \"contracts/DateUtils.sol\":17522:17714  monthSecondsMap = [0, 2678400, 5184000, 7862400, 10454400, 13132800,... */\n      0xffffffff\n      and\n      dup2\n      mstore\n      0x20\n      add\n        /* \"contracts/DateUtils.sol\":17648:17656  23673600 */\n      0x01693b00\n        /* \"contracts/DateUtils.sol\":17522:17714  monthSecondsMap = [0, 2678400, 5184000, 7862400, 10454400, 13132800,... */\n      0xffffffff\n      and\n      dup2\n      mstore\n      0x20\n      add\n        /* \"contracts/DateUtils.sol\":17658:17666  26352000 */\n      0x01921980\n        /* \"contracts/DateUtils.sol\":17522:17714  monthSecondsMap = [0, 2678400, 5184000, 7862400, 10454400, 13132800,... */\n      0xffffffff\n      and\n      dup2\n      mstore\n      0x20\n      add\n        /* \"contracts/DateUtils.sol\":17695:17703  28944000 */\n      0x01b9a680\n        /* \"contracts/DateUtils.sol\":17522:17714  monthSecondsMap = [0, 2678400, 5184000, 7862400, 10454400, 13132800,... */\n      0xffffffff\n      and\n      dup2\n      mstore\n      0x20\n      add\n        /* \"contracts/DateUtils.sol\":17705:17713  31622400 */\n      0x01e28500\n        /* \"contracts/DateUtils.sol\":17522:17714  monthSecondsMap = [0, 2678400, 5184000, 7862400, 10454400, 13132800,... */\n      0xffffffff\n      and\n      dup2\n      mstore\n      pop\n      swap1\n      pop\n        /* \"contracts/DateUtils.sol\":17490:17940  if (isLeapYear(_year)){... */\n      jump(tag_91)\n    tag_90:\n        /* \"contracts/DateUtils.sol\":17739:17931  monthSecondsMap = [0, 2678400, 5097600, 7776000, 10368000, 13046400,... */\n      mload(0x40)\n      dup1\n      0x01a0\n      add\n      0x40\n      mstore\n      dup1\n        /* \"contracts/DateUtils.sol\":17758:17759  0 */\n      0x00\n        /* \"contracts/DateUtils.sol\":17739:17931  monthSecondsMap = [0, 2678400, 5097600, 7776000, 10368000, 13046400,... */\n      0xffffffff\n      and\n      dup2\n      mstore\n      0x20\n      add\n        /* \"contracts/DateUtils.sol\":17761:17768  2678400 */\n      0x28de80\n        /* \"contracts/DateUtils.sol\":17739:17931  monthSecondsMap = [0, 2678400, 5097600, 7776000, 10368000, 13046400,... */\n      0xffffffff\n      and\n      dup2\n      mstore\n      0x20\n      add\n        /* \"contracts/DateUtils.sol\":17770:17777  5097600 */\n      0x4dc880\n        /* \"contracts/DateUtils.sol\":17739:17931  monthSecondsMap = [0, 2678400, 5097600, 7776000, 10368000, 13046400,... */\n      0xffffffff\n      and\n      dup2\n      mstore\n      0x20\n      add\n        /* \"contracts/DateUtils.sol\":17779:17786  7776000 */\n      0x76a700\n        /* \"contracts/DateUtils.sol\":17739:17931  monthSecondsMap = [0, 2678400, 5097600, 7776000, 10368000, 13046400,... */\n      0xffffffff\n      and\n      dup2\n      mstore\n      0x20\n      add\n        /* \"contracts/DateUtils.sol\":17788:17796  10368000 */\n      0x9e3400\n        /* \"contracts/DateUtils.sol\":17739:17931  monthSecondsMap = [0, 2678400, 5097600, 7776000, 10368000, 13046400,... */\n      0xffffffff\n      and\n      dup2\n      mstore\n      0x20\n      add\n        /* \"contracts/DateUtils.sol\":17798:17806  13046400 */\n      0xc71280\n        /* \"contracts/DateUtils.sol\":17739:17931  monthSecondsMap = [0, 2678400, 5097600, 7776000, 10368000, 13046400,... */\n      0xffffffff\n      and\n      dup2\n      mstore\n      0x20\n      add\n        /* \"contracts/DateUtils.sol\":17835:17843  15638400 */\n      0xee9f80\n        /* \"contracts/DateUtils.sol\":17739:17931  monthSecondsMap = [0, 2678400, 5097600, 7776000, 10368000, 13046400,... */\n      0xffffffff\n      and\n      dup2\n      mstore\n      0x20\n      add\n        /* \"contracts/DateUtils.sol\":17845:17853  18316800 */\n      0x01177e00\n        /* \"contracts/DateUtils.sol\":17739:17931  monthSecondsMap = [0, 2678400, 5097600, 7776000, 10368000, 13046400,... */\n      0xffffffff\n      and\n      dup2\n      mstore\n      0x20\n      add\n        /* \"contracts/DateUtils.sol\":17855:17863  20995200 */\n      0x01405c80\n        /* \"contracts/DateUtils.sol\":17739:17931  monthSecondsMap = [0, 2678400, 5097600, 7776000, 10368000, 13046400,... */\n      0xffffffff\n      and\n      dup2\n      mstore\n      0x20\n      add\n        /* \"contracts/DateUtils.sol\":17865:17873  23587200 */\n      0x0167e980\n        /* \"contracts/DateUtils.sol\":17739:17931  monthSecondsMap = [0, 2678400, 5097600, 7776000, 10368000, 13046400,... */\n      0xffffffff\n      and\n      dup2\n      mstore\n      0x20\n      add\n        /* \"contracts/DateUtils.sol\":17875:17883  26265600 */\n      0x0190c800\n        /* \"contracts/DateUtils.sol\":17739:17931  monthSecondsMap = [0, 2678400, 5097600, 7776000, 10368000, 13046400,... */\n      0xffffffff\n      and\n      dup2\n      mstore\n      0x20\n      add\n        /* \"contracts/DateUtils.sol\":17912:17920  28857600 */\n      0x01b85500\n        /* \"contracts/DateUtils.sol\":17739:17931  monthSecondsMap = [0, 2678400, 5097600, 7776000, 10368000, 13046400,... */\n      0xffffffff\n      and\n      dup2\n      mstore\n      0x20\n      add\n        /* \"contracts/DateUtils.sol\":17922:17930  31536000 */\n      0x01e13380\n        /* \"contracts/DateUtils.sol\":17739:17931  monthSecondsMap = [0, 2678400, 5097600, 7776000, 10368000, 13046400,... */\n      0xffffffff\n      and\n      dup2\n      mstore\n      pop\n      swap1\n      pop\n        /* \"contracts/DateUtils.sol\":17490:17940  if (isLeapYear(_year)){... */\n    tag_91:\n        /* \"contracts/DateUtils.sol\":17964:17979  monthSecondsMap */\n      dup1\n        /* \"contracts/DateUtils.sol\":17989:17990  1 */\n      0x01\n        /* \"contracts/DateUtils.sol\":17980:17986  _month */\n      dup5\n        /* \"contracts/DateUtils.sol\":17980:17990  _month - 1 */\n      tag_92\n      swap2\n      swap1\n      tag_27\n      jump\t// in\n    tag_92:\n        /* \"contracts/DateUtils.sol\":17964:17991  monthSecondsMap[_month - 1] */\n      0xff\n      and\n      0x0d\n      dup2\n      lt\n      tag_93\n      jumpi\n      tag_94\n      tag_95\n      jump\t// in\n    tag_94:\n    tag_93:\n      0x20\n      mul\n      add\n      mload\n        /* \"contracts/DateUtils.sol\":17956:17992  uint256(monthSecondsMap[_month - 1]) */\n      0xffffffff\n      and\n        /* \"contracts/DateUtils.sol\":17949:17992  return uint256(monthSecondsMap[_month - 1]) */\n      swap2\n      pop\n      pop\n        /* \"contracts/DateUtils.sol\":17266:17999  function addMonthSeconds(uint16 _year,... */\n      swap3\n      swap2\n      pop\n      pop\n      jump\t// out\n        /* \"contracts/DateUtils.sol\":11199:13106  function getYear(uint256 _secondsRemaining)... */\n    tag_38:\n        /* \"contracts/DateUtils.sol\":11307:11331  uint256 secondsRemaining */\n      0x00\n        /* \"contracts/DateUtils.sol\":11363:11374  uint16 year */\n      dup1\n        /* \"contracts/DateUtils.sol\":11386:11397  uint256 res */\n      0x00\n        /* \"contracts/DateUtils.sol\":11405:11429  uint32 secondsInThisYear */\n      dup1\n        /* \"contracts/DateUtils.sol\":11458:11475  _secondsRemaining */\n      dup5\n        /* \"contracts/DateUtils.sol\":11439:11475  secondsRemaining = _secondsRemaining */\n      swap4\n      pop\n        /* \"contracts/DateUtils.sol\":11490:11494  1970 */\n      0x07b2\n        /* \"contracts/DateUtils.sol\":11483:11494  year = 1970 */\n      swap3\n      pop\n        /* \"contracts/DateUtils.sol\":1490:1498  31536000 */\n      0x01e13380\n        /* \"contracts/DateUtils.sol\":11528:11529  2 */\n      0x02\n        /* \"contracts/DateUtils.sol\":11528:11547  2 * SECONDS_IN_YEAR */\n      tag_97\n      swap2\n      swap1\n      tag_29\n      jump\t// in\n    tag_97:\n        /* \"contracts/DateUtils.sol\":11508:11524  secondsRemaining */\n      dup5\n        /* \"contracts/DateUtils.sol\":11508:11548  secondsRemaining < (2 * SECONDS_IN_YEAR) */\n      lt\n        /* \"contracts/DateUtils.sol\":11504:13100  if (secondsRemaining < (2 * SECONDS_IN_YEAR)) {... */\n      iszero\n      tag_98\n      jumpi\n        /* \"contracts/DateUtils.sol\":1490:1498  31536000 */\n      0x01e13380\n        /* \"contracts/DateUtils.sol\":11568:11584  secondsRemaining */\n      dup5\n        /* \"contracts/DateUtils.sol\":11568:11602  secondsRemaining / SECONDS_IN_YEAR */\n      tag_99\n      swap2\n      swap1\n      tag_100\n      jump\t// in\n    tag_99:\n        /* \"contracts/DateUtils.sol\":11562:11602  res = secondsRemaining / SECONDS_IN_YEAR */\n      swap2\n      pop\n        /* \"contracts/DateUtils.sol\":1490:1498  31536000 */\n      0x01e13380\n        /* \"contracts/DateUtils.sol\":11632:11635  res */\n      dup3\n        /* \"contracts/DateUtils.sol\":11632:11653  res * SECONDS_IN_YEAR */\n      tag_101\n      swap2\n      swap1\n      tag_29\n      jump\t// in\n    tag_101:\n        /* \"contracts/DateUtils.sol\":11612:11653  secondsRemaining -= res * SECONDS_IN_YEAR */\n      dup5\n      tag_102\n      swap2\n      swap1\n      tag_103\n      jump\t// in\n    tag_102:\n      swap4\n      pop\n        /* \"contracts/DateUtils.sol\":11678:11681  res */\n      dup2\n        /* \"contracts/DateUtils.sol\":11663:11682  year += uint16(res) */\n      dup4\n      tag_104\n      swap2\n      swap1\n      tag_105\n      jump\t// in\n    tag_104:\n      swap3\n      pop\n        /* \"contracts/DateUtils.sol\":11504:13100  if (secondsRemaining < (2 * SECONDS_IN_YEAR)) {... */\n      jump(tag_106)\n    tag_98:\n        /* \"contracts/DateUtils.sol\":1490:1498  31536000 */\n      0x01e13380\n        /* \"contracts/DateUtils.sol\":11731:11732  2 */\n      0x02\n        /* \"contracts/DateUtils.sol\":11731:11750  2 * SECONDS_IN_YEAR */\n      tag_107\n      swap2\n      swap1\n      tag_29\n      jump\t// in\n    tag_107:\n        /* \"contracts/DateUtils.sol\":11711:11750  secondsRemaining -= 2 * SECONDS_IN_YEAR */\n      dup5\n      tag_108\n      swap2\n      swap1\n      tag_103\n      jump\t// in\n    tag_108:\n      swap4\n      pop\n        /* \"contracts/DateUtils.sol\":11767:11771  1972 */\n      0x07b4\n        /* \"contracts/DateUtils.sol\":11760:11771  year = 1972 */\n      swap3\n      pop\n        /* \"contracts/DateUtils.sol\":1637:1646  883612800 */\n      0x34aadc80\n        /* \"contracts/DateUtils.sol\":11787:11803  secondsRemaining */\n      dup5\n        /* \"contracts/DateUtils.sol\":11787:11849  secondsRemaining >= SECONDS_BETWEEN_JAN_1_1972_AND_DEC_31_1999 */\n      lt\n        /* \"contracts/DateUtils.sol\":11783:12532  if (secondsRemaining >= SECONDS_BETWEEN_JAN_1_1972_AND_DEC_31_1999) {... */\n      tag_109\n      jumpi\n        /* \"contracts/DateUtils.sol\":1637:1646  883612800 */\n      0x34aadc80\n        /* \"contracts/DateUtils.sol\":11865:11927  secondsRemaining -= SECONDS_BETWEEN_JAN_1_1972_AND_DEC_31_1999 */\n      dup5\n      tag_110\n      swap2\n      swap1\n      tag_103\n      jump\t// in\n    tag_110:\n      swap4\n      pop\n        /* \"contracts/DateUtils.sol\":11947:11949  28 */\n      0x1c\n        /* \"contracts/DateUtils.sol\":11939:11949  year += 28 */\n      dup4\n      tag_111\n      swap2\n      swap1\n      tag_105\n      jump\t// in\n    tag_111:\n      swap3\n      pop\n        /* \"contracts/DateUtils.sol\":1748:1759  12622780800 */\n      0x02f0605980\n        /* \"contracts/DateUtils.sol\":11969:11985  secondsRemaining */\n      dup5\n        /* \"contracts/DateUtils.sol\":11969:12008  secondsRemaining / SECONDS_IN_400_YEARS */\n      tag_112\n      swap2\n      swap1\n      tag_100\n      jump\t// in\n    tag_112:\n        /* \"contracts/DateUtils.sol\":11963:12008  res = secondsRemaining / SECONDS_IN_400_YEARS */\n      swap2\n      pop\n        /* \"contracts/DateUtils.sol\":1748:1759  12622780800 */\n      0x02f0605980\n        /* \"contracts/DateUtils.sol\":12040:12043  res */\n      dup3\n        /* \"contracts/DateUtils.sol\":12040:12066  res * SECONDS_IN_400_YEARS */\n      tag_113\n      swap2\n      swap1\n      tag_29\n      jump\t// in\n    tag_113:\n        /* \"contracts/DateUtils.sol\":12020:12066  secondsRemaining -= res * SECONDS_IN_400_YEARS */\n      dup5\n      tag_114\n      swap2\n      swap1\n      tag_103\n      jump\t// in\n    tag_114:\n      swap4\n      pop\n        /* \"contracts/DateUtils.sol\":12099:12102  400 */\n      0x0190\n        /* \"contracts/DateUtils.sol\":12093:12096  res */\n      dup3\n        /* \"contracts/DateUtils.sol\":12093:12102  res * 400 */\n      tag_115\n      swap2\n      swap1\n      tag_29\n      jump\t// in\n    tag_115:\n        /* \"contracts/DateUtils.sol\":12078:12103  year += uint16(res * 400) */\n      dup4\n      tag_116\n      swap2\n      swap1\n      tag_105\n      jump\t// in\n    tag_116:\n      swap3\n      pop\n        /* \"contracts/DateUtils.sol\":12144:12166  getSecondsInYear(year) */\n      tag_117\n        /* \"contracts/DateUtils.sol\":12161:12165  year */\n      dup4\n        /* \"contracts/DateUtils.sol\":12144:12160  getSecondsInYear */\n      tag_118\n        /* \"contracts/DateUtils.sol\":12144:12166  getSecondsInYear(year) */\n      jump\t// in\n    tag_117:\n        /* \"contracts/DateUtils.sol\":12117:12167  secondsInThisYear = uint32(getSecondsInYear(year)) */\n      swap1\n      pop\n        /* \"contracts/DateUtils.sol\":12205:12222  secondsInThisYear */\n      dup1\n        /* \"contracts/DateUtils.sol\":12185:12222  secondsRemaining >= secondsInThisYear */\n      0xffffffff\n      and\n        /* \"contracts/DateUtils.sol\":12185:12201  secondsRemaining */\n      dup5\n        /* \"contracts/DateUtils.sol\":12185:12222  secondsRemaining >= secondsInThisYear */\n      lt\n        /* \"contracts/DateUtils.sol\":12181:12313  if (secondsRemaining >= secondsInThisYear) {... */\n      tag_119\n      jumpi\n        /* \"contracts/DateUtils.sol\":12260:12277  secondsInThisYear */\n      dup1\n        /* \"contracts/DateUtils.sol\":12240:12277  secondsRemaining -= secondsInThisYear */\n      0xffffffff\n      and\n      dup5\n      tag_120\n      swap2\n      swap1\n      tag_103\n      jump\t// in\n    tag_120:\n      swap4\n      pop\n        /* \"contracts/DateUtils.sol\":12299:12300  1 */\n      0x01\n        /* \"contracts/DateUtils.sol\":12291:12300  year += 1 */\n      dup4\n      tag_121\n      swap2\n      swap1\n      tag_105\n      jump\t// in\n    tag_121:\n      swap3\n      pop\n        /* \"contracts/DateUtils.sol\":12181:12313  if (secondsRemaining >= secondsInThisYear) {... */\n    tag_119:\n        /* \"contracts/DateUtils.sol\":12331:12347  isLeapYear(year) */\n      tag_122\n        /* \"contracts/DateUtils.sol\":12342:12346  year */\n      dup4\n        /* \"contracts/DateUtils.sol\":12331:12341  isLeapYear */\n      tag_89\n        /* \"contracts/DateUtils.sol\":12331:12347  isLeapYear(year) */\n      jump\t// in\n    tag_122:\n        /* \"contracts/DateUtils.sol\":12326:12522  if (!isLeapYear(year)) {... */\n      tag_123\n      jumpi\n        /* \"contracts/DateUtils.sol\":1692:1702  3155673600 */\n      0xbc17c200\n        /* \"contracts/DateUtils.sol\":12371:12387  secondsRemaining */\n      dup5\n        /* \"contracts/DateUtils.sol\":12371:12410  secondsRemaining / SECONDS_IN_100_YEARS */\n      tag_124\n      swap2\n      swap1\n      tag_100\n      jump\t// in\n    tag_124:\n        /* \"contracts/DateUtils.sol\":12365:12410  res = secondsRemaining / SECONDS_IN_100_YEARS */\n      swap2\n      pop\n        /* \"contracts/DateUtils.sol\":1692:1702  3155673600 */\n      0xbc17c200\n        /* \"contracts/DateUtils.sol\":12444:12447  res */\n      dup3\n        /* \"contracts/DateUtils.sol\":12444:12470  res * SECONDS_IN_100_YEARS */\n      tag_125\n      swap2\n      swap1\n      tag_29\n      jump\t// in\n    tag_125:\n        /* \"contracts/DateUtils.sol\":12424:12470  secondsRemaining -= res * SECONDS_IN_100_YEARS */\n      dup5\n      tag_126\n      swap2\n      swap1\n      tag_103\n      jump\t// in\n    tag_126:\n      swap4\n      pop\n        /* \"contracts/DateUtils.sol\":12505:12508  100 */\n      0x64\n        /* \"contracts/DateUtils.sol\":12499:12502  res */\n      dup3\n        /* \"contracts/DateUtils.sol\":12499:12508  res * 100 */\n      tag_127\n      swap2\n      swap1\n      tag_29\n      jump\t// in\n    tag_127:\n        /* \"contracts/DateUtils.sol\":12484:12509  year += uint16(res * 100) */\n      dup4\n      tag_128\n      swap2\n      swap1\n      tag_105\n      jump\t// in\n    tag_128:\n      swap3\n      pop\n        /* \"contracts/DateUtils.sol\":12326:12522  if (!isLeapYear(year)) {... */\n    tag_123:\n        /* \"contracts/DateUtils.sol\":11783:12532  if (secondsRemaining >= SECONDS_BETWEEN_JAN_1_1972_AND_DEC_31_1999) {... */\n    tag_109:\n        /* \"contracts/DateUtils.sol\":1560:1569  126230400 */\n      0x07861f80\n        /* \"contracts/DateUtils.sol\":12549:12565  secondsRemaining */\n      dup5\n        /* \"contracts/DateUtils.sol\":12549:12604  secondsRemaining / SECONDS_IN_FOUR_YEARS_WITH_LEAP_YEAR */\n      tag_129\n      swap2\n      swap1\n      tag_100\n      jump\t// in\n    tag_129:\n        /* \"contracts/DateUtils.sol\":12543:12604  res = secondsRemaining / SECONDS_IN_FOUR_YEARS_WITH_LEAP_YEAR */\n      swap2\n      pop\n        /* \"contracts/DateUtils.sol\":1560:1569  126230400 */\n      0x07861f80\n        /* \"contracts/DateUtils.sol\":12634:12637  res */\n      dup3\n        /* \"contracts/DateUtils.sol\":12634:12676  res * SECONDS_IN_FOUR_YEARS_WITH_LEAP_YEAR */\n      tag_130\n      swap2\n      swap1\n      tag_29\n      jump\t// in\n    tag_130:\n        /* \"contracts/DateUtils.sol\":12614:12676  secondsRemaining -= res * SECONDS_IN_FOUR_YEARS_WITH_LEAP_YEAR */\n      dup5\n      tag_131\n      swap2\n      swap1\n      tag_103\n      jump\t// in\n    tag_131:\n      swap4\n      pop\n        /* \"contracts/DateUtils.sol\":12707:12708  4 */\n      0x04\n        /* \"contracts/DateUtils.sol\":12701:12704  res */\n      dup3\n        /* \"contracts/DateUtils.sol\":12701:12708  res * 4 */\n      tag_132\n      swap2\n      swap1\n      tag_29\n      jump\t// in\n    tag_132:\n        /* \"contracts/DateUtils.sol\":12686:12709  year += uint16(res * 4) */\n      dup4\n      tag_133\n      swap2\n      swap1\n      tag_105\n      jump\t// in\n    tag_133:\n      swap3\n      pop\n        /* \"contracts/DateUtils.sol\":12748:12770  getSecondsInYear(year) */\n      tag_134\n        /* \"contracts/DateUtils.sol\":12765:12769  year */\n      dup4\n        /* \"contracts/DateUtils.sol\":12748:12764  getSecondsInYear */\n      tag_118\n        /* \"contracts/DateUtils.sol\":12748:12770  getSecondsInYear(year) */\n      jump\t// in\n    tag_134:\n        /* \"contracts/DateUtils.sol\":12721:12771  secondsInThisYear = uint32(getSecondsInYear(year)) */\n      swap1\n      pop\n        /* \"contracts/DateUtils.sol\":12807:12824  secondsInThisYear */\n      dup1\n        /* \"contracts/DateUtils.sol\":12787:12824  secondsRemaining >= secondsInThisYear */\n      0xffffffff\n      and\n        /* \"contracts/DateUtils.sol\":12787:12803  secondsRemaining */\n      dup5\n        /* \"contracts/DateUtils.sol\":12787:12824  secondsRemaining >= secondsInThisYear */\n      lt\n        /* \"contracts/DateUtils.sol\":12783:12909  if (secondsRemaining >= secondsInThisYear) {... */\n      tag_135\n      jumpi\n        /* \"contracts/DateUtils.sol\":12860:12877  secondsInThisYear */\n      dup1\n        /* \"contracts/DateUtils.sol\":12840:12877  secondsRemaining -= secondsInThisYear */\n      0xffffffff\n      and\n      dup5\n      tag_136\n      swap2\n      swap1\n      tag_103\n      jump\t// in\n    tag_136:\n      swap4\n      pop\n        /* \"contracts/DateUtils.sol\":12897:12898  1 */\n      0x01\n        /* \"contracts/DateUtils.sol\":12889:12898  year += 1 */\n      dup4\n      tag_137\n      swap2\n      swap1\n      tag_105\n      jump\t// in\n    tag_137:\n      swap3\n      pop\n        /* \"contracts/DateUtils.sol\":12783:12909  if (secondsRemaining >= secondsInThisYear) {... */\n    tag_135:\n        /* \"contracts/DateUtils.sol\":12925:12941  isLeapYear(year) */\n      tag_138\n        /* \"contracts/DateUtils.sol\":12936:12940  year */\n      dup4\n        /* \"contracts/DateUtils.sol\":12925:12935  isLeapYear */\n      tag_89\n        /* \"contracts/DateUtils.sol\":12925:12941  isLeapYear(year) */\n      jump\t// in\n    tag_138:\n        /* \"contracts/DateUtils.sol\":12920:13092  if (!isLeapYear(year)) {... */\n      tag_139\n      jumpi\n        /* \"contracts/DateUtils.sol\":1490:1498  31536000 */\n      0x01e13380\n        /* \"contracts/DateUtils.sol\":12963:12979  secondsRemaining */\n      dup5\n        /* \"contracts/DateUtils.sol\":12963:12997  secondsRemaining / SECONDS_IN_YEAR */\n      tag_140\n      swap2\n      swap1\n      tag_100\n      jump\t// in\n    tag_140:\n        /* \"contracts/DateUtils.sol\":12957:12997  res = secondsRemaining / SECONDS_IN_YEAR */\n      swap2\n      pop\n        /* \"contracts/DateUtils.sol\":1490:1498  31536000 */\n      0x01e13380\n        /* \"contracts/DateUtils.sol\":13029:13032  res */\n      dup3\n        /* \"contracts/DateUtils.sol\":13029:13050  res * SECONDS_IN_YEAR */\n      tag_141\n      swap2\n      swap1\n      tag_29\n      jump\t// in\n    tag_141:\n        /* \"contracts/DateUtils.sol\":13009:13050  secondsRemaining -= res * SECONDS_IN_YEAR */\n      dup5\n      tag_142\n      swap2\n      swap1\n      tag_103\n      jump\t// in\n    tag_142:\n      swap4\n      pop\n        /* \"contracts/DateUtils.sol\":13077:13080  res */\n      dup2\n        /* \"contracts/DateUtils.sol\":13062:13081  year += uint16(res) */\n      dup4\n      tag_143\n      swap2\n      swap1\n      tag_105\n      jump\t// in\n    tag_143:\n      swap3\n      pop\n        /* \"contracts/DateUtils.sol\":12920:13092  if (!isLeapYear(year)) {... */\n    tag_139:\n        /* \"contracts/DateUtils.sol\":11504:13100  if (secondsRemaining < (2 * SECONDS_IN_YEAR)) {... */\n    tag_106:\n        /* \"contracts/DateUtils.sol\":11376:13106  {... */\n      pop\n      pop\n        /* \"contracts/DateUtils.sol\":11199:13106  function getYear(uint256 _secondsRemaining)... */\n      swap2\n      pop\n      swap2\n      jump\t// out\n        /* \"contracts/DateUtils.sol\":13113:14285  function getMonth(uint256 _secondsRemaining,... */\n    tag_40:\n        /* \"contracts/DateUtils.sol\":13260:13284  uint256 secondsRemaining */\n      0x00\n        /* \"contracts/DateUtils.sol\":13317:13328  uint8 month */\n      dup1\n        /* \"contracts/DateUtils.sol\":13340:13368  uint8[13] memory monthDayMap */\n      tag_145\n      tag_146\n      jump\t// in\n    tag_145:\n        /* \"contracts/DateUtils.sol\":13376:13409  uint32[13] memory monthSecondsMap */\n      tag_147\n      tag_87\n      jump\t// in\n    tag_147:\n        /* \"contracts/DateUtils.sol\":13438:13455  _secondsRemaining */\n      dup6\n        /* \"contracts/DateUtils.sol\":13419:13455  secondsRemaining = _secondsRemaining */\n      swap4\n      pop\n        /* \"contracts/DateUtils.sol\":13469:13486  isLeapYear(_year) */\n      tag_148\n        /* \"contracts/DateUtils.sol\":13480:13485  _year */\n      dup6\n        /* \"contracts/DateUtils.sol\":13469:13479  isLeapYear */\n      tag_89\n        /* \"contracts/DateUtils.sol\":13469:13486  isLeapYear(_year) */\n      jump\t// in\n    tag_148:\n        /* \"contracts/DateUtils.sol\":13465:14071  if (isLeapYear(_year)){... */\n      iszero\n      tag_149\n      jumpi\n        /* \"contracts/DateUtils.sol\":13499:13564  monthDayMap = [0, 31, 29, 31, 30, 31, 30, 31, 31, 30, 31, 30, 31] */\n      mload(0x40)\n      dup1\n      0x01a0\n      add\n      0x40\n      mstore\n      dup1\n        /* \"contracts/DateUtils.sol\":13514:13515  0 */\n      0x00\n        /* \"contracts/DateUtils.sol\":13499:13564  monthDayMap = [0, 31, 29, 31, 30, 31, 30, 31, 31, 30, 31, 30, 31] */\n      0xff\n      and\n      dup2\n      mstore\n      0x20\n      add\n        /* \"contracts/DateUtils.sol\":13517:13519  31 */\n      0x1f\n        /* \"contracts/DateUtils.sol\":13499:13564  monthDayMap = [0, 31, 29, 31, 30, 31, 30, 31, 31, 30, 31, 30, 31] */\n      0xff\n      and\n      dup2\n      mstore\n      0x20\n      add\n        /* \"contracts/DateUtils.sol\":13521:13523  29 */\n      0x1d\n        /* \"contracts/DateUtils.sol\":13499:13564  monthDayMap = [0, 31, 29, 31, 30, 31, 30, 31, 31, 30, 31, 30, 31] */\n      0xff\n      and\n      dup2\n      mstore\n      0x20\n      add\n        /* \"contracts/DateUtils.sol\":13525:13527  31 */\n      0x1f\n        /* \"contracts/DateUtils.sol\":13499:13564  monthDayMap = [0, 31, 29, 31, 30, 31, 30, 31, 31, 30, 31, 30, 31] */\n      0xff\n      and\n      dup2\n      mstore\n      0x20\n      add\n        /* \"contracts/DateUtils.sol\":13529:13531  30 */\n      0x1e\n        /* \"contracts/DateUtils.sol\":13499:13564  monthDayMap = [0, 31, 29, 31, 30, 31, 30, 31, 31, 30, 31, 30, 31] */\n      0xff\n      and\n      dup2\n      mstore\n      0x20\n      add\n        /* \"contracts/DateUtils.sol\":13533:13535  31 */\n      0x1f\n        /* \"contracts/DateUtils.sol\":13499:13564  monthDayMap = [0, 31, 29, 31, 30, 31, 30, 31, 31, 30, 31, 30, 31] */\n      0xff\n      and\n      dup2\n      mstore\n      0x20\n      add\n        /* \"contracts/DateUtils.sol\":13537:13539  30 */\n      0x1e\n        /* \"contracts/DateUtils.sol\":13499:13564  monthDayMap = [0, 31, 29, 31, 30, 31, 30, 31, 31, 30, 31, 30, 31] */\n      0xff\n      and\n      dup2\n      mstore\n      0x20\n      add\n        /* \"contracts/DateUtils.sol\":13541:13543  31 */\n      0x1f\n        /* \"contracts/DateUtils.sol\":13499:13564  monthDayMap = [0, 31, 29, 31, 30, 31, 30, 31, 31, 30, 31, 30, 31] */\n      0xff\n      and\n      dup2\n      mstore\n      0x20\n      add\n        /* \"contracts/DateUtils.sol\":13545:13547  31 */\n      0x1f\n        /* \"contracts/DateUtils.sol\":13499:13564  monthDayMap = [0, 31, 29, 31, 30, 31, 30, 31, 31, 30, 31, 30, 31] */\n      0xff\n      and\n      dup2\n      mstore\n      0x20\n      add\n        /* \"contracts/DateUtils.sol\":13549:13551  30 */\n      0x1e\n        /* \"contracts/DateUtils.sol\":13499:13564  monthDayMap = [0, 31, 29, 31, 30, 31, 30, 31, 31, 30, 31, 30, 31] */\n      0xff\n      and\n      dup2\n      mstore\n      0x20\n      add\n        /* \"contracts/DateUtils.sol\":13553:13555  31 */\n      0x1f\n        /* \"contracts/DateUtils.sol\":13499:13564  monthDayMap = [0, 31, 29, 31, 30, 31, 30, 31, 31, 30, 31, 30, 31] */\n      0xff\n      and\n      dup2\n      mstore\n      0x20\n      add\n        /* \"contracts/DateUtils.sol\":13557:13559  30 */\n      0x1e\n        /* \"contracts/DateUtils.sol\":13499:13564  monthDayMap = [0, 31, 29, 31, 30, 31, 30, 31, 31, 30, 31, 30, 31] */\n      0xff\n      and\n      dup2\n      mstore\n      0x20\n      add\n        /* \"contracts/DateUtils.sol\":13561:13563  31 */\n      0x1f\n        /* \"contracts/DateUtils.sol\":13499:13564  monthDayMap = [0, 31, 29, 31, 30, 31, 30, 31, 31, 30, 31, 30, 31] */\n      0xff\n      and\n      dup2\n      mstore\n      pop\n      swap2\n      pop\n        /* \"contracts/DateUtils.sol\":13574:13766  monthSecondsMap = [0, 2678400, 5184000, 7862400, 10454400, 13132800,... */\n      mload(0x40)\n      dup1\n      0x01a0\n      add\n      0x40\n      mstore\n      dup1\n        /* \"contracts/DateUtils.sol\":13593:13594  0 */\n      0x00\n        /* \"contracts/DateUtils.sol\":13574:13766  monthSecondsMap = [0, 2678400, 5184000, 7862400, 10454400, 13132800,... */\n      0xffffffff\n      and\n      dup2\n      mstore\n      0x20\n      add\n        /* \"contracts/DateUtils.sol\":13596:13603  2678400 */\n      0x28de80\n        /* \"contracts/DateUtils.sol\":13574:13766  monthSecondsMap = [0, 2678400, 5184000, 7862400, 10454400, 13132800,... */\n      0xffffffff\n      and\n      dup2\n      mstore\n      0x20\n      add\n        /* \"contracts/DateUtils.sol\":13605:13612  5184000 */\n      0x4f1a00\n        /* \"contracts/DateUtils.sol\":13574:13766  monthSecondsMap = [0, 2678400, 5184000, 7862400, 10454400, 13132800,... */\n      0xffffffff\n      and\n      dup2\n      mstore\n      0x20\n      add\n        /* \"contracts/DateUtils.sol\":13614:13621  7862400 */\n      0x77f880\n        /* \"contracts/DateUtils.sol\":13574:13766  monthSecondsMap = [0, 2678400, 5184000, 7862400, 10454400, 13132800,... */\n      0xffffffff\n      and\n      dup2\n      mstore\n      0x20\n      add\n        /* \"contracts/DateUtils.sol\":13623:13631  10454400 */\n      0x9f8580\n        /* \"contracts/DateUtils.sol\":13574:13766  monthSecondsMap = [0, 2678400, 5184000, 7862400, 10454400, 13132800,... */\n      0xffffffff\n      and\n      dup2\n      mstore\n      0x20\n      add\n        /* \"contracts/DateUtils.sol\":13633:13641  13132800 */\n      0xc86400\n        /* \"contracts/DateUtils.sol\":13574:13766  monthSecondsMap = [0, 2678400, 5184000, 7862400, 10454400, 13132800,... */\n      0xffffffff\n      and\n      dup2\n      mstore\n      0x20\n      add\n        /* \"contracts/DateUtils.sol\":13670:13678  15724800 */\n      0xeff100\n        /* \"contracts/DateUtils.sol\":13574:13766  monthSecondsMap = [0, 2678400, 5184000, 7862400, 10454400, 13132800,... */\n      0xffffffff\n      and\n      dup2\n      mstore\n      0x20\n      add\n        /* \"contracts/DateUtils.sol\":13680:13688  18403200 */\n      0x0118cf80\n        /* \"contracts/DateUtils.sol\":13574:13766  monthSecondsMap = [0, 2678400, 5184000, 7862400, 10454400, 13132800,... */\n      0xffffffff\n      and\n      dup2\n      mstore\n      0x20\n      add\n        /* \"contracts/DateUtils.sol\":13690:13698  21081600 */\n      0x0141ae00\n        /* \"contracts/DateUtils.sol\":13574:13766  monthSecondsMap = [0, 2678400, 5184000, 7862400, 10454400, 13132800,... */\n      0xffffffff\n      and\n      dup2\n      mstore\n      0x20\n      add\n        /* \"contracts/DateUtils.sol\":13700:13708  23673600 */\n      0x01693b00\n        /* \"contracts/DateUtils.sol\":13574:13766  monthSecondsMap = [0, 2678400, 5184000, 7862400, 10454400, 13132800,... */\n      0xffffffff\n      and\n      dup2\n      mstore\n      0x20\n      add\n        /* \"contracts/DateUtils.sol\":13710:13718  26352000 */\n      0x01921980\n        /* \"contracts/DateUtils.sol\":13574:13766  monthSecondsMap = [0, 2678400, 5184000, 7862400, 10454400, 13132800,... */\n      0xffffffff\n      and\n      dup2\n      mstore\n      0x20\n      add\n        /* \"contracts/DateUtils.sol\":13747:13755  28944000 */\n      0x01b9a680\n        /* \"contracts/DateUtils.sol\":13574:13766  monthSecondsMap = [0, 2678400, 5184000, 7862400, 10454400, 13132800,... */\n      0xffffffff\n      and\n      dup2\n      mstore\n      0x20\n      add\n        /* \"contracts/DateUtils.sol\":13757:13765  31622400 */\n      0x01e28500\n        /* \"contracts/DateUtils.sol\":13574:13766  monthSecondsMap = [0, 2678400, 5184000, 7862400, 10454400, 13132800,... */\n      0xffffffff\n      and\n      dup2\n      mstore\n      pop\n      swap1\n      pop\n        /* \"contracts/DateUtils.sol\":13465:14071  if (isLeapYear(_year)){... */\n      jump(tag_150)\n    tag_149:\n        /* \"contracts/DateUtils.sol\":13795:13860  monthDayMap = [0, 31, 28, 31, 30, 31, 30, 31, 31, 30, 31, 30, 31] */\n      mload(0x40)\n      dup1\n      0x01a0\n      add\n      0x40\n      mstore\n      dup1\n        /* \"contracts/DateUtils.sol\":13810:13811  0 */\n      0x00\n        /* \"contracts/DateUtils.sol\":13795:13860  monthDayMap = [0, 31, 28, 31, 30, 31, 30, 31, 31, 30, 31, 30, 31] */\n      0xff\n      and\n      dup2\n      mstore\n      0x20\n      add\n        /* \"contracts/DateUtils.sol\":13813:13815  31 */\n      0x1f\n        /* \"contracts/DateUtils.sol\":13795:13860  monthDayMap = [0, 31, 28, 31, 30, 31, 30, 31, 31, 30, 31, 30, 31] */\n      0xff\n      and\n      dup2\n      mstore\n      0x20\n      add\n        /* \"contracts/DateUtils.sol\":13817:13819  28 */\n      0x1c\n        /* \"contracts/DateUtils.sol\":13795:13860  monthDayMap = [0, 31, 28, 31, 30, 31, 30, 31, 31, 30, 31, 30, 31] */\n      0xff\n      and\n      dup2\n      mstore\n      0x20\n      add\n        /* \"contracts/DateUtils.sol\":13821:13823  31 */\n      0x1f\n        /* \"contracts/DateUtils.sol\":13795:13860  monthDayMap = [0, 31, 28, 31, 30, 31, 30, 31, 31, 30, 31, 30, 31] */\n      0xff\n      and\n      dup2\n      mstore\n      0x20\n      add\n        /* \"contracts/DateUtils.sol\":13825:13827  30 */\n      0x1e\n        /* \"contracts/DateUtils.sol\":13795:13860  monthDayMap = [0, 31, 28, 31, 30, 31, 30, 31, 31, 30, 31, 30, 31] */\n      0xff\n      and\n      dup2\n      mstore\n      0x20\n      add\n        /* \"contracts/DateUtils.sol\":13829:13831  31 */\n      0x1f\n        /* \"contracts/DateUtils.sol\":13795:13860  monthDayMap = [0, 31, 28, 31, 30, 31, 30, 31, 31, 30, 31, 30, 31] */\n      0xff\n      and\n      dup2\n      mstore\n      0x20\n      add\n        /* \"contracts/DateUtils.sol\":13833:13835  30 */\n      0x1e\n        /* \"contracts/DateUtils.sol\":13795:13860  monthDayMap = [0, 31, 28, 31, 30, 31, 30, 31, 31, 30, 31, 30, 31] */\n      0xff\n      and\n      dup2\n      mstore\n      0x20\n      add\n        /* \"contracts/DateUtils.sol\":13837:13839  31 */\n      0x1f\n        /* \"contracts/DateUtils.sol\":13795:13860  monthDayMap = [0, 31, 28, 31, 30, 31, 30, 31, 31, 30, 31, 30, 31] */\n      0xff\n      and\n      dup2\n      mstore\n      0x20\n      add\n        /* \"contracts/DateUtils.sol\":13841:13843  31 */\n      0x1f\n        /* \"contracts/DateUtils.sol\":13795:13860  monthDayMap = [0, 31, 28, 31, 30, 31, 30, 31, 31, 30, 31, 30, 31] */\n      0xff\n      and\n      dup2\n      mstore\n      0x20\n      add\n        /* \"contracts/DateUtils.sol\":13845:13847  30 */\n      0x1e\n        /* \"contracts/DateUtils.sol\":13795:13860  monthDayMap = [0, 31, 28, 31, 30, 31, 30, 31, 31, 30, 31, 30, 31] */\n      0xff\n      and\n      dup2\n      mstore\n      0x20\n      add\n        /* \"contracts/DateUtils.sol\":13849:13851  31 */\n      0x1f\n        /* \"contracts/DateUtils.sol\":13795:13860  monthDayMap = [0, 31, 28, 31, 30, 31, 30, 31, 31, 30, 31, 30, 31] */\n      0xff\n      and\n      dup2\n      mstore\n      0x20\n      add\n        /* \"contracts/DateUtils.sol\":13853:13855  30 */\n      0x1e\n        /* \"contracts/DateUtils.sol\":13795:13860  monthDayMap = [0, 31, 28, 31, 30, 31, 30, 31, 31, 30, 31, 30, 31] */\n      0xff\n      and\n      dup2\n      mstore\n      0x20\n      add\n        /* \"contracts/DateUtils.sol\":13857:13859  31 */\n      0x1f\n        /* \"contracts/DateUtils.sol\":13795:13860  monthDayMap = [0, 31, 28, 31, 30, 31, 30, 31, 31, 30, 31, 30, 31] */\n      0xff\n      and\n      dup2\n      mstore\n      pop\n      swap2\n      pop\n        /* \"contracts/DateUtils.sol\":13870:14062  monthSecondsMap = [0, 2678400, 5097600, 7776000, 10368000, 13046400,... */\n      mload(0x40)\n      dup1\n      0x01a0\n      add\n      0x40\n      mstore\n      dup1\n        /* \"contracts/DateUtils.sol\":13889:13890  0 */\n      0x00\n        /* \"contracts/DateUtils.sol\":13870:14062  monthSecondsMap = [0, 2678400, 5097600, 7776000, 10368000, 13046400,... */\n      0xffffffff\n      and\n      dup2\n      mstore\n      0x20\n      add\n        /* \"contracts/DateUtils.sol\":13892:13899  2678400 */\n      0x28de80\n        /* \"contracts/DateUtils.sol\":13870:14062  monthSecondsMap = [0, 2678400, 5097600, 7776000, 10368000, 13046400,... */\n      0xffffffff\n      and\n      dup2\n      mstore\n      0x20\n      add\n        /* \"contracts/DateUtils.sol\":13901:13908  5097600 */\n      0x4dc880\n        /* \"contracts/DateUtils.sol\":13870:14062  monthSecondsMap = [0, 2678400, 5097600, 7776000, 10368000, 13046400,... */\n      0xffffffff\n      and\n      dup2\n      mstore\n      0x20\n      add\n        /* \"contracts/DateUtils.sol\":13910:13917  7776000 */\n      0x76a700\n        /* \"contracts/DateUtils.sol\":13870:14062  monthSecondsMap = [0, 2678400, 5097600, 7776000, 10368000, 13046400,... */\n      0xffffffff\n      and\n      dup2\n      mstore\n      0x20\n      add\n        /* \"contracts/DateUtils.sol\":13919:13927  10368000 */\n      0x9e3400\n        /* \"contracts/DateUtils.sol\":13870:14062  monthSecondsMap = [0, 2678400, 5097600, 7776000, 10368000, 13046400,... */\n      0xffffffff\n      and\n      dup2\n      mstore\n      0x20\n      add\n        /* \"contracts/DateUtils.sol\":13929:13937  13046400 */\n      0xc71280\n        /* \"contracts/DateUtils.sol\":13870:14062  monthSecondsMap = [0, 2678400, 5097600, 7776000, 10368000, 13046400,... */\n      0xffffffff\n      and\n      dup2\n      mstore\n      0x20\n      add\n        /* \"contracts/DateUtils.sol\":13966:13974  15638400 */\n      0xee9f80\n        /* \"contracts/DateUtils.sol\":13870:14062  monthSecondsMap = [0, 2678400, 5097600, 7776000, 10368000, 13046400,... */\n      0xffffffff\n      and\n      dup2\n      mstore\n      0x20\n      add\n        /* \"contracts/DateUtils.sol\":13976:13984  18316800 */\n      0x01177e00\n        /* \"contracts/DateUtils.sol\":13870:14062  monthSecondsMap = [0, 2678400, 5097600, 7776000, 10368000, 13046400,... */\n      0xffffffff\n      and\n      dup2\n      mstore\n      0x20\n      add\n        /* \"contracts/DateUtils.sol\":13986:13994  20995200 */\n      0x01405c80\n        /* \"contracts/DateUtils.sol\":13870:14062  monthSecondsMap = [0, 2678400, 5097600, 7776000, 10368000, 13046400,... */\n      0xffffffff\n      and\n      dup2\n      mstore\n      0x20\n      add\n        /* \"contracts/DateUtils.sol\":13996:14004  23587200 */\n      0x0167e980\n        /* \"contracts/DateUtils.sol\":13870:14062  monthSecondsMap = [0, 2678400, 5097600, 7776000, 10368000, 13046400,... */\n      0xffffffff\n      and\n      dup2\n      mstore\n      0x20\n      add\n        /* \"contracts/DateUtils.sol\":14006:14014  26265600 */\n      0x0190c800\n        /* \"contracts/DateUtils.sol\":13870:14062  monthSecondsMap = [0, 2678400, 5097600, 7776000, 10368000, 13046400,... */\n      0xffffffff\n      and\n      dup2\n      mstore\n      0x20\n      add\n        /* \"contracts/DateUtils.sol\":14043:14051  28857600 */\n      0x01b85500\n        /* \"contracts/DateUtils.sol\":13870:14062  monthSecondsMap = [0, 2678400, 5097600, 7776000, 10368000, 13046400,... */\n      0xffffffff\n      and\n      dup2\n      mstore\n      0x20\n      add\n        /* \"contracts/DateUtils.sol\":14053:14061  31536000 */\n      0x01e13380\n        /* \"contracts/DateUtils.sol\":13870:14062  monthSecondsMap = [0, 2678400, 5097600, 7776000, 10368000, 13046400,... */\n      0xffffffff\n      and\n      dup2\n      mstore\n      pop\n      swap1\n      pop\n        /* \"contracts/DateUtils.sol\":13465:14071  if (isLeapYear(_year)){... */\n    tag_150:\n        /* \"contracts/DateUtils.sol\":14085:14092  uint8 i */\n      0x00\n        /* \"contracts/DateUtils.sol\":14095:14096  1 */\n      0x01\n        /* \"contracts/DateUtils.sol\":14085:14096  uint8 i = 1 */\n      swap1\n      pop\n        /* \"contracts/DateUtils.sol\":14080:14279  for (uint8 i = 1; i < 13; i++) {... */\n    tag_151:\n        /* \"contracts/DateUtils.sol\":14102:14104  13 */\n      0x0d\n        /* \"contracts/DateUtils.sol\":14098:14099  i */\n      dup2\n        /* \"contracts/DateUtils.sol\":14098:14104  i < 13 */\n      0xff\n      and\n      lt\n        /* \"contracts/DateUtils.sol\":14080:14279  for (uint8 i = 1; i < 13; i++) {... */\n      iszero\n      tag_152\n      jumpi\n        /* \"contracts/DateUtils.sol\":14146:14161  monthSecondsMap */\n      dup2\n        /* \"contracts/DateUtils.sol\":14162:14163  i */\n      dup2\n        /* \"contracts/DateUtils.sol\":14146:14164  monthSecondsMap[i] */\n      0xff\n      and\n      0x0d\n      dup2\n      lt\n      tag_154\n      jumpi\n      tag_155\n      tag_95\n      jump\t// in\n    tag_155:\n    tag_154:\n      0x20\n      mul\n      add\n      mload\n        /* \"contracts/DateUtils.sol\":14127:14164  secondsRemaining < monthSecondsMap[i] */\n      0xffffffff\n      and\n        /* \"contracts/DateUtils.sol\":14127:14143  secondsRemaining */\n      dup6\n        /* \"contracts/DateUtils.sol\":14127:14164  secondsRemaining < monthSecondsMap[i] */\n      lt\n        /* \"contracts/DateUtils.sol\":14123:14271  if (secondsRemaining < monthSecondsMap[i]) {... */\n      iszero\n      tag_156\n      jumpi\n        /* \"contracts/DateUtils.sol\":14188:14189  i */\n      dup1\n        /* \"contracts/DateUtils.sol\":14180:14189  month = i */\n      swap4\n      pop\n        /* \"contracts/DateUtils.sol\":14221:14236  monthSecondsMap */\n      dup2\n        /* \"contracts/DateUtils.sol\":14241:14242  1 */\n      0x01\n        /* \"contracts/DateUtils.sol\":14237:14238  i */\n      dup3\n        /* \"contracts/DateUtils.sol\":14237:14242  i - 1 */\n      tag_157\n      swap2\n      swap1\n      tag_27\n      jump\t// in\n    tag_157:\n        /* \"contracts/DateUtils.sol\":14221:14243  monthSecondsMap[i - 1] */\n      0xff\n      and\n      0x0d\n      dup2\n      lt\n      tag_158\n      jumpi\n      tag_159\n      tag_95\n      jump\t// in\n    tag_159:\n    tag_158:\n      0x20\n      mul\n      add\n      mload\n        /* \"contracts/DateUtils.sol\":14201:14243  secondsRemaining -= monthSecondsMap[i - 1] */\n      0xffffffff\n      and\n      dup6\n      tag_160\n      swap2\n      swap1\n      tag_103\n      jump\t// in\n    tag_160:\n      swap5\n      pop\n        /* \"contracts/DateUtils.sol\":14255:14260  break */\n      jump(tag_152)\n        /* \"contracts/DateUtils.sol\":14123:14271  if (secondsRemaining < monthSecondsMap[i]) {... */\n    tag_156:\n        /* \"contracts/DateUtils.sol\":14106:14109  i++ */\n      dup1\n      dup1\n      0x01\n      add\n      swap2\n      pop\n      pop\n        /* \"contracts/DateUtils.sol\":14080:14279  for (uint8 i = 1; i < 13; i++) {... */\n      jump(tag_151)\n    tag_152:\n      pop\n        /* \"contracts/DateUtils.sol\":13330:14285  {... */\n      pop\n      pop\n        /* \"contracts/DateUtils.sol\":13113:14285  function getMonth(uint256 _secondsRemaining,... */\n      swap3\n      pop\n      swap3\n      swap1\n      pop\n      jump\t// out\n        /* \"contracts/DateUtils.sol\":14292:14662  function getDay(uint256 _secondsRemaining)... */\n    tag_42:\n        /* \"contracts/DateUtils.sol\":14397:14421  uint256 secondsRemaining */\n      0x00\n        /* \"contracts/DateUtils.sol\":14452:14461  uint8 day */\n      dup1\n        /* \"contracts/DateUtils.sol\":14473:14484  uint256 res */\n      0x00\n        /* \"contracts/DateUtils.sol\":14513:14530  _secondsRemaining */\n      dup4\n        /* \"contracts/DateUtils.sol\":14494:14530  secondsRemaining = _secondsRemaining */\n      swap3\n      pop\n        /* \"contracts/DateUtils.sol\":1444:1449  86400 */\n      0x015180\n        /* \"contracts/DateUtils.sol\":14546:14562  secondsRemaining */\n      dup4\n        /* \"contracts/DateUtils.sol\":14546:14579  secondsRemaining / SECONDS_IN_DAY */\n      tag_162\n      swap2\n      swap1\n      tag_100\n      jump\t// in\n    tag_162:\n        /* \"contracts/DateUtils.sol\":14540:14579  res = secondsRemaining / SECONDS_IN_DAY */\n      swap1\n      pop\n        /* \"contracts/DateUtils.sol\":1444:1449  86400 */\n      0x015180\n        /* \"contracts/DateUtils.sol\":14607:14610  res */\n      dup2\n        /* \"contracts/DateUtils.sol\":14607:14627  res * SECONDS_IN_DAY */\n      tag_163\n      swap2\n      swap1\n      tag_29\n      jump\t// in\n    tag_163:\n        /* \"contracts/DateUtils.sol\":14587:14627  secondsRemaining -= res * SECONDS_IN_DAY */\n      dup4\n      tag_164\n      swap2\n      swap1\n      tag_103\n      jump\t// in\n    tag_164:\n      swap3\n      pop\n        /* \"contracts/DateUtils.sol\":14653:14654  1 */\n      0x01\n        /* \"contracts/DateUtils.sol\":14647:14650  res */\n      dup2\n        /* \"contracts/DateUtils.sol\":14647:14654  res + 1 */\n      tag_165\n      swap2\n      swap1\n      tag_25\n      jump\t// in\n    tag_165:\n        /* \"contracts/DateUtils.sol\":14635:14655  day = uint8(res + 1) */\n      swap2\n      pop\n        /* \"contracts/DateUtils.sol\":14463:14662  {... */\n      pop\n        /* \"contracts/DateUtils.sol\":14292:14662  function getDay(uint256 _secondsRemaining)... */\n      swap2\n      pop\n      swap2\n      jump\t// out\n        /* \"contracts/DateUtils.sol\":19072:19249  function getHour(uint256 _secondsRemaining) private pure returns (uint256 secondsRemaining, uint8 hour) {... */\n    tag_44:\n        /* \"contracts/DateUtils.sol\":19138:19162  uint256 secondsRemaining */\n      0x00\n        /* \"contracts/DateUtils.sol\":19164:19174  uint8 hour */\n      dup1\n        /* \"contracts/DateUtils.sol\":19191:19242  getHourOrMinute(_secondsRemaining, SECONDS_IN_HOUR) */\n      tag_167\n        /* \"contracts/DateUtils.sol\":19207:19224  _secondsRemaining */\n      dup4\n        /* \"contracts/DateUtils.sol\":1400:1404  3600 */\n      0x0e10\n        /* \"contracts/DateUtils.sol\":19191:19206  getHourOrMinute */\n      tag_168\n        /* \"contracts/DateUtils.sol\":19191:19242  getHourOrMinute(_secondsRemaining, SECONDS_IN_HOUR) */\n      jump\t// in\n    tag_167:\n        /* \"contracts/DateUtils.sol\":19184:19242  return getHourOrMinute(_secondsRemaining, SECONDS_IN_HOUR) */\n      swap2\n      pop\n      swap2\n      pop\n        /* \"contracts/DateUtils.sol\":19072:19249  function getHour(uint256 _secondsRemaining) private pure returns (uint256 secondsRemaining, uint8 hour) {... */\n      swap2\n      pop\n      swap2\n      jump\t// out\n        /* \"contracts/DateUtils.sol\":19256:19439  function getMinute(uint256 _secondsRemaining) private pure returns (uint256 secondsRemaining, uint8 minute) {... */\n    tag_46:\n        /* \"contracts/DateUtils.sol\":19324:19348  uint256 secondsRemaining */\n      0x00\n        /* \"contracts/DateUtils.sol\":19350:19362  uint8 minute */\n      dup1\n        /* \"contracts/DateUtils.sol\":19379:19432  getHourOrMinute(_secondsRemaining, SECONDS_IN_MINUTE) */\n      tag_170\n        /* \"contracts/DateUtils.sol\":19395:19412  _secondsRemaining */\n      dup4\n        /* \"contracts/DateUtils.sol\":1357:1359  60 */\n      0x3c\n        /* \"contracts/DateUtils.sol\":19379:19394  getHourOrMinute */\n      tag_168\n        /* \"contracts/DateUtils.sol\":19379:19432  getHourOrMinute(_secondsRemaining, SECONDS_IN_MINUTE) */\n      jump\t// in\n    tag_170:\n        /* \"contracts/DateUtils.sol\":19372:19432  return getHourOrMinute(_secondsRemaining, SECONDS_IN_MINUTE) */\n      swap2\n      pop\n      swap2\n      pop\n        /* \"contracts/DateUtils.sol\":19256:19439  function getMinute(uint256 _secondsRemaining) private pure returns (uint256 secondsRemaining, uint8 minute) {... */\n      swap2\n      pop\n      swap2\n      jump\t// out\n        /* \"contracts/DateUtils.sol\":1803:1956  function isValidYear(uint16 _year) private pure returns (bool) {... */\n    tag_49:\n        /* \"contracts/DateUtils.sol\":1860:1864  bool */\n      0x00\n        /* \"contracts/DateUtils.sol\":1889:1893  1970 */\n      0x07b2\n        /* \"contracts/DateUtils.sol\":1881:1886  _year */\n      dup3\n        /* \"contracts/DateUtils.sol\":1881:1893  _year < 1970 */\n      0xffff\n      and\n      lt\n        /* \"contracts/DateUtils.sol\":1880:1912  (_year < 1970) || (_year > 9999) */\n      dup1\n      tag_172\n      jumpi\n      pop\n        /* \"contracts/DateUtils.sol\":1907:1911  9999 */\n      0x270f\n        /* \"contracts/DateUtils.sol\":1899:1904  _year */\n      dup3\n        /* \"contracts/DateUtils.sol\":1899:1911  _year > 9999 */\n      0xffff\n      and\n      gt\n        /* \"contracts/DateUtils.sol\":1880:1912  (_year < 1970) || (_year > 9999) */\n    tag_172:\n        /* \"contracts/DateUtils.sol\":1876:1931  if ((_year < 1970) || (_year > 9999)) { return false; } */\n      iszero\n      tag_173\n      jumpi\n        /* \"contracts/DateUtils.sol\":1923:1928  false */\n      0x00\n        /* \"contracts/DateUtils.sol\":1916:1928  return false */\n      swap1\n      pop\n      jump(tag_171)\n        /* \"contracts/DateUtils.sol\":1876:1931  if ((_year < 1970) || (_year > 9999)) { return false; } */\n    tag_173:\n        /* \"contracts/DateUtils.sol\":1945:1949  true */\n      0x01\n        /* \"contracts/DateUtils.sol\":1938:1949  return true */\n      swap1\n      pop\n        /* \"contracts/DateUtils.sol\":1803:1956  function isValidYear(uint16 _year) private pure returns (bool) {... */\n    tag_171:\n      swap2\n      swap1\n      pop\n      jump\t// out\n        /* \"contracts/DateUtils.sol\":1963:2114  function isValidMonth(uint8 _month) private pure returns (bool) {... */\n    tag_52:\n        /* \"contracts/DateUtils.sol\":2021:2025  bool */\n      0x00\n        /* \"contracts/DateUtils.sol\":2051:2052  1 */\n      0x01\n        /* \"contracts/DateUtils.sol\":2042:2048  _month */\n      dup3\n        /* \"contracts/DateUtils.sol\":2042:2052  _month < 1 */\n      0xff\n      and\n      lt\n        /* \"contracts/DateUtils.sol\":2041:2070  (_month < 1) || (_month > 12) */\n      dup1\n      tag_175\n      jumpi\n      pop\n        /* \"contracts/DateUtils.sol\":2067:2069  12 */\n      0x0c\n        /* \"contracts/DateUtils.sol\":2058:2064  _month */\n      dup3\n        /* \"contracts/DateUtils.sol\":2058:2069  _month > 12 */\n      0xff\n      and\n      gt\n        /* \"contracts/DateUtils.sol\":2041:2070  (_month < 1) || (_month > 12) */\n    tag_175:\n        /* \"contracts/DateUtils.sol\":2037:2089  if ((_month < 1) || (_month > 12)) { return false; } */\n      iszero\n      tag_176\n      jumpi\n        /* \"contracts/DateUtils.sol\":2081:2086  false */\n      0x00\n        /* \"contracts/DateUtils.sol\":2074:2086  return false */\n      swap1\n      pop\n      jump(tag_174)\n        /* \"contracts/DateUtils.sol\":2037:2089  if ((_month < 1) || (_month > 12)) { return false; } */\n    tag_176:\n        /* \"contracts/DateUtils.sol\":2103:2107  true */\n      0x01\n        /* \"contracts/DateUtils.sol\":2096:2107  return true */\n      swap1\n      pop\n        /* \"contracts/DateUtils.sol\":1963:2114  function isValidMonth(uint8 _month) private pure returns (bool) {... */\n    tag_174:\n      swap2\n      swap1\n      pop\n      jump\t// out\n        /* \"contracts/DateUtils.sol\":2121:2754  function isValidDay(uint16 _year,... */\n    tag_55:\n        /* \"contracts/DateUtils.sol\":2299:2303  bool */\n      0x00\n        /* \"contracts/DateUtils.sol\":2315:2343  uint8[13] memory monthDayMap */\n      dup1\n        /* \"contracts/DateUtils.sol\":2315:2397  uint8[13] memory monthDayMap = [0, 31, 28, 31, 30, 31, 30, 31, 31, 30, 31, 30, 31] */\n      mload(0x40)\n      dup1\n      0x01a0\n      add\n      0x40\n      mstore\n      dup1\n        /* \"contracts/DateUtils.sol\":2347:2348  0 */\n      0x00\n        /* \"contracts/DateUtils.sol\":2315:2397  uint8[13] memory monthDayMap = [0, 31, 28, 31, 30, 31, 30, 31, 31, 30, 31, 30, 31] */\n      0xff\n      and\n      dup2\n      mstore\n      0x20\n      add\n        /* \"contracts/DateUtils.sol\":2350:2352  31 */\n      0x1f\n        /* \"contracts/DateUtils.sol\":2315:2397  uint8[13] memory monthDayMap = [0, 31, 28, 31, 30, 31, 30, 31, 31, 30, 31, 30, 31] */\n      0xff\n      and\n      dup2\n      mstore\n      0x20\n      add\n        /* \"contracts/DateUtils.sol\":2354:2356  28 */\n      0x1c\n        /* \"contracts/DateUtils.sol\":2315:2397  uint8[13] memory monthDayMap = [0, 31, 28, 31, 30, 31, 30, 31, 31, 30, 31, 30, 31] */\n      0xff\n      and\n      dup2\n      mstore\n      0x20\n      add\n        /* \"contracts/DateUtils.sol\":2358:2360  31 */\n      0x1f\n        /* \"contracts/DateUtils.sol\":2315:2397  uint8[13] memory monthDayMap = [0, 31, 28, 31, 30, 31, 30, 31, 31, 30, 31, 30, 31] */\n      0xff\n      and\n      dup2\n      mstore\n      0x20\n      add\n        /* \"contracts/DateUtils.sol\":2362:2364  30 */\n      0x1e\n        /* \"contracts/DateUtils.sol\":2315:2397  uint8[13] memory monthDayMap = [0, 31, 28, 31, 30, 31, 30, 31, 31, 30, 31, 30, 31] */\n      0xff\n      and\n      dup2\n      mstore\n      0x20\n      add\n        /* \"contracts/DateUtils.sol\":2366:2368  31 */\n      0x1f\n        /* \"contracts/DateUtils.sol\":2315:2397  uint8[13] memory monthDayMap = [0, 31, 28, 31, 30, 31, 30, 31, 31, 30, 31, 30, 31] */\n      0xff\n      and\n      dup2\n      mstore\n      0x20\n      add\n        /* \"contracts/DateUtils.sol\":2370:2372  30 */\n      0x1e\n        /* \"contracts/DateUtils.sol\":2315:2397  uint8[13] memory monthDayMap = [0, 31, 28, 31, 30, 31, 30, 31, 31, 30, 31, 30, 31] */\n      0xff\n      and\n      dup2\n      mstore\n      0x20\n      add\n        /* \"contracts/DateUtils.sol\":2374:2376  31 */\n      0x1f\n        /* \"contracts/DateUtils.sol\":2315:2397  uint8[13] memory monthDayMap = [0, 31, 28, 31, 30, 31, 30, 31, 31, 30, 31, 30, 31] */\n      0xff\n      and\n      dup2\n      mstore\n      0x20\n      add\n        /* \"contracts/DateUtils.sol\":2378:2380  31 */\n      0x1f\n        /* \"contracts/DateUtils.sol\":2315:2397  uint8[13] memory monthDayMap = [0, 31, 28, 31, 30, 31, 30, 31, 31, 30, 31, 30, 31] */\n      0xff\n      and\n      dup2\n      mstore\n      0x20\n      add\n        /* \"contracts/DateUtils.sol\":2382:2384  30 */\n      0x1e\n        /* \"contracts/DateUtils.sol\":2315:2397  uint8[13] memory monthDayMap = [0, 31, 28, 31, 30, 31, 30, 31, 31, 30, 31, 30, 31] */\n      0xff\n      and\n      dup2\n      mstore\n      0x20\n      add\n        /* \"contracts/DateUtils.sol\":2386:2388  31 */\n      0x1f\n        /* \"contracts/DateUtils.sol\":2315:2397  uint8[13] memory monthDayMap = [0, 31, 28, 31, 30, 31, 30, 31, 31, 30, 31, 30, 31] */\n      0xff\n      and\n      dup2\n      mstore\n      0x20\n      add\n        /* \"contracts/DateUtils.sol\":2390:2392  30 */\n      0x1e\n        /* \"contracts/DateUtils.sol\":2315:2397  uint8[13] memory monthDayMap = [0, 31, 28, 31, 30, 31, 30, 31, 31, 30, 31, 30, 31] */\n      0xff\n      and\n      dup2\n      mstore\n      0x20\n      add\n        /* \"contracts/DateUtils.sol\":2394:2396  31 */\n      0x1f\n        /* \"contracts/DateUtils.sol\":2315:2397  uint8[13] memory monthDayMap = [0, 31, 28, 31, 30, 31, 30, 31, 31, 30, 31, 30, 31] */\n      0xff\n      and\n      dup2\n      mstore\n      pop\n      swap1\n      pop\n        /* \"contracts/DateUtils.sol\":2405:2422  uint8 daysInMonth */\n      0x00\n        /* \"contracts/DateUtils.sol\":2444:2445  0 */\n      dup1\n        /* \"contracts/DateUtils.sol\":2436:2440  _day */\n      dup5\n        /* \"contracts/DateUtils.sol\":2436:2445  _day == 0 */\n      0xff\n      and\n      sub\n        /* \"contracts/DateUtils.sol\":2432:2464  if (_day == 0) { return false; } */\n      tag_178\n      jumpi\n        /* \"contracts/DateUtils.sol\":2456:2461  false */\n      0x00\n        /* \"contracts/DateUtils.sol\":2449:2461  return false */\n      swap3\n      pop\n      pop\n      pop\n      jump(tag_177)\n        /* \"contracts/DateUtils.sol\":2432:2464  if (_day == 0) { return false; } */\n    tag_178:\n        /* \"contracts/DateUtils.sol\":2487:2488  2 */\n      0x02\n        /* \"contracts/DateUtils.sol\":2477:2483  _month */\n      dup6\n        /* \"contracts/DateUtils.sol\":2477:2488  _month == 2 */\n      0xff\n      and\n      sub\n        /* \"contracts/DateUtils.sol\":2473:2677  if (_month == 2) {... */\n      tag_179\n      jumpi\n        /* \"contracts/DateUtils.sol\":2506:2523  isLeapYear(_year) */\n      tag_180\n        /* \"contracts/DateUtils.sol\":2517:2522  _year */\n      dup7\n        /* \"contracts/DateUtils.sol\":2506:2516  isLeapYear */\n      tag_89\n        /* \"contracts/DateUtils.sol\":2506:2523  isLeapYear(_year) */\n      jump\t// in\n    tag_180:\n        /* \"contracts/DateUtils.sol\":2502:2609  if (isLeapYear(_year)) {... */\n      iszero\n      tag_181\n      jumpi\n        /* \"contracts/DateUtils.sol\":2551:2553  29 */\n      0x1d\n        /* \"contracts/DateUtils.sol\":2537:2553  daysInMonth = 29 */\n      swap1\n      pop\n        /* \"contracts/DateUtils.sol\":2502:2609  if (isLeapYear(_year)) {... */\n      jump(tag_182)\n    tag_181:\n        /* \"contracts/DateUtils.sol\":2596:2598  28 */\n      0x1c\n        /* \"contracts/DateUtils.sol\":2582:2598  daysInMonth = 28 */\n      swap1\n      pop\n        /* \"contracts/DateUtils.sol\":2502:2609  if (isLeapYear(_year)) {... */\n    tag_182:\n        /* \"contracts/DateUtils.sol\":2473:2677  if (_month == 2) {... */\n      jump(tag_183)\n    tag_179:\n        /* \"contracts/DateUtils.sol\":2649:2660  monthDayMap */\n      dup2\n        /* \"contracts/DateUtils.sol\":2661:2667  _month */\n      dup6\n        /* \"contracts/DateUtils.sol\":2649:2668  monthDayMap[_month] */\n      0xff\n      and\n      0x0d\n      dup2\n      lt\n      tag_184\n      jumpi\n      tag_185\n      tag_95\n      jump\t// in\n    tag_185:\n    tag_184:\n      0x20\n      mul\n      add\n      mload\n        /* \"contracts/DateUtils.sol\":2635:2668  daysInMonth = monthDayMap[_month] */\n      swap1\n      pop\n        /* \"contracts/DateUtils.sol\":2473:2677  if (_month == 2) {... */\n    tag_183:\n        /* \"contracts/DateUtils.sol\":2697:2708  daysInMonth */\n      dup1\n        /* \"contracts/DateUtils.sol\":2690:2708  _day > daysInMonth */\n      0xff\n      and\n        /* \"contracts/DateUtils.sol\":2690:2694  _day */\n      dup5\n        /* \"contracts/DateUtils.sol\":2690:2708  _day > daysInMonth */\n      0xff\n      and\n      gt\n        /* \"contracts/DateUtils.sol\":2686:2727  if (_day > daysInMonth) { return false; } */\n      iszero\n      tag_186\n      jumpi\n        /* \"contracts/DateUtils.sol\":2719:2724  false */\n      0x00\n        /* \"contracts/DateUtils.sol\":2712:2724  return false */\n      swap3\n      pop\n      pop\n      pop\n      jump(tag_177)\n        /* \"contracts/DateUtils.sol\":2686:2727  if (_day > daysInMonth) { return false; } */\n    tag_186:\n        /* \"contracts/DateUtils.sol\":2743:2747  true */\n      0x01\n        /* \"contracts/DateUtils.sol\":2736:2747  return true */\n      swap3\n      pop\n      pop\n      pop\n        /* \"contracts/DateUtils.sol\":2121:2754  function isValidDay(uint16 _year,... */\n    tag_177:\n      swap4\n      swap3\n      pop\n      pop\n      pop\n      jump\t// out\n        /* \"contracts/DateUtils.sol\":2761:2891  function isValidHour(uint8 _hour) private pure returns (bool) {... */\n    tag_58:\n        /* \"contracts/DateUtils.sol\":2817:2821  bool */\n      0x00\n        /* \"contracts/DateUtils.sol\":2845:2847  23 */\n      0x17\n        /* \"contracts/DateUtils.sol\":2837:2842  _hour */\n      dup3\n        /* \"contracts/DateUtils.sol\":2837:2847  _hour > 23 */\n      0xff\n      and\n      gt\n        /* \"contracts/DateUtils.sol\":2833:2866  if (_hour > 23) { return false; } */\n      iszero\n      tag_188\n      jumpi\n        /* \"contracts/DateUtils.sol\":2858:2863  false */\n      0x00\n        /* \"contracts/DateUtils.sol\":2851:2863  return false */\n      swap1\n      pop\n      jump(tag_187)\n        /* \"contracts/DateUtils.sol\":2833:2866  if (_hour > 23) { return false; } */\n    tag_188:\n        /* \"contracts/DateUtils.sol\":2880:2884  true */\n      0x01\n        /* \"contracts/DateUtils.sol\":2873:2884  return true */\n      swap1\n      pop\n        /* \"contracts/DateUtils.sol\":2761:2891  function isValidHour(uint8 _hour) private pure returns (bool) {... */\n    tag_187:\n      swap2\n      swap1\n      pop\n      jump\t// out\n        /* \"contracts/DateUtils.sol\":2898:3028  function isValidMinute(uint8 _min) private pure returns (bool) {... */\n    tag_61:\n        /* \"contracts/DateUtils.sol\":2955:2959  bool */\n      0x00\n        /* \"contracts/DateUtils.sol\":2982:2984  59 */\n      0x3b\n        /* \"contracts/DateUtils.sol\":2975:2979  _min */\n      dup3\n        /* \"contracts/DateUtils.sol\":2975:2984  _min > 59 */\n      0xff\n      and\n      gt\n        /* \"contracts/DateUtils.sol\":2971:3003  if (_min > 59) { return false; } */\n      iszero\n      tag_190\n      jumpi\n        /* \"contracts/DateUtils.sol\":2995:3000  false */\n      0x00\n        /* \"contracts/DateUtils.sol\":2988:3000  return false */\n      swap1\n      pop\n      jump(tag_189)\n        /* \"contracts/DateUtils.sol\":2971:3003  if (_min > 59) { return false; } */\n    tag_190:\n        /* \"contracts/DateUtils.sol\":3017:3021  true */\n      0x01\n        /* \"contracts/DateUtils.sol\":3010:3021  return true */\n      swap1\n      pop\n        /* \"contracts/DateUtils.sol\":2898:3028  function isValidMinute(uint8 _min) private pure returns (bool) {... */\n    tag_189:\n      swap2\n      swap1\n      pop\n      jump\t// out\n        /* \"contracts/DateUtils.sol\":3035:3165  function isValidSecond(uint8 _sec) private pure returns (bool) {... */\n    tag_64:\n        /* \"contracts/DateUtils.sol\":3092:3096  bool */\n      0x00\n        /* \"contracts/DateUtils.sol\":3119:3121  59 */\n      0x3b\n        /* \"contracts/DateUtils.sol\":3112:3116  _sec */\n      dup3\n        /* \"contracts/DateUtils.sol\":3112:3121  _sec > 59 */\n      0xff\n      and\n      gt\n        /* \"contracts/DateUtils.sol\":3108:3140  if (_sec > 59) { return false; } */\n      iszero\n      tag_192\n      jumpi\n        /* \"contracts/DateUtils.sol\":3132:3137  false */\n      0x00\n        /* \"contracts/DateUtils.sol\":3125:3137  return false */\n      swap1\n      pop\n      jump(tag_191)\n        /* \"contracts/DateUtils.sol\":3108:3140  if (_sec > 59) { return false; } */\n    tag_192:\n        /* \"contracts/DateUtils.sol\":3154:3158  true */\n      0x01\n        /* \"contracts/DateUtils.sol\":3147:3158  return true */\n      swap1\n      pop\n        /* \"contracts/DateUtils.sol\":3035:3165  function isValidSecond(uint8 _sec) private pure returns (bool) {... */\n    tag_191:\n      swap2\n      swap1\n      pop\n      jump\t// out\n        /* \"contracts/DateUtils.sol\":14723:15345  function incrementYearAndTimestamp(uint16 _year,... */\n    tag_78:\n        /* \"contracts/DateUtils.sol\":15097:15108  uint16 year */\n      0x00\n        /* \"contracts/DateUtils.sol\":15158:15168  uint256 ts */\n      dup1\n        /* \"contracts/DateUtils.sol\":15180:15191  uint256 res */\n      0x00\n        /* \"contracts/DateUtils.sol\":15240:15248  _divisor */\n      dup5\n        /* \"contracts/DateUtils.sol\":15224:15236  _yearCounter */\n      dup8\n        /* \"contracts/DateUtils.sol\":15216:15221  _year */\n      dup10\n        /* \"contracts/DateUtils.sol\":15216:15236  _year - _yearCounter */\n      tag_194\n      swap2\n      swap1\n      tag_69\n      jump\t// in\n    tag_194:\n        /* \"contracts/DateUtils.sol\":15215:15248  (_year - _yearCounter) / _divisor */\n      tag_195\n      swap2\n      swap1\n      tag_196\n      jump\t// in\n    tag_195:\n        /* \"contracts/DateUtils.sol\":15207:15249  uint256((_year - _yearCounter) / _divisor) */\n      0xffff\n      and\n        /* \"contracts/DateUtils.sol\":15201:15249  res = uint256((_year - _yearCounter) / _divisor) */\n      swap1\n      pop\n        /* \"contracts/DateUtils.sol\":15293:15301  _divisor */\n      dup5\n        /* \"contracts/DateUtils.sol\":15287:15301  res * _divisor */\n      0xffff\n      and\n        /* \"contracts/DateUtils.sol\":15287:15290  res */\n      dup2\n        /* \"contracts/DateUtils.sol\":15287:15301  res * _divisor */\n      tag_197\n      swap2\n      swap1\n      tag_29\n      jump\t// in\n    tag_197:\n        /* \"contracts/DateUtils.sol\":15271:15283  _yearCounter */\n      dup8\n        /* \"contracts/DateUtils.sol\":15271:15302  _yearCounter + (res * _divisor) */\n      0xffff\n      and\n      tag_198\n      swap2\n      swap1\n      tag_25\n      jump\t// in\n    tag_198:\n        /* \"contracts/DateUtils.sol\":15257:15303  year = uint16(_yearCounter + (res * _divisor)) */\n      swap3\n      pop\n        /* \"contracts/DateUtils.sol\":15329:15337  _seconds */\n      dup4\n        /* \"contracts/DateUtils.sol\":15323:15326  res */\n      dup2\n        /* \"contracts/DateUtils.sol\":15323:15337  res * _seconds */\n      tag_199\n      swap2\n      swap1\n      tag_29\n      jump\t// in\n    tag_199:\n        /* \"contracts/DateUtils.sol\":15316:15319  _ts */\n      dup7\n        /* \"contracts/DateUtils.sol\":15316:15338  _ts + (res * _seconds) */\n      tag_200\n      swap2\n      swap1\n      tag_25\n      jump\t// in\n    tag_200:\n        /* \"contracts/DateUtils.sol\":15311:15338  ts = _ts + (res * _seconds) */\n      swap2\n      pop\n        /* \"contracts/DateUtils.sol\":15170:15345  {... */\n      pop\n        /* \"contracts/DateUtils.sol\":14723:15345  function incrementYearAndTimestamp(uint16 _year,... */\n      swap6\n      pop\n      swap6\n      swap4\n      pop\n      pop\n      pop\n      pop\n      jump\t// out\n        /* \"contracts/DateUtils.sol\":15352:15852  function incrementLeapYear(uint16 _year,... */\n    tag_80:\n        /* \"contracts/DateUtils.sol\":15573:15591  uint16 yearCounter */\n      0x00\n        /* \"contracts/DateUtils.sol\":15633:15643  uint256 ts */\n      dup1\n        /* \"contracts/DateUtils.sol\":15669:15681  _yearCounter */\n      dup4\n        /* \"contracts/DateUtils.sol\":15655:15681  yearCounter = _yearCounter */\n      swap2\n      pop\n        /* \"contracts/DateUtils.sol\":15694:15697  _ts */\n      dup3\n        /* \"contracts/DateUtils.sol\":15689:15697  ts = _ts */\n      swap1\n      pop\n        /* \"contracts/DateUtils.sol\":15726:15731  _year */\n      dup5\n        /* \"contracts/DateUtils.sol\":15712:15731  yearCounter < _year */\n      0xffff\n      and\n        /* \"contracts/DateUtils.sol\":15712:15723  yearCounter */\n      dup3\n        /* \"contracts/DateUtils.sol\":15712:15731  yearCounter < _year */\n      0xffff\n      and\n      lt\n        /* \"contracts/DateUtils.sol\":15711:15759  (yearCounter < _year) && isLeapYear(yearCounter) */\n      dup1\n      iszero\n      tag_202\n      jumpi\n      pop\n        /* \"contracts/DateUtils.sol\":15736:15759  isLeapYear(yearCounter) */\n      tag_203\n        /* \"contracts/DateUtils.sol\":15747:15758  yearCounter */\n      dup3\n        /* \"contracts/DateUtils.sol\":15736:15746  isLeapYear */\n      tag_89\n        /* \"contracts/DateUtils.sol\":15736:15759  isLeapYear(yearCounter) */\n      jump\t// in\n    tag_203:\n        /* \"contracts/DateUtils.sol\":15711:15759  (yearCounter < _year) && isLeapYear(yearCounter) */\n    tag_202:\n        /* \"contracts/DateUtils.sol\":15707:15846  if ((yearCounter < _year) && isLeapYear(yearCounter)) {... */\n      iszero\n      tag_204\n      jumpi\n        /* \"contracts/DateUtils.sol\":15788:15789  1 */\n      0x01\n        /* \"contracts/DateUtils.sol\":15773:15789  yearCounter += 1 */\n      dup3\n      tag_205\n      swap2\n      swap1\n      tag_105\n      jump\t// in\n    tag_205:\n      swap2\n      pop\n        /* \"contracts/DateUtils.sol\":1444:1449  86400 */\n      0x015180\n        /* \"contracts/DateUtils.sol\":1490:1498  31536000 */\n      0x01e13380\n        /* \"contracts/DateUtils.sol\":15805:15837  SECONDS_IN_YEAR + SECONDS_IN_DAY */\n      tag_206\n      swap2\n      swap1\n      tag_25\n      jump\t// in\n    tag_206:\n        /* \"contracts/DateUtils.sol\":15799:15837  ts += SECONDS_IN_YEAR + SECONDS_IN_DAY */\n      dup2\n      tag_207\n      swap2\n      swap1\n      tag_25\n      jump\t// in\n    tag_207:\n      swap1\n      pop\n        /* \"contracts/DateUtils.sol\":15707:15846  if ((yearCounter < _year) && isLeapYear(yearCounter)) {... */\n    tag_204:\n        /* \"contracts/DateUtils.sol\":15352:15852  function incrementLeapYear(uint16 _year,... */\n      swap4\n      pop\n      swap4\n      swap2\n      pop\n      pop\n      jump\t// out\n        /* \"contracts/DateUtils.sol\":10304:10517  function isLeapYear(uint16 _year) internal pure returns (bool) {... */\n    tag_89:\n        /* \"contracts/DateUtils.sol\":10361:10365  bool */\n      0x00\n        /* \"contracts/DateUtils.sol\":10396:10397  0 */\n      dup1\n        /* \"contracts/DateUtils.sol\":10390:10391  4 */\n      0x04\n        /* \"contracts/DateUtils.sol\":10382:10387  _year */\n      dup4\n        /* \"contracts/DateUtils.sol\":10382:10391  _year % 4 */\n      tag_209\n      swap2\n      swap1\n      tag_210\n      jump\t// in\n    tag_209:\n        /* \"contracts/DateUtils.sol\":10381:10397  (_year % 4) != 0 */\n      0xffff\n      and\n      eq\n        /* \"contracts/DateUtils.sol\":10377:10416  if ((_year % 4) != 0) { return false; } */\n      tag_211\n      jumpi\n        /* \"contracts/DateUtils.sol\":10408:10413  false */\n      0x00\n        /* \"contracts/DateUtils.sol\":10401:10413  return false */\n      swap1\n      pop\n      jump(tag_208)\n        /* \"contracts/DateUtils.sol\":10377:10416  if ((_year % 4) != 0) { return false; } */\n    tag_211:\n        /* \"contracts/DateUtils.sol\":10445:10446  0 */\n      0x00\n        /* \"contracts/DateUtils.sol\":10437:10440  400 */\n      0x0190\n        /* \"contracts/DateUtils.sol\":10429:10434  _year */\n      dup4\n        /* \"contracts/DateUtils.sol\":10429:10440  _year % 400 */\n      tag_212\n      swap2\n      swap1\n      tag_210\n      jump\t// in\n    tag_212:\n        /* \"contracts/DateUtils.sol\":10428:10446  (_year % 400) == 0 */\n      0xffff\n      and\n      eq\n        /* \"contracts/DateUtils.sol\":10427:10471  ((_year % 400) == 0) || ((_year % 100) != 0) */\n      dup1\n      tag_213\n      jumpi\n      pop\n        /* \"contracts/DateUtils.sol\":10469:10470  0 */\n      0x00\n        /* \"contracts/DateUtils.sol\":10461:10464  100 */\n      0x64\n        /* \"contracts/DateUtils.sol\":10453:10458  _year */\n      dup4\n        /* \"contracts/DateUtils.sol\":10453:10464  _year % 100 */\n      tag_214\n      swap2\n      swap1\n      tag_210\n      jump\t// in\n    tag_214:\n        /* \"contracts/DateUtils.sol\":10452:10470  (_year % 100) != 0 */\n      0xffff\n      and\n      eq\n      iszero\n        /* \"contracts/DateUtils.sol\":10427:10471  ((_year % 400) == 0) || ((_year % 100) != 0) */\n    tag_213:\n        /* \"contracts/DateUtils.sol\":10423:10489  if (((_year % 400) == 0) || ((_year % 100) != 0)) { return true; } */\n      iszero\n      tag_215\n      jumpi\n        /* \"contracts/DateUtils.sol\":10482:10486  true */\n      0x01\n        /* \"contracts/DateUtils.sol\":10475:10486  return true */\n      swap1\n      pop\n      jump(tag_208)\n        /* \"contracts/DateUtils.sol\":10423:10489  if (((_year % 400) == 0) || ((_year % 100) != 0)) { return true; } */\n    tag_215:\n        /* \"contracts/DateUtils.sol\":10505:10510  false */\n      0x00\n        /* \"contracts/DateUtils.sol\":10498:10510  return false */\n      swap1\n      pop\n        /* \"contracts/DateUtils.sol\":10304:10517  function isLeapYear(uint16 _year) internal pure returns (bool) {... */\n    tag_208:\n      swap2\n      swap1\n      pop\n      jump\t// out\n        /* \"contracts/DateUtils.sol\":10910:11127  function getSecondsInYear(uint16 _year) private pure returns (uint256) {... */\n    tag_118:\n        /* \"contracts/DateUtils.sol\":10972:10979  uint256 */\n      0x00\n        /* \"contracts/DateUtils.sol\":10995:11012  isLeapYear(_year) */\n      tag_217\n        /* \"contracts/DateUtils.sol\":11006:11011  _year */\n      dup3\n        /* \"contracts/DateUtils.sol\":10995:11005  isLeapYear */\n      tag_89\n        /* \"contracts/DateUtils.sol\":10995:11012  isLeapYear(_year) */\n      jump\t// in\n    tag_217:\n        /* \"contracts/DateUtils.sol\":10991:11121  if (isLeapYear(_year)) {... */\n      iszero\n      tag_218\n      jumpi\n        /* \"contracts/DateUtils.sol\":1444:1449  86400 */\n      0x015180\n        /* \"contracts/DateUtils.sol\":1490:1498  31536000 */\n      0x01e13380\n        /* \"contracts/DateUtils.sol\":11032:11064  SECONDS_IN_YEAR + SECONDS_IN_DAY */\n      tag_219\n      swap2\n      swap1\n      tag_25\n      jump\t// in\n    tag_219:\n        /* \"contracts/DateUtils.sol\":11024:11065  return (SECONDS_IN_YEAR + SECONDS_IN_DAY) */\n      swap1\n      pop\n      jump(tag_216)\n        /* \"contracts/DateUtils.sol\":10991:11121  if (isLeapYear(_year)) {... */\n    tag_218:\n        /* \"contracts/DateUtils.sol\":1490:1498  31536000 */\n      0x01e13380\n        /* \"contracts/DateUtils.sol\":11090:11112  return SECONDS_IN_YEAR */\n      swap1\n      pop\n        /* \"contracts/DateUtils.sol\":10910:11127  function getSecondsInYear(uint16 _year) private pure returns (uint256) {... */\n    tag_216:\n      swap2\n      swap1\n      pop\n      jump\t// out\n        /* \"contracts/DateUtils.sol\":18610:19065  function getHourOrMinute(uint256 _secondsRemaining,... */\n    tag_168:\n        /* \"contracts/DateUtils.sol\":18789:18813  uint256 secondsRemaining */\n      0x00\n        /* \"contracts/DateUtils.sol\":18853:18871  uint8 hourOrMinute */\n      dup1\n        /* \"contracts/DateUtils.sol\":18883:18894  uint256 res */\n      0x00\n        /* \"contracts/DateUtils.sol\":18923:18940  _secondsRemaining */\n      dup5\n        /* \"contracts/DateUtils.sol\":18904:18940  secondsRemaining = _secondsRemaining */\n      swap3\n      pop\n        /* \"contracts/DateUtils.sol\":18975:18983  _divisor */\n      dup4\n        /* \"contracts/DateUtils.sol\":18956:18972  secondsRemaining */\n      dup4\n        /* \"contracts/DateUtils.sol\":18956:18983  secondsRemaining / _divisor */\n      tag_222\n      swap2\n      swap1\n      tag_100\n      jump\t// in\n    tag_222:\n        /* \"contracts/DateUtils.sol\":18950:18983  res = secondsRemaining / _divisor */\n      swap1\n      pop\n        /* \"contracts/DateUtils.sol\":19017:19025  _divisor */\n      dup4\n        /* \"contracts/DateUtils.sol\":19011:19014  res */\n      dup2\n        /* \"contracts/DateUtils.sol\":19011:19025  res * _divisor */\n      tag_223\n      swap2\n      swap1\n      tag_29\n      jump\t// in\n    tag_223:\n        /* \"contracts/DateUtils.sol\":18991:19025  secondsRemaining -= res * _divisor */\n      dup4\n      tag_224\n      swap2\n      swap1\n      tag_103\n      jump\t// in\n    tag_224:\n      swap3\n      pop\n        /* \"contracts/DateUtils.sol\":19054:19057  res */\n      dup1\n        /* \"contracts/DateUtils.sol\":19033:19058  hourOrMinute = uint8(res) */\n      swap2\n      pop\n        /* \"contracts/DateUtils.sol\":18873:19065  {... */\n      pop\n        /* \"contracts/DateUtils.sol\":18610:19065  function getHourOrMinute(uint256 _secondsRemaining,... */\n      swap3\n      pop\n      swap3\n      swap1\n      pop\n      jump\t// out\n    tag_87:\n      mload(0x40)\n      dup1\n      0x01a0\n      add\n      0x40\n      mstore\n      dup1\n      0x0d\n      swap1\n      0x20\n      dup3\n      mul\n      dup1\n      calldatasize\n      dup4\n      calldatacopy\n      dup1\n      dup3\n      add\n      swap2\n      pop\n      pop\n      swap1\n      pop\n      pop\n      swap1\n      jump\t// out\n    tag_146:\n      mload(0x40)\n      dup1\n      0x01a0\n      add\n      0x40\n      mstore\n      dup1\n      0x0d\n      swap1\n      0x20\n      dup3\n      mul\n      dup1\n      calldatasize\n      dup4\n      calldatacopy\n      dup1\n      dup3\n      add\n      swap2\n      pop\n      pop\n      swap1\n      pop\n      pop\n      swap1\n      jump\t// out\n        /* \"#utility.yul\":88:205   */\n    tag_226:\n        /* \"#utility.yul\":197:198   */\n      0x00\n        /* \"#utility.yul\":194:195   */\n      dup1\n        /* \"#utility.yul\":187:199   */\n      revert\n        /* \"#utility.yul\":334:423   */\n    tag_228:\n        /* \"#utility.yul\":370:377   */\n      0x00\n        /* \"#utility.yul\":410:416   */\n      0xffff\n        /* \"#utility.yul\":403:408   */\n      dup3\n        /* \"#utility.yul\":399:417   */\n      and\n        /* \"#utility.yul\":388:417   */\n      swap1\n      pop\n        /* \"#utility.yul\":334:423   */\n      swap2\n      swap1\n      pop\n      jump\t// out\n        /* \"#utility.yul\":429:549   */\n    tag_229:\n        /* \"#utility.yul\":501:524   */\n      tag_248\n        /* \"#utility.yul\":518:523   */\n      dup2\n        /* \"#utility.yul\":501:524   */\n      tag_228\n      jump\t// in\n    tag_248:\n        /* \"#utility.yul\":494:499   */\n      dup2\n        /* \"#utility.yul\":491:525   */\n      eq\n        /* \"#utility.yul\":481:543   */\n      tag_249\n      jumpi\n        /* \"#utility.yul\":539:540   */\n      0x00\n        /* \"#utility.yul\":536:537   */\n      dup1\n        /* \"#utility.yul\":529:541   */\n      revert\n        /* \"#utility.yul\":481:543   */\n    tag_249:\n        /* \"#utility.yul\":429:549   */\n      pop\n      jump\t// out\n        /* \"#utility.yul\":555:692   */\n    tag_230:\n        /* \"#utility.yul\":600:605   */\n      0x00\n        /* \"#utility.yul\":638:644   */\n      dup2\n        /* \"#utility.yul\":625:645   */\n      calldataload\n        /* \"#utility.yul\":616:645   */\n      swap1\n      pop\n        /* \"#utility.yul\":654:686   */\n      tag_251\n        /* \"#utility.yul\":680:685   */\n      dup2\n        /* \"#utility.yul\":654:686   */\n      tag_229\n      jump\t// in\n    tag_251:\n        /* \"#utility.yul\":555:692   */\n      swap3\n      swap2\n      pop\n      pop\n      jump\t// out\n        /* \"#utility.yul\":698:784   */\n    tag_231:\n        /* \"#utility.yul\":733:740   */\n      0x00\n        /* \"#utility.yul\":773:777   */\n      0xff\n        /* \"#utility.yul\":766:771   */\n      dup3\n        /* \"#utility.yul\":762:778   */\n      and\n        /* \"#utility.yul\":751:778   */\n      swap1\n      pop\n        /* \"#utility.yul\":698:784   */\n      swap2\n      swap1\n      pop\n      jump\t// out\n        /* \"#utility.yul\":790:908   */\n    tag_232:\n        /* \"#utility.yul\":861:883   */\n      tag_254\n        /* \"#utility.yul\":877:882   */\n      dup2\n        /* \"#utility.yul\":861:883   */\n      tag_231\n      jump\t// in\n    tag_254:\n        /* \"#utility.yul\":854:859   */\n      dup2\n        /* \"#utility.yul\":851:884   */\n      eq\n        /* \"#utility.yul\":841:902   */\n      tag_255\n      jumpi\n        /* \"#utility.yul\":898:899   */\n      0x00\n        /* \"#utility.yul\":895:896   */\n      dup1\n        /* \"#utility.yul\":888:900   */\n      revert\n        /* \"#utility.yul\":841:902   */\n    tag_255:\n        /* \"#utility.yul\":790:908   */\n      pop\n      jump\t// out\n        /* \"#utility.yul\":914:1049   */\n    tag_233:\n        /* \"#utility.yul\":958:963   */\n      0x00\n        /* \"#utility.yul\":996:1002   */\n      dup2\n        /* \"#utility.yul\":983:1003   */\n      calldataload\n        /* \"#utility.yul\":974:1003   */\n      swap1\n      pop\n        /* \"#utility.yul\":1012:1043   */\n      tag_257\n        /* \"#utility.yul\":1037:1042   */\n      dup2\n        /* \"#utility.yul\":1012:1043   */\n      tag_232\n      jump\t// in\n    tag_257:\n        /* \"#utility.yul\":914:1049   */\n      swap3\n      swap2\n      pop\n      pop\n      jump\t// out\n        /* \"#utility.yul\":1055:2090   */\n    tag_6:\n        /* \"#utility.yul\":1148:1154   */\n      0x00\n        /* \"#utility.yul\":1156:1162   */\n      dup1\n        /* \"#utility.yul\":1164:1170   */\n      0x00\n        /* \"#utility.yul\":1172:1178   */\n      dup1\n        /* \"#utility.yul\":1180:1186   */\n      0x00\n        /* \"#utility.yul\":1188:1194   */\n      dup1\n        /* \"#utility.yul\":1237:1240   */\n      0xc0\n        /* \"#utility.yul\":1225:1234   */\n      dup8\n        /* \"#utility.yul\":1216:1223   */\n      dup10\n        /* \"#utility.yul\":1212:1235   */\n      sub\n        /* \"#utility.yul\":1208:1241   */\n      slt\n        /* \"#utility.yul\":1205:1325   */\n      iszero\n      tag_259\n      jumpi\n        /* \"#utility.yul\":1244:1323   */\n      tag_260\n      tag_226\n      jump\t// in\n    tag_260:\n        /* \"#utility.yul\":1205:1325   */\n    tag_259:\n        /* \"#utility.yul\":1364:1365   */\n      0x00\n        /* \"#utility.yul\":1389:1441   */\n      tag_261\n        /* \"#utility.yul\":1433:1440   */\n      dup10\n        /* \"#utility.yul\":1424:1430   */\n      dup3\n        /* \"#utility.yul\":1413:1422   */\n      dup11\n        /* \"#utility.yul\":1409:1431   */\n      add\n        /* \"#utility.yul\":1389:1441   */\n      tag_230\n      jump\t// in\n    tag_261:\n        /* \"#utility.yul\":1379:1441   */\n      swap7\n      pop\n        /* \"#utility.yul\":1335:1451   */\n      pop\n        /* \"#utility.yul\":1490:1492   */\n      0x20\n        /* \"#utility.yul\":1516:1567   */\n      tag_262\n        /* \"#utility.yul\":1559:1566   */\n      dup10\n        /* \"#utility.yul\":1550:1556   */\n      dup3\n        /* \"#utility.yul\":1539:1548   */\n      dup11\n        /* \"#utility.yul\":1535:1557   */\n      add\n        /* \"#utility.yul\":1516:1567   */\n      tag_233\n      jump\t// in\n    tag_262:\n        /* \"#utility.yul\":1506:1567   */\n      swap6\n      pop\n        /* \"#utility.yul\":1461:1577   */\n      pop\n        /* \"#utility.yul\":1616:1618   */\n      0x40\n        /* \"#utility.yul\":1642:1693   */\n      tag_263\n        /* \"#utility.yul\":1685:1692   */\n      dup10\n        /* \"#utility.yul\":1676:1682   */\n      dup3\n        /* \"#utility.yul\":1665:1674   */\n      dup11\n        /* \"#utility.yul\":1661:1683   */\n      add\n        /* \"#utility.yul\":1642:1693   */\n      tag_233\n      jump\t// in\n    tag_263:\n        /* \"#utility.yul\":1632:1693   */\n      swap5\n      pop\n        /* \"#utility.yul\":1587:1703   */\n      pop\n        /* \"#utility.yul\":1742:1744   */\n      0x60\n        /* \"#utility.yul\":1768:1819   */\n      tag_264\n        /* \"#utility.yul\":1811:1818   */\n      dup10\n        /* \"#utility.yul\":1802:1808   */\n      dup3\n        /* \"#utility.yul\":1791:1800   */\n      dup11\n        /* \"#utility.yul\":1787:1809   */\n      add\n        /* \"#utility.yul\":1768:1819   */\n      tag_233\n      jump\t// in\n    tag_264:\n        /* \"#utility.yul\":1758:1819   */\n      swap4\n      pop\n        /* \"#utility.yul\":1713:1829   */\n      pop\n        /* \"#utility.yul\":1868:1871   */\n      0x80\n        /* \"#utility.yul\":1895:1946   */\n      tag_265\n        /* \"#utility.yul\":1938:1945   */\n      dup10\n        /* \"#utility.yul\":1929:1935   */\n      dup3\n        /* \"#utility.yul\":1918:1927   */\n      dup11\n        /* \"#utility.yul\":1914:1936   */\n      add\n        /* \"#utility.yul\":1895:1946   */\n      tag_233\n      jump\t// in\n    tag_265:\n        /* \"#utility.yul\":1885:1946   */\n      swap3\n      pop\n        /* \"#utility.yul\":1839:1956   */\n      pop\n        /* \"#utility.yul\":1995:1998   */\n      0xa0\n        /* \"#utility.yul\":2022:2073   */\n      tag_266\n        /* \"#utility.yul\":2065:2072   */\n      dup10\n        /* \"#utility.yul\":2056:2062   */\n      dup3\n        /* \"#utility.yul\":2045:2054   */\n      dup11\n        /* \"#utility.yul\":2041:2063   */\n      add\n        /* \"#utility.yul\":2022:2073   */\n      tag_233\n      jump\t// in\n    tag_266:\n        /* \"#utility.yul\":2012:2073   */\n      swap2\n      pop\n        /* \"#utility.yul\":1966:2083   */\n      pop\n        /* \"#utility.yul\":1055:2090   */\n      swap3\n      swap6\n      pop\n      swap3\n      swap6\n      pop\n      swap3\n      swap6\n      jump\t// out\n        /* \"#utility.yul\":2096:2173   */\n    tag_234:\n        /* \"#utility.yul\":2133:2140   */\n      0x00\n        /* \"#utility.yul\":2162:2167   */\n      dup2\n        /* \"#utility.yul\":2151:2167   */\n      swap1\n      pop\n        /* \"#utility.yul\":2096:2173   */\n      swap2\n      swap1\n      pop\n      jump\t// out\n        /* \"#utility.yul\":2179:2305   */\n    tag_235:\n        /* \"#utility.yul\":2274:2298   */\n      tag_269\n        /* \"#utility.yul\":2292:2297   */\n      dup2\n        /* \"#utility.yul\":2274:2298   */\n      tag_234\n      jump\t// in\n    tag_269:\n        /* \"#utility.yul\":2269:2272   */\n      dup3\n        /* \"#utility.yul\":2262:2299   */\n      mstore\n        /* \"#utility.yul\":2179:2305   */\n      pop\n      pop\n      jump\t// out\n        /* \"#utility.yul\":2311:2549   */\n    tag_9:\n        /* \"#utility.yul\":2412:2416   */\n      0x00\n        /* \"#utility.yul\":2450:2452   */\n      0x20\n        /* \"#utility.yul\":2439:2448   */\n      dup3\n        /* \"#utility.yul\":2435:2453   */\n      add\n        /* \"#utility.yul\":2427:2453   */\n      swap1\n      pop\n        /* \"#utility.yul\":2463:2542   */\n      tag_271\n        /* \"#utility.yul\":2539:2540   */\n      0x00\n        /* \"#utility.yul\":2528:2537   */\n      dup4\n        /* \"#utility.yul\":2524:2541   */\n      add\n        /* \"#utility.yul\":2515:2521   */\n      dup5\n        /* \"#utility.yul\":2463:2542   */\n      tag_235\n      jump\t// in\n    tag_271:\n        /* \"#utility.yul\":2311:2549   */\n      swap3\n      swap2\n      pop\n      pop\n      jump\t// out\n        /* \"#utility.yul\":2555:2677   */\n    tag_236:\n        /* \"#utility.yul\":2628:2652   */\n      tag_273\n        /* \"#utility.yul\":2646:2651   */\n      dup2\n        /* \"#utility.yul\":2628:2652   */\n      tag_234\n      jump\t// in\n    tag_273:\n        /* \"#utility.yul\":2621:2626   */\n      dup2\n        /* \"#utility.yul\":2618:2653   */\n      eq\n        /* \"#utility.yul\":2608:2671   */\n      tag_274\n      jumpi\n        /* \"#utility.yul\":2667:2668   */\n      0x00\n        /* \"#utility.yul\":2664:2665   */\n      dup1\n        /* \"#utility.yul\":2657:2669   */\n      revert\n        /* \"#utility.yul\":2608:2671   */\n    tag_274:\n        /* \"#utility.yul\":2555:2677   */\n      pop\n      jump\t// out\n        /* \"#utility.yul\":2683:2822   */\n    tag_237:\n        /* \"#utility.yul\":2729:2734   */\n      0x00\n        /* \"#utility.yul\":2767:2773   */\n      dup2\n        /* \"#utility.yul\":2754:2774   */\n      calldataload\n        /* \"#utility.yul\":2745:2774   */\n      swap1\n      pop\n        /* \"#utility.yul\":2783:2816   */\n      tag_276\n        /* \"#utility.yul\":2810:2815   */\n      dup2\n        /* \"#utility.yul\":2783:2816   */\n      tag_236\n      jump\t// in\n    tag_276:\n        /* \"#utility.yul\":2683:2822   */\n      swap3\n      swap2\n      pop\n      pop\n      jump\t// out\n        /* \"#utility.yul\":2828:3157   */\n    tag_12:\n        /* \"#utility.yul\":2887:2893   */\n      0x00\n        /* \"#utility.yul\":2936:2938   */\n      0x20\n        /* \"#utility.yul\":2924:2933   */\n      dup3\n        /* \"#utility.yul\":2915:2922   */\n      dup5\n        /* \"#utility.yul\":2911:2934   */\n      sub\n        /* \"#utility.yul\":2907:2939   */\n      slt\n        /* \"#utility.yul\":2904:3023   */\n      iszero\n      tag_278\n      jumpi\n        /* \"#utility.yul\":2942:3021   */\n      tag_279\n      tag_226\n      jump\t// in\n    tag_279:\n        /* \"#utility.yul\":2904:3023   */\n    tag_278:\n        /* \"#utility.yul\":3062:3063   */\n      0x00\n        /* \"#utility.yul\":3087:3140   */\n      tag_280\n        /* \"#utility.yul\":3132:3139   */\n      dup5\n        /* \"#utility.yul\":3123:3129   */\n      dup3\n        /* \"#utility.yul\":3112:3121   */\n      dup6\n        /* \"#utility.yul\":3108:3130   */\n      add\n        /* \"#utility.yul\":3087:3140   */\n      tag_237\n      jump\t// in\n    tag_280:\n        /* \"#utility.yul\":3077:3140   */\n      swap2\n      pop\n        /* \"#utility.yul\":3033:3150   */\n      pop\n        /* \"#utility.yul\":2828:3157   */\n      swap3\n      swap2\n      pop\n      pop\n      jump\t// out\n        /* \"#utility.yul\":3163:3286   */\n    tag_238:\n        /* \"#utility.yul\":3256:3279   */\n      tag_282\n        /* \"#utility.yul\":3273:3278   */\n      dup2\n        /* \"#utility.yul\":3256:3279   */\n      tag_228\n      jump\t// in\n    tag_282:\n        /* \"#utility.yul\":3251:3254   */\n      dup3\n        /* \"#utility.yul\":3244:3280   */\n      mstore\n        /* \"#utility.yul\":3163:3286   */\n      pop\n      pop\n      jump\t// out\n        /* \"#utility.yul\":3292:3412   */\n    tag_239:\n        /* \"#utility.yul\":3383:3405   */\n      tag_284\n        /* \"#utility.yul\":3399:3404   */\n      dup2\n        /* \"#utility.yul\":3383:3405   */\n      tag_231\n      jump\t// in\n    tag_284:\n        /* \"#utility.yul\":3378:3381   */\n      dup3\n        /* \"#utility.yul\":3371:3406   */\n      mstore\n        /* \"#utility.yul\":3292:3412   */\n      pop\n      pop\n      jump\t// out\n        /* \"#utility.yul\":3418:4205   */\n    tag_15:\n        /* \"#utility.yul\":3637:3641   */\n      0x00\n        /* \"#utility.yul\":3675:3678   */\n      0xc0\n        /* \"#utility.yul\":3664:3673   */\n      dup3\n        /* \"#utility.yul\":3660:3679   */\n      add\n        /* \"#utility.yul\":3652:3679   */\n      swap1\n      pop\n        /* \"#utility.yul\":3689:3766   */\n      tag_286\n        /* \"#utility.yul\":3763:3764   */\n      0x00\n        /* \"#utility.yul\":3752:3761   */\n      dup4\n        /* \"#utility.yul\":3748:3765   */\n      add\n        /* \"#utility.yul\":3739:3745   */\n      dup10\n        /* \"#utility.yul\":3689:3766   */\n      tag_238\n      jump\t// in\n    tag_286:\n        /* \"#utility.yul\":3776:3852   */\n      tag_287\n        /* \"#utility.yul\":3848:3850   */\n      0x20\n        /* \"#utility.yul\":3837:3846   */\n      dup4\n        /* \"#utility.yul\":3833:3851   */\n      add\n        /* \"#utility.yul\":3824:3830   */\n      dup9\n        /* \"#utility.yul\":3776:3852   */\n      tag_239\n      jump\t// in\n    tag_287:\n        /* \"#utility.yul\":3862:3938   */\n      tag_288\n        /* \"#utility.yul\":3934:3936   */\n      0x40\n        /* \"#utility.yul\":3923:3932   */\n      dup4\n        /* \"#utility.yul\":3919:3937   */\n      add\n        /* \"#utility.yul\":3910:3916   */\n      dup8\n        /* \"#utility.yul\":3862:3938   */\n      tag_239\n      jump\t// in\n    tag_288:\n        /* \"#utility.yul\":3948:4024   */\n      tag_289\n        /* \"#utility.yul\":4020:4022   */\n      0x60\n        /* \"#utility.yul\":4009:4018   */\n      dup4\n        /* \"#utility.yul\":4005:4023   */\n      add\n        /* \"#utility.yul\":3996:4002   */\n      dup7\n        /* \"#utility.yul\":3948:4024   */\n      tag_239\n      jump\t// in\n    tag_289:\n        /* \"#utility.yul\":4034:4111   */\n      tag_290\n        /* \"#utility.yul\":4106:4109   */\n      0x80\n        /* \"#utility.yul\":4095:4104   */\n      dup4\n        /* \"#utility.yul\":4091:4110   */\n      add\n        /* \"#utility.yul\":4082:4088   */\n      dup6\n        /* \"#utility.yul\":4034:4111   */\n      tag_239\n      jump\t// in\n    tag_290:\n        /* \"#utility.yul\":4121:4198   */\n      tag_291\n        /* \"#utility.yul\":4193:4196   */\n      0xa0\n        /* \"#utility.yul\":4182:4191   */\n      dup4\n        /* \"#utility.yul\":4178:4197   */\n      add\n        /* \"#utility.yul\":4169:4175   */\n      dup5\n        /* \"#utility.yul\":4121:4198   */\n      tag_239\n      jump\t// in\n    tag_291:\n        /* \"#utility.yul\":3418:4205   */\n      swap8\n      swap7\n      pop\n      pop\n      pop\n      pop\n      pop\n      pop\n      pop\n      jump\t// out\n        /* \"#utility.yul\":4211:4391   */\n    tag_240:\n        /* \"#utility.yul\":4259:4336   */\n      0x4e487b7100000000000000000000000000000000000000000000000000000000\n        /* \"#utility.yul\":4256:4257   */\n      0x00\n        /* \"#utility.yul\":4249:4337   */\n      mstore\n        /* \"#utility.yul\":4356:4360   */\n      0x11\n        /* \"#utility.yul\":4353:4354   */\n      0x04\n        /* \"#utility.yul\":4346:4361   */\n      mstore\n        /* \"#utility.yul\":4380:4384   */\n      0x24\n        /* \"#utility.yul\":4377:4378   */\n      0x00\n        /* \"#utility.yul\":4370:4385   */\n      revert\n        /* \"#utility.yul\":4397:4588   */\n    tag_25:\n        /* \"#utility.yul\":4437:4440   */\n      0x00\n        /* \"#utility.yul\":4456:4476   */\n      tag_294\n        /* \"#utility.yul\":4474:4475   */\n      dup3\n        /* \"#utility.yul\":4456:4476   */\n      tag_234\n      jump\t// in\n    tag_294:\n        /* \"#utility.yul\":4451:4476   */\n      swap2\n      pop\n        /* \"#utility.yul\":4490:4510   */\n      tag_295\n        /* \"#utility.yul\":4508:4509   */\n      dup4\n        /* \"#utility.yul\":4490:4510   */\n      tag_234\n      jump\t// in\n    tag_295:\n        /* \"#utility.yul\":4485:4510   */\n      swap3\n      pop\n        /* \"#utility.yul\":4533:4534   */\n      dup3\n        /* \"#utility.yul\":4530:4531   */\n      dup3\n        /* \"#utility.yul\":4526:4535   */\n      add\n        /* \"#utility.yul\":4519:4535   */\n      swap1\n      pop\n        /* \"#utility.yul\":4554:4557   */\n      dup1\n        /* \"#utility.yul\":4551:4552   */\n      dup3\n        /* \"#utility.yul\":4548:4558   */\n      gt\n        /* \"#utility.yul\":4545:4581   */\n      iszero\n      tag_296\n      jumpi\n        /* \"#utility.yul\":4561:4579   */\n      tag_297\n      tag_240\n      jump\t// in\n    tag_297:\n        /* \"#utility.yul\":4545:4581   */\n    tag_296:\n        /* \"#utility.yul\":4397:4588   */\n      swap3\n      swap2\n      pop\n      pop\n      jump\t// out\n        /* \"#utility.yul\":4594:4785   */\n    tag_27:\n        /* \"#utility.yul\":4632:4636   */\n      0x00\n        /* \"#utility.yul\":4652:4670   */\n      tag_299\n        /* \"#utility.yul\":4668:4669   */\n      dup3\n        /* \"#utility.yul\":4652:4670   */\n      tag_231\n      jump\t// in\n    tag_299:\n        /* \"#utility.yul\":4647:4670   */\n      swap2\n      pop\n        /* \"#utility.yul\":4684:4702   */\n      tag_300\n        /* \"#utility.yul\":4700:4701   */\n      dup4\n        /* \"#utility.yul\":4684:4702   */\n      tag_231\n      jump\t// in\n    tag_300:\n        /* \"#utility.yul\":4679:4702   */\n      swap3\n      pop\n        /* \"#utility.yul\":4726:4727   */\n      dup3\n        /* \"#utility.yul\":4723:4724   */\n      dup3\n        /* \"#utility.yul\":4719:4728   */\n      sub\n        /* \"#utility.yul\":4711:4728   */\n      swap1\n      pop\n        /* \"#utility.yul\":4750:4754   */\n      0xff\n        /* \"#utility.yul\":4744:4748   */\n      dup2\n        /* \"#utility.yul\":4741:4755   */\n      gt\n        /* \"#utility.yul\":4738:4778   */\n      iszero\n      tag_301\n      jumpi\n        /* \"#utility.yul\":4758:4776   */\n      tag_302\n      tag_240\n      jump\t// in\n    tag_302:\n        /* \"#utility.yul\":4738:4778   */\n    tag_301:\n        /* \"#utility.yul\":4594:4785   */\n      swap3\n      swap2\n      pop\n      pop\n      jump\t// out\n        /* \"#utility.yul\":4791:5201   */\n    tag_29:\n        /* \"#utility.yul\":4831:4838   */\n      0x00\n        /* \"#utility.yul\":4854:4874   */\n      tag_304\n        /* \"#utility.yul\":4872:4873   */\n      dup3\n        /* \"#utility.yul\":4854:4874   */\n      tag_234\n      jump\t// in\n    tag_304:\n        /* \"#utility.yul\":4849:4874   */\n      swap2\n      pop\n        /* \"#utility.yul\":4888:4908   */\n      tag_305\n        /* \"#utility.yul\":4906:4907   */\n      dup4\n        /* \"#utility.yul\":4888:4908   */\n      tag_234\n      jump\t// in\n    tag_305:\n        /* \"#utility.yul\":4883:4908   */\n      swap3\n      pop\n        /* \"#utility.yul\":4943:4944   */\n      dup3\n        /* \"#utility.yul\":4940:4941   */\n      dup3\n        /* \"#utility.yul\":4936:4945   */\n      mul\n        /* \"#utility.yul\":4965:4995   */\n      tag_306\n        /* \"#utility.yul\":4983:4994   */\n      dup2\n        /* \"#utility.yul\":4965:4995   */\n      tag_234\n      jump\t// in\n    tag_306:\n        /* \"#utility.yul\":4954:4995   */\n      swap2\n      pop\n        /* \"#utility.yul\":5144:5145   */\n      dup3\n        /* \"#utility.yul\":5135:5142   */\n      dup3\n        /* \"#utility.yul\":5131:5146   */\n      div\n        /* \"#utility.yul\":5128:5129   */\n      dup5\n        /* \"#utility.yul\":5125:5147   */\n      eq\n        /* \"#utility.yul\":5105:5106   */\n      dup4\n        /* \"#utility.yul\":5098:5107   */\n      iszero\n        /* \"#utility.yul\":5078:5161   */\n      or\n        /* \"#utility.yul\":5055:5194   */\n      tag_307\n      jumpi\n        /* \"#utility.yul\":5174:5192   */\n      tag_308\n      tag_240\n      jump\t// in\n    tag_308:\n        /* \"#utility.yul\":5055:5194   */\n    tag_307:\n        /* \"#utility.yul\":4839:5201   */\n      pop\n        /* \"#utility.yul\":4791:5201   */\n      swap3\n      swap2\n      pop\n      pop\n      jump\t// out\n        /* \"#utility.yul\":5207:5403   */\n    tag_69:\n        /* \"#utility.yul\":5246:5250   */\n      0x00\n        /* \"#utility.yul\":5266:5285   */\n      tag_310\n        /* \"#utility.yul\":5283:5284   */\n      dup3\n        /* \"#utility.yul\":5266:5285   */\n      tag_228\n      jump\t// in\n    tag_310:\n        /* \"#utility.yul\":5261:5285   */\n      swap2\n      pop\n        /* \"#utility.yul\":5299:5318   */\n      tag_311\n        /* \"#utility.yul\":5316:5317   */\n      dup4\n        /* \"#utility.yul\":5299:5318   */\n      tag_228\n      jump\t// in\n    tag_311:\n        /* \"#utility.yul\":5294:5318   */\n      swap3\n      pop\n        /* \"#utility.yul\":5342:5343   */\n      dup3\n        /* \"#utility.yul\":5339:5340   */\n      dup3\n        /* \"#utility.yul\":5335:5344   */\n      sub\n        /* \"#utility.yul\":5327:5344   */\n      swap1\n      pop\n        /* \"#utility.yul\":5366:5372   */\n      0xffff\n        /* \"#utility.yul\":5360:5364   */\n      dup2\n        /* \"#utility.yul\":5357:5373   */\n      gt\n        /* \"#utility.yul\":5354:5396   */\n      iszero\n      tag_312\n      jumpi\n        /* \"#utility.yul\":5376:5394   */\n      tag_313\n      tag_240\n      jump\t// in\n    tag_313:\n        /* \"#utility.yul\":5354:5396   */\n    tag_312:\n        /* \"#utility.yul\":5207:5403   */\n      swap3\n      swap2\n      pop\n      pop\n      jump\t// out\n        /* \"#utility.yul\":5409:5589   */\n    tag_95:\n        /* \"#utility.yul\":5457:5534   */\n      0x4e487b7100000000000000000000000000000000000000000000000000000000\n        /* \"#utility.yul\":5454:5455   */\n      0x00\n        /* \"#utility.yul\":5447:5535   */\n      mstore\n        /* \"#utility.yul\":5554:5558   */\n      0x32\n        /* \"#utility.yul\":5551:5552   */\n      0x04\n        /* \"#utility.yul\":5544:5559   */\n      mstore\n        /* \"#utility.yul\":5578:5582   */\n      0x24\n        /* \"#utility.yul\":5575:5576   */\n      0x00\n        /* \"#utility.yul\":5568:5583   */\n      revert\n        /* \"#utility.yul\":5595:5775   */\n    tag_241:\n        /* \"#utility.yul\":5643:5720   */\n      0x4e487b7100000000000000000000000000000000000000000000000000000000\n        /* \"#utility.yul\":5640:5641   */\n      0x00\n        /* \"#utility.yul\":5633:5721   */\n      mstore\n        /* \"#utility.yul\":5740:5744   */\n      0x12\n        /* \"#utility.yul\":5737:5738   */\n      0x04\n        /* \"#utility.yul\":5730:5745   */\n      mstore\n        /* \"#utility.yul\":5764:5768   */\n      0x24\n        /* \"#utility.yul\":5761:5762   */\n      0x00\n        /* \"#utility.yul\":5754:5769   */\n      revert\n        /* \"#utility.yul\":5781:5966   */\n    tag_100:\n        /* \"#utility.yul\":5821:5822   */\n      0x00\n        /* \"#utility.yul\":5838:5858   */\n      tag_317\n        /* \"#utility.yul\":5856:5857   */\n      dup3\n        /* \"#utility.yul\":5838:5858   */\n      tag_234\n      jump\t// in\n    tag_317:\n        /* \"#utility.yul\":5833:5858   */\n      swap2\n      pop\n        /* \"#utility.yul\":5872:5892   */\n      tag_318\n        /* \"#utility.yul\":5890:5891   */\n      dup4\n        /* \"#utility.yul\":5872:5892   */\n      tag_234\n      jump\t// in\n    tag_318:\n        /* \"#utility.yul\":5867:5892   */\n      swap3\n      pop\n        /* \"#utility.yul\":5911:5912   */\n      dup3\n        /* \"#utility.yul\":5901:5936   */\n      tag_319\n      jumpi\n        /* \"#utility.yul\":5916:5934   */\n      tag_320\n      tag_241\n      jump\t// in\n    tag_320:\n        /* \"#utility.yul\":5901:5936   */\n    tag_319:\n        /* \"#utility.yul\":5958:5959   */\n      dup3\n        /* \"#utility.yul\":5955:5956   */\n      dup3\n        /* \"#utility.yul\":5951:5960   */\n      div\n        /* \"#utility.yul\":5946:5960   */\n      swap1\n      pop\n        /* \"#utility.yul\":5781:5966   */\n      swap3\n      swap2\n      pop\n      pop\n      jump\t// out\n        /* \"#utility.yul\":5972:6166   */\n    tag_103:\n        /* \"#utility.yul\":6012:6016   */\n      0x00\n        /* \"#utility.yul\":6032:6052   */\n      tag_322\n        /* \"#utility.yul\":6050:6051   */\n      dup3\n        /* \"#utility.yul\":6032:6052   */\n      tag_234\n      jump\t// in\n    tag_322:\n        /* \"#utility.yul\":6027:6052   */\n      swap2\n      pop\n        /* \"#utility.yul\":6066:6086   */\n      tag_323\n        /* \"#utility.yul\":6084:6085   */\n      dup4\n        /* \"#utility.yul\":6066:6086   */\n      tag_234\n      jump\t// in\n    tag_323:\n        /* \"#utility.yul\":6061:6086   */\n      swap3\n      pop\n        /* \"#utility.yul\":6110:6111   */\n      dup3\n        /* \"#utility.yul\":6107:6108   */\n      dup3\n        /* \"#utility.yul\":6103:6112   */\n      sub\n        /* \"#utility.yul\":6095:6112   */\n      swap1\n      pop\n        /* \"#utility.yul\":6134:6135   */\n      dup2\n        /* \"#utility.yul\":6128:6132   */\n      dup2\n        /* \"#utility.yul\":6125:6136   */\n      gt\n        /* \"#utility.yul\":6122:6159   */\n      iszero\n      tag_324\n      jumpi\n        /* \"#utility.yul\":6139:6157   */\n      tag_325\n      tag_240\n      jump\t// in\n    tag_325:\n        /* \"#utility.yul\":6122:6159   */\n    tag_324:\n        /* \"#utility.yul\":5972:6166   */\n      swap3\n      swap2\n      pop\n      pop\n      jump\t// out\n        /* \"#utility.yul\":6172:6365   */\n    tag_105:\n        /* \"#utility.yul\":6211:6214   */\n      0x00\n        /* \"#utility.yul\":6230:6249   */\n      tag_327\n        /* \"#utility.yul\":6247:6248   */\n      dup3\n        /* \"#utility.yul\":6230:6249   */\n      tag_228\n      jump\t// in\n    tag_327:\n        /* \"#utility.yul\":6225:6249   */\n      swap2\n      pop\n        /* \"#utility.yul\":6263:6282   */\n      tag_328\n        /* \"#utility.yul\":6280:6281   */\n      dup4\n        /* \"#utility.yul\":6263:6282   */\n      tag_228\n      jump\t// in\n    tag_328:\n        /* \"#utility.yul\":6258:6282   */\n      swap3\n      pop\n        /* \"#utility.yul\":6305:6306   */\n      dup3\n        /* \"#utility.yul\":6302:6303   */\n      dup3\n        /* \"#utility.yul\":6298:6307   */\n      add\n        /* \"#utility.yul\":6291:6307   */\n      swap1\n      pop\n        /* \"#utility.yul\":6328:6334   */\n      0xffff\n        /* \"#utility.yul\":6323:6326   */\n      dup2\n        /* \"#utility.yul\":6320:6335   */\n      gt\n        /* \"#utility.yul\":6317:6358   */\n      iszero\n      tag_329\n      jumpi\n        /* \"#utility.yul\":6338:6356   */\n      tag_330\n      tag_240\n      jump\t// in\n    tag_330:\n        /* \"#utility.yul\":6317:6358   */\n    tag_329:\n        /* \"#utility.yul\":6172:6365   */\n      swap3\n      swap2\n      pop\n      pop\n      jump\t// out\n        /* \"#utility.yul\":6371:6553   */\n    tag_196:\n        /* \"#utility.yul\":6410:6411   */\n      0x00\n        /* \"#utility.yul\":6427:6446   */\n      tag_332\n        /* \"#utility.yul\":6444:6445   */\n      dup3\n        /* \"#utility.yul\":6427:6446   */\n      tag_228\n      jump\t// in\n    tag_332:\n        /* \"#utility.yul\":6422:6446   */\n      swap2\n      pop\n        /* \"#utility.yul\":6460:6479   */\n      tag_333\n        /* \"#utility.yul\":6477:6478   */\n      dup4\n        /* \"#utility.yul\":6460:6479   */\n      tag_228\n      jump\t// in\n    tag_333:\n        /* \"#utility.yul\":6455:6479   */\n      swap3\n      pop\n        /* \"#utility.yul\":6498:6499   */\n      dup3\n        /* \"#utility.yul\":6488:6523   */\n      tag_334\n      jumpi\n        /* \"#utility.yul\":6503:6521   */\n      tag_335\n      tag_241\n      jump\t// in\n    tag_335:\n        /* \"#utility.yul\":6488:6523   */\n    tag_334:\n        /* \"#utility.yul\":6545:6546   */\n      dup3\n        /* \"#utility.yul\":6542:6543   */\n      dup3\n        /* \"#utility.yul\":6538:6547   */\n      div\n        /* \"#utility.yul\":6533:6547   */\n      swap1\n      pop\n        /* \"#utility.yul\":6371:6553   */\n      swap3\n      swap2\n      pop\n      pop\n      jump\t// out\n        /* \"#utility.yul\":6559:6732   */\n    tag_210:\n        /* \"#utility.yul\":6590:6591   */\n      0x00\n        /* \"#utility.yul\":6607:6626   */\n      tag_337\n        /* \"#utility.yul\":6624:6625   */\n      dup3\n        /* \"#utility.yul\":6607:6626   */\n      tag_228\n      jump\t// in\n    tag_337:\n        /* \"#utility.yul\":6602:6626   */\n      swap2\n      pop\n        /* \"#utility.yul\":6640:6659   */\n      tag_338\n        /* \"#utility.yul\":6657:6658   */\n      dup4\n        /* \"#utility.yul\":6640:6659   */\n      tag_228\n      jump\t// in\n    tag_338:\n        /* \"#utility.yul\":6635:6659   */\n      swap3\n      pop\n        /* \"#utility.yul\":6678:6679   */\n      dup3\n        /* \"#utility.yul\":6668:6703   */\n      tag_339\n      jumpi\n        /* \"#utility.yul\":6683:6701   */\n      tag_340\n      tag_241\n      jump\t// in\n    tag_340:\n        /* \"#utility.yul\":6668:6703   */\n    tag_339:\n        /* \"#utility.yul\":6724:6725   */\n      dup3\n        /* \"#utility.yul\":6721:6722   */\n      dup3\n        /* \"#utility.yul\":6717:6726   */\n      mod\n        /* \"#utility.yul\":6712:6726   */\n      swap1\n      pop\n        /* \"#utility.yul\":6559:6732   */\n      swap3\n      swap2\n      pop\n      pop\n      jump\t// out\n\n    auxdata: 0xa2646970667358221220db74599890d987275ef7b7aef15231310c10bbce5562ddef01e0e836290c30bd64736f6c63430008190033\n}\n",
				"bytecode": {
					"linkReferences": {},
					"object": "61142161004d600b8282823980515f1a6073146041577f4e487b71000000000000000000000000000000000000000000000000000000005f525f60045260245ffd5b305f52607381538281f3fe730000000000000000000000000000000000000000301460806040526004361061003f575f3560e01c8063315f706d14610043578063c802fd6314610073575b5f80fd5b61005d60048036038101906100589190611003565b6100a8565b60405161006a91906110a4565b60405180910390f35b61008d600480360381019061008891906110e7565b610168565b60405161009f96959493929190611130565b60405180910390f35b5f6100b78787878787876101d5565b6100bf575f80fd5b5f6100ca8189610265565b90506100d68888610390565b816100e191906111bc565b9050620151806001876100f491906111ef565b60ff166101019190611223565b8161010c91906111bc565b9050610e108560ff1661011f9190611223565b8161012a91906111bc565b9050603c8460ff1661013c9190611223565b8161014791906111bc565b90508260ff168161015891906111bc565b9050809150509695505050505050565b5f805f805f805f87905061017b81610587565b809850819250505061018d81886107f4565b809750819250505061019e81610b6e565b80965081925050506101af81610bb6565b80955081925050506101c081610bcd565b80945081925050508091505091939550919395565b5f6101df87610be3565b6101eb575f905061025b565b6101f486610c14565b610200575f905061025b565b61020b878787610c41565b610217575f905061025b565b61022084610d55565b61022c575f905061025b565b61023583610d74565b610241575f905061025b565b61024a82610d93565b610256575f905061025b565b600190505b9695505050505050565b5f805f8490506107b48461ffff1610156102ac576301e133806107b28561028c9190611264565b61ffff1661029a9190611223565b816102a591906111bc565b9050610385565b6301e1338060026102bd9190611223565b816102c891906111bc565b90506107b491506107d08461ffff161061033d576334aadc80816102ec91906111bc565b90506107d091506103078483836101906402f0605980610db2565b809250819350505061031a848383610e17565b8092508193505050610334848383606463bc17c200610db2565b80925081935050505b61034f84838360046307861f80610db2565b8092508193505050610362848383610e17565b809250819350505061037c84838360016301e13380610db2565b80925081935050505b809250505092915050565b5f610399610f4c565b6103a284610e78565b1561047e57604051806101a001604052805f63ffffffff1681526020016228de8063ffffffff168152602001624f1a0063ffffffff1681526020016277f88063ffffffff168152602001629f858063ffffffff16815260200162c8640063ffffffff16815260200162eff10063ffffffff168152602001630118cf8063ffffffff168152602001630141ae0063ffffffff1681526020016301693b0063ffffffff168152602001630192198063ffffffff1681526020016301b9a68063ffffffff1681526020016301e2850063ffffffff168152509050610551565b604051806101a001604052805f63ffffffff1681526020016228de8063ffffffff168152602001624dc88063ffffffff1681526020016276a70063ffffffff168152602001629e340063ffffffff16815260200162c7128063ffffffff16815260200162ee9f8063ffffffff1681526020016301177e0063ffffffff1681526020016301405c8063ffffffff168152602001630167e98063ffffffff168152602001630190c80063ffffffff1681526020016301b8550063ffffffff1681526020016301e1338063ffffffff1681525090505b8060018461055f91906111ef565b60ff16600d811061057357610572611299565b5b602002015163ffffffff1691505092915050565b5f805f808493506107b292506301e1338060026105a49190611223565b8410156105ed576301e13380846105bb91906112f3565b91506301e13380826105cd9190611223565b846105d89190611323565b935081836105e69190611356565b92506107ed565b6301e1338060026105fe9190611223565b846106099190611323565b93506107b492506334aadc80841061071c576334aadc808461062b9190611323565b9350601c8361063a9190611356565b92506402f06059808461064d91906112f3565b91506402f0605980826106609190611223565b8461066b9190611323565b93506101908261067b9190611223565b836106869190611356565b925061069183610ede565b90508063ffffffff1684106106c4578063ffffffff16846106b29190611323565b93506001836106c19190611356565b92505b6106cd83610e78565b61071b5763bc17c200846106e191906112f3565b915063bc17c200826106f39190611223565b846106fe9190611323565b935060648261070d9190611223565b836107189190611356565b92505b5b6307861f808461072c91906112f3565b91506307861f808261073e9190611223565b846107499190611323565b93506004826107589190611223565b836107639190611356565b925061076e83610ede565b90508063ffffffff1684106107a1578063ffffffff168461078f9190611323565b935060018361079e9190611356565b92505b6107aa83610e78565b6107ec576301e13380846107be91906112f3565b91506301e13380826107d09190611223565b846107db9190611323565b935081836107e99190611356565b92505b5b5050915091565b5f806107fe610f6f565b610806610f4c565b85935061081285610e78565b1561097b57604051806101a001604052805f60ff168152602001601f60ff168152602001601d60ff168152602001601f60ff168152602001601e60ff168152602001601f60ff168152602001601e60ff168152602001601f60ff168152602001601f60ff168152602001601e60ff168152602001601f60ff168152602001601e60ff168152602001601f60ff168152509150604051806101a001604052805f63ffffffff1681526020016228de8063ffffffff168152602001624f1a0063ffffffff1681526020016277f88063ffffffff168152602001629f858063ffffffff16815260200162c8640063ffffffff16815260200162eff10063ffffffff168152602001630118cf8063ffffffff168152602001630141ae0063ffffffff1681526020016301693b0063ffffffff168152602001630192198063ffffffff1681526020016301b9a68063ffffffff1681526020016301e2850063ffffffff168152509050610adb565b604051806101a001604052805f60ff168152602001601f60ff168152602001601c60ff168152602001601f60ff168152602001601e60ff168152602001601f60ff168152602001601e60ff168152602001601f60ff168152602001601f60ff168152602001601e60ff168152602001601f60ff168152602001601e60ff168152602001601f60ff168152509150604051806101a001604052805f63ffffffff1681526020016228de8063ffffffff168152602001624dc88063ffffffff1681526020016276a70063ffffffff168152602001629e340063ffffffff16815260200162c7128063ffffffff16815260200162ee9f8063ffffffff1681526020016301177e0063ffffffff1681526020016301405c8063ffffffff168152602001630167e98063ffffffff168152602001630190c80063ffffffff1681526020016301b8550063ffffffff1681526020016301e1338063ffffffff1681525090505b5f600190505b600d8160ff161015610b6457818160ff16600d8110610b0357610b02611299565b5b602002015163ffffffff16851015610b575780935081600182610b2691906111ef565b60ff16600d8110610b3a57610b39611299565b5b602002015163ffffffff1685610b509190611323565b9450610b64565b8080600101915050610ae1565b5050509250929050565b5f805f8392506201518083610b8391906112f3565b90506201518081610b949190611223565b83610b9f9190611323565b9250600181610bae91906111bc565b915050915091565b5f80610bc483610e10610f14565b91509150915091565b5f80610bda83603c610f14565b91509150915091565b5f6107b28261ffff161080610bfd575061270f8261ffff16115b15610c0a575f9050610c0f565b600190505b919050565b5f60018260ff161080610c2a5750600c8260ff16115b15610c37575f9050610c3c565b600190505b919050565b5f80604051806101a001604052805f60ff168152602001601f60ff168152602001601c60ff168152602001601f60ff168152602001601e60ff168152602001601f60ff168152602001601e60ff168152602001601f60ff168152602001601f60ff168152602001601e60ff168152602001601f60ff168152602001601e60ff168152602001601f60ff1681525090505f808460ff1603610ce5575f92505050610d4e565b60028560ff1603610d1157610cf986610e78565b15610d0757601d9050610d0c565b601c90505b610d2f565b818560ff16600d8110610d2757610d26611299565b5b602002015190505b8060ff168460ff161115610d47575f92505050610d4e565b6001925050505b9392505050565b5f60178260ff161115610d6a575f9050610d6f565b600190505b919050565b5f603b8260ff161115610d89575f9050610d8e565b600190505b919050565b5f603b8260ff161115610da8575f9050610dad565b600190505b919050565b5f805f848789610dc29190611264565b610dcc919061138b565b61ffff1690508461ffff1681610de29190611223565b8761ffff16610df191906111bc565b92508381610dff9190611223565b86610e0a91906111bc565b9150509550959350505050565b5f808391508290508461ffff168261ffff16108015610e3b5750610e3a82610e78565b5b15610e7057600182610e4d9190611356565b9150620151806301e13380610e6291906111bc565b81610e6d91906111bc565b90505b935093915050565b5f80600483610e8791906113bb565b61ffff1614610e98575f9050610ed9565b5f61019083610ea791906113bb565b61ffff161480610ec757505f606483610ec091906113bb565b61ffff1614155b15610ed55760019050610ed9565b5f90505b919050565b5f610ee882610e78565b15610f0757620151806301e13380610f0091906111bc565b9050610f0f565b6301e1338090505b919050565b5f805f8492508383610f2691906112f3565b90508381610f349190611223565b83610f3f9190611323565b9250809150509250929050565b604051806101a00160405280600d90602082028036833780820191505090505090565b604051806101a00160405280600d90602082028036833780820191505090505090565b5f80fd5b5f61ffff82169050919050565b610fac81610f96565b8114610fb6575f80fd5b50565b5f81359050610fc781610fa3565b92915050565b5f60ff82169050919050565b610fe281610fcd565b8114610fec575f80fd5b50565b5f81359050610ffd81610fd9565b92915050565b5f805f805f8060c0878903121561101d5761101c610f92565b5b5f61102a89828a01610fb9565b965050602061103b89828a01610fef565b955050604061104c89828a01610fef565b945050606061105d89828a01610fef565b935050608061106e89828a01610fef565b92505060a061107f89828a01610fef565b9150509295509295509295565b5f819050919050565b61109e8161108c565b82525050565b5f6020820190506110b75f830184611095565b92915050565b6110c68161108c565b81146110d0575f80fd5b50565b5f813590506110e1816110bd565b92915050565b5f602082840312156110fc576110fb610f92565b5b5f611109848285016110d3565b91505092915050565b61111b81610f96565b82525050565b61112a81610fcd565b82525050565b5f60c0820190506111435f830189611112565b6111506020830188611121565b61115d6040830187611121565b61116a6060830186611121565b6111776080830185611121565b61118460a0830184611121565b979650505050505050565b7f4e487b71000000000000000000000000000000000000000000000000000000005f52601160045260245ffd5b5f6111c68261108c565b91506111d18361108c565b92508282019050808211156111e9576111e861118f565b5b92915050565b5f6111f982610fcd565b915061120483610fcd565b9250828203905060ff81111561121d5761121c61118f565b5b92915050565b5f61122d8261108c565b91506112388361108c565b92508282026112468161108c565b9150828204841483151761125d5761125c61118f565b5b5092915050565b5f61126e82610f96565b915061127983610f96565b9250828203905061ffff8111156112935761129261118f565b5b92915050565b7f4e487b71000000000000000000000000000000000000000000000000000000005f52603260045260245ffd5b7f4e487b71000000000000000000000000000000000000000000000000000000005f52601260045260245ffd5b5f6112fd8261108c565b91506113088361108c565b925082611318576113176112c6565b5b828204905092915050565b5f61132d8261108c565b91506113388361108c565b92508282039050818111156113505761134f61118f565b5b92915050565b5f61136082610f96565b915061136b83610f96565b9250828201905061ffff8111156113855761138461118f565b5b92915050565b5f61139582610f96565b91506113a083610f96565b9250826113b0576113af6112c6565b5b828204905092915050565b5f6113c582610f96565b91506113d083610f96565b9250826113e0576113df6112c6565b5b82820690509291505056fea2646970667358221220db74599890d987275ef7b7aef15231310c10bbce5562ddef01e0e836290c30bd64736f6c63430008190033",
					"opcodes": "PUSH2 0x1421 PUSH2 0x4D PUSH1 0xB DUP3 DUP3 DUP3 CODECOPY DUP1 MLOAD PUSH0 BYTE PUSH1 0x73 EQ PUSH1 0x41 JUMPI PUSH32 0x4E487B7100000000000000000000000000000000000000000000000000000000 PUSH0 MSTORE PUSH0 PUSH1 0x4 MSTORE PUSH1 0x24 PUSH0 REVERT JUMPDEST ADDRESS PUSH0 MSTORE PUSH1 0x73 DUP2 MSTORE8 DUP3 DUP2 RETURN INVALID PUSH20 0x0 ADDRESS EQ PUSH1 0x80 PUSH1 0x40 MSTORE PUSH1 0x4 CALLDATASIZE LT PUSH2 0x3F JUMPI PUSH0 CALLDATALOAD PUSH1 0xE0 SHR DUP1 PUSH4 0x315F706D EQ PUSH2 0x43 JUMPI DUP1 PUSH4 0xC802FD63 EQ PUSH2 0x73 JUMPI JUMPDEST PUSH0 DUP1 REVERT JUMPDEST PUSH2 0x5D PUSH1 0x4 DUP1 CALLDATASIZE SUB DUP2 ADD SWAP1 PUSH2 0x58 SWAP2 SWAP1 PUSH2 0x1003 JUMP JUMPDEST PUSH2 0xA8 JUMP JUMPDEST PUSH1 0x40 MLOAD PUSH2 0x6A SWAP2 SWAP1 PUSH2 0x10A4 JUMP JUMPDEST PUSH1 0x40 MLOAD DUP1 SWAP2 SUB SWAP1 RETURN JUMPDEST PUSH2 0x8D PUSH1 0x4 DUP1 CALLDATASIZE SUB DUP2 ADD SWAP1 PUSH2 0x88 SWAP2 SWAP1 PUSH2 0x10E7 JUMP JUMPDEST PUSH2 0x168 JUMP JUMPDEST PUSH1 0x40 MLOAD PUSH2 0x9F SWAP7 SWAP6 SWAP5 SWAP4 SWAP3 SWAP2 SWAP1 PUSH2 0x1130 JUMP JUMPDEST PUSH1 0x40 MLOAD DUP1 SWAP2 SUB SWAP1 RETURN JUMPDEST PUSH0 PUSH2 0xB7 DUP8 DUP8 DUP8 DUP8 DUP8 DUP8 PUSH2 0x1D5 JUMP JUMPDEST PUSH2 0xBF JUMPI PUSH0 DUP1 REVERT JUMPDEST PUSH0 PUSH2 0xCA DUP2 DUP10 PUSH2 0x265 JUMP JUMPDEST SWAP1 POP PUSH2 0xD6 DUP9 DUP9 PUSH2 0x390 JUMP JUMPDEST DUP2 PUSH2 0xE1 SWAP2 SWAP1 PUSH2 0x11BC JUMP JUMPDEST SWAP1 POP PUSH3 0x15180 PUSH1 0x1 DUP8 PUSH2 0xF4 SWAP2 SWAP1 PUSH2 0x11EF JUMP JUMPDEST PUSH1 0xFF AND PUSH2 0x101 SWAP2 SWAP1 PUSH2 0x1223 JUMP JUMPDEST DUP2 PUSH2 0x10C SWAP2 SWAP1 PUSH2 0x11BC JUMP JUMPDEST SWAP1 POP PUSH2 0xE10 DUP6 PUSH1 0xFF AND PUSH2 0x11F SWAP2 SWAP1 PUSH2 0x1223 JUMP JUMPDEST DUP2 PUSH2 0x12A SWAP2 SWAP1 PUSH2 0x11BC JUMP JUMPDEST SWAP1 POP PUSH1 0x3C DUP5 PUSH1 0xFF AND PUSH2 0x13C SWAP2 SWAP1 PUSH2 0x1223 JUMP JUMPDEST DUP2 PUSH2 0x147 SWAP2 SWAP1 PUSH2 0x11BC JUMP JUMPDEST SWAP1 POP DUP3 PUSH1 0xFF AND DUP2 PUSH2 0x158 SWAP2 SWAP1 PUSH2 0x11BC JUMP JUMPDEST SWAP1 POP DUP1 SWAP2 POP POP SWAP7 SWAP6 POP POP POP POP POP POP JUMP JUMPDEST PUSH0 DUP1 PUSH0 DUP1 PUSH0 DUP1 PUSH0 DUP8 SWAP1 POP PUSH2 0x17B DUP2 PUSH2 0x587 JUMP JUMPDEST DUP1 SWAP9 POP DUP2 SWAP3 POP POP POP PUSH2 0x18D DUP2 DUP9 PUSH2 0x7F4 JUMP JUMPDEST DUP1 SWAP8 POP DUP2 SWAP3 POP POP POP PUSH2 0x19E DUP2 PUSH2 0xB6E JUMP JUMPDEST DUP1 SWAP7 POP DUP2 SWAP3 POP POP POP PUSH2 0x1AF DUP2 PUSH2 0xBB6 JUMP JUMPDEST DUP1 SWAP6 POP DUP2 SWAP3 POP POP POP PUSH2 0x1C0 DUP2 PUSH2 0xBCD JUMP JUMPDEST DUP1 SWAP5 POP DUP2 SWAP3 POP POP POP DUP1 SWAP2 POP POP SWAP2 SWAP4 SWAP6 POP SWAP2 SWAP4 SWAP6 JUMP JUMPDEST PUSH0 PUSH2 0x1DF DUP8 PUSH2 0xBE3 JUMP JUMPDEST PUSH2 0x1EB JUMPI PUSH0 SWAP1 POP PUSH2 0x25B JUMP JUMPDEST PUSH2 0x1F4 DUP7 PUSH2 0xC14 JUMP JUMPDEST PUSH2 0x200 JUMPI PUSH0 SWAP1 POP PUSH2 0x25B JUMP JUMPDEST PUSH2 0x20B DUP8 DUP8 DUP8 PUSH2 0xC41 JUMP JUMPDEST PUSH2 0x217 JUMPI PUSH0 SWAP1 POP PUSH2 0x25B JUMP JUMPDEST PUSH2 0x220 DUP5 PUSH2 0xD55 JUMP JUMPDEST PUSH2 0x22C JUMPI PUSH0 SWAP1 POP PUSH2 0x25B JUMP JUMPDEST PUSH2 0x235 DUP4 PUSH2 0xD74 JUMP JUMPDEST PUSH2 0x241 JUMPI PUSH0 SWAP1 POP PUSH2 0x25B JUMP JUMPDEST PUSH2 0x24A DUP3 PUSH2 0xD93 JUMP JUMPDEST PUSH2 0x256 JUMPI PUSH0 SWAP1 POP PUSH2 0x25B JUMP JUMPDEST PUSH1 0x1 SWAP1 POP JUMPDEST SWAP7 SWAP6 POP POP POP POP POP POP JUMP JUMPDEST PUSH0 DUP1 PUSH0 DUP5 SWAP1 POP PUSH2 0x7B4 DUP5 PUSH2 0xFFFF AND LT ISZERO PUSH2 0x2AC JUMPI PUSH4 0x1E13380 PUSH2 0x7B2 DUP6 PUSH2 0x28C SWAP2 SWAP1 PUSH2 0x1264 JUMP JUMPDEST PUSH2 0xFFFF AND PUSH2 0x29A SWAP2 SWAP1 PUSH2 0x1223 JUMP JUMPDEST DUP2 PUSH2 0x2A5 SWAP2 SWAP1 PUSH2 0x11BC JUMP JUMPDEST SWAP1 POP PUSH2 0x385 JUMP JUMPDEST PUSH4 0x1E13380 PUSH1 0x2 PUSH2 0x2BD SWAP2 SWAP1 PUSH2 0x1223 JUMP JUMPDEST DUP2 PUSH2 0x2C8 SWAP2 SWAP1 PUSH2 0x11BC JUMP JUMPDEST SWAP1 POP PUSH2 0x7B4 SWAP2 POP PUSH2 0x7D0 DUP5 PUSH2 0xFFFF AND LT PUSH2 0x33D JUMPI PUSH4 0x34AADC80 DUP2 PUSH2 0x2EC SWAP2 SWAP1 PUSH2 0x11BC JUMP JUMPDEST SWAP1 POP PUSH2 0x7D0 SWAP2 POP PUSH2 0x307 DUP5 DUP4 DUP4 PUSH2 0x190 PUSH5 0x2F0605980 PUSH2 0xDB2 JUMP JUMPDEST DUP1 SWAP3 POP DUP2 SWAP4 POP POP POP PUSH2 0x31A DUP5 DUP4 DUP4 PUSH2 0xE17 JUMP JUMPDEST DUP1 SWAP3 POP DUP2 SWAP4 POP POP POP PUSH2 0x334 DUP5 DUP4 DUP4 PUSH1 0x64 PUSH4 0xBC17C200 PUSH2 0xDB2 JUMP JUMPDEST DUP1 SWAP3 POP DUP2 SWAP4 POP POP POP JUMPDEST PUSH2 0x34F DUP5 DUP4 DUP4 PUSH1 0x4 PUSH4 0x7861F80 PUSH2 0xDB2 JUMP JUMPDEST DUP1 SWAP3 POP DUP2 SWAP4 POP POP POP PUSH2 0x362 DUP5 DUP4 DUP4 PUSH2 0xE17 JUMP JUMPDEST DUP1 SWAP3 POP DUP2 SWAP4 POP POP POP PUSH2 0x37C DUP5 DUP4 DUP4 PUSH1 0x1 PUSH4 0x1E13380 PUSH2 0xDB2 JUMP JUMPDEST DUP1 SWAP3 POP DUP2 SWAP4 POP POP POP JUMPDEST DUP1 SWAP3 POP POP POP SWAP3 SWAP2 POP POP JUMP JUMPDEST PUSH0 PUSH2 0x399 PUSH2 0xF4C JUMP JUMPDEST PUSH2 0x3A2 DUP5 PUSH2 0xE78 JUMP JUMPDEST ISZERO PUSH2 0x47E JUMPI PUSH1 0x40 MLOAD DUP1 PUSH2 0x1A0 ADD PUSH1 0x40 MSTORE DUP1 PUSH0 PUSH4 0xFFFFFFFF AND DUP2 MSTORE PUSH1 0x20 ADD PUSH3 0x28DE80 PUSH4 0xFFFFFFFF AND DUP2 MSTORE PUSH1 0x20 ADD PUSH3 0x4F1A00 PUSH4 0xFFFFFFFF AND DUP2 MSTORE PUSH1 0x20 ADD PUSH3 0x77F880 PUSH4 0xFFFFFFFF AND DUP2 MSTORE PUSH1 0x20 ADD PUSH3 0x9F8580 PUSH4 0xFFFFFFFF AND DUP2 MSTORE PUSH1 0x20 ADD PUSH3 0xC86400 PUSH4 0xFFFFFFFF AND DUP2 MSTORE PUSH1 0x20 ADD PUSH3 0xEFF100 PUSH4 0xFFFFFFFF AND DUP2 MSTORE PUSH1 0x20 ADD PUSH4 0x118CF80 PUSH4 0xFFFFFFFF AND DUP2 MSTORE PUSH1 0x20 ADD PUSH4 0x141AE00 PUSH4 0xFFFFFFFF AND DUP2 MSTORE PUSH1 0x20 ADD PUSH4 0x1693B00 PUSH4 0xFFFFFFFF AND DUP2 MSTORE PUSH1 0x20 ADD PUSH4 0x1921980 PUSH4 0xFFFFFFFF AND DUP2 MSTORE PUSH1 0x20 ADD PUSH4 0x1B9A680 PUSH4 0xFFFFFFFF AND DUP2 MSTORE PUSH1 0x20 ADD PUSH4 0x1E28500 PUSH4 0xFFFFFFFF AND DUP2 MSTORE POP SWAP1 POP PUSH2 0x551 JUMP JUMPDEST PUSH1 0x40 MLOAD DUP1 PUSH2 0x1A0 ADD PUSH1 0x40 MSTORE DUP1 PUSH0 PUSH4 0xFFFFFFFF AND DUP2 MSTORE PUSH1 0x20 ADD PUSH3 0x28DE80 PUSH4 0xFFFFFFFF AND DUP2 MSTORE PUSH1 0x20 ADD PUSH3 0x4DC880 PUSH4 0xFFFFFFFF AND DUP2 MSTORE PUSH1 0x20 ADD PUSH3 0x76A700 PUSH4 0xFFFFFFFF AND DUP2 MSTORE PUSH1 0x20 ADD PUSH3 0x9E3400 PUSH4 0xFFFFFFFF AND DUP2 MSTORE PUSH1 0x20 ADD PUSH3 0xC71280 PUSH4 0xFFFFFFFF AND DUP2 MSTORE PUSH1 0x20 ADD PUSH3 0xEE9F80 PUSH4 0xFFFFFFFF AND DUP2 MSTORE PUSH1 0x20 ADD PUSH4 0x1177E00 PUSH4 0xFFFFFFFF AND DUP2 MSTORE PUSH1 0x20 ADD PUSH4 0x1405C80 PUSH4 0xFFFFFFFF AND DUP2 MSTORE PUSH1 0x20 ADD PUSH4 0x167E980 PUSH4 0xFFFFFFFF AND DUP2 MSTORE PUSH1 0x20 ADD PUSH4 0x190C800 PUSH4 0xFFFFFFFF AND DUP2 MSTORE PUSH1 0x20 ADD PUSH4 0x1B85500 PUSH4 0xFFFFFFFF AND DUP2 MSTORE PUSH1 0x20 ADD PUSH4 0x1E13380 PUSH4 0xFFFFFFFF AND DUP2 MSTORE POP SWAP1 POP JUMPDEST DUP1 PUSH1 0x1 DUP5 PUSH2 0x55F SWAP2 SWAP1 PUSH2 0x11EF JUMP JUMPDEST PUSH1 0xFF AND PUSH1 0xD DUP2 LT PUSH2 0x573 JUMPI PUSH2 0x572 PUSH2 0x1299 JUMP JUMPDEST JUMPDEST PUSH1 0x20 MUL ADD MLOAD PUSH4 0xFFFFFFFF AND SWAP2 POP POP SWAP3 SWAP2 POP POP JUMP JUMPDEST PUSH0 DUP1 PUSH0 DUP1 DUP5 SWAP4 POP PUSH2 0x7B2 SWAP3 POP PUSH4 0x1E13380 PUSH1 0x2 PUSH2 0x5A4 SWAP2 SWAP1 PUSH2 0x1223 JUMP JUMPDEST DUP5 LT ISZERO PUSH2 0x5ED JUMPI PUSH4 0x1E13380 DUP5 PUSH2 0x5BB SWAP2 SWAP1 PUSH2 0x12F3 JUMP JUMPDEST SWAP2 POP PUSH4 0x1E13380 DUP3 PUSH2 0x5CD SWAP2 SWAP1 PUSH2 0x1223 JUMP JUMPDEST DUP5 PUSH2 0x5D8 SWAP2 SWAP1 PUSH2 0x1323 JUMP JUMPDEST SWAP4 POP DUP2 DUP4 PUSH2 0x5E6 SWAP2 SWAP1 PUSH2 0x1356 JUMP JUMPDEST SWAP3 POP PUSH2 0x7ED JUMP JUMPDEST PUSH4 0x1E13380 PUSH1 0x2 PUSH2 0x5FE SWAP2 SWAP1 PUSH2 0x1223 JUMP JUMPDEST DUP5 PUSH2 0x609 SWAP2 SWAP1 PUSH2 0x1323 JUMP JUMPDEST SWAP4 POP PUSH2 0x7B4 SWAP3 POP PUSH4 0x34AADC80 DUP5 LT PUSH2 0x71C JUMPI PUSH4 0x34AADC80 DUP5 PUSH2 0x62B SWAP2 SWAP1 PUSH2 0x1323 JUMP JUMPDEST SWAP4 POP PUSH1 0x1C DUP4 PUSH2 0x63A SWAP2 SWAP1 PUSH2 0x1356 JUMP JUMPDEST SWAP3 POP PUSH5 0x2F0605980 DUP5 PUSH2 0x64D SWAP2 SWAP1 PUSH2 0x12F3 JUMP JUMPDEST SWAP2 POP PUSH5 0x2F0605980 DUP3 PUSH2 0x660 SWAP2 SWAP1 PUSH2 0x1223 JUMP JUMPDEST DUP5 PUSH2 0x66B SWAP2 SWAP1 PUSH2 0x1323 JUMP JUMPDEST SWAP4 POP PUSH2 0x190 DUP3 PUSH2 0x67B SWAP2 SWAP1 PUSH2 0x1223 JUMP JUMPDEST DUP4 PUSH2 0x686 SWAP2 SWAP1 PUSH2 0x1356 JUMP JUMPDEST SWAP3 POP PUSH2 0x691 DUP4 PUSH2 0xEDE JUMP JUMPDEST SWAP1 POP DUP1 PUSH4 0xFFFFFFFF AND DUP5 LT PUSH2 0x6C4 JUMPI DUP1 PUSH4 0xFFFFFFFF AND DUP5 PUSH2 0x6B2 SWAP2 SWAP1 PUSH2 0x1323 JUMP JUMPDEST SWAP4 POP PUSH1 0x1 DUP4 PUSH2 0x6C1 SWAP2 SWAP1 PUSH2 0x1356 JUMP JUMPDEST SWAP3 POP JUMPDEST PUSH2 0x6CD DUP4 PUSH2 0xE78 JUMP JUMPDEST PUSH2 0x71B JUMPI PUSH4 0xBC17C200 DUP5 PUSH2 0x6E1 SWAP2 SWAP1 PUSH2 0x12F3 JUMP JUMPDEST SWAP2 POP PUSH4 0xBC17C200 DUP3 PUSH2 0x6F3 SWAP2 SWAP1 PUSH2 0x1223 JUMP JUMPDEST DUP5 PUSH2 0x6FE SWAP2 SWAP1 PUSH2 0x1323 JUMP JUMPDEST SWAP4 POP PUSH1 0x64 DUP3 PUSH2 0x70D SWAP2 SWAP1 PUSH2 0x1223 JUMP JUMPDEST DUP4 PUSH2 0x718 SWAP2 SWAP1 PUSH2 0x1356 JUMP JUMPDEST SWAP3 POP JUMPDEST JUMPDEST PUSH4 0x7861F80 DUP5 PUSH2 0x72C SWAP2 SWAP1 PUSH2 0x12F3 JUMP JUMPDEST SWAP2 POP PUSH4 0x7861F80 DUP3 PUSH2 0x73E SWAP2 SWAP1 PUSH2 0x1223 JUMP JUMPDEST DUP5 PUSH2 0x749 SWAP2 SWAP1 PUSH2 0x1323 JUMP JUMPDEST SWAP4 POP PUSH1 0x4 DUP3 PUSH2 0x758 SWAP2 SWAP1 PUSH2 0x1223 JUMP JUMPDEST DUP4 PUSH2 0x763 SWAP2 SWAP1 PUSH2 0x1356 JUMP JUMPDEST SWAP3 POP PUSH2 0x76E DUP4 PUSH2 0xEDE JUMP JUMPDEST SWAP1 POP DUP1 PUSH4 0xFFFFFFFF AND DUP5 LT PUSH2 0x7A1 JUMPI DUP1 PUSH4 0xFFFFFFFF AND DUP5 PUSH2 0x78F SWAP2 SWAP1 PUSH2 0x1323 JUMP JUMPDEST SWAP4 POP PUSH1 0x1 DUP4 PUSH2 0x79E SWAP2 SWAP1 PUSH2 0x1356 JUMP JUMPDEST SWAP3 POP JUMPDEST PUSH2 0x7AA DUP4 PUSH2 0xE78 JUMP JUMPDEST PUSH2 0x7EC JUMPI PUSH4 0x1E13380 DUP5 PUSH2 0x7BE SWAP2 SWAP1 PUSH2 0x12F3 JUMP JUMPDEST SWAP2 POP PUSH4 0x1E13380 DUP3 PUSH2 0x7D0 SWAP2 SWAP1 PUSH2 0x1223 JUMP JUMPDEST DUP5 PUSH2 0x7DB SWAP2 SWAP1 PUSH2 0x1323 JUMP JUMPDEST SWAP4 POP DUP2 DUP4 PUSH2 0x7E9 SWAP2 SWAP1 PUSH2 0x1356 JUMP JUMPDEST SWAP3 POP JUMPDEST JUMPDEST POP POP SWAP2 POP SWAP2 JUMP JUMPDEST PUSH0 DUP1 PUSH2 0x7FE PUSH2 0xF6F JUMP JUMPDEST PUSH2 0x806 PUSH2 0xF4C JUMP JUMPDEST DUP6 SWAP4 POP PUSH2 0x812 DUP6 PUSH2 0xE78 JUMP JUMPDEST ISZERO PUSH2 0x97B JUMPI PUSH1 0x40 MLOAD DUP1 PUSH2 0x1A0 ADD PUSH1 0x40 MSTORE DUP1 PUSH0 PUSH1 0xFF AND DUP2 MSTORE PUSH1 0x20 ADD PUSH1 0x1F PUSH1 0xFF AND DUP2 MSTORE PUSH1 0x20 ADD PUSH1 0x1D PUSH1 0xFF AND DUP2 MSTORE PUSH1 0x20 ADD PUSH1 0x1F PUSH1 0xFF AND DUP2 MSTORE PUSH1 0x20 ADD PUSH1 0x1E PUSH1 0xFF AND DUP2 MSTORE PUSH1 0x20 ADD PUSH1 0x1F PUSH1 0xFF AND DUP2 MSTORE PUSH1 0x20 ADD PUSH1 0x1E PUSH1 0xFF AND DUP2 MSTORE PUSH1 0x20 ADD PUSH1 0x1F PUSH1 0xFF AND DUP2 MSTORE PUSH1 0x20 ADD PUSH1 0x1F PUSH1 0xFF AND DUP2 MSTORE PUSH1 0x20 ADD PUSH1 0x1E PUSH1 0xFF AND DUP2 MSTORE PUSH1 0x20 ADD PUSH1 0x1F PUSH1 0xFF AND DUP2 MSTORE PUSH1 0x20 ADD PUSH1 0x1E PUSH1 0xFF AND DUP2 MSTORE PUSH1 0x20 ADD PUSH1 0x1F PUSH1 0xFF AND DUP2 MSTORE POP SWAP2 POP PUSH1 0x40 MLOAD DUP1 PUSH2 0x1A0 ADD PUSH1 0x40 MSTORE DUP1 PUSH0 PUSH4 0xFFFFFFFF AND DUP2 MSTORE PUSH1 0x20 ADD PUSH3 0x28DE80 PUSH4 0xFFFFFFFF AND DUP2 MSTORE PUSH1 0x20 ADD PUSH3 0x4F1A00 PUSH4 0xFFFFFFFF AND DUP2 MSTORE PUSH1 0x20 ADD PUSH3 0x77F880 PUSH4 0xFFFFFFFF AND DUP2 MSTORE PUSH1 0x20 ADD PUSH3 0x9F8580 PUSH4 0xFFFFFFFF AND DUP2 MSTORE PUSH1 0x20 ADD PUSH3 0xC86400 PUSH4 0xFFFFFFFF AND DUP2 MSTORE PUSH1 0x20 ADD PUSH3 0xEFF100 PUSH4 0xFFFFFFFF AND DUP2 MSTORE PUSH1 0x20 ADD PUSH4 0x118CF80 PUSH4 0xFFFFFFFF AND DUP2 MSTORE PUSH1 0x20 ADD PUSH4 0x141AE00 PUSH4 0xFFFFFFFF AND DUP2 MSTORE PUSH1 0x20 ADD PUSH4 0x1693B00 PUSH4 0xFFFFFFFF AND DUP2 MSTORE PUSH1 0x20 ADD PUSH4 0x1921980 PUSH4 0xFFFFFFFF AND DUP2 MSTORE PUSH1 0x20 ADD PUSH4 0x1B9A680 PUSH4 0xFFFFFFFF AND DUP2 MSTORE PUSH1 0x20 ADD PUSH4 0x1E28500 PUSH4 0xFFFFFFFF AND DUP2 MSTORE POP SWAP1 POP PUSH2 0xADB JUMP JUMPDEST PUSH1 0x40 MLOAD DUP1 PUSH2 0x1A0 ADD PUSH1 0x40 MSTORE DUP1 PUSH0 PUSH1 0xFF AND DUP2 MSTORE PUSH1 0x20 ADD PUSH1 0x1F PUSH1 0xFF AND DUP2 MSTORE PUSH1 0x20 ADD PUSH1 0x1C PUSH1 0xFF AND DUP2 MSTORE PUSH1 0x20 ADD PUSH1 0x1F PUSH1 0xFF AND DUP2 MSTORE PUSH1 0x20 ADD PUSH1 0x1E PUSH1 0xFF AND DUP2 MSTORE PUSH1 0x20 ADD PUSH1 0x1F PUSH1 0xFF AND DUP2 MSTORE PUSH1 0x20 ADD PUSH1 0x1E PUSH1 0xFF AND DUP2 MSTORE PUSH1 0x20 ADD PUSH1 0x1F PUSH1 0xFF AND DUP2 MSTORE PUSH1 0x20 ADD PUSH1 0x1F PUSH1 0xFF AND DUP2 MSTORE PUSH1 0x20 ADD PUSH1 0x1E PUSH1 0xFF AND DUP2 MSTORE PUSH1 0x20 ADD PUSH1 0x1F PUSH1 0xFF AND DUP2 MSTORE PUSH1 0x20 ADD PUSH1 0x1E PUSH1 0xFF AND DUP2 MSTORE PUSH1 0x20 ADD PUSH1 0x1F PUSH1 0xFF AND DUP2 MSTORE POP SWAP2 POP PUSH1 0x40 MLOAD DUP1 PUSH2 0x1A0 ADD PUSH1 0x40 MSTORE DUP1 PUSH0 PUSH4 0xFFFFFFFF AND DUP2 MSTORE PUSH1 0x20 ADD PUSH3 0x28DE80 PUSH4 0xFFFFFFFF AND DUP2 MSTORE PUSH1 0x20 ADD PUSH3 0x4DC880 PUSH4 0xFFFFFFFF AND DUP2 MSTORE PUSH1 0x20 ADD PUSH3 0x76A700 PUSH4 0xFFFFFFFF AND DUP2 MSTORE PUSH1 0x20 ADD PUSH3 0x9E3400 PUSH4 0xFFFFFFFF AND DUP2 MSTORE PUSH1 0x20 ADD PUSH3 0xC71280 PUSH4 0xFFFFFFFF AND DUP2 MSTORE PUSH1 0x20 ADD PUSH3 0xEE9F80 PUSH4 0xFFFFFFFF AND DUP2 MSTORE PUSH1 0x20 ADD PUSH4 0x1177E00 PUSH4 0xFFFFFFFF AND DUP2 MSTORE PUSH1 0x20 ADD PUSH4 0x1405C80 PUSH4 0xFFFFFFFF AND DUP2 MSTORE PUSH1 0x20 ADD PUSH4 0x167E980 PUSH4 0xFFFFFFFF AND DUP2 MSTORE PUSH1 0x20 ADD PUSH4 0x190C800 PUSH4 0xFFFFFFFF AND DUP2 MSTORE PUSH1 0x20 ADD PUSH4 0x1B85500 PUSH4 0xFFFFFFFF AND DUP2 MSTORE PUSH1 0x20 ADD PUSH4 0x1E13380 PUSH4 0xFFFFFFFF AND DUP2 MSTORE POP SWAP1 POP JUMPDEST PUSH0 PUSH1 0x1 SWAP1 POP JUMPDEST PUSH1 0xD DUP2 PUSH1 0xFF AND LT ISZERO PUSH2 0xB64 JUMPI DUP2 DUP2 PUSH1 0xFF AND PUSH1 0xD DUP2 LT PUSH2 0xB03 JUMPI PUSH2 0xB02 PUSH2 0x1299 JUMP JUMPDEST JUMPDEST PUSH1 0x20 MUL ADD MLOAD PUSH4 0xFFFFFFFF AND DUP6 LT ISZERO PUSH2 0xB57 JUMPI DUP1 SWAP4 POP DUP2 PUSH1 0x1 DUP3 PUSH2 0xB26 SWAP2 SWAP1 PUSH2 0x11EF JUMP JUMPDEST PUSH1 0xFF AND PUSH1 0xD DUP2 LT PUSH2 0xB3A JUMPI PUSH2 0xB39 PUSH2 0x1299 JUMP JUMPDEST JUMPDEST PUSH1 0x20 MUL ADD MLOAD PUSH4 0xFFFFFFFF AND DUP6 PUSH2 0xB50 SWAP2 SWAP1 PUSH2 0x1323 JUMP JUMPDEST SWAP5 POP PUSH2 0xB64 JUMP JUMPDEST DUP1 DUP1 PUSH1 0x1 ADD SWAP2 POP POP PUSH2 0xAE1 JUMP JUMPDEST POP POP POP SWAP3 POP SWAP3 SWAP1 POP JUMP JUMPDEST PUSH0 DUP1 PUSH0 DUP4 SWAP3 POP PUSH3 0x15180 DUP4 PUSH2 0xB83 SWAP2 SWAP1 PUSH2 0x12F3 JUMP JUMPDEST SWAP1 POP PUSH3 0x15180 DUP2 PUSH2 0xB94 SWAP2 SWAP1 PUSH2 0x1223 JUMP JUMPDEST DUP4 PUSH2 0xB9F SWAP2 SWAP1 PUSH2 0x1323 JUMP JUMPDEST SWAP3 POP PUSH1 0x1 DUP2 PUSH2 0xBAE SWAP2 SWAP1 PUSH2 0x11BC JUMP JUMPDEST SWAP2 POP POP SWAP2 POP SWAP2 JUMP JUMPDEST PUSH0 DUP1 PUSH2 0xBC4 DUP4 PUSH2 0xE10 PUSH2 0xF14 JUMP JUMPDEST SWAP2 POP SWAP2 POP SWAP2 POP SWAP2 JUMP JUMPDEST PUSH0 DUP1 PUSH2 0xBDA DUP4 PUSH1 0x3C PUSH2 0xF14 JUMP JUMPDEST SWAP2 POP SWAP2 POP SWAP2 POP SWAP2 JUMP JUMPDEST PUSH0 PUSH2 0x7B2 DUP3 PUSH2 0xFFFF AND LT DUP1 PUSH2 0xBFD JUMPI POP PUSH2 0x270F DUP3 PUSH2 0xFFFF AND GT JUMPDEST ISZERO PUSH2 0xC0A JUMPI PUSH0 SWAP1 POP PUSH2 0xC0F JUMP JUMPDEST PUSH1 0x1 SWAP1 POP JUMPDEST SWAP2 SWAP1 POP JUMP JUMPDEST PUSH0 PUSH1 0x1 DUP3 PUSH1 0xFF AND LT DUP1 PUSH2 0xC2A JUMPI POP PUSH1 0xC DUP3 PUSH1 0xFF AND GT JUMPDEST ISZERO PUSH2 0xC37 JUMPI PUSH0 SWAP1 POP PUSH2 0xC3C JUMP JUMPDEST PUSH1 0x1 SWAP1 POP JUMPDEST SWAP2 SWAP1 POP JUMP JUMPDEST PUSH0 DUP1 PUSH1 0x40 MLOAD DUP1 PUSH2 0x1A0 ADD PUSH1 0x40 MSTORE DUP1 PUSH0 PUSH1 0xFF AND DUP2 MSTORE PUSH1 0x20 ADD PUSH1 0x1F PUSH1 0xFF AND DUP2 MSTORE PUSH1 0x20 ADD PUSH1 0x1C PUSH1 0xFF AND DUP2 MSTORE PUSH1 0x20 ADD PUSH1 0x1F PUSH1 0xFF AND DUP2 MSTORE PUSH1 0x20 ADD PUSH1 0x1E PUSH1 0xFF AND DUP2 MSTORE PUSH1 0x20 ADD PUSH1 0x1F PUSH1 0xFF AND DUP2 MSTORE PUSH1 0x20 ADD PUSH1 0x1E PUSH1 0xFF AND DUP2 MSTORE PUSH1 0x20 ADD PUSH1 0x1F PUSH1 0xFF AND DUP2 MSTORE PUSH1 0x20 ADD PUSH1 0x1F PUSH1 0xFF AND DUP2 MSTORE PUSH1 0x20 ADD PUSH1 0x1E PUSH1 0xFF AND DUP2 MSTORE PUSH1 0x20 ADD PUSH1 0x1F PUSH1 0xFF AND DUP2 MSTORE PUSH1 0x20 ADD PUSH1 0x1E PUSH1 0xFF AND DUP2 MSTORE PUSH1 0x20 ADD PUSH1 0x1F PUSH1 0xFF AND DUP2 MSTORE POP SWAP1 POP PUSH0 DUP1 DUP5 PUSH1 0xFF AND SUB PUSH2 0xCE5 JUMPI PUSH0 SWAP3 POP POP POP PUSH2 0xD4E JUMP JUMPDEST PUSH1 0x2 DUP6 PUSH1 0xFF AND SUB PUSH2 0xD11 JUMPI PUSH2 0xCF9 DUP7 PUSH2 0xE78 JUMP JUMPDEST ISZERO PUSH2 0xD07 JUMPI PUSH1 0x1D SWAP1 POP PUSH2 0xD0C JUMP JUMPDEST PUSH1 0x1C SWAP1 POP JUMPDEST PUSH2 0xD2F JUMP JUMPDEST DUP2 DUP6 PUSH1 0xFF AND PUSH1 0xD DUP2 LT PUSH2 0xD27 JUMPI PUSH2 0xD26 PUSH2 0x1299 JUMP JUMPDEST JUMPDEST PUSH1 0x20 MUL ADD MLOAD SWAP1 POP JUMPDEST DUP1 PUSH1 0xFF AND DUP5 PUSH1 0xFF AND GT ISZERO PUSH2 0xD47 JUMPI PUSH0 SWAP3 POP POP POP PUSH2 0xD4E JUMP JUMPDEST PUSH1 0x1 SWAP3 POP POP POP JUMPDEST SWAP4 SWAP3 POP POP POP JUMP JUMPDEST PUSH0 PUSH1 0x17 DUP3 PUSH1 0xFF AND GT ISZERO PUSH2 0xD6A JUMPI PUSH0 SWAP1 POP PUSH2 0xD6F JUMP JUMPDEST PUSH1 0x1 SWAP1 POP JUMPDEST SWAP2 SWAP1 POP JUMP JUMPDEST PUSH0 PUSH1 0x3B DUP3 PUSH1 0xFF AND GT ISZERO PUSH2 0xD89 JUMPI PUSH0 SWAP1 POP PUSH2 0xD8E JUMP JUMPDEST PUSH1 0x1 SWAP1 POP JUMPDEST SWAP2 SWAP1 POP JUMP JUMPDEST PUSH0 PUSH1 0x3B DUP3 PUSH1 0xFF AND GT ISZERO PUSH2 0xDA8 JUMPI PUSH0 SWAP1 POP PUSH2 0xDAD JUMP JUMPDEST PUSH1 0x1 SWAP1 POP JUMPDEST SWAP2 SWAP1 POP JUMP JUMPDEST PUSH0 DUP1 PUSH0 DUP5 DUP8 DUP10 PUSH2 0xDC2 SWAP2 SWAP1 PUSH2 0x1264 JUMP JUMPDEST PUSH2 0xDCC SWAP2 SWAP1 PUSH2 0x138B JUMP JUMPDEST PUSH2 0xFFFF AND SWAP1 POP DUP5 PUSH2 0xFFFF AND DUP2 PUSH2 0xDE2 SWAP2 SWAP1 PUSH2 0x1223 JUMP JUMPDEST DUP8 PUSH2 0xFFFF AND PUSH2 0xDF1 SWAP2 SWAP1 PUSH2 0x11BC JUMP JUMPDEST SWAP3 POP DUP4 DUP2 PUSH2 0xDFF SWAP2 SWAP1 PUSH2 0x1223 JUMP JUMPDEST DUP7 PUSH2 0xE0A SWAP2 SWAP1 PUSH2 0x11BC JUMP JUMPDEST SWAP2 POP POP SWAP6 POP SWAP6 SWAP4 POP POP POP POP JUMP JUMPDEST PUSH0 DUP1 DUP4 SWAP2 POP DUP3 SWAP1 POP DUP5 PUSH2 0xFFFF AND DUP3 PUSH2 0xFFFF AND LT DUP1 ISZERO PUSH2 0xE3B JUMPI POP PUSH2 0xE3A DUP3 PUSH2 0xE78 JUMP JUMPDEST JUMPDEST ISZERO PUSH2 0xE70 JUMPI PUSH1 0x1 DUP3 PUSH2 0xE4D SWAP2 SWAP1 PUSH2 0x1356 JUMP JUMPDEST SWAP2 POP PUSH3 0x15180 PUSH4 0x1E13380 PUSH2 0xE62 SWAP2 SWAP1 PUSH2 0x11BC JUMP JUMPDEST DUP2 PUSH2 0xE6D SWAP2 SWAP1 PUSH2 0x11BC JUMP JUMPDEST SWAP1 POP JUMPDEST SWAP4 POP SWAP4 SWAP2 POP POP JUMP JUMPDEST PUSH0 DUP1 PUSH1 0x4 DUP4 PUSH2 0xE87 SWAP2 SWAP1 PUSH2 0x13BB JUMP JUMPDEST PUSH2 0xFFFF AND EQ PUSH2 0xE98 JUMPI PUSH0 SWAP1 POP PUSH2 0xED9 JUMP JUMPDEST PUSH0 PUSH2 0x190 DUP4 PUSH2 0xEA7 SWAP2 SWAP1 PUSH2 0x13BB JUMP JUMPDEST PUSH2 0xFFFF AND EQ DUP1 PUSH2 0xEC7 JUMPI POP PUSH0 PUSH1 0x64 DUP4 PUSH2 0xEC0 SWAP2 SWAP1 PUSH2 0x13BB JUMP JUMPDEST PUSH2 0xFFFF AND EQ ISZERO JUMPDEST ISZERO PUSH2 0xED5 JUMPI PUSH1 0x1 SWAP1 POP PUSH2 0xED9 JUMP JUMPDEST PUSH0 SWAP1 POP JUMPDEST SWAP2 SWAP1 POP JUMP JUMPDEST PUSH0 PUSH2 0xEE8 DUP3 PUSH2 0xE78 JUMP JUMPDEST ISZERO PUSH2 0xF07 JUMPI PUSH3 0x15180 PUSH4 0x1E13380 PUSH2 0xF00 SWAP2 SWAP1 PUSH2 0x11BC JUMP JUMPDEST SWAP1 POP PUSH2 0xF0F JUMP JUMPDEST PUSH4 0x1E13380 SWAP1 POP JUMPDEST SWAP2 SWAP1 POP JUMP JUMPDEST PUSH0 DUP1 PUSH0 DUP5 SWAP3 POP DUP4 DUP4 PUSH2 0xF26 SWAP2 SWAP1 PUSH2 0x12F3 JUMP JUMPDEST SWAP1 POP DUP4 DUP2 PUSH2 0xF34 SWAP2 SWAP1 PUSH2 0x1223 JUMP JUMPDEST DUP4 PUSH2 0xF3F SWAP2 SWAP1 PUSH2 0x1323 JUMP JUMPDEST SWAP3 POP DUP1 SWAP2 POP POP SWAP3 POP SWAP3 SWAP1 POP JUMP JUMPDEST PUSH1 0x40 MLOAD DUP1 PUSH2 0x1A0 ADD PUSH1 0x40 MSTORE DUP1 PUSH1 0xD SWAP1 PUSH1 0x20 DUP3 MUL DUP1 CALLDATASIZE DUP4 CALLDATACOPY DUP1 DUP3 ADD SWAP2 POP POP SWAP1 POP POP SWAP1 JUMP JUMPDEST PUSH1 0x40 MLOAD DUP1 PUSH2 0x1A0 ADD PUSH1 0x40 MSTORE DUP1 PUSH1 0xD SWAP1 PUSH1 0x20 DUP3 MUL DUP1 CALLDATASIZE DUP4 CALLDATACOPY DUP1 DUP3 ADD SWAP2 POP POP SWAP1 POP POP SWAP1 JUMP JUMPDEST PUSH0 DUP1 REVERT JUMPDEST PUSH0 PUSH2 0xFFFF DUP3 AND SWAP1 POP SWAP2 SWAP1 POP JUMP JUMPDEST PUSH2 0xFAC DUP2 PUSH2 0xF96 JUMP JUMPDEST DUP2 EQ PUSH2 0xFB6 JUMPI PUSH0 DUP1 REVERT JUMPDEST POP JUMP JUMPDEST PUSH0 DUP2 CALLDATALOAD SWAP1 POP PUSH2 0xFC7 DUP2 PUSH2 0xFA3 JUMP JUMPDEST SWAP3 SWAP2 POP POP JUMP JUMPDEST PUSH0 PUSH1 0xFF DUP3 AND SWAP1 POP SWAP2 SWAP1 POP JUMP JUMPDEST PUSH2 0xFE2 DUP2 PUSH2 0xFCD JUMP JUMPDEST DUP2 EQ PUSH2 0xFEC JUMPI PUSH0 DUP1 REVERT JUMPDEST POP JUMP JUMPDEST PUSH0 DUP2 CALLDATALOAD SWAP1 POP PUSH2 0xFFD DUP2 PUSH2 0xFD9 JUMP JUMPDEST SWAP3 SWAP2 POP POP JUMP JUMPDEST PUSH0 DUP1 PUSH0 DUP1 PUSH0 DUP1 PUSH1 0xC0 DUP8 DUP10 SUB SLT ISZERO PUSH2 0x101D JUMPI PUSH2 0x101C PUSH2 0xF92 JUMP JUMPDEST JUMPDEST PUSH0 PUSH2 0x102A DUP10 DUP3 DUP11 ADD PUSH2 0xFB9 JUMP JUMPDEST SWAP7 POP POP PUSH1 0x20 PUSH2 0x103B DUP10 DUP3 DUP11 ADD PUSH2 0xFEF JUMP JUMPDEST SWAP6 POP POP PUSH1 0x40 PUSH2 0x104C DUP10 DUP3 DUP11 ADD PUSH2 0xFEF JUMP JUMPDEST SWAP5 POP POP PUSH1 0x60 PUSH2 0x105D DUP10 DUP3 DUP11 ADD PUSH2 0xFEF JUMP JUMPDEST SWAP4 POP POP PUSH1 0x80 PUSH2 0x106E DUP10 DUP3 DUP11 ADD PUSH2 0xFEF JUMP JUMPDEST SWAP3 POP POP PUSH1 0xA0 PUSH2 0x107F DUP10 DUP3 DUP11 ADD PUSH2 0xFEF JUMP JUMPDEST SWAP2 POP POP SWAP3 SWAP6 POP SWAP3 SWAP6 POP SWAP3 SWAP6 JUMP JUMPDEST PUSH0 DUP2 SWAP1 POP SWAP2 SWAP1 POP JUMP JUMPDEST PUSH2 0x109E DUP2 PUSH2 0x108C JUMP JUMPDEST DUP3 MSTORE POP POP JUMP JUMPDEST PUSH0 PUSH1 0x20 DUP3 ADD SWAP1 POP PUSH2 0x10B7 PUSH0 DUP4 ADD DUP5 PUSH2 0x1095 JUMP JUMPDEST SWAP3 SWAP2 POP POP JUMP JUMPDEST PUSH2 0x10C6 DUP2 PUSH2 0x108C JUMP JUMPDEST DUP2 EQ PUSH2 0x10D0 JUMPI PUSH0 DUP1 REVERT JUMPDEST POP JUMP JUMPDEST PUSH0 DUP2 CALLDATALOAD SWAP1 POP PUSH2 0x10E1 DUP2 PUSH2 0x10BD JUMP JUMPDEST SWAP3 SWAP2 POP POP JUMP JUMPDEST PUSH0 PUSH1 0x20 DUP3 DUP5 SUB SLT ISZERO PUSH2 0x10FC JUMPI PUSH2 0x10FB PUSH2 0xF92 JUMP JUMPDEST JUMPDEST PUSH0 PUSH2 0x1109 DUP5 DUP3 DUP6 ADD PUSH2 0x10D3 JUMP JUMPDEST SWAP2 POP POP SWAP3 SWAP2 POP POP JUMP JUMPDEST PUSH2 0x111B DUP2 PUSH2 0xF96 JUMP JUMPDEST DUP3 MSTORE POP POP JUMP JUMPDEST PUSH2 0x112A DUP2 PUSH2 0xFCD JUMP JUMPDEST DUP3 MSTORE POP POP JUMP JUMPDEST PUSH0 PUSH1 0xC0 DUP3 ADD SWAP1 POP PUSH2 0x1143 PUSH0 DUP4 ADD DUP10 PUSH2 0x1112 JUMP JUMPDEST PUSH2 0x1150 PUSH1 0x20 DUP4 ADD DUP9 PUSH2 0x1121 JUMP JUMPDEST PUSH2 0x115D PUSH1 0x40 DUP4 ADD DUP8 PUSH2 0x1121 JUMP JUMPDEST PUSH2 0x116A PUSH1 0x60 DUP4 ADD DUP7 PUSH2 0x1121 JUMP JUMPDEST PUSH2 0x1177 PUSH1 0x80 DUP4 ADD DUP6 PUSH2 0x1121 JUMP JUMPDEST PUSH2 0x1184 PUSH1 0xA0 DUP4 ADD DUP5 PUSH2 0x1121 JUMP JUMPDEST SWAP8 SWAP7 POP POP POP POP POP POP POP JUMP JUMPDEST PUSH32 0x4E487B7100000000000000000000000000000000000000000000000000000000 PUSH0 MSTORE PUSH1 0x11 PUSH1 0x4 MSTORE PUSH1 0x24 PUSH0 REVERT JUMPDEST PUSH0 PUSH2 0x11C6 DUP3 PUSH2 0x108C JUMP JUMPDEST SWAP2 POP PUSH2 0x11D1 DUP4 PUSH2 0x108C JUMP JUMPDEST SWAP3 POP DUP3 DUP3 ADD SWAP1 POP DUP1 DUP3 GT ISZERO PUSH2 0x11E9 JUMPI PUSH2 0x11E8 PUSH2 0x118F JUMP JUMPDEST JUMPDEST SWAP3 SWAP2 POP POP JUMP JUMPDEST PUSH0 PUSH2 0x11F9 DUP3 PUSH2 0xFCD JUMP JUMPDEST SWAP2 POP PUSH2 0x1204 DUP4 PUSH2 0xFCD JUMP JUMPDEST SWAP3 POP DUP3 DUP3 SUB SWAP1 POP PUSH1 0xFF DUP2 GT ISZERO PUSH2 0x121D JUMPI PUSH2 0x121C PUSH2 0x118F JUMP JUMPDEST JUMPDEST SWAP3 SWAP2 POP POP JUMP JUMPDEST PUSH0 PUSH2 0x122D DUP3 PUSH2 0x108C JUMP JUMPDEST SWAP2 POP PUSH2 0x1238 DUP4 PUSH2 0x108C JUMP JUMPDEST SWAP3 POP DUP3 DUP3 MUL PUSH2 0x1246 DUP2 PUSH2 0x108C JUMP JUMPDEST SWAP2 POP DUP3 DUP3 DIV DUP5 EQ DUP4 ISZERO OR PUSH2 0x125D JUMPI PUSH2 0x125C PUSH2 0x118F JUMP JUMPDEST JUMPDEST POP SWAP3 SWAP2 POP POP JUMP JUMPDEST PUSH0 PUSH2 0x126E DUP3 PUSH2 0xF96 JUMP JUMPDEST SWAP2 POP PUSH2 0x1279 DUP4 PUSH2 0xF96 JUMP JUMPDEST SWAP3 POP DUP3 DUP3 SUB SWAP1 POP PUSH2 0xFFFF DUP2 GT ISZERO PUSH2 0x1293 JUMPI PUSH2 0x1292 PUSH2 0x118F JUMP JUMPDEST JUMPDEST SWAP3 SWAP2 POP POP JUMP JUMPDEST PUSH32 0x4E487B7100000000000000000000000000000000000000000000000000000000 PUSH0 MSTORE PUSH1 0x32 PUSH1 0x4 MSTORE PUSH1 0x24 PUSH0 REVERT JUMPDEST PUSH32 0x4E487B7100000000000000000000000000000000000000000000000000000000 PUSH0 MSTORE PUSH1 0x12 PUSH1 0x4 MSTORE PUSH1 0x24 PUSH0 REVERT JUMPDEST PUSH0 PUSH2 0x12FD DUP3 PUSH2 0x108C JUMP JUMPDEST SWAP2 POP PUSH2 0x1308 DUP4 PUSH2 0x108C JUMP JUMPDEST SWAP3 POP DUP3 PUSH2 0x1318 JUMPI PUSH2 0x1317 PUSH2 0x12C6 JUMP JUMPDEST JUMPDEST DUP3 DUP3 DIV SWAP1 POP SWAP3 SWAP2 POP POP JUMP JUMPDEST PUSH0 PUSH2 0x132D DUP3 PUSH2 0x108C JUMP JUMPDEST SWAP2 POP PUSH2 0x1338 DUP4 PUSH2 0x108C JUMP JUMPDEST SWAP3 POP DUP3 DUP3 SUB SWAP1 POP DUP2 DUP2 GT ISZERO PUSH2 0x1350 JUMPI PUSH2 0x134F PUSH2 0x118F JUMP JUMPDEST JUMPDEST SWAP3 SWAP2 POP POP JUMP JUMPDEST PUSH0 PUSH2 0x1360 DUP3 PUSH2 0xF96 JUMP JUMPDEST SWAP2 POP PUSH2 0x136B DUP4 PUSH2 0xF96 JUMP JUMPDEST SWAP3 POP DUP3 DUP3 ADD SWAP1 POP PUSH2 0xFFFF DUP2 GT ISZERO PUSH2 0x1385 JUMPI PUSH2 0x1384 PUSH2 0x118F JUMP JUMPDEST JUMPDEST SWAP3 SWAP2 POP POP JUMP JUMPDEST PUSH0 PUSH2 0x1395 DUP3 PUSH2 0xF96 JUMP JUMPDEST SWAP2 POP PUSH2 0x13A0 DUP4 PUSH2 0xF96 JUMP JUMPDEST SWAP3 POP DUP3 PUSH2 0x13B0 JUMPI PUSH2 0x13AF PUSH2 0x12C6 JUMP JUMPDEST JUMPDEST DUP3 DUP3 DIV SWAP1 POP SWAP3 SWAP2 POP POP JUMP JUMPDEST PUSH0 PUSH2 0x13C5 DUP3 PUSH2 0xF96 JUMP JUMPDEST SWAP2 POP PUSH2 0x13D0 DUP4 PUSH2 0xF96 JUMP JUMPDEST SWAP3 POP DUP3 PUSH2 0x13E0 JUMPI PUSH2 0x13DF PUSH2 0x12C6 JUMP JUMPDEST JUMPDEST DUP3 DUP3 MOD SWAP1 POP SWAP3 SWAP2 POP POP JUMP INVALID LOG2 PUSH5 0x6970667358 0x22 SLT KECCAK256 0xDB PUSH21 0x599890D987275EF7B7AEF15231310C10BBCE5562DD 0xEF ADD 0xE0 0xE8 CALLDATASIZE 0x29 0xC ADDRESS 0xBD PUSH5 0x736F6C6343 STOP ADDMOD NOT STOP CALLER "
				},
				"gasEstimates": {
					"creation": {
						"codeDepositCost": "1030600",
						"executionCost": "1097",
						"totalCost": "1031697"
					},
					"external": {
						"convertTimestampToYMDHMS(uint256)": "infinite",
						"convertYMDHMStoTimestamp(uint16,uint8,uint8,uint8,uint8,uint8)": "infinite"
					},
					"internal": {
						"YMDuintToBytes(uint16,uint8,uint8)": "infinite",
						"addMonthSeconds(uint16,uint8)": "infinite",
						"addYearSeconds(uint256,uint16)": "infinite",
						"convertDateStringToTimestamp(string memory)": "infinite",
						"convertDateStringToYMD(string memory)": "infinite",
						"convertDateTimeStringToTimestamp(string memory)": "infinite",
						"convertDateTimeStringToYMDHMS(string memory)": "infinite",
						"convertSliceToUint16(struct strings.slice memory)": "infinite",
						"convertSliceToUint8(struct strings.slice memory)": "infinite",
						"convertTimestampToDateString(uint256)": "infinite",
						"convertTimestampToDateTimeString(uint256)": "infinite",
						"convertTimestampToYMD(uint256)": "infinite",
						"convertYMDHMStoDateTimeString(uint16,uint8,uint8,uint8,uint8,uint8)": "infinite",
						"convertYMDtoDateString(uint16,uint8,uint8)": "infinite",
						"convertYMDtoTimestamp(uint16,uint8,uint8)": "infinite",
						"getDay(uint256)": "infinite",
						"getHour(uint256)": "infinite",
						"getHourOrMinute(uint256,uint256)": "infinite",
						"getMinute(uint256)": "infinite",
						"getMonth(uint256,uint16)": "infinite",
						"getSecondsInYear(uint16)": "infinite",
						"getWeekday(uint256)": "infinite",
						"getYear(uint256)": "infinite",
						"incrementLeapYear(uint16,uint16,uint256)": "infinite",
						"incrementYearAndTimestamp(uint16,uint16,uint256,uint16,uint256)": "infinite",
						"isISOformat(string memory)": "infinite",
						"isISOtimeFormat(string memory)": "infinite",
						"isLeapYear(uint16)": "infinite",
						"isTimeFormat(string memory)": "infinite",
						"isValidDay(uint16,uint8,uint8)": "infinite",
						"isValidHour(uint8)": "69",
						"isValidMinute(uint8)": "69",
						"isValidMonth(uint8)": "103",
						"isValidSecond(uint8)": "69",
						"isValidYMD(uint16,uint8,uint8)": "infinite",
						"isValidYMDHMS(uint16,uint8,uint8,uint8,uint8,uint8)": "182",
						"isValidYear(uint16)": "103",
						"splitISOslice(string memory)": "infinite",
						"splitTimeInt(string memory)": "infinite",
						"splitTimeSlice(string memory)": "infinite"
					}
				},
				"methodIdentifiers": {
					"convertTimestampToYMDHMS(uint256)": "c802fd63",
					"convertYMDHMStoTimestamp(uint16,uint8,uint8,uint8,uint8,uint8)": "315f706d"
				}
			},
			"storageLayout": {
				"storage": [],
				"types": null
			},
			"userdoc": {
				"kind": "user",
				"methods": {},
				"version": 1
			}
		}
	}
}