{
	"contracts/AppAccessControl.sol": {
		"AppAccessControl": {
			"abi": [
				{
					"inputs": [
						{
							"internalType": "address[]",
							"name": "addressList",
							"type": "address[]"
						}
					],
					"stateMutability": "nonpayable",
					"type": "constructor"
				},
				{
					"inputs": [],
					"name": "AccessControlBadConfirmation",
					"type": "error"
				},
				{
					"inputs": [
						{
							"internalType": "address",
							"name": "account",
							"type": "address"
						},
						{
							"internalType": "bytes32",
							"name": "neededRole",
							"type": "bytes32"
						}
					],
					"name": "AccessControlUnauthorizedAccount",
					"type": "error"
				},
				{
					"inputs": [
						{
							"internalType": "address",
							"name": "UserAddress",
							"type": "address"
						}
					],
					"name": "UserExists",
					"type": "error"
				},
				{
					"anonymous": false,
					"inputs": [
						{
							"indexed": true,
							"internalType": "bytes32",
							"name": "role",
							"type": "bytes32"
						},
						{
							"indexed": true,
							"internalType": "bytes32",
							"name": "previousAdminRole",
							"type": "bytes32"
						},
						{
							"indexed": true,
							"internalType": "bytes32",
							"name": "newAdminRole",
							"type": "bytes32"
						}
					],
					"name": "RoleAdminChanged",
					"type": "event"
				},
				{
					"anonymous": false,
					"inputs": [
						{
							"indexed": true,
							"internalType": "bytes32",
							"name": "role",
							"type": "bytes32"
						},
						{
							"indexed": true,
							"internalType": "address",
							"name": "account",
							"type": "address"
						},
						{
							"indexed": true,
							"internalType": "address",
							"name": "sender",
							"type": "address"
						}
					],
					"name": "RoleGranted",
					"type": "event"
				},
				{
					"anonymous": false,
					"inputs": [
						{
							"indexed": true,
							"internalType": "bytes32",
							"name": "role",
							"type": "bytes32"
						},
						{
							"indexed": true,
							"internalType": "address",
							"name": "account",
							"type": "address"
						},
						{
							"indexed": true,
							"internalType": "address",
							"name": "sender",
							"type": "address"
						}
					],
					"name": "RoleRevoked",
					"type": "event"
				},
				{
					"inputs": [],
					"name": "ADMIN",
					"outputs": [
						{
							"internalType": "bytes32",
							"name": "",
							"type": "bytes32"
						}
					],
					"stateMutability": "view",
					"type": "function"
				},
				{
					"inputs": [
						{
							"internalType": "uint256",
							"name": "",
							"type": "uint256"
						}
					],
					"name": "Admin",
					"outputs": [
						{
							"internalType": "address",
							"name": "",
							"type": "address"
						}
					],
					"stateMutability": "view",
					"type": "function"
				},
				{
					"inputs": [
						{
							"internalType": "address",
							"name": "",
							"type": "address"
						}
					],
					"name": "AdminUserMapping",
					"outputs": [
						{
							"internalType": "uint256",
							"name": "VotingPower",
							"type": "uint256"
						}
					],
					"stateMutability": "view",
					"type": "function"
				},
				{
					"inputs": [],
					"name": "CANDIDATE",
					"outputs": [
						{
							"internalType": "bytes32",
							"name": "",
							"type": "bytes32"
						}
					],
					"stateMutability": "view",
					"type": "function"
				},
				{
					"inputs": [
						{
							"internalType": "uint256",
							"name": "",
							"type": "uint256"
						}
					],
					"name": "Candidate",
					"outputs": [
						{
							"internalType": "address",
							"name": "",
							"type": "address"
						}
					],
					"stateMutability": "view",
					"type": "function"
				},
				{
					"inputs": [
						{
							"internalType": "address",
							"name": "",
							"type": "address"
						}
					],
					"name": "CandidateMapping",
					"outputs": [
						{
							"internalType": "string",
							"name": "Name",
							"type": "string"
						},
						{
							"internalType": "address",
							"name": "CandidateAddress",
							"type": "address"
						},
						{
							"internalType": "string",
							"name": "Region",
							"type": "string"
						}
					],
					"stateMutability": "view",
					"type": "function"
				},
				{
					"inputs": [],
					"name": "DEFAULT_ADMIN_ROLE",
					"outputs": [
						{
							"internalType": "bytes32",
							"name": "",
							"type": "bytes32"
						}
					],
					"stateMutability": "view",
					"type": "function"
				},
				{
					"inputs": [],
					"name": "DEPLOYER",
					"outputs": [
						{
							"internalType": "bytes32",
							"name": "",
							"type": "bytes32"
						}
					],
					"stateMutability": "view",
					"type": "function"
				},
				{
					"inputs": [],
					"name": "USER",
					"outputs": [
						{
							"internalType": "bytes32",
							"name": "",
							"type": "bytes32"
						}
					],
					"stateMutability": "view",
					"type": "function"
				},
				{
					"inputs": [
						{
							"internalType": "uint256",
							"name": "",
							"type": "uint256"
						}
					],
					"name": "User",
					"outputs": [
						{
							"internalType": "address",
							"name": "",
							"type": "address"
						}
					],
					"stateMutability": "view",
					"type": "function"
				},
				{
					"inputs": [
						{
							"internalType": "address",
							"name": "",
							"type": "address"
						}
					],
					"name": "UserMapping",
					"outputs": [
						{
							"internalType": "string",
							"name": "Name",
							"type": "string"
						},
						{
							"internalType": "address",
							"name": "UserAddress",
							"type": "address"
						},
						{
							"internalType": "string",
							"name": "Region",
							"type": "string"
						},
						{
							"internalType": "uint256",
							"name": "VotingPower",
							"type": "uint256"
						}
					],
					"stateMutability": "view",
					"type": "function"
				},
				{
					"inputs": [],
					"name": "adminAddress",
					"outputs": [
						{
							"internalType": "address[]",
							"name": "admins",
							"type": "address[]"
						}
					],
					"stateMutability": "view",
					"type": "function"
				},
				{
					"inputs": [],
					"name": "candidateAddress",
					"outputs": [
						{
							"internalType": "address[]",
							"name": "candidate",
							"type": "address[]"
						}
					],
					"stateMutability": "view",
					"type": "function"
				},
				{
					"inputs": [
						{
							"internalType": "address",
							"name": "useradminAddress",
							"type": "address"
						}
					],
					"name": "decrementVotingPowerForAdmin",
					"outputs": [],
					"stateMutability": "nonpayable",
					"type": "function"
				},
				{
					"inputs": [
						{
							"internalType": "address",
							"name": "useradminAddress",
							"type": "address"
						}
					],
					"name": "decrementVotingPowerForUser",
					"outputs": [],
					"stateMutability": "nonpayable",
					"type": "function"
				},
				{
					"inputs": [
						{
							"internalType": "address",
							"name": "adminAddres",
							"type": "address"
						}
					],
					"name": "getAdminDetailsByAddress",
					"outputs": [
						{
							"components": [
								{
									"internalType": "uint256",
									"name": "VotingPower",
									"type": "uint256"
								}
							],
							"internalType": "struct AppAccessControl.AdminUserType",
							"name": "",
							"type": "tuple"
						}
					],
					"stateMutability": "view",
					"type": "function"
				},
				{
					"inputs": [
						{
							"internalType": "address",
							"name": "addressOfCandidate",
							"type": "address"
						}
					],
					"name": "getCandidateDetailsByAddress",
					"outputs": [
						{
							"components": [
								{
									"internalType": "string",
									"name": "Name",
									"type": "string"
								},
								{
									"internalType": "address",
									"name": "CandidateAddress",
									"type": "address"
								},
								{
									"internalType": "string",
									"name": "Region",
									"type": "string"
								}
							],
							"internalType": "struct AppAccessControl.CandidateType",
							"name": "",
							"type": "tuple"
						}
					],
					"stateMutability": "view",
					"type": "function"
				},
				{
					"inputs": [
						{
							"internalType": "bytes32",
							"name": "role",
							"type": "bytes32"
						}
					],
					"name": "getRoleAdmin",
					"outputs": [
						{
							"internalType": "bytes32",
							"name": "",
							"type": "bytes32"
						}
					],
					"stateMutability": "view",
					"type": "function"
				},
				{
					"inputs": [
						{
							"internalType": "address",
							"name": "addressOfUser",
							"type": "address"
						},
						{
							"internalType": "bytes32",
							"name": "role",
							"type": "bytes32"
						}
					],
					"name": "getRoleOfAddress",
					"outputs": [
						{
							"internalType": "bool",
							"name": "",
							"type": "bool"
						}
					],
					"stateMutability": "view",
					"type": "function"
				},
				{
					"inputs": [
						{
							"internalType": "address",
							"name": "addressOfUser",
							"type": "address"
						}
					],
					"name": "getUserDetailsByAddress",
					"outputs": [
						{
							"components": [
								{
									"internalType": "string",
									"name": "Name",
									"type": "string"
								},
								{
									"internalType": "address",
									"name": "UserAddress",
									"type": "address"
								},
								{
									"internalType": "string",
									"name": "Region",
									"type": "string"
								},
								{
									"internalType": "uint256",
									"name": "VotingPower",
									"type": "uint256"
								}
							],
							"internalType": "struct AppAccessControl.UserType",
							"name": "",
							"type": "tuple"
						}
					],
					"stateMutability": "view",
					"type": "function"
				},
				{
					"inputs": [
						{
							"internalType": "bytes32",
							"name": "role",
							"type": "bytes32"
						},
						{
							"internalType": "address",
							"name": "account",
							"type": "address"
						}
					],
					"name": "grantRole",
					"outputs": [],
					"stateMutability": "nonpayable",
					"type": "function"
				},
				{
					"inputs": [
						{
							"internalType": "bytes32",
							"name": "role",
							"type": "bytes32"
						},
						{
							"internalType": "address",
							"name": "account",
							"type": "address"
						}
					],
					"name": "hasRole",
					"outputs": [
						{
							"internalType": "bool",
							"name": "",
							"type": "bool"
						}
					],
					"stateMutability": "view",
					"type": "function"
				},
				{
					"inputs": [
						{
							"internalType": "address",
							"name": "useradminAddress",
							"type": "address"
						}
					],
					"name": "incrementVotingPowerForAdmin",
					"outputs": [],
					"stateMutability": "nonpayable",
					"type": "function"
				},
				{
					"inputs": [
						{
							"internalType": "address",
							"name": "useradminAddress",
							"type": "address"
						}
					],
					"name": "incrementVotingPowerForUser",
					"outputs": [],
					"stateMutability": "nonpayable",
					"type": "function"
				},
				{
					"inputs": [
						{
							"internalType": "bytes32",
							"name": "role",
							"type": "bytes32"
						},
						{
							"internalType": "address",
							"name": "callerConfirmation",
							"type": "address"
						}
					],
					"name": "renounceRole",
					"outputs": [],
					"stateMutability": "nonpayable",
					"type": "function"
				},
				{
					"inputs": [
						{
							"internalType": "address",
							"name": "addressOfUser",
							"type": "address"
						},
						{
							"internalType": "string",
							"name": "_name",
							"type": "string"
						},
						{
							"internalType": "string",
							"name": "_region",
							"type": "string"
						}
					],
					"name": "requestToBeAddedAsUser",
					"outputs": [],
					"stateMutability": "nonpayable",
					"type": "function"
				},
				{
					"inputs": [
						{
							"internalType": "bytes32",
							"name": "role",
							"type": "bytes32"
						},
						{
							"internalType": "address",
							"name": "account",
							"type": "address"
						}
					],
					"name": "revokeRole",
					"outputs": [],
					"stateMutability": "nonpayable",
					"type": "function"
				},
				{
					"inputs": [
						{
							"internalType": "bytes4",
							"name": "interfaceId",
							"type": "bytes4"
						}
					],
					"name": "supportsInterface",
					"outputs": [
						{
							"internalType": "bool",
							"name": "",
							"type": "bool"
						}
					],
					"stateMutability": "view",
					"type": "function"
				},
				{
					"inputs": [],
					"name": "userAddress",
					"outputs": [
						{
							"internalType": "address[]",
							"name": "users",
							"type": "address[]"
						}
					],
					"stateMutability": "view",
					"type": "function"
				}
			],
			"devdoc": {
				"errors": {
					"AccessControlBadConfirmation()": [
						{
							"details": "The caller of a function is not the expected one. NOTE: Don't confuse with {AccessControlUnauthorizedAccount}."
						}
					],
					"AccessControlUnauthorizedAccount(address,bytes32)": [
						{
							"details": "The `account` is missing a role."
						}
					]
				},
				"events": {
					"RoleAdminChanged(bytes32,bytes32,bytes32)": {
						"details": "Emitted when `newAdminRole` is set as ``role``'s admin role, replacing `previousAdminRole` `DEFAULT_ADMIN_ROLE` is the starting admin for all roles, despite {RoleAdminChanged} not being emitted signaling this."
					},
					"RoleGranted(bytes32,address,address)": {
						"details": "Emitted when `account` is granted `role`. `sender` is the account that originated the contract call, an admin role bearer except when using {AccessControl-_setupRole}."
					},
					"RoleRevoked(bytes32,address,address)": {
						"details": "Emitted when `account` is revoked `role`. `sender` is the account that originated the contract call:   - if using `revokeRole`, it is the admin role bearer   - if using `renounceRole`, it is the role bearer (i.e. `account`)"
					}
				},
				"kind": "dev",
				"methods": {
					"getRoleAdmin(bytes32)": {
						"details": "Returns the admin role that controls `role`. See {grantRole} and {revokeRole}. To change a role's admin, use {_setRoleAdmin}."
					},
					"grantRole(bytes32,address)": {
						"details": "Grants `role` to `account`. If `account` had not been already granted `role`, emits a {RoleGranted} event. Requirements: - the caller must have ``role``'s admin role. May emit a {RoleGranted} event."
					},
					"hasRole(bytes32,address)": {
						"details": "Returns `true` if `account` has been granted `role`."
					},
					"renounceRole(bytes32,address)": {
						"details": "Revokes `role` from the calling account. Roles are often managed via {grantRole} and {revokeRole}: this function's purpose is to provide a mechanism for accounts to lose their privileges if they are compromised (such as when a trusted device is misplaced). If the calling account had been revoked `role`, emits a {RoleRevoked} event. Requirements: - the caller must be `callerConfirmation`. May emit a {RoleRevoked} event."
					},
					"revokeRole(bytes32,address)": {
						"details": "Revokes `role` from `account`. If `account` had been granted `role`, emits a {RoleRevoked} event. Requirements: - the caller must have ``role``'s admin role. May emit a {RoleRevoked} event."
					},
					"supportsInterface(bytes4)": {
						"details": "See {IERC165-supportsInterface}."
					}
				},
				"version": 1
			},
			"evm": {
				"assembly": "    /* \"contracts/AppAccessControl.sol\":119:8525  contract AppAccessControl is AccessControl{... */\n  mstore(0x40, 0x80)\n    /* \"contracts/AppAccessControl.sol\":1335:1891  constructor( address[] memory addressList)... */\n  callvalue\n  dup1\n  iszero\n  tag_1\n  jumpi\n  0x00\n  dup1\n  revert\ntag_1:\n  pop\n  mload(0x40)\n  sub(codesize, bytecodeSize)\n  dup1\n  bytecodeSize\n  dup4\n  codecopy\n  dup2\n  add\n  0x40\n  dup2\n  swap1\n  mstore\n  tag_2\n  swap2\n  tag_3\n  jump\t// in\ntag_2:\n    /* \"contracts/AppAccessControl.sol\":1588:1620  _grantRole(DEPLOYER, msg.sender) */\n  tag_6\n    /* \"contracts/AppAccessControl.sol\":467:488  keccak256(\"DEPLOYER\") */\n  0x503cf060389b91af8851125bd70ce66d16d12330718b103fc7674ef6d27e70c9\n    /* \"contracts/AppAccessControl.sol\":1609:1619  msg.sender */\n  caller\n    /* \"contracts/AppAccessControl.sol\":1588:1598  _grantRole */\n  tag_7\n    /* \"contracts/AppAccessControl.sol\":1588:1620  _grantRole(DEPLOYER, msg.sender) */\n  jump\t// in\ntag_6:\n  pop\n    /* \"contracts/AppAccessControl.sol\":1637:1646  uint256 i */\n  0x00\n    /* \"contracts/AppAccessControl.sol\":1633:1840  for(uint256 i=0; i<addressList.length; i++){... */\ntag_8:\n    /* \"contracts/AppAccessControl.sol\":1652:1663  addressList */\n  dup2\n    /* \"contracts/AppAccessControl.sol\":1652:1670  addressList.length */\n  mload\n    /* \"contracts/AppAccessControl.sol\":1650:1651  i */\n  dup2\n    /* \"contracts/AppAccessControl.sol\":1650:1670  i<addressList.length */\n  lt\n    /* \"contracts/AppAccessControl.sol\":1633:1840  for(uint256 i=0; i<addressList.length; i++){... */\n  iszero\n  tag_9\n  jumpi\n    /* \"contracts/AppAccessControl.sol\":1691:1724  _grantRole(ADMIN, addressList[i]) */\n  tag_11\n    /* \"contracts/AppAccessControl.sol\":299:317  keccak256(\"ADMIN\") */\n  0xdf8b4c520ffe197c5343c6f5aec59570151ef9a492f2c624fd45ddde6135ec42\n    /* \"contracts/AppAccessControl.sol\":1709:1720  addressList */\n  dup4\n    /* \"contracts/AppAccessControl.sol\":1721:1722  i */\n  dup4\n    /* \"contracts/AppAccessControl.sol\":1709:1723  addressList[i] */\n  dup2\n  mload\n  dup2\n  lt\n  tag_13\n  jumpi\n  tag_13\n  tag_14\n  jump\t// in\ntag_13:\n  0x20\n  mul\n  0x20\n  add\n  add\n  mload\n    /* \"contracts/AppAccessControl.sol\":1691:1701  _grantRole */\n  shl(0x20, tag_7)\n    /* \"contracts/AppAccessControl.sol\":1691:1724  _grantRole(ADMIN, addressList[i]) */\n  0x20\n  shr\n  jump\t// in\ntag_11:\n  pop\n    /* \"contracts/AppAccessControl.sol\":1786:1787  0 */\n  0x00\n    /* \"contracts/AppAccessControl.sol\":1739:1755  AdminUserMapping */\n  0x05\n    /* \"contracts/AppAccessControl.sol\":1739:1771  AdminUserMapping[addressList[i]] */\n  0x00\n    /* \"contracts/AppAccessControl.sol\":1756:1767  addressList */\n  dup5\n    /* \"contracts/AppAccessControl.sol\":1768:1769  i */\n  dup5\n    /* \"contracts/AppAccessControl.sol\":1756:1770  addressList[i] */\n  dup2\n  mload\n  dup2\n  lt\n  tag_16\n  jumpi\n  tag_16\n  tag_14\n  jump\t// in\ntag_16:\n  0x20\n  mul\n  0x20\n  add\n  add\n  mload\n  sub(shl(0xa0, 0x01), 0x01)\n    /* \"contracts/AppAccessControl.sol\":1739:1771  AdminUserMapping[addressList[i]] */\n  and\n  sub(shl(0xa0, 0x01), 0x01)\n  and\n  dup2\n  mstore\n  0x20\n  add\n  swap1\n  dup2\n  mstore\n  0x20\n  add\n  0x00\n  keccak256\n    /* \"contracts/AppAccessControl.sol\":1739:1783  AdminUserMapping[addressList[i]].VotingPower */\n  0x00\n  add\n    /* \"contracts/AppAccessControl.sol\":1739:1787  AdminUserMapping[addressList[i]].VotingPower = 0 */\n  dup2\n  swap1\n  sstore\n  pop\n    /* \"contracts/AppAccessControl.sol\":1802:1807  Admin */\n  0x06\n    /* \"contracts/AppAccessControl.sol\":1813:1824  addressList */\n  dup3\n    /* \"contracts/AppAccessControl.sol\":1825:1826  i */\n  dup3\n    /* \"contracts/AppAccessControl.sol\":1813:1827  addressList[i] */\n  dup2\n  mload\n  dup2\n  lt\n  tag_18\n  jumpi\n  tag_18\n  tag_14\n  jump\t// in\ntag_18:\n  0x20\n  swap1\n  dup2\n  mul\n  swap2\n  swap1\n  swap2\n  add\n  dup2\n  add\n  mload\n    /* \"contracts/AppAccessControl.sol\":1802:1828  Admin.push(addressList[i]) */\n  dup3\n  sload\n  0x01\n  dup1\n  dup3\n  add\n  dup6\n  sstore\n  0x00\n  swap5\n  dup6\n  mstore\n  swap3\n  swap1\n  swap4\n  keccak256\n  swap1\n  swap3\n  add\n  dup1\n  sload\n  not(sub(shl(0xa0, 0x01), 0x01))\n  and\n  sub(shl(0xa0, 0x01), 0x01)\n  swap1\n  swap4\n  and\n  swap3\n  swap1\n  swap3\n  or\n  swap1\n  swap2\n  sstore\n    /* \"contracts/AppAccessControl.sol\":1672:1675  i++ */\n  add\n    /* \"contracts/AppAccessControl.sol\":1633:1840  for(uint256 i=0; i<addressList.length; i++){... */\n  jump(tag_8)\ntag_9:\n  pop\n    /* \"contracts/AppAccessControl.sol\":1335:1891  constructor( address[] memory addressList)... */\n  pop\n    /* \"contracts/AppAccessControl.sol\":119:8525  contract AppAccessControl is AccessControl{... */\n  jump(tag_32)\n    /* \"@openzeppelin/contracts/access/AccessControl.sol\":6179:6495  function _grantRole(bytes32 role, address account) internal virtual returns (bool) {... */\ntag_7:\n    /* \"@openzeppelin/contracts/access/AccessControl.sol\":6256:6260  bool */\n  0x00\n    /* \"@openzeppelin/contracts/access/AccessControl.sol\":2954:2966  _roles[role] */\n  dup3\n  dup2\n  mstore\n  0x20\n  dup2\n  dup2\n  mstore\n  0x40\n  dup1\n  dup4\n  keccak256\n  sub(shl(0xa0, 0x01), 0x01)\n    /* \"@openzeppelin/contracts/access/AccessControl.sol\":2954:2983  _roles[role].hasRole[account] */\n  dup6\n  and\n  dup5\n  mstore\n  swap1\n  swap2\n  mstore\n  dup2\n  keccak256\n  sload\n  0xff\n  and\n    /* \"@openzeppelin/contracts/access/AccessControl.sol\":6272:6489  if (!hasRole(role, account)) {... */\n  tag_24\n  jumpi\n    /* \"@openzeppelin/contracts/access/AccessControl.sol\":6315:6321  _roles */\n  0x00\n    /* \"@openzeppelin/contracts/access/AccessControl.sol\":6315:6327  _roles[role] */\n  dup4\n  dup2\n  mstore\n  0x20\n  dup2\n  dup2\n  mstore\n  0x40\n  dup1\n  dup4\n  keccak256\n  sub(shl(0xa0, 0x01), 0x01)\n    /* \"@openzeppelin/contracts/access/AccessControl.sol\":6315:6344  _roles[role].hasRole[account] */\n  dup7\n  and\n  dup5\n  mstore\n  swap1\n  swap2\n  mstore\n  swap1\n  keccak256\n    /* \"@openzeppelin/contracts/access/AccessControl.sol\":6315:6351  _roles[role].hasRole[account] = true */\n  dup1\n  sload\n  not(0xff)\n  and\n    /* \"@openzeppelin/contracts/access/AccessControl.sol\":6347:6351  true */\n  0x01\n    /* \"@openzeppelin/contracts/access/AccessControl.sol\":6315:6351  _roles[role].hasRole[account] = true */\n  or\n  swap1\n  sstore\n    /* \"@openzeppelin/contracts/access/AccessControl.sol\":6397:6409  _msgSender() */\n  tag_25\n    /* \"@openzeppelin/contracts/utils/Context.sol\":735:745  msg.sender */\n  caller\n  swap1\n    /* \"@openzeppelin/contracts/utils/Context.sol\":656:752  function _msgSender() internal view virtual returns (address) {... */\n  jump\n    /* \"@openzeppelin/contracts/access/AccessControl.sol\":6397:6409  _msgSender() */\ntag_25:\n  sub(shl(0xa0, 0x01), 0x01)\n    /* \"@openzeppelin/contracts/access/AccessControl.sol\":6370:6410  RoleGranted(role, account, _msgSender()) */\n  and\n    /* \"@openzeppelin/contracts/access/AccessControl.sol\":6388:6395  account */\n  dup3\n  sub(shl(0xa0, 0x01), 0x01)\n    /* \"@openzeppelin/contracts/access/AccessControl.sol\":6370:6410  RoleGranted(role, account, _msgSender()) */\n  and\n    /* \"@openzeppelin/contracts/access/AccessControl.sol\":6382:6386  role */\n  dup5\n    /* \"@openzeppelin/contracts/access/AccessControl.sol\":6370:6410  RoleGranted(role, account, _msgSender()) */\n  0x2f8788117e7eff1d82e926ec794901d17c78024a50270940304540a733656f0d\n  mload(0x40)\n  mload(0x40)\n  dup1\n  swap2\n  sub\n  swap1\n  log4\n  pop\n    /* \"@openzeppelin/contracts/access/AccessControl.sol\":6431:6435  true */\n  0x01\n    /* \"@openzeppelin/contracts/access/AccessControl.sol\":6424:6435  return true */\n  jump(tag_27)\n    /* \"@openzeppelin/contracts/access/AccessControl.sol\":6272:6489  if (!hasRole(role, account)) {... */\ntag_24:\n  pop\n    /* \"@openzeppelin/contracts/access/AccessControl.sol\":6473:6478  false */\n  0x00\n    /* \"@openzeppelin/contracts/access/AccessControl.sol\":6272:6489  if (!hasRole(role, account)) {... */\ntag_27:\n    /* \"@openzeppelin/contracts/access/AccessControl.sol\":6179:6495  function _grantRole(bytes32 role, address account) internal virtual returns (bool) {... */\n  swap3\n  swap2\n  pop\n  pop\n  jump\t// out\n    /* \"#utility.yul\":14:141   */\ntag_30:\n    /* \"#utility.yul\":75:85   */\n  0x4e487b71\n    /* \"#utility.yul\":70:73   */\n  0xe0\n    /* \"#utility.yul\":66:86   */\n  shl\n    /* \"#utility.yul\":63:64   */\n  0x00\n    /* \"#utility.yul\":56:87   */\n  mstore\n    /* \"#utility.yul\":106:110   */\n  0x41\n    /* \"#utility.yul\":103:104   */\n  0x04\n    /* \"#utility.yul\":96:111   */\n  mstore\n    /* \"#utility.yul\":130:134   */\n  0x24\n    /* \"#utility.yul\":127:128   */\n  0x00\n    /* \"#utility.yul\":120:135   */\n  revert\n    /* \"#utility.yul\":146:323   */\ntag_31:\n    /* \"#utility.yul\":225:238   */\n  dup1\n  mload\n  sub(shl(0xa0, 0x01), 0x01)\n    /* \"#utility.yul\":267:298   */\n  dup2\n  and\n    /* \"#utility.yul\":257:299   */\n  dup2\n  eq\n    /* \"#utility.yul\":247:317   */\n  tag_35\n  jumpi\n    /* \"#utility.yul\":313:314   */\n  0x00\n    /* \"#utility.yul\":310:311   */\n  dup1\n    /* \"#utility.yul\":303:315   */\n  revert\n    /* \"#utility.yul\":247:317   */\ntag_35:\n    /* \"#utility.yul\":146:323   */\n  swap2\n  swap1\n  pop\n  jump\t// out\n    /* \"#utility.yul\":328:1457   */\ntag_3:\n    /* \"#utility.yul\":423:429   */\n  0x00\n    /* \"#utility.yul\":454:456   */\n  0x20\n    /* \"#utility.yul\":497:499   */\n  dup1\n    /* \"#utility.yul\":485:494   */\n  dup4\n    /* \"#utility.yul\":476:483   */\n  dup6\n    /* \"#utility.yul\":472:495   */\n  sub\n    /* \"#utility.yul\":468:500   */\n  slt\n    /* \"#utility.yul\":465:517   */\n  iszero\n  tag_37\n  jumpi\n    /* \"#utility.yul\":513:514   */\n  0x00\n    /* \"#utility.yul\":510:511   */\n  dup1\n    /* \"#utility.yul\":503:515   */\n  revert\n    /* \"#utility.yul\":465:517   */\ntag_37:\n    /* \"#utility.yul\":540:556   */\n  dup3\n  mload\n  sub(shl(0x40, 0x01), 0x01)\n    /* \"#utility.yul\":605:619   */\n  dup1\n  dup3\n  gt\n    /* \"#utility.yul\":602:636   */\n  iszero\n  tag_38\n  jumpi\n    /* \"#utility.yul\":632:633   */\n  0x00\n    /* \"#utility.yul\":629:630   */\n  dup1\n    /* \"#utility.yul\":622:634   */\n  revert\n    /* \"#utility.yul\":602:636   */\ntag_38:\n    /* \"#utility.yul\":670:676   */\n  dup2\n    /* \"#utility.yul\":659:668   */\n  dup6\n    /* \"#utility.yul\":655:677   */\n  add\n    /* \"#utility.yul\":645:677   */\n  swap2\n  pop\n    /* \"#utility.yul\":715:722   */\n  dup6\n    /* \"#utility.yul\":708:712   */\n  0x1f\n    /* \"#utility.yul\":704:706   */\n  dup4\n    /* \"#utility.yul\":700:713   */\n  add\n    /* \"#utility.yul\":696:723   */\n  slt\n    /* \"#utility.yul\":686:741   */\n  tag_39\n  jumpi\n    /* \"#utility.yul\":737:738   */\n  0x00\n    /* \"#utility.yul\":734:735   */\n  dup1\n    /* \"#utility.yul\":727:739   */\n  revert\n    /* \"#utility.yul\":686:741   */\ntag_39:\n    /* \"#utility.yul\":766:768   */\n  dup2\n    /* \"#utility.yul\":760:769   */\n  mload\n    /* \"#utility.yul\":788:790   */\n  dup2\n    /* \"#utility.yul\":784:786   */\n  dup2\n    /* \"#utility.yul\":781:791   */\n  gt\n    /* \"#utility.yul\":778:814   */\n  iszero\n  tag_41\n  jumpi\n    /* \"#utility.yul\":794:812   */\n  tag_41\n  tag_30\n  jump\t// in\ntag_41:\n    /* \"#utility.yul\":840:842   */\n  dup1\n    /* \"#utility.yul\":837:838   */\n  0x05\n    /* \"#utility.yul\":833:843   */\n  shl\n    /* \"#utility.yul\":872:874   */\n  0x40\n    /* \"#utility.yul\":866:875   */\n  mload\n    /* \"#utility.yul\":935:937   */\n  0x1f\n    /* \"#utility.yul\":931:938   */\n  not\n    /* \"#utility.yul\":926:928   */\n  0x3f\n    /* \"#utility.yul\":922:924   */\n  dup4\n    /* \"#utility.yul\":918:929   */\n  add\n    /* \"#utility.yul\":914:939   */\n  and\n    /* \"#utility.yul\":906:912   */\n  dup2\n    /* \"#utility.yul\":902:940   */\n  add\n    /* \"#utility.yul\":990:996   */\n  dup2\n    /* \"#utility.yul\":978:988   */\n  dup2\n    /* \"#utility.yul\":975:997   */\n  lt\n    /* \"#utility.yul\":970:972   */\n  dup6\n    /* \"#utility.yul\":958:968   */\n  dup3\n    /* \"#utility.yul\":955:973   */\n  gt\n    /* \"#utility.yul\":952:998   */\n  or\n    /* \"#utility.yul\":949:1021   */\n  iszero\n  tag_43\n  jumpi\n    /* \"#utility.yul\":1001:1019   */\n  tag_43\n  tag_30\n  jump\t// in\ntag_43:\n    /* \"#utility.yul\":1037:1039   */\n  0x40\n    /* \"#utility.yul\":1030:1052   */\n  mstore\n    /* \"#utility.yul\":1087:1105   */\n  swap2\n  dup3\n  mstore\n    /* \"#utility.yul\":1121:1136   */\n  dup5\n  dup3\n  add\n  swap3\n  pop\n    /* \"#utility.yul\":1163:1174   */\n  dup4\n  dup2\n  add\n    /* \"#utility.yul\":1159:1179   */\n  dup6\n  add\n  swap2\n    /* \"#utility.yul\":1191:1210   */\n  dup9\n  dup4\n  gt\n    /* \"#utility.yul\":1188:1227   */\n  iszero\n  tag_44\n  jumpi\n    /* \"#utility.yul\":1223:1224   */\n  0x00\n    /* \"#utility.yul\":1220:1221   */\n  dup1\n    /* \"#utility.yul\":1213:1225   */\n  revert\n    /* \"#utility.yul\":1188:1227   */\ntag_44:\n    /* \"#utility.yul\":1247:1258   */\n  swap4\n  dup6\n  add\n  swap4\n    /* \"#utility.yul\":1267:1426   */\ntag_45:\n    /* \"#utility.yul\":1283:1289   */\n  dup3\n    /* \"#utility.yul\":1278:1281   */\n  dup6\n    /* \"#utility.yul\":1275:1290   */\n  lt\n    /* \"#utility.yul\":1267:1426   */\n  iszero\n  tag_47\n  jumpi\n    /* \"#utility.yul\":1349:1383   */\n  tag_48\n    /* \"#utility.yul\":1379:1382   */\n  dup6\n    /* \"#utility.yul\":1349:1383   */\n  tag_31\n  jump\t// in\ntag_48:\n    /* \"#utility.yul\":1337:1384   */\n  dup5\n  mstore\n    /* \"#utility.yul\":1300:1312   */\n  swap4\n  dup6\n  add\n  swap4\n    /* \"#utility.yul\":1404:1416   */\n  swap3\n  dup6\n  add\n  swap3\n    /* \"#utility.yul\":1267:1426   */\n  jump(tag_45)\ntag_47:\n    /* \"#utility.yul\":1445:1451   */\n  swap9\n    /* \"#utility.yul\":328:1457   */\n  swap8\n  pop\n  pop\n  pop\n  pop\n  pop\n  pop\n  pop\n  pop\n  jump\t// out\n    /* \"#utility.yul\":1462:1589   */\ntag_14:\n    /* \"#utility.yul\":1523:1533   */\n  0x4e487b71\n    /* \"#utility.yul\":1518:1521   */\n  0xe0\n    /* \"#utility.yul\":1514:1534   */\n  shl\n    /* \"#utility.yul\":1511:1512   */\n  0x00\n    /* \"#utility.yul\":1504:1535   */\n  mstore\n    /* \"#utility.yul\":1554:1558   */\n  0x32\n    /* \"#utility.yul\":1551:1552   */\n  0x04\n    /* \"#utility.yul\":1544:1559   */\n  mstore\n    /* \"#utility.yul\":1578:1582   */\n  0x24\n    /* \"#utility.yul\":1575:1576   */\n  0x00\n    /* \"#utility.yul\":1568:1583   */\n  revert\n    /* \"#utility.yul\":1462:1589   */\ntag_32:\n    /* \"contracts/AppAccessControl.sol\":119:8525  contract AppAccessControl is AccessControl{... */\n  dataSize(sub_0)\n  dup1\n  dataOffset(sub_0)\n  0x00\n  codecopy\n  0x00\n  return\nstop\n\nsub_0: assembly {\n        /* \"contracts/AppAccessControl.sol\":119:8525  contract AppAccessControl is AccessControl{... */\n      mstore(0x40, 0x80)\n      callvalue\n      dup1\n      iszero\n      tag_1\n      jumpi\n      0x00\n      dup1\n      revert\n    tag_1:\n      pop\n      jumpi(tag_2, lt(calldatasize, 0x04))\n      shr(0xe0, calldataload(0x00))\n      dup1\n      0x7c98fa13\n      gt\n      tag_32\n      jumpi\n      dup1\n      0xcb26765f\n      gt\n      tag_33\n      jumpi\n      dup1\n      0xe4128fb3\n      gt\n      tag_34\n      jumpi\n      dup1\n      0xe4128fb3\n      eq\n      tag_28\n      jumpi\n      dup1\n      0xee2f8db1\n      eq\n      tag_29\n      jumpi\n      dup1\n      0xf1a89faa\n      eq\n      tag_30\n      jumpi\n      dup1\n      0xfc6f9468\n      eq\n      tag_31\n      jumpi\n      0x00\n      dup1\n      revert\n    tag_34:\n      dup1\n      0xcb26765f\n      eq\n      tag_24\n      jumpi\n      dup1\n      0xd547741f\n      eq\n      tag_25\n      jumpi\n      dup1\n      0xd61ff68c\n      eq\n      tag_26\n      jumpi\n      dup1\n      0xe2f11b9c\n      eq\n      tag_27\n      jumpi\n      0x00\n      dup1\n      revert\n    tag_33:\n      dup1\n      0x91d14854\n      gt\n      tag_35\n      jumpi\n      dup1\n      0x91d14854\n      eq\n      tag_20\n      jumpi\n      dup1\n      0xa217fddf\n      eq\n      tag_21\n      jumpi\n      dup1\n      0xc1b8411a\n      eq\n      tag_22\n      jumpi\n      dup1\n      0xc8bd3a3e\n      eq\n      tag_23\n      jumpi\n      0x00\n      dup1\n      revert\n    tag_35:\n      dup1\n      0x7c98fa13\n      eq\n      tag_17\n      jumpi\n      dup1\n      0x81e167cf\n      eq\n      tag_18\n      jumpi\n      dup1\n      0x880baf27\n      eq\n      tag_19\n      jumpi\n      0x00\n      dup1\n      revert\n    tag_32:\n      dup1\n      0x36568abe\n      gt\n      tag_36\n      jumpi\n      dup1\n      0x4a65ec81\n      gt\n      tag_37\n      jumpi\n      dup1\n      0x4a65ec81\n      eq\n      tag_13\n      jumpi\n      dup1\n      0x5393edab\n      eq\n      tag_14\n      jumpi\n      dup1\n      0x5691e3dd\n      eq\n      tag_15\n      jumpi\n      dup1\n      0x7155eb3b\n      eq\n      tag_16\n      jumpi\n      0x00\n      dup1\n      revert\n    tag_37:\n      dup1\n      0x36568abe\n      eq\n      tag_10\n      jumpi\n      dup1\n      0x3abd00a3\n      eq\n      tag_11\n      jumpi\n      dup1\n      0x3fbb468a\n      eq\n      tag_12\n      jumpi\n      0x00\n      dup1\n      revert\n    tag_36:\n      dup1\n      0x1daa7a38\n      gt\n      tag_38\n      jumpi\n      dup1\n      0x1daa7a38\n      eq\n      tag_6\n      jumpi\n      dup1\n      0x248a9ca3\n      eq\n      tag_7\n      jumpi\n      dup1\n      0x2a0acc6a\n      eq\n      tag_8\n      jumpi\n      dup1\n      0x2f2ff15d\n      eq\n      tag_9\n      jumpi\n      0x00\n      dup1\n      revert\n    tag_38:\n      dup1\n      0x01ffc9a7\n      eq\n      tag_3\n      jumpi\n      dup1\n      0x08211bc5\n      eq\n      tag_4\n      jumpi\n      dup1\n      0x17be9046\n      eq\n      tag_5\n      jumpi\n    tag_2:\n      0x00\n      dup1\n      revert\n        /* \"@openzeppelin/contracts/access/AccessControl.sol\":2565:2767  function supportsInterface(bytes4 interfaceId) public view virtual override returns (bool) {... */\n    tag_3:\n      tag_39\n      tag_40\n      calldatasize\n      0x04\n      tag_41\n      jump\t// in\n    tag_40:\n      tag_42\n      jump\t// in\n    tag_39:\n      mload(0x40)\n        /* \"#utility.yul\":470:484   */\n      swap1\n      iszero\n        /* \"#utility.yul\":463:485   */\n      iszero\n        /* \"#utility.yul\":445:486   */\n      dup2\n      mstore\n        /* \"#utility.yul\":433:435   */\n      0x20\n        /* \"#utility.yul\":418:436   */\n      add\n        /* \"@openzeppelin/contracts/access/AccessControl.sol\":2565:2767  function supportsInterface(bytes4 interfaceId) public view virtual override returns (bool) {... */\n    tag_43:\n      mload(0x40)\n      dup1\n      swap2\n      sub\n      swap1\n      return\n        /* \"contracts/AppAccessControl.sol\":6741:6911  function getCandidateDetailsByAddress(address addressOfCandidate) public view returns(CandidateType memory){... */\n    tag_4:\n      tag_45\n      tag_46\n      calldatasize\n      0x04\n      tag_47\n      jump\t// in\n    tag_46:\n      tag_48\n      jump\t// in\n    tag_45:\n      mload(0x40)\n      tag_43\n      swap2\n      swap1\n      tag_50\n      jump\t// in\n        /* \"contracts/AppAccessControl.sol\":624:679  mapping(address=>CandidateType) public CandidateMapping */\n    tag_5:\n      tag_51\n      tag_52\n      calldatasize\n      0x04\n      tag_47\n      jump\t// in\n    tag_52:\n      tag_53\n      jump\t// in\n    tag_51:\n      mload(0x40)\n      tag_43\n      swap4\n      swap3\n      swap2\n      swap1\n      tag_55\n      jump\t// in\n        /* \"contracts/AppAccessControl.sol\":6620:6733  function candidateAddress() public view returns (address[] memory candidate){... */\n    tag_6:\n      tag_56\n      tag_57\n      jump\t// in\n    tag_56:\n      mload(0x40)\n      tag_43\n      swap2\n      swap1\n      tag_59\n      jump\t// in\n        /* \"@openzeppelin/contracts/access/AccessControl.sol\":3810:3930  function getRoleAdmin(bytes32 role) public view virtual returns (bytes32) {... */\n    tag_7:\n      tag_60\n      tag_61\n      calldatasize\n      0x04\n      tag_62\n      jump\t// in\n    tag_61:\n        /* \"@openzeppelin/contracts/access/AccessControl.sol\":3875:3882  bytes32 */\n      0x00\n        /* \"@openzeppelin/contracts/access/AccessControl.sol\":3901:3913  _roles[role] */\n      swap1\n      dup2\n      mstore\n      0x20\n      dup2\n      swap1\n      mstore\n      0x40\n      swap1\n      keccak256\n        /* \"@openzeppelin/contracts/access/AccessControl.sol\":3901:3923  _roles[role].adminRole */\n      0x01\n      add\n      sload\n      swap1\n        /* \"@openzeppelin/contracts/access/AccessControl.sol\":3810:3930  function getRoleAdmin(bytes32 role) public view virtual returns (bytes32) {... */\n      jump\n    tag_60:\n      mload(0x40)\n        /* \"#utility.yul\":3271:3296   */\n      swap1\n      dup2\n      mstore\n        /* \"#utility.yul\":3259:3261   */\n      0x20\n        /* \"#utility.yul\":3244:3262   */\n      add\n        /* \"@openzeppelin/contracts/access/AccessControl.sol\":3810:3930  function getRoleAdmin(bytes32 role) public view virtual returns (bytes32) {... */\n      tag_43\n        /* \"#utility.yul\":3125:3302   */\n      jump\n        /* \"contracts/AppAccessControl.sol\":267:317  bytes32 public constant ADMIN = keccak256(\"ADMIN\") */\n    tag_8:\n      tag_60\n      0x00\n      dup1\n      mload\n      0x20\n      data_a29c3f0504a76c686875ea2f0fc314af702d3407223f14a34325f35a1858bd3b\n      dup4\n      codecopy\n      dup2\n      mload\n      swap2\n      mstore\n      dup2\n      jump\n        /* \"@openzeppelin/contracts/access/AccessControl.sol\":4226:4362  function grantRole(bytes32 role, address account) public virtual onlyRole(getRoleAdmin(role)) {... */\n    tag_9:\n      tag_69\n      tag_70\n      calldatasize\n      0x04\n      tag_71\n      jump\t// in\n    tag_70:\n      tag_72\n      jump\t// in\n    tag_69:\n      stop\n        /* \"@openzeppelin/contracts/access/AccessControl.sol\":5328:5573  function renounceRole(bytes32 role, address callerConfirmation) public virtual {... */\n    tag_10:\n      tag_69\n      tag_74\n      calldatasize\n      0x04\n      tag_71\n      jump\t// in\n    tag_74:\n      tag_75\n      jump\t// in\n        /* \"contracts/AppAccessControl.sol\":6921:7270  function incrementVotingPowerForAdmin(address useradminAddress) public{... */\n    tag_11:\n      tag_69\n      tag_77\n      calldatasize\n      0x04\n      tag_47\n      jump\t// in\n    tag_77:\n      tag_78\n      jump\t// in\n        /* \"contracts/AppAccessControl.sol\":600:621  address[] public User */\n    tag_12:\n      tag_79\n      tag_80\n      calldatasize\n      0x04\n      tag_62\n      jump\t// in\n    tag_80:\n      tag_82\n      jump\t// in\n    tag_79:\n      mload(0x40)\n      sub(shl(0xa0, 0x01), 0x01)\n        /* \"#utility.yul\":3915:3947   */\n      swap1\n      swap2\n      and\n        /* \"#utility.yul\":3897:3948   */\n      dup2\n      mstore\n        /* \"#utility.yul\":3885:3887   */\n      0x20\n        /* \"#utility.yul\":3870:3888   */\n      add\n        /* \"contracts/AppAccessControl.sol\":600:621  address[] public User */\n      tag_43\n        /* \"#utility.yul\":3751:3954   */\n      jump\n        /* \"contracts/AppAccessControl.sol\":1902:2049  function getRoleOfAddress(address addressOfUser, bytes32 role) public view returns (bool){... */\n    tag_13:\n      tag_39\n      tag_86\n      calldatasize\n      0x04\n      tag_87\n      jump\t// in\n    tag_86:\n      tag_88\n      jump\t// in\n        /* \"contracts/AppAccessControl.sol\":6465:6612  function getUserDetailsByAddress(address  addressOfUser) public view returns(UserType memory){... */\n    tag_14:\n      tag_90\n      tag_91\n      calldatasize\n      0x04\n      tag_47\n      jump\t// in\n    tag_91:\n      tag_92\n      jump\t// in\n    tag_90:\n      mload(0x40)\n      tag_43\n      swap2\n      swap1\n      tag_94\n      jump\t// in\n        /* \"contracts/AppAccessControl.sol\":8090:8516  function decrementVotingPowerForUser(address useradminAddress) public{... */\n    tag_15:\n      tag_69\n      tag_96\n      calldatasize\n      0x04\n      tag_47\n      jump\t// in\n    tag_96:\n      tag_97\n      jump\t// in\n        /* \"contracts/AppAccessControl.sol\":2200:3634  function requestToBeAddedAsUser(address addressOfUser, string memory _name, string memory _region   )  external {... */\n    tag_16:\n      tag_69\n      tag_99\n      calldatasize\n      0x04\n      tag_100\n      jump\t// in\n    tag_99:\n      tag_101\n      jump\t// in\n        /* \"contracts/AppAccessControl.sol\":772:794  address[] public Admin */\n    tag_17:\n      tag_79\n      tag_103\n      calldatasize\n      0x04\n      tag_62\n      jump\t// in\n    tag_103:\n      tag_104\n      jump\t// in\n        /* \"contracts/AppAccessControl.sol\":320:368  bytes32 public constant USER = keccak256(\"USER\") */\n    tag_18:\n      tag_60\n      0x00\n      dup1\n      mload\n      0x20\n      data_6c7ef5f486c548e88c076f8c58cca08ca00dabbbf011f4154530d60efa6c08a0\n      dup4\n      codecopy\n      dup2\n      mload\n      swap2\n      mstore\n      dup2\n      jump\n        /* \"contracts/AppAccessControl.sol\":7284:7724  function decrementVotingPowerForAdmin(address useradminAddress) public{... */\n    tag_19:\n      tag_69\n      tag_110\n      calldatasize\n      0x04\n      tag_47\n      jump\t// in\n    tag_110:\n      tag_111\n      jump\t// in\n        /* \"@openzeppelin/contracts/access/AccessControl.sol\":2854:2990  function hasRole(bytes32 role, address account) public view virtual returns (bool) {... */\n    tag_20:\n      tag_39\n      tag_113\n      calldatasize\n      0x04\n      tag_71\n      jump\t// in\n    tag_113:\n      tag_114\n      jump\t// in\n        /* \"@openzeppelin/contracts/access/AccessControl.sol\":2187:2236  bytes32 public constant DEFAULT_ADMIN_ROLE = 0x00 */\n    tag_21:\n      tag_60\n        /* \"@openzeppelin/contracts/access/AccessControl.sol\":2232:2236  0x00 */\n      0x00\n        /* \"@openzeppelin/contracts/access/AccessControl.sol\":2187:2236  bytes32 public constant DEFAULT_ADMIN_ROLE = 0x00 */\n      dup2\n      jump\n        /* \"contracts/AppAccessControl.sol\":432:488  bytes32 public constant DEPLOYER = keccak256(\"DEPLOYER\") */\n    tag_22:\n      tag_60\n        /* \"contracts/AppAccessControl.sol\":467:488  keccak256(\"DEPLOYER\") */\n      0x503cf060389b91af8851125bd70ce66d16d12330718b103fc7674ef6d27e70c9\n        /* \"contracts/AppAccessControl.sol\":432:488  bytes32 public constant DEPLOYER = keccak256(\"DEPLOYER\") */\n      dup2\n      jump\n        /* \"contracts/AppAccessControl.sol\":7736:8076  function incrementVotingPowerForUser(address useradminAddress) public{... */\n    tag_23:\n      tag_69\n      tag_123\n      calldatasize\n      0x04\n      tag_47\n      jump\t// in\n    tag_123:\n      tag_124\n      jump\t// in\n        /* \"contracts/AppAccessControl.sol\":371:429  bytes32 public constant CANDIDATE = keccak256(\"CANDIDATE\") */\n    tag_24:\n      tag_60\n        /* \"contracts/AppAccessControl.sol\":407:429  keccak256(\"CANDIDATE\") */\n      0xa62771101a79dd4b4d7b861524e85faa4569e99d6bb6b09233805dccb1ea480f\n        /* \"contracts/AppAccessControl.sol\":371:429  bytes32 public constant CANDIDATE = keccak256(\"CANDIDATE\") */\n      dup2\n      jump\n        /* \"@openzeppelin/contracts/access/AccessControl.sol\":4642:4780  function revokeRole(bytes32 role, address account) public virtual onlyRole(getRoleAdmin(role)) {... */\n    tag_25:\n      tag_69\n      tag_129\n      calldatasize\n      0x04\n      tag_71\n      jump\t// in\n    tag_129:\n      tag_130\n      jump\t// in\n        /* \"contracts/AppAccessControl.sol\":552:597  mapping(address=>UserType) public UserMapping */\n    tag_26:\n      tag_131\n      tag_132\n      calldatasize\n      0x04\n      tag_47\n      jump\t// in\n    tag_132:\n      tag_133\n      jump\t// in\n    tag_131:\n      mload(0x40)\n      tag_43\n      swap5\n      swap4\n      swap3\n      swap2\n      swap1\n      tag_135\n      jump\t// in\n        /* \"contracts/AppAccessControl.sol\":682:708  address[] public Candidate */\n    tag_27:\n      tag_79\n      tag_137\n      calldatasize\n      0x04\n      tag_62\n      jump\t// in\n    tag_137:\n      tag_138\n      jump\t// in\n        /* \"contracts/AppAccessControl.sol\":6359:6457  function userAddress() public view returns (address[] memory users){... */\n    tag_28:\n      tag_56\n      tag_141\n      jump\t// in\n        /* \"contracts/AppAccessControl.sol\":711:769  mapping(address => AdminUserType ) public AdminUserMapping */\n    tag_29:\n      tag_60\n      tag_144\n      calldatasize\n      0x04\n      tag_47\n      jump\t// in\n    tag_144:\n      mstore(0x20, 0x05)\n      0x00\n      swap1\n      dup2\n      mstore\n      0x40\n      swap1\n      keccak256\n      sload\n      dup2\n      jump\n        /* \"contracts/AppAccessControl.sol\":6198:6349  function getAdminDetailsByAddress(address adminAddres) public view returns(AdminUserType memory){... */\n    tag_30:\n      tag_148\n      tag_149\n      calldatasize\n      0x04\n      tag_47\n      jump\t// in\n    tag_149:\n      0x40\n      dup1\n      mload\n      0x20\n      dup1\n      dup3\n      add\n      dup4\n      mstore\n      0x00\n      swap2\n      dup3\n      swap1\n      mstore\n      sub(shl(0xa0, 0x01), 0x01)\n        /* \"contracts/AppAccessControl.sol\":6312:6341  AdminUserMapping[adminAddres] */\n      swap4\n      swap1\n      swap4\n      and\n      dup2\n      mstore\n        /* \"contracts/AppAccessControl.sol\":6312:6328  AdminUserMapping */\n      0x05\n        /* \"contracts/AppAccessControl.sol\":6312:6341  AdminUserMapping[adminAddres] */\n      dup4\n      mstore\n      dup2\n      swap1\n      keccak256\n        /* \"contracts/AppAccessControl.sol\":6305:6341  return AdminUserMapping[adminAddres] */\n      dup2\n      mload\n      swap3\n      dup4\n      add\n      swap1\n      swap2\n      mstore\n      sload\n      dup2\n      mstore\n      swap1\n        /* \"contracts/AppAccessControl.sol\":6198:6349  function getAdminDetailsByAddress(address adminAddres) public view returns(AdminUserType memory){... */\n      jump\n    tag_148:\n      mload(0x40)\n        /* \"#utility.yul\":7370:7383   */\n      swap1\n      mload\n        /* \"#utility.yul\":7352:7384   */\n      dup2\n      mstore\n        /* \"#utility.yul\":7340:7342   */\n      0x20\n        /* \"#utility.yul\":7325:7343   */\n      add\n        /* \"contracts/AppAccessControl.sol\":6198:6349  function getAdminDetailsByAddress(address adminAddres) public view returns(AdminUserType memory){... */\n      tag_43\n        /* \"#utility.yul\":7146:7390   */\n      jump\n        /* \"contracts/AppAccessControl.sol\":6089:6190  function adminAddress() public view returns (address[] memory admins) {... */\n    tag_31:\n      tag_56\n      tag_154\n      jump\t// in\n        /* \"@openzeppelin/contracts/access/AccessControl.sol\":2565:2767  function supportsInterface(bytes4 interfaceId) public view virtual override returns (bool) {... */\n    tag_42:\n        /* \"@openzeppelin/contracts/access/AccessControl.sol\":2650:2654  bool */\n      0x00\n      not(sub(shl(0xe0, 0x01), 0x01))\n        /* \"@openzeppelin/contracts/access/AccessControl.sol\":2673:2720  interfaceId == type(IAccessControl).interfaceId */\n      dup3\n      and\n      shl(0xe0, 0x7965db0b)\n      eq\n      dup1\n        /* \"@openzeppelin/contracts/access/AccessControl.sol\":2673:2760  interfaceId == type(IAccessControl).interfaceId || super.supportsInterface(interfaceId) */\n      tag_158\n      jumpi\n      pop\n      shl(0xe0, 0x01ffc9a7)\n      not(sub(shl(0xe0, 0x01), 0x01))\n        /* \"@openzeppelin/contracts/utils/introspection/ERC165.sol\":861:901  interfaceId == type(IERC165).interfaceId */\n      dup4\n      and\n      eq\n        /* \"@openzeppelin/contracts/access/AccessControl.sol\":2724:2760  super.supportsInterface(interfaceId) */\n    tag_158:\n        /* \"@openzeppelin/contracts/access/AccessControl.sol\":2666:2760  return interfaceId == type(IAccessControl).interfaceId || super.supportsInterface(interfaceId) */\n      swap3\n        /* \"@openzeppelin/contracts/access/AccessControl.sol\":2565:2767  function supportsInterface(bytes4 interfaceId) public view virtual override returns (bool) {... */\n      swap2\n      pop\n      pop\n      jump\t// out\n        /* \"contracts/AppAccessControl.sol\":6741:6911  function getCandidateDetailsByAddress(address addressOfCandidate) public view returns(CandidateType memory){... */\n    tag_48:\n      0x40\n      dup1\n      mload\n      0x60\n      dup1\n      dup3\n      add\n      dup4\n      mstore\n      dup1\n      dup3\n      mstore\n      0x00\n      0x20\n      dup4\n      add\n      mstore\n      swap2\n      dup2\n      add\n      swap2\n      swap1\n      swap2\n      mstore\n      sub(shl(0xa0, 0x01), 0x01)\n        /* \"contracts/AppAccessControl.sol\":6866:6902  CandidateMapping[addressOfCandidate] */\n      dup3\n      and\n      0x00\n      swap1\n      dup2\n      mstore\n        /* \"contracts/AppAccessControl.sol\":6866:6882  CandidateMapping */\n      0x03\n        /* \"contracts/AppAccessControl.sol\":6866:6902  CandidateMapping[addressOfCandidate] */\n      0x20\n      mstore\n      0x40\n      swap1\n      dup2\n      swap1\n      keccak256\n        /* \"contracts/AppAccessControl.sol\":6859:6902  return CandidateMapping[addressOfCandidate] */\n      dup2\n      mload\n      0x60\n      dup2\n      add\n      swap1\n      swap3\n      mstore\n      dup1\n      sload\n      dup3\n      swap1\n        /* \"contracts/AppAccessControl.sol\":6866:6902  CandidateMapping[addressOfCandidate] */\n      dup3\n      swap1\n        /* \"contracts/AppAccessControl.sol\":6859:6902  return CandidateMapping[addressOfCandidate] */\n      tag_163\n      swap1\n      tag_164\n      jump\t// in\n    tag_163:\n      dup1\n      0x1f\n      add\n      0x20\n      dup1\n      swap2\n      div\n      mul\n      0x20\n      add\n      mload(0x40)\n      swap1\n      dup2\n      add\n      0x40\n      mstore\n      dup1\n      swap3\n      swap2\n      swap1\n      dup2\n      dup2\n      mstore\n      0x20\n      add\n      dup3\n      dup1\n      sload\n      tag_165\n      swap1\n      tag_164\n      jump\t// in\n    tag_165:\n      dup1\n      iszero\n      tag_166\n      jumpi\n      dup1\n      0x1f\n      lt\n      tag_167\n      jumpi\n      0x0100\n      dup1\n      dup4\n      sload\n      div\n      mul\n      dup4\n      mstore\n      swap2\n      0x20\n      add\n      swap2\n      jump(tag_166)\n    tag_167:\n      dup3\n      add\n      swap2\n      swap1\n      0x00\n      mstore\n      keccak256(0x00, 0x20)\n      swap1\n    tag_168:\n      dup2\n      sload\n      dup2\n      mstore\n      swap1\n      0x01\n      add\n      swap1\n      0x20\n      add\n      dup1\n      dup4\n      gt\n      tag_168\n      jumpi\n      dup3\n      swap1\n      sub\n      0x1f\n      and\n      dup3\n      add\n      swap2\n    tag_166:\n      pop\n      pop\n      pop\n      swap2\n      dup4\n      mstore\n      pop\n      pop\n      0x01\n      dup3\n      add\n      sload\n      sub(shl(0xa0, 0x01), 0x01)\n      and\n      0x20\n      dup3\n      add\n      mstore\n      0x02\n      dup3\n      add\n      dup1\n      sload\n      0x40\n      swap1\n      swap3\n      add\n      swap2\n      tag_169\n      swap1\n      tag_164\n      jump\t// in\n    tag_169:\n      dup1\n      0x1f\n      add\n      0x20\n      dup1\n      swap2\n      div\n      mul\n      0x20\n      add\n      mload(0x40)\n      swap1\n      dup2\n      add\n      0x40\n      mstore\n      dup1\n      swap3\n      swap2\n      swap1\n      dup2\n      dup2\n      mstore\n      0x20\n      add\n      dup3\n      dup1\n      sload\n      tag_170\n      swap1\n      tag_164\n      jump\t// in\n    tag_170:\n      dup1\n      iszero\n      tag_171\n      jumpi\n      dup1\n      0x1f\n      lt\n      tag_172\n      jumpi\n      0x0100\n      dup1\n      dup4\n      sload\n      div\n      mul\n      dup4\n      mstore\n      swap2\n      0x20\n      add\n      swap2\n      jump(tag_171)\n    tag_172:\n      dup3\n      add\n      swap2\n      swap1\n      0x00\n      mstore\n      keccak256(0x00, 0x20)\n      swap1\n    tag_173:\n      dup2\n      sload\n      dup2\n      mstore\n      swap1\n      0x01\n      add\n      swap1\n      0x20\n      add\n      dup1\n      dup4\n      gt\n      tag_173\n      jumpi\n      dup3\n      swap1\n      sub\n      0x1f\n      and\n      dup3\n      add\n      swap2\n    tag_171:\n      pop\n      pop\n      pop\n      pop\n      pop\n      dup2\n      mstore\n      pop\n      pop\n      swap1\n      pop\n        /* \"contracts/AppAccessControl.sol\":6741:6911  function getCandidateDetailsByAddress(address addressOfCandidate) public view returns(CandidateType memory){... */\n      swap2\n      swap1\n      pop\n      jump\t// out\n        /* \"contracts/AppAccessControl.sol\":624:679  mapping(address=>CandidateType) public CandidateMapping */\n    tag_53:\n      mstore(0x20, 0x03)\n      0x00\n      swap1\n      dup2\n      mstore\n      0x40\n      swap1\n      keccak256\n      dup1\n      sload\n      dup2\n      swap1\n      tag_174\n      swap1\n      tag_164\n      jump\t// in\n    tag_174:\n      dup1\n      0x1f\n      add\n      0x20\n      dup1\n      swap2\n      div\n      mul\n      0x20\n      add\n      mload(0x40)\n      swap1\n      dup2\n      add\n      0x40\n      mstore\n      dup1\n      swap3\n      swap2\n      swap1\n      dup2\n      dup2\n      mstore\n      0x20\n      add\n      dup3\n      dup1\n      sload\n      tag_175\n      swap1\n      tag_164\n      jump\t// in\n    tag_175:\n      dup1\n      iszero\n      tag_176\n      jumpi\n      dup1\n      0x1f\n      lt\n      tag_177\n      jumpi\n      0x0100\n      dup1\n      dup4\n      sload\n      div\n      mul\n      dup4\n      mstore\n      swap2\n      0x20\n      add\n      swap2\n      jump(tag_176)\n    tag_177:\n      dup3\n      add\n      swap2\n      swap1\n      0x00\n      mstore\n      keccak256(0x00, 0x20)\n      swap1\n    tag_178:\n      dup2\n      sload\n      dup2\n      mstore\n      swap1\n      0x01\n      add\n      swap1\n      0x20\n      add\n      dup1\n      dup4\n      gt\n      tag_178\n      jumpi\n      dup3\n      swap1\n      sub\n      0x1f\n      and\n      dup3\n      add\n      swap2\n    tag_176:\n      pop\n      pop\n      pop\n      0x01\n      dup5\n      add\n      sload\n      0x02\n      dup6\n      add\n      dup1\n      sload\n      swap5\n      swap6\n      sub(shl(0xa0, 0x01), 0x01)\n      swap1\n      swap3\n      and\n      swap5\n      swap2\n      swap4\n      pop\n      swap2\n      pop\n      tag_179\n      swap1\n      tag_164\n      jump\t// in\n    tag_179:\n      dup1\n      0x1f\n      add\n      0x20\n      dup1\n      swap2\n      div\n      mul\n      0x20\n      add\n      mload(0x40)\n      swap1\n      dup2\n      add\n      0x40\n      mstore\n      dup1\n      swap3\n      swap2\n      swap1\n      dup2\n      dup2\n      mstore\n      0x20\n      add\n      dup3\n      dup1\n      sload\n      tag_180\n      swap1\n      tag_164\n      jump\t// in\n    tag_180:\n      dup1\n      iszero\n      tag_181\n      jumpi\n      dup1\n      0x1f\n      lt\n      tag_182\n      jumpi\n      0x0100\n      dup1\n      dup4\n      sload\n      div\n      mul\n      dup4\n      mstore\n      swap2\n      0x20\n      add\n      swap2\n      jump(tag_181)\n    tag_182:\n      dup3\n      add\n      swap2\n      swap1\n      0x00\n      mstore\n      keccak256(0x00, 0x20)\n      swap1\n    tag_183:\n      dup2\n      sload\n      dup2\n      mstore\n      swap1\n      0x01\n      add\n      swap1\n      0x20\n      add\n      dup1\n      dup4\n      gt\n      tag_183\n      jumpi\n      dup3\n      swap1\n      sub\n      0x1f\n      and\n      dup3\n      add\n      swap2\n    tag_181:\n      pop\n      pop\n      pop\n      pop\n      pop\n      swap1\n      pop\n      dup4\n      jump\t// out\n        /* \"contracts/AppAccessControl.sol\":6620:6733  function candidateAddress() public view returns (address[] memory candidate){... */\n    tag_57:\n        /* \"contracts/AppAccessControl.sol\":6669:6695  address[] memory candidate */\n      0x60\n        /* \"contracts/AppAccessControl.sol\":6716:6725  Candidate */\n      0x04\n        /* \"contracts/AppAccessControl.sol\":6709:6725  return Candidate */\n      dup1\n      sload\n      dup1\n      0x20\n      mul\n      0x20\n      add\n      mload(0x40)\n      swap1\n      dup2\n      add\n      0x40\n      mstore\n      dup1\n      swap3\n      swap2\n      swap1\n      dup2\n      dup2\n      mstore\n      0x20\n      add\n      dup3\n      dup1\n      sload\n      dup1\n      iszero\n      tag_185\n      jumpi\n      0x20\n      mul\n      dup3\n      add\n      swap2\n      swap1\n      0x00\n      mstore\n      keccak256(0x00, 0x20)\n      swap1\n    tag_186:\n      dup2\n      sload\n      sub(shl(0xa0, 0x01), 0x01)\n      and\n      dup2\n      mstore\n      0x01\n      swap1\n      swap2\n      add\n      swap1\n      0x20\n      add\n      dup1\n      dup4\n      gt\n      tag_186\n      jumpi\n    tag_185:\n      pop\n      pop\n      pop\n      pop\n      pop\n      swap1\n      pop\n        /* \"contracts/AppAccessControl.sol\":6620:6733  function candidateAddress() public view returns (address[] memory candidate){... */\n      swap1\n      jump\t// out\n        /* \"@openzeppelin/contracts/access/AccessControl.sol\":4226:4362  function grantRole(bytes32 role, address account) public virtual onlyRole(getRoleAdmin(role)) {... */\n    tag_72:\n        /* \"@openzeppelin/contracts/access/AccessControl.sol\":3875:3882  bytes32 */\n      0x00\n        /* \"@openzeppelin/contracts/access/AccessControl.sol\":3901:3913  _roles[role] */\n      dup3\n      dup2\n      mstore\n      0x20\n      dup2\n      swap1\n      mstore\n      0x40\n      swap1\n      keccak256\n        /* \"@openzeppelin/contracts/access/AccessControl.sol\":3901:3923  _roles[role].adminRole */\n      0x01\n      add\n      sload\n        /* \"@openzeppelin/contracts/access/AccessControl.sol\":2464:2480  _checkRole(role) */\n      tag_190\n        /* \"@openzeppelin/contracts/access/AccessControl.sol\":2475:2479  role */\n      dup2\n        /* \"@openzeppelin/contracts/access/AccessControl.sol\":2464:2474  _checkRole */\n      tag_191\n        /* \"@openzeppelin/contracts/access/AccessControl.sol\":2464:2480  _checkRole(role) */\n      jump\t// in\n    tag_190:\n        /* \"@openzeppelin/contracts/access/AccessControl.sol\":4330:4355  _grantRole(role, account) */\n      tag_193\n        /* \"@openzeppelin/contracts/access/AccessControl.sol\":4341:4345  role */\n      dup4\n        /* \"@openzeppelin/contracts/access/AccessControl.sol\":4347:4354  account */\n      dup4\n        /* \"@openzeppelin/contracts/access/AccessControl.sol\":4330:4340  _grantRole */\n      tag_194\n        /* \"@openzeppelin/contracts/access/AccessControl.sol\":4330:4355  _grantRole(role, account) */\n      jump\t// in\n    tag_193:\n      pop\n        /* \"@openzeppelin/contracts/access/AccessControl.sol\":4226:4362  function grantRole(bytes32 role, address account) public virtual onlyRole(getRoleAdmin(role)) {... */\n      pop\n      pop\n      pop\n      jump\t// out\n        /* \"@openzeppelin/contracts/access/AccessControl.sol\":5328:5573  function renounceRole(bytes32 role, address callerConfirmation) public virtual {... */\n    tag_75:\n      sub(shl(0xa0, 0x01), 0x01)\n        /* \"@openzeppelin/contracts/access/AccessControl.sol\":5421:5455  callerConfirmation != _msgSender() */\n      dup2\n      and\n        /* \"@openzeppelin/contracts/utils/Context.sol\":735:745  msg.sender */\n      caller\n        /* \"@openzeppelin/contracts/access/AccessControl.sol\":5421:5455  callerConfirmation != _msgSender() */\n      eq\n        /* \"@openzeppelin/contracts/access/AccessControl.sol\":5417:5519  if (callerConfirmation != _msgSender()) {... */\n      tag_198\n      jumpi\n        /* \"@openzeppelin/contracts/access/AccessControl.sol\":5478:5508  AccessControlBadConfirmation() */\n      mload(0x40)\n      shl(0xe1, 0x334bd919)\n      dup2\n      mstore\n      0x04\n      add\n      mload(0x40)\n      dup1\n      swap2\n      sub\n      swap1\n      revert\n        /* \"@openzeppelin/contracts/access/AccessControl.sol\":5417:5519  if (callerConfirmation != _msgSender()) {... */\n    tag_198:\n        /* \"@openzeppelin/contracts/access/AccessControl.sol\":5529:5566  _revokeRole(role, callerConfirmation) */\n      tag_199\n        /* \"@openzeppelin/contracts/access/AccessControl.sol\":5541:5545  role */\n      dup3\n        /* \"@openzeppelin/contracts/access/AccessControl.sol\":5547:5565  callerConfirmation */\n      dup3\n        /* \"@openzeppelin/contracts/access/AccessControl.sol\":5529:5540  _revokeRole */\n      tag_200\n        /* \"@openzeppelin/contracts/access/AccessControl.sol\":5529:5566  _revokeRole(role, callerConfirmation) */\n      jump\t// in\n    tag_199:\n      pop\n        /* \"@openzeppelin/contracts/access/AccessControl.sol\":5328:5573  function renounceRole(bytes32 role, address callerConfirmation) public virtual {... */\n      pop\n      pop\n      jump\t// out\n        /* \"contracts/AppAccessControl.sol\":6921:7270  function incrementVotingPowerForAdmin(address useradminAddress) public{... */\n    tag_78:\n        /* \"contracts/AppAccessControl.sol\":7079:7111  hasRole(ADMIN, useradminAddress) */\n      tag_202\n      0x00\n      dup1\n      mload\n      0x20\n      data_a29c3f0504a76c686875ea2f0fc314af702d3407223f14a34325f35a1858bd3b\n      dup4\n      codecopy\n      dup2\n      mload\n      swap2\n      mstore\n        /* \"contracts/AppAccessControl.sol\":7094:7110  useradminAddress */\n      dup3\n        /* \"contracts/AppAccessControl.sol\":7079:7086  hasRole */\n      tag_114\n        /* \"contracts/AppAccessControl.sol\":7079:7111  hasRole(ADMIN, useradminAddress) */\n      jump\t// in\n    tag_202:\n        /* \"contracts/AppAccessControl.sol\":7071:7147  require(hasRole(ADMIN, useradminAddress), \"only admins can do this process\") */\n      tag_203\n      jumpi\n      mload(0x40)\n      shl(0xe5, 0x461bcd)\n      dup2\n      mstore\n        /* \"#utility.yul\":7982:7984   */\n      0x20\n        /* \"contracts/AppAccessControl.sol\":7071:7147  require(hasRole(ADMIN, useradminAddress), \"only admins can do this process\") */\n      0x04\n      dup3\n      add\n        /* \"#utility.yul\":7964:7985   */\n      mstore\n        /* \"#utility.yul\":8021:8023   */\n      0x1f\n        /* \"#utility.yul\":8001:8019   */\n      0x24\n      dup3\n      add\n        /* \"#utility.yul\":7994:8024   */\n      mstore\n        /* \"#utility.yul\":8060:8093   */\n      0x6f6e6c792061646d696e732063616e20646f20746869732070726f6365737300\n        /* \"#utility.yul\":8040:8058   */\n      0x44\n      dup3\n      add\n        /* \"#utility.yul\":8033:8094   */\n      mstore\n        /* \"#utility.yul\":8111:8129   */\n      0x64\n      add\n        /* \"contracts/AppAccessControl.sol\":7071:7147  require(hasRole(ADMIN, useradminAddress), \"only admins can do this process\") */\n    tag_204:\n      mload(0x40)\n      dup1\n      swap2\n      sub\n      swap1\n      revert\n    tag_203:\n      sub(shl(0xa0, 0x01), 0x01)\n        /* \"contracts/AppAccessControl.sol\":7209:7243  AdminUserMapping[useradminAddress] */\n      dup2\n      and\n      0x00\n      swap1\n      dup2\n      mstore\n        /* \"contracts/AppAccessControl.sol\":7209:7225  AdminUserMapping */\n      0x05\n        /* \"contracts/AppAccessControl.sol\":7209:7243  AdminUserMapping[useradminAddress] */\n      0x20\n      mstore\n      0x40\n      swap1\n      keccak256\n        /* \"contracts/AppAccessControl.sol\":7209:7255  AdminUserMapping[useradminAddress].VotingPower */\n      sload\n        /* \"contracts/AppAccessControl.sol\":7209:7259  AdminUserMapping[useradminAddress].VotingPower + 1 */\n      tag_206\n      swap1\n        /* \"contracts/AppAccessControl.sol\":7258:7259  1 */\n      0x01\n        /* \"contracts/AppAccessControl.sol\":7209:7259  AdminUserMapping[useradminAddress].VotingPower + 1 */\n      tag_207\n      jump\t// in\n    tag_206:\n      sub(shl(0xa0, 0x01), 0x01)\n        /* \"contracts/AppAccessControl.sol\":7160:7194  AdminUserMapping[useradminAddress] */\n      swap1\n      swap2\n      and\n      0x00\n      swap1\n      dup2\n      mstore\n        /* \"contracts/AppAccessControl.sol\":7160:7176  AdminUserMapping */\n      0x05\n        /* \"contracts/AppAccessControl.sol\":7160:7194  AdminUserMapping[useradminAddress] */\n      0x20\n      mstore\n      0x40\n      swap1\n      keccak256\n        /* \"contracts/AppAccessControl.sol\":7160:7259  AdminUserMapping[useradminAddress].VotingPower = AdminUserMapping[useradminAddress].VotingPower + 1 */\n      sstore\n        /* \"contracts/AppAccessControl.sol\":6921:7270  function incrementVotingPowerForAdmin(address useradminAddress) public{... */\n      jump\t// out\n        /* \"contracts/AppAccessControl.sol\":600:621  address[] public User */\n    tag_82:\n      0x02\n      dup2\n      dup2\n      sload\n      dup2\n      lt\n      tag_208\n      jumpi\n      0x00\n      dup1\n      revert\n    tag_208:\n      0x00\n      swap2\n      dup3\n      mstore\n      0x20\n      swap1\n      swap2\n      keccak256\n      add\n      sload\n      sub(shl(0xa0, 0x01), 0x01)\n      and\n      swap1\n      pop\n      dup2\n      jump\t// out\n        /* \"contracts/AppAccessControl.sol\":1902:2049  function getRoleOfAddress(address addressOfUser, bytes32 role) public view returns (bool){... */\n    tag_88:\n        /* \"contracts/AppAccessControl.sol\":1986:1990  bool */\n      0x00\n        /* \"contracts/AppAccessControl.sol\":2013:2041  hasRole(role, addressOfUser) */\n      tag_211\n        /* \"contracts/AppAccessControl.sol\":2021:2025  role */\n      dup3\n        /* \"contracts/AppAccessControl.sol\":2027:2040  addressOfUser */\n      dup5\n        /* \"contracts/AppAccessControl.sol\":2013:2020  hasRole */\n      tag_114\n        /* \"contracts/AppAccessControl.sol\":2013:2041  hasRole(role, addressOfUser) */\n      jump\t// in\n    tag_211:\n        /* \"contracts/AppAccessControl.sol\":2006:2041  return hasRole(role, addressOfUser) */\n      swap4\n        /* \"contracts/AppAccessControl.sol\":1902:2049  function getRoleOfAddress(address addressOfUser, bytes32 role) public view returns (bool){... */\n      swap3\n      pop\n      pop\n      pop\n      jump\t// out\n        /* \"contracts/AppAccessControl.sol\":6465:6612  function getUserDetailsByAddress(address  addressOfUser) public view returns(UserType memory){... */\n    tag_92:\n        /* \"contracts/AppAccessControl.sol\":6542:6557  UserType memory */\n      tag_212\n      mload(0x40)\n      dup1\n      0x80\n      add\n      0x40\n      mstore\n      dup1\n      0x60\n      dup2\n      mstore\n      0x20\n      add\n      and(sub(shl(0xa0, 0x01), 0x01), 0x00)\n      dup2\n      mstore\n      0x20\n      add\n      0x60\n      dup2\n      mstore\n      0x20\n      add\n      0x00\n      dup2\n      mstore\n      pop\n      swap1\n      jump\n    tag_212:\n      sub(shl(0xa0, 0x01), 0x01)\n        /* \"contracts/AppAccessControl.sol\":6578:6604  UserMapping[addressOfUser] */\n      dup3\n      and\n      0x00\n      swap1\n      dup2\n      mstore\n        /* \"contracts/AppAccessControl.sol\":6578:6589  UserMapping */\n      0x01\n        /* \"contracts/AppAccessControl.sol\":6578:6604  UserMapping[addressOfUser] */\n      0x20\n      mstore\n      0x40\n      swap1\n      dup2\n      swap1\n      keccak256\n        /* \"contracts/AppAccessControl.sol\":6571:6604  return UserMapping[addressOfUser] */\n      dup2\n      mload\n      0x80\n      dup2\n      add\n      swap1\n      swap3\n      mstore\n      dup1\n      sload\n      dup3\n      swap1\n        /* \"contracts/AppAccessControl.sol\":6578:6604  UserMapping[addressOfUser] */\n      dup3\n      swap1\n        /* \"contracts/AppAccessControl.sol\":6571:6604  return UserMapping[addressOfUser] */\n      tag_215\n      swap1\n      tag_164\n      jump\t// in\n    tag_215:\n      dup1\n      0x1f\n      add\n      0x20\n      dup1\n      swap2\n      div\n      mul\n      0x20\n      add\n      mload(0x40)\n      swap1\n      dup2\n      add\n      0x40\n      mstore\n      dup1\n      swap3\n      swap2\n      swap1\n      dup2\n      dup2\n      mstore\n      0x20\n      add\n      dup3\n      dup1\n      sload\n      tag_216\n      swap1\n      tag_164\n      jump\t// in\n    tag_216:\n      dup1\n      iszero\n      tag_217\n      jumpi\n      dup1\n      0x1f\n      lt\n      tag_218\n      jumpi\n      0x0100\n      dup1\n      dup4\n      sload\n      div\n      mul\n      dup4\n      mstore\n      swap2\n      0x20\n      add\n      swap2\n      jump(tag_217)\n    tag_218:\n      dup3\n      add\n      swap2\n      swap1\n      0x00\n      mstore\n      keccak256(0x00, 0x20)\n      swap1\n    tag_219:\n      dup2\n      sload\n      dup2\n      mstore\n      swap1\n      0x01\n      add\n      swap1\n      0x20\n      add\n      dup1\n      dup4\n      gt\n      tag_219\n      jumpi\n      dup3\n      swap1\n      sub\n      0x1f\n      and\n      dup3\n      add\n      swap2\n    tag_217:\n      pop\n      pop\n      pop\n      swap2\n      dup4\n      mstore\n      pop\n      pop\n      0x01\n      dup3\n      add\n      sload\n      sub(shl(0xa0, 0x01), 0x01)\n      and\n      0x20\n      dup3\n      add\n      mstore\n      0x02\n      dup3\n      add\n      dup1\n      sload\n      0x40\n      swap1\n      swap3\n      add\n      swap2\n      tag_220\n      swap1\n      tag_164\n      jump\t// in\n    tag_220:\n      dup1\n      0x1f\n      add\n      0x20\n      dup1\n      swap2\n      div\n      mul\n      0x20\n      add\n      mload(0x40)\n      swap1\n      dup2\n      add\n      0x40\n      mstore\n      dup1\n      swap3\n      swap2\n      swap1\n      dup2\n      dup2\n      mstore\n      0x20\n      add\n      dup3\n      dup1\n      sload\n      tag_221\n      swap1\n      tag_164\n      jump\t// in\n    tag_221:\n      dup1\n      iszero\n      tag_222\n      jumpi\n      dup1\n      0x1f\n      lt\n      tag_223\n      jumpi\n      0x0100\n      dup1\n      dup4\n      sload\n      div\n      mul\n      dup4\n      mstore\n      swap2\n      0x20\n      add\n      swap2\n      jump(tag_222)\n    tag_223:\n      dup3\n      add\n      swap2\n      swap1\n      0x00\n      mstore\n      keccak256(0x00, 0x20)\n      swap1\n    tag_224:\n      dup2\n      sload\n      dup2\n      mstore\n      swap1\n      0x01\n      add\n      swap1\n      0x20\n      add\n      dup1\n      dup4\n      gt\n      tag_224\n      jumpi\n      dup3\n      swap1\n      sub\n      0x1f\n      and\n      dup3\n      add\n      swap2\n    tag_222:\n      pop\n      pop\n      pop\n      pop\n      pop\n      dup2\n      mstore\n      0x20\n      add\n      0x03\n      dup3\n      add\n      sload\n      dup2\n      mstore\n      pop\n      pop\n      swap1\n      pop\n        /* \"contracts/AppAccessControl.sol\":6465:6612  function getUserDetailsByAddress(address  addressOfUser) public view returns(UserType memory){... */\n      swap2\n      swap1\n      pop\n      jump\t// out\n        /* \"contracts/AppAccessControl.sol\":8090:8516  function decrementVotingPowerForUser(address useradminAddress) public{... */\n    tag_97:\n        /* \"contracts/AppAccessControl.sol\":8247:8278  hasRole(USER, useradminAddress) */\n      tag_226\n      0x00\n      dup1\n      mload\n      0x20\n      data_6c7ef5f486c548e88c076f8c58cca08ca00dabbbf011f4154530d60efa6c08a0\n      dup4\n      codecopy\n      dup2\n      mload\n      swap2\n      mstore\n        /* \"contracts/AppAccessControl.sol\":8261:8277  useradminAddress */\n      dup3\n        /* \"contracts/AppAccessControl.sol\":8247:8254  hasRole */\n      tag_114\n        /* \"contracts/AppAccessControl.sol\":8247:8278  hasRole(USER, useradminAddress) */\n      jump\t// in\n    tag_226:\n        /* \"contracts/AppAccessControl.sol\":8239:8317  require(hasRole(USER, useradminAddress), \"only user power can be incremented\") */\n      tag_227\n      jumpi\n      mload(0x40)\n      shl(0xe5, 0x461bcd)\n      dup2\n      mstore\n      0x04\n      add\n      tag_204\n      swap1\n      tag_229\n      jump\t// in\n    tag_227:\n      sub(shl(0xa0, 0x01), 0x01)\n        /* \"contracts/AppAccessControl.sol\":8333:8362  UserMapping[useradminAddress] */\n      dup2\n      and\n      0x00\n      swap1\n      dup2\n      mstore\n        /* \"contracts/AppAccessControl.sol\":8378:8379  1 */\n      0x01\n        /* \"contracts/AppAccessControl.sol\":8333:8362  UserMapping[useradminAddress] */\n      0x20\n      dup2\n      swap1\n      mstore\n      0x40\n      swap1\n      swap2\n      keccak256\n        /* \"contracts/AppAccessControl.sol\":8333:8374  UserMapping[useradminAddress].VotingPower */\n      0x03\n      add\n      sload\n        /* \"contracts/AppAccessControl.sol\":8333:8379  UserMapping[useradminAddress].VotingPower >= 1 */\n      lt\n        /* \"contracts/AppAccessControl.sol\":8330:8505  if(UserMapping[useradminAddress].VotingPower >= 1){... */\n      tag_230\n      jumpi\n      sub(shl(0xa0, 0x01), 0x01)\n        /* \"contracts/AppAccessControl.sol\":8447:8476  UserMapping[useradminAddress] */\n      dup2\n      and\n      0x00\n      swap1\n      dup2\n      mstore\n        /* \"contracts/AppAccessControl.sol\":8491:8492  1 */\n      0x01\n        /* \"contracts/AppAccessControl.sol\":8447:8476  UserMapping[useradminAddress] */\n      0x20\n      dup2\n      swap1\n      mstore\n      0x40\n      swap1\n      swap2\n      keccak256\n        /* \"contracts/AppAccessControl.sol\":8447:8488  UserMapping[useradminAddress].VotingPower */\n      0x03\n      add\n      sload\n        /* \"contracts/AppAccessControl.sol\":8447:8492  UserMapping[useradminAddress].VotingPower - 1 */\n      tag_231\n      swap2\n        /* \"contracts/AppAccessControl.sol\":8491:8492  1 */\n      swap1\n        /* \"contracts/AppAccessControl.sol\":8447:8492  UserMapping[useradminAddress].VotingPower - 1 */\n      tag_232\n      jump\t// in\n    tag_231:\n      sub(shl(0xa0, 0x01), 0x01)\n        /* \"contracts/AppAccessControl.sol\":8403:8432  UserMapping[useradminAddress] */\n      dup3\n      and\n      0x00\n      swap1\n      dup2\n      mstore\n        /* \"contracts/AppAccessControl.sol\":8403:8414  UserMapping */\n      0x01\n        /* \"contracts/AppAccessControl.sol\":8403:8432  UserMapping[useradminAddress] */\n      0x20\n      mstore\n      0x40\n      swap1\n      keccak256\n        /* \"contracts/AppAccessControl.sol\":8403:8444  UserMapping[useradminAddress].VotingPower */\n      0x03\n      add\n        /* \"contracts/AppAccessControl.sol\":8403:8492  UserMapping[useradminAddress].VotingPower = UserMapping[useradminAddress].VotingPower - 1 */\n      sstore\n        /* \"contracts/AppAccessControl.sol\":8330:8505  if(UserMapping[useradminAddress].VotingPower >= 1){... */\n    tag_230:\n        /* \"contracts/AppAccessControl.sol\":8090:8516  function decrementVotingPowerForUser(address useradminAddress) public{... */\n      pop\n      jump\t// out\n        /* \"contracts/AppAccessControl.sol\":2200:3634  function requestToBeAddedAsUser(address addressOfUser, string memory _name, string memory _region   )  external {... */\n    tag_101:\n        /* \"contracts/AppAccessControl.sol\":2408:2437  hasRole(ADMIN, addressOfUser) */\n      tag_234\n      0x00\n      dup1\n      mload\n      0x20\n      data_a29c3f0504a76c686875ea2f0fc314af702d3407223f14a34325f35a1858bd3b\n      dup4\n      codecopy\n      dup2\n      mload\n      swap2\n      mstore\n        /* \"contracts/AppAccessControl.sol\":2423:2436  addressOfUser */\n      dup5\n        /* \"contracts/AppAccessControl.sol\":2408:2415  hasRole */\n      tag_114\n        /* \"contracts/AppAccessControl.sol\":2408:2437  hasRole(ADMIN, addressOfUser) */\n      jump\t// in\n    tag_234:\n        /* \"contracts/AppAccessControl.sol\":2407:2437  !hasRole(ADMIN, addressOfUser) */\n      iszero\n        /* \"contracts/AppAccessControl.sol\":2407:2471  !hasRole(ADMIN, addressOfUser) &&  !hasRole(USER, addressOfUser) */\n      dup1\n      iszero\n      tag_235\n      jumpi\n      pop\n        /* \"contracts/AppAccessControl.sol\":2443:2471  hasRole(USER, addressOfUser) */\n      tag_236\n      0x00\n      dup1\n      mload\n      0x20\n      data_6c7ef5f486c548e88c076f8c58cca08ca00dabbbf011f4154530d60efa6c08a0\n      dup4\n      codecopy\n      dup2\n      mload\n      swap2\n      mstore\n        /* \"contracts/AppAccessControl.sol\":2457:2470  addressOfUser */\n      dup5\n        /* \"contracts/AppAccessControl.sol\":2443:2450  hasRole */\n      tag_114\n        /* \"contracts/AppAccessControl.sol\":2443:2471  hasRole(USER, addressOfUser) */\n      jump\t// in\n    tag_236:\n        /* \"contracts/AppAccessControl.sol\":2442:2471  !hasRole(USER, addressOfUser) */\n      iszero\n        /* \"contracts/AppAccessControl.sol\":2407:2471  !hasRole(ADMIN, addressOfUser) &&  !hasRole(USER, addressOfUser) */\n    tag_235:\n        /* \"contracts/AppAccessControl.sol\":2407:2509  !hasRole(ADMIN, addressOfUser) &&  !hasRole(USER, addressOfUser) && !hasRole(CANDIDATE, addressOfUser) */\n      dup1\n      iszero\n      tag_237\n      jumpi\n      pop\n        /* \"contracts/AppAccessControl.sol\":2476:2509  hasRole(CANDIDATE, addressOfUser) */\n      tag_238\n        /* \"contracts/AppAccessControl.sol\":407:429  keccak256(\"CANDIDATE\") */\n      0xa62771101a79dd4b4d7b861524e85faa4569e99d6bb6b09233805dccb1ea480f\n        /* \"contracts/AppAccessControl.sol\":2495:2508  addressOfUser */\n      dup5\n        /* \"contracts/AppAccessControl.sol\":2476:2483  hasRole */\n      tag_114\n        /* \"contracts/AppAccessControl.sol\":2476:2509  hasRole(CANDIDATE, addressOfUser) */\n      jump\t// in\n    tag_238:\n        /* \"contracts/AppAccessControl.sol\":2475:2509  !hasRole(CANDIDATE, addressOfUser) */\n      iszero\n        /* \"contracts/AppAccessControl.sol\":2407:2509  !hasRole(ADMIN, addressOfUser) &&  !hasRole(USER, addressOfUser) && !hasRole(CANDIDATE, addressOfUser) */\n    tag_237:\n        /* \"contracts/AppAccessControl.sol\":2407:2547  !hasRole(ADMIN, addressOfUser) &&  !hasRole(USER, addressOfUser) && !hasRole(CANDIDATE, addressOfUser) && !hasRole(CANDIDATE, addressOfUser) */\n      dup1\n      iszero\n      tag_239\n      jumpi\n      pop\n        /* \"contracts/AppAccessControl.sol\":2514:2547  hasRole(CANDIDATE, addressOfUser) */\n      tag_240\n        /* \"contracts/AppAccessControl.sol\":407:429  keccak256(\"CANDIDATE\") */\n      0xa62771101a79dd4b4d7b861524e85faa4569e99d6bb6b09233805dccb1ea480f\n        /* \"contracts/AppAccessControl.sol\":2533:2546  addressOfUser */\n      dup5\n        /* \"contracts/AppAccessControl.sol\":2514:2521  hasRole */\n      tag_114\n        /* \"contracts/AppAccessControl.sol\":2514:2547  hasRole(CANDIDATE, addressOfUser) */\n      jump\t// in\n    tag_240:\n        /* \"contracts/AppAccessControl.sol\":2513:2547  !hasRole(CANDIDATE, addressOfUser) */\n      iszero\n        /* \"contracts/AppAccessControl.sol\":2407:2547  !hasRole(ADMIN, addressOfUser) &&  !hasRole(USER, addressOfUser) && !hasRole(CANDIDATE, addressOfUser) && !hasRole(CANDIDATE, addressOfUser) */\n    tag_239:\n        /* \"contracts/AppAccessControl.sol\":2404:3627  if(!hasRole(ADMIN, addressOfUser) &&  !hasRole(USER, addressOfUser) && !hasRole(CANDIDATE, addressOfUser) && !hasRole(CANDIDATE, addressOfUser)){... */\n      iszero\n      tag_199\n      jumpi\n        /* \"contracts/AppAccessControl.sol\":2599:2630  _grantRole(USER, addressOfUser) */\n      tag_242\n      0x00\n      dup1\n      mload\n      0x20\n      data_6c7ef5f486c548e88c076f8c58cca08ca00dabbbf011f4154530d60efa6c08a0\n      dup4\n      codecopy\n      dup2\n      mload\n      swap2\n      mstore\n        /* \"contracts/AppAccessControl.sol\":2616:2629  addressOfUser */\n      dup5\n        /* \"contracts/AppAccessControl.sol\":2599:2609  _grantRole */\n      tag_194\n        /* \"contracts/AppAccessControl.sol\":2599:2630  _grantRole(USER, addressOfUser) */\n      jump\t// in\n    tag_242:\n      pop\n      sub(shl(0xa0, 0x01), 0x01)\n        /* \"contracts/AppAccessControl.sol\":2683:2709  UserMapping[addressOfUser] */\n      dup4\n      and\n      0x00\n      dup2\n      dup2\n      mstore\n        /* \"contracts/AppAccessControl.sol\":2683:2694  UserMapping */\n      0x01\n        /* \"contracts/AppAccessControl.sol\":2683:2709  UserMapping[addressOfUser] */\n      0x20\n      dup2\n      swap1\n      mstore\n      0x40\n      swap1\n      swap2\n      keccak256\n        /* \"contracts/AppAccessControl.sol\":2683:2721  UserMapping[addressOfUser].UserAddress */\n      swap1\n      dup2\n      add\n        /* \"contracts/AppAccessControl.sol\":2683:2737  UserMapping[addressOfUser].UserAddress = addressOfUser */\n      dup1\n      sload\n      not(sub(shl(0xa0, 0x01), 0x01))\n      and\n      swap1\n      swap3\n      or\n      swap1\n      swap2\n      sstore\n        /* \"contracts/AppAccessControl.sol\":2752:2791  UserMapping[addressOfUser].Name = _name */\n      tag_243\n        /* \"contracts/AppAccessControl.sol\":2786:2791  _name */\n      dup4\n        /* \"contracts/AppAccessControl.sol\":2683:2709  UserMapping[addressOfUser] */\n      dup3\n        /* \"contracts/AppAccessControl.sol\":2752:2791  UserMapping[addressOfUser].Name = _name */\n      tag_244\n      jump\t// in\n    tag_243:\n      pop\n      sub(shl(0xa0, 0x01), 0x01)\n        /* \"contracts/AppAccessControl.sol\":2806:2832  UserMapping[addressOfUser] */\n      dup4\n      and\n      0x00\n      swap1\n      dup2\n      mstore\n        /* \"contracts/AppAccessControl.sol\":2806:2817  UserMapping */\n      0x01\n        /* \"contracts/AppAccessControl.sol\":2806:2832  UserMapping[addressOfUser] */\n      0x20\n      mstore\n      0x40\n      swap1\n      keccak256\n        /* \"contracts/AppAccessControl.sol\":2806:2839  UserMapping[addressOfUser].Region */\n      0x02\n      add\n        /* \"contracts/AppAccessControl.sol\":2806:2849  UserMapping[addressOfUser].Region = _region */\n      tag_245\n        /* \"contracts/AppAccessControl.sol\":2842:2849  _region */\n      dup3\n        /* \"contracts/AppAccessControl.sol\":2806:2839  UserMapping[addressOfUser].Region */\n      dup3\n        /* \"contracts/AppAccessControl.sol\":2806:2849  UserMapping[addressOfUser].Region = _region */\n      tag_244\n      jump\t// in\n    tag_245:\n      pop\n      pop\n      pop\n      sub(shl(0xa0, 0x01), 0x01)\n        /* \"contracts/AppAccessControl.sol\":3003:3029  UserMapping[addressOfUser] */\n      and\n        /* \"contracts/AppAccessControl.sol\":3044:3045  0 */\n      0x00\n        /* \"contracts/AppAccessControl.sol\":3003:3029  UserMapping[addressOfUser] */\n      dup2\n      dup2\n      mstore\n        /* \"contracts/AppAccessControl.sol\":3003:3014  UserMapping */\n      0x01\n        /* \"contracts/AppAccessControl.sol\":3003:3029  UserMapping[addressOfUser] */\n      0x20\n      dup2\n      swap1\n      mstore\n      0x40\n      dup3\n      keccak256\n        /* \"contracts/AppAccessControl.sol\":3003:3041  UserMapping[addressOfUser].VotingPower */\n      0x03\n      add\n        /* \"contracts/AppAccessControl.sol\":3003:3045  UserMapping[addressOfUser].VotingPower = 0 */\n      dup3\n      swap1\n      sstore\n        /* \"contracts/AppAccessControl.sol\":3237:3241  User */\n      0x02\n        /* \"contracts/AppAccessControl.sol\":3237:3261  User.push(addressOfUser) */\n      dup1\n      sload\n      swap2\n      dup3\n      add\n      dup2\n      sstore\n      swap1\n      swap2\n      mstore\n      0x405787fa12a823e0f2b7631cc41b3ba8828b3321ca811111fa75cd3aa3bb5ace\n      add\n      dup1\n      sload\n      not(sub(shl(0xa0, 0x01), 0x01))\n      and\n      swap1\n      swap2\n      or\n      swap1\n      sstore\n        /* \"@openzeppelin/contracts/access/AccessControl.sol\":5328:5573  function renounceRole(bytes32 role, address callerConfirmation) public virtual {... */\n      jump\t// out\n        /* \"contracts/AppAccessControl.sol\":772:794  address[] public Admin */\n    tag_104:\n      0x06\n      dup2\n      dup2\n      sload\n      dup2\n      lt\n      tag_208\n      jumpi\n      0x00\n      dup1\n      revert\n        /* \"contracts/AppAccessControl.sol\":7284:7724  function decrementVotingPowerForAdmin(address useradminAddress) public{... */\n    tag_111:\n        /* \"contracts/AppAccessControl.sol\":7442:7474  hasRole(ADMIN, useradminAddress) */\n      tag_251\n      0x00\n      dup1\n      mload\n      0x20\n      data_a29c3f0504a76c686875ea2f0fc314af702d3407223f14a34325f35a1858bd3b\n      dup4\n      codecopy\n      dup2\n      mload\n      swap2\n      mstore\n        /* \"contracts/AppAccessControl.sol\":7457:7473  useradminAddress */\n      dup3\n        /* \"contracts/AppAccessControl.sol\":7442:7449  hasRole */\n      tag_114\n        /* \"contracts/AppAccessControl.sol\":7442:7474  hasRole(ADMIN, useradminAddress) */\n      jump\t// in\n    tag_251:\n        /* \"contracts/AppAccessControl.sol\":7434:7510  require(hasRole(ADMIN, useradminAddress), \"only admins can do this process\") */\n      tag_252\n      jumpi\n      mload(0x40)\n      shl(0xe5, 0x461bcd)\n      dup2\n      mstore\n        /* \"#utility.yul\":7982:7984   */\n      0x20\n        /* \"contracts/AppAccessControl.sol\":7434:7510  require(hasRole(ADMIN, useradminAddress), \"only admins can do this process\") */\n      0x04\n      dup3\n      add\n        /* \"#utility.yul\":7964:7985   */\n      mstore\n        /* \"#utility.yul\":8021:8023   */\n      0x1f\n        /* \"#utility.yul\":8001:8019   */\n      0x24\n      dup3\n      add\n        /* \"#utility.yul\":7994:8024   */\n      mstore\n        /* \"#utility.yul\":8060:8093   */\n      0x6f6e6c792061646d696e732063616e20646f20746869732070726f6365737300\n        /* \"#utility.yul\":8040:8058   */\n      0x44\n      dup3\n      add\n        /* \"#utility.yul\":8033:8094   */\n      mstore\n        /* \"#utility.yul\":8111:8129   */\n      0x64\n      add\n        /* \"contracts/AppAccessControl.sol\":7434:7510  require(hasRole(ADMIN, useradminAddress), \"only admins can do this process\") */\n      tag_204\n        /* \"#utility.yul\":7780:8135   */\n      jump\n        /* \"contracts/AppAccessControl.sol\":7434:7510  require(hasRole(ADMIN, useradminAddress), \"only admins can do this process\") */\n    tag_252:\n      sub(shl(0xa0, 0x01), 0x01)\n        /* \"contracts/AppAccessControl.sol\":7526:7560  AdminUserMapping[useradminAddress] */\n      dup2\n      and\n      0x00\n      swap1\n      dup2\n      mstore\n        /* \"contracts/AppAccessControl.sol\":7526:7542  AdminUserMapping */\n      0x05\n        /* \"contracts/AppAccessControl.sol\":7526:7560  AdminUserMapping[useradminAddress] */\n      0x20\n      mstore\n      0x40\n      swap1\n      keccak256\n        /* \"contracts/AppAccessControl.sol\":7526:7572  AdminUserMapping[useradminAddress].VotingPower */\n      sload\n        /* \"contracts/AppAccessControl.sol\":7576:7577  1 */\n      0x01\n      gt\n        /* \"contracts/AppAccessControl.sol\":7523:7713  if(AdminUserMapping[useradminAddress].VotingPower >= 1){... */\n      tag_230\n      jumpi\n      sub(shl(0xa0, 0x01), 0x01)\n        /* \"contracts/AppAccessControl.sol\":7650:7684  AdminUserMapping[useradminAddress] */\n      dup2\n      and\n      0x00\n      swap1\n      dup2\n      mstore\n        /* \"contracts/AppAccessControl.sol\":7650:7666  AdminUserMapping */\n      0x05\n        /* \"contracts/AppAccessControl.sol\":7650:7684  AdminUserMapping[useradminAddress] */\n      0x20\n      mstore\n      0x40\n      swap1\n      keccak256\n        /* \"contracts/AppAccessControl.sol\":7650:7696  AdminUserMapping[useradminAddress].VotingPower */\n      sload\n        /* \"contracts/AppAccessControl.sol\":7650:7700  AdminUserMapping[useradminAddress].VotingPower - 1 */\n      tag_206\n      swap1\n        /* \"contracts/AppAccessControl.sol\":7699:7700  1 */\n      0x01\n      swap1\n        /* \"contracts/AppAccessControl.sol\":7650:7700  AdminUserMapping[useradminAddress].VotingPower - 1 */\n      tag_232\n      jump\t// in\n        /* \"@openzeppelin/contracts/access/AccessControl.sol\":2854:2990  function hasRole(bytes32 role, address account) public view virtual returns (bool) {... */\n    tag_114:\n        /* \"@openzeppelin/contracts/access/AccessControl.sol\":2931:2935  bool */\n      0x00\n        /* \"@openzeppelin/contracts/access/AccessControl.sol\":2954:2966  _roles[role] */\n      swap2\n      dup3\n      mstore\n      0x20\n      dup3\n      dup2\n      mstore\n      0x40\n      dup1\n      dup5\n      keccak256\n      sub(shl(0xa0, 0x01), 0x01)\n        /* \"@openzeppelin/contracts/access/AccessControl.sol\":2954:2983  _roles[role].hasRole[account] */\n      swap4\n      swap1\n      swap4\n      and\n      dup5\n      mstore\n      swap2\n      swap1\n      mstore\n      swap1\n      keccak256\n      sload\n      0xff\n      and\n      swap1\n        /* \"@openzeppelin/contracts/access/AccessControl.sol\":2854:2990  function hasRole(bytes32 role, address account) public view virtual returns (bool) {... */\n      jump\t// out\n        /* \"contracts/AppAccessControl.sol\":7736:8076  function incrementVotingPowerForUser(address useradminAddress) public{... */\n    tag_124:\n        /* \"contracts/AppAccessControl.sol\":7893:7924  hasRole(USER, useradminAddress) */\n      tag_258\n      0x00\n      dup1\n      mload\n      0x20\n      data_6c7ef5f486c548e88c076f8c58cca08ca00dabbbf011f4154530d60efa6c08a0\n      dup4\n      codecopy\n      dup2\n      mload\n      swap2\n      mstore\n        /* \"contracts/AppAccessControl.sol\":7907:7923  useradminAddress */\n      dup3\n        /* \"contracts/AppAccessControl.sol\":7893:7900  hasRole */\n      tag_114\n        /* \"contracts/AppAccessControl.sol\":7893:7924  hasRole(USER, useradminAddress) */\n      jump\t// in\n    tag_258:\n        /* \"contracts/AppAccessControl.sol\":7885:7963  require(hasRole(USER, useradminAddress), \"only user power can be incremented\") */\n      tag_259\n      jumpi\n      mload(0x40)\n      shl(0xe5, 0x461bcd)\n      dup2\n      mstore\n      0x04\n      add\n      tag_204\n      swap1\n      tag_229\n      jump\t// in\n    tag_259:\n      sub(shl(0xa0, 0x01), 0x01)\n        /* \"contracts/AppAccessControl.sol\":8020:8049  UserMapping[useradminAddress] */\n      dup2\n      and\n      0x00\n      swap1\n      dup2\n      mstore\n        /* \"contracts/AppAccessControl.sol\":8020:8031  UserMapping */\n      0x01\n        /* \"contracts/AppAccessControl.sol\":8020:8049  UserMapping[useradminAddress] */\n      0x20\n      dup2\n      swap1\n      mstore\n      0x40\n      swap1\n      swap2\n      keccak256\n        /* \"contracts/AppAccessControl.sol\":8020:8061  UserMapping[useradminAddress].VotingPower */\n      0x03\n      add\n      sload\n        /* \"contracts/AppAccessControl.sol\":8020:8065  UserMapping[useradminAddress].VotingPower + 1 */\n      tag_231\n      swap2\n      tag_207\n      jump\t// in\n        /* \"@openzeppelin/contracts/access/AccessControl.sol\":4642:4780  function revokeRole(bytes32 role, address account) public virtual onlyRole(getRoleAdmin(role)) {... */\n    tag_130:\n        /* \"@openzeppelin/contracts/access/AccessControl.sol\":3875:3882  bytes32 */\n      0x00\n        /* \"@openzeppelin/contracts/access/AccessControl.sol\":3901:3913  _roles[role] */\n      dup3\n      dup2\n      mstore\n      0x20\n      dup2\n      swap1\n      mstore\n      0x40\n      swap1\n      keccak256\n        /* \"@openzeppelin/contracts/access/AccessControl.sol\":3901:3923  _roles[role].adminRole */\n      0x01\n      add\n      sload\n        /* \"@openzeppelin/contracts/access/AccessControl.sol\":2464:2480  _checkRole(role) */\n      tag_264\n        /* \"@openzeppelin/contracts/access/AccessControl.sol\":2475:2479  role */\n      dup2\n        /* \"@openzeppelin/contracts/access/AccessControl.sol\":2464:2474  _checkRole */\n      tag_191\n        /* \"@openzeppelin/contracts/access/AccessControl.sol\":2464:2480  _checkRole(role) */\n      jump\t// in\n    tag_264:\n        /* \"@openzeppelin/contracts/access/AccessControl.sol\":4747:4773  _revokeRole(role, account) */\n      tag_193\n        /* \"@openzeppelin/contracts/access/AccessControl.sol\":4759:4763  role */\n      dup4\n        /* \"@openzeppelin/contracts/access/AccessControl.sol\":4765:4772  account */\n      dup4\n        /* \"@openzeppelin/contracts/access/AccessControl.sol\":4747:4758  _revokeRole */\n      tag_200\n        /* \"@openzeppelin/contracts/access/AccessControl.sol\":4747:4773  _revokeRole(role, account) */\n      jump\t// in\n        /* \"contracts/AppAccessControl.sol\":552:597  mapping(address=>UserType) public UserMapping */\n    tag_133:\n      mstore(0x20, 0x01)\n      0x00\n      swap1\n      dup2\n      mstore\n      0x40\n      swap1\n      keccak256\n      dup1\n      sload\n      dup2\n      swap1\n      tag_267\n      swap1\n      tag_164\n      jump\t// in\n    tag_267:\n      dup1\n      0x1f\n      add\n      0x20\n      dup1\n      swap2\n      div\n      mul\n      0x20\n      add\n      mload(0x40)\n      swap1\n      dup2\n      add\n      0x40\n      mstore\n      dup1\n      swap3\n      swap2\n      swap1\n      dup2\n      dup2\n      mstore\n      0x20\n      add\n      dup3\n      dup1\n      sload\n      tag_268\n      swap1\n      tag_164\n      jump\t// in\n    tag_268:\n      dup1\n      iszero\n      tag_269\n      jumpi\n      dup1\n      0x1f\n      lt\n      tag_270\n      jumpi\n      0x0100\n      dup1\n      dup4\n      sload\n      div\n      mul\n      dup4\n      mstore\n      swap2\n      0x20\n      add\n      swap2\n      jump(tag_269)\n    tag_270:\n      dup3\n      add\n      swap2\n      swap1\n      0x00\n      mstore\n      keccak256(0x00, 0x20)\n      swap1\n    tag_271:\n      dup2\n      sload\n      dup2\n      mstore\n      swap1\n      0x01\n      add\n      swap1\n      0x20\n      add\n      dup1\n      dup4\n      gt\n      tag_271\n      jumpi\n      dup3\n      swap1\n      sub\n      0x1f\n      and\n      dup3\n      add\n      swap2\n    tag_269:\n      pop\n      pop\n      pop\n      0x01\n      dup5\n      add\n      sload\n      0x02\n      dup6\n      add\n      dup1\n      sload\n      swap5\n      swap6\n      sub(shl(0xa0, 0x01), 0x01)\n      swap1\n      swap3\n      and\n      swap5\n      swap2\n      swap4\n      pop\n      swap2\n      pop\n      tag_272\n      swap1\n      tag_164\n      jump\t// in\n    tag_272:\n      dup1\n      0x1f\n      add\n      0x20\n      dup1\n      swap2\n      div\n      mul\n      0x20\n      add\n      mload(0x40)\n      swap1\n      dup2\n      add\n      0x40\n      mstore\n      dup1\n      swap3\n      swap2\n      swap1\n      dup2\n      dup2\n      mstore\n      0x20\n      add\n      dup3\n      dup1\n      sload\n      tag_273\n      swap1\n      tag_164\n      jump\t// in\n    tag_273:\n      dup1\n      iszero\n      tag_274\n      jumpi\n      dup1\n      0x1f\n      lt\n      tag_275\n      jumpi\n      0x0100\n      dup1\n      dup4\n      sload\n      div\n      mul\n      dup4\n      mstore\n      swap2\n      0x20\n      add\n      swap2\n      jump(tag_274)\n    tag_275:\n      dup3\n      add\n      swap2\n      swap1\n      0x00\n      mstore\n      keccak256(0x00, 0x20)\n      swap1\n    tag_276:\n      dup2\n      sload\n      dup2\n      mstore\n      swap1\n      0x01\n      add\n      swap1\n      0x20\n      add\n      dup1\n      dup4\n      gt\n      tag_276\n      jumpi\n      dup3\n      swap1\n      sub\n      0x1f\n      and\n      dup3\n      add\n      swap2\n    tag_274:\n      pop\n      pop\n      pop\n      pop\n      pop\n      swap1\n      dup1\n      0x03\n      add\n      sload\n      swap1\n      pop\n      dup5\n      jump\t// out\n        /* \"contracts/AppAccessControl.sol\":682:708  address[] public Candidate */\n    tag_138:\n      0x04\n      dup2\n      dup2\n      sload\n      dup2\n      lt\n      tag_208\n      jumpi\n      0x00\n      dup1\n      revert\n        /* \"contracts/AppAccessControl.sol\":6359:6457  function userAddress() public view returns (address[] memory users){... */\n    tag_141:\n        /* \"contracts/AppAccessControl.sol\":6403:6425  address[] memory users */\n      0x60\n        /* \"contracts/AppAccessControl.sol\":6445:6449  User */\n      0x02\n        /* \"contracts/AppAccessControl.sol\":6437:6449  return  User */\n      dup1\n      sload\n      dup1\n      0x20\n      mul\n      0x20\n      add\n      mload(0x40)\n      swap1\n      dup2\n      add\n      0x40\n      mstore\n      dup1\n      swap3\n      swap2\n      swap1\n      dup2\n      dup2\n      mstore\n      0x20\n      add\n      dup3\n      dup1\n      sload\n      dup1\n      iszero\n      tag_185\n      jumpi\n      0x20\n      mul\n      dup3\n      add\n      swap2\n      swap1\n      0x00\n      mstore\n      keccak256(0x00, 0x20)\n      swap1\n      dup2\n      sload\n      sub(shl(0xa0, 0x01), 0x01)\n      and\n      dup2\n      mstore\n      0x01\n      swap1\n      swap2\n      add\n      swap1\n      0x20\n      add\n      dup1\n      dup4\n      gt\n      tag_186\n      jumpi\n      pop\n      pop\n      pop\n      pop\n      pop\n      swap1\n      pop\n        /* \"contracts/AppAccessControl.sol\":6359:6457  function userAddress() public view returns (address[] memory users){... */\n      swap1\n      jump\t// out\n        /* \"contracts/AppAccessControl.sol\":6089:6190  function adminAddress() public view returns (address[] memory admins) {... */\n    tag_154:\n        /* \"contracts/AppAccessControl.sol\":6134:6157  address[] memory admins */\n      0x60\n        /* \"contracts/AppAccessControl.sol\":6177:6182  Admin */\n      0x06\n        /* \"contracts/AppAccessControl.sol\":6170:6182  return Admin */\n      dup1\n      sload\n      dup1\n      0x20\n      mul\n      0x20\n      add\n      mload(0x40)\n      swap1\n      dup2\n      add\n      0x40\n      mstore\n      dup1\n      swap3\n      swap2\n      swap1\n      dup2\n      dup2\n      mstore\n      0x20\n      add\n      dup3\n      dup1\n      sload\n      dup1\n      iszero\n      tag_185\n      jumpi\n      0x20\n      mul\n      dup3\n      add\n      swap2\n      swap1\n      0x00\n      mstore\n      keccak256(0x00, 0x20)\n      swap1\n      dup2\n      sload\n      sub(shl(0xa0, 0x01), 0x01)\n      and\n      dup2\n      mstore\n      0x01\n      swap1\n      swap2\n      add\n      swap1\n      0x20\n      add\n      dup1\n      dup4\n      gt\n      tag_186\n      jumpi\n      pop\n      pop\n      pop\n      pop\n      pop\n      swap1\n      pop\n        /* \"contracts/AppAccessControl.sol\":6089:6190  function adminAddress() public view returns (address[] memory admins) {... */\n      swap1\n      jump\t// out\n        /* \"@openzeppelin/contracts/access/AccessControl.sol\":3199:3302  function _checkRole(bytes32 role) internal view virtual {... */\n    tag_191:\n        /* \"@openzeppelin/contracts/access/AccessControl.sol\":3265:3295  _checkRole(role, _msgSender()) */\n      tag_230\n        /* \"@openzeppelin/contracts/access/AccessControl.sol\":3276:3280  role */\n      dup2\n        /* \"@openzeppelin/contracts/utils/Context.sol\":735:745  msg.sender */\n      caller\n        /* \"@openzeppelin/contracts/access/AccessControl.sol\":3265:3275  _checkRole */\n      tag_292\n        /* \"@openzeppelin/contracts/access/AccessControl.sol\":3265:3295  _checkRole(role, _msgSender()) */\n      jump\t// in\n        /* \"@openzeppelin/contracts/access/AccessControl.sol\":6179:6495  function _grantRole(bytes32 role, address account) internal virtual returns (bool) {... */\n    tag_194:\n        /* \"@openzeppelin/contracts/access/AccessControl.sol\":6256:6260  bool */\n      0x00\n        /* \"@openzeppelin/contracts/access/AccessControl.sol\":6277:6299  hasRole(role, account) */\n      tag_294\n        /* \"@openzeppelin/contracts/access/AccessControl.sol\":6285:6289  role */\n      dup4\n        /* \"@openzeppelin/contracts/access/AccessControl.sol\":6291:6298  account */\n      dup4\n        /* \"@openzeppelin/contracts/access/AccessControl.sol\":6277:6284  hasRole */\n      tag_114\n        /* \"@openzeppelin/contracts/access/AccessControl.sol\":6277:6299  hasRole(role, account) */\n      jump\t// in\n    tag_294:\n        /* \"@openzeppelin/contracts/access/AccessControl.sol\":6272:6489  if (!hasRole(role, account)) {... */\n      tag_295\n      jumpi\n        /* \"@openzeppelin/contracts/access/AccessControl.sol\":6315:6321  _roles */\n      0x00\n        /* \"@openzeppelin/contracts/access/AccessControl.sol\":6315:6327  _roles[role] */\n      dup4\n      dup2\n      mstore\n      0x20\n      dup2\n      dup2\n      mstore\n      0x40\n      dup1\n      dup4\n      keccak256\n      sub(shl(0xa0, 0x01), 0x01)\n        /* \"@openzeppelin/contracts/access/AccessControl.sol\":6315:6344  _roles[role].hasRole[account] */\n      dup7\n      and\n      dup5\n      mstore\n      swap1\n      swap2\n      mstore\n      swap1\n      keccak256\n        /* \"@openzeppelin/contracts/access/AccessControl.sol\":6315:6351  _roles[role].hasRole[account] = true */\n      dup1\n      sload\n      not(0xff)\n      and\n        /* \"@openzeppelin/contracts/access/AccessControl.sol\":6347:6351  true */\n      0x01\n        /* \"@openzeppelin/contracts/access/AccessControl.sol\":6315:6351  _roles[role].hasRole[account] = true */\n      or\n      swap1\n      sstore\n        /* \"@openzeppelin/contracts/access/AccessControl.sol\":6397:6409  _msgSender() */\n      tag_296\n        /* \"@openzeppelin/contracts/utils/Context.sol\":735:745  msg.sender */\n      caller\n      swap1\n        /* \"@openzeppelin/contracts/utils/Context.sol\":656:752  function _msgSender() internal view virtual returns (address) {... */\n      jump\n        /* \"@openzeppelin/contracts/access/AccessControl.sol\":6397:6409  _msgSender() */\n    tag_296:\n      sub(shl(0xa0, 0x01), 0x01)\n        /* \"@openzeppelin/contracts/access/AccessControl.sol\":6370:6410  RoleGranted(role, account, _msgSender()) */\n      and\n        /* \"@openzeppelin/contracts/access/AccessControl.sol\":6388:6395  account */\n      dup3\n      sub(shl(0xa0, 0x01), 0x01)\n        /* \"@openzeppelin/contracts/access/AccessControl.sol\":6370:6410  RoleGranted(role, account, _msgSender()) */\n      and\n        /* \"@openzeppelin/contracts/access/AccessControl.sol\":6382:6386  role */\n      dup5\n        /* \"@openzeppelin/contracts/access/AccessControl.sol\":6370:6410  RoleGranted(role, account, _msgSender()) */\n      0x2f8788117e7eff1d82e926ec794901d17c78024a50270940304540a733656f0d\n      mload(0x40)\n      mload(0x40)\n      dup1\n      swap2\n      sub\n      swap1\n      log4\n      pop\n        /* \"@openzeppelin/contracts/access/AccessControl.sol\":6431:6435  true */\n      0x01\n        /* \"@openzeppelin/contracts/access/AccessControl.sol\":6424:6435  return true */\n      jump(tag_158)\n        /* \"@openzeppelin/contracts/access/AccessControl.sol\":6272:6489  if (!hasRole(role, account)) {... */\n    tag_295:\n      pop\n        /* \"@openzeppelin/contracts/access/AccessControl.sol\":6473:6478  false */\n      0x00\n        /* \"@openzeppelin/contracts/access/AccessControl.sol\":6466:6478  return false */\n      jump(tag_158)\n        /* \"@openzeppelin/contracts/access/AccessControl.sol\":6730:7047  function _revokeRole(bytes32 role, address account) internal virtual returns (bool) {... */\n    tag_200:\n        /* \"@openzeppelin/contracts/access/AccessControl.sol\":6808:6812  bool */\n      0x00\n        /* \"@openzeppelin/contracts/access/AccessControl.sol\":6828:6850  hasRole(role, account) */\n      tag_300\n        /* \"@openzeppelin/contracts/access/AccessControl.sol\":6836:6840  role */\n      dup4\n        /* \"@openzeppelin/contracts/access/AccessControl.sol\":6842:6849  account */\n      dup4\n        /* \"@openzeppelin/contracts/access/AccessControl.sol\":6828:6835  hasRole */\n      tag_114\n        /* \"@openzeppelin/contracts/access/AccessControl.sol\":6828:6850  hasRole(role, account) */\n      jump\t// in\n    tag_300:\n        /* \"@openzeppelin/contracts/access/AccessControl.sol\":6824:7041  if (hasRole(role, account)) {... */\n      iszero\n      tag_295\n      jumpi\n        /* \"@openzeppelin/contracts/access/AccessControl.sol\":6898:6903  false */\n      0x00\n        /* \"@openzeppelin/contracts/access/AccessControl.sol\":6866:6878  _roles[role] */\n      dup4\n      dup2\n      mstore\n      0x20\n      dup2\n      dup2\n      mstore\n      0x40\n      dup1\n      dup4\n      keccak256\n      sub(shl(0xa0, 0x01), 0x01)\n        /* \"@openzeppelin/contracts/access/AccessControl.sol\":6866:6895  _roles[role].hasRole[account] */\n      dup7\n      and\n      dup1\n      dup6\n      mstore\n      swap3\n      mstore\n      dup1\n      dup4\n      keccak256\n        /* \"@openzeppelin/contracts/access/AccessControl.sol\":6866:6903  _roles[role].hasRole[account] = false */\n      dup1\n      sload\n      not(0xff)\n      and\n      swap1\n      sstore\n        /* \"@openzeppelin/contracts/access/AccessControl.sol\":6922:6962  RoleRevoked(role, account, _msgSender()) */\n      mload\n        /* \"@openzeppelin/contracts/utils/Context.sol\":735:745  msg.sender */\n      caller\n      swap3\n        /* \"@openzeppelin/contracts/access/AccessControl.sol\":6866:6878  _roles[role] */\n      dup7\n      swap2\n        /* \"@openzeppelin/contracts/access/AccessControl.sol\":6922:6962  RoleRevoked(role, account, _msgSender()) */\n      0xf6391f5c32d9c69d2a47ea670b442974b53935d1edc7fd64eb21e047a839171b\n      swap2\n        /* \"@openzeppelin/contracts/access/AccessControl.sol\":6898:6903  false */\n      swap1\n        /* \"@openzeppelin/contracts/access/AccessControl.sol\":6922:6962  RoleRevoked(role, account, _msgSender()) */\n      log4\n      pop\n        /* \"@openzeppelin/contracts/access/AccessControl.sol\":6983:6987  true */\n      0x01\n        /* \"@openzeppelin/contracts/access/AccessControl.sol\":6976:6987  return true */\n      jump(tag_158)\n        /* \"@openzeppelin/contracts/access/AccessControl.sol\":3432:3629  function _checkRole(bytes32 role, address account) internal view virtual {... */\n    tag_292:\n        /* \"@openzeppelin/contracts/access/AccessControl.sol\":3520:3542  hasRole(role, account) */\n      tag_305\n        /* \"@openzeppelin/contracts/access/AccessControl.sol\":3528:3532  role */\n      dup3\n        /* \"@openzeppelin/contracts/access/AccessControl.sol\":3534:3541  account */\n      dup3\n        /* \"@openzeppelin/contracts/access/AccessControl.sol\":3520:3527  hasRole */\n      tag_114\n        /* \"@openzeppelin/contracts/access/AccessControl.sol\":3520:3542  hasRole(role, account) */\n      jump\t// in\n    tag_305:\n        /* \"@openzeppelin/contracts/access/AccessControl.sol\":3515:3623  if (!hasRole(role, account)) {... */\n      tag_306\n      jumpi\n        /* \"@openzeppelin/contracts/access/AccessControl.sol\":3565:3612  AccessControlUnauthorizedAccount(account, role) */\n      mload(0x40)\n      shl(0xe0, 0xe2517d3f)\n      dup2\n      mstore\n      sub(shl(0xa0, 0x01), 0x01)\n        /* \"#utility.yul\":11300:11332   */\n      dup3\n      and\n        /* \"@openzeppelin/contracts/access/AccessControl.sol\":3565:3612  AccessControlUnauthorizedAccount(account, role) */\n      0x04\n      dup3\n      add\n        /* \"#utility.yul\":11282:11333   */\n      mstore\n        /* \"#utility.yul\":11349:11367   */\n      0x24\n      dup2\n      add\n        /* \"#utility.yul\":11342:11376   */\n      dup4\n      swap1\n      mstore\n        /* \"#utility.yul\":11255:11273   */\n      0x44\n      add\n        /* \"@openzeppelin/contracts/access/AccessControl.sol\":3565:3612  AccessControlUnauthorizedAccount(account, role) */\n      tag_204\n        /* \"#utility.yul\":11108:11382   */\n      jump\n        /* \"@openzeppelin/contracts/access/AccessControl.sol\":3515:3623  if (!hasRole(role, account)) {... */\n    tag_306:\n        /* \"@openzeppelin/contracts/access/AccessControl.sol\":3432:3629  function _checkRole(bytes32 role, address account) internal view virtual {... */\n      pop\n      pop\n      jump\t// out\n        /* \"#utility.yul\":14:300   */\n    tag_41:\n        /* \"#utility.yul\":72:78   */\n      0x00\n        /* \"#utility.yul\":125:127   */\n      0x20\n        /* \"#utility.yul\":113:122   */\n      dup3\n        /* \"#utility.yul\":104:111   */\n      dup5\n        /* \"#utility.yul\":100:123   */\n      sub\n        /* \"#utility.yul\":96:128   */\n      slt\n        /* \"#utility.yul\":93:145   */\n      iszero\n      tag_319\n      jumpi\n        /* \"#utility.yul\":141:142   */\n      0x00\n        /* \"#utility.yul\":138:139   */\n      dup1\n        /* \"#utility.yul\":131:143   */\n      revert\n        /* \"#utility.yul\":93:145   */\n    tag_319:\n        /* \"#utility.yul\":167:190   */\n      dup2\n      calldataload\n      not(sub(shl(0xe0, 0x01), 0x01))\n        /* \"#utility.yul\":219:251   */\n      dup2\n      and\n        /* \"#utility.yul\":209:252   */\n      dup2\n      eq\n        /* \"#utility.yul\":199:270   */\n      tag_211\n      jumpi\n        /* \"#utility.yul\":266:267   */\n      0x00\n        /* \"#utility.yul\":263:264   */\n      dup1\n        /* \"#utility.yul\":256:268   */\n      revert\n        /* \"#utility.yul\":497:670   */\n    tag_309:\n        /* \"#utility.yul\":565:585   */\n      dup1\n      calldataload\n      sub(shl(0xa0, 0x01), 0x01)\n        /* \"#utility.yul\":614:645   */\n      dup2\n      and\n        /* \"#utility.yul\":604:646   */\n      dup2\n      eq\n        /* \"#utility.yul\":594:664   */\n      tag_323\n      jumpi\n        /* \"#utility.yul\":660:661   */\n      0x00\n        /* \"#utility.yul\":657:658   */\n      dup1\n        /* \"#utility.yul\":650:662   */\n      revert\n        /* \"#utility.yul\":594:664   */\n    tag_323:\n        /* \"#utility.yul\":497:670   */\n      swap2\n      swap1\n      pop\n      jump\t// out\n        /* \"#utility.yul\":675:861   */\n    tag_47:\n        /* \"#utility.yul\":734:740   */\n      0x00\n        /* \"#utility.yul\":787:789   */\n      0x20\n        /* \"#utility.yul\":775:784   */\n      dup3\n        /* \"#utility.yul\":766:773   */\n      dup5\n        /* \"#utility.yul\":762:785   */\n      sub\n        /* \"#utility.yul\":758:790   */\n      slt\n        /* \"#utility.yul\":755:807   */\n      iszero\n      tag_325\n      jumpi\n        /* \"#utility.yul\":803:804   */\n      0x00\n        /* \"#utility.yul\":800:801   */\n      dup1\n        /* \"#utility.yul\":793:805   */\n      revert\n        /* \"#utility.yul\":755:807   */\n    tag_325:\n        /* \"#utility.yul\":826:855   */\n      tag_211\n        /* \"#utility.yul\":845:854   */\n      dup3\n        /* \"#utility.yul\":826:855   */\n      tag_309\n      jump\t// in\n        /* \"#utility.yul\":866:1155   */\n    tag_310:\n        /* \"#utility.yul\":908:911   */\n      0x00\n        /* \"#utility.yul\":946:951   */\n      dup2\n        /* \"#utility.yul\":940:952   */\n      mload\n        /* \"#utility.yul\":973:979   */\n      dup1\n        /* \"#utility.yul\":968:971   */\n      dup5\n        /* \"#utility.yul\":961:980   */\n      mstore\n        /* \"#utility.yul\":1029:1035   */\n      dup1\n        /* \"#utility.yul\":1022:1026   */\n      0x20\n        /* \"#utility.yul\":1015:1020   */\n      dup5\n        /* \"#utility.yul\":1011:1027   */\n      add\n        /* \"#utility.yul\":1004:1008   */\n      0x20\n        /* \"#utility.yul\":999:1002   */\n      dup7\n        /* \"#utility.yul\":995:1009   */\n      add\n        /* \"#utility.yul\":989:1036   */\n      mcopy\n        /* \"#utility.yul\":1081:1082   */\n      0x00\n        /* \"#utility.yul\":1074:1078   */\n      0x20\n        /* \"#utility.yul\":1065:1071   */\n      dup3\n        /* \"#utility.yul\":1060:1063   */\n      dup7\n        /* \"#utility.yul\":1056:1072   */\n      add\n        /* \"#utility.yul\":1052:1079   */\n      add\n        /* \"#utility.yul\":1045:1083   */\n      mstore\n        /* \"#utility.yul\":1144:1148   */\n      0x20\n        /* \"#utility.yul\":1137:1139   */\n      0x1f\n        /* \"#utility.yul\":1133:1140   */\n      not\n        /* \"#utility.yul\":1128:1130   */\n      0x1f\n        /* \"#utility.yul\":1120:1126   */\n      dup4\n        /* \"#utility.yul\":1116:1131   */\n      add\n        /* \"#utility.yul\":1112:1141   */\n      and\n        /* \"#utility.yul\":1107:1110   */\n      dup6\n        /* \"#utility.yul\":1103:1142   */\n      add\n        /* \"#utility.yul\":1099:1149   */\n      add\n        /* \"#utility.yul\":1092:1149   */\n      swap2\n      pop\n      pop\n        /* \"#utility.yul\":866:1155   */\n      swap3\n      swap2\n      pop\n      pop\n      jump\t// out\n        /* \"#utility.yul\":1160:1787   */\n    tag_50:\n        /* \"#utility.yul\":1349:1351   */\n      0x20\n        /* \"#utility.yul\":1338:1347   */\n      dup2\n        /* \"#utility.yul\":1331:1352   */\n      mstore\n        /* \"#utility.yul\":1312:1316   */\n      0x00\n        /* \"#utility.yul\":1387:1393   */\n      dup3\n        /* \"#utility.yul\":1381:1394   */\n      mload\n        /* \"#utility.yul\":1430:1434   */\n      0x60\n        /* \"#utility.yul\":1425:1427   */\n      0x20\n        /* \"#utility.yul\":1414:1423   */\n      dup5\n        /* \"#utility.yul\":1410:1428   */\n      add\n        /* \"#utility.yul\":1403:1435   */\n      mstore\n        /* \"#utility.yul\":1458:1510   */\n      tag_329\n        /* \"#utility.yul\":1505:1508   */\n      0x80\n        /* \"#utility.yul\":1494:1503   */\n      dup5\n        /* \"#utility.yul\":1490:1509   */\n      add\n        /* \"#utility.yul\":1476:1488   */\n      dup3\n        /* \"#utility.yul\":1458:1510   */\n      tag_310\n      jump\t// in\n    tag_329:\n        /* \"#utility.yul\":1568:1570   */\n      0x20\n        /* \"#utility.yul\":1556:1571   */\n      dup6\n      add\n        /* \"#utility.yul\":1550:1572   */\n      mload\n      sub(shl(0xa0, 0x01), 0x01)\n        /* \"#utility.yul\":1546:1594   */\n      and\n        /* \"#utility.yul\":1541:1543   */\n      0x40\n        /* \"#utility.yul\":1526:1544   */\n      dup6\n      dup2\n      add\n        /* \"#utility.yul\":1519:1595   */\n      swap2\n      swap1\n      swap2\n      mstore\n        /* \"#utility.yul\":1632:1647   */\n      dup6\n      add\n        /* \"#utility.yul\":1626:1648   */\n      mload\n        /* \"#utility.yul\":1690:1712   */\n      dup5\n      dup3\n      sub\n      not(0x1f)\n        /* \"#utility.yul\":1686:1722   */\n      add\n        /* \"#utility.yul\":1679:1683   */\n      0x60\n        /* \"#utility.yul\":1664:1684   */\n      dup7\n      add\n        /* \"#utility.yul\":1657:1723   */\n      mstore\n        /* \"#utility.yul\":1444:1510   */\n      swap1\n      swap2\n      pop\n        /* \"#utility.yul\":1740:1781   */\n      tag_330\n        /* \"#utility.yul\":1444:1510   */\n      dup3\n        /* \"#utility.yul\":1626:1648   */\n      dup3\n        /* \"#utility.yul\":1740:1781   */\n      tag_310\n      jump\t// in\n    tag_330:\n        /* \"#utility.yul\":1732:1781   */\n      swap6\n        /* \"#utility.yul\":1160:1787   */\n      swap5\n      pop\n      pop\n      pop\n      pop\n      pop\n      jump\t// out\n        /* \"#utility.yul\":1792:2272   */\n    tag_55:\n        /* \"#utility.yul\":2017:2019   */\n      0x60\n        /* \"#utility.yul\":2006:2015   */\n      dup2\n        /* \"#utility.yul\":1999:2020   */\n      mstore\n        /* \"#utility.yul\":1980:1984   */\n      0x00\n        /* \"#utility.yul\":2043:2088   */\n      tag_332\n        /* \"#utility.yul\":2084:2086   */\n      0x60\n        /* \"#utility.yul\":2073:2082   */\n      dup4\n        /* \"#utility.yul\":2069:2087   */\n      add\n        /* \"#utility.yul\":2061:2067   */\n      dup7\n        /* \"#utility.yul\":2043:2088   */\n      tag_310\n      jump\t// in\n    tag_332:\n      sub(shl(0xa0, 0x01), 0x01)\n        /* \"#utility.yul\":2124:2156   */\n      dup6\n      and\n        /* \"#utility.yul\":2119:2121   */\n      0x20\n        /* \"#utility.yul\":2104:2122   */\n      dup5\n      add\n        /* \"#utility.yul\":2097:2157   */\n      mstore\n        /* \"#utility.yul\":2193:2215   */\n      dup3\n      dup2\n      sub\n        /* \"#utility.yul\":2188:2190   */\n      0x40\n        /* \"#utility.yul\":2173:2191   */\n      dup5\n      add\n        /* \"#utility.yul\":2166:2216   */\n      mstore\n        /* \"#utility.yul\":2233:2266   */\n      tag_333\n        /* \"#utility.yul\":2197:2203   */\n      dup2\n        /* \"#utility.yul\":2251:2257   */\n      dup6\n        /* \"#utility.yul\":2233:2266   */\n      tag_310\n      jump\t// in\n    tag_333:\n        /* \"#utility.yul\":2225:2266   */\n      swap7\n        /* \"#utility.yul\":1792:2272   */\n      swap6\n      pop\n      pop\n      pop\n      pop\n      pop\n      pop\n      jump\t// out\n        /* \"#utility.yul\":2277:2935   */\n    tag_59:\n        /* \"#utility.yul\":2448:2450   */\n      0x20\n        /* \"#utility.yul\":2500:2521   */\n      dup1\n      dup3\n      mstore\n        /* \"#utility.yul\":2570:2583   */\n      dup3\n      mload\n        /* \"#utility.yul\":2473:2491   */\n      dup3\n      dup3\n      add\n        /* \"#utility.yul\":2592:2614   */\n      dup2\n      swap1\n      mstore\n        /* \"#utility.yul\":2419:2423   */\n      0x00\n      swap2\n        /* \"#utility.yul\":2448:2450   */\n      swap1\n        /* \"#utility.yul\":2671:2686   */\n      dup5\n      dup3\n      add\n      swap1\n        /* \"#utility.yul\":2645:2647   */\n      0x40\n        /* \"#utility.yul\":2630:2648   */\n      dup6\n      add\n      swap1\n        /* \"#utility.yul\":2419:2423   */\n      dup5\n        /* \"#utility.yul\":2714:2909   */\n    tag_335:\n        /* \"#utility.yul\":2728:2734   */\n      dup2\n        /* \"#utility.yul\":2725:2726   */\n      dup2\n        /* \"#utility.yul\":2722:2735   */\n      lt\n        /* \"#utility.yul\":2714:2909   */\n      iszero\n      tag_337\n      jumpi\n        /* \"#utility.yul\":2793:2806   */\n      dup4\n      mload\n      sub(shl(0xa0, 0x01), 0x01)\n        /* \"#utility.yul\":2789:2828   */\n      and\n        /* \"#utility.yul\":2777:2829   */\n      dup4\n      mstore\n        /* \"#utility.yul\":2884:2899   */\n      swap3\n      dup5\n      add\n      swap3\n        /* \"#utility.yul\":2849:2861   */\n      swap2\n      dup5\n      add\n      swap2\n        /* \"#utility.yul\":2825:2826   */\n      0x01\n        /* \"#utility.yul\":2743:2752   */\n      add\n        /* \"#utility.yul\":2714:2909   */\n      jump(tag_335)\n    tag_337:\n      pop\n        /* \"#utility.yul\":2926:2929   */\n      swap1\n      swap7\n        /* \"#utility.yul\":2277:2935   */\n      swap6\n      pop\n      pop\n      pop\n      pop\n      pop\n      pop\n      jump\t// out\n        /* \"#utility.yul\":2940:3120   */\n    tag_62:\n        /* \"#utility.yul\":2999:3005   */\n      0x00\n        /* \"#utility.yul\":3052:3054   */\n      0x20\n        /* \"#utility.yul\":3040:3049   */\n      dup3\n        /* \"#utility.yul\":3031:3038   */\n      dup5\n        /* \"#utility.yul\":3027:3050   */\n      sub\n        /* \"#utility.yul\":3023:3055   */\n      slt\n        /* \"#utility.yul\":3020:3072   */\n      iszero\n      tag_339\n      jumpi\n        /* \"#utility.yul\":3068:3069   */\n      0x00\n        /* \"#utility.yul\":3065:3066   */\n      dup1\n        /* \"#utility.yul\":3058:3070   */\n      revert\n        /* \"#utility.yul\":3020:3072   */\n    tag_339:\n      pop\n        /* \"#utility.yul\":3091:3114   */\n      calldataload\n      swap2\n        /* \"#utility.yul\":2940:3120   */\n      swap1\n      pop\n      jump\t// out\n        /* \"#utility.yul\":3307:3561   */\n    tag_71:\n        /* \"#utility.yul\":3375:3381   */\n      0x00\n        /* \"#utility.yul\":3383:3389   */\n      dup1\n        /* \"#utility.yul\":3436:3438   */\n      0x40\n        /* \"#utility.yul\":3424:3433   */\n      dup4\n        /* \"#utility.yul\":3415:3422   */\n      dup6\n        /* \"#utility.yul\":3411:3434   */\n      sub\n        /* \"#utility.yul\":3407:3439   */\n      slt\n        /* \"#utility.yul\":3404:3456   */\n      iszero\n      tag_342\n      jumpi\n        /* \"#utility.yul\":3452:3453   */\n      0x00\n        /* \"#utility.yul\":3449:3450   */\n      dup1\n        /* \"#utility.yul\":3442:3454   */\n      revert\n        /* \"#utility.yul\":3404:3456   */\n    tag_342:\n        /* \"#utility.yul\":3488:3497   */\n      dup3\n        /* \"#utility.yul\":3475:3498   */\n      calldataload\n        /* \"#utility.yul\":3465:3498   */\n      swap2\n      pop\n        /* \"#utility.yul\":3517:3555   */\n      tag_343\n        /* \"#utility.yul\":3551:3553   */\n      0x20\n        /* \"#utility.yul\":3540:3549   */\n      dup5\n        /* \"#utility.yul\":3536:3554   */\n      add\n        /* \"#utility.yul\":3517:3555   */\n      tag_309\n      jump\t// in\n    tag_343:\n        /* \"#utility.yul\":3507:3555   */\n      swap1\n      pop\n        /* \"#utility.yul\":3307:3561   */\n      swap3\n      pop\n      swap3\n      swap1\n      pop\n      jump\t// out\n        /* \"#utility.yul\":3959:4213   */\n    tag_87:\n        /* \"#utility.yul\":4027:4033   */\n      0x00\n        /* \"#utility.yul\":4035:4041   */\n      dup1\n        /* \"#utility.yul\":4088:4090   */\n      0x40\n        /* \"#utility.yul\":4076:4085   */\n      dup4\n        /* \"#utility.yul\":4067:4074   */\n      dup6\n        /* \"#utility.yul\":4063:4086   */\n      sub\n        /* \"#utility.yul\":4059:4091   */\n      slt\n        /* \"#utility.yul\":4056:4108   */\n      iszero\n      tag_348\n      jumpi\n        /* \"#utility.yul\":4104:4105   */\n      0x00\n        /* \"#utility.yul\":4101:4102   */\n      dup1\n        /* \"#utility.yul\":4094:4106   */\n      revert\n        /* \"#utility.yul\":4056:4108   */\n    tag_348:\n        /* \"#utility.yul\":4127:4156   */\n      tag_349\n        /* \"#utility.yul\":4146:4155   */\n      dup4\n        /* \"#utility.yul\":4127:4156   */\n      tag_309\n      jump\t// in\n    tag_349:\n        /* \"#utility.yul\":4117:4156   */\n      swap5\n        /* \"#utility.yul\":4203:4205   */\n      0x20\n        /* \"#utility.yul\":4188:4206   */\n      swap4\n      swap1\n      swap4\n      add\n        /* \"#utility.yul\":4175:4207   */\n      calldataload\n      swap4\n      pop\n      pop\n      pop\n        /* \"#utility.yul\":3959:4213   */\n      jump\t// out\n        /* \"#utility.yul\":4218:4923   */\n    tag_94:\n        /* \"#utility.yul\":4397:4399   */\n      0x20\n        /* \"#utility.yul\":4386:4395   */\n      dup2\n        /* \"#utility.yul\":4379:4400   */\n      mstore\n        /* \"#utility.yul\":4360:4364   */\n      0x00\n        /* \"#utility.yul\":4435:4441   */\n      dup3\n        /* \"#utility.yul\":4429:4442   */\n      mload\n        /* \"#utility.yul\":4478:4482   */\n      0x80\n        /* \"#utility.yul\":4473:4475   */\n      0x20\n        /* \"#utility.yul\":4462:4471   */\n      dup5\n        /* \"#utility.yul\":4458:4476   */\n      add\n        /* \"#utility.yul\":4451:4483   */\n      mstore\n        /* \"#utility.yul\":4506:4558   */\n      tag_351\n        /* \"#utility.yul\":4553:4556   */\n      0xa0\n        /* \"#utility.yul\":4542:4551   */\n      dup5\n        /* \"#utility.yul\":4538:4557   */\n      add\n        /* \"#utility.yul\":4524:4536   */\n      dup3\n        /* \"#utility.yul\":4506:4558   */\n      tag_310\n      jump\t// in\n    tag_351:\n        /* \"#utility.yul\":4616:4618   */\n      0x20\n        /* \"#utility.yul\":4604:4619   */\n      dup6\n      add\n        /* \"#utility.yul\":4598:4620   */\n      mload\n      sub(shl(0xa0, 0x01), 0x01)\n        /* \"#utility.yul\":4594:4642   */\n      and\n        /* \"#utility.yul\":4589:4591   */\n      0x40\n        /* \"#utility.yul\":4574:4592   */\n      dup6\n      dup2\n      add\n        /* \"#utility.yul\":4567:4643   */\n      swap2\n      swap1\n      swap2\n      mstore\n        /* \"#utility.yul\":4680:4695   */\n      dup6\n      add\n        /* \"#utility.yul\":4674:4696   */\n      mload\n        /* \"#utility.yul\":4736:4758   */\n      dup5\n      dup3\n      sub\n      not(0x1f)\n        /* \"#utility.yul\":4732:4768   */\n      add\n        /* \"#utility.yul\":4727:4729   */\n      0x60\n        /* \"#utility.yul\":4712:4730   */\n      dup7\n      add\n        /* \"#utility.yul\":4705:4769   */\n      mstore\n        /* \"#utility.yul\":4492:4558   */\n      swap1\n      swap2\n      pop\n        /* \"#utility.yul\":4792:4833   */\n      tag_352\n        /* \"#utility.yul\":4492:4558   */\n      dup3\n        /* \"#utility.yul\":4674:4696   */\n      dup3\n        /* \"#utility.yul\":4792:4833   */\n      tag_310\n      jump\t// in\n    tag_352:\n        /* \"#utility.yul\":4778:4833   */\n      swap2\n      pop\n      pop\n        /* \"#utility.yul\":4889:4891   */\n      0x60\n        /* \"#utility.yul\":4881:4887   */\n      dup5\n        /* \"#utility.yul\":4877:4892   */\n      add\n        /* \"#utility.yul\":4871:4893   */\n      mload\n        /* \"#utility.yul\":4864:4868   */\n      0x80\n        /* \"#utility.yul\":4853:4862   */\n      dup5\n        /* \"#utility.yul\":4849:4869   */\n      add\n        /* \"#utility.yul\":4842:4894   */\n      mstore\n        /* \"#utility.yul\":4911:4917   */\n      dup1\n        /* \"#utility.yul\":4903:4917   */\n      swap2\n      pop\n      pop\n        /* \"#utility.yul\":4218:4923   */\n      swap3\n      swap2\n      pop\n      pop\n      jump\t// out\n        /* \"#utility.yul\":4928:5055   */\n    tag_311:\n        /* \"#utility.yul\":4989:4999   */\n      0x4e487b71\n        /* \"#utility.yul\":4984:4987   */\n      0xe0\n        /* \"#utility.yul\":4980:5000   */\n      shl\n        /* \"#utility.yul\":4977:4978   */\n      0x00\n        /* \"#utility.yul\":4970:5001   */\n      mstore\n        /* \"#utility.yul\":5020:5024   */\n      0x41\n        /* \"#utility.yul\":5017:5018   */\n      0x04\n        /* \"#utility.yul\":5010:5025   */\n      mstore\n        /* \"#utility.yul\":5044:5048   */\n      0x24\n        /* \"#utility.yul\":5041:5042   */\n      0x00\n        /* \"#utility.yul\":5034:5049   */\n      revert\n        /* \"#utility.yul\":5060:5779   */\n    tag_312:\n        /* \"#utility.yul\":5103:5108   */\n      0x00\n        /* \"#utility.yul\":5156:5159   */\n      dup3\n        /* \"#utility.yul\":5149:5153   */\n      0x1f\n        /* \"#utility.yul\":5141:5147   */\n      dup4\n        /* \"#utility.yul\":5137:5154   */\n      add\n        /* \"#utility.yul\":5133:5160   */\n      slt\n        /* \"#utility.yul\":5123:5178   */\n      tag_355\n      jumpi\n        /* \"#utility.yul\":5174:5175   */\n      0x00\n        /* \"#utility.yul\":5171:5172   */\n      dup1\n        /* \"#utility.yul\":5164:5176   */\n      revert\n        /* \"#utility.yul\":5123:5178   */\n    tag_355:\n        /* \"#utility.yul\":5210:5216   */\n      dup2\n        /* \"#utility.yul\":5197:5217   */\n      calldataload\n        /* \"#utility.yul\":5236:5254   */\n      0xffffffffffffffff\n        /* \"#utility.yul\":5273:5275   */\n      dup1\n        /* \"#utility.yul\":5269:5271   */\n      dup3\n        /* \"#utility.yul\":5266:5276   */\n      gt\n        /* \"#utility.yul\":5263:5299   */\n      iszero\n      tag_357\n      jumpi\n        /* \"#utility.yul\":5279:5297   */\n      tag_357\n      tag_311\n      jump\t// in\n    tag_357:\n        /* \"#utility.yul\":5354:5356   */\n      0x40\n        /* \"#utility.yul\":5348:5357   */\n      mload\n        /* \"#utility.yul\":5322:5324   */\n      0x1f\n        /* \"#utility.yul\":5408:5421   */\n      dup4\n      add\n      not(0x1f)\n        /* \"#utility.yul\":5404:5426   */\n      swap1\n      dup2\n      and\n        /* \"#utility.yul\":5428:5430   */\n      0x3f\n        /* \"#utility.yul\":5400:5431   */\n      add\n        /* \"#utility.yul\":5396:5436   */\n      and\n        /* \"#utility.yul\":5384:5437   */\n      dup2\n      add\n      swap1\n        /* \"#utility.yul\":5452:5470   */\n      dup3\n      dup3\n      gt\n        /* \"#utility.yul\":5472:5494   */\n      dup2\n      dup4\n      lt\n        /* \"#utility.yul\":5449:5495   */\n      or\n        /* \"#utility.yul\":5446:5518   */\n      iszero\n      tag_359\n      jumpi\n        /* \"#utility.yul\":5498:5516   */\n      tag_359\n      tag_311\n      jump\t// in\n    tag_359:\n        /* \"#utility.yul\":5538:5548   */\n      dup2\n        /* \"#utility.yul\":5534:5536   */\n      0x40\n        /* \"#utility.yul\":5527:5549   */\n      mstore\n        /* \"#utility.yul\":5573:5575   */\n      dup4\n        /* \"#utility.yul\":5565:5571   */\n      dup2\n        /* \"#utility.yul\":5558:5576   */\n      mstore\n        /* \"#utility.yul\":5619:5622   */\n      dup7\n        /* \"#utility.yul\":5612:5616   */\n      0x20\n        /* \"#utility.yul\":5607:5609   */\n      dup6\n        /* \"#utility.yul\":5599:5605   */\n      dup9\n        /* \"#utility.yul\":5595:5610   */\n      add\n        /* \"#utility.yul\":5591:5617   */\n      add\n        /* \"#utility.yul\":5588:5623   */\n      gt\n        /* \"#utility.yul\":5585:5640   */\n      iszero\n      tag_360\n      jumpi\n        /* \"#utility.yul\":5636:5637   */\n      0x00\n        /* \"#utility.yul\":5633:5634   */\n      dup1\n        /* \"#utility.yul\":5626:5638   */\n      revert\n        /* \"#utility.yul\":5585:5640   */\n    tag_360:\n        /* \"#utility.yul\":5700:5702   */\n      dup4\n        /* \"#utility.yul\":5693:5697   */\n      0x20\n        /* \"#utility.yul\":5685:5691   */\n      dup8\n        /* \"#utility.yul\":5681:5698   */\n      add\n        /* \"#utility.yul\":5674:5678   */\n      0x20\n        /* \"#utility.yul\":5666:5672   */\n      dup4\n        /* \"#utility.yul\":5662:5679   */\n      add\n        /* \"#utility.yul\":5649:5703   */\n      calldatacopy\n        /* \"#utility.yul\":5747:5748   */\n      0x00\n        /* \"#utility.yul\":5740:5744   */\n      0x20\n        /* \"#utility.yul\":5735:5737   */\n      dup6\n        /* \"#utility.yul\":5727:5733   */\n      dup4\n        /* \"#utility.yul\":5723:5738   */\n      add\n        /* \"#utility.yul\":5719:5745   */\n      add\n        /* \"#utility.yul\":5712:5749   */\n      mstore\n        /* \"#utility.yul\":5767:5773   */\n      dup1\n        /* \"#utility.yul\":5758:5773   */\n      swap5\n      pop\n      pop\n      pop\n      pop\n      pop\n        /* \"#utility.yul\":5060:5779   */\n      swap3\n      swap2\n      pop\n      pop\n      jump\t// out\n        /* \"#utility.yul\":5784:6401   */\n    tag_100:\n        /* \"#utility.yul\":5881:5887   */\n      0x00\n        /* \"#utility.yul\":5889:5895   */\n      dup1\n        /* \"#utility.yul\":5897:5903   */\n      0x00\n        /* \"#utility.yul\":5950:5952   */\n      0x60\n        /* \"#utility.yul\":5938:5947   */\n      dup5\n        /* \"#utility.yul\":5929:5936   */\n      dup7\n        /* \"#utility.yul\":5925:5948   */\n      sub\n        /* \"#utility.yul\":5921:5953   */\n      slt\n        /* \"#utility.yul\":5918:5970   */\n      iszero\n      tag_362\n      jumpi\n        /* \"#utility.yul\":5966:5967   */\n      0x00\n        /* \"#utility.yul\":5963:5964   */\n      dup1\n        /* \"#utility.yul\":5956:5968   */\n      revert\n        /* \"#utility.yul\":5918:5970   */\n    tag_362:\n        /* \"#utility.yul\":5989:6018   */\n      tag_363\n        /* \"#utility.yul\":6008:6017   */\n      dup5\n        /* \"#utility.yul\":5989:6018   */\n      tag_309\n      jump\t// in\n    tag_363:\n        /* \"#utility.yul\":5979:6018   */\n      swap3\n      pop\n        /* \"#utility.yul\":6069:6071   */\n      0x20\n        /* \"#utility.yul\":6058:6067   */\n      dup5\n        /* \"#utility.yul\":6054:6072   */\n      add\n        /* \"#utility.yul\":6041:6073   */\n      calldataload\n        /* \"#utility.yul\":6092:6110   */\n      0xffffffffffffffff\n        /* \"#utility.yul\":6133:6135   */\n      dup1\n        /* \"#utility.yul\":6125:6131   */\n      dup3\n        /* \"#utility.yul\":6122:6136   */\n      gt\n        /* \"#utility.yul\":6119:6153   */\n      iszero\n      tag_364\n      jumpi\n        /* \"#utility.yul\":6149:6150   */\n      0x00\n        /* \"#utility.yul\":6146:6147   */\n      dup1\n        /* \"#utility.yul\":6139:6151   */\n      revert\n        /* \"#utility.yul\":6119:6153   */\n    tag_364:\n        /* \"#utility.yul\":6172:6222   */\n      tag_365\n        /* \"#utility.yul\":6214:6221   */\n      dup8\n        /* \"#utility.yul\":6205:6211   */\n      dup4\n        /* \"#utility.yul\":6194:6203   */\n      dup9\n        /* \"#utility.yul\":6190:6212   */\n      add\n        /* \"#utility.yul\":6172:6222   */\n      tag_312\n      jump\t// in\n    tag_365:\n        /* \"#utility.yul\":6162:6222   */\n      swap4\n      pop\n        /* \"#utility.yul\":6275:6277   */\n      0x40\n        /* \"#utility.yul\":6264:6273   */\n      dup7\n        /* \"#utility.yul\":6260:6278   */\n      add\n        /* \"#utility.yul\":6247:6279   */\n      calldataload\n        /* \"#utility.yul\":6231:6279   */\n      swap2\n      pop\n        /* \"#utility.yul\":6304:6306   */\n      dup1\n        /* \"#utility.yul\":6294:6302   */\n      dup3\n        /* \"#utility.yul\":6291:6307   */\n      gt\n        /* \"#utility.yul\":6288:6324   */\n      iszero\n      tag_366\n      jumpi\n        /* \"#utility.yul\":6320:6321   */\n      0x00\n        /* \"#utility.yul\":6317:6318   */\n      dup1\n        /* \"#utility.yul\":6310:6322   */\n      revert\n        /* \"#utility.yul\":6288:6324   */\n    tag_366:\n      pop\n        /* \"#utility.yul\":6343:6395   */\n      tag_367\n        /* \"#utility.yul\":6387:6394   */\n      dup7\n        /* \"#utility.yul\":6376:6384   */\n      dup3\n        /* \"#utility.yul\":6365:6374   */\n      dup8\n        /* \"#utility.yul\":6361:6385   */\n      add\n        /* \"#utility.yul\":6343:6395   */\n      tag_312\n      jump\t// in\n    tag_367:\n        /* \"#utility.yul\":6333:6395   */\n      swap2\n      pop\n      pop\n        /* \"#utility.yul\":5784:6401   */\n      swap3\n      pop\n      swap3\n      pop\n      swap3\n      jump\t// out\n        /* \"#utility.yul\":6406:6959   */\n    tag_135:\n        /* \"#utility.yul\":6659:6662   */\n      0x80\n        /* \"#utility.yul\":6648:6657   */\n      dup2\n        /* \"#utility.yul\":6641:6663   */\n      mstore\n        /* \"#utility.yul\":6622:6626   */\n      0x00\n        /* \"#utility.yul\":6686:6732   */\n      tag_369\n        /* \"#utility.yul\":6727:6730   */\n      0x80\n        /* \"#utility.yul\":6716:6725   */\n      dup4\n        /* \"#utility.yul\":6712:6731   */\n      add\n        /* \"#utility.yul\":6704:6710   */\n      dup8\n        /* \"#utility.yul\":6686:6732   */\n      tag_310\n      jump\t// in\n    tag_369:\n      sub(shl(0xa0, 0x01), 0x01)\n        /* \"#utility.yul\":6768:6800   */\n      dup7\n      and\n        /* \"#utility.yul\":6763:6765   */\n      0x20\n        /* \"#utility.yul\":6748:6766   */\n      dup5\n      add\n        /* \"#utility.yul\":6741:6801   */\n      mstore\n        /* \"#utility.yul\":6837:6859   */\n      dup3\n      dup2\n      sub\n        /* \"#utility.yul\":6832:6834   */\n      0x40\n        /* \"#utility.yul\":6817:6835   */\n      dup5\n      add\n        /* \"#utility.yul\":6810:6860   */\n      mstore\n        /* \"#utility.yul\":6877:6910   */\n      tag_370\n        /* \"#utility.yul\":6841:6847   */\n      dup2\n        /* \"#utility.yul\":6895:6901   */\n      dup7\n        /* \"#utility.yul\":6877:6910   */\n      tag_310\n      jump\t// in\n    tag_370:\n        /* \"#utility.yul\":6869:6910   */\n      swap2\n      pop\n      pop\n        /* \"#utility.yul\":6946:6952   */\n      dup3\n        /* \"#utility.yul\":6941:6943   */\n      0x60\n        /* \"#utility.yul\":6930:6939   */\n      dup4\n        /* \"#utility.yul\":6926:6944   */\n      add\n        /* \"#utility.yul\":6919:6953   */\n      mstore\n        /* \"#utility.yul\":6406:6959   */\n      swap6\n      swap5\n      pop\n      pop\n      pop\n      pop\n      pop\n      jump\t// out\n        /* \"#utility.yul\":7395:7775   */\n    tag_164:\n        /* \"#utility.yul\":7474:7475   */\n      0x01\n        /* \"#utility.yul\":7470:7482   */\n      dup2\n      dup2\n      shr\n      swap1\n        /* \"#utility.yul\":7517:7529   */\n      dup3\n      and\n      dup1\n        /* \"#utility.yul\":7538:7599   */\n      tag_374\n      jumpi\n        /* \"#utility.yul\":7592:7596   */\n      0x7f\n        /* \"#utility.yul\":7584:7590   */\n      dup3\n        /* \"#utility.yul\":7580:7597   */\n      and\n        /* \"#utility.yul\":7570:7597   */\n      swap2\n      pop\n        /* \"#utility.yul\":7538:7599   */\n    tag_374:\n        /* \"#utility.yul\":7645:7647   */\n      0x20\n        /* \"#utility.yul\":7637:7643   */\n      dup3\n        /* \"#utility.yul\":7634:7648   */\n      lt\n        /* \"#utility.yul\":7614:7632   */\n      dup2\n        /* \"#utility.yul\":7611:7649   */\n      sub\n        /* \"#utility.yul\":7608:7769   */\n      tag_375\n      jumpi\n        /* \"#utility.yul\":7691:7701   */\n      0x4e487b71\n        /* \"#utility.yul\":7686:7689   */\n      0xe0\n        /* \"#utility.yul\":7682:7702   */\n      shl\n        /* \"#utility.yul\":7679:7680   */\n      0x00\n        /* \"#utility.yul\":7672:7703   */\n      mstore\n        /* \"#utility.yul\":7726:7730   */\n      0x22\n        /* \"#utility.yul\":7723:7724   */\n      0x04\n        /* \"#utility.yul\":7716:7731   */\n      mstore\n        /* \"#utility.yul\":7754:7758   */\n      0x24\n        /* \"#utility.yul\":7751:7752   */\n      0x00\n        /* \"#utility.yul\":7744:7759   */\n      revert\n        /* \"#utility.yul\":7608:7769   */\n    tag_375:\n      pop\n        /* \"#utility.yul\":7395:7775   */\n      swap2\n      swap1\n      pop\n      jump\t// out\n        /* \"#utility.yul\":8140:8267   */\n    tag_313:\n        /* \"#utility.yul\":8201:8211   */\n      0x4e487b71\n        /* \"#utility.yul\":8196:8199   */\n      0xe0\n        /* \"#utility.yul\":8192:8212   */\n      shl\n        /* \"#utility.yul\":8189:8190   */\n      0x00\n        /* \"#utility.yul\":8182:8213   */\n      mstore\n        /* \"#utility.yul\":8232:8236   */\n      0x11\n        /* \"#utility.yul\":8229:8230   */\n      0x04\n        /* \"#utility.yul\":8222:8237   */\n      mstore\n        /* \"#utility.yul\":8256:8260   */\n      0x24\n        /* \"#utility.yul\":8253:8254   */\n      0x00\n        /* \"#utility.yul\":8246:8261   */\n      revert\n        /* \"#utility.yul\":8272:8397   */\n    tag_207:\n        /* \"#utility.yul\":8337:8346   */\n      dup1\n      dup3\n      add\n        /* \"#utility.yul\":8358:8368   */\n      dup1\n      dup3\n      gt\n        /* \"#utility.yul\":8355:8391   */\n      iszero\n      tag_158\n      jumpi\n        /* \"#utility.yul\":8371:8389   */\n      tag_158\n      tag_313\n      jump\t// in\n        /* \"#utility.yul\":8402:8800   */\n    tag_229:\n        /* \"#utility.yul\":8604:8606   */\n      0x20\n        /* \"#utility.yul\":8586:8607   */\n      dup1\n      dup3\n      mstore\n        /* \"#utility.yul\":8643:8645   */\n      0x22\n        /* \"#utility.yul\":8623:8641   */\n      swap1\n      dup3\n      add\n        /* \"#utility.yul\":8616:8646   */\n      mstore\n        /* \"#utility.yul\":8682:8716   */\n      0x6f6e6c79207573657220706f7765722063616e20626520696e6372656d656e74\n        /* \"#utility.yul\":8677:8679   */\n      0x40\n        /* \"#utility.yul\":8662:8680   */\n      dup3\n      add\n        /* \"#utility.yul\":8655:8717   */\n      mstore\n      shl(0xf2, 0x1959)\n        /* \"#utility.yul\":8748:8750   */\n      0x60\n        /* \"#utility.yul\":8733:8751   */\n      dup3\n      add\n        /* \"#utility.yul\":8726:8758   */\n      mstore\n        /* \"#utility.yul\":8790:8793   */\n      0x80\n        /* \"#utility.yul\":8775:8794   */\n      add\n      swap1\n        /* \"#utility.yul\":8402:8800   */\n      jump\t// out\n        /* \"#utility.yul\":8805:8933   */\n    tag_232:\n        /* \"#utility.yul\":8872:8881   */\n      dup2\n      dup2\n      sub\n        /* \"#utility.yul\":8893:8904   */\n      dup2\n      dup2\n      gt\n        /* \"#utility.yul\":8890:8927   */\n      iszero\n      tag_158\n      jumpi\n        /* \"#utility.yul\":8907:8925   */\n      tag_158\n      tag_313\n      jump\t// in\n        /* \"#utility.yul\":9064:9582   */\n    tag_315:\n        /* \"#utility.yul\":9166:9168   */\n      0x1f\n        /* \"#utility.yul\":9161:9164   */\n      dup3\n        /* \"#utility.yul\":9158:9169   */\n      gt\n        /* \"#utility.yul\":9155:9576   */\n      iszero\n      tag_199\n      jumpi\n        /* \"#utility.yul\":9202:9207   */\n      dup1\n        /* \"#utility.yul\":9199:9200   */\n      0x00\n        /* \"#utility.yul\":9192:9208   */\n      mstore\n        /* \"#utility.yul\":9246:9250   */\n      0x20\n        /* \"#utility.yul\":9243:9244   */\n      0x00\n        /* \"#utility.yul\":9233:9251   */\n      keccak256\n        /* \"#utility.yul\":9316:9318   */\n      0x1f\n        /* \"#utility.yul\":9304:9314   */\n      dup5\n        /* \"#utility.yul\":9300:9319   */\n      add\n        /* \"#utility.yul\":9297:9298   */\n      0x05\n        /* \"#utility.yul\":9293:9320   */\n      shr\n        /* \"#utility.yul\":9287:9291   */\n      dup2\n        /* \"#utility.yul\":9283:9321   */\n      add\n        /* \"#utility.yul\":9352:9356   */\n      0x20\n        /* \"#utility.yul\":9340:9350   */\n      dup6\n        /* \"#utility.yul\":9337:9357   */\n      lt\n        /* \"#utility.yul\":9334:9381   */\n      iszero\n      tag_388\n      jumpi\n      pop\n        /* \"#utility.yul\":9375:9379   */\n      dup1\n        /* \"#utility.yul\":9334:9381   */\n    tag_388:\n        /* \"#utility.yul\":9430:9432   */\n      0x1f\n        /* \"#utility.yul\":9425:9428   */\n      dup5\n        /* \"#utility.yul\":9421:9433   */\n      add\n        /* \"#utility.yul\":9418:9419   */\n      0x05\n        /* \"#utility.yul\":9414:9434   */\n      shr\n        /* \"#utility.yul\":9408:9412   */\n      dup3\n        /* \"#utility.yul\":9404:9435   */\n      add\n        /* \"#utility.yul\":9394:9435   */\n      swap2\n      pop\n        /* \"#utility.yul\":9485:9566   */\n    tag_389:\n        /* \"#utility.yul\":9503:9505   */\n      dup2\n        /* \"#utility.yul\":9496:9501   */\n      dup2\n        /* \"#utility.yul\":9493:9506   */\n      lt\n        /* \"#utility.yul\":9485:9566   */\n      iszero\n      tag_391\n      jumpi\n        /* \"#utility.yul\":9562:9563   */\n      0x00\n        /* \"#utility.yul\":9548:9564   */\n      dup2\n      sstore\n        /* \"#utility.yul\":9529:9530   */\n      0x01\n        /* \"#utility.yul\":9518:9531   */\n      add\n        /* \"#utility.yul\":9485:9566   */\n      jump(tag_389)\n    tag_391:\n        /* \"#utility.yul\":9489:9492   */\n      pop\n      pop\n        /* \"#utility.yul\":9064:9582   */\n      pop\n      pop\n      pop\n      jump\t// out\n        /* \"#utility.yul\":9758:11103   */\n    tag_244:\n        /* \"#utility.yul\":9884:9887   */\n      dup2\n        /* \"#utility.yul\":9878:9888   */\n      mload\n        /* \"#utility.yul\":9911:9929   */\n      0xffffffffffffffff\n        /* \"#utility.yul\":9903:9909   */\n      dup2\n        /* \"#utility.yul\":9900:9930   */\n      gt\n        /* \"#utility.yul\":9897:9953   */\n      iszero\n      tag_395\n      jumpi\n        /* \"#utility.yul\":9933:9951   */\n      tag_395\n      tag_311\n      jump\t// in\n    tag_395:\n        /* \"#utility.yul\":9962:10059   */\n      tag_396\n        /* \"#utility.yul\":10052:10058   */\n      dup2\n        /* \"#utility.yul\":10012:10050   */\n      tag_397\n        /* \"#utility.yul\":10044:10048   */\n      dup5\n        /* \"#utility.yul\":10038:10049   */\n      sload\n        /* \"#utility.yul\":10012:10050   */\n      tag_164\n      jump\t// in\n    tag_397:\n        /* \"#utility.yul\":10006:10010   */\n      dup5\n        /* \"#utility.yul\":9962:10059   */\n      tag_315\n      jump\t// in\n    tag_396:\n        /* \"#utility.yul\":10114:10118   */\n      0x20\n      dup1\n        /* \"#utility.yul\":10171:10173   */\n      0x1f\n        /* \"#utility.yul\":10160:10174   */\n      dup4\n      gt\n        /* \"#utility.yul\":10188:10189   */\n      0x01\n        /* \"#utility.yul\":10183:10846   */\n      dup2\n      eq\n      tag_399\n      jumpi\n        /* \"#utility.yul\":10890:10891   */\n      0x00\n        /* \"#utility.yul\":10907:10913   */\n      dup5\n        /* \"#utility.yul\":10904:10993   */\n      iszero\n      tag_400\n      jumpi\n      pop\n        /* \"#utility.yul\":10959:10978   */\n      dup6\n      dup4\n      add\n        /* \"#utility.yul\":10953:10979   */\n      mload\n        /* \"#utility.yul\":10904:10993   */\n    tag_400:\n      not(0x00)\n        /* \"#utility.yul\":9715:9716   */\n      0x03\n        /* \"#utility.yul\":9711:9722   */\n      dup7\n      swap1\n      shl\n        /* \"#utility.yul\":9707:9731   */\n      shr\n        /* \"#utility.yul\":9703:9732   */\n      not\n        /* \"#utility.yul\":9693:9733   */\n      and\n        /* \"#utility.yul\":9739:9740   */\n      0x01\n        /* \"#utility.yul\":9735:9746   */\n      dup6\n      swap1\n      shl\n        /* \"#utility.yul\":9690:9747   */\n      or\n        /* \"#utility.yul\":11006:11087   */\n      dup6\n      sstore\n        /* \"#utility.yul\":10153:11097   */\n      jump(tag_398)\n        /* \"#utility.yul\":10183:10846   */\n    tag_399:\n        /* \"#utility.yul\":9011:9012   */\n      0x00\n        /* \"#utility.yul\":9004:9018   */\n      dup6\n      dup2\n      mstore\n        /* \"#utility.yul\":9048:9052   */\n      0x20\n        /* \"#utility.yul\":9035:9053   */\n      dup2\n      keccak256\n      not(0x1f)\n        /* \"#utility.yul\":10219:10239   */\n      dup7\n      and\n      swap2\n        /* \"#utility.yul\":10337:10573   */\n    tag_403:\n        /* \"#utility.yul\":10351:10358   */\n      dup3\n        /* \"#utility.yul\":10348:10349   */\n      dup2\n        /* \"#utility.yul\":10345:10359   */\n      lt\n        /* \"#utility.yul\":10337:10573   */\n      iszero\n      tag_405\n      jumpi\n        /* \"#utility.yul\":10440:10459   */\n      dup9\n      dup7\n      add\n        /* \"#utility.yul\":10434:10460   */\n      mload\n        /* \"#utility.yul\":10419:10461   */\n      dup3\n      sstore\n        /* \"#utility.yul\":10532:10559   */\n      swap5\n      dup5\n      add\n      swap5\n        /* \"#utility.yul\":10500:10501   */\n      0x01\n        /* \"#utility.yul\":10488:10502   */\n      swap1\n      swap2\n      add\n      swap1\n        /* \"#utility.yul\":10367:10386   */\n      dup5\n      add\n        /* \"#utility.yul\":10337:10573   */\n      jump(tag_403)\n    tag_405:\n        /* \"#utility.yul\":10341:10344   */\n      pop\n        /* \"#utility.yul\":10601:10607   */\n      dup6\n        /* \"#utility.yul\":10592:10599   */\n      dup3\n        /* \"#utility.yul\":10589:10608   */\n      lt\n        /* \"#utility.yul\":10586:10787   */\n      iszero\n      tag_406\n      jumpi\n        /* \"#utility.yul\":10662:10681   */\n      dup8\n      dup6\n      add\n        /* \"#utility.yul\":10656:10682   */\n      mload\n      not(0x00)\n        /* \"#utility.yul\":10745:10746   */\n      0x03\n        /* \"#utility.yul\":10741:10755   */\n      dup9\n      swap1\n      shl\n        /* \"#utility.yul\":10757:10760   */\n      0xf8\n        /* \"#utility.yul\":10737:10761   */\n      and\n        /* \"#utility.yul\":10733:10770   */\n      shr\n        /* \"#utility.yul\":10729:10771   */\n      not\n        /* \"#utility.yul\":10714:10772   */\n      and\n        /* \"#utility.yul\":10699:10773   */\n      dup2\n      sstore\n        /* \"#utility.yul\":10586:10787   */\n    tag_406:\n      pop\n      pop\n        /* \"#utility.yul\":10833:10834   */\n      0x01\n        /* \"#utility.yul\":10824:10830   */\n      dup5\n        /* \"#utility.yul\":10821:10822   */\n      0x01\n        /* \"#utility.yul\":10817:10831   */\n      shl\n        /* \"#utility.yul\":10813:10835   */\n      add\n        /* \"#utility.yul\":10807:10811   */\n      dup6\n        /* \"#utility.yul\":10800:10836   */\n      sstore\n        /* \"#utility.yul\":10153:11097   */\n    tag_398:\n      pop\n      pop\n      pop\n      pop\n        /* \"#utility.yul\":9758:11103   */\n      pop\n      pop\n      jump\t// out\n    stop\n    data_6c7ef5f486c548e88c076f8c58cca08ca00dabbbf011f4154530d60efa6c08a0 2db9fd3d099848027c2383d0a083396f6c41510d7acfd92adc99b6cffcf31e96\n    data_a29c3f0504a76c686875ea2f0fc314af702d3407223f14a34325f35a1858bd3b df8b4c520ffe197c5343c6f5aec59570151ef9a492f2c624fd45ddde6135ec42\n\n    auxdata: 0xa26469706673582212209b88f32c0ed5bc547fbd9b5d2f45eefeb9434cb017baeb1178f4c448ed081ffd64736f6c63430008190033\n}\n",
				"bytecode": {
					"linkReferences": {},
					"object": "608060405234801561000f575f80fd5b50604051611a76380380611a7683398101604081905261002e91610228565b6100587f503cf060389b91af8851125bd70ce66d16d12330718b103fc7674ef6d27e70c933610150565b505f5b8151811015610149576100ad7fdf8b4c520ffe197c5343c6f5aec59570151ef9a492f2c624fd45ddde6135ec4283838151811061009a5761009a6102e7565b602002602001015161015060201b60201c565b505f60055f8484815181106100c4576100c46102e7565b60200260200101516001600160a01b03166001600160a01b031681526020019081526020015f205f01819055506006828281518110610105576101056102e7565b6020908102919091018101518254600180820185555f9485529290932090920180546001600160a01b0319166001600160a01b03909316929092179091550161005b565b50506102fb565b5f828152602081815260408083206001600160a01b038516845290915281205460ff166101f0575f838152602081815260408083206001600160a01b03861684529091529020805460ff191660011790556101a83390565b6001600160a01b0316826001600160a01b0316847f2f8788117e7eff1d82e926ec794901d17c78024a50270940304540a733656f0d60405160405180910390a45060016101f3565b505f5b92915050565b634e487b7160e01b5f52604160045260245ffd5b80516001600160a01b0381168114610223575f80fd5b919050565b5f6020808385031215610239575f80fd5b82516001600160401b038082111561024f575f80fd5b818501915085601f830112610262575f80fd5b815181811115610274576102746101f9565b8060051b604051601f19603f83011681018181108582111715610299576102996101f9565b6040529182528482019250838101850191888311156102b6575f80fd5b938501935b828510156102db576102cc8561020d565b845293850193928501926102bb565b98975050505050505050565b634e487b7160e01b5f52603260045260245ffd5b61176e806103085f395ff3fe608060405234801561000f575f80fd5b50600436106101c6575f3560e01c80637c98fa13116100fe578063cb26765f1161009e578063e4128fb31161006e578063e4128fb31461044a578063ee2f8db114610452578063f1a89faa14610471578063fc6f9468146104c1575f80fd5b8063cb26765f146103da578063d547741f14610401578063d61ff68c14610414578063e2f11b9c14610437575f80fd5b806391d14854116100d957806391d1485414610386578063a217fddf14610399578063c1b8411a146103a0578063c8bd3a3e146103c7575f80fd5b80637c98fa131461034c57806381e167cf1461035f578063880baf2714610373575f80fd5b806336568abe116101695780634a65ec81116101445780634a65ec81146102f35780635393edab146103065780635691e3dd146103265780637155eb3b14610339575f80fd5b806336568abe146102a25780633abd00a3146102b55780633fbb468a146102c8575f80fd5b80631daa7a38116101a45780631daa7a3814610234578063248a9ca3146102495780632a0acc6a146102795780632f2ff15d1461028d575f80fd5b806301ffc9a7146101ca57806308211bc5146101f257806317be904614610212575b5f80fd5b6101dd6101d83660046111b1565b6104c9565b60405190151581526020015b60405180910390f35b6102056102003660046111f3565b6104ff565b6040516101e9919061123a565b6102256102203660046111f3565b610679565b6040516101e993929190611291565b61023c6107b5565b6040516101e991906112ce565b61026b61025736600461131a565b5f9081526020819052604090206001015490565b6040519081526020016101e9565b61026b5f8051602061171983398151915281565b6102a061029b366004611331565b610815565b005b6102a06102b0366004611331565b61083f565b6102a06102c33660046111f3565b610877565b6102db6102d636600461131a565b61091d565b6040516001600160a01b0390911681526020016101e9565b6101dd61030136600461135b565b610945565b6103196103143660046111f3565b610957565b6040516101e99190611383565b6102a06103343660046111f3565b610af2565b6102a0610347366004611485565b610b8f565b6102db61035a36600461131a565b610d0a565b61026b5f805160206116f983398151915281565b6102a06103813660046111f3565b610d19565b6101dd610394366004611331565b610dbf565b61026b5f81565b61026b7f503cf060389b91af8851125bd70ce66d16d12330718b103fc7674ef6d27e70c981565b6102a06103d53660046111f3565b610de7565b61026b7fa62771101a79dd4b4d7b861524e85faa4569e99d6bb6b09233805dccb1ea480f81565b6102a061040f366004611331565b610e41565b6104276104223660046111f3565b610e65565b6040516101e994939291906114f4565b6102db61044536600461131a565b610fa7565b61023c610fb6565b61026b6104603660046111f3565b60056020525f908152604090205481565b6104b261047f3660046111f3565b60408051602080820183525f918290526001600160a01b0393909316815260058352819020815192830190915254815290565b604051905181526020016101e9565b61023c611014565b5f6001600160e01b03198216637965db0b60e01b14806104f957506301ffc9a760e01b6001600160e01b03198316145b92915050565b60408051606080820183528082525f6020830152918101919091526001600160a01b0382165f908152600360205260409081902081516060810190925280548290829061054b90611539565b80601f016020809104026020016040519081016040528092919081815260200182805461057790611539565b80156105c25780601f10610599576101008083540402835291602001916105c2565b820191905f5260205f20905b8154815290600101906020018083116105a557829003601f168201915b505050918352505060018201546001600160a01b031660208201526002820180546040909201916105f290611539565b80601f016020809104026020016040519081016040528092919081815260200182805461061e90611539565b80156106695780601f1061064057610100808354040283529160200191610669565b820191905f5260205f20905b81548152906001019060200180831161064c57829003601f168201915b5050505050815250509050919050565b60036020525f908152604090208054819061069390611539565b80601f01602080910402602001604051908101604052809291908181526020018280546106bf90611539565b801561070a5780601f106106e15761010080835404028352916020019161070a565b820191905f5260205f20905b8154815290600101906020018083116106ed57829003601f168201915b505050600184015460028501805494956001600160a01b0390921694919350915061073490611539565b80601f016020809104026020016040519081016040528092919081815260200182805461076090611539565b80156107ab5780601f10610782576101008083540402835291602001916107ab565b820191905f5260205f20905b81548152906001019060200180831161078e57829003601f168201915b5050505050905083565b6060600480548060200260200160405190810160405280929190818152602001828054801561080b57602002820191905f5260205f20905b81546001600160a01b031681526001909101906020018083116107ed575b5050505050905090565b5f8281526020819052604090206001015461082f81611072565b610839838361107c565b50505050565b6001600160a01b03811633146108685760405163334bd91960e11b815260040160405180910390fd5b610872828261110b565b505050565b61088e5f8051602061171983398151915282610dbf565b6108df5760405162461bcd60e51b815260206004820152601f60248201527f6f6e6c792061646d696e732063616e20646f20746869732070726f636573730060448201526064015b60405180910390fd5b6001600160a01b0381165f90815260056020526040902054610902906001611585565b6001600160a01b039091165f90815260056020526040902055565b6002818154811061092c575f80fd5b5f918252602090912001546001600160a01b0316905081565b5f6109508284610dbf565b9392505050565b6109896040518060800160405280606081526020015f6001600160a01b03168152602001606081526020015f81525090565b6001600160a01b0382165f90815260016020526040908190208151608081019092528054829082906109ba90611539565b80601f01602080910402602001604051908101604052809291908181526020018280546109e690611539565b8015610a315780601f10610a0857610100808354040283529160200191610a31565b820191905f5260205f20905b815481529060010190602001808311610a1457829003601f168201915b505050918352505060018201546001600160a01b03166020820152600282018054604090920191610a6190611539565b80601f0160208091040260200160405190810160405280929190818152602001828054610a8d90611539565b8015610ad85780601f10610aaf57610100808354040283529160200191610ad8565b820191905f5260205f20905b815481529060010190602001808311610abb57829003601f168201915b505050505081526020016003820154815250509050919050565b610b095f805160206116f983398151915282610dbf565b610b255760405162461bcd60e51b81526004016108d690611598565b6001600160a01b0381165f9081526001602081905260409091206003015410610b8c576001600160a01b0381165f90815260016020819052604090912060030154610b7091906115da565b6001600160a01b0382165f908152600160205260409020600301555b50565b610ba65f8051602061171983398151915284610dbf565b158015610bc75750610bc55f805160206116f983398151915284610dbf565b155b8015610bfa5750610bf87fa62771101a79dd4b4d7b861524e85faa4569e99d6bb6b09233805dccb1ea480f84610dbf565b155b8015610c2d5750610c2b7fa62771101a79dd4b4d7b861524e85faa4569e99d6bb6b09233805dccb1ea480f84610dbf565b155b1561087257610c495f805160206116f98339815191528461107c565b506001600160a01b0383165f81815260016020819052604090912090810180546001600160a01b031916909217909155610c838382611638565b506001600160a01b0383165f908152600160205260409020600201610ca88282611638565b5050506001600160a01b03165f81815260016020819052604082206003018290556002805491820181559091527f405787fa12a823e0f2b7631cc41b3ba8828b3321ca811111fa75cd3aa3bb5ace0180546001600160a01b0319169091179055565b6006818154811061092c575f80fd5b610d305f8051602061171983398151915282610dbf565b610d7c5760405162461bcd60e51b815260206004820152601f60248201527f6f6e6c792061646d696e732063616e20646f20746869732070726f636573730060448201526064016108d6565b6001600160a01b0381165f90815260056020526040902054600111610b8c576001600160a01b0381165f90815260056020526040902054610902906001906115da565b5f918252602082815260408084206001600160a01b0393909316845291905290205460ff1690565b610dfe5f805160206116f983398151915282610dbf565b610e1a5760405162461bcd60e51b81526004016108d690611598565b6001600160a01b0381165f90815260016020819052604090912060030154610b7091611585565b5f82815260208190526040902060010154610e5b81611072565b610839838361110b565b60016020525f9081526040902080548190610e7f90611539565b80601f0160208091040260200160405190810160405280929190818152602001828054610eab90611539565b8015610ef65780601f10610ecd57610100808354040283529160200191610ef6565b820191905f5260205f20905b815481529060010190602001808311610ed957829003601f168201915b505050600184015460028501805494956001600160a01b03909216949193509150610f2090611539565b80601f0160208091040260200160405190810160405280929190818152602001828054610f4c90611539565b8015610f975780601f10610f6e57610100808354040283529160200191610f97565b820191905f5260205f20905b815481529060010190602001808311610f7a57829003601f168201915b5050505050908060030154905084565b6004818154811061092c575f80fd5b6060600280548060200260200160405190810160405280929190818152602001828054801561080b57602002820191905f5260205f209081546001600160a01b031681526001909101906020018083116107ed575050505050905090565b6060600680548060200260200160405190810160405280929190818152602001828054801561080b57602002820191905f5260205f209081546001600160a01b031681526001909101906020018083116107ed575050505050905090565b610b8c8133611174565b5f6110878383610dbf565b611104575f838152602081815260408083206001600160a01b03861684529091529020805460ff191660011790556110bc3390565b6001600160a01b0316826001600160a01b0316847f2f8788117e7eff1d82e926ec794901d17c78024a50270940304540a733656f0d60405160405180910390a45060016104f9565b505f6104f9565b5f6111168383610dbf565b15611104575f838152602081815260408083206001600160a01b0386168085529252808320805460ff1916905551339286917ff6391f5c32d9c69d2a47ea670b442974b53935d1edc7fd64eb21e047a839171b9190a45060016104f9565b61117e8282610dbf565b6111ad5760405163e2517d3f60e01b81526001600160a01b0382166004820152602481018390526044016108d6565b5050565b5f602082840312156111c1575f80fd5b81356001600160e01b031981168114610950575f80fd5b80356001600160a01b03811681146111ee575f80fd5b919050565b5f60208284031215611203575f80fd5b610950826111d8565b5f81518084528060208401602086015e5f602082860101526020601f19601f83011685010191505092915050565b602081525f825160606020840152611255608084018261120c565b60208501516001600160a01b0316604085810191909152850151848203601f19016060860152909150611288828261120c565b95945050505050565b606081525f6112a3606083018661120c565b6001600160a01b038516602084015282810360408401526112c4818561120c565b9695505050505050565b602080825282518282018190525f9190848201906040850190845b8181101561130e5783516001600160a01b0316835292840192918401916001016112e9565b50909695505050505050565b5f6020828403121561132a575f80fd5b5035919050565b5f8060408385031215611342575f80fd5b82359150611352602084016111d8565b90509250929050565b5f806040838503121561136c575f80fd5b611375836111d8565b946020939093013593505050565b602081525f82516080602084015261139e60a084018261120c565b60208501516001600160a01b0316604085810191909152850151848203601f190160608601529091506113d1828261120c565b915050606084015160808401528091505092915050565b634e487b7160e01b5f52604160045260245ffd5b5f82601f83011261140b575f80fd5b813567ffffffffffffffff80821115611426576114266113e8565b604051601f8301601f19908116603f0116810190828211818310171561144e5761144e6113e8565b81604052838152866020858801011115611466575f80fd5b836020870160208301375f602085830101528094505050505092915050565b5f805f60608486031215611497575f80fd5b6114a0846111d8565b9250602084013567ffffffffffffffff808211156114bc575f80fd5b6114c8878388016113fc565b935060408601359150808211156114dd575f80fd5b506114ea868287016113fc565b9150509250925092565b608081525f611506608083018761120c565b6001600160a01b03861660208401528281036040840152611527818661120c565b91505082606083015295945050505050565b600181811c9082168061154d57607f821691505b60208210810361156b57634e487b7160e01b5f52602260045260245ffd5b50919050565b634e487b7160e01b5f52601160045260245ffd5b808201808211156104f9576104f9611571565b60208082526022908201527f6f6e6c79207573657220706f7765722063616e20626520696e6372656d656e74604082015261195960f21b606082015260800190565b818103818111156104f9576104f9611571565b601f82111561087257805f5260205f20601f840160051c810160208510156116125750805b601f840160051c820191505b81811015611631575f815560010161161e565b5050505050565b815167ffffffffffffffff811115611652576116526113e8565b611666816116608454611539565b846115ed565b602080601f831160018114611699575f84156116825750858301515b5f19600386901b1c1916600185901b1785556116f0565b5f85815260208120601f198616915b828110156116c7578886015182559484019460019091019084016116a8565b50858210156116e457878501515f19600388901b60f8161c191681555b505060018460011b0185555b50505050505056fe2db9fd3d099848027c2383d0a083396f6c41510d7acfd92adc99b6cffcf31e96df8b4c520ffe197c5343c6f5aec59570151ef9a492f2c624fd45ddde6135ec42a26469706673582212209b88f32c0ed5bc547fbd9b5d2f45eefeb9434cb017baeb1178f4c448ed081ffd64736f6c63430008190033",
					"opcodes": "PUSH1 0x80 PUSH1 0x40 MSTORE CALLVALUE DUP1 ISZERO PUSH2 0xF JUMPI PUSH0 DUP1 REVERT JUMPDEST POP PUSH1 0x40 MLOAD PUSH2 0x1A76 CODESIZE SUB DUP1 PUSH2 0x1A76 DUP4 CODECOPY DUP2 ADD PUSH1 0x40 DUP2 SWAP1 MSTORE PUSH2 0x2E SWAP2 PUSH2 0x228 JUMP JUMPDEST PUSH2 0x58 PUSH32 0x503CF060389B91AF8851125BD70CE66D16D12330718B103FC7674EF6D27E70C9 CALLER PUSH2 0x150 JUMP JUMPDEST POP PUSH0 JUMPDEST DUP2 MLOAD DUP2 LT ISZERO PUSH2 0x149 JUMPI PUSH2 0xAD PUSH32 0xDF8B4C520FFE197C5343C6F5AEC59570151EF9A492F2C624FD45DDDE6135EC42 DUP4 DUP4 DUP2 MLOAD DUP2 LT PUSH2 0x9A JUMPI PUSH2 0x9A PUSH2 0x2E7 JUMP JUMPDEST PUSH1 0x20 MUL PUSH1 0x20 ADD ADD MLOAD PUSH2 0x150 PUSH1 0x20 SHL PUSH1 0x20 SHR JUMP JUMPDEST POP PUSH0 PUSH1 0x5 PUSH0 DUP5 DUP5 DUP2 MLOAD DUP2 LT PUSH2 0xC4 JUMPI PUSH2 0xC4 PUSH2 0x2E7 JUMP JUMPDEST PUSH1 0x20 MUL PUSH1 0x20 ADD ADD MLOAD PUSH1 0x1 PUSH1 0x1 PUSH1 0xA0 SHL SUB AND PUSH1 0x1 PUSH1 0x1 PUSH1 0xA0 SHL SUB AND DUP2 MSTORE PUSH1 0x20 ADD SWAP1 DUP2 MSTORE PUSH1 0x20 ADD PUSH0 KECCAK256 PUSH0 ADD DUP2 SWAP1 SSTORE POP PUSH1 0x6 DUP3 DUP3 DUP2 MLOAD DUP2 LT PUSH2 0x105 JUMPI PUSH2 0x105 PUSH2 0x2E7 JUMP JUMPDEST PUSH1 0x20 SWAP1 DUP2 MUL SWAP2 SWAP1 SWAP2 ADD DUP2 ADD MLOAD DUP3 SLOAD PUSH1 0x1 DUP1 DUP3 ADD DUP6 SSTORE PUSH0 SWAP5 DUP6 MSTORE SWAP3 SWAP1 SWAP4 KECCAK256 SWAP1 SWAP3 ADD DUP1 SLOAD PUSH1 0x1 PUSH1 0x1 PUSH1 0xA0 SHL SUB NOT AND PUSH1 0x1 PUSH1 0x1 PUSH1 0xA0 SHL SUB SWAP1 SWAP4 AND SWAP3 SWAP1 SWAP3 OR SWAP1 SWAP2 SSTORE ADD PUSH2 0x5B JUMP JUMPDEST POP POP PUSH2 0x2FB JUMP JUMPDEST PUSH0 DUP3 DUP2 MSTORE PUSH1 0x20 DUP2 DUP2 MSTORE PUSH1 0x40 DUP1 DUP4 KECCAK256 PUSH1 0x1 PUSH1 0x1 PUSH1 0xA0 SHL SUB DUP6 AND DUP5 MSTORE SWAP1 SWAP2 MSTORE DUP2 KECCAK256 SLOAD PUSH1 0xFF AND PUSH2 0x1F0 JUMPI PUSH0 DUP4 DUP2 MSTORE PUSH1 0x20 DUP2 DUP2 MSTORE PUSH1 0x40 DUP1 DUP4 KECCAK256 PUSH1 0x1 PUSH1 0x1 PUSH1 0xA0 SHL SUB DUP7 AND DUP5 MSTORE SWAP1 SWAP2 MSTORE SWAP1 KECCAK256 DUP1 SLOAD PUSH1 0xFF NOT AND PUSH1 0x1 OR SWAP1 SSTORE PUSH2 0x1A8 CALLER SWAP1 JUMP JUMPDEST PUSH1 0x1 PUSH1 0x1 PUSH1 0xA0 SHL SUB AND DUP3 PUSH1 0x1 PUSH1 0x1 PUSH1 0xA0 SHL SUB AND DUP5 PUSH32 0x2F8788117E7EFF1D82E926EC794901D17C78024A50270940304540A733656F0D PUSH1 0x40 MLOAD PUSH1 0x40 MLOAD DUP1 SWAP2 SUB SWAP1 LOG4 POP PUSH1 0x1 PUSH2 0x1F3 JUMP JUMPDEST POP PUSH0 JUMPDEST SWAP3 SWAP2 POP POP JUMP JUMPDEST PUSH4 0x4E487B71 PUSH1 0xE0 SHL PUSH0 MSTORE PUSH1 0x41 PUSH1 0x4 MSTORE PUSH1 0x24 PUSH0 REVERT JUMPDEST DUP1 MLOAD PUSH1 0x1 PUSH1 0x1 PUSH1 0xA0 SHL SUB DUP2 AND DUP2 EQ PUSH2 0x223 JUMPI PUSH0 DUP1 REVERT JUMPDEST SWAP2 SWAP1 POP JUMP JUMPDEST PUSH0 PUSH1 0x20 DUP1 DUP4 DUP6 SUB SLT ISZERO PUSH2 0x239 JUMPI PUSH0 DUP1 REVERT JUMPDEST DUP3 MLOAD PUSH1 0x1 PUSH1 0x1 PUSH1 0x40 SHL SUB DUP1 DUP3 GT ISZERO PUSH2 0x24F JUMPI PUSH0 DUP1 REVERT JUMPDEST DUP2 DUP6 ADD SWAP2 POP DUP6 PUSH1 0x1F DUP4 ADD SLT PUSH2 0x262 JUMPI PUSH0 DUP1 REVERT JUMPDEST DUP2 MLOAD DUP2 DUP2 GT ISZERO PUSH2 0x274 JUMPI PUSH2 0x274 PUSH2 0x1F9 JUMP JUMPDEST DUP1 PUSH1 0x5 SHL PUSH1 0x40 MLOAD PUSH1 0x1F NOT PUSH1 0x3F DUP4 ADD AND DUP2 ADD DUP2 DUP2 LT DUP6 DUP3 GT OR ISZERO PUSH2 0x299 JUMPI PUSH2 0x299 PUSH2 0x1F9 JUMP JUMPDEST PUSH1 0x40 MSTORE SWAP2 DUP3 MSTORE DUP5 DUP3 ADD SWAP3 POP DUP4 DUP2 ADD DUP6 ADD SWAP2 DUP9 DUP4 GT ISZERO PUSH2 0x2B6 JUMPI PUSH0 DUP1 REVERT JUMPDEST SWAP4 DUP6 ADD SWAP4 JUMPDEST DUP3 DUP6 LT ISZERO PUSH2 0x2DB JUMPI PUSH2 0x2CC DUP6 PUSH2 0x20D JUMP JUMPDEST DUP5 MSTORE SWAP4 DUP6 ADD SWAP4 SWAP3 DUP6 ADD SWAP3 PUSH2 0x2BB JUMP JUMPDEST SWAP9 SWAP8 POP POP POP POP POP POP POP POP JUMP JUMPDEST PUSH4 0x4E487B71 PUSH1 0xE0 SHL PUSH0 MSTORE PUSH1 0x32 PUSH1 0x4 MSTORE PUSH1 0x24 PUSH0 REVERT JUMPDEST PUSH2 0x176E DUP1 PUSH2 0x308 PUSH0 CODECOPY PUSH0 RETURN INVALID PUSH1 0x80 PUSH1 0x40 MSTORE CALLVALUE DUP1 ISZERO PUSH2 0xF JUMPI PUSH0 DUP1 REVERT JUMPDEST POP PUSH1 0x4 CALLDATASIZE LT PUSH2 0x1C6 JUMPI PUSH0 CALLDATALOAD PUSH1 0xE0 SHR DUP1 PUSH4 0x7C98FA13 GT PUSH2 0xFE JUMPI DUP1 PUSH4 0xCB26765F GT PUSH2 0x9E JUMPI DUP1 PUSH4 0xE4128FB3 GT PUSH2 0x6E JUMPI DUP1 PUSH4 0xE4128FB3 EQ PUSH2 0x44A JUMPI DUP1 PUSH4 0xEE2F8DB1 EQ PUSH2 0x452 JUMPI DUP1 PUSH4 0xF1A89FAA EQ PUSH2 0x471 JUMPI DUP1 PUSH4 0xFC6F9468 EQ PUSH2 0x4C1 JUMPI PUSH0 DUP1 REVERT JUMPDEST DUP1 PUSH4 0xCB26765F EQ PUSH2 0x3DA JUMPI DUP1 PUSH4 0xD547741F EQ PUSH2 0x401 JUMPI DUP1 PUSH4 0xD61FF68C EQ PUSH2 0x414 JUMPI DUP1 PUSH4 0xE2F11B9C EQ PUSH2 0x437 JUMPI PUSH0 DUP1 REVERT JUMPDEST DUP1 PUSH4 0x91D14854 GT PUSH2 0xD9 JUMPI DUP1 PUSH4 0x91D14854 EQ PUSH2 0x386 JUMPI DUP1 PUSH4 0xA217FDDF EQ PUSH2 0x399 JUMPI DUP1 PUSH4 0xC1B8411A EQ PUSH2 0x3A0 JUMPI DUP1 PUSH4 0xC8BD3A3E EQ PUSH2 0x3C7 JUMPI PUSH0 DUP1 REVERT JUMPDEST DUP1 PUSH4 0x7C98FA13 EQ PUSH2 0x34C JUMPI DUP1 PUSH4 0x81E167CF EQ PUSH2 0x35F JUMPI DUP1 PUSH4 0x880BAF27 EQ PUSH2 0x373 JUMPI PUSH0 DUP1 REVERT JUMPDEST DUP1 PUSH4 0x36568ABE GT PUSH2 0x169 JUMPI DUP1 PUSH4 0x4A65EC81 GT PUSH2 0x144 JUMPI DUP1 PUSH4 0x4A65EC81 EQ PUSH2 0x2F3 JUMPI DUP1 PUSH4 0x5393EDAB EQ PUSH2 0x306 JUMPI DUP1 PUSH4 0x5691E3DD EQ PUSH2 0x326 JUMPI DUP1 PUSH4 0x7155EB3B EQ PUSH2 0x339 JUMPI PUSH0 DUP1 REVERT JUMPDEST DUP1 PUSH4 0x36568ABE EQ PUSH2 0x2A2 JUMPI DUP1 PUSH4 0x3ABD00A3 EQ PUSH2 0x2B5 JUMPI DUP1 PUSH4 0x3FBB468A EQ PUSH2 0x2C8 JUMPI PUSH0 DUP1 REVERT JUMPDEST DUP1 PUSH4 0x1DAA7A38 GT PUSH2 0x1A4 JUMPI DUP1 PUSH4 0x1DAA7A38 EQ PUSH2 0x234 JUMPI DUP1 PUSH4 0x248A9CA3 EQ PUSH2 0x249 JUMPI DUP1 PUSH4 0x2A0ACC6A EQ PUSH2 0x279 JUMPI DUP1 PUSH4 0x2F2FF15D EQ PUSH2 0x28D JUMPI PUSH0 DUP1 REVERT JUMPDEST DUP1 PUSH4 0x1FFC9A7 EQ PUSH2 0x1CA JUMPI DUP1 PUSH4 0x8211BC5 EQ PUSH2 0x1F2 JUMPI DUP1 PUSH4 0x17BE9046 EQ PUSH2 0x212 JUMPI JUMPDEST PUSH0 DUP1 REVERT JUMPDEST PUSH2 0x1DD PUSH2 0x1D8 CALLDATASIZE PUSH1 0x4 PUSH2 0x11B1 JUMP JUMPDEST PUSH2 0x4C9 JUMP JUMPDEST PUSH1 0x40 MLOAD SWAP1 ISZERO ISZERO DUP2 MSTORE PUSH1 0x20 ADD JUMPDEST PUSH1 0x40 MLOAD DUP1 SWAP2 SUB SWAP1 RETURN JUMPDEST PUSH2 0x205 PUSH2 0x200 CALLDATASIZE PUSH1 0x4 PUSH2 0x11F3 JUMP JUMPDEST PUSH2 0x4FF JUMP JUMPDEST PUSH1 0x40 MLOAD PUSH2 0x1E9 SWAP2 SWAP1 PUSH2 0x123A JUMP JUMPDEST PUSH2 0x225 PUSH2 0x220 CALLDATASIZE PUSH1 0x4 PUSH2 0x11F3 JUMP JUMPDEST PUSH2 0x679 JUMP JUMPDEST PUSH1 0x40 MLOAD PUSH2 0x1E9 SWAP4 SWAP3 SWAP2 SWAP1 PUSH2 0x1291 JUMP JUMPDEST PUSH2 0x23C PUSH2 0x7B5 JUMP JUMPDEST PUSH1 0x40 MLOAD PUSH2 0x1E9 SWAP2 SWAP1 PUSH2 0x12CE JUMP JUMPDEST PUSH2 0x26B PUSH2 0x257 CALLDATASIZE PUSH1 0x4 PUSH2 0x131A JUMP JUMPDEST PUSH0 SWAP1 DUP2 MSTORE PUSH1 0x20 DUP2 SWAP1 MSTORE PUSH1 0x40 SWAP1 KECCAK256 PUSH1 0x1 ADD SLOAD SWAP1 JUMP JUMPDEST PUSH1 0x40 MLOAD SWAP1 DUP2 MSTORE PUSH1 0x20 ADD PUSH2 0x1E9 JUMP JUMPDEST PUSH2 0x26B PUSH0 DUP1 MLOAD PUSH1 0x20 PUSH2 0x1719 DUP4 CODECOPY DUP2 MLOAD SWAP2 MSTORE DUP2 JUMP JUMPDEST PUSH2 0x2A0 PUSH2 0x29B CALLDATASIZE PUSH1 0x4 PUSH2 0x1331 JUMP JUMPDEST PUSH2 0x815 JUMP JUMPDEST STOP JUMPDEST PUSH2 0x2A0 PUSH2 0x2B0 CALLDATASIZE PUSH1 0x4 PUSH2 0x1331 JUMP JUMPDEST PUSH2 0x83F JUMP JUMPDEST PUSH2 0x2A0 PUSH2 0x2C3 CALLDATASIZE PUSH1 0x4 PUSH2 0x11F3 JUMP JUMPDEST PUSH2 0x877 JUMP JUMPDEST PUSH2 0x2DB PUSH2 0x2D6 CALLDATASIZE PUSH1 0x4 PUSH2 0x131A JUMP JUMPDEST PUSH2 0x91D JUMP JUMPDEST PUSH1 0x40 MLOAD PUSH1 0x1 PUSH1 0x1 PUSH1 0xA0 SHL SUB SWAP1 SWAP2 AND DUP2 MSTORE PUSH1 0x20 ADD PUSH2 0x1E9 JUMP JUMPDEST PUSH2 0x1DD PUSH2 0x301 CALLDATASIZE PUSH1 0x4 PUSH2 0x135B JUMP JUMPDEST PUSH2 0x945 JUMP JUMPDEST PUSH2 0x319 PUSH2 0x314 CALLDATASIZE PUSH1 0x4 PUSH2 0x11F3 JUMP JUMPDEST PUSH2 0x957 JUMP JUMPDEST PUSH1 0x40 MLOAD PUSH2 0x1E9 SWAP2 SWAP1 PUSH2 0x1383 JUMP JUMPDEST PUSH2 0x2A0 PUSH2 0x334 CALLDATASIZE PUSH1 0x4 PUSH2 0x11F3 JUMP JUMPDEST PUSH2 0xAF2 JUMP JUMPDEST PUSH2 0x2A0 PUSH2 0x347 CALLDATASIZE PUSH1 0x4 PUSH2 0x1485 JUMP JUMPDEST PUSH2 0xB8F JUMP JUMPDEST PUSH2 0x2DB PUSH2 0x35A CALLDATASIZE PUSH1 0x4 PUSH2 0x131A JUMP JUMPDEST PUSH2 0xD0A JUMP JUMPDEST PUSH2 0x26B PUSH0 DUP1 MLOAD PUSH1 0x20 PUSH2 0x16F9 DUP4 CODECOPY DUP2 MLOAD SWAP2 MSTORE DUP2 JUMP JUMPDEST PUSH2 0x2A0 PUSH2 0x381 CALLDATASIZE PUSH1 0x4 PUSH2 0x11F3 JUMP JUMPDEST PUSH2 0xD19 JUMP JUMPDEST PUSH2 0x1DD PUSH2 0x394 CALLDATASIZE PUSH1 0x4 PUSH2 0x1331 JUMP JUMPDEST PUSH2 0xDBF JUMP JUMPDEST PUSH2 0x26B PUSH0 DUP2 JUMP JUMPDEST PUSH2 0x26B PUSH32 0x503CF060389B91AF8851125BD70CE66D16D12330718B103FC7674EF6D27E70C9 DUP2 JUMP JUMPDEST PUSH2 0x2A0 PUSH2 0x3D5 CALLDATASIZE PUSH1 0x4 PUSH2 0x11F3 JUMP JUMPDEST PUSH2 0xDE7 JUMP JUMPDEST PUSH2 0x26B PUSH32 0xA62771101A79DD4B4D7B861524E85FAA4569E99D6BB6B09233805DCCB1EA480F DUP2 JUMP JUMPDEST PUSH2 0x2A0 PUSH2 0x40F CALLDATASIZE PUSH1 0x4 PUSH2 0x1331 JUMP JUMPDEST PUSH2 0xE41 JUMP JUMPDEST PUSH2 0x427 PUSH2 0x422 CALLDATASIZE PUSH1 0x4 PUSH2 0x11F3 JUMP JUMPDEST PUSH2 0xE65 JUMP JUMPDEST PUSH1 0x40 MLOAD PUSH2 0x1E9 SWAP5 SWAP4 SWAP3 SWAP2 SWAP1 PUSH2 0x14F4 JUMP JUMPDEST PUSH2 0x2DB PUSH2 0x445 CALLDATASIZE PUSH1 0x4 PUSH2 0x131A JUMP JUMPDEST PUSH2 0xFA7 JUMP JUMPDEST PUSH2 0x23C PUSH2 0xFB6 JUMP JUMPDEST PUSH2 0x26B PUSH2 0x460 CALLDATASIZE PUSH1 0x4 PUSH2 0x11F3 JUMP JUMPDEST PUSH1 0x5 PUSH1 0x20 MSTORE PUSH0 SWAP1 DUP2 MSTORE PUSH1 0x40 SWAP1 KECCAK256 SLOAD DUP2 JUMP JUMPDEST PUSH2 0x4B2 PUSH2 0x47F CALLDATASIZE PUSH1 0x4 PUSH2 0x11F3 JUMP JUMPDEST PUSH1 0x40 DUP1 MLOAD PUSH1 0x20 DUP1 DUP3 ADD DUP4 MSTORE PUSH0 SWAP2 DUP3 SWAP1 MSTORE PUSH1 0x1 PUSH1 0x1 PUSH1 0xA0 SHL SUB SWAP4 SWAP1 SWAP4 AND DUP2 MSTORE PUSH1 0x5 DUP4 MSTORE DUP2 SWAP1 KECCAK256 DUP2 MLOAD SWAP3 DUP4 ADD SWAP1 SWAP2 MSTORE SLOAD DUP2 MSTORE SWAP1 JUMP JUMPDEST PUSH1 0x40 MLOAD SWAP1 MLOAD DUP2 MSTORE PUSH1 0x20 ADD PUSH2 0x1E9 JUMP JUMPDEST PUSH2 0x23C PUSH2 0x1014 JUMP JUMPDEST PUSH0 PUSH1 0x1 PUSH1 0x1 PUSH1 0xE0 SHL SUB NOT DUP3 AND PUSH4 0x7965DB0B PUSH1 0xE0 SHL EQ DUP1 PUSH2 0x4F9 JUMPI POP PUSH4 0x1FFC9A7 PUSH1 0xE0 SHL PUSH1 0x1 PUSH1 0x1 PUSH1 0xE0 SHL SUB NOT DUP4 AND EQ JUMPDEST SWAP3 SWAP2 POP POP JUMP JUMPDEST PUSH1 0x40 DUP1 MLOAD PUSH1 0x60 DUP1 DUP3 ADD DUP4 MSTORE DUP1 DUP3 MSTORE PUSH0 PUSH1 0x20 DUP4 ADD MSTORE SWAP2 DUP2 ADD SWAP2 SWAP1 SWAP2 MSTORE PUSH1 0x1 PUSH1 0x1 PUSH1 0xA0 SHL SUB DUP3 AND PUSH0 SWAP1 DUP2 MSTORE PUSH1 0x3 PUSH1 0x20 MSTORE PUSH1 0x40 SWAP1 DUP2 SWAP1 KECCAK256 DUP2 MLOAD PUSH1 0x60 DUP2 ADD SWAP1 SWAP3 MSTORE DUP1 SLOAD DUP3 SWAP1 DUP3 SWAP1 PUSH2 0x54B SWAP1 PUSH2 0x1539 JUMP JUMPDEST DUP1 PUSH1 0x1F ADD PUSH1 0x20 DUP1 SWAP2 DIV MUL PUSH1 0x20 ADD PUSH1 0x40 MLOAD SWAP1 DUP2 ADD PUSH1 0x40 MSTORE DUP1 SWAP3 SWAP2 SWAP1 DUP2 DUP2 MSTORE PUSH1 0x20 ADD DUP3 DUP1 SLOAD PUSH2 0x577 SWAP1 PUSH2 0x1539 JUMP JUMPDEST DUP1 ISZERO PUSH2 0x5C2 JUMPI DUP1 PUSH1 0x1F LT PUSH2 0x599 JUMPI PUSH2 0x100 DUP1 DUP4 SLOAD DIV MUL DUP4 MSTORE SWAP2 PUSH1 0x20 ADD SWAP2 PUSH2 0x5C2 JUMP JUMPDEST DUP3 ADD SWAP2 SWAP1 PUSH0 MSTORE PUSH1 0x20 PUSH0 KECCAK256 SWAP1 JUMPDEST DUP2 SLOAD DUP2 MSTORE SWAP1 PUSH1 0x1 ADD SWAP1 PUSH1 0x20 ADD DUP1 DUP4 GT PUSH2 0x5A5 JUMPI DUP3 SWAP1 SUB PUSH1 0x1F AND DUP3 ADD SWAP2 JUMPDEST POP POP POP SWAP2 DUP4 MSTORE POP POP PUSH1 0x1 DUP3 ADD SLOAD PUSH1 0x1 PUSH1 0x1 PUSH1 0xA0 SHL SUB AND PUSH1 0x20 DUP3 ADD MSTORE PUSH1 0x2 DUP3 ADD DUP1 SLOAD PUSH1 0x40 SWAP1 SWAP3 ADD SWAP2 PUSH2 0x5F2 SWAP1 PUSH2 0x1539 JUMP JUMPDEST DUP1 PUSH1 0x1F ADD PUSH1 0x20 DUP1 SWAP2 DIV MUL PUSH1 0x20 ADD PUSH1 0x40 MLOAD SWAP1 DUP2 ADD PUSH1 0x40 MSTORE DUP1 SWAP3 SWAP2 SWAP1 DUP2 DUP2 MSTORE PUSH1 0x20 ADD DUP3 DUP1 SLOAD PUSH2 0x61E SWAP1 PUSH2 0x1539 JUMP JUMPDEST DUP1 ISZERO PUSH2 0x669 JUMPI DUP1 PUSH1 0x1F LT PUSH2 0x640 JUMPI PUSH2 0x100 DUP1 DUP4 SLOAD DIV MUL DUP4 MSTORE SWAP2 PUSH1 0x20 ADD SWAP2 PUSH2 0x669 JUMP JUMPDEST DUP3 ADD SWAP2 SWAP1 PUSH0 MSTORE PUSH1 0x20 PUSH0 KECCAK256 SWAP1 JUMPDEST DUP2 SLOAD DUP2 MSTORE SWAP1 PUSH1 0x1 ADD SWAP1 PUSH1 0x20 ADD DUP1 DUP4 GT PUSH2 0x64C JUMPI DUP3 SWAP1 SUB PUSH1 0x1F AND DUP3 ADD SWAP2 JUMPDEST POP POP POP POP POP DUP2 MSTORE POP POP SWAP1 POP SWAP2 SWAP1 POP JUMP JUMPDEST PUSH1 0x3 PUSH1 0x20 MSTORE PUSH0 SWAP1 DUP2 MSTORE PUSH1 0x40 SWAP1 KECCAK256 DUP1 SLOAD DUP2 SWAP1 PUSH2 0x693 SWAP1 PUSH2 0x1539 JUMP JUMPDEST DUP1 PUSH1 0x1F ADD PUSH1 0x20 DUP1 SWAP2 DIV MUL PUSH1 0x20 ADD PUSH1 0x40 MLOAD SWAP1 DUP2 ADD PUSH1 0x40 MSTORE DUP1 SWAP3 SWAP2 SWAP1 DUP2 DUP2 MSTORE PUSH1 0x20 ADD DUP3 DUP1 SLOAD PUSH2 0x6BF SWAP1 PUSH2 0x1539 JUMP JUMPDEST DUP1 ISZERO PUSH2 0x70A JUMPI DUP1 PUSH1 0x1F LT PUSH2 0x6E1 JUMPI PUSH2 0x100 DUP1 DUP4 SLOAD DIV MUL DUP4 MSTORE SWAP2 PUSH1 0x20 ADD SWAP2 PUSH2 0x70A JUMP JUMPDEST DUP3 ADD SWAP2 SWAP1 PUSH0 MSTORE PUSH1 0x20 PUSH0 KECCAK256 SWAP1 JUMPDEST DUP2 SLOAD DUP2 MSTORE SWAP1 PUSH1 0x1 ADD SWAP1 PUSH1 0x20 ADD DUP1 DUP4 GT PUSH2 0x6ED JUMPI DUP3 SWAP1 SUB PUSH1 0x1F AND DUP3 ADD SWAP2 JUMPDEST POP POP POP PUSH1 0x1 DUP5 ADD SLOAD PUSH1 0x2 DUP6 ADD DUP1 SLOAD SWAP5 SWAP6 PUSH1 0x1 PUSH1 0x1 PUSH1 0xA0 SHL SUB SWAP1 SWAP3 AND SWAP5 SWAP2 SWAP4 POP SWAP2 POP PUSH2 0x734 SWAP1 PUSH2 0x1539 JUMP JUMPDEST DUP1 PUSH1 0x1F ADD PUSH1 0x20 DUP1 SWAP2 DIV MUL PUSH1 0x20 ADD PUSH1 0x40 MLOAD SWAP1 DUP2 ADD PUSH1 0x40 MSTORE DUP1 SWAP3 SWAP2 SWAP1 DUP2 DUP2 MSTORE PUSH1 0x20 ADD DUP3 DUP1 SLOAD PUSH2 0x760 SWAP1 PUSH2 0x1539 JUMP JUMPDEST DUP1 ISZERO PUSH2 0x7AB JUMPI DUP1 PUSH1 0x1F LT PUSH2 0x782 JUMPI PUSH2 0x100 DUP1 DUP4 SLOAD DIV MUL DUP4 MSTORE SWAP2 PUSH1 0x20 ADD SWAP2 PUSH2 0x7AB JUMP JUMPDEST DUP3 ADD SWAP2 SWAP1 PUSH0 MSTORE PUSH1 0x20 PUSH0 KECCAK256 SWAP1 JUMPDEST DUP2 SLOAD DUP2 MSTORE SWAP1 PUSH1 0x1 ADD SWAP1 PUSH1 0x20 ADD DUP1 DUP4 GT PUSH2 0x78E JUMPI DUP3 SWAP1 SUB PUSH1 0x1F AND DUP3 ADD SWAP2 JUMPDEST POP POP POP POP POP SWAP1 POP DUP4 JUMP JUMPDEST PUSH1 0x60 PUSH1 0x4 DUP1 SLOAD DUP1 PUSH1 0x20 MUL PUSH1 0x20 ADD PUSH1 0x40 MLOAD SWAP1 DUP2 ADD PUSH1 0x40 MSTORE DUP1 SWAP3 SWAP2 SWAP1 DUP2 DUP2 MSTORE PUSH1 0x20 ADD DUP3 DUP1 SLOAD DUP1 ISZERO PUSH2 0x80B JUMPI PUSH1 0x20 MUL DUP3 ADD SWAP2 SWAP1 PUSH0 MSTORE PUSH1 0x20 PUSH0 KECCAK256 SWAP1 JUMPDEST DUP2 SLOAD PUSH1 0x1 PUSH1 0x1 PUSH1 0xA0 SHL SUB AND DUP2 MSTORE PUSH1 0x1 SWAP1 SWAP2 ADD SWAP1 PUSH1 0x20 ADD DUP1 DUP4 GT PUSH2 0x7ED JUMPI JUMPDEST POP POP POP POP POP SWAP1 POP SWAP1 JUMP JUMPDEST PUSH0 DUP3 DUP2 MSTORE PUSH1 0x20 DUP2 SWAP1 MSTORE PUSH1 0x40 SWAP1 KECCAK256 PUSH1 0x1 ADD SLOAD PUSH2 0x82F DUP2 PUSH2 0x1072 JUMP JUMPDEST PUSH2 0x839 DUP4 DUP4 PUSH2 0x107C JUMP JUMPDEST POP POP POP POP JUMP JUMPDEST PUSH1 0x1 PUSH1 0x1 PUSH1 0xA0 SHL SUB DUP2 AND CALLER EQ PUSH2 0x868 JUMPI PUSH1 0x40 MLOAD PUSH4 0x334BD919 PUSH1 0xE1 SHL DUP2 MSTORE PUSH1 0x4 ADD PUSH1 0x40 MLOAD DUP1 SWAP2 SUB SWAP1 REVERT JUMPDEST PUSH2 0x872 DUP3 DUP3 PUSH2 0x110B JUMP JUMPDEST POP POP POP JUMP JUMPDEST PUSH2 0x88E PUSH0 DUP1 MLOAD PUSH1 0x20 PUSH2 0x1719 DUP4 CODECOPY DUP2 MLOAD SWAP2 MSTORE DUP3 PUSH2 0xDBF JUMP JUMPDEST PUSH2 0x8DF JUMPI PUSH1 0x40 MLOAD PUSH3 0x461BCD PUSH1 0xE5 SHL DUP2 MSTORE PUSH1 0x20 PUSH1 0x4 DUP3 ADD MSTORE PUSH1 0x1F PUSH1 0x24 DUP3 ADD MSTORE PUSH32 0x6F6E6C792061646D696E732063616E20646F20746869732070726F6365737300 PUSH1 0x44 DUP3 ADD MSTORE PUSH1 0x64 ADD JUMPDEST PUSH1 0x40 MLOAD DUP1 SWAP2 SUB SWAP1 REVERT JUMPDEST PUSH1 0x1 PUSH1 0x1 PUSH1 0xA0 SHL SUB DUP2 AND PUSH0 SWAP1 DUP2 MSTORE PUSH1 0x5 PUSH1 0x20 MSTORE PUSH1 0x40 SWAP1 KECCAK256 SLOAD PUSH2 0x902 SWAP1 PUSH1 0x1 PUSH2 0x1585 JUMP JUMPDEST PUSH1 0x1 PUSH1 0x1 PUSH1 0xA0 SHL SUB SWAP1 SWAP2 AND PUSH0 SWAP1 DUP2 MSTORE PUSH1 0x5 PUSH1 0x20 MSTORE PUSH1 0x40 SWAP1 KECCAK256 SSTORE JUMP JUMPDEST PUSH1 0x2 DUP2 DUP2 SLOAD DUP2 LT PUSH2 0x92C JUMPI PUSH0 DUP1 REVERT JUMPDEST PUSH0 SWAP2 DUP3 MSTORE PUSH1 0x20 SWAP1 SWAP2 KECCAK256 ADD SLOAD PUSH1 0x1 PUSH1 0x1 PUSH1 0xA0 SHL SUB AND SWAP1 POP DUP2 JUMP JUMPDEST PUSH0 PUSH2 0x950 DUP3 DUP5 PUSH2 0xDBF JUMP JUMPDEST SWAP4 SWAP3 POP POP POP JUMP JUMPDEST PUSH2 0x989 PUSH1 0x40 MLOAD DUP1 PUSH1 0x80 ADD PUSH1 0x40 MSTORE DUP1 PUSH1 0x60 DUP2 MSTORE PUSH1 0x20 ADD PUSH0 PUSH1 0x1 PUSH1 0x1 PUSH1 0xA0 SHL SUB AND DUP2 MSTORE PUSH1 0x20 ADD PUSH1 0x60 DUP2 MSTORE PUSH1 0x20 ADD PUSH0 DUP2 MSTORE POP SWAP1 JUMP JUMPDEST PUSH1 0x1 PUSH1 0x1 PUSH1 0xA0 SHL SUB DUP3 AND PUSH0 SWAP1 DUP2 MSTORE PUSH1 0x1 PUSH1 0x20 MSTORE PUSH1 0x40 SWAP1 DUP2 SWAP1 KECCAK256 DUP2 MLOAD PUSH1 0x80 DUP2 ADD SWAP1 SWAP3 MSTORE DUP1 SLOAD DUP3 SWAP1 DUP3 SWAP1 PUSH2 0x9BA SWAP1 PUSH2 0x1539 JUMP JUMPDEST DUP1 PUSH1 0x1F ADD PUSH1 0x20 DUP1 SWAP2 DIV MUL PUSH1 0x20 ADD PUSH1 0x40 MLOAD SWAP1 DUP2 ADD PUSH1 0x40 MSTORE DUP1 SWAP3 SWAP2 SWAP1 DUP2 DUP2 MSTORE PUSH1 0x20 ADD DUP3 DUP1 SLOAD PUSH2 0x9E6 SWAP1 PUSH2 0x1539 JUMP JUMPDEST DUP1 ISZERO PUSH2 0xA31 JUMPI DUP1 PUSH1 0x1F LT PUSH2 0xA08 JUMPI PUSH2 0x100 DUP1 DUP4 SLOAD DIV MUL DUP4 MSTORE SWAP2 PUSH1 0x20 ADD SWAP2 PUSH2 0xA31 JUMP JUMPDEST DUP3 ADD SWAP2 SWAP1 PUSH0 MSTORE PUSH1 0x20 PUSH0 KECCAK256 SWAP1 JUMPDEST DUP2 SLOAD DUP2 MSTORE SWAP1 PUSH1 0x1 ADD SWAP1 PUSH1 0x20 ADD DUP1 DUP4 GT PUSH2 0xA14 JUMPI DUP3 SWAP1 SUB PUSH1 0x1F AND DUP3 ADD SWAP2 JUMPDEST POP POP POP SWAP2 DUP4 MSTORE POP POP PUSH1 0x1 DUP3 ADD SLOAD PUSH1 0x1 PUSH1 0x1 PUSH1 0xA0 SHL SUB AND PUSH1 0x20 DUP3 ADD MSTORE PUSH1 0x2 DUP3 ADD DUP1 SLOAD PUSH1 0x40 SWAP1 SWAP3 ADD SWAP2 PUSH2 0xA61 SWAP1 PUSH2 0x1539 JUMP JUMPDEST DUP1 PUSH1 0x1F ADD PUSH1 0x20 DUP1 SWAP2 DIV MUL PUSH1 0x20 ADD PUSH1 0x40 MLOAD SWAP1 DUP2 ADD PUSH1 0x40 MSTORE DUP1 SWAP3 SWAP2 SWAP1 DUP2 DUP2 MSTORE PUSH1 0x20 ADD DUP3 DUP1 SLOAD PUSH2 0xA8D SWAP1 PUSH2 0x1539 JUMP JUMPDEST DUP1 ISZERO PUSH2 0xAD8 JUMPI DUP1 PUSH1 0x1F LT PUSH2 0xAAF JUMPI PUSH2 0x100 DUP1 DUP4 SLOAD DIV MUL DUP4 MSTORE SWAP2 PUSH1 0x20 ADD SWAP2 PUSH2 0xAD8 JUMP JUMPDEST DUP3 ADD SWAP2 SWAP1 PUSH0 MSTORE PUSH1 0x20 PUSH0 KECCAK256 SWAP1 JUMPDEST DUP2 SLOAD DUP2 MSTORE SWAP1 PUSH1 0x1 ADD SWAP1 PUSH1 0x20 ADD DUP1 DUP4 GT PUSH2 0xABB JUMPI DUP3 SWAP1 SUB PUSH1 0x1F AND DUP3 ADD SWAP2 JUMPDEST POP POP POP POP POP DUP2 MSTORE PUSH1 0x20 ADD PUSH1 0x3 DUP3 ADD SLOAD DUP2 MSTORE POP POP SWAP1 POP SWAP2 SWAP1 POP JUMP JUMPDEST PUSH2 0xB09 PUSH0 DUP1 MLOAD PUSH1 0x20 PUSH2 0x16F9 DUP4 CODECOPY DUP2 MLOAD SWAP2 MSTORE DUP3 PUSH2 0xDBF JUMP JUMPDEST PUSH2 0xB25 JUMPI PUSH1 0x40 MLOAD PUSH3 0x461BCD PUSH1 0xE5 SHL DUP2 MSTORE PUSH1 0x4 ADD PUSH2 0x8D6 SWAP1 PUSH2 0x1598 JUMP JUMPDEST PUSH1 0x1 PUSH1 0x1 PUSH1 0xA0 SHL SUB DUP2 AND PUSH0 SWAP1 DUP2 MSTORE PUSH1 0x1 PUSH1 0x20 DUP2 SWAP1 MSTORE PUSH1 0x40 SWAP1 SWAP2 KECCAK256 PUSH1 0x3 ADD SLOAD LT PUSH2 0xB8C JUMPI PUSH1 0x1 PUSH1 0x1 PUSH1 0xA0 SHL SUB DUP2 AND PUSH0 SWAP1 DUP2 MSTORE PUSH1 0x1 PUSH1 0x20 DUP2 SWAP1 MSTORE PUSH1 0x40 SWAP1 SWAP2 KECCAK256 PUSH1 0x3 ADD SLOAD PUSH2 0xB70 SWAP2 SWAP1 PUSH2 0x15DA JUMP JUMPDEST PUSH1 0x1 PUSH1 0x1 PUSH1 0xA0 SHL SUB DUP3 AND PUSH0 SWAP1 DUP2 MSTORE PUSH1 0x1 PUSH1 0x20 MSTORE PUSH1 0x40 SWAP1 KECCAK256 PUSH1 0x3 ADD SSTORE JUMPDEST POP JUMP JUMPDEST PUSH2 0xBA6 PUSH0 DUP1 MLOAD PUSH1 0x20 PUSH2 0x1719 DUP4 CODECOPY DUP2 MLOAD SWAP2 MSTORE DUP5 PUSH2 0xDBF JUMP JUMPDEST ISZERO DUP1 ISZERO PUSH2 0xBC7 JUMPI POP PUSH2 0xBC5 PUSH0 DUP1 MLOAD PUSH1 0x20 PUSH2 0x16F9 DUP4 CODECOPY DUP2 MLOAD SWAP2 MSTORE DUP5 PUSH2 0xDBF JUMP JUMPDEST ISZERO JUMPDEST DUP1 ISZERO PUSH2 0xBFA JUMPI POP PUSH2 0xBF8 PUSH32 0xA62771101A79DD4B4D7B861524E85FAA4569E99D6BB6B09233805DCCB1EA480F DUP5 PUSH2 0xDBF JUMP JUMPDEST ISZERO JUMPDEST DUP1 ISZERO PUSH2 0xC2D JUMPI POP PUSH2 0xC2B PUSH32 0xA62771101A79DD4B4D7B861524E85FAA4569E99D6BB6B09233805DCCB1EA480F DUP5 PUSH2 0xDBF JUMP JUMPDEST ISZERO JUMPDEST ISZERO PUSH2 0x872 JUMPI PUSH2 0xC49 PUSH0 DUP1 MLOAD PUSH1 0x20 PUSH2 0x16F9 DUP4 CODECOPY DUP2 MLOAD SWAP2 MSTORE DUP5 PUSH2 0x107C JUMP JUMPDEST POP PUSH1 0x1 PUSH1 0x1 PUSH1 0xA0 SHL SUB DUP4 AND PUSH0 DUP2 DUP2 MSTORE PUSH1 0x1 PUSH1 0x20 DUP2 SWAP1 MSTORE PUSH1 0x40 SWAP1 SWAP2 KECCAK256 SWAP1 DUP2 ADD DUP1 SLOAD PUSH1 0x1 PUSH1 0x1 PUSH1 0xA0 SHL SUB NOT AND SWAP1 SWAP3 OR SWAP1 SWAP2 SSTORE PUSH2 0xC83 DUP4 DUP3 PUSH2 0x1638 JUMP JUMPDEST POP PUSH1 0x1 PUSH1 0x1 PUSH1 0xA0 SHL SUB DUP4 AND PUSH0 SWAP1 DUP2 MSTORE PUSH1 0x1 PUSH1 0x20 MSTORE PUSH1 0x40 SWAP1 KECCAK256 PUSH1 0x2 ADD PUSH2 0xCA8 DUP3 DUP3 PUSH2 0x1638 JUMP JUMPDEST POP POP POP PUSH1 0x1 PUSH1 0x1 PUSH1 0xA0 SHL SUB AND PUSH0 DUP2 DUP2 MSTORE PUSH1 0x1 PUSH1 0x20 DUP2 SWAP1 MSTORE PUSH1 0x40 DUP3 KECCAK256 PUSH1 0x3 ADD DUP3 SWAP1 SSTORE PUSH1 0x2 DUP1 SLOAD SWAP2 DUP3 ADD DUP2 SSTORE SWAP1 SWAP2 MSTORE PUSH32 0x405787FA12A823E0F2B7631CC41B3BA8828B3321CA811111FA75CD3AA3BB5ACE ADD DUP1 SLOAD PUSH1 0x1 PUSH1 0x1 PUSH1 0xA0 SHL SUB NOT AND SWAP1 SWAP2 OR SWAP1 SSTORE JUMP JUMPDEST PUSH1 0x6 DUP2 DUP2 SLOAD DUP2 LT PUSH2 0x92C JUMPI PUSH0 DUP1 REVERT JUMPDEST PUSH2 0xD30 PUSH0 DUP1 MLOAD PUSH1 0x20 PUSH2 0x1719 DUP4 CODECOPY DUP2 MLOAD SWAP2 MSTORE DUP3 PUSH2 0xDBF JUMP JUMPDEST PUSH2 0xD7C JUMPI PUSH1 0x40 MLOAD PUSH3 0x461BCD PUSH1 0xE5 SHL DUP2 MSTORE PUSH1 0x20 PUSH1 0x4 DUP3 ADD MSTORE PUSH1 0x1F PUSH1 0x24 DUP3 ADD MSTORE PUSH32 0x6F6E6C792061646D696E732063616E20646F20746869732070726F6365737300 PUSH1 0x44 DUP3 ADD MSTORE PUSH1 0x64 ADD PUSH2 0x8D6 JUMP JUMPDEST PUSH1 0x1 PUSH1 0x1 PUSH1 0xA0 SHL SUB DUP2 AND PUSH0 SWAP1 DUP2 MSTORE PUSH1 0x5 PUSH1 0x20 MSTORE PUSH1 0x40 SWAP1 KECCAK256 SLOAD PUSH1 0x1 GT PUSH2 0xB8C JUMPI PUSH1 0x1 PUSH1 0x1 PUSH1 0xA0 SHL SUB DUP2 AND PUSH0 SWAP1 DUP2 MSTORE PUSH1 0x5 PUSH1 0x20 MSTORE PUSH1 0x40 SWAP1 KECCAK256 SLOAD PUSH2 0x902 SWAP1 PUSH1 0x1 SWAP1 PUSH2 0x15DA JUMP JUMPDEST PUSH0 SWAP2 DUP3 MSTORE PUSH1 0x20 DUP3 DUP2 MSTORE PUSH1 0x40 DUP1 DUP5 KECCAK256 PUSH1 0x1 PUSH1 0x1 PUSH1 0xA0 SHL SUB SWAP4 SWAP1 SWAP4 AND DUP5 MSTORE SWAP2 SWAP1 MSTORE SWAP1 KECCAK256 SLOAD PUSH1 0xFF AND SWAP1 JUMP JUMPDEST PUSH2 0xDFE PUSH0 DUP1 MLOAD PUSH1 0x20 PUSH2 0x16F9 DUP4 CODECOPY DUP2 MLOAD SWAP2 MSTORE DUP3 PUSH2 0xDBF JUMP JUMPDEST PUSH2 0xE1A JUMPI PUSH1 0x40 MLOAD PUSH3 0x461BCD PUSH1 0xE5 SHL DUP2 MSTORE PUSH1 0x4 ADD PUSH2 0x8D6 SWAP1 PUSH2 0x1598 JUMP JUMPDEST PUSH1 0x1 PUSH1 0x1 PUSH1 0xA0 SHL SUB DUP2 AND PUSH0 SWAP1 DUP2 MSTORE PUSH1 0x1 PUSH1 0x20 DUP2 SWAP1 MSTORE PUSH1 0x40 SWAP1 SWAP2 KECCAK256 PUSH1 0x3 ADD SLOAD PUSH2 0xB70 SWAP2 PUSH2 0x1585 JUMP JUMPDEST PUSH0 DUP3 DUP2 MSTORE PUSH1 0x20 DUP2 SWAP1 MSTORE PUSH1 0x40 SWAP1 KECCAK256 PUSH1 0x1 ADD SLOAD PUSH2 0xE5B DUP2 PUSH2 0x1072 JUMP JUMPDEST PUSH2 0x839 DUP4 DUP4 PUSH2 0x110B JUMP JUMPDEST PUSH1 0x1 PUSH1 0x20 MSTORE PUSH0 SWAP1 DUP2 MSTORE PUSH1 0x40 SWAP1 KECCAK256 DUP1 SLOAD DUP2 SWAP1 PUSH2 0xE7F SWAP1 PUSH2 0x1539 JUMP JUMPDEST DUP1 PUSH1 0x1F ADD PUSH1 0x20 DUP1 SWAP2 DIV MUL PUSH1 0x20 ADD PUSH1 0x40 MLOAD SWAP1 DUP2 ADD PUSH1 0x40 MSTORE DUP1 SWAP3 SWAP2 SWAP1 DUP2 DUP2 MSTORE PUSH1 0x20 ADD DUP3 DUP1 SLOAD PUSH2 0xEAB SWAP1 PUSH2 0x1539 JUMP JUMPDEST DUP1 ISZERO PUSH2 0xEF6 JUMPI DUP1 PUSH1 0x1F LT PUSH2 0xECD JUMPI PUSH2 0x100 DUP1 DUP4 SLOAD DIV MUL DUP4 MSTORE SWAP2 PUSH1 0x20 ADD SWAP2 PUSH2 0xEF6 JUMP JUMPDEST DUP3 ADD SWAP2 SWAP1 PUSH0 MSTORE PUSH1 0x20 PUSH0 KECCAK256 SWAP1 JUMPDEST DUP2 SLOAD DUP2 MSTORE SWAP1 PUSH1 0x1 ADD SWAP1 PUSH1 0x20 ADD DUP1 DUP4 GT PUSH2 0xED9 JUMPI DUP3 SWAP1 SUB PUSH1 0x1F AND DUP3 ADD SWAP2 JUMPDEST POP POP POP PUSH1 0x1 DUP5 ADD SLOAD PUSH1 0x2 DUP6 ADD DUP1 SLOAD SWAP5 SWAP6 PUSH1 0x1 PUSH1 0x1 PUSH1 0xA0 SHL SUB SWAP1 SWAP3 AND SWAP5 SWAP2 SWAP4 POP SWAP2 POP PUSH2 0xF20 SWAP1 PUSH2 0x1539 JUMP JUMPDEST DUP1 PUSH1 0x1F ADD PUSH1 0x20 DUP1 SWAP2 DIV MUL PUSH1 0x20 ADD PUSH1 0x40 MLOAD SWAP1 DUP2 ADD PUSH1 0x40 MSTORE DUP1 SWAP3 SWAP2 SWAP1 DUP2 DUP2 MSTORE PUSH1 0x20 ADD DUP3 DUP1 SLOAD PUSH2 0xF4C SWAP1 PUSH2 0x1539 JUMP JUMPDEST DUP1 ISZERO PUSH2 0xF97 JUMPI DUP1 PUSH1 0x1F LT PUSH2 0xF6E JUMPI PUSH2 0x100 DUP1 DUP4 SLOAD DIV MUL DUP4 MSTORE SWAP2 PUSH1 0x20 ADD SWAP2 PUSH2 0xF97 JUMP JUMPDEST DUP3 ADD SWAP2 SWAP1 PUSH0 MSTORE PUSH1 0x20 PUSH0 KECCAK256 SWAP1 JUMPDEST DUP2 SLOAD DUP2 MSTORE SWAP1 PUSH1 0x1 ADD SWAP1 PUSH1 0x20 ADD DUP1 DUP4 GT PUSH2 0xF7A JUMPI DUP3 SWAP1 SUB PUSH1 0x1F AND DUP3 ADD SWAP2 JUMPDEST POP POP POP POP POP SWAP1 DUP1 PUSH1 0x3 ADD SLOAD SWAP1 POP DUP5 JUMP JUMPDEST PUSH1 0x4 DUP2 DUP2 SLOAD DUP2 LT PUSH2 0x92C JUMPI PUSH0 DUP1 REVERT JUMPDEST PUSH1 0x60 PUSH1 0x2 DUP1 SLOAD DUP1 PUSH1 0x20 MUL PUSH1 0x20 ADD PUSH1 0x40 MLOAD SWAP1 DUP2 ADD PUSH1 0x40 MSTORE DUP1 SWAP3 SWAP2 SWAP1 DUP2 DUP2 MSTORE PUSH1 0x20 ADD DUP3 DUP1 SLOAD DUP1 ISZERO PUSH2 0x80B JUMPI PUSH1 0x20 MUL DUP3 ADD SWAP2 SWAP1 PUSH0 MSTORE PUSH1 0x20 PUSH0 KECCAK256 SWAP1 DUP2 SLOAD PUSH1 0x1 PUSH1 0x1 PUSH1 0xA0 SHL SUB AND DUP2 MSTORE PUSH1 0x1 SWAP1 SWAP2 ADD SWAP1 PUSH1 0x20 ADD DUP1 DUP4 GT PUSH2 0x7ED JUMPI POP POP POP POP POP SWAP1 POP SWAP1 JUMP JUMPDEST PUSH1 0x60 PUSH1 0x6 DUP1 SLOAD DUP1 PUSH1 0x20 MUL PUSH1 0x20 ADD PUSH1 0x40 MLOAD SWAP1 DUP2 ADD PUSH1 0x40 MSTORE DUP1 SWAP3 SWAP2 SWAP1 DUP2 DUP2 MSTORE PUSH1 0x20 ADD DUP3 DUP1 SLOAD DUP1 ISZERO PUSH2 0x80B JUMPI PUSH1 0x20 MUL DUP3 ADD SWAP2 SWAP1 PUSH0 MSTORE PUSH1 0x20 PUSH0 KECCAK256 SWAP1 DUP2 SLOAD PUSH1 0x1 PUSH1 0x1 PUSH1 0xA0 SHL SUB AND DUP2 MSTORE PUSH1 0x1 SWAP1 SWAP2 ADD SWAP1 PUSH1 0x20 ADD DUP1 DUP4 GT PUSH2 0x7ED JUMPI POP POP POP POP POP SWAP1 POP SWAP1 JUMP JUMPDEST PUSH2 0xB8C DUP2 CALLER PUSH2 0x1174 JUMP JUMPDEST PUSH0 PUSH2 0x1087 DUP4 DUP4 PUSH2 0xDBF JUMP JUMPDEST PUSH2 0x1104 JUMPI PUSH0 DUP4 DUP2 MSTORE PUSH1 0x20 DUP2 DUP2 MSTORE PUSH1 0x40 DUP1 DUP4 KECCAK256 PUSH1 0x1 PUSH1 0x1 PUSH1 0xA0 SHL SUB DUP7 AND DUP5 MSTORE SWAP1 SWAP2 MSTORE SWAP1 KECCAK256 DUP1 SLOAD PUSH1 0xFF NOT AND PUSH1 0x1 OR SWAP1 SSTORE PUSH2 0x10BC CALLER SWAP1 JUMP JUMPDEST PUSH1 0x1 PUSH1 0x1 PUSH1 0xA0 SHL SUB AND DUP3 PUSH1 0x1 PUSH1 0x1 PUSH1 0xA0 SHL SUB AND DUP5 PUSH32 0x2F8788117E7EFF1D82E926EC794901D17C78024A50270940304540A733656F0D PUSH1 0x40 MLOAD PUSH1 0x40 MLOAD DUP1 SWAP2 SUB SWAP1 LOG4 POP PUSH1 0x1 PUSH2 0x4F9 JUMP JUMPDEST POP PUSH0 PUSH2 0x4F9 JUMP JUMPDEST PUSH0 PUSH2 0x1116 DUP4 DUP4 PUSH2 0xDBF JUMP JUMPDEST ISZERO PUSH2 0x1104 JUMPI PUSH0 DUP4 DUP2 MSTORE PUSH1 0x20 DUP2 DUP2 MSTORE PUSH1 0x40 DUP1 DUP4 KECCAK256 PUSH1 0x1 PUSH1 0x1 PUSH1 0xA0 SHL SUB DUP7 AND DUP1 DUP6 MSTORE SWAP3 MSTORE DUP1 DUP4 KECCAK256 DUP1 SLOAD PUSH1 0xFF NOT AND SWAP1 SSTORE MLOAD CALLER SWAP3 DUP7 SWAP2 PUSH32 0xF6391F5C32D9C69D2A47EA670B442974B53935D1EDC7FD64EB21E047A839171B SWAP2 SWAP1 LOG4 POP PUSH1 0x1 PUSH2 0x4F9 JUMP JUMPDEST PUSH2 0x117E DUP3 DUP3 PUSH2 0xDBF JUMP JUMPDEST PUSH2 0x11AD JUMPI PUSH1 0x40 MLOAD PUSH4 0xE2517D3F PUSH1 0xE0 SHL DUP2 MSTORE PUSH1 0x1 PUSH1 0x1 PUSH1 0xA0 SHL SUB DUP3 AND PUSH1 0x4 DUP3 ADD MSTORE PUSH1 0x24 DUP2 ADD DUP4 SWAP1 MSTORE PUSH1 0x44 ADD PUSH2 0x8D6 JUMP JUMPDEST POP POP JUMP JUMPDEST PUSH0 PUSH1 0x20 DUP3 DUP5 SUB SLT ISZERO PUSH2 0x11C1 JUMPI PUSH0 DUP1 REVERT JUMPDEST DUP2 CALLDATALOAD PUSH1 0x1 PUSH1 0x1 PUSH1 0xE0 SHL SUB NOT DUP2 AND DUP2 EQ PUSH2 0x950 JUMPI PUSH0 DUP1 REVERT JUMPDEST DUP1 CALLDATALOAD PUSH1 0x1 PUSH1 0x1 PUSH1 0xA0 SHL SUB DUP2 AND DUP2 EQ PUSH2 0x11EE JUMPI PUSH0 DUP1 REVERT JUMPDEST SWAP2 SWAP1 POP JUMP JUMPDEST PUSH0 PUSH1 0x20 DUP3 DUP5 SUB SLT ISZERO PUSH2 0x1203 JUMPI PUSH0 DUP1 REVERT JUMPDEST PUSH2 0x950 DUP3 PUSH2 0x11D8 JUMP JUMPDEST PUSH0 DUP2 MLOAD DUP1 DUP5 MSTORE DUP1 PUSH1 0x20 DUP5 ADD PUSH1 0x20 DUP7 ADD MCOPY PUSH0 PUSH1 0x20 DUP3 DUP7 ADD ADD MSTORE PUSH1 0x20 PUSH1 0x1F NOT PUSH1 0x1F DUP4 ADD AND DUP6 ADD ADD SWAP2 POP POP SWAP3 SWAP2 POP POP JUMP JUMPDEST PUSH1 0x20 DUP2 MSTORE PUSH0 DUP3 MLOAD PUSH1 0x60 PUSH1 0x20 DUP5 ADD MSTORE PUSH2 0x1255 PUSH1 0x80 DUP5 ADD DUP3 PUSH2 0x120C JUMP JUMPDEST PUSH1 0x20 DUP6 ADD MLOAD PUSH1 0x1 PUSH1 0x1 PUSH1 0xA0 SHL SUB AND PUSH1 0x40 DUP6 DUP2 ADD SWAP2 SWAP1 SWAP2 MSTORE DUP6 ADD MLOAD DUP5 DUP3 SUB PUSH1 0x1F NOT ADD PUSH1 0x60 DUP7 ADD MSTORE SWAP1 SWAP2 POP PUSH2 0x1288 DUP3 DUP3 PUSH2 0x120C JUMP JUMPDEST SWAP6 SWAP5 POP POP POP POP POP JUMP JUMPDEST PUSH1 0x60 DUP2 MSTORE PUSH0 PUSH2 0x12A3 PUSH1 0x60 DUP4 ADD DUP7 PUSH2 0x120C JUMP JUMPDEST PUSH1 0x1 PUSH1 0x1 PUSH1 0xA0 SHL SUB DUP6 AND PUSH1 0x20 DUP5 ADD MSTORE DUP3 DUP2 SUB PUSH1 0x40 DUP5 ADD MSTORE PUSH2 0x12C4 DUP2 DUP6 PUSH2 0x120C JUMP JUMPDEST SWAP7 SWAP6 POP POP POP POP POP POP JUMP JUMPDEST PUSH1 0x20 DUP1 DUP3 MSTORE DUP3 MLOAD DUP3 DUP3 ADD DUP2 SWAP1 MSTORE PUSH0 SWAP2 SWAP1 DUP5 DUP3 ADD SWAP1 PUSH1 0x40 DUP6 ADD SWAP1 DUP5 JUMPDEST DUP2 DUP2 LT ISZERO PUSH2 0x130E JUMPI DUP4 MLOAD PUSH1 0x1 PUSH1 0x1 PUSH1 0xA0 SHL SUB AND DUP4 MSTORE SWAP3 DUP5 ADD SWAP3 SWAP2 DUP5 ADD SWAP2 PUSH1 0x1 ADD PUSH2 0x12E9 JUMP JUMPDEST POP SWAP1 SWAP7 SWAP6 POP POP POP POP POP POP JUMP JUMPDEST PUSH0 PUSH1 0x20 DUP3 DUP5 SUB SLT ISZERO PUSH2 0x132A JUMPI PUSH0 DUP1 REVERT JUMPDEST POP CALLDATALOAD SWAP2 SWAP1 POP JUMP JUMPDEST PUSH0 DUP1 PUSH1 0x40 DUP4 DUP6 SUB SLT ISZERO PUSH2 0x1342 JUMPI PUSH0 DUP1 REVERT JUMPDEST DUP3 CALLDATALOAD SWAP2 POP PUSH2 0x1352 PUSH1 0x20 DUP5 ADD PUSH2 0x11D8 JUMP JUMPDEST SWAP1 POP SWAP3 POP SWAP3 SWAP1 POP JUMP JUMPDEST PUSH0 DUP1 PUSH1 0x40 DUP4 DUP6 SUB SLT ISZERO PUSH2 0x136C JUMPI PUSH0 DUP1 REVERT JUMPDEST PUSH2 0x1375 DUP4 PUSH2 0x11D8 JUMP JUMPDEST SWAP5 PUSH1 0x20 SWAP4 SWAP1 SWAP4 ADD CALLDATALOAD SWAP4 POP POP POP JUMP JUMPDEST PUSH1 0x20 DUP2 MSTORE PUSH0 DUP3 MLOAD PUSH1 0x80 PUSH1 0x20 DUP5 ADD MSTORE PUSH2 0x139E PUSH1 0xA0 DUP5 ADD DUP3 PUSH2 0x120C JUMP JUMPDEST PUSH1 0x20 DUP6 ADD MLOAD PUSH1 0x1 PUSH1 0x1 PUSH1 0xA0 SHL SUB AND PUSH1 0x40 DUP6 DUP2 ADD SWAP2 SWAP1 SWAP2 MSTORE DUP6 ADD MLOAD DUP5 DUP3 SUB PUSH1 0x1F NOT ADD PUSH1 0x60 DUP7 ADD MSTORE SWAP1 SWAP2 POP PUSH2 0x13D1 DUP3 DUP3 PUSH2 0x120C JUMP JUMPDEST SWAP2 POP POP PUSH1 0x60 DUP5 ADD MLOAD PUSH1 0x80 DUP5 ADD MSTORE DUP1 SWAP2 POP POP SWAP3 SWAP2 POP POP JUMP JUMPDEST PUSH4 0x4E487B71 PUSH1 0xE0 SHL PUSH0 MSTORE PUSH1 0x41 PUSH1 0x4 MSTORE PUSH1 0x24 PUSH0 REVERT JUMPDEST PUSH0 DUP3 PUSH1 0x1F DUP4 ADD SLT PUSH2 0x140B JUMPI PUSH0 DUP1 REVERT JUMPDEST DUP2 CALLDATALOAD PUSH8 0xFFFFFFFFFFFFFFFF DUP1 DUP3 GT ISZERO PUSH2 0x1426 JUMPI PUSH2 0x1426 PUSH2 0x13E8 JUMP JUMPDEST PUSH1 0x40 MLOAD PUSH1 0x1F DUP4 ADD PUSH1 0x1F NOT SWAP1 DUP2 AND PUSH1 0x3F ADD AND DUP2 ADD SWAP1 DUP3 DUP3 GT DUP2 DUP4 LT OR ISZERO PUSH2 0x144E JUMPI PUSH2 0x144E PUSH2 0x13E8 JUMP JUMPDEST DUP2 PUSH1 0x40 MSTORE DUP4 DUP2 MSTORE DUP7 PUSH1 0x20 DUP6 DUP9 ADD ADD GT ISZERO PUSH2 0x1466 JUMPI PUSH0 DUP1 REVERT JUMPDEST DUP4 PUSH1 0x20 DUP8 ADD PUSH1 0x20 DUP4 ADD CALLDATACOPY PUSH0 PUSH1 0x20 DUP6 DUP4 ADD ADD MSTORE DUP1 SWAP5 POP POP POP POP POP SWAP3 SWAP2 POP POP JUMP JUMPDEST PUSH0 DUP1 PUSH0 PUSH1 0x60 DUP5 DUP7 SUB SLT ISZERO PUSH2 0x1497 JUMPI PUSH0 DUP1 REVERT JUMPDEST PUSH2 0x14A0 DUP5 PUSH2 0x11D8 JUMP JUMPDEST SWAP3 POP PUSH1 0x20 DUP5 ADD CALLDATALOAD PUSH8 0xFFFFFFFFFFFFFFFF DUP1 DUP3 GT ISZERO PUSH2 0x14BC JUMPI PUSH0 DUP1 REVERT JUMPDEST PUSH2 0x14C8 DUP8 DUP4 DUP9 ADD PUSH2 0x13FC JUMP JUMPDEST SWAP4 POP PUSH1 0x40 DUP7 ADD CALLDATALOAD SWAP2 POP DUP1 DUP3 GT ISZERO PUSH2 0x14DD JUMPI PUSH0 DUP1 REVERT JUMPDEST POP PUSH2 0x14EA DUP7 DUP3 DUP8 ADD PUSH2 0x13FC JUMP JUMPDEST SWAP2 POP POP SWAP3 POP SWAP3 POP SWAP3 JUMP JUMPDEST PUSH1 0x80 DUP2 MSTORE PUSH0 PUSH2 0x1506 PUSH1 0x80 DUP4 ADD DUP8 PUSH2 0x120C JUMP JUMPDEST PUSH1 0x1 PUSH1 0x1 PUSH1 0xA0 SHL SUB DUP7 AND PUSH1 0x20 DUP5 ADD MSTORE DUP3 DUP2 SUB PUSH1 0x40 DUP5 ADD MSTORE PUSH2 0x1527 DUP2 DUP7 PUSH2 0x120C JUMP JUMPDEST SWAP2 POP POP DUP3 PUSH1 0x60 DUP4 ADD MSTORE SWAP6 SWAP5 POP POP POP POP POP JUMP JUMPDEST PUSH1 0x1 DUP2 DUP2 SHR SWAP1 DUP3 AND DUP1 PUSH2 0x154D JUMPI PUSH1 0x7F DUP3 AND SWAP2 POP JUMPDEST PUSH1 0x20 DUP3 LT DUP2 SUB PUSH2 0x156B JUMPI PUSH4 0x4E487B71 PUSH1 0xE0 SHL PUSH0 MSTORE PUSH1 0x22 PUSH1 0x4 MSTORE PUSH1 0x24 PUSH0 REVERT JUMPDEST POP SWAP2 SWAP1 POP JUMP JUMPDEST PUSH4 0x4E487B71 PUSH1 0xE0 SHL PUSH0 MSTORE PUSH1 0x11 PUSH1 0x4 MSTORE PUSH1 0x24 PUSH0 REVERT JUMPDEST DUP1 DUP3 ADD DUP1 DUP3 GT ISZERO PUSH2 0x4F9 JUMPI PUSH2 0x4F9 PUSH2 0x1571 JUMP JUMPDEST PUSH1 0x20 DUP1 DUP3 MSTORE PUSH1 0x22 SWAP1 DUP3 ADD MSTORE PUSH32 0x6F6E6C79207573657220706F7765722063616E20626520696E6372656D656E74 PUSH1 0x40 DUP3 ADD MSTORE PUSH2 0x1959 PUSH1 0xF2 SHL PUSH1 0x60 DUP3 ADD MSTORE PUSH1 0x80 ADD SWAP1 JUMP JUMPDEST DUP2 DUP2 SUB DUP2 DUP2 GT ISZERO PUSH2 0x4F9 JUMPI PUSH2 0x4F9 PUSH2 0x1571 JUMP JUMPDEST PUSH1 0x1F DUP3 GT ISZERO PUSH2 0x872 JUMPI DUP1 PUSH0 MSTORE PUSH1 0x20 PUSH0 KECCAK256 PUSH1 0x1F DUP5 ADD PUSH1 0x5 SHR DUP2 ADD PUSH1 0x20 DUP6 LT ISZERO PUSH2 0x1612 JUMPI POP DUP1 JUMPDEST PUSH1 0x1F DUP5 ADD PUSH1 0x5 SHR DUP3 ADD SWAP2 POP JUMPDEST DUP2 DUP2 LT ISZERO PUSH2 0x1631 JUMPI PUSH0 DUP2 SSTORE PUSH1 0x1 ADD PUSH2 0x161E JUMP JUMPDEST POP POP POP POP POP JUMP JUMPDEST DUP2 MLOAD PUSH8 0xFFFFFFFFFFFFFFFF DUP2 GT ISZERO PUSH2 0x1652 JUMPI PUSH2 0x1652 PUSH2 0x13E8 JUMP JUMPDEST PUSH2 0x1666 DUP2 PUSH2 0x1660 DUP5 SLOAD PUSH2 0x1539 JUMP JUMPDEST DUP5 PUSH2 0x15ED JUMP JUMPDEST PUSH1 0x20 DUP1 PUSH1 0x1F DUP4 GT PUSH1 0x1 DUP2 EQ PUSH2 0x1699 JUMPI PUSH0 DUP5 ISZERO PUSH2 0x1682 JUMPI POP DUP6 DUP4 ADD MLOAD JUMPDEST PUSH0 NOT PUSH1 0x3 DUP7 SWAP1 SHL SHR NOT AND PUSH1 0x1 DUP6 SWAP1 SHL OR DUP6 SSTORE PUSH2 0x16F0 JUMP JUMPDEST PUSH0 DUP6 DUP2 MSTORE PUSH1 0x20 DUP2 KECCAK256 PUSH1 0x1F NOT DUP7 AND SWAP2 JUMPDEST DUP3 DUP2 LT ISZERO PUSH2 0x16C7 JUMPI DUP9 DUP7 ADD MLOAD DUP3 SSTORE SWAP5 DUP5 ADD SWAP5 PUSH1 0x1 SWAP1 SWAP2 ADD SWAP1 DUP5 ADD PUSH2 0x16A8 JUMP JUMPDEST POP DUP6 DUP3 LT ISZERO PUSH2 0x16E4 JUMPI DUP8 DUP6 ADD MLOAD PUSH0 NOT PUSH1 0x3 DUP9 SWAP1 SHL PUSH1 0xF8 AND SHR NOT AND DUP2 SSTORE JUMPDEST POP POP PUSH1 0x1 DUP5 PUSH1 0x1 SHL ADD DUP6 SSTORE JUMPDEST POP POP POP POP POP POP JUMP INVALID 0x2D 0xB9 REVERT RETURNDATASIZE MULMOD SWAP9 BASEFEE MUL PUSH29 0x2383D0A083396F6C41510D7ACFD92ADC99B6CFFCF31E96DF8B4C520FFE NOT PUSH29 0x5343C6F5AEC59570151EF9A492F2C624FD45DDDE6135EC42A264697066 PUSH20 0x582212209B88F32C0ED5BC547FBD9B5D2F45EEFE 0xB9 NUMBER 0x4C 0xB0 OR 0xBA 0xEB GT PUSH25 0xF4C448ED081FFD64736F6C6343000819003300000000000000 "
				},
				"gasEstimates": {
					"creation": {
						"codeDepositCost": "1199600",
						"executionCost": "infinite",
						"totalCost": "infinite"
					},
					"external": {
						"ADMIN()": "infinite",
						"Admin(uint256)": "4657",
						"AdminUserMapping(address)": "2582",
						"CANDIDATE()": "239",
						"Candidate(uint256)": "4722",
						"CandidateMapping(address)": "infinite",
						"DEFAULT_ADMIN_ROLE()": "260",
						"DEPLOYER()": "283",
						"USER()": "infinite",
						"User(uint256)": "4701",
						"UserMapping(address)": "infinite",
						"adminAddress()": "infinite",
						"candidateAddress()": "infinite",
						"decrementVotingPowerForAdmin(address)": "infinite",
						"decrementVotingPowerForUser(address)": "infinite",
						"getAdminDetailsByAddress(address)": "2706",
						"getCandidateDetailsByAddress(address)": "infinite",
						"getRoleAdmin(bytes32)": "2512",
						"getRoleOfAddress(address,bytes32)": "2732",
						"getUserDetailsByAddress(address)": "infinite",
						"grantRole(bytes32,address)": "infinite",
						"hasRole(bytes32,address)": "2693",
						"incrementVotingPowerForAdmin(address)": "infinite",
						"incrementVotingPowerForUser(address)": "infinite",
						"renounceRole(bytes32,address)": "29064",
						"requestToBeAddedAsUser(address,string,string)": "infinite",
						"revokeRole(bytes32,address)": "infinite",
						"supportsInterface(bytes4)": "470",
						"userAddress()": "infinite"
					}
				},
				"methodIdentifiers": {
					"ADMIN()": "2a0acc6a",
					"Admin(uint256)": "7c98fa13",
					"AdminUserMapping(address)": "ee2f8db1",
					"CANDIDATE()": "cb26765f",
					"Candidate(uint256)": "e2f11b9c",
					"CandidateMapping(address)": "17be9046",
					"DEFAULT_ADMIN_ROLE()": "a217fddf",
					"DEPLOYER()": "c1b8411a",
					"USER()": "81e167cf",
					"User(uint256)": "3fbb468a",
					"UserMapping(address)": "d61ff68c",
					"adminAddress()": "fc6f9468",
					"candidateAddress()": "1daa7a38",
					"decrementVotingPowerForAdmin(address)": "880baf27",
					"decrementVotingPowerForUser(address)": "5691e3dd",
					"getAdminDetailsByAddress(address)": "f1a89faa",
					"getCandidateDetailsByAddress(address)": "08211bc5",
					"getRoleAdmin(bytes32)": "248a9ca3",
					"getRoleOfAddress(address,bytes32)": "4a65ec81",
					"getUserDetailsByAddress(address)": "5393edab",
					"grantRole(bytes32,address)": "2f2ff15d",
					"hasRole(bytes32,address)": "91d14854",
					"incrementVotingPowerForAdmin(address)": "3abd00a3",
					"incrementVotingPowerForUser(address)": "c8bd3a3e",
					"renounceRole(bytes32,address)": "36568abe",
					"requestToBeAddedAsUser(address,string,string)": "7155eb3b",
					"revokeRole(bytes32,address)": "d547741f",
					"supportsInterface(bytes4)": "01ffc9a7",
					"userAddress()": "e4128fb3"
				}
			},
			"storageLayout": {
				"storage": [
					{
						"astId": 26,
						"contract": "contracts/AppAccessControl.sol:AppAccessControl",
						"label": "_roles",
						"offset": 0,
						"slot": "0",
						"type": "t_mapping(t_bytes32,t_struct(RoleData)21_storage)"
					},
					{
						"astId": 478,
						"contract": "contracts/AppAccessControl.sol:AppAccessControl",
						"label": "UserMapping",
						"offset": 0,
						"slot": "1",
						"type": "t_mapping(t_address,t_struct(UserType)506_storage)"
					},
					{
						"astId": 481,
						"contract": "contracts/AppAccessControl.sol:AppAccessControl",
						"label": "User",
						"offset": 0,
						"slot": "2",
						"type": "t_array(t_address)dyn_storage"
					},
					{
						"astId": 486,
						"contract": "contracts/AppAccessControl.sol:AppAccessControl",
						"label": "CandidateMapping",
						"offset": 0,
						"slot": "3",
						"type": "t_mapping(t_address,t_struct(CandidateType)521_storage)"
					},
					{
						"astId": 489,
						"contract": "contracts/AppAccessControl.sol:AppAccessControl",
						"label": "Candidate",
						"offset": 0,
						"slot": "4",
						"type": "t_array(t_address)dyn_storage"
					},
					{
						"astId": 494,
						"contract": "contracts/AppAccessControl.sol:AppAccessControl",
						"label": "AdminUserMapping",
						"offset": 0,
						"slot": "5",
						"type": "t_mapping(t_address,t_struct(AdminUserType)514_storage)"
					},
					{
						"astId": 497,
						"contract": "contracts/AppAccessControl.sol:AppAccessControl",
						"label": "Admin",
						"offset": 0,
						"slot": "6",
						"type": "t_array(t_address)dyn_storage"
					}
				],
				"types": {
					"t_address": {
						"encoding": "inplace",
						"label": "address",
						"numberOfBytes": "20"
					},
					"t_array(t_address)dyn_storage": {
						"base": "t_address",
						"encoding": "dynamic_array",
						"label": "address[]",
						"numberOfBytes": "32"
					},
					"t_bool": {
						"encoding": "inplace",
						"label": "bool",
						"numberOfBytes": "1"
					},
					"t_bytes32": {
						"encoding": "inplace",
						"label": "bytes32",
						"numberOfBytes": "32"
					},
					"t_mapping(t_address,t_bool)": {
						"encoding": "mapping",
						"key": "t_address",
						"label": "mapping(address => bool)",
						"numberOfBytes": "32",
						"value": "t_bool"
					},
					"t_mapping(t_address,t_struct(AdminUserType)514_storage)": {
						"encoding": "mapping",
						"key": "t_address",
						"label": "mapping(address => struct AppAccessControl.AdminUserType)",
						"numberOfBytes": "32",
						"value": "t_struct(AdminUserType)514_storage"
					},
					"t_mapping(t_address,t_struct(CandidateType)521_storage)": {
						"encoding": "mapping",
						"key": "t_address",
						"label": "mapping(address => struct AppAccessControl.CandidateType)",
						"numberOfBytes": "32",
						"value": "t_struct(CandidateType)521_storage"
					},
					"t_mapping(t_address,t_struct(UserType)506_storage)": {
						"encoding": "mapping",
						"key": "t_address",
						"label": "mapping(address => struct AppAccessControl.UserType)",
						"numberOfBytes": "32",
						"value": "t_struct(UserType)506_storage"
					},
					"t_mapping(t_bytes32,t_struct(RoleData)21_storage)": {
						"encoding": "mapping",
						"key": "t_bytes32",
						"label": "mapping(bytes32 => struct AccessControl.RoleData)",
						"numberOfBytes": "32",
						"value": "t_struct(RoleData)21_storage"
					},
					"t_string_storage": {
						"encoding": "bytes",
						"label": "string",
						"numberOfBytes": "32"
					},
					"t_struct(AdminUserType)514_storage": {
						"encoding": "inplace",
						"label": "struct AppAccessControl.AdminUserType",
						"members": [
							{
								"astId": 513,
								"contract": "contracts/AppAccessControl.sol:AppAccessControl",
								"label": "VotingPower",
								"offset": 0,
								"slot": "0",
								"type": "t_uint256"
							}
						],
						"numberOfBytes": "32"
					},
					"t_struct(CandidateType)521_storage": {
						"encoding": "inplace",
						"label": "struct AppAccessControl.CandidateType",
						"members": [
							{
								"astId": 516,
								"contract": "contracts/AppAccessControl.sol:AppAccessControl",
								"label": "Name",
								"offset": 0,
								"slot": "0",
								"type": "t_string_storage"
							},
							{
								"astId": 518,
								"contract": "contracts/AppAccessControl.sol:AppAccessControl",
								"label": "CandidateAddress",
								"offset": 0,
								"slot": "1",
								"type": "t_address"
							},
							{
								"astId": 520,
								"contract": "contracts/AppAccessControl.sol:AppAccessControl",
								"label": "Region",
								"offset": 0,
								"slot": "2",
								"type": "t_string_storage"
							}
						],
						"numberOfBytes": "96"
					},
					"t_struct(RoleData)21_storage": {
						"encoding": "inplace",
						"label": "struct AccessControl.RoleData",
						"members": [
							{
								"astId": 18,
								"contract": "contracts/AppAccessControl.sol:AppAccessControl",
								"label": "hasRole",
								"offset": 0,
								"slot": "0",
								"type": "t_mapping(t_address,t_bool)"
							},
							{
								"astId": 20,
								"contract": "contracts/AppAccessControl.sol:AppAccessControl",
								"label": "adminRole",
								"offset": 0,
								"slot": "1",
								"type": "t_bytes32"
							}
						],
						"numberOfBytes": "64"
					},
					"t_struct(UserType)506_storage": {
						"encoding": "inplace",
						"label": "struct AppAccessControl.UserType",
						"members": [
							{
								"astId": 499,
								"contract": "contracts/AppAccessControl.sol:AppAccessControl",
								"label": "Name",
								"offset": 0,
								"slot": "0",
								"type": "t_string_storage"
							},
							{
								"astId": 501,
								"contract": "contracts/AppAccessControl.sol:AppAccessControl",
								"label": "UserAddress",
								"offset": 0,
								"slot": "1",
								"type": "t_address"
							},
							{
								"astId": 503,
								"contract": "contracts/AppAccessControl.sol:AppAccessControl",
								"label": "Region",
								"offset": 0,
								"slot": "2",
								"type": "t_string_storage"
							},
							{
								"astId": 505,
								"contract": "contracts/AppAccessControl.sol:AppAccessControl",
								"label": "VotingPower",
								"offset": 0,
								"slot": "3",
								"type": "t_uint256"
							}
						],
						"numberOfBytes": "128"
					},
					"t_uint256": {
						"encoding": "inplace",
						"label": "uint256",
						"numberOfBytes": "32"
					}
				}
			},
			"userdoc": {
				"kind": "user",
				"methods": {},
				"version": 1
			}
		}
	}
}