{
	"data": {
		"bytecode": {
			"linkReferences": {},
			"object": "61142161004d600b8282823980515f1a6073146041577f4e487b71000000000000000000000000000000000000000000000000000000005f525f60045260245ffd5b305f52607381538281f3fe730000000000000000000000000000000000000000301460806040526004361061003f575f3560e01c8063315f706d14610043578063c802fd6314610073575b5f80fd5b61005d60048036038101906100589190611003565b6100a8565b60405161006a91906110a4565b60405180910390f35b61008d600480360381019061008891906110e7565b610168565b60405161009f96959493929190611130565b60405180910390f35b5f6100b78787878787876101d5565b6100bf575f80fd5b5f6100ca8189610265565b90506100d68888610390565b816100e191906111bc565b9050620151806001876100f491906111ef565b60ff166101019190611223565b8161010c91906111bc565b9050610e108560ff1661011f9190611223565b8161012a91906111bc565b9050603c8460ff1661013c9190611223565b8161014791906111bc565b90508260ff168161015891906111bc565b9050809150509695505050505050565b5f805f805f805f87905061017b81610587565b809850819250505061018d81886107f4565b809750819250505061019e81610b6e565b80965081925050506101af81610bb6565b80955081925050506101c081610bcd565b80945081925050508091505091939550919395565b5f6101df87610be3565b6101eb575f905061025b565b6101f486610c14565b610200575f905061025b565b61020b878787610c41565b610217575f905061025b565b61022084610d55565b61022c575f905061025b565b61023583610d74565b610241575f905061025b565b61024a82610d93565b610256575f905061025b565b600190505b9695505050505050565b5f805f8490506107b48461ffff1610156102ac576301e133806107b28561028c9190611264565b61ffff1661029a9190611223565b816102a591906111bc565b9050610385565b6301e1338060026102bd9190611223565b816102c891906111bc565b90506107b491506107d08461ffff161061033d576334aadc80816102ec91906111bc565b90506107d091506103078483836101906402f0605980610db2565b809250819350505061031a848383610e17565b8092508193505050610334848383606463bc17c200610db2565b80925081935050505b61034f84838360046307861f80610db2565b8092508193505050610362848383610e17565b809250819350505061037c84838360016301e13380610db2565b80925081935050505b809250505092915050565b5f610399610f4c565b6103a284610e78565b1561047e57604051806101a001604052805f63ffffffff1681526020016228de8063ffffffff168152602001624f1a0063ffffffff1681526020016277f88063ffffffff168152602001629f858063ffffffff16815260200162c8640063ffffffff16815260200162eff10063ffffffff168152602001630118cf8063ffffffff168152602001630141ae0063ffffffff1681526020016301693b0063ffffffff168152602001630192198063ffffffff1681526020016301b9a68063ffffffff1681526020016301e2850063ffffffff168152509050610551565b604051806101a001604052805f63ffffffff1681526020016228de8063ffffffff168152602001624dc88063ffffffff1681526020016276a70063ffffffff168152602001629e340063ffffffff16815260200162c7128063ffffffff16815260200162ee9f8063ffffffff1681526020016301177e0063ffffffff1681526020016301405c8063ffffffff168152602001630167e98063ffffffff168152602001630190c80063ffffffff1681526020016301b8550063ffffffff1681526020016301e1338063ffffffff1681525090505b8060018461055f91906111ef565b60ff16600d811061057357610572611299565b5b602002015163ffffffff1691505092915050565b5f805f808493506107b292506301e1338060026105a49190611223565b8410156105ed576301e13380846105bb91906112f3565b91506301e13380826105cd9190611223565b846105d89190611323565b935081836105e69190611356565b92506107ed565b6301e1338060026105fe9190611223565b846106099190611323565b93506107b492506334aadc80841061071c576334aadc808461062b9190611323565b9350601c8361063a9190611356565b92506402f06059808461064d91906112f3565b91506402f0605980826106609190611223565b8461066b9190611323565b93506101908261067b9190611223565b836106869190611356565b925061069183610ede565b90508063ffffffff1684106106c4578063ffffffff16846106b29190611323565b93506001836106c19190611356565b92505b6106cd83610e78565b61071b5763bc17c200846106e191906112f3565b915063bc17c200826106f39190611223565b846106fe9190611323565b935060648261070d9190611223565b836107189190611356565b92505b5b6307861f808461072c91906112f3565b91506307861f808261073e9190611223565b846107499190611323565b93506004826107589190611223565b836107639190611356565b925061076e83610ede565b90508063ffffffff1684106107a1578063ffffffff168461078f9190611323565b935060018361079e9190611356565b92505b6107aa83610e78565b6107ec576301e13380846107be91906112f3565b91506301e13380826107d09190611223565b846107db9190611323565b935081836107e99190611356565b92505b5b5050915091565b5f806107fe610f6f565b610806610f4c565b85935061081285610e78565b1561097b57604051806101a001604052805f60ff168152602001601f60ff168152602001601d60ff168152602001601f60ff168152602001601e60ff168152602001601f60ff168152602001601e60ff168152602001601f60ff168152602001601f60ff168152602001601e60ff168152602001601f60ff168152602001601e60ff168152602001601f60ff168152509150604051806101a001604052805f63ffffffff1681526020016228de8063ffffffff168152602001624f1a0063ffffffff1681526020016277f88063ffffffff168152602001629f858063ffffffff16815260200162c8640063ffffffff16815260200162eff10063ffffffff168152602001630118cf8063ffffffff168152602001630141ae0063ffffffff1681526020016301693b0063ffffffff168152602001630192198063ffffffff1681526020016301b9a68063ffffffff1681526020016301e2850063ffffffff168152509050610adb565b604051806101a001604052805f60ff168152602001601f60ff168152602001601c60ff168152602001601f60ff168152602001601e60ff168152602001601f60ff168152602001601e60ff168152602001601f60ff168152602001601f60ff168152602001601e60ff168152602001601f60ff168152602001601e60ff168152602001601f60ff168152509150604051806101a001604052805f63ffffffff1681526020016228de8063ffffffff168152602001624dc88063ffffffff1681526020016276a70063ffffffff168152602001629e340063ffffffff16815260200162c7128063ffffffff16815260200162ee9f8063ffffffff1681526020016301177e0063ffffffff1681526020016301405c8063ffffffff168152602001630167e98063ffffffff168152602001630190c80063ffffffff1681526020016301b8550063ffffffff1681526020016301e1338063ffffffff1681525090505b5f600190505b600d8160ff161015610b6457818160ff16600d8110610b0357610b02611299565b5b602002015163ffffffff16851015610b575780935081600182610b2691906111ef565b60ff16600d8110610b3a57610b39611299565b5b602002015163ffffffff1685610b509190611323565b9450610b64565b8080600101915050610ae1565b5050509250929050565b5f805f8392506201518083610b8391906112f3565b90506201518081610b949190611223565b83610b9f9190611323565b9250600181610bae91906111bc565b915050915091565b5f80610bc483610e10610f14565b91509150915091565b5f80610bda83603c610f14565b91509150915091565b5f6107b28261ffff161080610bfd575061270f8261ffff16115b15610c0a575f9050610c0f565b600190505b919050565b5f60018260ff161080610c2a5750600c8260ff16115b15610c37575f9050610c3c565b600190505b919050565b5f80604051806101a001604052805f60ff168152602001601f60ff168152602001601c60ff168152602001601f60ff168152602001601e60ff168152602001601f60ff168152602001601e60ff168152602001601f60ff168152602001601f60ff168152602001601e60ff168152602001601f60ff168152602001601e60ff168152602001601f60ff1681525090505f808460ff1603610ce5575f92505050610d4e565b60028560ff1603610d1157610cf986610e78565b15610d0757601d9050610d0c565b601c90505b610d2f565b818560ff16600d8110610d2757610d26611299565b5b602002015190505b8060ff168460ff161115610d47575f92505050610d4e565b6001925050505b9392505050565b5f60178260ff161115610d6a575f9050610d6f565b600190505b919050565b5f603b8260ff161115610d89575f9050610d8e565b600190505b919050565b5f603b8260ff161115610da8575f9050610dad565b600190505b919050565b5f805f848789610dc29190611264565b610dcc919061138b565b61ffff1690508461ffff1681610de29190611223565b8761ffff16610df191906111bc565b92508381610dff9190611223565b86610e0a91906111bc565b9150509550959350505050565b5f808391508290508461ffff168261ffff16108015610e3b5750610e3a82610e78565b5b15610e7057600182610e4d9190611356565b9150620151806301e13380610e6291906111bc565b81610e6d91906111bc565b90505b935093915050565b5f80600483610e8791906113bb565b61ffff1614610e98575f9050610ed9565b5f61019083610ea791906113bb565b61ffff161480610ec757505f606483610ec091906113bb565b61ffff1614155b15610ed55760019050610ed9565b5f90505b919050565b5f610ee882610e78565b15610f0757620151806301e13380610f0091906111bc565b9050610f0f565b6301e1338090505b919050565b5f805f8492508383610f2691906112f3565b90508381610f349190611223565b83610f3f9190611323565b9250809150509250929050565b604051806101a00160405280600d90602082028036833780820191505090505090565b604051806101a00160405280600d90602082028036833780820191505090505090565b5f80fd5b5f61ffff82169050919050565b610fac81610f96565b8114610fb6575f80fd5b50565b5f81359050610fc781610fa3565b92915050565b5f60ff82169050919050565b610fe281610fcd565b8114610fec575f80fd5b50565b5f81359050610ffd81610fd9565b92915050565b5f805f805f8060c0878903121561101d5761101c610f92565b5b5f61102a89828a01610fb9565b965050602061103b89828a01610fef565b955050604061104c89828a01610fef565b945050606061105d89828a01610fef565b935050608061106e89828a01610fef565b92505060a061107f89828a01610fef565b9150509295509295509295565b5f819050919050565b61109e8161108c565b82525050565b5f6020820190506110b75f830184611095565b92915050565b6110c68161108c565b81146110d0575f80fd5b50565b5f813590506110e1816110bd565b92915050565b5f602082840312156110fc576110fb610f92565b5b5f611109848285016110d3565b91505092915050565b61111b81610f96565b82525050565b61112a81610fcd565b82525050565b5f60c0820190506111435f830189611112565b6111506020830188611121565b61115d6040830187611121565b61116a6060830186611121565b6111776080830185611121565b61118460a0830184611121565b979650505050505050565b7f4e487b71000000000000000000000000000000000000000000000000000000005f52601160045260245ffd5b5f6111c68261108c565b91506111d18361108c565b92508282019050808211156111e9576111e861118f565b5b92915050565b5f6111f982610fcd565b915061120483610fcd565b9250828203905060ff81111561121d5761121c61118f565b5b92915050565b5f61122d8261108c565b91506112388361108c565b92508282026112468161108c565b9150828204841483151761125d5761125c61118f565b5b5092915050565b5f61126e82610f96565b915061127983610f96565b9250828203905061ffff8111156112935761129261118f565b5b92915050565b7f4e487b71000000000000000000000000000000000000000000000000000000005f52603260045260245ffd5b7f4e487b71000000000000000000000000000000000000000000000000000000005f52601260045260245ffd5b5f6112fd8261108c565b91506113088361108c565b925082611318576113176112c6565b5b828204905092915050565b5f61132d8261108c565b91506113388361108c565b92508282039050818111156113505761134f61118f565b5b92915050565b5f61136082610f96565b915061136b83610f96565b9250828201905061ffff8111156113855761138461118f565b5b92915050565b5f61139582610f96565b91506113a083610f96565b9250826113b0576113af6112c6565b5b828204905092915050565b5f6113c582610f96565b91506113d083610f96565b9250826113e0576113df6112c6565b5b82820690509291505056fea2646970667358221220db74599890d987275ef7b7aef15231310c10bbce5562ddef01e0e836290c30bd64736f6c63430008190033",
			"opcodes": "PUSH2 0x1421 PUSH2 0x4D PUSH1 0xB DUP3 DUP3 DUP3 CODECOPY DUP1 MLOAD PUSH0 BYTE PUSH1 0x73 EQ PUSH1 0x41 JUMPI PUSH32 0x4E487B7100000000000000000000000000000000000000000000000000000000 PUSH0 MSTORE PUSH0 PUSH1 0x4 MSTORE PUSH1 0x24 PUSH0 REVERT JUMPDEST ADDRESS PUSH0 MSTORE PUSH1 0x73 DUP2 MSTORE8 DUP3 DUP2 RETURN INVALID PUSH20 0x0 ADDRESS EQ PUSH1 0x80 PUSH1 0x40 MSTORE PUSH1 0x4 CALLDATASIZE LT PUSH2 0x3F JUMPI PUSH0 CALLDATALOAD PUSH1 0xE0 SHR DUP1 PUSH4 0x315F706D EQ PUSH2 0x43 JUMPI DUP1 PUSH4 0xC802FD63 EQ PUSH2 0x73 JUMPI JUMPDEST PUSH0 DUP1 REVERT JUMPDEST PUSH2 0x5D PUSH1 0x4 DUP1 CALLDATASIZE SUB DUP2 ADD SWAP1 PUSH2 0x58 SWAP2 SWAP1 PUSH2 0x1003 JUMP JUMPDEST PUSH2 0xA8 JUMP JUMPDEST PUSH1 0x40 MLOAD PUSH2 0x6A SWAP2 SWAP1 PUSH2 0x10A4 JUMP JUMPDEST PUSH1 0x40 MLOAD DUP1 SWAP2 SUB SWAP1 RETURN JUMPDEST PUSH2 0x8D PUSH1 0x4 DUP1 CALLDATASIZE SUB DUP2 ADD SWAP1 PUSH2 0x88 SWAP2 SWAP1 PUSH2 0x10E7 JUMP JUMPDEST PUSH2 0x168 JUMP JUMPDEST PUSH1 0x40 MLOAD PUSH2 0x9F SWAP7 SWAP6 SWAP5 SWAP4 SWAP3 SWAP2 SWAP1 PUSH2 0x1130 JUMP JUMPDEST PUSH1 0x40 MLOAD DUP1 SWAP2 SUB SWAP1 RETURN JUMPDEST PUSH0 PUSH2 0xB7 DUP8 DUP8 DUP8 DUP8 DUP8 DUP8 PUSH2 0x1D5 JUMP JUMPDEST PUSH2 0xBF JUMPI PUSH0 DUP1 REVERT JUMPDEST PUSH0 PUSH2 0xCA DUP2 DUP10 PUSH2 0x265 JUMP JUMPDEST SWAP1 POP PUSH2 0xD6 DUP9 DUP9 PUSH2 0x390 JUMP JUMPDEST DUP2 PUSH2 0xE1 SWAP2 SWAP1 PUSH2 0x11BC JUMP JUMPDEST SWAP1 POP PUSH3 0x15180 PUSH1 0x1 DUP8 PUSH2 0xF4 SWAP2 SWAP1 PUSH2 0x11EF JUMP JUMPDEST PUSH1 0xFF AND PUSH2 0x101 SWAP2 SWAP1 PUSH2 0x1223 JUMP JUMPDEST DUP2 PUSH2 0x10C SWAP2 SWAP1 PUSH2 0x11BC JUMP JUMPDEST SWAP1 POP PUSH2 0xE10 DUP6 PUSH1 0xFF AND PUSH2 0x11F SWAP2 SWAP1 PUSH2 0x1223 JUMP JUMPDEST DUP2 PUSH2 0x12A SWAP2 SWAP1 PUSH2 0x11BC JUMP JUMPDEST SWAP1 POP PUSH1 0x3C DUP5 PUSH1 0xFF AND PUSH2 0x13C SWAP2 SWAP1 PUSH2 0x1223 JUMP JUMPDEST DUP2 PUSH2 0x147 SWAP2 SWAP1 PUSH2 0x11BC JUMP JUMPDEST SWAP1 POP DUP3 PUSH1 0xFF AND DUP2 PUSH2 0x158 SWAP2 SWAP1 PUSH2 0x11BC JUMP JUMPDEST SWAP1 POP DUP1 SWAP2 POP POP SWAP7 SWAP6 POP POP POP POP POP POP JUMP JUMPDEST PUSH0 DUP1 PUSH0 DUP1 PUSH0 DUP1 PUSH0 DUP8 SWAP1 POP PUSH2 0x17B DUP2 PUSH2 0x587 JUMP JUMPDEST DUP1 SWAP9 POP DUP2 SWAP3 POP POP POP PUSH2 0x18D DUP2 DUP9 PUSH2 0x7F4 JUMP JUMPDEST DUP1 SWAP8 POP DUP2 SWAP3 POP POP POP PUSH2 0x19E DUP2 PUSH2 0xB6E JUMP JUMPDEST DUP1 SWAP7 POP DUP2 SWAP3 POP POP POP PUSH2 0x1AF DUP2 PUSH2 0xBB6 JUMP JUMPDEST DUP1 SWAP6 POP DUP2 SWAP3 POP POP POP PUSH2 0x1C0 DUP2 PUSH2 0xBCD JUMP JUMPDEST DUP1 SWAP5 POP DUP2 SWAP3 POP POP POP DUP1 SWAP2 POP POP SWAP2 SWAP4 SWAP6 POP SWAP2 SWAP4 SWAP6 JUMP JUMPDEST PUSH0 PUSH2 0x1DF DUP8 PUSH2 0xBE3 JUMP JUMPDEST PUSH2 0x1EB JUMPI PUSH0 SWAP1 POP PUSH2 0x25B JUMP JUMPDEST PUSH2 0x1F4 DUP7 PUSH2 0xC14 JUMP JUMPDEST PUSH2 0x200 JUMPI PUSH0 SWAP1 POP PUSH2 0x25B JUMP JUMPDEST PUSH2 0x20B DUP8 DUP8 DUP8 PUSH2 0xC41 JUMP JUMPDEST PUSH2 0x217 JUMPI PUSH0 SWAP1 POP PUSH2 0x25B JUMP JUMPDEST PUSH2 0x220 DUP5 PUSH2 0xD55 JUMP JUMPDEST PUSH2 0x22C JUMPI PUSH0 SWAP1 POP PUSH2 0x25B JUMP JUMPDEST PUSH2 0x235 DUP4 PUSH2 0xD74 JUMP JUMPDEST PUSH2 0x241 JUMPI PUSH0 SWAP1 POP PUSH2 0x25B JUMP JUMPDEST PUSH2 0x24A DUP3 PUSH2 0xD93 JUMP JUMPDEST PUSH2 0x256 JUMPI PUSH0 SWAP1 POP PUSH2 0x25B JUMP JUMPDEST PUSH1 0x1 SWAP1 POP JUMPDEST SWAP7 SWAP6 POP POP POP POP POP POP JUMP JUMPDEST PUSH0 DUP1 PUSH0 DUP5 SWAP1 POP PUSH2 0x7B4 DUP5 PUSH2 0xFFFF AND LT ISZERO PUSH2 0x2AC JUMPI PUSH4 0x1E13380 PUSH2 0x7B2 DUP6 PUSH2 0x28C SWAP2 SWAP1 PUSH2 0x1264 JUMP JUMPDEST PUSH2 0xFFFF AND PUSH2 0x29A SWAP2 SWAP1 PUSH2 0x1223 JUMP JUMPDEST DUP2 PUSH2 0x2A5 SWAP2 SWAP1 PUSH2 0x11BC JUMP JUMPDEST SWAP1 POP PUSH2 0x385 JUMP JUMPDEST PUSH4 0x1E13380 PUSH1 0x2 PUSH2 0x2BD SWAP2 SWAP1 PUSH2 0x1223 JUMP JUMPDEST DUP2 PUSH2 0x2C8 SWAP2 SWAP1 PUSH2 0x11BC JUMP JUMPDEST SWAP1 POP PUSH2 0x7B4 SWAP2 POP PUSH2 0x7D0 DUP5 PUSH2 0xFFFF AND LT PUSH2 0x33D JUMPI PUSH4 0x34AADC80 DUP2 PUSH2 0x2EC SWAP2 SWAP1 PUSH2 0x11BC JUMP JUMPDEST SWAP1 POP PUSH2 0x7D0 SWAP2 POP PUSH2 0x307 DUP5 DUP4 DUP4 PUSH2 0x190 PUSH5 0x2F0605980 PUSH2 0xDB2 JUMP JUMPDEST DUP1 SWAP3 POP DUP2 SWAP4 POP POP POP PUSH2 0x31A DUP5 DUP4 DUP4 PUSH2 0xE17 JUMP JUMPDEST DUP1 SWAP3 POP DUP2 SWAP4 POP POP POP PUSH2 0x334 DUP5 DUP4 DUP4 PUSH1 0x64 PUSH4 0xBC17C200 PUSH2 0xDB2 JUMP JUMPDEST DUP1 SWAP3 POP DUP2 SWAP4 POP POP POP JUMPDEST PUSH2 0x34F DUP5 DUP4 DUP4 PUSH1 0x4 PUSH4 0x7861F80 PUSH2 0xDB2 JUMP JUMPDEST DUP1 SWAP3 POP DUP2 SWAP4 POP POP POP PUSH2 0x362 DUP5 DUP4 DUP4 PUSH2 0xE17 JUMP JUMPDEST DUP1 SWAP3 POP DUP2 SWAP4 POP POP POP PUSH2 0x37C DUP5 DUP4 DUP4 PUSH1 0x1 PUSH4 0x1E13380 PUSH2 0xDB2 JUMP JUMPDEST DUP1 SWAP3 POP DUP2 SWAP4 POP POP POP JUMPDEST DUP1 SWAP3 POP POP POP SWAP3 SWAP2 POP POP JUMP JUMPDEST PUSH0 PUSH2 0x399 PUSH2 0xF4C JUMP JUMPDEST PUSH2 0x3A2 DUP5 PUSH2 0xE78 JUMP JUMPDEST ISZERO PUSH2 0x47E JUMPI PUSH1 0x40 MLOAD DUP1 PUSH2 0x1A0 ADD PUSH1 0x40 MSTORE DUP1 PUSH0 PUSH4 0xFFFFFFFF AND DUP2 MSTORE PUSH1 0x20 ADD PUSH3 0x28DE80 PUSH4 0xFFFFFFFF AND DUP2 MSTORE PUSH1 0x20 ADD PUSH3 0x4F1A00 PUSH4 0xFFFFFFFF AND DUP2 MSTORE PUSH1 0x20 ADD PUSH3 0x77F880 PUSH4 0xFFFFFFFF AND DUP2 MSTORE PUSH1 0x20 ADD PUSH3 0x9F8580 PUSH4 0xFFFFFFFF AND DUP2 MSTORE PUSH1 0x20 ADD PUSH3 0xC86400 PUSH4 0xFFFFFFFF AND DUP2 MSTORE PUSH1 0x20 ADD PUSH3 0xEFF100 PUSH4 0xFFFFFFFF AND DUP2 MSTORE PUSH1 0x20 ADD PUSH4 0x118CF80 PUSH4 0xFFFFFFFF AND DUP2 MSTORE PUSH1 0x20 ADD PUSH4 0x141AE00 PUSH4 0xFFFFFFFF AND DUP2 MSTORE PUSH1 0x20 ADD PUSH4 0x1693B00 PUSH4 0xFFFFFFFF AND DUP2 MSTORE PUSH1 0x20 ADD PUSH4 0x1921980 PUSH4 0xFFFFFFFF AND DUP2 MSTORE PUSH1 0x20 ADD PUSH4 0x1B9A680 PUSH4 0xFFFFFFFF AND DUP2 MSTORE PUSH1 0x20 ADD PUSH4 0x1E28500 PUSH4 0xFFFFFFFF AND DUP2 MSTORE POP SWAP1 POP PUSH2 0x551 JUMP JUMPDEST PUSH1 0x40 MLOAD DUP1 PUSH2 0x1A0 ADD PUSH1 0x40 MSTORE DUP1 PUSH0 PUSH4 0xFFFFFFFF AND DUP2 MSTORE PUSH1 0x20 ADD PUSH3 0x28DE80 PUSH4 0xFFFFFFFF AND DUP2 MSTORE PUSH1 0x20 ADD PUSH3 0x4DC880 PUSH4 0xFFFFFFFF AND DUP2 MSTORE PUSH1 0x20 ADD PUSH3 0x76A700 PUSH4 0xFFFFFFFF AND DUP2 MSTORE PUSH1 0x20 ADD PUSH3 0x9E3400 PUSH4 0xFFFFFFFF AND DUP2 MSTORE PUSH1 0x20 ADD PUSH3 0xC71280 PUSH4 0xFFFFFFFF AND DUP2 MSTORE PUSH1 0x20 ADD PUSH3 0xEE9F80 PUSH4 0xFFFFFFFF AND DUP2 MSTORE PUSH1 0x20 ADD PUSH4 0x1177E00 PUSH4 0xFFFFFFFF AND DUP2 MSTORE PUSH1 0x20 ADD PUSH4 0x1405C80 PUSH4 0xFFFFFFFF AND DUP2 MSTORE PUSH1 0x20 ADD PUSH4 0x167E980 PUSH4 0xFFFFFFFF AND DUP2 MSTORE PUSH1 0x20 ADD PUSH4 0x190C800 PUSH4 0xFFFFFFFF AND DUP2 MSTORE PUSH1 0x20 ADD PUSH4 0x1B85500 PUSH4 0xFFFFFFFF AND DUP2 MSTORE PUSH1 0x20 ADD PUSH4 0x1E13380 PUSH4 0xFFFFFFFF AND DUP2 MSTORE POP SWAP1 POP JUMPDEST DUP1 PUSH1 0x1 DUP5 PUSH2 0x55F SWAP2 SWAP1 PUSH2 0x11EF JUMP JUMPDEST PUSH1 0xFF AND PUSH1 0xD DUP2 LT PUSH2 0x573 JUMPI PUSH2 0x572 PUSH2 0x1299 JUMP JUMPDEST JUMPDEST PUSH1 0x20 MUL ADD MLOAD PUSH4 0xFFFFFFFF AND SWAP2 POP POP SWAP3 SWAP2 POP POP JUMP JUMPDEST PUSH0 DUP1 PUSH0 DUP1 DUP5 SWAP4 POP PUSH2 0x7B2 SWAP3 POP PUSH4 0x1E13380 PUSH1 0x2 PUSH2 0x5A4 SWAP2 SWAP1 PUSH2 0x1223 JUMP JUMPDEST DUP5 LT ISZERO PUSH2 0x5ED JUMPI PUSH4 0x1E13380 DUP5 PUSH2 0x5BB SWAP2 SWAP1 PUSH2 0x12F3 JUMP JUMPDEST SWAP2 POP PUSH4 0x1E13380 DUP3 PUSH2 0x5CD SWAP2 SWAP1 PUSH2 0x1223 JUMP JUMPDEST DUP5 PUSH2 0x5D8 SWAP2 SWAP1 PUSH2 0x1323 JUMP JUMPDEST SWAP4 POP DUP2 DUP4 PUSH2 0x5E6 SWAP2 SWAP1 PUSH2 0x1356 JUMP JUMPDEST SWAP3 POP PUSH2 0x7ED JUMP JUMPDEST PUSH4 0x1E13380 PUSH1 0x2 PUSH2 0x5FE SWAP2 SWAP1 PUSH2 0x1223 JUMP JUMPDEST DUP5 PUSH2 0x609 SWAP2 SWAP1 PUSH2 0x1323 JUMP JUMPDEST SWAP4 POP PUSH2 0x7B4 SWAP3 POP PUSH4 0x34AADC80 DUP5 LT PUSH2 0x71C JUMPI PUSH4 0x34AADC80 DUP5 PUSH2 0x62B SWAP2 SWAP1 PUSH2 0x1323 JUMP JUMPDEST SWAP4 POP PUSH1 0x1C DUP4 PUSH2 0x63A SWAP2 SWAP1 PUSH2 0x1356 JUMP JUMPDEST SWAP3 POP PUSH5 0x2F0605980 DUP5 PUSH2 0x64D SWAP2 SWAP1 PUSH2 0x12F3 JUMP JUMPDEST SWAP2 POP PUSH5 0x2F0605980 DUP3 PUSH2 0x660 SWAP2 SWAP1 PUSH2 0x1223 JUMP JUMPDEST DUP5 PUSH2 0x66B SWAP2 SWAP1 PUSH2 0x1323 JUMP JUMPDEST SWAP4 POP PUSH2 0x190 DUP3 PUSH2 0x67B SWAP2 SWAP1 PUSH2 0x1223 JUMP JUMPDEST DUP4 PUSH2 0x686 SWAP2 SWAP1 PUSH2 0x1356 JUMP JUMPDEST SWAP3 POP PUSH2 0x691 DUP4 PUSH2 0xEDE JUMP JUMPDEST SWAP1 POP DUP1 PUSH4 0xFFFFFFFF AND DUP5 LT PUSH2 0x6C4 JUMPI DUP1 PUSH4 0xFFFFFFFF AND DUP5 PUSH2 0x6B2 SWAP2 SWAP1 PUSH2 0x1323 JUMP JUMPDEST SWAP4 POP PUSH1 0x1 DUP4 PUSH2 0x6C1 SWAP2 SWAP1 PUSH2 0x1356 JUMP JUMPDEST SWAP3 POP JUMPDEST PUSH2 0x6CD DUP4 PUSH2 0xE78 JUMP JUMPDEST PUSH2 0x71B JUMPI PUSH4 0xBC17C200 DUP5 PUSH2 0x6E1 SWAP2 SWAP1 PUSH2 0x12F3 JUMP JUMPDEST SWAP2 POP PUSH4 0xBC17C200 DUP3 PUSH2 0x6F3 SWAP2 SWAP1 PUSH2 0x1223 JUMP JUMPDEST DUP5 PUSH2 0x6FE SWAP2 SWAP1 PUSH2 0x1323 JUMP JUMPDEST SWAP4 POP PUSH1 0x64 DUP3 PUSH2 0x70D SWAP2 SWAP1 PUSH2 0x1223 JUMP JUMPDEST DUP4 PUSH2 0x718 SWAP2 SWAP1 PUSH2 0x1356 JUMP JUMPDEST SWAP3 POP JUMPDEST JUMPDEST PUSH4 0x7861F80 DUP5 PUSH2 0x72C SWAP2 SWAP1 PUSH2 0x12F3 JUMP JUMPDEST SWAP2 POP PUSH4 0x7861F80 DUP3 PUSH2 0x73E SWAP2 SWAP1 PUSH2 0x1223 JUMP JUMPDEST DUP5 PUSH2 0x749 SWAP2 SWAP1 PUSH2 0x1323 JUMP JUMPDEST SWAP4 POP PUSH1 0x4 DUP3 PUSH2 0x758 SWAP2 SWAP1 PUSH2 0x1223 JUMP JUMPDEST DUP4 PUSH2 0x763 SWAP2 SWAP1 PUSH2 0x1356 JUMP JUMPDEST SWAP3 POP PUSH2 0x76E DUP4 PUSH2 0xEDE JUMP JUMPDEST SWAP1 POP DUP1 PUSH4 0xFFFFFFFF AND DUP5 LT PUSH2 0x7A1 JUMPI DUP1 PUSH4 0xFFFFFFFF AND DUP5 PUSH2 0x78F SWAP2 SWAP1 PUSH2 0x1323 JUMP JUMPDEST SWAP4 POP PUSH1 0x1 DUP4 PUSH2 0x79E SWAP2 SWAP1 PUSH2 0x1356 JUMP JUMPDEST SWAP3 POP JUMPDEST PUSH2 0x7AA DUP4 PUSH2 0xE78 JUMP JUMPDEST PUSH2 0x7EC JUMPI PUSH4 0x1E13380 DUP5 PUSH2 0x7BE SWAP2 SWAP1 PUSH2 0x12F3 JUMP JUMPDEST SWAP2 POP PUSH4 0x1E13380 DUP3 PUSH2 0x7D0 SWAP2 SWAP1 PUSH2 0x1223 JUMP JUMPDEST DUP5 PUSH2 0x7DB SWAP2 SWAP1 PUSH2 0x1323 JUMP JUMPDEST SWAP4 POP DUP2 DUP4 PUSH2 0x7E9 SWAP2 SWAP1 PUSH2 0x1356 JUMP JUMPDEST SWAP3 POP JUMPDEST JUMPDEST POP POP SWAP2 POP SWAP2 JUMP JUMPDEST PUSH0 DUP1 PUSH2 0x7FE PUSH2 0xF6F JUMP JUMPDEST PUSH2 0x806 PUSH2 0xF4C JUMP JUMPDEST DUP6 SWAP4 POP PUSH2 0x812 DUP6 PUSH2 0xE78 JUMP JUMPDEST ISZERO PUSH2 0x97B JUMPI PUSH1 0x40 MLOAD DUP1 PUSH2 0x1A0 ADD PUSH1 0x40 MSTORE DUP1 PUSH0 PUSH1 0xFF AND DUP2 MSTORE PUSH1 0x20 ADD PUSH1 0x1F PUSH1 0xFF AND DUP2 MSTORE PUSH1 0x20 ADD PUSH1 0x1D PUSH1 0xFF AND DUP2 MSTORE PUSH1 0x20 ADD PUSH1 0x1F PUSH1 0xFF AND DUP2 MSTORE PUSH1 0x20 ADD PUSH1 0x1E PUSH1 0xFF AND DUP2 MSTORE PUSH1 0x20 ADD PUSH1 0x1F PUSH1 0xFF AND DUP2 MSTORE PUSH1 0x20 ADD PUSH1 0x1E PUSH1 0xFF AND DUP2 MSTORE PUSH1 0x20 ADD PUSH1 0x1F PUSH1 0xFF AND DUP2 MSTORE PUSH1 0x20 ADD PUSH1 0x1F PUSH1 0xFF AND DUP2 MSTORE PUSH1 0x20 ADD PUSH1 0x1E PUSH1 0xFF AND DUP2 MSTORE PUSH1 0x20 ADD PUSH1 0x1F PUSH1 0xFF AND DUP2 MSTORE PUSH1 0x20 ADD PUSH1 0x1E PUSH1 0xFF AND DUP2 MSTORE PUSH1 0x20 ADD PUSH1 0x1F PUSH1 0xFF AND DUP2 MSTORE POP SWAP2 POP PUSH1 0x40 MLOAD DUP1 PUSH2 0x1A0 ADD PUSH1 0x40 MSTORE DUP1 PUSH0 PUSH4 0xFFFFFFFF AND DUP2 MSTORE PUSH1 0x20 ADD PUSH3 0x28DE80 PUSH4 0xFFFFFFFF AND DUP2 MSTORE PUSH1 0x20 ADD PUSH3 0x4F1A00 PUSH4 0xFFFFFFFF AND DUP2 MSTORE PUSH1 0x20 ADD PUSH3 0x77F880 PUSH4 0xFFFFFFFF AND DUP2 MSTORE PUSH1 0x20 ADD PUSH3 0x9F8580 PUSH4 0xFFFFFFFF AND DUP2 MSTORE PUSH1 0x20 ADD PUSH3 0xC86400 PUSH4 0xFFFFFFFF AND DUP2 MSTORE PUSH1 0x20 ADD PUSH3 0xEFF100 PUSH4 0xFFFFFFFF AND DUP2 MSTORE PUSH1 0x20 ADD PUSH4 0x118CF80 PUSH4 0xFFFFFFFF AND DUP2 MSTORE PUSH1 0x20 ADD PUSH4 0x141AE00 PUSH4 0xFFFFFFFF AND DUP2 MSTORE PUSH1 0x20 ADD PUSH4 0x1693B00 PUSH4 0xFFFFFFFF AND DUP2 MSTORE PUSH1 0x20 ADD PUSH4 0x1921980 PUSH4 0xFFFFFFFF AND DUP2 MSTORE PUSH1 0x20 ADD PUSH4 0x1B9A680 PUSH4 0xFFFFFFFF AND DUP2 MSTORE PUSH1 0x20 ADD PUSH4 0x1E28500 PUSH4 0xFFFFFFFF AND DUP2 MSTORE POP SWAP1 POP PUSH2 0xADB JUMP JUMPDEST PUSH1 0x40 MLOAD DUP1 PUSH2 0x1A0 ADD PUSH1 0x40 MSTORE DUP1 PUSH0 PUSH1 0xFF AND DUP2 MSTORE PUSH1 0x20 ADD PUSH1 0x1F PUSH1 0xFF AND DUP2 MSTORE PUSH1 0x20 ADD PUSH1 0x1C PUSH1 0xFF AND DUP2 MSTORE PUSH1 0x20 ADD PUSH1 0x1F PUSH1 0xFF AND DUP2 MSTORE PUSH1 0x20 ADD PUSH1 0x1E PUSH1 0xFF AND DUP2 MSTORE PUSH1 0x20 ADD PUSH1 0x1F PUSH1 0xFF AND DUP2 MSTORE PUSH1 0x20 ADD PUSH1 0x1E PUSH1 0xFF AND DUP2 MSTORE PUSH1 0x20 ADD PUSH1 0x1F PUSH1 0xFF AND DUP2 MSTORE PUSH1 0x20 ADD PUSH1 0x1F PUSH1 0xFF AND DUP2 MSTORE PUSH1 0x20 ADD PUSH1 0x1E PUSH1 0xFF AND DUP2 MSTORE PUSH1 0x20 ADD PUSH1 0x1F PUSH1 0xFF AND DUP2 MSTORE PUSH1 0x20 ADD PUSH1 0x1E PUSH1 0xFF AND DUP2 MSTORE PUSH1 0x20 ADD PUSH1 0x1F PUSH1 0xFF AND DUP2 MSTORE POP SWAP2 POP PUSH1 0x40 MLOAD DUP1 PUSH2 0x1A0 ADD PUSH1 0x40 MSTORE DUP1 PUSH0 PUSH4 0xFFFFFFFF AND DUP2 MSTORE PUSH1 0x20 ADD PUSH3 0x28DE80 PUSH4 0xFFFFFFFF AND DUP2 MSTORE PUSH1 0x20 ADD PUSH3 0x4DC880 PUSH4 0xFFFFFFFF AND DUP2 MSTORE PUSH1 0x20 ADD PUSH3 0x76A700 PUSH4 0xFFFFFFFF AND DUP2 MSTORE PUSH1 0x20 ADD PUSH3 0x9E3400 PUSH4 0xFFFFFFFF AND DUP2 MSTORE PUSH1 0x20 ADD PUSH3 0xC71280 PUSH4 0xFFFFFFFF AND DUP2 MSTORE PUSH1 0x20 ADD PUSH3 0xEE9F80 PUSH4 0xFFFFFFFF AND DUP2 MSTORE PUSH1 0x20 ADD PUSH4 0x1177E00 PUSH4 0xFFFFFFFF AND DUP2 MSTORE PUSH1 0x20 ADD PUSH4 0x1405C80 PUSH4 0xFFFFFFFF AND DUP2 MSTORE PUSH1 0x20 ADD PUSH4 0x167E980 PUSH4 0xFFFFFFFF AND DUP2 MSTORE PUSH1 0x20 ADD PUSH4 0x190C800 PUSH4 0xFFFFFFFF AND DUP2 MSTORE PUSH1 0x20 ADD PUSH4 0x1B85500 PUSH4 0xFFFFFFFF AND DUP2 MSTORE PUSH1 0x20 ADD PUSH4 0x1E13380 PUSH4 0xFFFFFFFF AND DUP2 MSTORE POP SWAP1 POP JUMPDEST PUSH0 PUSH1 0x1 SWAP1 POP JUMPDEST PUSH1 0xD DUP2 PUSH1 0xFF AND LT ISZERO PUSH2 0xB64 JUMPI DUP2 DUP2 PUSH1 0xFF AND PUSH1 0xD DUP2 LT PUSH2 0xB03 JUMPI PUSH2 0xB02 PUSH2 0x1299 JUMP JUMPDEST JUMPDEST PUSH1 0x20 MUL ADD MLOAD PUSH4 0xFFFFFFFF AND DUP6 LT ISZERO PUSH2 0xB57 JUMPI DUP1 SWAP4 POP DUP2 PUSH1 0x1 DUP3 PUSH2 0xB26 SWAP2 SWAP1 PUSH2 0x11EF JUMP JUMPDEST PUSH1 0xFF AND PUSH1 0xD DUP2 LT PUSH2 0xB3A JUMPI PUSH2 0xB39 PUSH2 0x1299 JUMP JUMPDEST JUMPDEST PUSH1 0x20 MUL ADD MLOAD PUSH4 0xFFFFFFFF AND DUP6 PUSH2 0xB50 SWAP2 SWAP1 PUSH2 0x1323 JUMP JUMPDEST SWAP5 POP PUSH2 0xB64 JUMP JUMPDEST DUP1 DUP1 PUSH1 0x1 ADD SWAP2 POP POP PUSH2 0xAE1 JUMP JUMPDEST POP POP POP SWAP3 POP SWAP3 SWAP1 POP JUMP JUMPDEST PUSH0 DUP1 PUSH0 DUP4 SWAP3 POP PUSH3 0x15180 DUP4 PUSH2 0xB83 SWAP2 SWAP1 PUSH2 0x12F3 JUMP JUMPDEST SWAP1 POP PUSH3 0x15180 DUP2 PUSH2 0xB94 SWAP2 SWAP1 PUSH2 0x1223 JUMP JUMPDEST DUP4 PUSH2 0xB9F SWAP2 SWAP1 PUSH2 0x1323 JUMP JUMPDEST SWAP3 POP PUSH1 0x1 DUP2 PUSH2 0xBAE SWAP2 SWAP1 PUSH2 0x11BC JUMP JUMPDEST SWAP2 POP POP SWAP2 POP SWAP2 JUMP JUMPDEST PUSH0 DUP1 PUSH2 0xBC4 DUP4 PUSH2 0xE10 PUSH2 0xF14 JUMP JUMPDEST SWAP2 POP SWAP2 POP SWAP2 POP SWAP2 JUMP JUMPDEST PUSH0 DUP1 PUSH2 0xBDA DUP4 PUSH1 0x3C PUSH2 0xF14 JUMP JUMPDEST SWAP2 POP SWAP2 POP SWAP2 POP SWAP2 JUMP JUMPDEST PUSH0 PUSH2 0x7B2 DUP3 PUSH2 0xFFFF AND LT DUP1 PUSH2 0xBFD JUMPI POP PUSH2 0x270F DUP3 PUSH2 0xFFFF AND GT JUMPDEST ISZERO PUSH2 0xC0A JUMPI PUSH0 SWAP1 POP PUSH2 0xC0F JUMP JUMPDEST PUSH1 0x1 SWAP1 POP JUMPDEST SWAP2 SWAP1 POP JUMP JUMPDEST PUSH0 PUSH1 0x1 DUP3 PUSH1 0xFF AND LT DUP1 PUSH2 0xC2A JUMPI POP PUSH1 0xC DUP3 PUSH1 0xFF AND GT JUMPDEST ISZERO PUSH2 0xC37 JUMPI PUSH0 SWAP1 POP PUSH2 0xC3C JUMP JUMPDEST PUSH1 0x1 SWAP1 POP JUMPDEST SWAP2 SWAP1 POP JUMP JUMPDEST PUSH0 DUP1 PUSH1 0x40 MLOAD DUP1 PUSH2 0x1A0 ADD PUSH1 0x40 MSTORE DUP1 PUSH0 PUSH1 0xFF AND DUP2 MSTORE PUSH1 0x20 ADD PUSH1 0x1F PUSH1 0xFF AND DUP2 MSTORE PUSH1 0x20 ADD PUSH1 0x1C PUSH1 0xFF AND DUP2 MSTORE PUSH1 0x20 ADD PUSH1 0x1F PUSH1 0xFF AND DUP2 MSTORE PUSH1 0x20 ADD PUSH1 0x1E PUSH1 0xFF AND DUP2 MSTORE PUSH1 0x20 ADD PUSH1 0x1F PUSH1 0xFF AND DUP2 MSTORE PUSH1 0x20 ADD PUSH1 0x1E PUSH1 0xFF AND DUP2 MSTORE PUSH1 0x20 ADD PUSH1 0x1F PUSH1 0xFF AND DUP2 MSTORE PUSH1 0x20 ADD PUSH1 0x1F PUSH1 0xFF AND DUP2 MSTORE PUSH1 0x20 ADD PUSH1 0x1E PUSH1 0xFF AND DUP2 MSTORE PUSH1 0x20 ADD PUSH1 0x1F PUSH1 0xFF AND DUP2 MSTORE PUSH1 0x20 ADD PUSH1 0x1E PUSH1 0xFF AND DUP2 MSTORE PUSH1 0x20 ADD PUSH1 0x1F PUSH1 0xFF AND DUP2 MSTORE POP SWAP1 POP PUSH0 DUP1 DUP5 PUSH1 0xFF AND SUB PUSH2 0xCE5 JUMPI PUSH0 SWAP3 POP POP POP PUSH2 0xD4E JUMP JUMPDEST PUSH1 0x2 DUP6 PUSH1 0xFF AND SUB PUSH2 0xD11 JUMPI PUSH2 0xCF9 DUP7 PUSH2 0xE78 JUMP JUMPDEST ISZERO PUSH2 0xD07 JUMPI PUSH1 0x1D SWAP1 POP PUSH2 0xD0C JUMP JUMPDEST PUSH1 0x1C SWAP1 POP JUMPDEST PUSH2 0xD2F JUMP JUMPDEST DUP2 DUP6 PUSH1 0xFF AND PUSH1 0xD DUP2 LT PUSH2 0xD27 JUMPI PUSH2 0xD26 PUSH2 0x1299 JUMP JUMPDEST JUMPDEST PUSH1 0x20 MUL ADD MLOAD SWAP1 POP JUMPDEST DUP1 PUSH1 0xFF AND DUP5 PUSH1 0xFF AND GT ISZERO PUSH2 0xD47 JUMPI PUSH0 SWAP3 POP POP POP PUSH2 0xD4E JUMP JUMPDEST PUSH1 0x1 SWAP3 POP POP POP JUMPDEST SWAP4 SWAP3 POP POP POP JUMP JUMPDEST PUSH0 PUSH1 0x17 DUP3 PUSH1 0xFF AND GT ISZERO PUSH2 0xD6A JUMPI PUSH0 SWAP1 POP PUSH2 0xD6F JUMP JUMPDEST PUSH1 0x1 SWAP1 POP JUMPDEST SWAP2 SWAP1 POP JUMP JUMPDEST PUSH0 PUSH1 0x3B DUP3 PUSH1 0xFF AND GT ISZERO PUSH2 0xD89 JUMPI PUSH0 SWAP1 POP PUSH2 0xD8E JUMP JUMPDEST PUSH1 0x1 SWAP1 POP JUMPDEST SWAP2 SWAP1 POP JUMP JUMPDEST PUSH0 PUSH1 0x3B DUP3 PUSH1 0xFF AND GT ISZERO PUSH2 0xDA8 JUMPI PUSH0 SWAP1 POP PUSH2 0xDAD JUMP JUMPDEST PUSH1 0x1 SWAP1 POP JUMPDEST SWAP2 SWAP1 POP JUMP JUMPDEST PUSH0 DUP1 PUSH0 DUP5 DUP8 DUP10 PUSH2 0xDC2 SWAP2 SWAP1 PUSH2 0x1264 JUMP JUMPDEST PUSH2 0xDCC SWAP2 SWAP1 PUSH2 0x138B JUMP JUMPDEST PUSH2 0xFFFF AND SWAP1 POP DUP5 PUSH2 0xFFFF AND DUP2 PUSH2 0xDE2 SWAP2 SWAP1 PUSH2 0x1223 JUMP JUMPDEST DUP8 PUSH2 0xFFFF AND PUSH2 0xDF1 SWAP2 SWAP1 PUSH2 0x11BC JUMP JUMPDEST SWAP3 POP DUP4 DUP2 PUSH2 0xDFF SWAP2 SWAP1 PUSH2 0x1223 JUMP JUMPDEST DUP7 PUSH2 0xE0A SWAP2 SWAP1 PUSH2 0x11BC JUMP JUMPDEST SWAP2 POP POP SWAP6 POP SWAP6 SWAP4 POP POP POP POP JUMP JUMPDEST PUSH0 DUP1 DUP4 SWAP2 POP DUP3 SWAP1 POP DUP5 PUSH2 0xFFFF AND DUP3 PUSH2 0xFFFF AND LT DUP1 ISZERO PUSH2 0xE3B JUMPI POP PUSH2 0xE3A DUP3 PUSH2 0xE78 JUMP JUMPDEST JUMPDEST ISZERO PUSH2 0xE70 JUMPI PUSH1 0x1 DUP3 PUSH2 0xE4D SWAP2 SWAP1 PUSH2 0x1356 JUMP JUMPDEST SWAP2 POP PUSH3 0x15180 PUSH4 0x1E13380 PUSH2 0xE62 SWAP2 SWAP1 PUSH2 0x11BC JUMP JUMPDEST DUP2 PUSH2 0xE6D SWAP2 SWAP1 PUSH2 0x11BC JUMP JUMPDEST SWAP1 POP JUMPDEST SWAP4 POP SWAP4 SWAP2 POP POP JUMP JUMPDEST PUSH0 DUP1 PUSH1 0x4 DUP4 PUSH2 0xE87 SWAP2 SWAP1 PUSH2 0x13BB JUMP JUMPDEST PUSH2 0xFFFF AND EQ PUSH2 0xE98 JUMPI PUSH0 SWAP1 POP PUSH2 0xED9 JUMP JUMPDEST PUSH0 PUSH2 0x190 DUP4 PUSH2 0xEA7 SWAP2 SWAP1 PUSH2 0x13BB JUMP JUMPDEST PUSH2 0xFFFF AND EQ DUP1 PUSH2 0xEC7 JUMPI POP PUSH0 PUSH1 0x64 DUP4 PUSH2 0xEC0 SWAP2 SWAP1 PUSH2 0x13BB JUMP JUMPDEST PUSH2 0xFFFF AND EQ ISZERO JUMPDEST ISZERO PUSH2 0xED5 JUMPI PUSH1 0x1 SWAP1 POP PUSH2 0xED9 JUMP JUMPDEST PUSH0 SWAP1 POP JUMPDEST SWAP2 SWAP1 POP JUMP JUMPDEST PUSH0 PUSH2 0xEE8 DUP3 PUSH2 0xE78 JUMP JUMPDEST ISZERO PUSH2 0xF07 JUMPI PUSH3 0x15180 PUSH4 0x1E13380 PUSH2 0xF00 SWAP2 SWAP1 PUSH2 0x11BC JUMP JUMPDEST SWAP1 POP PUSH2 0xF0F JUMP JUMPDEST PUSH4 0x1E13380 SWAP1 POP JUMPDEST SWAP2 SWAP1 POP JUMP JUMPDEST PUSH0 DUP1 PUSH0 DUP5 SWAP3 POP DUP4 DUP4 PUSH2 0xF26 SWAP2 SWAP1 PUSH2 0x12F3 JUMP JUMPDEST SWAP1 POP DUP4 DUP2 PUSH2 0xF34 SWAP2 SWAP1 PUSH2 0x1223 JUMP JUMPDEST DUP4 PUSH2 0xF3F SWAP2 SWAP1 PUSH2 0x1323 JUMP JUMPDEST SWAP3 POP DUP1 SWAP2 POP POP SWAP3 POP SWAP3 SWAP1 POP JUMP JUMPDEST PUSH1 0x40 MLOAD DUP1 PUSH2 0x1A0 ADD PUSH1 0x40 MSTORE DUP1 PUSH1 0xD SWAP1 PUSH1 0x20 DUP3 MUL DUP1 CALLDATASIZE DUP4 CALLDATACOPY DUP1 DUP3 ADD SWAP2 POP POP SWAP1 POP POP SWAP1 JUMP JUMPDEST PUSH1 0x40 MLOAD DUP1 PUSH2 0x1A0 ADD PUSH1 0x40 MSTORE DUP1 PUSH1 0xD SWAP1 PUSH1 0x20 DUP3 MUL DUP1 CALLDATASIZE DUP4 CALLDATACOPY DUP1 DUP3 ADD SWAP2 POP POP SWAP1 POP POP SWAP1 JUMP JUMPDEST PUSH0 DUP1 REVERT JUMPDEST PUSH0 PUSH2 0xFFFF DUP3 AND SWAP1 POP SWAP2 SWAP1 POP JUMP JUMPDEST PUSH2 0xFAC DUP2 PUSH2 0xF96 JUMP JUMPDEST DUP2 EQ PUSH2 0xFB6 JUMPI PUSH0 DUP1 REVERT JUMPDEST POP JUMP JUMPDEST PUSH0 DUP2 CALLDATALOAD SWAP1 POP PUSH2 0xFC7 DUP2 PUSH2 0xFA3 JUMP JUMPDEST SWAP3 SWAP2 POP POP JUMP JUMPDEST PUSH0 PUSH1 0xFF DUP3 AND SWAP1 POP SWAP2 SWAP1 POP JUMP JUMPDEST PUSH2 0xFE2 DUP2 PUSH2 0xFCD JUMP JUMPDEST DUP2 EQ PUSH2 0xFEC JUMPI PUSH0 DUP1 REVERT JUMPDEST POP JUMP JUMPDEST PUSH0 DUP2 CALLDATALOAD SWAP1 POP PUSH2 0xFFD DUP2 PUSH2 0xFD9 JUMP JUMPDEST SWAP3 SWAP2 POP POP JUMP JUMPDEST PUSH0 DUP1 PUSH0 DUP1 PUSH0 DUP1 PUSH1 0xC0 DUP8 DUP10 SUB SLT ISZERO PUSH2 0x101D JUMPI PUSH2 0x101C PUSH2 0xF92 JUMP JUMPDEST JUMPDEST PUSH0 PUSH2 0x102A DUP10 DUP3 DUP11 ADD PUSH2 0xFB9 JUMP JUMPDEST SWAP7 POP POP PUSH1 0x20 PUSH2 0x103B DUP10 DUP3 DUP11 ADD PUSH2 0xFEF JUMP JUMPDEST SWAP6 POP POP PUSH1 0x40 PUSH2 0x104C DUP10 DUP3 DUP11 ADD PUSH2 0xFEF JUMP JUMPDEST SWAP5 POP POP PUSH1 0x60 PUSH2 0x105D DUP10 DUP3 DUP11 ADD PUSH2 0xFEF JUMP JUMPDEST SWAP4 POP POP PUSH1 0x80 PUSH2 0x106E DUP10 DUP3 DUP11 ADD PUSH2 0xFEF JUMP JUMPDEST SWAP3 POP POP PUSH1 0xA0 PUSH2 0x107F DUP10 DUP3 DUP11 ADD PUSH2 0xFEF JUMP JUMPDEST SWAP2 POP POP SWAP3 SWAP6 POP SWAP3 SWAP6 POP SWAP3 SWAP6 JUMP JUMPDEST PUSH0 DUP2 SWAP1 POP SWAP2 SWAP1 POP JUMP JUMPDEST PUSH2 0x109E DUP2 PUSH2 0x108C JUMP JUMPDEST DUP3 MSTORE POP POP JUMP JUMPDEST PUSH0 PUSH1 0x20 DUP3 ADD SWAP1 POP PUSH2 0x10B7 PUSH0 DUP4 ADD DUP5 PUSH2 0x1095 JUMP JUMPDEST SWAP3 SWAP2 POP POP JUMP JUMPDEST PUSH2 0x10C6 DUP2 PUSH2 0x108C JUMP JUMPDEST DUP2 EQ PUSH2 0x10D0 JUMPI PUSH0 DUP1 REVERT JUMPDEST POP JUMP JUMPDEST PUSH0 DUP2 CALLDATALOAD SWAP1 POP PUSH2 0x10E1 DUP2 PUSH2 0x10BD JUMP JUMPDEST SWAP3 SWAP2 POP POP JUMP JUMPDEST PUSH0 PUSH1 0x20 DUP3 DUP5 SUB SLT ISZERO PUSH2 0x10FC JUMPI PUSH2 0x10FB PUSH2 0xF92 JUMP JUMPDEST JUMPDEST PUSH0 PUSH2 0x1109 DUP5 DUP3 DUP6 ADD PUSH2 0x10D3 JUMP JUMPDEST SWAP2 POP POP SWAP3 SWAP2 POP POP JUMP JUMPDEST PUSH2 0x111B DUP2 PUSH2 0xF96 JUMP JUMPDEST DUP3 MSTORE POP POP JUMP JUMPDEST PUSH2 0x112A DUP2 PUSH2 0xFCD JUMP JUMPDEST DUP3 MSTORE POP POP JUMP JUMPDEST PUSH0 PUSH1 0xC0 DUP3 ADD SWAP1 POP PUSH2 0x1143 PUSH0 DUP4 ADD DUP10 PUSH2 0x1112 JUMP JUMPDEST PUSH2 0x1150 PUSH1 0x20 DUP4 ADD DUP9 PUSH2 0x1121 JUMP JUMPDEST PUSH2 0x115D PUSH1 0x40 DUP4 ADD DUP8 PUSH2 0x1121 JUMP JUMPDEST PUSH2 0x116A PUSH1 0x60 DUP4 ADD DUP7 PUSH2 0x1121 JUMP JUMPDEST PUSH2 0x1177 PUSH1 0x80 DUP4 ADD DUP6 PUSH2 0x1121 JUMP JUMPDEST PUSH2 0x1184 PUSH1 0xA0 DUP4 ADD DUP5 PUSH2 0x1121 JUMP JUMPDEST SWAP8 SWAP7 POP POP POP POP POP POP POP JUMP JUMPDEST PUSH32 0x4E487B7100000000000000000000000000000000000000000000000000000000 PUSH0 MSTORE PUSH1 0x11 PUSH1 0x4 MSTORE PUSH1 0x24 PUSH0 REVERT JUMPDEST PUSH0 PUSH2 0x11C6 DUP3 PUSH2 0x108C JUMP JUMPDEST SWAP2 POP PUSH2 0x11D1 DUP4 PUSH2 0x108C JUMP JUMPDEST SWAP3 POP DUP3 DUP3 ADD SWAP1 POP DUP1 DUP3 GT ISZERO PUSH2 0x11E9 JUMPI PUSH2 0x11E8 PUSH2 0x118F JUMP JUMPDEST JUMPDEST SWAP3 SWAP2 POP POP JUMP JUMPDEST PUSH0 PUSH2 0x11F9 DUP3 PUSH2 0xFCD JUMP JUMPDEST SWAP2 POP PUSH2 0x1204 DUP4 PUSH2 0xFCD JUMP JUMPDEST SWAP3 POP DUP3 DUP3 SUB SWAP1 POP PUSH1 0xFF DUP2 GT ISZERO PUSH2 0x121D JUMPI PUSH2 0x121C PUSH2 0x118F JUMP JUMPDEST JUMPDEST SWAP3 SWAP2 POP POP JUMP JUMPDEST PUSH0 PUSH2 0x122D DUP3 PUSH2 0x108C JUMP JUMPDEST SWAP2 POP PUSH2 0x1238 DUP4 PUSH2 0x108C JUMP JUMPDEST SWAP3 POP DUP3 DUP3 MUL PUSH2 0x1246 DUP2 PUSH2 0x108C JUMP JUMPDEST SWAP2 POP DUP3 DUP3 DIV DUP5 EQ DUP4 ISZERO OR PUSH2 0x125D JUMPI PUSH2 0x125C PUSH2 0x118F JUMP JUMPDEST JUMPDEST POP SWAP3 SWAP2 POP POP JUMP JUMPDEST PUSH0 PUSH2 0x126E DUP3 PUSH2 0xF96 JUMP JUMPDEST SWAP2 POP PUSH2 0x1279 DUP4 PUSH2 0xF96 JUMP JUMPDEST SWAP3 POP DUP3 DUP3 SUB SWAP1 POP PUSH2 0xFFFF DUP2 GT ISZERO PUSH2 0x1293 JUMPI PUSH2 0x1292 PUSH2 0x118F JUMP JUMPDEST JUMPDEST SWAP3 SWAP2 POP POP JUMP JUMPDEST PUSH32 0x4E487B7100000000000000000000000000000000000000000000000000000000 PUSH0 MSTORE PUSH1 0x32 PUSH1 0x4 MSTORE PUSH1 0x24 PUSH0 REVERT JUMPDEST PUSH32 0x4E487B7100000000000000000000000000000000000000000000000000000000 PUSH0 MSTORE PUSH1 0x12 PUSH1 0x4 MSTORE PUSH1 0x24 PUSH0 REVERT JUMPDEST PUSH0 PUSH2 0x12FD DUP3 PUSH2 0x108C JUMP JUMPDEST SWAP2 POP PUSH2 0x1308 DUP4 PUSH2 0x108C JUMP JUMPDEST SWAP3 POP DUP3 PUSH2 0x1318 JUMPI PUSH2 0x1317 PUSH2 0x12C6 JUMP JUMPDEST JUMPDEST DUP3 DUP3 DIV SWAP1 POP SWAP3 SWAP2 POP POP JUMP JUMPDEST PUSH0 PUSH2 0x132D DUP3 PUSH2 0x108C JUMP JUMPDEST SWAP2 POP PUSH2 0x1338 DUP4 PUSH2 0x108C JUMP JUMPDEST SWAP3 POP DUP3 DUP3 SUB SWAP1 POP DUP2 DUP2 GT ISZERO PUSH2 0x1350 JUMPI PUSH2 0x134F PUSH2 0x118F JUMP JUMPDEST JUMPDEST SWAP3 SWAP2 POP POP JUMP JUMPDEST PUSH0 PUSH2 0x1360 DUP3 PUSH2 0xF96 JUMP JUMPDEST SWAP2 POP PUSH2 0x136B DUP4 PUSH2 0xF96 JUMP JUMPDEST SWAP3 POP DUP3 DUP3 ADD SWAP1 POP PUSH2 0xFFFF DUP2 GT ISZERO PUSH2 0x1385 JUMPI PUSH2 0x1384 PUSH2 0x118F JUMP JUMPDEST JUMPDEST SWAP3 SWAP2 POP POP JUMP JUMPDEST PUSH0 PUSH2 0x1395 DUP3 PUSH2 0xF96 JUMP JUMPDEST SWAP2 POP PUSH2 0x13A0 DUP4 PUSH2 0xF96 JUMP JUMPDEST SWAP3 POP DUP3 PUSH2 0x13B0 JUMPI PUSH2 0x13AF PUSH2 0x12C6 JUMP JUMPDEST JUMPDEST DUP3 DUP3 DIV SWAP1 POP SWAP3 SWAP2 POP POP JUMP JUMPDEST PUSH0 PUSH2 0x13C5 DUP3 PUSH2 0xF96 JUMP JUMPDEST SWAP2 POP PUSH2 0x13D0 DUP4 PUSH2 0xF96 JUMP JUMPDEST SWAP3 POP DUP3 PUSH2 0x13E0 JUMPI PUSH2 0x13DF PUSH2 0x12C6 JUMP JUMPDEST JUMPDEST DUP3 DUP3 MOD SWAP1 POP SWAP3 SWAP2 POP POP JUMP INVALID LOG2 PUSH5 0x6970667358 0x22 SLT KECCAK256 0xDB PUSH21 0x599890D987275EF7B7AEF15231310C10BBCE5562DD 0xEF ADD 0xE0 0xE8 CALLDATASIZE 0x29 0xC ADDRESS 0xBD PUSH5 0x736F6C6343 STOP ADDMOD NOT STOP CALLER "
		},
		"gasEstimates": {
			"creation": {
				"codeDepositCost": "1030600",
				"executionCost": "1097",
				"totalCost": "1031697"
			},
			"external": {
				"convertTimestampToYMDHMS(uint256)": "infinite",
				"convertYMDHMStoTimestamp(uint16,uint8,uint8,uint8,uint8,uint8)": "infinite"
			},
			"internal": {
				"YMDuintToBytes(uint16,uint8,uint8)": "infinite",
				"addMonthSeconds(uint16,uint8)": "infinite",
				"addYearSeconds(uint256,uint16)": "infinite",
				"convertDateStringToTimestamp(string memory)": "infinite",
				"convertDateStringToYMD(string memory)": "infinite",
				"convertDateTimeStringToTimestamp(string memory)": "infinite",
				"convertDateTimeStringToYMDHMS(string memory)": "infinite",
				"convertSliceToUint16(struct strings.slice memory)": "infinite",
				"convertSliceToUint8(struct strings.slice memory)": "infinite",
				"convertTimestampToDateString(uint256)": "infinite",
				"convertTimestampToDateTimeString(uint256)": "infinite",
				"convertTimestampToYMD(uint256)": "infinite",
				"convertYMDHMStoDateTimeString(uint16,uint8,uint8,uint8,uint8,uint8)": "infinite",
				"convertYMDtoDateString(uint16,uint8,uint8)": "infinite",
				"convertYMDtoTimestamp(uint16,uint8,uint8)": "infinite",
				"getDay(uint256)": "infinite",
				"getHour(uint256)": "infinite",
				"getHourOrMinute(uint256,uint256)": "infinite",
				"getMinute(uint256)": "infinite",
				"getMonth(uint256,uint16)": "infinite",
				"getSecondsInYear(uint16)": "infinite",
				"getWeekday(uint256)": "infinite",
				"getYear(uint256)": "infinite",
				"incrementLeapYear(uint16,uint16,uint256)": "infinite",
				"incrementYearAndTimestamp(uint16,uint16,uint256,uint16,uint256)": "infinite",
				"isISOformat(string memory)": "infinite",
				"isISOtimeFormat(string memory)": "infinite",
				"isLeapYear(uint16)": "infinite",
				"isTimeFormat(string memory)": "infinite",
				"isValidDay(uint16,uint8,uint8)": "infinite",
				"isValidHour(uint8)": "69",
				"isValidMinute(uint8)": "69",
				"isValidMonth(uint8)": "103",
				"isValidSecond(uint8)": "69",
				"isValidYMD(uint16,uint8,uint8)": "infinite",
				"isValidYMDHMS(uint16,uint8,uint8,uint8,uint8,uint8)": "182",
				"isValidYear(uint16)": "103",
				"splitISOslice(string memory)": "infinite",
				"splitTimeInt(string memory)": "infinite",
				"splitTimeSlice(string memory)": "infinite"
			}
		},
		"methodIdentifiers": {
			"convertTimestampToYMDHMS(uint256)": "c802fd63",
			"convertYMDHMStoTimestamp(uint16,uint8,uint8,uint8,uint8,uint8)": "315f706d"
		}
	},
	"abi": [
		{
			"inputs": [
				{
					"internalType": "uint256",
					"name": "_dt",
					"type": "uint256"
				}
			],
			"name": "convertTimestampToYMDHMS",
			"outputs": [
				{
					"internalType": "uint16",
					"name": "year",
					"type": "uint16"
				},
				{
					"internalType": "uint8",
					"name": "month",
					"type": "uint8"
				},
				{
					"internalType": "uint8",
					"name": "day",
					"type": "uint8"
				},
				{
					"internalType": "uint8",
					"name": "hour",
					"type": "uint8"
				},
				{
					"internalType": "uint8",
					"name": "minute",
					"type": "uint8"
				},
				{
					"internalType": "uint8",
					"name": "second",
					"type": "uint8"
				}
			],
			"stateMutability": "pure",
			"type": "function"
		},
		{
			"inputs": [
				{
					"internalType": "uint16",
					"name": "_year",
					"type": "uint16"
				},
				{
					"internalType": "uint8",
					"name": "_month",
					"type": "uint8"
				},
				{
					"internalType": "uint8",
					"name": "_day",
					"type": "uint8"
				},
				{
					"internalType": "uint8",
					"name": "_hour",
					"type": "uint8"
				},
				{
					"internalType": "uint8",
					"name": "_minute",
					"type": "uint8"
				},
				{
					"internalType": "uint8",
					"name": "_second",
					"type": "uint8"
				}
			],
			"name": "convertYMDHMStoTimestamp",
			"outputs": [
				{
					"internalType": "uint256",
					"name": "",
					"type": "uint256"
				}
			],
			"stateMutability": "pure",
			"type": "function"
		}
	]
}