{
	"data": {
		"bytecode": {
			"linkReferences": {},
			"object": "6101c06040527fdf8b4c520ffe197c5343c6f5aec59570151ef9a492f2c624fd45ddde6135ec4260a0527f2db9fd3d099848027c2383d0a083396f6c41510d7acfd92adc99b6cffcf31e9660c0527fa62771101a79dd4b4d7b861524e85faa4569e99d6bb6b09233805dccb1ea480f60e0527f503cf060389b91af8851125bd70ce66d16d12330718b103fc7674ef6d27e70c9610100523480156100a1575f80fd5b50604051613e29380380613e298339810160408190526100c091610115565b336080526001600160a01b03938416610120529183166101405282166101808190525f8080556101a0919091526001551661016052610166565b80516001600160a01b0381168114610110575f80fd5b919050565b5f805f8060808587031215610128575f80fd5b610131856100fa565b935061013f602086016100fa565b925061014d604086016100fa565b915061015b606086016100fa565b905092959194509250565b60805160a05160c05160e05161010051610120516101405161016051610180516101a051613b826102a75f395f8181610301015281816115d0015261226301525f818161045d01528181610e9f015281816114e10152818161164701528181611ca40152818161217401526122da01525f61016601525f818161038201528181610e700152818161167701528181611c75015261230a01525f81816102da015281816104bc0152818161077e01528181610ae601528181610d9101528181610f2e015281816111e10152818161140f015281816117060152818161196c01528181611be601528181611d440152818161208801526123cd01525f61035b01525f6103bc01525f818161028c01526113e701525f81816101aa01528181610494015281816111b901528181611944015261206001525f6102b30152613b825ff3fe608060405234801561000f575f80fd5b5060043610610148575f3560e01c80639d76ea58116100bf578063cb26765f11610079578063cb26765f146103b7578063da230646146103de578063defb908f146103f1578063efda697f14610417578063f7c57ad714610443578063fc0c546a14610458575f80fd5b80639d76ea58146102fc578063a3b135ed14610323578063afa9c5b01461032c578063c1b8411a14610356578063c5f956af1461037d578063c75b9b84146103a4575f80fd5b80634abe962a116101105780634abe962a1461024b5780634b5cf6d21461026c5780634de643f81461027f57806381e167cf146102875780638da5cb5b146102ae5780639a65f100146102d5575f80fd5b80631ab767121461014c5780631d23d771146101615780632a0acc6a146101a557806335552ed3146101da57806344ea8f83146101ed575b5f80fd5b61015f61015a366004612fc0565b61047f565b005b6101887f000000000000000000000000000000000000000000000000000000000000000081565b6040516001600160a01b0390911681526020015b60405180910390f35b6101cc7f000000000000000000000000000000000000000000000000000000000000000081565b60405190815260200161019c565b61015f6101e8366004612fe0565b6111a4565b61022c6101fb36600461301e565b600460209081525f92835260408084209091529082529020546001600160a01b03811690600160a01b900460ff1682565b604080516001600160a01b03909316835290151560208301520161019c565b61025e61025936600461304c565b611323565b60405161019c9291906130a4565b61015f61027a36600461301e565b6113d2565b6101cc5f5481565b6101cc7f000000000000000000000000000000000000000000000000000000000000000081565b6101887f000000000000000000000000000000000000000000000000000000000000000081565b6101887f000000000000000000000000000000000000000000000000000000000000000081565b6101887f000000000000000000000000000000000000000000000000000000000000000081565b6101cc60015481565b6101cc61033a36600461301e565b600560209081525f928352604080842090915290825290205481565b6101cc7f000000000000000000000000000000000000000000000000000000000000000081565b6101887f000000000000000000000000000000000000000000000000000000000000000081565b61015f6103b2366004613210565b61192f565b6101cc7f000000000000000000000000000000000000000000000000000000000000000081565b61015f6103ec3660046132fc565b611f9a565b6104046103ff366004612fe0565b612430565b60405161019c9796959493929190613364565b61042a610425366004612fe0565b612596565b60405161019c9d9c9b9a999897969594939291906133bc565b61044b612a45565b60405161019c91906134de565b6101887f000000000000000000000000000000000000000000000000000000000000000081565b604051634a65ec8160e01b81523360048201527f000000000000000000000000000000000000000000000000000000000000000060248201525f907f00000000000000000000000000000000000000000000000000000000000000006001600160a01b031690634a65ec8190604401602060405180830381865afa158015610509573d5f803e3d5ffd5b505050506040513d601f19601f8201168201806040525081019061052d919061366e565b9050806105555760405162461bcd60e51b815260040161054c90613694565b60405180910390fd5b5f5b60065481101561119e5760068181548110610574576105746136d6565b905f5260205f2090600e0201600b01548310156105f95760405162461bcd60e51b815260206004820152603760248201527f5468652070726f706f73616c206861736e74207265616368656420746865207460448201527f696d65206c696d697420746f2062652065786375746564000000000000000000606482015260840161054c565b836006828154811061060d5761060d6136d6565b905f5260205f2090600e02015f015403611196575f60068281548110610635576106356136d6565b905f5260205f2090600e0201600201805461064f906136ea565b80601f016020809104026020016040519081016040528092919081815260200182805461067b906136ea565b80156106c65780601f1061069d576101008083540402835291602001916106c6565b820191905f5260205f20905b8154815290600101906020018083116106a957829003601f168201915b505050505090505f600683815481106106e1576106e16136d6565b905f5260205f2090600e020160030180546106fb906136ea565b80601f0160208091040260200160405190810160405280929190818152602001828054610727906136ea565b80156107725780601f1061074957610100808354040283529160200191610772565b820191905f5260205f20905b81548152906001019060200180831161075557829003601f168201915b505050505090505f805f7f00000000000000000000000000000000000000000000000000000000000000006001600160a01b031663fc6f94686040518163ffffffff1660e01b81526004015f60405180830381865afa1580156107d7573d5f803e3d5ffd5b505050506040513d5f823e601f3d908101601f191682016040526107fe9190810190613722565b90505f5b81518110156109615760075f838381518110610820576108206136d6565b6020908102919091018101516001600160a01b031682528181019290925260409081015f9081208d825290925290206001015460ff161561095957858051906020012060075f848481518110610878576108786136d6565b60200260200101516001600160a01b03166001600160a01b031681526020019081526020015f205f8c81526020019081526020015f205f016040516108bd91906137b7565b6040518091039020036108dc576108d5846001613829565b9350610959565b848051906020012060075f8484815181106108f9576108f96136d6565b60200260200101516001600160a01b03166001600160a01b031681526020019081526020015f205f8c81526020019081526020015f205f0160405161093e91906137b7565b60405180910390200361095957610956836001613829565b92505b600101610802565b5081831115610fe2576109748383613829565b60068781548110610987576109876136d6565b905f5260205f2090600e02016004018190555060405180604001604052806008815260200167115e1958dd5d195960c21b815250600687815481106109ce576109ce6136d6565b905f5260205f2090600e020160050190816109e99190613892565b506040518060400160405280600381526020016259657360e81b81525060068781548110610a1957610a196136d6565b905f5260205f2090600e0201600c019081610a349190613892565b50604080518082019091526008815267416464557365727360c01b602090910152600680547fd49fc98a8c2ef96cb8c2c4dcda2800f920f7043555e23fd4d9e4f97ae0a1fa6e919088908110610a8c57610a8c6136d6565b905f5260205f2090600e0201600101604051610aa891906137b7565b604051809103902003610bdc575f5b60068781548110610aca57610aca6136d6565b905f5260205f2090600e0201600d0180549050811015610bd6577f00000000000000000000000000000000000000000000000000000000000000006001600160a01b0316637155eb3b60068981548110610b2657610b266136d6565b905f5260205f2090600e0201600d018381548110610b4657610b466136d6565b5f91825260209091200154600680546001600160a01b03909216918b908110610b7157610b716136d6565b905f5260205f2090600e02016007016040518363ffffffff1660e01b8152600401610b9d92919061394e565b5f604051808303815f87803b158015610bb4575f80fd5b505af1158015610bc6573d5f803e3d5ffd5b505060019092019150610ab79050565b5061118c565b60408051808201909152600881526722b632b1ba34b7b760c11b602090910152600680547f235a6f54090e9b94aa4e585a699c4375a2ff8f572c68114d138f0ed121527849919088908110610c3357610c336136d6565b905f5260205f2090600e0201600101604051610c4f91906137b7565b604051809103902003610fdd5760038054600181810183555f92909252815460079091027fc2575a0e9e593c00f959f8c92f12db2869c3395a3b0502d05e2516446f71f85b0191610ca09190613829565b6001818155908255810180546001600160a01b03191690555f60028201556006805488908110610cd257610cd26136d6565b905f5260205f2090600e0201600a015462015180610cf09190613829565b60038201556006805488908110610d0957610d096136d6565b905f5260205f2090600e0201600b015462015180610d279190613829565b60048201556006805488908110610d4057610d406136d6565b905f5260205f2090600e0201600701816005019081610d5f91906139f5565b5060408051808201909152600781526610dc99585d195960ca1b60208201526006820190610d8d9082613892565b505f7f00000000000000000000000000000000000000000000000000000000000000006001600160a01b031663e4128fb36040518163ffffffff1660e01b81526004015f60405180830381865afa158015610dea573d5f803e3d5ffd5b505050506040513d5f823e601f3d908101601f19168201604052610e119190810190613722565b90505f815111610e635760405162461bcd60e51b815260206004820152601d60248201527f546865726520617265206e6f20757365727320696e2074686520617070000000604482015260640161054c565b5f5b8151811015610fd9577f00000000000000000000000000000000000000000000000000000000000000006001600160a01b0316639db5dbe47f0000000000000000000000000000000000000000000000000000000000000000848481518110610ed057610ed06136d6565b6020026020010151670de0b6b3a76400006040518463ffffffff1660e01b8152600401610eff93929190613ac0565b5f604051808303815f87803b158015610f16575f80fd5b505af1158015610f28573d5f803e3d5ffd5b505050507f00000000000000000000000000000000000000000000000000000000000000006001600160a01b031663c8bd3a3e838381518110610f6d57610f6d6136d6565b60200260200101516040518263ffffffff1660e01b8152600401610fa091906001600160a01b0391909116815260200190565b5f604051808303815f87803b158015610fb7575f80fd5b505af1158015610fc9573d5f803e3d5ffd5b505060019092019150610e659050565b5050505b61118c565b828211156110b357610ff48383613829565b60068781548110611007576110076136d6565b905f5260205f2090600e02016004018190555060405180604001604052806008815260200167115e1958dd5d195960c21b8152506006878154811061104e5761104e6136d6565b905f5260205f2090600e020160050190816110699190613892565b50604051806040016040528060028152602001614e6f60f01b81525060068781548110611098576110986136d6565b905f5260205f2090600e0201600c019081610bd69190613892565b81830361113d576110c48383613829565b600687815481106110d7576110d76136d6565b905f5260205f2090600e0201600401819055506040518060400160405280600c81526020016b4661696c656428546965642960a01b81525060068781548110611122576111226136d6565b905f5260205f2090600e02016005019081610bd69190613892565b6040518060400160405280600681526020016511985a5b195960d21b8152506006878154811061116f5761116f6136d6565b905f5260205f2090600e0201600501908161118a9190613892565b505b505050505061119e565b600101610557565b50505050565b604051634a65ec8160e01b81523360048201527f000000000000000000000000000000000000000000000000000000000000000060248201525f907f00000000000000000000000000000000000000000000000000000000000000006001600160a01b031690634a65ec8190604401602060405180830381865afa15801561122e573d5f803e3d5ffd5b505050506040513d601f19601f82011682018060405250810190611252919061366e565b9050806112715760405162461bcd60e51b815260040161054c90613ae4565b5f805b6003548110156112b6578360038281548110611292576112926136d6565b905f5260205f2090600702015f0154036112ae578091506112b6565b600101611274565b505f83815260026020819052604090912001805460ff1916600117905560405180604001604052806004815260200163151a595960e21b81525060038281548110611303576113036136d6565b905f5260205f209060070201600601908161119e9190613892565b505050565b600760209081525f9283526040808420909152908252902080548190611348906136ea565b80601f0160208091040260200160405190810160405280929190818152602001828054611374906136ea565b80156113bf5780601f10611396576101008083540402835291602001916113bf565b820191905f5260205f20905b8154815290600101906020018083116113a257829003601f168201915b5050506001909301549192505060ff1682565b604051634a65ec8160e01b81523360048201527f000000000000000000000000000000000000000000000000000000000000000060248201525f907f00000000000000000000000000000000000000000000000000000000000000006001600160a01b031690634a65ec8190604401602060405180830381865afa15801561145c573d5f803e3d5ffd5b505050506040513d601f19601f82011682018060405250810190611480919061366e565b90508061149f5760405162461bcd60e51b815260040161054c90613ae4565b5f838152600460209081526040808320338452909152812054600160a01b900460ff16151590036118f7576040516370a0823160e01b81523360048201525f907f00000000000000000000000000000000000000000000000000000000000000006001600160a01b0316906370a0823190602401602060405180830381865afa15801561152e573d5f803e3d5ffd5b505050506040513d601f19601f820116820180604052508101906115529190613b35565b9050670de0b6b3a76400008110156115a15760405162461bcd60e51b815260206004820152601260248201527162616c616e636520697320746f6f206c6f7760701b604482015260640161054c565b604051620f229d60ec1b8152326004820152306024820152670de0b6b3a76400006044820152600160648201527f00000000000000000000000000000000000000000000000000000000000000006001600160a01b03169063f229d000906084015f604051808303815f87803b158015611619575f80fd5b505af115801561162b573d5f803e3d5ffd5b50506040516323b872dd60e01b81525f92506001600160a01b037f00000000000000000000000000000000000000000000000000000000000000001691506323b872dd906116a99032907f000000000000000000000000000000000000000000000000000000000000000090670de0b6b3a764000090600401613ac0565b6020604051808303815f875af11580156116c5573d5f803e3d5ffd5b505050506040513d601f19601f820116820180604052508101906116e9919061366e565b9050801561189a57604051635691e3dd60e01b81523360048201527f00000000000000000000000000000000000000000000000000000000000000006001600160a01b031690635691e3dd906024015f604051808303815f87803b15801561174f575f80fd5b505af1158015611761573d5f803e3d5ffd5b5050505f868152600460209081526040808320338452825280832080546001600160a01b038a166001600160a81b03199091168117600160a01b17909155898452600583528184209084529091529020546117be91506001613829565b5f8681526005602090815260408083206001600160a01b03891684528252808320849055888352600290915290206001015403611816575f85815260026020819052604090912001805460ff191660011790556118f0565b5f8581526005602090815260408083206001600160a01b03881684528252808320548884526002909252909120600101541015611895575f8581526005602090815260408083206001600160a01b0388168085529083528184205489855260029093529220600181019190915580546001600160a01b03191690911790555b6118f0565b60405162461bcd60e51b815260206004820152602560248201527f696e73756666696369656e7420676f7665726e616e636520746f6b656e2062616044820152646c616e636560d81b606482015260840161054c565b5050505050565b60405162461bcd60e51b815260206004820152600d60248201526c185b1c9958591e481d9bdd1959609a1b604482015260640161054c565b604051634a65ec8160e01b81523360048201527f000000000000000000000000000000000000000000000000000000000000000060248201525f907f00000000000000000000000000000000000000000000000000000000000000006001600160a01b031690634a65ec8190604401602060405180830381865afa1580156119b9573d5f803e3d5ffd5b505050506040513d601f19601f820116820180604052508101906119dd919061366e565b9050806119fc5760405162461bcd60e51b815260040161054c90613694565b60068054600181810183555f9283529154600e9091027ff652222313e28459528d920b65115c16c04f3efc82aaedc97be59f3f377c0d3f0191611a3f9190613829565b5f819055815560018101611a538b82613892565b505f600482015560408051808201909152600381526259657360e81b60208201526002820190611a839082613892565b506040805180820190915260028152614e6f60f01b60208201526003820190611aac9082613892565b5060408051808201909152600781526610dc99585d195960ca1b60208201526005820190611ada9082613892565b5060068101611ae98a82613892565b5060078101611af88982613892565b5060088101611b078882613892565b506009810180546001600160a01b0319166001600160a01b038816179055600a8101859055600b81018490555f5b8351811015611b985781600d01848281518110611b5457611b546136d6565b6020908102919091018101518254600180820185555f9485529290932090920180546001600160a01b0319166001600160a01b039093169290921790915501611b35565b50604080518082019091526006815265139bdc9b585b60d21b6020918201528a51908b01207f4acccd685742ef1e6f346804e11f0b6a78374d1feac8f16bc3960297f254394301611db8575f7f00000000000000000000000000000000000000000000000000000000000000006001600160a01b031663fc6f94686040518163ffffffff1660e01b81526004015f60405180830381865afa158015611c3f573d5f803e3d5ffd5b505050506040513d5f823e601f3d908101601f19168201604052611c669190810190613722565b90505f5b8151811015611db1577f00000000000000000000000000000000000000000000000000000000000000006001600160a01b0316639db5dbe47f0000000000000000000000000000000000000000000000000000000000000000848481518110611cd557611cd56136d6565b6020026020010151670de0b6b3a76400006040518463ffffffff1660e01b8152600401611d0493929190613ac0565b5f604051808303815f87803b158015611d1b575f80fd5b505af1158015611d2d573d5f803e3d5ffd5b5050604051633abd00a360e01b81523360048201527f00000000000000000000000000000000000000000000000000000000000000006001600160a01b03169250633abd00a391506024015f604051808303815f87803b158015611d8f575f80fd5b505af1158015611da1573d5f803e3d5ffd5b505060019092019150611c6a9050565b5050611f8e565b604080518082018252600881526722b632b1ba34b7b760c11b602090910152517f235a6f54090e9b94aa4e585a699c4375a2ff8f572c68114d138f0ed12152784990611e089060018401906137b7565b604051809103902003611e85575f816007018054611e25906136ea565b905011611e805760405162461bcd60e51b815260206004820152602360248201527f74686520726567696f6e20697320726571756972656420666f7220656c65637460448201526234b7b760e91b606482015260840161054c565b611f8e565b6040805180820182526008815267416464557365727360c01b602090910152517fd49fc98a8c2ef96cb8c2c4dcda2800f920f7043555e23fd4d9e4f97ae0a1fa6e90611ed59060018401906137b7565b604051809103902003611f4d575f816007018054611ef2906136ea565b905011611e805760405162461bcd60e51b815260206004820152602360248201527f74686520726567696f6e20697320726571756972656420746f2061646420757360448201526265727360e81b606482015260840161054c565b6040516385dce5fd60e01b8152602060048201526015602482015274696e76616c696420656c656374696f6e207479706560581b604482015260640161054c565b50505050505050505050565b60408051808201909152600781526610dc99585d195960ca1b6020918201528151908201207fdfd899d98fd273fdfb3ab9d667c9743f84081d8e2009d188f3ad6b0967260e8b1461204b5760405162461bcd60e51b815260206004820152603560248201527f552063616e20766f746520666f722070726f706f73616c207768696368206973604482015274206e6f7420696e206372656174656420737461676560581b606482015260840161054c565b604051634a65ec8160e01b81523360048201527f000000000000000000000000000000000000000000000000000000000000000060248201525f907f00000000000000000000000000000000000000000000000000000000000000006001600160a01b031690634a65ec8190604401602060405180830381865afa1580156120d5573d5f803e3d5ffd5b505050506040513d601f19601f820116820180604052508101906120f9919061366e565b9050806121185760405162461bcd60e51b815260040161054c90613694565b335f908152600760209081526040808320878452909152902060019081015460ff161515900361215d5760405163209960c360e21b815233600482015260240161054c565b6040516370a0823160e01b81523360048201525f907f00000000000000000000000000000000000000000000000000000000000000006001600160a01b0316906370a0823190602401602060405180830381865afa1580156121c1573d5f803e3d5ffd5b505050506040513d601f19601f820116820180604052508101906121e59190613b35565b9050670de0b6b3a76400008110156122345760405162461bcd60e51b815260206004820152601260248201527162616c616e636520697320746f6f206c6f7760701b604482015260640161054c565b604051620f229d60ec1b8152326004820152306024820152670de0b6b3a76400006044820152600160648201527f00000000000000000000000000000000000000000000000000000000000000006001600160a01b03169063f229d000906084015f604051808303815f87803b1580156122ac575f80fd5b505af11580156122be573d5f803e3d5ffd5b50506040516323b872dd60e01b81525f92506001600160a01b037f00000000000000000000000000000000000000000000000000000000000000001691506323b872dd9061233c9032907f000000000000000000000000000000000000000000000000000000000000000090670de0b6b3a764000090600401613ac0565b6020604051808303815f875af1158015612358573d5f803e3d5ffd5b505050506040513d601f19601f8201168201806040525081019061237c919061366e565b9050801561242857335f90815260076020908152604080832089845290915290206001808201805460ff191690911790556123b78682613892565b5060405163880baf2760e01b81523360048201527f00000000000000000000000000000000000000000000000000000000000000006001600160a01b03169063880baf27906024015f604051808303815f87803b158015612416575f80fd5b505af1158015611f8e573d5f803e3d5ffd5b505050505050565b6003818154811061243f575f80fd5b5f9182526020909120600790910201805460018201546002830154600384015460048501546005860180549597506001600160a01b039094169592949193909291612489906136ea565b80601f01602080910402602001604051908101604052809291908181526020018280546124b5906136ea565b80156125005780601f106124d757610100808354040283529160200191612500565b820191905f5260205f20905b8154815290600101906020018083116124e357829003601f168201915b505050505090806006018054612515906136ea565b80601f0160208091040260200160405190810160405280929190818152602001828054612541906136ea565b801561258c5780601f106125635761010080835404028352916020019161258c565b820191905f5260205f20905b81548152906001019060200180831161256f57829003601f168201915b5050505050905087565b600681815481106125a5575f80fd5b5f9182526020909120600e909102018054600182018054919350906125c9906136ea565b80601f01602080910402602001604051908101604052809291908181526020018280546125f5906136ea565b80156126405780601f1061261757610100808354040283529160200191612640565b820191905f5260205f20905b81548152906001019060200180831161262357829003601f168201915b505050505090806002018054612655906136ea565b80601f0160208091040260200160405190810160405280929190818152602001828054612681906136ea565b80156126cc5780601f106126a3576101008083540402835291602001916126cc565b820191905f5260205f20905b8154815290600101906020018083116126af57829003601f168201915b5050505050908060030180546126e1906136ea565b80601f016020809104026020016040519081016040528092919081815260200182805461270d906136ea565b80156127585780601f1061272f57610100808354040283529160200191612758565b820191905f5260205f20905b81548152906001019060200180831161273b57829003601f168201915b505050505090806004015490806005018054612773906136ea565b80601f016020809104026020016040519081016040528092919081815260200182805461279f906136ea565b80156127ea5780601f106127c1576101008083540402835291602001916127ea565b820191905f5260205f20905b8154815290600101906020018083116127cd57829003601f168201915b5050505050908060060180546127ff906136ea565b80601f016020809104026020016040519081016040528092919081815260200182805461282b906136ea565b80156128765780601f1061284d57610100808354040283529160200191612876565b820191905f5260205f20905b81548152906001019060200180831161285957829003601f168201915b50505050509080600701805461288b906136ea565b80601f01602080910402602001604051908101604052809291908181526020018280546128b7906136ea565b80156129025780601f106128d957610100808354040283529160200191612902565b820191905f5260205f20905b8154815290600101906020018083116128e557829003601f168201915b505050505090806008018054612917906136ea565b80601f0160208091040260200160405190810160405280929190818152602001828054612943906136ea565b801561298e5780601f106129655761010080835404028352916020019161298e565b820191905f5260205f20905b81548152906001019060200180831161297157829003601f168201915b5050506009840154600a850154600b860154600c8701805496976001600160a01b0390941696929550909350906129c4906136ea565b80601f01602080910402602001604051908101604052809291908181526020018280546129f0906136ea565b8015612a3b5780601f10612a1257610100808354040283529160200191612a3b565b820191905f5260205f20905b815481529060010190602001808311612a1e57829003601f168201915b505050505090508d565b60606006805480602002602001604051908101604052809291908181526020015f905b82821015612fb7578382905f5260205f2090600e0201604051806101c00160405290815f8201548152602001600182018054612aa3906136ea565b80601f0160208091040260200160405190810160405280929190818152602001828054612acf906136ea565b8015612b1a5780601f10612af157610100808354040283529160200191612b1a565b820191905f5260205f20905b815481529060010190602001808311612afd57829003601f168201915b50505050508152602001600282018054612b33906136ea565b80601f0160208091040260200160405190810160405280929190818152602001828054612b5f906136ea565b8015612baa5780601f10612b8157610100808354040283529160200191612baa565b820191905f5260205f20905b815481529060010190602001808311612b8d57829003601f168201915b50505050508152602001600382018054612bc3906136ea565b80601f0160208091040260200160405190810160405280929190818152602001828054612bef906136ea565b8015612c3a5780601f10612c1157610100808354040283529160200191612c3a565b820191905f5260205f20905b815481529060010190602001808311612c1d57829003601f168201915b5050505050815260200160048201548152602001600582018054612c5d906136ea565b80601f0160208091040260200160405190810160405280929190818152602001828054612c89906136ea565b8015612cd45780601f10612cab57610100808354040283529160200191612cd4565b820191905f5260205f20905b815481529060010190602001808311612cb757829003601f168201915b50505050508152602001600682018054612ced906136ea565b80601f0160208091040260200160405190810160405280929190818152602001828054612d19906136ea565b8015612d645780601f10612d3b57610100808354040283529160200191612d64565b820191905f5260205f20905b815481529060010190602001808311612d4757829003601f168201915b50505050508152602001600782018054612d7d906136ea565b80601f0160208091040260200160405190810160405280929190818152602001828054612da9906136ea565b8015612df45780601f10612dcb57610100808354040283529160200191612df4565b820191905f5260205f20905b815481529060010190602001808311612dd757829003601f168201915b50505050508152602001600882018054612e0d906136ea565b80601f0160208091040260200160405190810160405280929190818152602001828054612e39906136ea565b8015612e845780601f10612e5b57610100808354040283529160200191612e84565b820191905f5260205f20905b815481529060010190602001808311612e6757829003601f168201915b505050918352505060098201546001600160a01b03166020820152600a8201546040820152600b8201546060820152600c82018054608090920191612ec8906136ea565b80601f0160208091040260200160405190810160405280929190818152602001828054612ef4906136ea565b8015612f3f5780601f10612f1657610100808354040283529160200191612f3f565b820191905f5260205f20905b815481529060010190602001808311612f2257829003601f168201915b50505050508152602001600d8201805480602002602001604051908101604052809291908181526020018280548015612f9f57602002820191905f5260205f20905b81546001600160a01b03168152600190910190602001808311612f81575b50505050508152505081526020019060010190612a68565b50505050905090565b5f8060408385031215612fd1575f80fd5b50508035926020909101359150565b5f60208284031215612ff0575f80fd5b5035919050565b6001600160a01b038116811461300b575f80fd5b50565b803561301981612ff7565b919050565b5f806040838503121561302f575f80fd5b82359150602083013561304181612ff7565b809150509250929050565b5f806040838503121561305d575f80fd5b823561306881612ff7565b946020939093013593505050565b5f81518084528060208401602086015e5f602082860101526020601f19601f83011685010191505092915050565b604081525f6130b66040830185613076565b905082151560208301529392505050565b634e487b7160e01b5f52604160045260245ffd5b604051601f8201601f1916810167ffffffffffffffff81118282101715613104576131046130c7565b604052919050565b5f82601f83011261311b575f80fd5b813567ffffffffffffffff811115613135576131356130c7565b613148601f8201601f19166020016130db565b81815284602083860101111561315c575f80fd5b816020850160208301375f918101602001919091529392505050565b5f67ffffffffffffffff821115613191576131916130c7565b5060051b60200190565b5f82601f8301126131aa575f80fd5b813560206131bf6131ba83613178565b6130db565b8083825260208201915060208460051b8701019350868411156131e0575f80fd5b602086015b848110156132055780356131f881612ff7565b83529183019183016131e5565b509695505050505050565b5f805f805f805f80610100898b031215613228575f80fd5b883567ffffffffffffffff8082111561323f575f80fd5b61324b8c838d0161310c565b995060208b0135915080821115613260575f80fd5b61326c8c838d0161310c565b985060408b0135915080821115613281575f80fd5b61328d8c838d0161310c565b975060608b01359150808211156132a2575f80fd5b6132ae8c838d0161310c565b96506132bc60808c0161300e565b955060a08b0135945060c08b0135935060e08b01359150808211156132df575f80fd5b506132ec8b828c0161319b565b9150509295985092959890939650565b5f805f6060848603121561330e575f80fd5b83359250602084013567ffffffffffffffff8082111561332c575f80fd5b6133388783880161310c565b9350604086013591508082111561334d575f80fd5b5061335a8682870161310c565b9150509250925092565b87815260018060a01b038716602082015285604082015284606082015283608082015260e060a08201525f61339c60e0830185613076565b82810360c08401526133ae8185613076565b9a9950505050505050505050565b8d81526101a060208201525f6133d66101a083018f613076565b82810360408401526133e8818f613076565b905082810360608401526133fc818e613076565b90508b608084015282810360a0840152613416818c613076565b905082810360c084015261342a818b613076565b905082810360e084015261343e818a613076565b90508281036101008401526134538189613076565b6001600160a01b038816610120850152905085610140840152846101608401528281036101808401526134868185613076565b9150509e9d5050505050505050505050505050565b5f815180845260208085019450602084015f5b838110156134d35781516001600160a01b0316875295820195908201906001016134ae565b509495945050505050565b5f60208083018184528085518083526040925060408601915060408160051b8701018488015f5b8381101561366057603f1989840301855281516101c08151855288820151818a87015261353482870182613076565b915050878201518582038987015261354c8282613076565b915050606080830151868303828801526135668382613076565b92505050608080830151818701525060a0808301518683038288015261358c8382613076565b9250505060c080830151868303828801526135a78382613076565b9250505060e080830151868303828801526135c28382613076565b9250505061010080830151868303828801526135de8382613076565b92505050610120808301516135fd828801826001600160a01b03169052565b505061014082810151908601526101608083015190860152610180808301518683038288015261362d8382613076565b925050506101a0808301519250858203818701525061364c818361349b565b968901969450505090860190600101613505565b509098975050505050505050565b5f6020828403121561367e575f80fd5b8151801515811461368d575f80fd5b9392505050565b60208082526022908201527f796f75206861766520746f20626520616e2061646d696e20746f20646f207468604082015261697360f01b606082015260800190565b634e487b7160e01b5f52603260045260245ffd5b600181811c908216806136fe57607f821691505b60208210810361371c57634e487b7160e01b5f52602260045260245ffd5b50919050565b5f6020808385031215613733575f80fd5b825167ffffffffffffffff811115613749575f80fd5b8301601f81018513613759575f80fd5b80516137676131ba82613178565b81815260059190911b82018301908381019087831115613785575f80fd5b928401925b828410156137ac57835161379d81612ff7565b8252928401929084019061378a565b979650505050505050565b5f8083546137c4816136ea565b600182811680156137dc57600181146137f15761381d565b60ff198416875282151583028701945061381d565b875f526020805f205f5b858110156138145781548a8201529084019082016137fb565b50505082870194505b50929695505050505050565b8082018082111561384857634e487b7160e01b5f52601160045260245ffd5b92915050565b601f82111561131e57805f5260205f20601f840160051c810160208510156138735750805b601f840160051c820191505b818110156118f0575f815560010161387f565b815167ffffffffffffffff8111156138ac576138ac6130c7565b6138c0816138ba84546136ea565b8461384e565b602080601f8311600181146138f3575f84156138dc5750858301515b5f19600386901b1c1916600185901b178555612428565b5f85815260208120601f198616915b8281101561392157888601518255948401946001909101908401613902565b508582101561393e57878501515f19600388901b60f8161c191681555b5050505050600190811b01905550565b60018060a01b03831681525f6020606060208401525f6060840152608060408401525f845461397c816136ea565b80608087015260a060018084165f811461399d57600181146139b9576139e6565b60ff19851660a08a015260a084151560051b8a010195506139e6565b895f5260205f205f5b858110156139dd5781548b82018601529083019088016139c2565b8a0160a0019650505b50939998505050505050505050565b818103613a00575050565b613a0a82546136ea565b67ffffffffffffffff811115613a2257613a226130c7565b613a30816138ba84546136ea565b5f601f821160018114613a61575f8315613a4a5750848201545b5f19600385901b1c1916600184901b1784556118f0565b5f8581526020808220868352908220601f198616925b83811015613a975782860154825560019586019590910190602001613a77565b508583101561393e579301545f1960f8600387901b161c19169092555050600190811b01905550565b6001600160a01b039384168152919092166020820152604081019190915260600190565b60208082526031908201527f6f6e6c79206120706572736f6e206f66207573657220747970652063616e20766040820152706f746520666f7220656c656374696f6e7360781b606082015260800190565b5f60208284031215613b45575f80fd5b505191905056fea26469706673582212206b95c6185c97bf1581de32bcd713ac5438dca71e9d077e1b583241ed57b9b15864736f6c63430008190033",
			"opcodes": "PUSH2 0x1C0 PUSH1 0x40 MSTORE PUSH32 0xDF8B4C520FFE197C5343C6F5AEC59570151EF9A492F2C624FD45DDDE6135EC42 PUSH1 0xA0 MSTORE PUSH32 0x2DB9FD3D099848027C2383D0A083396F6C41510D7ACFD92ADC99B6CFFCF31E96 PUSH1 0xC0 MSTORE PUSH32 0xA62771101A79DD4B4D7B861524E85FAA4569E99D6BB6B09233805DCCB1EA480F PUSH1 0xE0 MSTORE PUSH32 0x503CF060389B91AF8851125BD70CE66D16D12330718B103FC7674EF6D27E70C9 PUSH2 0x100 MSTORE CALLVALUE DUP1 ISZERO PUSH2 0xA1 JUMPI PUSH0 DUP1 REVERT JUMPDEST POP PUSH1 0x40 MLOAD PUSH2 0x3E29 CODESIZE SUB DUP1 PUSH2 0x3E29 DUP4 CODECOPY DUP2 ADD PUSH1 0x40 DUP2 SWAP1 MSTORE PUSH2 0xC0 SWAP2 PUSH2 0x115 JUMP JUMPDEST CALLER PUSH1 0x80 MSTORE PUSH1 0x1 PUSH1 0x1 PUSH1 0xA0 SHL SUB SWAP4 DUP5 AND PUSH2 0x120 MSTORE SWAP2 DUP4 AND PUSH2 0x140 MSTORE DUP3 AND PUSH2 0x180 DUP2 SWAP1 MSTORE PUSH0 DUP1 DUP1 SSTORE PUSH2 0x1A0 SWAP2 SWAP1 SWAP2 MSTORE PUSH1 0x1 SSTORE AND PUSH2 0x160 MSTORE PUSH2 0x166 JUMP JUMPDEST DUP1 MLOAD PUSH1 0x1 PUSH1 0x1 PUSH1 0xA0 SHL SUB DUP2 AND DUP2 EQ PUSH2 0x110 JUMPI PUSH0 DUP1 REVERT JUMPDEST SWAP2 SWAP1 POP JUMP JUMPDEST PUSH0 DUP1 PUSH0 DUP1 PUSH1 0x80 DUP6 DUP8 SUB SLT ISZERO PUSH2 0x128 JUMPI PUSH0 DUP1 REVERT JUMPDEST PUSH2 0x131 DUP6 PUSH2 0xFA JUMP JUMPDEST SWAP4 POP PUSH2 0x13F PUSH1 0x20 DUP7 ADD PUSH2 0xFA JUMP JUMPDEST SWAP3 POP PUSH2 0x14D PUSH1 0x40 DUP7 ADD PUSH2 0xFA JUMP JUMPDEST SWAP2 POP PUSH2 0x15B PUSH1 0x60 DUP7 ADD PUSH2 0xFA JUMP JUMPDEST SWAP1 POP SWAP3 SWAP6 SWAP2 SWAP5 POP SWAP3 POP JUMP JUMPDEST PUSH1 0x80 MLOAD PUSH1 0xA0 MLOAD PUSH1 0xC0 MLOAD PUSH1 0xE0 MLOAD PUSH2 0x100 MLOAD PUSH2 0x120 MLOAD PUSH2 0x140 MLOAD PUSH2 0x160 MLOAD PUSH2 0x180 MLOAD PUSH2 0x1A0 MLOAD PUSH2 0x3B82 PUSH2 0x2A7 PUSH0 CODECOPY PUSH0 DUP2 DUP2 PUSH2 0x301 ADD MSTORE DUP2 DUP2 PUSH2 0x15D0 ADD MSTORE PUSH2 0x2263 ADD MSTORE PUSH0 DUP2 DUP2 PUSH2 0x45D ADD MSTORE DUP2 DUP2 PUSH2 0xE9F ADD MSTORE DUP2 DUP2 PUSH2 0x14E1 ADD MSTORE DUP2 DUP2 PUSH2 0x1647 ADD MSTORE DUP2 DUP2 PUSH2 0x1CA4 ADD MSTORE DUP2 DUP2 PUSH2 0x2174 ADD MSTORE PUSH2 0x22DA ADD MSTORE PUSH0 PUSH2 0x166 ADD MSTORE PUSH0 DUP2 DUP2 PUSH2 0x382 ADD MSTORE DUP2 DUP2 PUSH2 0xE70 ADD MSTORE DUP2 DUP2 PUSH2 0x1677 ADD MSTORE DUP2 DUP2 PUSH2 0x1C75 ADD MSTORE PUSH2 0x230A ADD MSTORE PUSH0 DUP2 DUP2 PUSH2 0x2DA ADD MSTORE DUP2 DUP2 PUSH2 0x4BC ADD MSTORE DUP2 DUP2 PUSH2 0x77E ADD MSTORE DUP2 DUP2 PUSH2 0xAE6 ADD MSTORE DUP2 DUP2 PUSH2 0xD91 ADD MSTORE DUP2 DUP2 PUSH2 0xF2E ADD MSTORE DUP2 DUP2 PUSH2 0x11E1 ADD MSTORE DUP2 DUP2 PUSH2 0x140F ADD MSTORE DUP2 DUP2 PUSH2 0x1706 ADD MSTORE DUP2 DUP2 PUSH2 0x196C ADD MSTORE DUP2 DUP2 PUSH2 0x1BE6 ADD MSTORE DUP2 DUP2 PUSH2 0x1D44 ADD MSTORE DUP2 DUP2 PUSH2 0x2088 ADD MSTORE PUSH2 0x23CD ADD MSTORE PUSH0 PUSH2 0x35B ADD MSTORE PUSH0 PUSH2 0x3BC ADD MSTORE PUSH0 DUP2 DUP2 PUSH2 0x28C ADD MSTORE PUSH2 0x13E7 ADD MSTORE PUSH0 DUP2 DUP2 PUSH2 0x1AA ADD MSTORE DUP2 DUP2 PUSH2 0x494 ADD MSTORE DUP2 DUP2 PUSH2 0x11B9 ADD MSTORE DUP2 DUP2 PUSH2 0x1944 ADD MSTORE PUSH2 0x2060 ADD MSTORE PUSH0 PUSH2 0x2B3 ADD MSTORE PUSH2 0x3B82 PUSH0 RETURN INVALID PUSH1 0x80 PUSH1 0x40 MSTORE CALLVALUE DUP1 ISZERO PUSH2 0xF JUMPI PUSH0 DUP1 REVERT JUMPDEST POP PUSH1 0x4 CALLDATASIZE LT PUSH2 0x148 JUMPI PUSH0 CALLDATALOAD PUSH1 0xE0 SHR DUP1 PUSH4 0x9D76EA58 GT PUSH2 0xBF JUMPI DUP1 PUSH4 0xCB26765F GT PUSH2 0x79 JUMPI DUP1 PUSH4 0xCB26765F EQ PUSH2 0x3B7 JUMPI DUP1 PUSH4 0xDA230646 EQ PUSH2 0x3DE JUMPI DUP1 PUSH4 0xDEFB908F EQ PUSH2 0x3F1 JUMPI DUP1 PUSH4 0xEFDA697F EQ PUSH2 0x417 JUMPI DUP1 PUSH4 0xF7C57AD7 EQ PUSH2 0x443 JUMPI DUP1 PUSH4 0xFC0C546A EQ PUSH2 0x458 JUMPI PUSH0 DUP1 REVERT JUMPDEST DUP1 PUSH4 0x9D76EA58 EQ PUSH2 0x2FC JUMPI DUP1 PUSH4 0xA3B135ED EQ PUSH2 0x323 JUMPI DUP1 PUSH4 0xAFA9C5B0 EQ PUSH2 0x32C JUMPI DUP1 PUSH4 0xC1B8411A EQ PUSH2 0x356 JUMPI DUP1 PUSH4 0xC5F956AF EQ PUSH2 0x37D JUMPI DUP1 PUSH4 0xC75B9B84 EQ PUSH2 0x3A4 JUMPI PUSH0 DUP1 REVERT JUMPDEST DUP1 PUSH4 0x4ABE962A GT PUSH2 0x110 JUMPI DUP1 PUSH4 0x4ABE962A EQ PUSH2 0x24B JUMPI DUP1 PUSH4 0x4B5CF6D2 EQ PUSH2 0x26C JUMPI DUP1 PUSH4 0x4DE643F8 EQ PUSH2 0x27F JUMPI DUP1 PUSH4 0x81E167CF EQ PUSH2 0x287 JUMPI DUP1 PUSH4 0x8DA5CB5B EQ PUSH2 0x2AE JUMPI DUP1 PUSH4 0x9A65F100 EQ PUSH2 0x2D5 JUMPI PUSH0 DUP1 REVERT JUMPDEST DUP1 PUSH4 0x1AB76712 EQ PUSH2 0x14C JUMPI DUP1 PUSH4 0x1D23D771 EQ PUSH2 0x161 JUMPI DUP1 PUSH4 0x2A0ACC6A EQ PUSH2 0x1A5 JUMPI DUP1 PUSH4 0x35552ED3 EQ PUSH2 0x1DA JUMPI DUP1 PUSH4 0x44EA8F83 EQ PUSH2 0x1ED JUMPI JUMPDEST PUSH0 DUP1 REVERT JUMPDEST PUSH2 0x15F PUSH2 0x15A CALLDATASIZE PUSH1 0x4 PUSH2 0x2FC0 JUMP JUMPDEST PUSH2 0x47F JUMP JUMPDEST STOP JUMPDEST PUSH2 0x188 PUSH32 0x0 DUP2 JUMP JUMPDEST PUSH1 0x40 MLOAD PUSH1 0x1 PUSH1 0x1 PUSH1 0xA0 SHL SUB SWAP1 SWAP2 AND DUP2 MSTORE PUSH1 0x20 ADD JUMPDEST PUSH1 0x40 MLOAD DUP1 SWAP2 SUB SWAP1 RETURN JUMPDEST PUSH2 0x1CC PUSH32 0x0 DUP2 JUMP JUMPDEST PUSH1 0x40 MLOAD SWAP1 DUP2 MSTORE PUSH1 0x20 ADD PUSH2 0x19C JUMP JUMPDEST PUSH2 0x15F PUSH2 0x1E8 CALLDATASIZE PUSH1 0x4 PUSH2 0x2FE0 JUMP JUMPDEST PUSH2 0x11A4 JUMP JUMPDEST PUSH2 0x22C PUSH2 0x1FB CALLDATASIZE PUSH1 0x4 PUSH2 0x301E JUMP JUMPDEST PUSH1 0x4 PUSH1 0x20 SWAP1 DUP2 MSTORE PUSH0 SWAP3 DUP4 MSTORE PUSH1 0x40 DUP1 DUP5 KECCAK256 SWAP1 SWAP2 MSTORE SWAP1 DUP3 MSTORE SWAP1 KECCAK256 SLOAD PUSH1 0x1 PUSH1 0x1 PUSH1 0xA0 SHL SUB DUP2 AND SWAP1 PUSH1 0x1 PUSH1 0xA0 SHL SWAP1 DIV PUSH1 0xFF AND DUP3 JUMP JUMPDEST PUSH1 0x40 DUP1 MLOAD PUSH1 0x1 PUSH1 0x1 PUSH1 0xA0 SHL SUB SWAP1 SWAP4 AND DUP4 MSTORE SWAP1 ISZERO ISZERO PUSH1 0x20 DUP4 ADD MSTORE ADD PUSH2 0x19C JUMP JUMPDEST PUSH2 0x25E PUSH2 0x259 CALLDATASIZE PUSH1 0x4 PUSH2 0x304C JUMP JUMPDEST PUSH2 0x1323 JUMP JUMPDEST PUSH1 0x40 MLOAD PUSH2 0x19C SWAP3 SWAP2 SWAP1 PUSH2 0x30A4 JUMP JUMPDEST PUSH2 0x15F PUSH2 0x27A CALLDATASIZE PUSH1 0x4 PUSH2 0x301E JUMP JUMPDEST PUSH2 0x13D2 JUMP JUMPDEST PUSH2 0x1CC PUSH0 SLOAD DUP2 JUMP JUMPDEST PUSH2 0x1CC PUSH32 0x0 DUP2 JUMP JUMPDEST PUSH2 0x188 PUSH32 0x0 DUP2 JUMP JUMPDEST PUSH2 0x188 PUSH32 0x0 DUP2 JUMP JUMPDEST PUSH2 0x188 PUSH32 0x0 DUP2 JUMP JUMPDEST PUSH2 0x1CC PUSH1 0x1 SLOAD DUP2 JUMP JUMPDEST PUSH2 0x1CC PUSH2 0x33A CALLDATASIZE PUSH1 0x4 PUSH2 0x301E JUMP JUMPDEST PUSH1 0x5 PUSH1 0x20 SWAP1 DUP2 MSTORE PUSH0 SWAP3 DUP4 MSTORE PUSH1 0x40 DUP1 DUP5 KECCAK256 SWAP1 SWAP2 MSTORE SWAP1 DUP3 MSTORE SWAP1 KECCAK256 SLOAD DUP2 JUMP JUMPDEST PUSH2 0x1CC PUSH32 0x0 DUP2 JUMP JUMPDEST PUSH2 0x188 PUSH32 0x0 DUP2 JUMP JUMPDEST PUSH2 0x15F PUSH2 0x3B2 CALLDATASIZE PUSH1 0x4 PUSH2 0x3210 JUMP JUMPDEST PUSH2 0x192F JUMP JUMPDEST PUSH2 0x1CC PUSH32 0x0 DUP2 JUMP JUMPDEST PUSH2 0x15F PUSH2 0x3EC CALLDATASIZE PUSH1 0x4 PUSH2 0x32FC JUMP JUMPDEST PUSH2 0x1F9A JUMP JUMPDEST PUSH2 0x404 PUSH2 0x3FF CALLDATASIZE PUSH1 0x4 PUSH2 0x2FE0 JUMP JUMPDEST PUSH2 0x2430 JUMP JUMPDEST PUSH1 0x40 MLOAD PUSH2 0x19C SWAP8 SWAP7 SWAP6 SWAP5 SWAP4 SWAP3 SWAP2 SWAP1 PUSH2 0x3364 JUMP JUMPDEST PUSH2 0x42A PUSH2 0x425 CALLDATASIZE PUSH1 0x4 PUSH2 0x2FE0 JUMP JUMPDEST PUSH2 0x2596 JUMP JUMPDEST PUSH1 0x40 MLOAD PUSH2 0x19C SWAP14 SWAP13 SWAP12 SWAP11 SWAP10 SWAP9 SWAP8 SWAP7 SWAP6 SWAP5 SWAP4 SWAP3 SWAP2 SWAP1 PUSH2 0x33BC JUMP JUMPDEST PUSH2 0x44B PUSH2 0x2A45 JUMP JUMPDEST PUSH1 0x40 MLOAD PUSH2 0x19C SWAP2 SWAP1 PUSH2 0x34DE JUMP JUMPDEST PUSH2 0x188 PUSH32 0x0 DUP2 JUMP JUMPDEST PUSH1 0x40 MLOAD PUSH4 0x4A65EC81 PUSH1 0xE0 SHL DUP2 MSTORE CALLER PUSH1 0x4 DUP3 ADD MSTORE PUSH32 0x0 PUSH1 0x24 DUP3 ADD MSTORE PUSH0 SWAP1 PUSH32 0x0 PUSH1 0x1 PUSH1 0x1 PUSH1 0xA0 SHL SUB AND SWAP1 PUSH4 0x4A65EC81 SWAP1 PUSH1 0x44 ADD PUSH1 0x20 PUSH1 0x40 MLOAD DUP1 DUP4 SUB DUP2 DUP7 GAS STATICCALL ISZERO DUP1 ISZERO PUSH2 0x509 JUMPI RETURNDATASIZE PUSH0 DUP1 RETURNDATACOPY RETURNDATASIZE PUSH0 REVERT JUMPDEST POP POP POP POP PUSH1 0x40 MLOAD RETURNDATASIZE PUSH1 0x1F NOT PUSH1 0x1F DUP3 ADD AND DUP3 ADD DUP1 PUSH1 0x40 MSTORE POP DUP2 ADD SWAP1 PUSH2 0x52D SWAP2 SWAP1 PUSH2 0x366E JUMP JUMPDEST SWAP1 POP DUP1 PUSH2 0x555 JUMPI PUSH1 0x40 MLOAD PUSH3 0x461BCD PUSH1 0xE5 SHL DUP2 MSTORE PUSH1 0x4 ADD PUSH2 0x54C SWAP1 PUSH2 0x3694 JUMP JUMPDEST PUSH1 0x40 MLOAD DUP1 SWAP2 SUB SWAP1 REVERT JUMPDEST PUSH0 JUMPDEST PUSH1 0x6 SLOAD DUP2 LT ISZERO PUSH2 0x119E JUMPI PUSH1 0x6 DUP2 DUP2 SLOAD DUP2 LT PUSH2 0x574 JUMPI PUSH2 0x574 PUSH2 0x36D6 JUMP JUMPDEST SWAP1 PUSH0 MSTORE PUSH1 0x20 PUSH0 KECCAK256 SWAP1 PUSH1 0xE MUL ADD PUSH1 0xB ADD SLOAD DUP4 LT ISZERO PUSH2 0x5F9 JUMPI PUSH1 0x40 MLOAD PUSH3 0x461BCD PUSH1 0xE5 SHL DUP2 MSTORE PUSH1 0x20 PUSH1 0x4 DUP3 ADD MSTORE PUSH1 0x37 PUSH1 0x24 DUP3 ADD MSTORE PUSH32 0x5468652070726F706F73616C206861736E742072656163686564207468652074 PUSH1 0x44 DUP3 ADD MSTORE PUSH32 0x696D65206C696D697420746F2062652065786375746564000000000000000000 PUSH1 0x64 DUP3 ADD MSTORE PUSH1 0x84 ADD PUSH2 0x54C JUMP JUMPDEST DUP4 PUSH1 0x6 DUP3 DUP2 SLOAD DUP2 LT PUSH2 0x60D JUMPI PUSH2 0x60D PUSH2 0x36D6 JUMP JUMPDEST SWAP1 PUSH0 MSTORE PUSH1 0x20 PUSH0 KECCAK256 SWAP1 PUSH1 0xE MUL ADD PUSH0 ADD SLOAD SUB PUSH2 0x1196 JUMPI PUSH0 PUSH1 0x6 DUP3 DUP2 SLOAD DUP2 LT PUSH2 0x635 JUMPI PUSH2 0x635 PUSH2 0x36D6 JUMP JUMPDEST SWAP1 PUSH0 MSTORE PUSH1 0x20 PUSH0 KECCAK256 SWAP1 PUSH1 0xE MUL ADD PUSH1 0x2 ADD DUP1 SLOAD PUSH2 0x64F SWAP1 PUSH2 0x36EA JUMP JUMPDEST DUP1 PUSH1 0x1F ADD PUSH1 0x20 DUP1 SWAP2 DIV MUL PUSH1 0x20 ADD PUSH1 0x40 MLOAD SWAP1 DUP2 ADD PUSH1 0x40 MSTORE DUP1 SWAP3 SWAP2 SWAP1 DUP2 DUP2 MSTORE PUSH1 0x20 ADD DUP3 DUP1 SLOAD PUSH2 0x67B SWAP1 PUSH2 0x36EA JUMP JUMPDEST DUP1 ISZERO PUSH2 0x6C6 JUMPI DUP1 PUSH1 0x1F LT PUSH2 0x69D JUMPI PUSH2 0x100 DUP1 DUP4 SLOAD DIV MUL DUP4 MSTORE SWAP2 PUSH1 0x20 ADD SWAP2 PUSH2 0x6C6 JUMP JUMPDEST DUP3 ADD SWAP2 SWAP1 PUSH0 MSTORE PUSH1 0x20 PUSH0 KECCAK256 SWAP1 JUMPDEST DUP2 SLOAD DUP2 MSTORE SWAP1 PUSH1 0x1 ADD SWAP1 PUSH1 0x20 ADD DUP1 DUP4 GT PUSH2 0x6A9 JUMPI DUP3 SWAP1 SUB PUSH1 0x1F AND DUP3 ADD SWAP2 JUMPDEST POP POP POP POP POP SWAP1 POP PUSH0 PUSH1 0x6 DUP4 DUP2 SLOAD DUP2 LT PUSH2 0x6E1 JUMPI PUSH2 0x6E1 PUSH2 0x36D6 JUMP JUMPDEST SWAP1 PUSH0 MSTORE PUSH1 0x20 PUSH0 KECCAK256 SWAP1 PUSH1 0xE MUL ADD PUSH1 0x3 ADD DUP1 SLOAD PUSH2 0x6FB SWAP1 PUSH2 0x36EA JUMP JUMPDEST DUP1 PUSH1 0x1F ADD PUSH1 0x20 DUP1 SWAP2 DIV MUL PUSH1 0x20 ADD PUSH1 0x40 MLOAD SWAP1 DUP2 ADD PUSH1 0x40 MSTORE DUP1 SWAP3 SWAP2 SWAP1 DUP2 DUP2 MSTORE PUSH1 0x20 ADD DUP3 DUP1 SLOAD PUSH2 0x727 SWAP1 PUSH2 0x36EA JUMP JUMPDEST DUP1 ISZERO PUSH2 0x772 JUMPI DUP1 PUSH1 0x1F LT PUSH2 0x749 JUMPI PUSH2 0x100 DUP1 DUP4 SLOAD DIV MUL DUP4 MSTORE SWAP2 PUSH1 0x20 ADD SWAP2 PUSH2 0x772 JUMP JUMPDEST DUP3 ADD SWAP2 SWAP1 PUSH0 MSTORE PUSH1 0x20 PUSH0 KECCAK256 SWAP1 JUMPDEST DUP2 SLOAD DUP2 MSTORE SWAP1 PUSH1 0x1 ADD SWAP1 PUSH1 0x20 ADD DUP1 DUP4 GT PUSH2 0x755 JUMPI DUP3 SWAP1 SUB PUSH1 0x1F AND DUP3 ADD SWAP2 JUMPDEST POP POP POP POP POP SWAP1 POP PUSH0 DUP1 PUSH0 PUSH32 0x0 PUSH1 0x1 PUSH1 0x1 PUSH1 0xA0 SHL SUB AND PUSH4 0xFC6F9468 PUSH1 0x40 MLOAD DUP2 PUSH4 0xFFFFFFFF AND PUSH1 0xE0 SHL DUP2 MSTORE PUSH1 0x4 ADD PUSH0 PUSH1 0x40 MLOAD DUP1 DUP4 SUB DUP2 DUP7 GAS STATICCALL ISZERO DUP1 ISZERO PUSH2 0x7D7 JUMPI RETURNDATASIZE PUSH0 DUP1 RETURNDATACOPY RETURNDATASIZE PUSH0 REVERT JUMPDEST POP POP POP POP PUSH1 0x40 MLOAD RETURNDATASIZE PUSH0 DUP3 RETURNDATACOPY PUSH1 0x1F RETURNDATASIZE SWAP1 DUP2 ADD PUSH1 0x1F NOT AND DUP3 ADD PUSH1 0x40 MSTORE PUSH2 0x7FE SWAP2 SWAP1 DUP2 ADD SWAP1 PUSH2 0x3722 JUMP JUMPDEST SWAP1 POP PUSH0 JUMPDEST DUP2 MLOAD DUP2 LT ISZERO PUSH2 0x961 JUMPI PUSH1 0x7 PUSH0 DUP4 DUP4 DUP2 MLOAD DUP2 LT PUSH2 0x820 JUMPI PUSH2 0x820 PUSH2 0x36D6 JUMP JUMPDEST PUSH1 0x20 SWAP1 DUP2 MUL SWAP2 SWAP1 SWAP2 ADD DUP2 ADD MLOAD PUSH1 0x1 PUSH1 0x1 PUSH1 0xA0 SHL SUB AND DUP3 MSTORE DUP2 DUP2 ADD SWAP3 SWAP1 SWAP3 MSTORE PUSH1 0x40 SWAP1 DUP2 ADD PUSH0 SWAP1 DUP2 KECCAK256 DUP14 DUP3 MSTORE SWAP1 SWAP3 MSTORE SWAP1 KECCAK256 PUSH1 0x1 ADD SLOAD PUSH1 0xFF AND ISZERO PUSH2 0x959 JUMPI DUP6 DUP1 MLOAD SWAP1 PUSH1 0x20 ADD KECCAK256 PUSH1 0x7 PUSH0 DUP5 DUP5 DUP2 MLOAD DUP2 LT PUSH2 0x878 JUMPI PUSH2 0x878 PUSH2 0x36D6 JUMP JUMPDEST PUSH1 0x20 MUL PUSH1 0x20 ADD ADD MLOAD PUSH1 0x1 PUSH1 0x1 PUSH1 0xA0 SHL SUB AND PUSH1 0x1 PUSH1 0x1 PUSH1 0xA0 SHL SUB AND DUP2 MSTORE PUSH1 0x20 ADD SWAP1 DUP2 MSTORE PUSH1 0x20 ADD PUSH0 KECCAK256 PUSH0 DUP13 DUP2 MSTORE PUSH1 0x20 ADD SWAP1 DUP2 MSTORE PUSH1 0x20 ADD PUSH0 KECCAK256 PUSH0 ADD PUSH1 0x40 MLOAD PUSH2 0x8BD SWAP2 SWAP1 PUSH2 0x37B7 JUMP JUMPDEST PUSH1 0x40 MLOAD DUP1 SWAP2 SUB SWAP1 KECCAK256 SUB PUSH2 0x8DC JUMPI PUSH2 0x8D5 DUP5 PUSH1 0x1 PUSH2 0x3829 JUMP JUMPDEST SWAP4 POP PUSH2 0x959 JUMP JUMPDEST DUP5 DUP1 MLOAD SWAP1 PUSH1 0x20 ADD KECCAK256 PUSH1 0x7 PUSH0 DUP5 DUP5 DUP2 MLOAD DUP2 LT PUSH2 0x8F9 JUMPI PUSH2 0x8F9 PUSH2 0x36D6 JUMP JUMPDEST PUSH1 0x20 MUL PUSH1 0x20 ADD ADD MLOAD PUSH1 0x1 PUSH1 0x1 PUSH1 0xA0 SHL SUB AND PUSH1 0x1 PUSH1 0x1 PUSH1 0xA0 SHL SUB AND DUP2 MSTORE PUSH1 0x20 ADD SWAP1 DUP2 MSTORE PUSH1 0x20 ADD PUSH0 KECCAK256 PUSH0 DUP13 DUP2 MSTORE PUSH1 0x20 ADD SWAP1 DUP2 MSTORE PUSH1 0x20 ADD PUSH0 KECCAK256 PUSH0 ADD PUSH1 0x40 MLOAD PUSH2 0x93E SWAP2 SWAP1 PUSH2 0x37B7 JUMP JUMPDEST PUSH1 0x40 MLOAD DUP1 SWAP2 SUB SWAP1 KECCAK256 SUB PUSH2 0x959 JUMPI PUSH2 0x956 DUP4 PUSH1 0x1 PUSH2 0x3829 JUMP JUMPDEST SWAP3 POP JUMPDEST PUSH1 0x1 ADD PUSH2 0x802 JUMP JUMPDEST POP DUP2 DUP4 GT ISZERO PUSH2 0xFE2 JUMPI PUSH2 0x974 DUP4 DUP4 PUSH2 0x3829 JUMP JUMPDEST PUSH1 0x6 DUP8 DUP2 SLOAD DUP2 LT PUSH2 0x987 JUMPI PUSH2 0x987 PUSH2 0x36D6 JUMP JUMPDEST SWAP1 PUSH0 MSTORE PUSH1 0x20 PUSH0 KECCAK256 SWAP1 PUSH1 0xE MUL ADD PUSH1 0x4 ADD DUP2 SWAP1 SSTORE POP PUSH1 0x40 MLOAD DUP1 PUSH1 0x40 ADD PUSH1 0x40 MSTORE DUP1 PUSH1 0x8 DUP2 MSTORE PUSH1 0x20 ADD PUSH8 0x115E1958DD5D1959 PUSH1 0xC2 SHL DUP2 MSTORE POP PUSH1 0x6 DUP8 DUP2 SLOAD DUP2 LT PUSH2 0x9CE JUMPI PUSH2 0x9CE PUSH2 0x36D6 JUMP JUMPDEST SWAP1 PUSH0 MSTORE PUSH1 0x20 PUSH0 KECCAK256 SWAP1 PUSH1 0xE MUL ADD PUSH1 0x5 ADD SWAP1 DUP2 PUSH2 0x9E9 SWAP2 SWAP1 PUSH2 0x3892 JUMP JUMPDEST POP PUSH1 0x40 MLOAD DUP1 PUSH1 0x40 ADD PUSH1 0x40 MSTORE DUP1 PUSH1 0x3 DUP2 MSTORE PUSH1 0x20 ADD PUSH3 0x596573 PUSH1 0xE8 SHL DUP2 MSTORE POP PUSH1 0x6 DUP8 DUP2 SLOAD DUP2 LT PUSH2 0xA19 JUMPI PUSH2 0xA19 PUSH2 0x36D6 JUMP JUMPDEST SWAP1 PUSH0 MSTORE PUSH1 0x20 PUSH0 KECCAK256 SWAP1 PUSH1 0xE MUL ADD PUSH1 0xC ADD SWAP1 DUP2 PUSH2 0xA34 SWAP2 SWAP1 PUSH2 0x3892 JUMP JUMPDEST POP PUSH1 0x40 DUP1 MLOAD DUP1 DUP3 ADD SWAP1 SWAP2 MSTORE PUSH1 0x8 DUP2 MSTORE PUSH8 0x4164645573657273 PUSH1 0xC0 SHL PUSH1 0x20 SWAP1 SWAP2 ADD MSTORE PUSH1 0x6 DUP1 SLOAD PUSH32 0xD49FC98A8C2EF96CB8C2C4DCDA2800F920F7043555E23FD4D9E4F97AE0A1FA6E SWAP2 SWAP1 DUP9 SWAP1 DUP2 LT PUSH2 0xA8C JUMPI PUSH2 0xA8C PUSH2 0x36D6 JUMP JUMPDEST SWAP1 PUSH0 MSTORE PUSH1 0x20 PUSH0 KECCAK256 SWAP1 PUSH1 0xE MUL ADD PUSH1 0x1 ADD PUSH1 0x40 MLOAD PUSH2 0xAA8 SWAP2 SWAP1 PUSH2 0x37B7 JUMP JUMPDEST PUSH1 0x40 MLOAD DUP1 SWAP2 SUB SWAP1 KECCAK256 SUB PUSH2 0xBDC JUMPI PUSH0 JUMPDEST PUSH1 0x6 DUP8 DUP2 SLOAD DUP2 LT PUSH2 0xACA JUMPI PUSH2 0xACA PUSH2 0x36D6 JUMP JUMPDEST SWAP1 PUSH0 MSTORE PUSH1 0x20 PUSH0 KECCAK256 SWAP1 PUSH1 0xE MUL ADD PUSH1 0xD ADD DUP1 SLOAD SWAP1 POP DUP2 LT ISZERO PUSH2 0xBD6 JUMPI PUSH32 0x0 PUSH1 0x1 PUSH1 0x1 PUSH1 0xA0 SHL SUB AND PUSH4 0x7155EB3B PUSH1 0x6 DUP10 DUP2 SLOAD DUP2 LT PUSH2 0xB26 JUMPI PUSH2 0xB26 PUSH2 0x36D6 JUMP JUMPDEST SWAP1 PUSH0 MSTORE PUSH1 0x20 PUSH0 KECCAK256 SWAP1 PUSH1 0xE MUL ADD PUSH1 0xD ADD DUP4 DUP2 SLOAD DUP2 LT PUSH2 0xB46 JUMPI PUSH2 0xB46 PUSH2 0x36D6 JUMP JUMPDEST PUSH0 SWAP2 DUP3 MSTORE PUSH1 0x20 SWAP1 SWAP2 KECCAK256 ADD SLOAD PUSH1 0x6 DUP1 SLOAD PUSH1 0x1 PUSH1 0x1 PUSH1 0xA0 SHL SUB SWAP1 SWAP3 AND SWAP2 DUP12 SWAP1 DUP2 LT PUSH2 0xB71 JUMPI PUSH2 0xB71 PUSH2 0x36D6 JUMP JUMPDEST SWAP1 PUSH0 MSTORE PUSH1 0x20 PUSH0 KECCAK256 SWAP1 PUSH1 0xE MUL ADD PUSH1 0x7 ADD PUSH1 0x40 MLOAD DUP4 PUSH4 0xFFFFFFFF AND PUSH1 0xE0 SHL DUP2 MSTORE PUSH1 0x4 ADD PUSH2 0xB9D SWAP3 SWAP2 SWAP1 PUSH2 0x394E JUMP JUMPDEST PUSH0 PUSH1 0x40 MLOAD DUP1 DUP4 SUB DUP2 PUSH0 DUP8 DUP1 EXTCODESIZE ISZERO DUP1 ISZERO PUSH2 0xBB4 JUMPI PUSH0 DUP1 REVERT JUMPDEST POP GAS CALL ISZERO DUP1 ISZERO PUSH2 0xBC6 JUMPI RETURNDATASIZE PUSH0 DUP1 RETURNDATACOPY RETURNDATASIZE PUSH0 REVERT JUMPDEST POP POP PUSH1 0x1 SWAP1 SWAP3 ADD SWAP2 POP PUSH2 0xAB7 SWAP1 POP JUMP JUMPDEST POP PUSH2 0x118C JUMP JUMPDEST PUSH1 0x40 DUP1 MLOAD DUP1 DUP3 ADD SWAP1 SWAP2 MSTORE PUSH1 0x8 DUP2 MSTORE PUSH8 0x22B632B1BA34B7B7 PUSH1 0xC1 SHL PUSH1 0x20 SWAP1 SWAP2 ADD MSTORE PUSH1 0x6 DUP1 SLOAD PUSH32 0x235A6F54090E9B94AA4E585A699C4375A2FF8F572C68114D138F0ED121527849 SWAP2 SWAP1 DUP9 SWAP1 DUP2 LT PUSH2 0xC33 JUMPI PUSH2 0xC33 PUSH2 0x36D6 JUMP JUMPDEST SWAP1 PUSH0 MSTORE PUSH1 0x20 PUSH0 KECCAK256 SWAP1 PUSH1 0xE MUL ADD PUSH1 0x1 ADD PUSH1 0x40 MLOAD PUSH2 0xC4F SWAP2 SWAP1 PUSH2 0x37B7 JUMP JUMPDEST PUSH1 0x40 MLOAD DUP1 SWAP2 SUB SWAP1 KECCAK256 SUB PUSH2 0xFDD JUMPI PUSH1 0x3 DUP1 SLOAD PUSH1 0x1 DUP2 DUP2 ADD DUP4 SSTORE PUSH0 SWAP3 SWAP1 SWAP3 MSTORE DUP2 SLOAD PUSH1 0x7 SWAP1 SWAP2 MUL PUSH32 0xC2575A0E9E593C00F959F8C92F12DB2869C3395A3B0502D05E2516446F71F85B ADD SWAP2 PUSH2 0xCA0 SWAP2 SWAP1 PUSH2 0x3829 JUMP JUMPDEST PUSH1 0x1 DUP2 DUP2 SSTORE SWAP1 DUP3 SSTORE DUP2 ADD DUP1 SLOAD PUSH1 0x1 PUSH1 0x1 PUSH1 0xA0 SHL SUB NOT AND SWAP1 SSTORE PUSH0 PUSH1 0x2 DUP3 ADD SSTORE PUSH1 0x6 DUP1 SLOAD DUP9 SWAP1 DUP2 LT PUSH2 0xCD2 JUMPI PUSH2 0xCD2 PUSH2 0x36D6 JUMP JUMPDEST SWAP1 PUSH0 MSTORE PUSH1 0x20 PUSH0 KECCAK256 SWAP1 PUSH1 0xE MUL ADD PUSH1 0xA ADD SLOAD PUSH3 0x15180 PUSH2 0xCF0 SWAP2 SWAP1 PUSH2 0x3829 JUMP JUMPDEST PUSH1 0x3 DUP3 ADD SSTORE PUSH1 0x6 DUP1 SLOAD DUP9 SWAP1 DUP2 LT PUSH2 0xD09 JUMPI PUSH2 0xD09 PUSH2 0x36D6 JUMP JUMPDEST SWAP1 PUSH0 MSTORE PUSH1 0x20 PUSH0 KECCAK256 SWAP1 PUSH1 0xE MUL ADD PUSH1 0xB ADD SLOAD PUSH3 0x15180 PUSH2 0xD27 SWAP2 SWAP1 PUSH2 0x3829 JUMP JUMPDEST PUSH1 0x4 DUP3 ADD SSTORE PUSH1 0x6 DUP1 SLOAD DUP9 SWAP1 DUP2 LT PUSH2 0xD40 JUMPI PUSH2 0xD40 PUSH2 0x36D6 JUMP JUMPDEST SWAP1 PUSH0 MSTORE PUSH1 0x20 PUSH0 KECCAK256 SWAP1 PUSH1 0xE MUL ADD PUSH1 0x7 ADD DUP2 PUSH1 0x5 ADD SWAP1 DUP2 PUSH2 0xD5F SWAP2 SWAP1 PUSH2 0x39F5 JUMP JUMPDEST POP PUSH1 0x40 DUP1 MLOAD DUP1 DUP3 ADD SWAP1 SWAP2 MSTORE PUSH1 0x7 DUP2 MSTORE PUSH7 0x10DC99585D1959 PUSH1 0xCA SHL PUSH1 0x20 DUP3 ADD MSTORE PUSH1 0x6 DUP3 ADD SWAP1 PUSH2 0xD8D SWAP1 DUP3 PUSH2 0x3892 JUMP JUMPDEST POP PUSH0 PUSH32 0x0 PUSH1 0x1 PUSH1 0x1 PUSH1 0xA0 SHL SUB AND PUSH4 0xE4128FB3 PUSH1 0x40 MLOAD DUP2 PUSH4 0xFFFFFFFF AND PUSH1 0xE0 SHL DUP2 MSTORE PUSH1 0x4 ADD PUSH0 PUSH1 0x40 MLOAD DUP1 DUP4 SUB DUP2 DUP7 GAS STATICCALL ISZERO DUP1 ISZERO PUSH2 0xDEA JUMPI RETURNDATASIZE PUSH0 DUP1 RETURNDATACOPY RETURNDATASIZE PUSH0 REVERT JUMPDEST POP POP POP POP PUSH1 0x40 MLOAD RETURNDATASIZE PUSH0 DUP3 RETURNDATACOPY PUSH1 0x1F RETURNDATASIZE SWAP1 DUP2 ADD PUSH1 0x1F NOT AND DUP3 ADD PUSH1 0x40 MSTORE PUSH2 0xE11 SWAP2 SWAP1 DUP2 ADD SWAP1 PUSH2 0x3722 JUMP JUMPDEST SWAP1 POP PUSH0 DUP2 MLOAD GT PUSH2 0xE63 JUMPI PUSH1 0x40 MLOAD PUSH3 0x461BCD PUSH1 0xE5 SHL DUP2 MSTORE PUSH1 0x20 PUSH1 0x4 DUP3 ADD MSTORE PUSH1 0x1D PUSH1 0x24 DUP3 ADD MSTORE PUSH32 0x546865726520617265206E6F20757365727320696E2074686520617070000000 PUSH1 0x44 DUP3 ADD MSTORE PUSH1 0x64 ADD PUSH2 0x54C JUMP JUMPDEST PUSH0 JUMPDEST DUP2 MLOAD DUP2 LT ISZERO PUSH2 0xFD9 JUMPI PUSH32 0x0 PUSH1 0x1 PUSH1 0x1 PUSH1 0xA0 SHL SUB AND PUSH4 0x9DB5DBE4 PUSH32 0x0 DUP5 DUP5 DUP2 MLOAD DUP2 LT PUSH2 0xED0 JUMPI PUSH2 0xED0 PUSH2 0x36D6 JUMP JUMPDEST PUSH1 0x20 MUL PUSH1 0x20 ADD ADD MLOAD PUSH8 0xDE0B6B3A7640000 PUSH1 0x40 MLOAD DUP5 PUSH4 0xFFFFFFFF AND PUSH1 0xE0 SHL DUP2 MSTORE PUSH1 0x4 ADD PUSH2 0xEFF SWAP4 SWAP3 SWAP2 SWAP1 PUSH2 0x3AC0 JUMP JUMPDEST PUSH0 PUSH1 0x40 MLOAD DUP1 DUP4 SUB DUP2 PUSH0 DUP8 DUP1 EXTCODESIZE ISZERO DUP1 ISZERO PUSH2 0xF16 JUMPI PUSH0 DUP1 REVERT JUMPDEST POP GAS CALL ISZERO DUP1 ISZERO PUSH2 0xF28 JUMPI RETURNDATASIZE PUSH0 DUP1 RETURNDATACOPY RETURNDATASIZE PUSH0 REVERT JUMPDEST POP POP POP POP PUSH32 0x0 PUSH1 0x1 PUSH1 0x1 PUSH1 0xA0 SHL SUB AND PUSH4 0xC8BD3A3E DUP4 DUP4 DUP2 MLOAD DUP2 LT PUSH2 0xF6D JUMPI PUSH2 0xF6D PUSH2 0x36D6 JUMP JUMPDEST PUSH1 0x20 MUL PUSH1 0x20 ADD ADD MLOAD PUSH1 0x40 MLOAD DUP3 PUSH4 0xFFFFFFFF AND PUSH1 0xE0 SHL DUP2 MSTORE PUSH1 0x4 ADD PUSH2 0xFA0 SWAP2 SWAP1 PUSH1 0x1 PUSH1 0x1 PUSH1 0xA0 SHL SUB SWAP2 SWAP1 SWAP2 AND DUP2 MSTORE PUSH1 0x20 ADD SWAP1 JUMP JUMPDEST PUSH0 PUSH1 0x40 MLOAD DUP1 DUP4 SUB DUP2 PUSH0 DUP8 DUP1 EXTCODESIZE ISZERO DUP1 ISZERO PUSH2 0xFB7 JUMPI PUSH0 DUP1 REVERT JUMPDEST POP GAS CALL ISZERO DUP1 ISZERO PUSH2 0xFC9 JUMPI RETURNDATASIZE PUSH0 DUP1 RETURNDATACOPY RETURNDATASIZE PUSH0 REVERT JUMPDEST POP POP PUSH1 0x1 SWAP1 SWAP3 ADD SWAP2 POP PUSH2 0xE65 SWAP1 POP JUMP JUMPDEST POP POP POP JUMPDEST PUSH2 0x118C JUMP JUMPDEST DUP3 DUP3 GT ISZERO PUSH2 0x10B3 JUMPI PUSH2 0xFF4 DUP4 DUP4 PUSH2 0x3829 JUMP JUMPDEST PUSH1 0x6 DUP8 DUP2 SLOAD DUP2 LT PUSH2 0x1007 JUMPI PUSH2 0x1007 PUSH2 0x36D6 JUMP JUMPDEST SWAP1 PUSH0 MSTORE PUSH1 0x20 PUSH0 KECCAK256 SWAP1 PUSH1 0xE MUL ADD PUSH1 0x4 ADD DUP2 SWAP1 SSTORE POP PUSH1 0x40 MLOAD DUP1 PUSH1 0x40 ADD PUSH1 0x40 MSTORE DUP1 PUSH1 0x8 DUP2 MSTORE PUSH1 0x20 ADD PUSH8 0x115E1958DD5D1959 PUSH1 0xC2 SHL DUP2 MSTORE POP PUSH1 0x6 DUP8 DUP2 SLOAD DUP2 LT PUSH2 0x104E JUMPI PUSH2 0x104E PUSH2 0x36D6 JUMP JUMPDEST SWAP1 PUSH0 MSTORE PUSH1 0x20 PUSH0 KECCAK256 SWAP1 PUSH1 0xE MUL ADD PUSH1 0x5 ADD SWAP1 DUP2 PUSH2 0x1069 SWAP2 SWAP1 PUSH2 0x3892 JUMP JUMPDEST POP PUSH1 0x40 MLOAD DUP1 PUSH1 0x40 ADD PUSH1 0x40 MSTORE DUP1 PUSH1 0x2 DUP2 MSTORE PUSH1 0x20 ADD PUSH2 0x4E6F PUSH1 0xF0 SHL DUP2 MSTORE POP PUSH1 0x6 DUP8 DUP2 SLOAD DUP2 LT PUSH2 0x1098 JUMPI PUSH2 0x1098 PUSH2 0x36D6 JUMP JUMPDEST SWAP1 PUSH0 MSTORE PUSH1 0x20 PUSH0 KECCAK256 SWAP1 PUSH1 0xE MUL ADD PUSH1 0xC ADD SWAP1 DUP2 PUSH2 0xBD6 SWAP2 SWAP1 PUSH2 0x3892 JUMP JUMPDEST DUP2 DUP4 SUB PUSH2 0x113D JUMPI PUSH2 0x10C4 DUP4 DUP4 PUSH2 0x3829 JUMP JUMPDEST PUSH1 0x6 DUP8 DUP2 SLOAD DUP2 LT PUSH2 0x10D7 JUMPI PUSH2 0x10D7 PUSH2 0x36D6 JUMP JUMPDEST SWAP1 PUSH0 MSTORE PUSH1 0x20 PUSH0 KECCAK256 SWAP1 PUSH1 0xE MUL ADD PUSH1 0x4 ADD DUP2 SWAP1 SSTORE POP PUSH1 0x40 MLOAD DUP1 PUSH1 0x40 ADD PUSH1 0x40 MSTORE DUP1 PUSH1 0xC DUP2 MSTORE PUSH1 0x20 ADD PUSH12 0x4661696C6564285469656429 PUSH1 0xA0 SHL DUP2 MSTORE POP PUSH1 0x6 DUP8 DUP2 SLOAD DUP2 LT PUSH2 0x1122 JUMPI PUSH2 0x1122 PUSH2 0x36D6 JUMP JUMPDEST SWAP1 PUSH0 MSTORE PUSH1 0x20 PUSH0 KECCAK256 SWAP1 PUSH1 0xE MUL ADD PUSH1 0x5 ADD SWAP1 DUP2 PUSH2 0xBD6 SWAP2 SWAP1 PUSH2 0x3892 JUMP JUMPDEST PUSH1 0x40 MLOAD DUP1 PUSH1 0x40 ADD PUSH1 0x40 MSTORE DUP1 PUSH1 0x6 DUP2 MSTORE PUSH1 0x20 ADD PUSH6 0x11985A5B1959 PUSH1 0xD2 SHL DUP2 MSTORE POP PUSH1 0x6 DUP8 DUP2 SLOAD DUP2 LT PUSH2 0x116F JUMPI PUSH2 0x116F PUSH2 0x36D6 JUMP JUMPDEST SWAP1 PUSH0 MSTORE PUSH1 0x20 PUSH0 KECCAK256 SWAP1 PUSH1 0xE MUL ADD PUSH1 0x5 ADD SWAP1 DUP2 PUSH2 0x118A SWAP2 SWAP1 PUSH2 0x3892 JUMP JUMPDEST POP JUMPDEST POP POP POP POP POP PUSH2 0x119E JUMP JUMPDEST PUSH1 0x1 ADD PUSH2 0x557 JUMP JUMPDEST POP POP POP POP JUMP JUMPDEST PUSH1 0x40 MLOAD PUSH4 0x4A65EC81 PUSH1 0xE0 SHL DUP2 MSTORE CALLER PUSH1 0x4 DUP3 ADD MSTORE PUSH32 0x0 PUSH1 0x24 DUP3 ADD MSTORE PUSH0 SWAP1 PUSH32 0x0 PUSH1 0x1 PUSH1 0x1 PUSH1 0xA0 SHL SUB AND SWAP1 PUSH4 0x4A65EC81 SWAP1 PUSH1 0x44 ADD PUSH1 0x20 PUSH1 0x40 MLOAD DUP1 DUP4 SUB DUP2 DUP7 GAS STATICCALL ISZERO DUP1 ISZERO PUSH2 0x122E JUMPI RETURNDATASIZE PUSH0 DUP1 RETURNDATACOPY RETURNDATASIZE PUSH0 REVERT JUMPDEST POP POP POP POP PUSH1 0x40 MLOAD RETURNDATASIZE PUSH1 0x1F NOT PUSH1 0x1F DUP3 ADD AND DUP3 ADD DUP1 PUSH1 0x40 MSTORE POP DUP2 ADD SWAP1 PUSH2 0x1252 SWAP2 SWAP1 PUSH2 0x366E JUMP JUMPDEST SWAP1 POP DUP1 PUSH2 0x1271 JUMPI PUSH1 0x40 MLOAD PUSH3 0x461BCD PUSH1 0xE5 SHL DUP2 MSTORE PUSH1 0x4 ADD PUSH2 0x54C SWAP1 PUSH2 0x3AE4 JUMP JUMPDEST PUSH0 DUP1 JUMPDEST PUSH1 0x3 SLOAD DUP2 LT ISZERO PUSH2 0x12B6 JUMPI DUP4 PUSH1 0x3 DUP3 DUP2 SLOAD DUP2 LT PUSH2 0x1292 JUMPI PUSH2 0x1292 PUSH2 0x36D6 JUMP JUMPDEST SWAP1 PUSH0 MSTORE PUSH1 0x20 PUSH0 KECCAK256 SWAP1 PUSH1 0x7 MUL ADD PUSH0 ADD SLOAD SUB PUSH2 0x12AE JUMPI DUP1 SWAP2 POP PUSH2 0x12B6 JUMP JUMPDEST PUSH1 0x1 ADD PUSH2 0x1274 JUMP JUMPDEST POP PUSH0 DUP4 DUP2 MSTORE PUSH1 0x2 PUSH1 0x20 DUP2 SWAP1 MSTORE PUSH1 0x40 SWAP1 SWAP2 KECCAK256 ADD DUP1 SLOAD PUSH1 0xFF NOT AND PUSH1 0x1 OR SWAP1 SSTORE PUSH1 0x40 MLOAD DUP1 PUSH1 0x40 ADD PUSH1 0x40 MSTORE DUP1 PUSH1 0x4 DUP2 MSTORE PUSH1 0x20 ADD PUSH4 0x151A5959 PUSH1 0xE2 SHL DUP2 MSTORE POP PUSH1 0x3 DUP3 DUP2 SLOAD DUP2 LT PUSH2 0x1303 JUMPI PUSH2 0x1303 PUSH2 0x36D6 JUMP JUMPDEST SWAP1 PUSH0 MSTORE PUSH1 0x20 PUSH0 KECCAK256 SWAP1 PUSH1 0x7 MUL ADD PUSH1 0x6 ADD SWAP1 DUP2 PUSH2 0x119E SWAP2 SWAP1 PUSH2 0x3892 JUMP JUMPDEST POP POP POP JUMP JUMPDEST PUSH1 0x7 PUSH1 0x20 SWAP1 DUP2 MSTORE PUSH0 SWAP3 DUP4 MSTORE PUSH1 0x40 DUP1 DUP5 KECCAK256 SWAP1 SWAP2 MSTORE SWAP1 DUP3 MSTORE SWAP1 KECCAK256 DUP1 SLOAD DUP2 SWAP1 PUSH2 0x1348 SWAP1 PUSH2 0x36EA JUMP JUMPDEST DUP1 PUSH1 0x1F ADD PUSH1 0x20 DUP1 SWAP2 DIV MUL PUSH1 0x20 ADD PUSH1 0x40 MLOAD SWAP1 DUP2 ADD PUSH1 0x40 MSTORE DUP1 SWAP3 SWAP2 SWAP1 DUP2 DUP2 MSTORE PUSH1 0x20 ADD DUP3 DUP1 SLOAD PUSH2 0x1374 SWAP1 PUSH2 0x36EA JUMP JUMPDEST DUP1 ISZERO PUSH2 0x13BF JUMPI DUP1 PUSH1 0x1F LT PUSH2 0x1396 JUMPI PUSH2 0x100 DUP1 DUP4 SLOAD DIV MUL DUP4 MSTORE SWAP2 PUSH1 0x20 ADD SWAP2 PUSH2 0x13BF JUMP JUMPDEST DUP3 ADD SWAP2 SWAP1 PUSH0 MSTORE PUSH1 0x20 PUSH0 KECCAK256 SWAP1 JUMPDEST DUP2 SLOAD DUP2 MSTORE SWAP1 PUSH1 0x1 ADD SWAP1 PUSH1 0x20 ADD DUP1 DUP4 GT PUSH2 0x13A2 JUMPI DUP3 SWAP1 SUB PUSH1 0x1F AND DUP3 ADD SWAP2 JUMPDEST POP POP POP PUSH1 0x1 SWAP1 SWAP4 ADD SLOAD SWAP2 SWAP3 POP POP PUSH1 0xFF AND DUP3 JUMP JUMPDEST PUSH1 0x40 MLOAD PUSH4 0x4A65EC81 PUSH1 0xE0 SHL DUP2 MSTORE CALLER PUSH1 0x4 DUP3 ADD MSTORE PUSH32 0x0 PUSH1 0x24 DUP3 ADD MSTORE PUSH0 SWAP1 PUSH32 0x0 PUSH1 0x1 PUSH1 0x1 PUSH1 0xA0 SHL SUB AND SWAP1 PUSH4 0x4A65EC81 SWAP1 PUSH1 0x44 ADD PUSH1 0x20 PUSH1 0x40 MLOAD DUP1 DUP4 SUB DUP2 DUP7 GAS STATICCALL ISZERO DUP1 ISZERO PUSH2 0x145C JUMPI RETURNDATASIZE PUSH0 DUP1 RETURNDATACOPY RETURNDATASIZE PUSH0 REVERT JUMPDEST POP POP POP POP PUSH1 0x40 MLOAD RETURNDATASIZE PUSH1 0x1F NOT PUSH1 0x1F DUP3 ADD AND DUP3 ADD DUP1 PUSH1 0x40 MSTORE POP DUP2 ADD SWAP1 PUSH2 0x1480 SWAP2 SWAP1 PUSH2 0x366E JUMP JUMPDEST SWAP1 POP DUP1 PUSH2 0x149F JUMPI PUSH1 0x40 MLOAD PUSH3 0x461BCD PUSH1 0xE5 SHL DUP2 MSTORE PUSH1 0x4 ADD PUSH2 0x54C SWAP1 PUSH2 0x3AE4 JUMP JUMPDEST PUSH0 DUP4 DUP2 MSTORE PUSH1 0x4 PUSH1 0x20 SWAP1 DUP2 MSTORE PUSH1 0x40 DUP1 DUP4 KECCAK256 CALLER DUP5 MSTORE SWAP1 SWAP2 MSTORE DUP2 KECCAK256 SLOAD PUSH1 0x1 PUSH1 0xA0 SHL SWAP1 DIV PUSH1 0xFF AND ISZERO ISZERO SWAP1 SUB PUSH2 0x18F7 JUMPI PUSH1 0x40 MLOAD PUSH4 0x70A08231 PUSH1 0xE0 SHL DUP2 MSTORE CALLER PUSH1 0x4 DUP3 ADD MSTORE PUSH0 SWAP1 PUSH32 0x0 PUSH1 0x1 PUSH1 0x1 PUSH1 0xA0 SHL SUB AND SWAP1 PUSH4 0x70A08231 SWAP1 PUSH1 0x24 ADD PUSH1 0x20 PUSH1 0x40 MLOAD DUP1 DUP4 SUB DUP2 DUP7 GAS STATICCALL ISZERO DUP1 ISZERO PUSH2 0x152E JUMPI RETURNDATASIZE PUSH0 DUP1 RETURNDATACOPY RETURNDATASIZE PUSH0 REVERT JUMPDEST POP POP POP POP PUSH1 0x40 MLOAD RETURNDATASIZE PUSH1 0x1F NOT PUSH1 0x1F DUP3 ADD AND DUP3 ADD DUP1 PUSH1 0x40 MSTORE POP DUP2 ADD SWAP1 PUSH2 0x1552 SWAP2 SWAP1 PUSH2 0x3B35 JUMP JUMPDEST SWAP1 POP PUSH8 0xDE0B6B3A7640000 DUP2 LT ISZERO PUSH2 0x15A1 JUMPI PUSH1 0x40 MLOAD PUSH3 0x461BCD PUSH1 0xE5 SHL DUP2 MSTORE PUSH1 0x20 PUSH1 0x4 DUP3 ADD MSTORE PUSH1 0x12 PUSH1 0x24 DUP3 ADD MSTORE PUSH18 0x62616C616E636520697320746F6F206C6F77 PUSH1 0x70 SHL PUSH1 0x44 DUP3 ADD MSTORE PUSH1 0x64 ADD PUSH2 0x54C JUMP JUMPDEST PUSH1 0x40 MLOAD PUSH3 0xF229D PUSH1 0xEC SHL DUP2 MSTORE ORIGIN PUSH1 0x4 DUP3 ADD MSTORE ADDRESS PUSH1 0x24 DUP3 ADD MSTORE PUSH8 0xDE0B6B3A7640000 PUSH1 0x44 DUP3 ADD MSTORE PUSH1 0x1 PUSH1 0x64 DUP3 ADD MSTORE PUSH32 0x0 PUSH1 0x1 PUSH1 0x1 PUSH1 0xA0 SHL SUB AND SWAP1 PUSH4 0xF229D000 SWAP1 PUSH1 0x84 ADD PUSH0 PUSH1 0x40 MLOAD DUP1 DUP4 SUB DUP2 PUSH0 DUP8 DUP1 EXTCODESIZE ISZERO DUP1 ISZERO PUSH2 0x1619 JUMPI PUSH0 DUP1 REVERT JUMPDEST POP GAS CALL ISZERO DUP1 ISZERO PUSH2 0x162B JUMPI RETURNDATASIZE PUSH0 DUP1 RETURNDATACOPY RETURNDATASIZE PUSH0 REVERT JUMPDEST POP POP PUSH1 0x40 MLOAD PUSH4 0x23B872DD PUSH1 0xE0 SHL DUP2 MSTORE PUSH0 SWAP3 POP PUSH1 0x1 PUSH1 0x1 PUSH1 0xA0 SHL SUB PUSH32 0x0 AND SWAP2 POP PUSH4 0x23B872DD SWAP1 PUSH2 0x16A9 SWAP1 ORIGIN SWAP1 PUSH32 0x0 SWAP1 PUSH8 0xDE0B6B3A7640000 SWAP1 PUSH1 0x4 ADD PUSH2 0x3AC0 JUMP JUMPDEST PUSH1 0x20 PUSH1 0x40 MLOAD DUP1 DUP4 SUB DUP2 PUSH0 DUP8 GAS CALL ISZERO DUP1 ISZERO PUSH2 0x16C5 JUMPI RETURNDATASIZE PUSH0 DUP1 RETURNDATACOPY RETURNDATASIZE PUSH0 REVERT JUMPDEST POP POP POP POP PUSH1 0x40 MLOAD RETURNDATASIZE PUSH1 0x1F NOT PUSH1 0x1F DUP3 ADD AND DUP3 ADD DUP1 PUSH1 0x40 MSTORE POP DUP2 ADD SWAP1 PUSH2 0x16E9 SWAP2 SWAP1 PUSH2 0x366E JUMP JUMPDEST SWAP1 POP DUP1 ISZERO PUSH2 0x189A JUMPI PUSH1 0x40 MLOAD PUSH4 0x5691E3DD PUSH1 0xE0 SHL DUP2 MSTORE CALLER PUSH1 0x4 DUP3 ADD MSTORE PUSH32 0x0 PUSH1 0x1 PUSH1 0x1 PUSH1 0xA0 SHL SUB AND SWAP1 PUSH4 0x5691E3DD SWAP1 PUSH1 0x24 ADD PUSH0 PUSH1 0x40 MLOAD DUP1 DUP4 SUB DUP2 PUSH0 DUP8 DUP1 EXTCODESIZE ISZERO DUP1 ISZERO PUSH2 0x174F JUMPI PUSH0 DUP1 REVERT JUMPDEST POP GAS CALL ISZERO DUP1 ISZERO PUSH2 0x1761 JUMPI RETURNDATASIZE PUSH0 DUP1 RETURNDATACOPY RETURNDATASIZE PUSH0 REVERT JUMPDEST POP POP POP PUSH0 DUP7 DUP2 MSTORE PUSH1 0x4 PUSH1 0x20 SWAP1 DUP2 MSTORE PUSH1 0x40 DUP1 DUP4 KECCAK256 CALLER DUP5 MSTORE DUP3 MSTORE DUP1 DUP4 KECCAK256 DUP1 SLOAD PUSH1 0x1 PUSH1 0x1 PUSH1 0xA0 SHL SUB DUP11 AND PUSH1 0x1 PUSH1 0x1 PUSH1 0xA8 SHL SUB NOT SWAP1 SWAP2 AND DUP2 OR PUSH1 0x1 PUSH1 0xA0 SHL OR SWAP1 SWAP2 SSTORE DUP10 DUP5 MSTORE PUSH1 0x5 DUP4 MSTORE DUP2 DUP5 KECCAK256 SWAP1 DUP5 MSTORE SWAP1 SWAP2 MSTORE SWAP1 KECCAK256 SLOAD PUSH2 0x17BE SWAP2 POP PUSH1 0x1 PUSH2 0x3829 JUMP JUMPDEST PUSH0 DUP7 DUP2 MSTORE PUSH1 0x5 PUSH1 0x20 SWAP1 DUP2 MSTORE PUSH1 0x40 DUP1 DUP4 KECCAK256 PUSH1 0x1 PUSH1 0x1 PUSH1 0xA0 SHL SUB DUP10 AND DUP5 MSTORE DUP3 MSTORE DUP1 DUP4 KECCAK256 DUP5 SWAP1 SSTORE DUP9 DUP4 MSTORE PUSH1 0x2 SWAP1 SWAP2 MSTORE SWAP1 KECCAK256 PUSH1 0x1 ADD SLOAD SUB PUSH2 0x1816 JUMPI PUSH0 DUP6 DUP2 MSTORE PUSH1 0x2 PUSH1 0x20 DUP2 SWAP1 MSTORE PUSH1 0x40 SWAP1 SWAP2 KECCAK256 ADD DUP1 SLOAD PUSH1 0xFF NOT AND PUSH1 0x1 OR SWAP1 SSTORE PUSH2 0x18F0 JUMP JUMPDEST PUSH0 DUP6 DUP2 MSTORE PUSH1 0x5 PUSH1 0x20 SWAP1 DUP2 MSTORE PUSH1 0x40 DUP1 DUP4 KECCAK256 PUSH1 0x1 PUSH1 0x1 PUSH1 0xA0 SHL SUB DUP9 AND DUP5 MSTORE DUP3 MSTORE DUP1 DUP4 KECCAK256 SLOAD DUP9 DUP5 MSTORE PUSH1 0x2 SWAP1 SWAP3 MSTORE SWAP1 SWAP2 KECCAK256 PUSH1 0x1 ADD SLOAD LT ISZERO PUSH2 0x1895 JUMPI PUSH0 DUP6 DUP2 MSTORE PUSH1 0x5 PUSH1 0x20 SWAP1 DUP2 MSTORE PUSH1 0x40 DUP1 DUP4 KECCAK256 PUSH1 0x1 PUSH1 0x1 PUSH1 0xA0 SHL SUB DUP9 AND DUP1 DUP6 MSTORE SWAP1 DUP4 MSTORE DUP2 DUP5 KECCAK256 SLOAD DUP10 DUP6 MSTORE PUSH1 0x2 SWAP1 SWAP4 MSTORE SWAP3 KECCAK256 PUSH1 0x1 DUP2 ADD SWAP2 SWAP1 SWAP2 SSTORE DUP1 SLOAD PUSH1 0x1 PUSH1 0x1 PUSH1 0xA0 SHL SUB NOT AND SWAP1 SWAP2 OR SWAP1 SSTORE JUMPDEST PUSH2 0x18F0 JUMP JUMPDEST PUSH1 0x40 MLOAD PUSH3 0x461BCD PUSH1 0xE5 SHL DUP2 MSTORE PUSH1 0x20 PUSH1 0x4 DUP3 ADD MSTORE PUSH1 0x25 PUSH1 0x24 DUP3 ADD MSTORE PUSH32 0x696E73756666696369656E7420676F7665726E616E636520746F6B656E206261 PUSH1 0x44 DUP3 ADD MSTORE PUSH5 0x6C616E6365 PUSH1 0xD8 SHL PUSH1 0x64 DUP3 ADD MSTORE PUSH1 0x84 ADD PUSH2 0x54C JUMP JUMPDEST POP POP POP POP POP JUMP JUMPDEST PUSH1 0x40 MLOAD PUSH3 0x461BCD PUSH1 0xE5 SHL DUP2 MSTORE PUSH1 0x20 PUSH1 0x4 DUP3 ADD MSTORE PUSH1 0xD PUSH1 0x24 DUP3 ADD MSTORE PUSH13 0x185B1C9958591E481D9BDD1959 PUSH1 0x9A SHL PUSH1 0x44 DUP3 ADD MSTORE PUSH1 0x64 ADD PUSH2 0x54C JUMP JUMPDEST PUSH1 0x40 MLOAD PUSH4 0x4A65EC81 PUSH1 0xE0 SHL DUP2 MSTORE CALLER PUSH1 0x4 DUP3 ADD MSTORE PUSH32 0x0 PUSH1 0x24 DUP3 ADD MSTORE PUSH0 SWAP1 PUSH32 0x0 PUSH1 0x1 PUSH1 0x1 PUSH1 0xA0 SHL SUB AND SWAP1 PUSH4 0x4A65EC81 SWAP1 PUSH1 0x44 ADD PUSH1 0x20 PUSH1 0x40 MLOAD DUP1 DUP4 SUB DUP2 DUP7 GAS STATICCALL ISZERO DUP1 ISZERO PUSH2 0x19B9 JUMPI RETURNDATASIZE PUSH0 DUP1 RETURNDATACOPY RETURNDATASIZE PUSH0 REVERT JUMPDEST POP POP POP POP PUSH1 0x40 MLOAD RETURNDATASIZE PUSH1 0x1F NOT PUSH1 0x1F DUP3 ADD AND DUP3 ADD DUP1 PUSH1 0x40 MSTORE POP DUP2 ADD SWAP1 PUSH2 0x19DD SWAP2 SWAP1 PUSH2 0x366E JUMP JUMPDEST SWAP1 POP DUP1 PUSH2 0x19FC JUMPI PUSH1 0x40 MLOAD PUSH3 0x461BCD PUSH1 0xE5 SHL DUP2 MSTORE PUSH1 0x4 ADD PUSH2 0x54C SWAP1 PUSH2 0x3694 JUMP JUMPDEST PUSH1 0x6 DUP1 SLOAD PUSH1 0x1 DUP2 DUP2 ADD DUP4 SSTORE PUSH0 SWAP3 DUP4 MSTORE SWAP2 SLOAD PUSH1 0xE SWAP1 SWAP2 MUL PUSH32 0xF652222313E28459528D920B65115C16C04F3EFC82AAEDC97BE59F3F377C0D3F ADD SWAP2 PUSH2 0x1A3F SWAP2 SWAP1 PUSH2 0x3829 JUMP JUMPDEST PUSH0 DUP2 SWAP1 SSTORE DUP2 SSTORE PUSH1 0x1 DUP2 ADD PUSH2 0x1A53 DUP12 DUP3 PUSH2 0x3892 JUMP JUMPDEST POP PUSH0 PUSH1 0x4 DUP3 ADD SSTORE PUSH1 0x40 DUP1 MLOAD DUP1 DUP3 ADD SWAP1 SWAP2 MSTORE PUSH1 0x3 DUP2 MSTORE PUSH3 0x596573 PUSH1 0xE8 SHL PUSH1 0x20 DUP3 ADD MSTORE PUSH1 0x2 DUP3 ADD SWAP1 PUSH2 0x1A83 SWAP1 DUP3 PUSH2 0x3892 JUMP JUMPDEST POP PUSH1 0x40 DUP1 MLOAD DUP1 DUP3 ADD SWAP1 SWAP2 MSTORE PUSH1 0x2 DUP2 MSTORE PUSH2 0x4E6F PUSH1 0xF0 SHL PUSH1 0x20 DUP3 ADD MSTORE PUSH1 0x3 DUP3 ADD SWAP1 PUSH2 0x1AAC SWAP1 DUP3 PUSH2 0x3892 JUMP JUMPDEST POP PUSH1 0x40 DUP1 MLOAD DUP1 DUP3 ADD SWAP1 SWAP2 MSTORE PUSH1 0x7 DUP2 MSTORE PUSH7 0x10DC99585D1959 PUSH1 0xCA SHL PUSH1 0x20 DUP3 ADD MSTORE PUSH1 0x5 DUP3 ADD SWAP1 PUSH2 0x1ADA SWAP1 DUP3 PUSH2 0x3892 JUMP JUMPDEST POP PUSH1 0x6 DUP2 ADD PUSH2 0x1AE9 DUP11 DUP3 PUSH2 0x3892 JUMP JUMPDEST POP PUSH1 0x7 DUP2 ADD PUSH2 0x1AF8 DUP10 DUP3 PUSH2 0x3892 JUMP JUMPDEST POP PUSH1 0x8 DUP2 ADD PUSH2 0x1B07 DUP9 DUP3 PUSH2 0x3892 JUMP JUMPDEST POP PUSH1 0x9 DUP2 ADD DUP1 SLOAD PUSH1 0x1 PUSH1 0x1 PUSH1 0xA0 SHL SUB NOT AND PUSH1 0x1 PUSH1 0x1 PUSH1 0xA0 SHL SUB DUP9 AND OR SWAP1 SSTORE PUSH1 0xA DUP2 ADD DUP6 SWAP1 SSTORE PUSH1 0xB DUP2 ADD DUP5 SWAP1 SSTORE PUSH0 JUMPDEST DUP4 MLOAD DUP2 LT ISZERO PUSH2 0x1B98 JUMPI DUP2 PUSH1 0xD ADD DUP5 DUP3 DUP2 MLOAD DUP2 LT PUSH2 0x1B54 JUMPI PUSH2 0x1B54 PUSH2 0x36D6 JUMP JUMPDEST PUSH1 0x20 SWAP1 DUP2 MUL SWAP2 SWAP1 SWAP2 ADD DUP2 ADD MLOAD DUP3 SLOAD PUSH1 0x1 DUP1 DUP3 ADD DUP6 SSTORE PUSH0 SWAP5 DUP6 MSTORE SWAP3 SWAP1 SWAP4 KECCAK256 SWAP1 SWAP3 ADD DUP1 SLOAD PUSH1 0x1 PUSH1 0x1 PUSH1 0xA0 SHL SUB NOT AND PUSH1 0x1 PUSH1 0x1 PUSH1 0xA0 SHL SUB SWAP1 SWAP4 AND SWAP3 SWAP1 SWAP3 OR SWAP1 SWAP2 SSTORE ADD PUSH2 0x1B35 JUMP JUMPDEST POP PUSH1 0x40 DUP1 MLOAD DUP1 DUP3 ADD SWAP1 SWAP2 MSTORE PUSH1 0x6 DUP2 MSTORE PUSH6 0x139BDC9B585B PUSH1 0xD2 SHL PUSH1 0x20 SWAP2 DUP3 ADD MSTORE DUP11 MLOAD SWAP1 DUP12 ADD KECCAK256 PUSH32 0x4ACCCD685742EF1E6F346804E11F0B6A78374D1FEAC8F16BC3960297F2543943 ADD PUSH2 0x1DB8 JUMPI PUSH0 PUSH32 0x0 PUSH1 0x1 PUSH1 0x1 PUSH1 0xA0 SHL SUB AND PUSH4 0xFC6F9468 PUSH1 0x40 MLOAD DUP2 PUSH4 0xFFFFFFFF AND PUSH1 0xE0 SHL DUP2 MSTORE PUSH1 0x4 ADD PUSH0 PUSH1 0x40 MLOAD DUP1 DUP4 SUB DUP2 DUP7 GAS STATICCALL ISZERO DUP1 ISZERO PUSH2 0x1C3F JUMPI RETURNDATASIZE PUSH0 DUP1 RETURNDATACOPY RETURNDATASIZE PUSH0 REVERT JUMPDEST POP POP POP POP PUSH1 0x40 MLOAD RETURNDATASIZE PUSH0 DUP3 RETURNDATACOPY PUSH1 0x1F RETURNDATASIZE SWAP1 DUP2 ADD PUSH1 0x1F NOT AND DUP3 ADD PUSH1 0x40 MSTORE PUSH2 0x1C66 SWAP2 SWAP1 DUP2 ADD SWAP1 PUSH2 0x3722 JUMP JUMPDEST SWAP1 POP PUSH0 JUMPDEST DUP2 MLOAD DUP2 LT ISZERO PUSH2 0x1DB1 JUMPI PUSH32 0x0 PUSH1 0x1 PUSH1 0x1 PUSH1 0xA0 SHL SUB AND PUSH4 0x9DB5DBE4 PUSH32 0x0 DUP5 DUP5 DUP2 MLOAD DUP2 LT PUSH2 0x1CD5 JUMPI PUSH2 0x1CD5 PUSH2 0x36D6 JUMP JUMPDEST PUSH1 0x20 MUL PUSH1 0x20 ADD ADD MLOAD PUSH8 0xDE0B6B3A7640000 PUSH1 0x40 MLOAD DUP5 PUSH4 0xFFFFFFFF AND PUSH1 0xE0 SHL DUP2 MSTORE PUSH1 0x4 ADD PUSH2 0x1D04 SWAP4 SWAP3 SWAP2 SWAP1 PUSH2 0x3AC0 JUMP JUMPDEST PUSH0 PUSH1 0x40 MLOAD DUP1 DUP4 SUB DUP2 PUSH0 DUP8 DUP1 EXTCODESIZE ISZERO DUP1 ISZERO PUSH2 0x1D1B JUMPI PUSH0 DUP1 REVERT JUMPDEST POP GAS CALL ISZERO DUP1 ISZERO PUSH2 0x1D2D JUMPI RETURNDATASIZE PUSH0 DUP1 RETURNDATACOPY RETURNDATASIZE PUSH0 REVERT JUMPDEST POP POP PUSH1 0x40 MLOAD PUSH4 0x3ABD00A3 PUSH1 0xE0 SHL DUP2 MSTORE CALLER PUSH1 0x4 DUP3 ADD MSTORE PUSH32 0x0 PUSH1 0x1 PUSH1 0x1 PUSH1 0xA0 SHL SUB AND SWAP3 POP PUSH4 0x3ABD00A3 SWAP2 POP PUSH1 0x24 ADD PUSH0 PUSH1 0x40 MLOAD DUP1 DUP4 SUB DUP2 PUSH0 DUP8 DUP1 EXTCODESIZE ISZERO DUP1 ISZERO PUSH2 0x1D8F JUMPI PUSH0 DUP1 REVERT JUMPDEST POP GAS CALL ISZERO DUP1 ISZERO PUSH2 0x1DA1 JUMPI RETURNDATASIZE PUSH0 DUP1 RETURNDATACOPY RETURNDATASIZE PUSH0 REVERT JUMPDEST POP POP PUSH1 0x1 SWAP1 SWAP3 ADD SWAP2 POP PUSH2 0x1C6A SWAP1 POP JUMP JUMPDEST POP POP PUSH2 0x1F8E JUMP JUMPDEST PUSH1 0x40 DUP1 MLOAD DUP1 DUP3 ADD DUP3 MSTORE PUSH1 0x8 DUP2 MSTORE PUSH8 0x22B632B1BA34B7B7 PUSH1 0xC1 SHL PUSH1 0x20 SWAP1 SWAP2 ADD MSTORE MLOAD PUSH32 0x235A6F54090E9B94AA4E585A699C4375A2FF8F572C68114D138F0ED121527849 SWAP1 PUSH2 0x1E08 SWAP1 PUSH1 0x1 DUP5 ADD SWAP1 PUSH2 0x37B7 JUMP JUMPDEST PUSH1 0x40 MLOAD DUP1 SWAP2 SUB SWAP1 KECCAK256 SUB PUSH2 0x1E85 JUMPI PUSH0 DUP2 PUSH1 0x7 ADD DUP1 SLOAD PUSH2 0x1E25 SWAP1 PUSH2 0x36EA JUMP JUMPDEST SWAP1 POP GT PUSH2 0x1E80 JUMPI PUSH1 0x40 MLOAD PUSH3 0x461BCD PUSH1 0xE5 SHL DUP2 MSTORE PUSH1 0x20 PUSH1 0x4 DUP3 ADD MSTORE PUSH1 0x23 PUSH1 0x24 DUP3 ADD MSTORE PUSH32 0x74686520726567696F6E20697320726571756972656420666F7220656C656374 PUSH1 0x44 DUP3 ADD MSTORE PUSH3 0x34B7B7 PUSH1 0xE9 SHL PUSH1 0x64 DUP3 ADD MSTORE PUSH1 0x84 ADD PUSH2 0x54C JUMP JUMPDEST PUSH2 0x1F8E JUMP JUMPDEST PUSH1 0x40 DUP1 MLOAD DUP1 DUP3 ADD DUP3 MSTORE PUSH1 0x8 DUP2 MSTORE PUSH8 0x4164645573657273 PUSH1 0xC0 SHL PUSH1 0x20 SWAP1 SWAP2 ADD MSTORE MLOAD PUSH32 0xD49FC98A8C2EF96CB8C2C4DCDA2800F920F7043555E23FD4D9E4F97AE0A1FA6E SWAP1 PUSH2 0x1ED5 SWAP1 PUSH1 0x1 DUP5 ADD SWAP1 PUSH2 0x37B7 JUMP JUMPDEST PUSH1 0x40 MLOAD DUP1 SWAP2 SUB SWAP1 KECCAK256 SUB PUSH2 0x1F4D JUMPI PUSH0 DUP2 PUSH1 0x7 ADD DUP1 SLOAD PUSH2 0x1EF2 SWAP1 PUSH2 0x36EA JUMP JUMPDEST SWAP1 POP GT PUSH2 0x1E80 JUMPI PUSH1 0x40 MLOAD PUSH3 0x461BCD PUSH1 0xE5 SHL DUP2 MSTORE PUSH1 0x20 PUSH1 0x4 DUP3 ADD MSTORE PUSH1 0x23 PUSH1 0x24 DUP3 ADD MSTORE PUSH32 0x74686520726567696F6E20697320726571756972656420746F20616464207573 PUSH1 0x44 DUP3 ADD MSTORE PUSH3 0x657273 PUSH1 0xE8 SHL PUSH1 0x64 DUP3 ADD MSTORE PUSH1 0x84 ADD PUSH2 0x54C JUMP JUMPDEST PUSH1 0x40 MLOAD PUSH4 0x85DCE5FD PUSH1 0xE0 SHL DUP2 MSTORE PUSH1 0x20 PUSH1 0x4 DUP3 ADD MSTORE PUSH1 0x15 PUSH1 0x24 DUP3 ADD MSTORE PUSH21 0x696E76616C696420656C656374696F6E2074797065 PUSH1 0x58 SHL PUSH1 0x44 DUP3 ADD MSTORE PUSH1 0x64 ADD PUSH2 0x54C JUMP JUMPDEST POP POP POP POP POP POP POP POP POP POP JUMP JUMPDEST PUSH1 0x40 DUP1 MLOAD DUP1 DUP3 ADD SWAP1 SWAP2 MSTORE PUSH1 0x7 DUP2 MSTORE PUSH7 0x10DC99585D1959 PUSH1 0xCA SHL PUSH1 0x20 SWAP2 DUP3 ADD MSTORE DUP2 MLOAD SWAP1 DUP3 ADD KECCAK256 PUSH32 0xDFD899D98FD273FDFB3AB9D667C9743F84081D8E2009D188F3AD6B0967260E8B EQ PUSH2 0x204B JUMPI PUSH1 0x40 MLOAD PUSH3 0x461BCD PUSH1 0xE5 SHL DUP2 MSTORE PUSH1 0x20 PUSH1 0x4 DUP3 ADD MSTORE PUSH1 0x35 PUSH1 0x24 DUP3 ADD MSTORE PUSH32 0x552063616E20766F746520666F722070726F706F73616C207768696368206973 PUSH1 0x44 DUP3 ADD MSTORE PUSH21 0x206E6F7420696E2063726561746564207374616765 PUSH1 0x58 SHL PUSH1 0x64 DUP3 ADD MSTORE PUSH1 0x84 ADD PUSH2 0x54C JUMP JUMPDEST PUSH1 0x40 MLOAD PUSH4 0x4A65EC81 PUSH1 0xE0 SHL DUP2 MSTORE CALLER PUSH1 0x4 DUP3 ADD MSTORE PUSH32 0x0 PUSH1 0x24 DUP3 ADD MSTORE PUSH0 SWAP1 PUSH32 0x0 PUSH1 0x1 PUSH1 0x1 PUSH1 0xA0 SHL SUB AND SWAP1 PUSH4 0x4A65EC81 SWAP1 PUSH1 0x44 ADD PUSH1 0x20 PUSH1 0x40 MLOAD DUP1 DUP4 SUB DUP2 DUP7 GAS STATICCALL ISZERO DUP1 ISZERO PUSH2 0x20D5 JUMPI RETURNDATASIZE PUSH0 DUP1 RETURNDATACOPY RETURNDATASIZE PUSH0 REVERT JUMPDEST POP POP POP POP PUSH1 0x40 MLOAD RETURNDATASIZE PUSH1 0x1F NOT PUSH1 0x1F DUP3 ADD AND DUP3 ADD DUP1 PUSH1 0x40 MSTORE POP DUP2 ADD SWAP1 PUSH2 0x20F9 SWAP2 SWAP1 PUSH2 0x366E JUMP JUMPDEST SWAP1 POP DUP1 PUSH2 0x2118 JUMPI PUSH1 0x40 MLOAD PUSH3 0x461BCD PUSH1 0xE5 SHL DUP2 MSTORE PUSH1 0x4 ADD PUSH2 0x54C SWAP1 PUSH2 0x3694 JUMP JUMPDEST CALLER PUSH0 SWAP1 DUP2 MSTORE PUSH1 0x7 PUSH1 0x20 SWAP1 DUP2 MSTORE PUSH1 0x40 DUP1 DUP4 KECCAK256 DUP8 DUP5 MSTORE SWAP1 SWAP2 MSTORE SWAP1 KECCAK256 PUSH1 0x1 SWAP1 DUP2 ADD SLOAD PUSH1 0xFF AND ISZERO ISZERO SWAP1 SUB PUSH2 0x215D JUMPI PUSH1 0x40 MLOAD PUSH4 0x209960C3 PUSH1 0xE2 SHL DUP2 MSTORE CALLER PUSH1 0x4 DUP3 ADD MSTORE PUSH1 0x24 ADD PUSH2 0x54C JUMP JUMPDEST PUSH1 0x40 MLOAD PUSH4 0x70A08231 PUSH1 0xE0 SHL DUP2 MSTORE CALLER PUSH1 0x4 DUP3 ADD MSTORE PUSH0 SWAP1 PUSH32 0x0 PUSH1 0x1 PUSH1 0x1 PUSH1 0xA0 SHL SUB AND SWAP1 PUSH4 0x70A08231 SWAP1 PUSH1 0x24 ADD PUSH1 0x20 PUSH1 0x40 MLOAD DUP1 DUP4 SUB DUP2 DUP7 GAS STATICCALL ISZERO DUP1 ISZERO PUSH2 0x21C1 JUMPI RETURNDATASIZE PUSH0 DUP1 RETURNDATACOPY RETURNDATASIZE PUSH0 REVERT JUMPDEST POP POP POP POP PUSH1 0x40 MLOAD RETURNDATASIZE PUSH1 0x1F NOT PUSH1 0x1F DUP3 ADD AND DUP3 ADD DUP1 PUSH1 0x40 MSTORE POP DUP2 ADD SWAP1 PUSH2 0x21E5 SWAP2 SWAP1 PUSH2 0x3B35 JUMP JUMPDEST SWAP1 POP PUSH8 0xDE0B6B3A7640000 DUP2 LT ISZERO PUSH2 0x2234 JUMPI PUSH1 0x40 MLOAD PUSH3 0x461BCD PUSH1 0xE5 SHL DUP2 MSTORE PUSH1 0x20 PUSH1 0x4 DUP3 ADD MSTORE PUSH1 0x12 PUSH1 0x24 DUP3 ADD MSTORE PUSH18 0x62616C616E636520697320746F6F206C6F77 PUSH1 0x70 SHL PUSH1 0x44 DUP3 ADD MSTORE PUSH1 0x64 ADD PUSH2 0x54C JUMP JUMPDEST PUSH1 0x40 MLOAD PUSH3 0xF229D PUSH1 0xEC SHL DUP2 MSTORE ORIGIN PUSH1 0x4 DUP3 ADD MSTORE ADDRESS PUSH1 0x24 DUP3 ADD MSTORE PUSH8 0xDE0B6B3A7640000 PUSH1 0x44 DUP3 ADD MSTORE PUSH1 0x1 PUSH1 0x64 DUP3 ADD MSTORE PUSH32 0x0 PUSH1 0x1 PUSH1 0x1 PUSH1 0xA0 SHL SUB AND SWAP1 PUSH4 0xF229D000 SWAP1 PUSH1 0x84 ADD PUSH0 PUSH1 0x40 MLOAD DUP1 DUP4 SUB DUP2 PUSH0 DUP8 DUP1 EXTCODESIZE ISZERO DUP1 ISZERO PUSH2 0x22AC JUMPI PUSH0 DUP1 REVERT JUMPDEST POP GAS CALL ISZERO DUP1 ISZERO PUSH2 0x22BE JUMPI RETURNDATASIZE PUSH0 DUP1 RETURNDATACOPY RETURNDATASIZE PUSH0 REVERT JUMPDEST POP POP PUSH1 0x40 MLOAD PUSH4 0x23B872DD PUSH1 0xE0 SHL DUP2 MSTORE PUSH0 SWAP3 POP PUSH1 0x1 PUSH1 0x1 PUSH1 0xA0 SHL SUB PUSH32 0x0 AND SWAP2 POP PUSH4 0x23B872DD SWAP1 PUSH2 0x233C SWAP1 ORIGIN SWAP1 PUSH32 0x0 SWAP1 PUSH8 0xDE0B6B3A7640000 SWAP1 PUSH1 0x4 ADD PUSH2 0x3AC0 JUMP JUMPDEST PUSH1 0x20 PUSH1 0x40 MLOAD DUP1 DUP4 SUB DUP2 PUSH0 DUP8 GAS CALL ISZERO DUP1 ISZERO PUSH2 0x2358 JUMPI RETURNDATASIZE PUSH0 DUP1 RETURNDATACOPY RETURNDATASIZE PUSH0 REVERT JUMPDEST POP POP POP POP PUSH1 0x40 MLOAD RETURNDATASIZE PUSH1 0x1F NOT PUSH1 0x1F DUP3 ADD AND DUP3 ADD DUP1 PUSH1 0x40 MSTORE POP DUP2 ADD SWAP1 PUSH2 0x237C SWAP2 SWAP1 PUSH2 0x366E JUMP JUMPDEST SWAP1 POP DUP1 ISZERO PUSH2 0x2428 JUMPI CALLER PUSH0 SWAP1 DUP2 MSTORE PUSH1 0x7 PUSH1 0x20 SWAP1 DUP2 MSTORE PUSH1 0x40 DUP1 DUP4 KECCAK256 DUP10 DUP5 MSTORE SWAP1 SWAP2 MSTORE SWAP1 KECCAK256 PUSH1 0x1 DUP1 DUP3 ADD DUP1 SLOAD PUSH1 0xFF NOT AND SWAP1 SWAP2 OR SWAP1 SSTORE PUSH2 0x23B7 DUP7 DUP3 PUSH2 0x3892 JUMP JUMPDEST POP PUSH1 0x40 MLOAD PUSH4 0x880BAF27 PUSH1 0xE0 SHL DUP2 MSTORE CALLER PUSH1 0x4 DUP3 ADD MSTORE PUSH32 0x0 PUSH1 0x1 PUSH1 0x1 PUSH1 0xA0 SHL SUB AND SWAP1 PUSH4 0x880BAF27 SWAP1 PUSH1 0x24 ADD PUSH0 PUSH1 0x40 MLOAD DUP1 DUP4 SUB DUP2 PUSH0 DUP8 DUP1 EXTCODESIZE ISZERO DUP1 ISZERO PUSH2 0x2416 JUMPI PUSH0 DUP1 REVERT JUMPDEST POP GAS CALL ISZERO DUP1 ISZERO PUSH2 0x1F8E JUMPI RETURNDATASIZE PUSH0 DUP1 RETURNDATACOPY RETURNDATASIZE PUSH0 REVERT JUMPDEST POP POP POP POP POP POP JUMP JUMPDEST PUSH1 0x3 DUP2 DUP2 SLOAD DUP2 LT PUSH2 0x243F JUMPI PUSH0 DUP1 REVERT JUMPDEST PUSH0 SWAP2 DUP3 MSTORE PUSH1 0x20 SWAP1 SWAP2 KECCAK256 PUSH1 0x7 SWAP1 SWAP2 MUL ADD DUP1 SLOAD PUSH1 0x1 DUP3 ADD SLOAD PUSH1 0x2 DUP4 ADD SLOAD PUSH1 0x3 DUP5 ADD SLOAD PUSH1 0x4 DUP6 ADD SLOAD PUSH1 0x5 DUP7 ADD DUP1 SLOAD SWAP6 SWAP8 POP PUSH1 0x1 PUSH1 0x1 PUSH1 0xA0 SHL SUB SWAP1 SWAP5 AND SWAP6 SWAP3 SWAP5 SWAP2 SWAP4 SWAP1 SWAP3 SWAP2 PUSH2 0x2489 SWAP1 PUSH2 0x36EA JUMP JUMPDEST DUP1 PUSH1 0x1F ADD PUSH1 0x20 DUP1 SWAP2 DIV MUL PUSH1 0x20 ADD PUSH1 0x40 MLOAD SWAP1 DUP2 ADD PUSH1 0x40 MSTORE DUP1 SWAP3 SWAP2 SWAP1 DUP2 DUP2 MSTORE PUSH1 0x20 ADD DUP3 DUP1 SLOAD PUSH2 0x24B5 SWAP1 PUSH2 0x36EA JUMP JUMPDEST DUP1 ISZERO PUSH2 0x2500 JUMPI DUP1 PUSH1 0x1F LT PUSH2 0x24D7 JUMPI PUSH2 0x100 DUP1 DUP4 SLOAD DIV MUL DUP4 MSTORE SWAP2 PUSH1 0x20 ADD SWAP2 PUSH2 0x2500 JUMP JUMPDEST DUP3 ADD SWAP2 SWAP1 PUSH0 MSTORE PUSH1 0x20 PUSH0 KECCAK256 SWAP1 JUMPDEST DUP2 SLOAD DUP2 MSTORE SWAP1 PUSH1 0x1 ADD SWAP1 PUSH1 0x20 ADD DUP1 DUP4 GT PUSH2 0x24E3 JUMPI DUP3 SWAP1 SUB PUSH1 0x1F AND DUP3 ADD SWAP2 JUMPDEST POP POP POP POP POP SWAP1 DUP1 PUSH1 0x6 ADD DUP1 SLOAD PUSH2 0x2515 SWAP1 PUSH2 0x36EA JUMP JUMPDEST DUP1 PUSH1 0x1F ADD PUSH1 0x20 DUP1 SWAP2 DIV MUL PUSH1 0x20 ADD PUSH1 0x40 MLOAD SWAP1 DUP2 ADD PUSH1 0x40 MSTORE DUP1 SWAP3 SWAP2 SWAP1 DUP2 DUP2 MSTORE PUSH1 0x20 ADD DUP3 DUP1 SLOAD PUSH2 0x2541 SWAP1 PUSH2 0x36EA JUMP JUMPDEST DUP1 ISZERO PUSH2 0x258C JUMPI DUP1 PUSH1 0x1F LT PUSH2 0x2563 JUMPI PUSH2 0x100 DUP1 DUP4 SLOAD DIV MUL DUP4 MSTORE SWAP2 PUSH1 0x20 ADD SWAP2 PUSH2 0x258C JUMP JUMPDEST DUP3 ADD SWAP2 SWAP1 PUSH0 MSTORE PUSH1 0x20 PUSH0 KECCAK256 SWAP1 JUMPDEST DUP2 SLOAD DUP2 MSTORE SWAP1 PUSH1 0x1 ADD SWAP1 PUSH1 0x20 ADD DUP1 DUP4 GT PUSH2 0x256F JUMPI DUP3 SWAP1 SUB PUSH1 0x1F AND DUP3 ADD SWAP2 JUMPDEST POP POP POP POP POP SWAP1 POP DUP8 JUMP JUMPDEST PUSH1 0x6 DUP2 DUP2 SLOAD DUP2 LT PUSH2 0x25A5 JUMPI PUSH0 DUP1 REVERT JUMPDEST PUSH0 SWAP2 DUP3 MSTORE PUSH1 0x20 SWAP1 SWAP2 KECCAK256 PUSH1 0xE SWAP1 SWAP2 MUL ADD DUP1 SLOAD PUSH1 0x1 DUP3 ADD DUP1 SLOAD SWAP2 SWAP4 POP SWAP1 PUSH2 0x25C9 SWAP1 PUSH2 0x36EA JUMP JUMPDEST DUP1 PUSH1 0x1F ADD PUSH1 0x20 DUP1 SWAP2 DIV MUL PUSH1 0x20 ADD PUSH1 0x40 MLOAD SWAP1 DUP2 ADD PUSH1 0x40 MSTORE DUP1 SWAP3 SWAP2 SWAP1 DUP2 DUP2 MSTORE PUSH1 0x20 ADD DUP3 DUP1 SLOAD PUSH2 0x25F5 SWAP1 PUSH2 0x36EA JUMP JUMPDEST DUP1 ISZERO PUSH2 0x2640 JUMPI DUP1 PUSH1 0x1F LT PUSH2 0x2617 JUMPI PUSH2 0x100 DUP1 DUP4 SLOAD DIV MUL DUP4 MSTORE SWAP2 PUSH1 0x20 ADD SWAP2 PUSH2 0x2640 JUMP JUMPDEST DUP3 ADD SWAP2 SWAP1 PUSH0 MSTORE PUSH1 0x20 PUSH0 KECCAK256 SWAP1 JUMPDEST DUP2 SLOAD DUP2 MSTORE SWAP1 PUSH1 0x1 ADD SWAP1 PUSH1 0x20 ADD DUP1 DUP4 GT PUSH2 0x2623 JUMPI DUP3 SWAP1 SUB PUSH1 0x1F AND DUP3 ADD SWAP2 JUMPDEST POP POP POP POP POP SWAP1 DUP1 PUSH1 0x2 ADD DUP1 SLOAD PUSH2 0x2655 SWAP1 PUSH2 0x36EA JUMP JUMPDEST DUP1 PUSH1 0x1F ADD PUSH1 0x20 DUP1 SWAP2 DIV MUL PUSH1 0x20 ADD PUSH1 0x40 MLOAD SWAP1 DUP2 ADD PUSH1 0x40 MSTORE DUP1 SWAP3 SWAP2 SWAP1 DUP2 DUP2 MSTORE PUSH1 0x20 ADD DUP3 DUP1 SLOAD PUSH2 0x2681 SWAP1 PUSH2 0x36EA JUMP JUMPDEST DUP1 ISZERO PUSH2 0x26CC JUMPI DUP1 PUSH1 0x1F LT PUSH2 0x26A3 JUMPI PUSH2 0x100 DUP1 DUP4 SLOAD DIV MUL DUP4 MSTORE SWAP2 PUSH1 0x20 ADD SWAP2 PUSH2 0x26CC JUMP JUMPDEST DUP3 ADD SWAP2 SWAP1 PUSH0 MSTORE PUSH1 0x20 PUSH0 KECCAK256 SWAP1 JUMPDEST DUP2 SLOAD DUP2 MSTORE SWAP1 PUSH1 0x1 ADD SWAP1 PUSH1 0x20 ADD DUP1 DUP4 GT PUSH2 0x26AF JUMPI DUP3 SWAP1 SUB PUSH1 0x1F AND DUP3 ADD SWAP2 JUMPDEST POP POP POP POP POP SWAP1 DUP1 PUSH1 0x3 ADD DUP1 SLOAD PUSH2 0x26E1 SWAP1 PUSH2 0x36EA JUMP JUMPDEST DUP1 PUSH1 0x1F ADD PUSH1 0x20 DUP1 SWAP2 DIV MUL PUSH1 0x20 ADD PUSH1 0x40 MLOAD SWAP1 DUP2 ADD PUSH1 0x40 MSTORE DUP1 SWAP3 SWAP2 SWAP1 DUP2 DUP2 MSTORE PUSH1 0x20 ADD DUP3 DUP1 SLOAD PUSH2 0x270D SWAP1 PUSH2 0x36EA JUMP JUMPDEST DUP1 ISZERO PUSH2 0x2758 JUMPI DUP1 PUSH1 0x1F LT PUSH2 0x272F JUMPI PUSH2 0x100 DUP1 DUP4 SLOAD DIV MUL DUP4 MSTORE SWAP2 PUSH1 0x20 ADD SWAP2 PUSH2 0x2758 JUMP JUMPDEST DUP3 ADD SWAP2 SWAP1 PUSH0 MSTORE PUSH1 0x20 PUSH0 KECCAK256 SWAP1 JUMPDEST DUP2 SLOAD DUP2 MSTORE SWAP1 PUSH1 0x1 ADD SWAP1 PUSH1 0x20 ADD DUP1 DUP4 GT PUSH2 0x273B JUMPI DUP3 SWAP1 SUB PUSH1 0x1F AND DUP3 ADD SWAP2 JUMPDEST POP POP POP POP POP SWAP1 DUP1 PUSH1 0x4 ADD SLOAD SWAP1 DUP1 PUSH1 0x5 ADD DUP1 SLOAD PUSH2 0x2773 SWAP1 PUSH2 0x36EA JUMP JUMPDEST DUP1 PUSH1 0x1F ADD PUSH1 0x20 DUP1 SWAP2 DIV MUL PUSH1 0x20 ADD PUSH1 0x40 MLOAD SWAP1 DUP2 ADD PUSH1 0x40 MSTORE DUP1 SWAP3 SWAP2 SWAP1 DUP2 DUP2 MSTORE PUSH1 0x20 ADD DUP3 DUP1 SLOAD PUSH2 0x279F SWAP1 PUSH2 0x36EA JUMP JUMPDEST DUP1 ISZERO PUSH2 0x27EA JUMPI DUP1 PUSH1 0x1F LT PUSH2 0x27C1 JUMPI PUSH2 0x100 DUP1 DUP4 SLOAD DIV MUL DUP4 MSTORE SWAP2 PUSH1 0x20 ADD SWAP2 PUSH2 0x27EA JUMP JUMPDEST DUP3 ADD SWAP2 SWAP1 PUSH0 MSTORE PUSH1 0x20 PUSH0 KECCAK256 SWAP1 JUMPDEST DUP2 SLOAD DUP2 MSTORE SWAP1 PUSH1 0x1 ADD SWAP1 PUSH1 0x20 ADD DUP1 DUP4 GT PUSH2 0x27CD JUMPI DUP3 SWAP1 SUB PUSH1 0x1F AND DUP3 ADD SWAP2 JUMPDEST POP POP POP POP POP SWAP1 DUP1 PUSH1 0x6 ADD DUP1 SLOAD PUSH2 0x27FF SWAP1 PUSH2 0x36EA JUMP JUMPDEST DUP1 PUSH1 0x1F ADD PUSH1 0x20 DUP1 SWAP2 DIV MUL PUSH1 0x20 ADD PUSH1 0x40 MLOAD SWAP1 DUP2 ADD PUSH1 0x40 MSTORE DUP1 SWAP3 SWAP2 SWAP1 DUP2 DUP2 MSTORE PUSH1 0x20 ADD DUP3 DUP1 SLOAD PUSH2 0x282B SWAP1 PUSH2 0x36EA JUMP JUMPDEST DUP1 ISZERO PUSH2 0x2876 JUMPI DUP1 PUSH1 0x1F LT PUSH2 0x284D JUMPI PUSH2 0x100 DUP1 DUP4 SLOAD DIV MUL DUP4 MSTORE SWAP2 PUSH1 0x20 ADD SWAP2 PUSH2 0x2876 JUMP JUMPDEST DUP3 ADD SWAP2 SWAP1 PUSH0 MSTORE PUSH1 0x20 PUSH0 KECCAK256 SWAP1 JUMPDEST DUP2 SLOAD DUP2 MSTORE SWAP1 PUSH1 0x1 ADD SWAP1 PUSH1 0x20 ADD DUP1 DUP4 GT PUSH2 0x2859 JUMPI DUP3 SWAP1 SUB PUSH1 0x1F AND DUP3 ADD SWAP2 JUMPDEST POP POP POP POP POP SWAP1 DUP1 PUSH1 0x7 ADD DUP1 SLOAD PUSH2 0x288B SWAP1 PUSH2 0x36EA JUMP JUMPDEST DUP1 PUSH1 0x1F ADD PUSH1 0x20 DUP1 SWAP2 DIV MUL PUSH1 0x20 ADD PUSH1 0x40 MLOAD SWAP1 DUP2 ADD PUSH1 0x40 MSTORE DUP1 SWAP3 SWAP2 SWAP1 DUP2 DUP2 MSTORE PUSH1 0x20 ADD DUP3 DUP1 SLOAD PUSH2 0x28B7 SWAP1 PUSH2 0x36EA JUMP JUMPDEST DUP1 ISZERO PUSH2 0x2902 JUMPI DUP1 PUSH1 0x1F LT PUSH2 0x28D9 JUMPI PUSH2 0x100 DUP1 DUP4 SLOAD DIV MUL DUP4 MSTORE SWAP2 PUSH1 0x20 ADD SWAP2 PUSH2 0x2902 JUMP JUMPDEST DUP3 ADD SWAP2 SWAP1 PUSH0 MSTORE PUSH1 0x20 PUSH0 KECCAK256 SWAP1 JUMPDEST DUP2 SLOAD DUP2 MSTORE SWAP1 PUSH1 0x1 ADD SWAP1 PUSH1 0x20 ADD DUP1 DUP4 GT PUSH2 0x28E5 JUMPI DUP3 SWAP1 SUB PUSH1 0x1F AND DUP3 ADD SWAP2 JUMPDEST POP POP POP POP POP SWAP1 DUP1 PUSH1 0x8 ADD DUP1 SLOAD PUSH2 0x2917 SWAP1 PUSH2 0x36EA JUMP JUMPDEST DUP1 PUSH1 0x1F ADD PUSH1 0x20 DUP1 SWAP2 DIV MUL PUSH1 0x20 ADD PUSH1 0x40 MLOAD SWAP1 DUP2 ADD PUSH1 0x40 MSTORE DUP1 SWAP3 SWAP2 SWAP1 DUP2 DUP2 MSTORE PUSH1 0x20 ADD DUP3 DUP1 SLOAD PUSH2 0x2943 SWAP1 PUSH2 0x36EA JUMP JUMPDEST DUP1 ISZERO PUSH2 0x298E JUMPI DUP1 PUSH1 0x1F LT PUSH2 0x2965 JUMPI PUSH2 0x100 DUP1 DUP4 SLOAD DIV MUL DUP4 MSTORE SWAP2 PUSH1 0x20 ADD SWAP2 PUSH2 0x298E JUMP JUMPDEST DUP3 ADD SWAP2 SWAP1 PUSH0 MSTORE PUSH1 0x20 PUSH0 KECCAK256 SWAP1 JUMPDEST DUP2 SLOAD DUP2 MSTORE SWAP1 PUSH1 0x1 ADD SWAP1 PUSH1 0x20 ADD DUP1 DUP4 GT PUSH2 0x2971 JUMPI DUP3 SWAP1 SUB PUSH1 0x1F AND DUP3 ADD SWAP2 JUMPDEST POP POP POP PUSH1 0x9 DUP5 ADD SLOAD PUSH1 0xA DUP6 ADD SLOAD PUSH1 0xB DUP7 ADD SLOAD PUSH1 0xC DUP8 ADD DUP1 SLOAD SWAP7 SWAP8 PUSH1 0x1 PUSH1 0x1 PUSH1 0xA0 SHL SUB SWAP1 SWAP5 AND SWAP7 SWAP3 SWAP6 POP SWAP1 SWAP4 POP SWAP1 PUSH2 0x29C4 SWAP1 PUSH2 0x36EA JUMP JUMPDEST DUP1 PUSH1 0x1F ADD PUSH1 0x20 DUP1 SWAP2 DIV MUL PUSH1 0x20 ADD PUSH1 0x40 MLOAD SWAP1 DUP2 ADD PUSH1 0x40 MSTORE DUP1 SWAP3 SWAP2 SWAP1 DUP2 DUP2 MSTORE PUSH1 0x20 ADD DUP3 DUP1 SLOAD PUSH2 0x29F0 SWAP1 PUSH2 0x36EA JUMP JUMPDEST DUP1 ISZERO PUSH2 0x2A3B JUMPI DUP1 PUSH1 0x1F LT PUSH2 0x2A12 JUMPI PUSH2 0x100 DUP1 DUP4 SLOAD DIV MUL DUP4 MSTORE SWAP2 PUSH1 0x20 ADD SWAP2 PUSH2 0x2A3B JUMP JUMPDEST DUP3 ADD SWAP2 SWAP1 PUSH0 MSTORE PUSH1 0x20 PUSH0 KECCAK256 SWAP1 JUMPDEST DUP2 SLOAD DUP2 MSTORE SWAP1 PUSH1 0x1 ADD SWAP1 PUSH1 0x20 ADD DUP1 DUP4 GT PUSH2 0x2A1E JUMPI DUP3 SWAP1 SUB PUSH1 0x1F AND DUP3 ADD SWAP2 JUMPDEST POP POP POP POP POP SWAP1 POP DUP14 JUMP JUMPDEST PUSH1 0x60 PUSH1 0x6 DUP1 SLOAD DUP1 PUSH1 0x20 MUL PUSH1 0x20 ADD PUSH1 0x40 MLOAD SWAP1 DUP2 ADD PUSH1 0x40 MSTORE DUP1 SWAP3 SWAP2 SWAP1 DUP2 DUP2 MSTORE PUSH1 0x20 ADD PUSH0 SWAP1 JUMPDEST DUP3 DUP3 LT ISZERO PUSH2 0x2FB7 JUMPI DUP4 DUP3 SWAP1 PUSH0 MSTORE PUSH1 0x20 PUSH0 KECCAK256 SWAP1 PUSH1 0xE MUL ADD PUSH1 0x40 MLOAD DUP1 PUSH2 0x1C0 ADD PUSH1 0x40 MSTORE SWAP1 DUP2 PUSH0 DUP3 ADD SLOAD DUP2 MSTORE PUSH1 0x20 ADD PUSH1 0x1 DUP3 ADD DUP1 SLOAD PUSH2 0x2AA3 SWAP1 PUSH2 0x36EA JUMP JUMPDEST DUP1 PUSH1 0x1F ADD PUSH1 0x20 DUP1 SWAP2 DIV MUL PUSH1 0x20 ADD PUSH1 0x40 MLOAD SWAP1 DUP2 ADD PUSH1 0x40 MSTORE DUP1 SWAP3 SWAP2 SWAP1 DUP2 DUP2 MSTORE PUSH1 0x20 ADD DUP3 DUP1 SLOAD PUSH2 0x2ACF SWAP1 PUSH2 0x36EA JUMP JUMPDEST DUP1 ISZERO PUSH2 0x2B1A JUMPI DUP1 PUSH1 0x1F LT PUSH2 0x2AF1 JUMPI PUSH2 0x100 DUP1 DUP4 SLOAD DIV MUL DUP4 MSTORE SWAP2 PUSH1 0x20 ADD SWAP2 PUSH2 0x2B1A JUMP JUMPDEST DUP3 ADD SWAP2 SWAP1 PUSH0 MSTORE PUSH1 0x20 PUSH0 KECCAK256 SWAP1 JUMPDEST DUP2 SLOAD DUP2 MSTORE SWAP1 PUSH1 0x1 ADD SWAP1 PUSH1 0x20 ADD DUP1 DUP4 GT PUSH2 0x2AFD JUMPI DUP3 SWAP1 SUB PUSH1 0x1F AND DUP3 ADD SWAP2 JUMPDEST POP POP POP POP POP DUP2 MSTORE PUSH1 0x20 ADD PUSH1 0x2 DUP3 ADD DUP1 SLOAD PUSH2 0x2B33 SWAP1 PUSH2 0x36EA JUMP JUMPDEST DUP1 PUSH1 0x1F ADD PUSH1 0x20 DUP1 SWAP2 DIV MUL PUSH1 0x20 ADD PUSH1 0x40 MLOAD SWAP1 DUP2 ADD PUSH1 0x40 MSTORE DUP1 SWAP3 SWAP2 SWAP1 DUP2 DUP2 MSTORE PUSH1 0x20 ADD DUP3 DUP1 SLOAD PUSH2 0x2B5F SWAP1 PUSH2 0x36EA JUMP JUMPDEST DUP1 ISZERO PUSH2 0x2BAA JUMPI DUP1 PUSH1 0x1F LT PUSH2 0x2B81 JUMPI PUSH2 0x100 DUP1 DUP4 SLOAD DIV MUL DUP4 MSTORE SWAP2 PUSH1 0x20 ADD SWAP2 PUSH2 0x2BAA JUMP JUMPDEST DUP3 ADD SWAP2 SWAP1 PUSH0 MSTORE PUSH1 0x20 PUSH0 KECCAK256 SWAP1 JUMPDEST DUP2 SLOAD DUP2 MSTORE SWAP1 PUSH1 0x1 ADD SWAP1 PUSH1 0x20 ADD DUP1 DUP4 GT PUSH2 0x2B8D JUMPI DUP3 SWAP1 SUB PUSH1 0x1F AND DUP3 ADD SWAP2 JUMPDEST POP POP POP POP POP DUP2 MSTORE PUSH1 0x20 ADD PUSH1 0x3 DUP3 ADD DUP1 SLOAD PUSH2 0x2BC3 SWAP1 PUSH2 0x36EA JUMP JUMPDEST DUP1 PUSH1 0x1F ADD PUSH1 0x20 DUP1 SWAP2 DIV MUL PUSH1 0x20 ADD PUSH1 0x40 MLOAD SWAP1 DUP2 ADD PUSH1 0x40 MSTORE DUP1 SWAP3 SWAP2 SWAP1 DUP2 DUP2 MSTORE PUSH1 0x20 ADD DUP3 DUP1 SLOAD PUSH2 0x2BEF SWAP1 PUSH2 0x36EA JUMP JUMPDEST DUP1 ISZERO PUSH2 0x2C3A JUMPI DUP1 PUSH1 0x1F LT PUSH2 0x2C11 JUMPI PUSH2 0x100 DUP1 DUP4 SLOAD DIV MUL DUP4 MSTORE SWAP2 PUSH1 0x20 ADD SWAP2 PUSH2 0x2C3A JUMP JUMPDEST DUP3 ADD SWAP2 SWAP1 PUSH0 MSTORE PUSH1 0x20 PUSH0 KECCAK256 SWAP1 JUMPDEST DUP2 SLOAD DUP2 MSTORE SWAP1 PUSH1 0x1 ADD SWAP1 PUSH1 0x20 ADD DUP1 DUP4 GT PUSH2 0x2C1D JUMPI DUP3 SWAP1 SUB PUSH1 0x1F AND DUP3 ADD SWAP2 JUMPDEST POP POP POP POP POP DUP2 MSTORE PUSH1 0x20 ADD PUSH1 0x4 DUP3 ADD SLOAD DUP2 MSTORE PUSH1 0x20 ADD PUSH1 0x5 DUP3 ADD DUP1 SLOAD PUSH2 0x2C5D SWAP1 PUSH2 0x36EA JUMP JUMPDEST DUP1 PUSH1 0x1F ADD PUSH1 0x20 DUP1 SWAP2 DIV MUL PUSH1 0x20 ADD PUSH1 0x40 MLOAD SWAP1 DUP2 ADD PUSH1 0x40 MSTORE DUP1 SWAP3 SWAP2 SWAP1 DUP2 DUP2 MSTORE PUSH1 0x20 ADD DUP3 DUP1 SLOAD PUSH2 0x2C89 SWAP1 PUSH2 0x36EA JUMP JUMPDEST DUP1 ISZERO PUSH2 0x2CD4 JUMPI DUP1 PUSH1 0x1F LT PUSH2 0x2CAB JUMPI PUSH2 0x100 DUP1 DUP4 SLOAD DIV MUL DUP4 MSTORE SWAP2 PUSH1 0x20 ADD SWAP2 PUSH2 0x2CD4 JUMP JUMPDEST DUP3 ADD SWAP2 SWAP1 PUSH0 MSTORE PUSH1 0x20 PUSH0 KECCAK256 SWAP1 JUMPDEST DUP2 SLOAD DUP2 MSTORE SWAP1 PUSH1 0x1 ADD SWAP1 PUSH1 0x20 ADD DUP1 DUP4 GT PUSH2 0x2CB7 JUMPI DUP3 SWAP1 SUB PUSH1 0x1F AND DUP3 ADD SWAP2 JUMPDEST POP POP POP POP POP DUP2 MSTORE PUSH1 0x20 ADD PUSH1 0x6 DUP3 ADD DUP1 SLOAD PUSH2 0x2CED SWAP1 PUSH2 0x36EA JUMP JUMPDEST DUP1 PUSH1 0x1F ADD PUSH1 0x20 DUP1 SWAP2 DIV MUL PUSH1 0x20 ADD PUSH1 0x40 MLOAD SWAP1 DUP2 ADD PUSH1 0x40 MSTORE DUP1 SWAP3 SWAP2 SWAP1 DUP2 DUP2 MSTORE PUSH1 0x20 ADD DUP3 DUP1 SLOAD PUSH2 0x2D19 SWAP1 PUSH2 0x36EA JUMP JUMPDEST DUP1 ISZERO PUSH2 0x2D64 JUMPI DUP1 PUSH1 0x1F LT PUSH2 0x2D3B JUMPI PUSH2 0x100 DUP1 DUP4 SLOAD DIV MUL DUP4 MSTORE SWAP2 PUSH1 0x20 ADD SWAP2 PUSH2 0x2D64 JUMP JUMPDEST DUP3 ADD SWAP2 SWAP1 PUSH0 MSTORE PUSH1 0x20 PUSH0 KECCAK256 SWAP1 JUMPDEST DUP2 SLOAD DUP2 MSTORE SWAP1 PUSH1 0x1 ADD SWAP1 PUSH1 0x20 ADD DUP1 DUP4 GT PUSH2 0x2D47 JUMPI DUP3 SWAP1 SUB PUSH1 0x1F AND DUP3 ADD SWAP2 JUMPDEST POP POP POP POP POP DUP2 MSTORE PUSH1 0x20 ADD PUSH1 0x7 DUP3 ADD DUP1 SLOAD PUSH2 0x2D7D SWAP1 PUSH2 0x36EA JUMP JUMPDEST DUP1 PUSH1 0x1F ADD PUSH1 0x20 DUP1 SWAP2 DIV MUL PUSH1 0x20 ADD PUSH1 0x40 MLOAD SWAP1 DUP2 ADD PUSH1 0x40 MSTORE DUP1 SWAP3 SWAP2 SWAP1 DUP2 DUP2 MSTORE PUSH1 0x20 ADD DUP3 DUP1 SLOAD PUSH2 0x2DA9 SWAP1 PUSH2 0x36EA JUMP JUMPDEST DUP1 ISZERO PUSH2 0x2DF4 JUMPI DUP1 PUSH1 0x1F LT PUSH2 0x2DCB JUMPI PUSH2 0x100 DUP1 DUP4 SLOAD DIV MUL DUP4 MSTORE SWAP2 PUSH1 0x20 ADD SWAP2 PUSH2 0x2DF4 JUMP JUMPDEST DUP3 ADD SWAP2 SWAP1 PUSH0 MSTORE PUSH1 0x20 PUSH0 KECCAK256 SWAP1 JUMPDEST DUP2 SLOAD DUP2 MSTORE SWAP1 PUSH1 0x1 ADD SWAP1 PUSH1 0x20 ADD DUP1 DUP4 GT PUSH2 0x2DD7 JUMPI DUP3 SWAP1 SUB PUSH1 0x1F AND DUP3 ADD SWAP2 JUMPDEST POP POP POP POP POP DUP2 MSTORE PUSH1 0x20 ADD PUSH1 0x8 DUP3 ADD DUP1 SLOAD PUSH2 0x2E0D SWAP1 PUSH2 0x36EA JUMP JUMPDEST DUP1 PUSH1 0x1F ADD PUSH1 0x20 DUP1 SWAP2 DIV MUL PUSH1 0x20 ADD PUSH1 0x40 MLOAD SWAP1 DUP2 ADD PUSH1 0x40 MSTORE DUP1 SWAP3 SWAP2 SWAP1 DUP2 DUP2 MSTORE PUSH1 0x20 ADD DUP3 DUP1 SLOAD PUSH2 0x2E39 SWAP1 PUSH2 0x36EA JUMP JUMPDEST DUP1 ISZERO PUSH2 0x2E84 JUMPI DUP1 PUSH1 0x1F LT PUSH2 0x2E5B JUMPI PUSH2 0x100 DUP1 DUP4 SLOAD DIV MUL DUP4 MSTORE SWAP2 PUSH1 0x20 ADD SWAP2 PUSH2 0x2E84 JUMP JUMPDEST DUP3 ADD SWAP2 SWAP1 PUSH0 MSTORE PUSH1 0x20 PUSH0 KECCAK256 SWAP1 JUMPDEST DUP2 SLOAD DUP2 MSTORE SWAP1 PUSH1 0x1 ADD SWAP1 PUSH1 0x20 ADD DUP1 DUP4 GT PUSH2 0x2E67 JUMPI DUP3 SWAP1 SUB PUSH1 0x1F AND DUP3 ADD SWAP2 JUMPDEST POP POP POP SWAP2 DUP4 MSTORE POP POP PUSH1 0x9 DUP3 ADD SLOAD PUSH1 0x1 PUSH1 0x1 PUSH1 0xA0 SHL SUB AND PUSH1 0x20 DUP3 ADD MSTORE PUSH1 0xA DUP3 ADD SLOAD PUSH1 0x40 DUP3 ADD MSTORE PUSH1 0xB DUP3 ADD SLOAD PUSH1 0x60 DUP3 ADD MSTORE PUSH1 0xC DUP3 ADD DUP1 SLOAD PUSH1 0x80 SWAP1 SWAP3 ADD SWAP2 PUSH2 0x2EC8 SWAP1 PUSH2 0x36EA JUMP JUMPDEST DUP1 PUSH1 0x1F ADD PUSH1 0x20 DUP1 SWAP2 DIV MUL PUSH1 0x20 ADD PUSH1 0x40 MLOAD SWAP1 DUP2 ADD PUSH1 0x40 MSTORE DUP1 SWAP3 SWAP2 SWAP1 DUP2 DUP2 MSTORE PUSH1 0x20 ADD DUP3 DUP1 SLOAD PUSH2 0x2EF4 SWAP1 PUSH2 0x36EA JUMP JUMPDEST DUP1 ISZERO PUSH2 0x2F3F JUMPI DUP1 PUSH1 0x1F LT PUSH2 0x2F16 JUMPI PUSH2 0x100 DUP1 DUP4 SLOAD DIV MUL DUP4 MSTORE SWAP2 PUSH1 0x20 ADD SWAP2 PUSH2 0x2F3F JUMP JUMPDEST DUP3 ADD SWAP2 SWAP1 PUSH0 MSTORE PUSH1 0x20 PUSH0 KECCAK256 SWAP1 JUMPDEST DUP2 SLOAD DUP2 MSTORE SWAP1 PUSH1 0x1 ADD SWAP1 PUSH1 0x20 ADD DUP1 DUP4 GT PUSH2 0x2F22 JUMPI DUP3 SWAP1 SUB PUSH1 0x1F AND DUP3 ADD SWAP2 JUMPDEST POP POP POP POP POP DUP2 MSTORE PUSH1 0x20 ADD PUSH1 0xD DUP3 ADD DUP1 SLOAD DUP1 PUSH1 0x20 MUL PUSH1 0x20 ADD PUSH1 0x40 MLOAD SWAP1 DUP2 ADD PUSH1 0x40 MSTORE DUP1 SWAP3 SWAP2 SWAP1 DUP2 DUP2 MSTORE PUSH1 0x20 ADD DUP3 DUP1 SLOAD DUP1 ISZERO PUSH2 0x2F9F JUMPI PUSH1 0x20 MUL DUP3 ADD SWAP2 SWAP1 PUSH0 MSTORE PUSH1 0x20 PUSH0 KECCAK256 SWAP1 JUMPDEST DUP2 SLOAD PUSH1 0x1 PUSH1 0x1 PUSH1 0xA0 SHL SUB AND DUP2 MSTORE PUSH1 0x1 SWAP1 SWAP2 ADD SWAP1 PUSH1 0x20 ADD DUP1 DUP4 GT PUSH2 0x2F81 JUMPI JUMPDEST POP POP POP POP POP DUP2 MSTORE POP POP DUP2 MSTORE PUSH1 0x20 ADD SWAP1 PUSH1 0x1 ADD SWAP1 PUSH2 0x2A68 JUMP JUMPDEST POP POP POP POP SWAP1 POP SWAP1 JUMP JUMPDEST PUSH0 DUP1 PUSH1 0x40 DUP4 DUP6 SUB SLT ISZERO PUSH2 0x2FD1 JUMPI PUSH0 DUP1 REVERT JUMPDEST POP POP DUP1 CALLDATALOAD SWAP3 PUSH1 0x20 SWAP1 SWAP2 ADD CALLDATALOAD SWAP2 POP JUMP JUMPDEST PUSH0 PUSH1 0x20 DUP3 DUP5 SUB SLT ISZERO PUSH2 0x2FF0 JUMPI PUSH0 DUP1 REVERT JUMPDEST POP CALLDATALOAD SWAP2 SWAP1 POP JUMP JUMPDEST PUSH1 0x1 PUSH1 0x1 PUSH1 0xA0 SHL SUB DUP2 AND DUP2 EQ PUSH2 0x300B JUMPI PUSH0 DUP1 REVERT JUMPDEST POP JUMP JUMPDEST DUP1 CALLDATALOAD PUSH2 0x3019 DUP2 PUSH2 0x2FF7 JUMP JUMPDEST SWAP2 SWAP1 POP JUMP JUMPDEST PUSH0 DUP1 PUSH1 0x40 DUP4 DUP6 SUB SLT ISZERO PUSH2 0x302F JUMPI PUSH0 DUP1 REVERT JUMPDEST DUP3 CALLDATALOAD SWAP2 POP PUSH1 0x20 DUP4 ADD CALLDATALOAD PUSH2 0x3041 DUP2 PUSH2 0x2FF7 JUMP JUMPDEST DUP1 SWAP2 POP POP SWAP3 POP SWAP3 SWAP1 POP JUMP JUMPDEST PUSH0 DUP1 PUSH1 0x40 DUP4 DUP6 SUB SLT ISZERO PUSH2 0x305D JUMPI PUSH0 DUP1 REVERT JUMPDEST DUP3 CALLDATALOAD PUSH2 0x3068 DUP2 PUSH2 0x2FF7 JUMP JUMPDEST SWAP5 PUSH1 0x20 SWAP4 SWAP1 SWAP4 ADD CALLDATALOAD SWAP4 POP POP POP JUMP JUMPDEST PUSH0 DUP2 MLOAD DUP1 DUP5 MSTORE DUP1 PUSH1 0x20 DUP5 ADD PUSH1 0x20 DUP7 ADD MCOPY PUSH0 PUSH1 0x20 DUP3 DUP7 ADD ADD MSTORE PUSH1 0x20 PUSH1 0x1F NOT PUSH1 0x1F DUP4 ADD AND DUP6 ADD ADD SWAP2 POP POP SWAP3 SWAP2 POP POP JUMP JUMPDEST PUSH1 0x40 DUP2 MSTORE PUSH0 PUSH2 0x30B6 PUSH1 0x40 DUP4 ADD DUP6 PUSH2 0x3076 JUMP JUMPDEST SWAP1 POP DUP3 ISZERO ISZERO PUSH1 0x20 DUP4 ADD MSTORE SWAP4 SWAP3 POP POP POP JUMP JUMPDEST PUSH4 0x4E487B71 PUSH1 0xE0 SHL PUSH0 MSTORE PUSH1 0x41 PUSH1 0x4 MSTORE PUSH1 0x24 PUSH0 REVERT JUMPDEST PUSH1 0x40 MLOAD PUSH1 0x1F DUP3 ADD PUSH1 0x1F NOT AND DUP2 ADD PUSH8 0xFFFFFFFFFFFFFFFF DUP2 GT DUP3 DUP3 LT OR ISZERO PUSH2 0x3104 JUMPI PUSH2 0x3104 PUSH2 0x30C7 JUMP JUMPDEST PUSH1 0x40 MSTORE SWAP2 SWAP1 POP JUMP JUMPDEST PUSH0 DUP3 PUSH1 0x1F DUP4 ADD SLT PUSH2 0x311B JUMPI PUSH0 DUP1 REVERT JUMPDEST DUP2 CALLDATALOAD PUSH8 0xFFFFFFFFFFFFFFFF DUP2 GT ISZERO PUSH2 0x3135 JUMPI PUSH2 0x3135 PUSH2 0x30C7 JUMP JUMPDEST PUSH2 0x3148 PUSH1 0x1F DUP3 ADD PUSH1 0x1F NOT AND PUSH1 0x20 ADD PUSH2 0x30DB JUMP JUMPDEST DUP2 DUP2 MSTORE DUP5 PUSH1 0x20 DUP4 DUP7 ADD ADD GT ISZERO PUSH2 0x315C JUMPI PUSH0 DUP1 REVERT JUMPDEST DUP2 PUSH1 0x20 DUP6 ADD PUSH1 0x20 DUP4 ADD CALLDATACOPY PUSH0 SWAP2 DUP2 ADD PUSH1 0x20 ADD SWAP2 SWAP1 SWAP2 MSTORE SWAP4 SWAP3 POP POP POP JUMP JUMPDEST PUSH0 PUSH8 0xFFFFFFFFFFFFFFFF DUP3 GT ISZERO PUSH2 0x3191 JUMPI PUSH2 0x3191 PUSH2 0x30C7 JUMP JUMPDEST POP PUSH1 0x5 SHL PUSH1 0x20 ADD SWAP1 JUMP JUMPDEST PUSH0 DUP3 PUSH1 0x1F DUP4 ADD SLT PUSH2 0x31AA JUMPI PUSH0 DUP1 REVERT JUMPDEST DUP2 CALLDATALOAD PUSH1 0x20 PUSH2 0x31BF PUSH2 0x31BA DUP4 PUSH2 0x3178 JUMP JUMPDEST PUSH2 0x30DB JUMP JUMPDEST DUP1 DUP4 DUP3 MSTORE PUSH1 0x20 DUP3 ADD SWAP2 POP PUSH1 0x20 DUP5 PUSH1 0x5 SHL DUP8 ADD ADD SWAP4 POP DUP7 DUP5 GT ISZERO PUSH2 0x31E0 JUMPI PUSH0 DUP1 REVERT JUMPDEST PUSH1 0x20 DUP7 ADD JUMPDEST DUP5 DUP2 LT ISZERO PUSH2 0x3205 JUMPI DUP1 CALLDATALOAD PUSH2 0x31F8 DUP2 PUSH2 0x2FF7 JUMP JUMPDEST DUP4 MSTORE SWAP2 DUP4 ADD SWAP2 DUP4 ADD PUSH2 0x31E5 JUMP JUMPDEST POP SWAP7 SWAP6 POP POP POP POP POP POP JUMP JUMPDEST PUSH0 DUP1 PUSH0 DUP1 PUSH0 DUP1 PUSH0 DUP1 PUSH2 0x100 DUP10 DUP12 SUB SLT ISZERO PUSH2 0x3228 JUMPI PUSH0 DUP1 REVERT JUMPDEST DUP9 CALLDATALOAD PUSH8 0xFFFFFFFFFFFFFFFF DUP1 DUP3 GT ISZERO PUSH2 0x323F JUMPI PUSH0 DUP1 REVERT JUMPDEST PUSH2 0x324B DUP13 DUP4 DUP14 ADD PUSH2 0x310C JUMP JUMPDEST SWAP10 POP PUSH1 0x20 DUP12 ADD CALLDATALOAD SWAP2 POP DUP1 DUP3 GT ISZERO PUSH2 0x3260 JUMPI PUSH0 DUP1 REVERT JUMPDEST PUSH2 0x326C DUP13 DUP4 DUP14 ADD PUSH2 0x310C JUMP JUMPDEST SWAP9 POP PUSH1 0x40 DUP12 ADD CALLDATALOAD SWAP2 POP DUP1 DUP3 GT ISZERO PUSH2 0x3281 JUMPI PUSH0 DUP1 REVERT JUMPDEST PUSH2 0x328D DUP13 DUP4 DUP14 ADD PUSH2 0x310C JUMP JUMPDEST SWAP8 POP PUSH1 0x60 DUP12 ADD CALLDATALOAD SWAP2 POP DUP1 DUP3 GT ISZERO PUSH2 0x32A2 JUMPI PUSH0 DUP1 REVERT JUMPDEST PUSH2 0x32AE DUP13 DUP4 DUP14 ADD PUSH2 0x310C JUMP JUMPDEST SWAP7 POP PUSH2 0x32BC PUSH1 0x80 DUP13 ADD PUSH2 0x300E JUMP JUMPDEST SWAP6 POP PUSH1 0xA0 DUP12 ADD CALLDATALOAD SWAP5 POP PUSH1 0xC0 DUP12 ADD CALLDATALOAD SWAP4 POP PUSH1 0xE0 DUP12 ADD CALLDATALOAD SWAP2 POP DUP1 DUP3 GT ISZERO PUSH2 0x32DF JUMPI PUSH0 DUP1 REVERT JUMPDEST POP PUSH2 0x32EC DUP12 DUP3 DUP13 ADD PUSH2 0x319B JUMP JUMPDEST SWAP2 POP POP SWAP3 SWAP6 SWAP9 POP SWAP3 SWAP6 SWAP9 SWAP1 SWAP4 SWAP7 POP JUMP JUMPDEST PUSH0 DUP1 PUSH0 PUSH1 0x60 DUP5 DUP7 SUB SLT ISZERO PUSH2 0x330E JUMPI PUSH0 DUP1 REVERT JUMPDEST DUP4 CALLDATALOAD SWAP3 POP PUSH1 0x20 DUP5 ADD CALLDATALOAD PUSH8 0xFFFFFFFFFFFFFFFF DUP1 DUP3 GT ISZERO PUSH2 0x332C JUMPI PUSH0 DUP1 REVERT JUMPDEST PUSH2 0x3338 DUP8 DUP4 DUP9 ADD PUSH2 0x310C JUMP JUMPDEST SWAP4 POP PUSH1 0x40 DUP7 ADD CALLDATALOAD SWAP2 POP DUP1 DUP3 GT ISZERO PUSH2 0x334D JUMPI PUSH0 DUP1 REVERT JUMPDEST POP PUSH2 0x335A DUP7 DUP3 DUP8 ADD PUSH2 0x310C JUMP JUMPDEST SWAP2 POP POP SWAP3 POP SWAP3 POP SWAP3 JUMP JUMPDEST DUP8 DUP2 MSTORE PUSH1 0x1 DUP1 PUSH1 0xA0 SHL SUB DUP8 AND PUSH1 0x20 DUP3 ADD MSTORE DUP6 PUSH1 0x40 DUP3 ADD MSTORE DUP5 PUSH1 0x60 DUP3 ADD MSTORE DUP4 PUSH1 0x80 DUP3 ADD MSTORE PUSH1 0xE0 PUSH1 0xA0 DUP3 ADD MSTORE PUSH0 PUSH2 0x339C PUSH1 0xE0 DUP4 ADD DUP6 PUSH2 0x3076 JUMP JUMPDEST DUP3 DUP2 SUB PUSH1 0xC0 DUP5 ADD MSTORE PUSH2 0x33AE DUP2 DUP6 PUSH2 0x3076 JUMP JUMPDEST SWAP11 SWAP10 POP POP POP POP POP POP POP POP POP POP JUMP JUMPDEST DUP14 DUP2 MSTORE PUSH2 0x1A0 PUSH1 0x20 DUP3 ADD MSTORE PUSH0 PUSH2 0x33D6 PUSH2 0x1A0 DUP4 ADD DUP16 PUSH2 0x3076 JUMP JUMPDEST DUP3 DUP2 SUB PUSH1 0x40 DUP5 ADD MSTORE PUSH2 0x33E8 DUP2 DUP16 PUSH2 0x3076 JUMP JUMPDEST SWAP1 POP DUP3 DUP2 SUB PUSH1 0x60 DUP5 ADD MSTORE PUSH2 0x33FC DUP2 DUP15 PUSH2 0x3076 JUMP JUMPDEST SWAP1 POP DUP12 PUSH1 0x80 DUP5 ADD MSTORE DUP3 DUP2 SUB PUSH1 0xA0 DUP5 ADD MSTORE PUSH2 0x3416 DUP2 DUP13 PUSH2 0x3076 JUMP JUMPDEST SWAP1 POP DUP3 DUP2 SUB PUSH1 0xC0 DUP5 ADD MSTORE PUSH2 0x342A DUP2 DUP12 PUSH2 0x3076 JUMP JUMPDEST SWAP1 POP DUP3 DUP2 SUB PUSH1 0xE0 DUP5 ADD MSTORE PUSH2 0x343E DUP2 DUP11 PUSH2 0x3076 JUMP JUMPDEST SWAP1 POP DUP3 DUP2 SUB PUSH2 0x100 DUP5 ADD MSTORE PUSH2 0x3453 DUP2 DUP10 PUSH2 0x3076 JUMP JUMPDEST PUSH1 0x1 PUSH1 0x1 PUSH1 0xA0 SHL SUB DUP9 AND PUSH2 0x120 DUP6 ADD MSTORE SWAP1 POP DUP6 PUSH2 0x140 DUP5 ADD MSTORE DUP5 PUSH2 0x160 DUP5 ADD MSTORE DUP3 DUP2 SUB PUSH2 0x180 DUP5 ADD MSTORE PUSH2 0x3486 DUP2 DUP6 PUSH2 0x3076 JUMP JUMPDEST SWAP2 POP POP SWAP15 SWAP14 POP POP POP POP POP POP POP POP POP POP POP POP POP POP JUMP JUMPDEST PUSH0 DUP2 MLOAD DUP1 DUP5 MSTORE PUSH1 0x20 DUP1 DUP6 ADD SWAP5 POP PUSH1 0x20 DUP5 ADD PUSH0 JUMPDEST DUP4 DUP2 LT ISZERO PUSH2 0x34D3 JUMPI DUP2 MLOAD PUSH1 0x1 PUSH1 0x1 PUSH1 0xA0 SHL SUB AND DUP8 MSTORE SWAP6 DUP3 ADD SWAP6 SWAP1 DUP3 ADD SWAP1 PUSH1 0x1 ADD PUSH2 0x34AE JUMP JUMPDEST POP SWAP5 SWAP6 SWAP5 POP POP POP POP POP JUMP JUMPDEST PUSH0 PUSH1 0x20 DUP1 DUP4 ADD DUP2 DUP5 MSTORE DUP1 DUP6 MLOAD DUP1 DUP4 MSTORE PUSH1 0x40 SWAP3 POP PUSH1 0x40 DUP7 ADD SWAP2 POP PUSH1 0x40 DUP2 PUSH1 0x5 SHL DUP8 ADD ADD DUP5 DUP9 ADD PUSH0 JUMPDEST DUP4 DUP2 LT ISZERO PUSH2 0x3660 JUMPI PUSH1 0x3F NOT DUP10 DUP5 SUB ADD DUP6 MSTORE DUP2 MLOAD PUSH2 0x1C0 DUP2 MLOAD DUP6 MSTORE DUP9 DUP3 ADD MLOAD DUP2 DUP11 DUP8 ADD MSTORE PUSH2 0x3534 DUP3 DUP8 ADD DUP3 PUSH2 0x3076 JUMP JUMPDEST SWAP2 POP POP DUP8 DUP3 ADD MLOAD DUP6 DUP3 SUB DUP10 DUP8 ADD MSTORE PUSH2 0x354C DUP3 DUP3 PUSH2 0x3076 JUMP JUMPDEST SWAP2 POP POP PUSH1 0x60 DUP1 DUP4 ADD MLOAD DUP7 DUP4 SUB DUP3 DUP9 ADD MSTORE PUSH2 0x3566 DUP4 DUP3 PUSH2 0x3076 JUMP JUMPDEST SWAP3 POP POP POP PUSH1 0x80 DUP1 DUP4 ADD MLOAD DUP2 DUP8 ADD MSTORE POP PUSH1 0xA0 DUP1 DUP4 ADD MLOAD DUP7 DUP4 SUB DUP3 DUP9 ADD MSTORE PUSH2 0x358C DUP4 DUP3 PUSH2 0x3076 JUMP JUMPDEST SWAP3 POP POP POP PUSH1 0xC0 DUP1 DUP4 ADD MLOAD DUP7 DUP4 SUB DUP3 DUP9 ADD MSTORE PUSH2 0x35A7 DUP4 DUP3 PUSH2 0x3076 JUMP JUMPDEST SWAP3 POP POP POP PUSH1 0xE0 DUP1 DUP4 ADD MLOAD DUP7 DUP4 SUB DUP3 DUP9 ADD MSTORE PUSH2 0x35C2 DUP4 DUP3 PUSH2 0x3076 JUMP JUMPDEST SWAP3 POP POP POP PUSH2 0x100 DUP1 DUP4 ADD MLOAD DUP7 DUP4 SUB DUP3 DUP9 ADD MSTORE PUSH2 0x35DE DUP4 DUP3 PUSH2 0x3076 JUMP JUMPDEST SWAP3 POP POP POP PUSH2 0x120 DUP1 DUP4 ADD MLOAD PUSH2 0x35FD DUP3 DUP9 ADD DUP3 PUSH1 0x1 PUSH1 0x1 PUSH1 0xA0 SHL SUB AND SWAP1 MSTORE JUMP JUMPDEST POP POP PUSH2 0x140 DUP3 DUP2 ADD MLOAD SWAP1 DUP7 ADD MSTORE PUSH2 0x160 DUP1 DUP4 ADD MLOAD SWAP1 DUP7 ADD MSTORE PUSH2 0x180 DUP1 DUP4 ADD MLOAD DUP7 DUP4 SUB DUP3 DUP9 ADD MSTORE PUSH2 0x362D DUP4 DUP3 PUSH2 0x3076 JUMP JUMPDEST SWAP3 POP POP POP PUSH2 0x1A0 DUP1 DUP4 ADD MLOAD SWAP3 POP DUP6 DUP3 SUB DUP2 DUP8 ADD MSTORE POP PUSH2 0x364C DUP2 DUP4 PUSH2 0x349B JUMP JUMPDEST SWAP7 DUP10 ADD SWAP7 SWAP5 POP POP POP SWAP1 DUP7 ADD SWAP1 PUSH1 0x1 ADD PUSH2 0x3505 JUMP JUMPDEST POP SWAP1 SWAP9 SWAP8 POP POP POP POP POP POP POP POP JUMP JUMPDEST PUSH0 PUSH1 0x20 DUP3 DUP5 SUB SLT ISZERO PUSH2 0x367E JUMPI PUSH0 DUP1 REVERT JUMPDEST DUP2 MLOAD DUP1 ISZERO ISZERO DUP2 EQ PUSH2 0x368D JUMPI PUSH0 DUP1 REVERT JUMPDEST SWAP4 SWAP3 POP POP POP JUMP JUMPDEST PUSH1 0x20 DUP1 DUP3 MSTORE PUSH1 0x22 SWAP1 DUP3 ADD MSTORE PUSH32 0x796F75206861766520746F20626520616E2061646D696E20746F20646F207468 PUSH1 0x40 DUP3 ADD MSTORE PUSH2 0x6973 PUSH1 0xF0 SHL PUSH1 0x60 DUP3 ADD MSTORE PUSH1 0x80 ADD SWAP1 JUMP JUMPDEST PUSH4 0x4E487B71 PUSH1 0xE0 SHL PUSH0 MSTORE PUSH1 0x32 PUSH1 0x4 MSTORE PUSH1 0x24 PUSH0 REVERT JUMPDEST PUSH1 0x1 DUP2 DUP2 SHR SWAP1 DUP3 AND DUP1 PUSH2 0x36FE JUMPI PUSH1 0x7F DUP3 AND SWAP2 POP JUMPDEST PUSH1 0x20 DUP3 LT DUP2 SUB PUSH2 0x371C JUMPI PUSH4 0x4E487B71 PUSH1 0xE0 SHL PUSH0 MSTORE PUSH1 0x22 PUSH1 0x4 MSTORE PUSH1 0x24 PUSH0 REVERT JUMPDEST POP SWAP2 SWAP1 POP JUMP JUMPDEST PUSH0 PUSH1 0x20 DUP1 DUP4 DUP6 SUB SLT ISZERO PUSH2 0x3733 JUMPI PUSH0 DUP1 REVERT JUMPDEST DUP3 MLOAD PUSH8 0xFFFFFFFFFFFFFFFF DUP2 GT ISZERO PUSH2 0x3749 JUMPI PUSH0 DUP1 REVERT JUMPDEST DUP4 ADD PUSH1 0x1F DUP2 ADD DUP6 SGT PUSH2 0x3759 JUMPI PUSH0 DUP1 REVERT JUMPDEST DUP1 MLOAD PUSH2 0x3767 PUSH2 0x31BA DUP3 PUSH2 0x3178 JUMP JUMPDEST DUP2 DUP2 MSTORE PUSH1 0x5 SWAP2 SWAP1 SWAP2 SHL DUP3 ADD DUP4 ADD SWAP1 DUP4 DUP2 ADD SWAP1 DUP8 DUP4 GT ISZERO PUSH2 0x3785 JUMPI PUSH0 DUP1 REVERT JUMPDEST SWAP3 DUP5 ADD SWAP3 JUMPDEST DUP3 DUP5 LT ISZERO PUSH2 0x37AC JUMPI DUP4 MLOAD PUSH2 0x379D DUP2 PUSH2 0x2FF7 JUMP JUMPDEST DUP3 MSTORE SWAP3 DUP5 ADD SWAP3 SWAP1 DUP5 ADD SWAP1 PUSH2 0x378A JUMP JUMPDEST SWAP8 SWAP7 POP POP POP POP POP POP POP JUMP JUMPDEST PUSH0 DUP1 DUP4 SLOAD PUSH2 0x37C4 DUP2 PUSH2 0x36EA JUMP JUMPDEST PUSH1 0x1 DUP3 DUP2 AND DUP1 ISZERO PUSH2 0x37DC JUMPI PUSH1 0x1 DUP2 EQ PUSH2 0x37F1 JUMPI PUSH2 0x381D JUMP JUMPDEST PUSH1 0xFF NOT DUP5 AND DUP8 MSTORE DUP3 ISZERO ISZERO DUP4 MUL DUP8 ADD SWAP5 POP PUSH2 0x381D JUMP JUMPDEST DUP8 PUSH0 MSTORE PUSH1 0x20 DUP1 PUSH0 KECCAK256 PUSH0 JUMPDEST DUP6 DUP2 LT ISZERO PUSH2 0x3814 JUMPI DUP2 SLOAD DUP11 DUP3 ADD MSTORE SWAP1 DUP5 ADD SWAP1 DUP3 ADD PUSH2 0x37FB JUMP JUMPDEST POP POP POP DUP3 DUP8 ADD SWAP5 POP JUMPDEST POP SWAP3 SWAP7 SWAP6 POP POP POP POP POP POP JUMP JUMPDEST DUP1 DUP3 ADD DUP1 DUP3 GT ISZERO PUSH2 0x3848 JUMPI PUSH4 0x4E487B71 PUSH1 0xE0 SHL PUSH0 MSTORE PUSH1 0x11 PUSH1 0x4 MSTORE PUSH1 0x24 PUSH0 REVERT JUMPDEST SWAP3 SWAP2 POP POP JUMP JUMPDEST PUSH1 0x1F DUP3 GT ISZERO PUSH2 0x131E JUMPI DUP1 PUSH0 MSTORE PUSH1 0x20 PUSH0 KECCAK256 PUSH1 0x1F DUP5 ADD PUSH1 0x5 SHR DUP2 ADD PUSH1 0x20 DUP6 LT ISZERO PUSH2 0x3873 JUMPI POP DUP1 JUMPDEST PUSH1 0x1F DUP5 ADD PUSH1 0x5 SHR DUP3 ADD SWAP2 POP JUMPDEST DUP2 DUP2 LT ISZERO PUSH2 0x18F0 JUMPI PUSH0 DUP2 SSTORE PUSH1 0x1 ADD PUSH2 0x387F JUMP JUMPDEST DUP2 MLOAD PUSH8 0xFFFFFFFFFFFFFFFF DUP2 GT ISZERO PUSH2 0x38AC JUMPI PUSH2 0x38AC PUSH2 0x30C7 JUMP JUMPDEST PUSH2 0x38C0 DUP2 PUSH2 0x38BA DUP5 SLOAD PUSH2 0x36EA JUMP JUMPDEST DUP5 PUSH2 0x384E JUMP JUMPDEST PUSH1 0x20 DUP1 PUSH1 0x1F DUP4 GT PUSH1 0x1 DUP2 EQ PUSH2 0x38F3 JUMPI PUSH0 DUP5 ISZERO PUSH2 0x38DC JUMPI POP DUP6 DUP4 ADD MLOAD JUMPDEST PUSH0 NOT PUSH1 0x3 DUP7 SWAP1 SHL SHR NOT AND PUSH1 0x1 DUP6 SWAP1 SHL OR DUP6 SSTORE PUSH2 0x2428 JUMP JUMPDEST PUSH0 DUP6 DUP2 MSTORE PUSH1 0x20 DUP2 KECCAK256 PUSH1 0x1F NOT DUP7 AND SWAP2 JUMPDEST DUP3 DUP2 LT ISZERO PUSH2 0x3921 JUMPI DUP9 DUP7 ADD MLOAD DUP3 SSTORE SWAP5 DUP5 ADD SWAP5 PUSH1 0x1 SWAP1 SWAP2 ADD SWAP1 DUP5 ADD PUSH2 0x3902 JUMP JUMPDEST POP DUP6 DUP3 LT ISZERO PUSH2 0x393E JUMPI DUP8 DUP6 ADD MLOAD PUSH0 NOT PUSH1 0x3 DUP9 SWAP1 SHL PUSH1 0xF8 AND SHR NOT AND DUP2 SSTORE JUMPDEST POP POP POP POP POP PUSH1 0x1 SWAP1 DUP2 SHL ADD SWAP1 SSTORE POP JUMP JUMPDEST PUSH1 0x1 DUP1 PUSH1 0xA0 SHL SUB DUP4 AND DUP2 MSTORE PUSH0 PUSH1 0x20 PUSH1 0x60 PUSH1 0x20 DUP5 ADD MSTORE PUSH0 PUSH1 0x60 DUP5 ADD MSTORE PUSH1 0x80 PUSH1 0x40 DUP5 ADD MSTORE PUSH0 DUP5 SLOAD PUSH2 0x397C DUP2 PUSH2 0x36EA JUMP JUMPDEST DUP1 PUSH1 0x80 DUP8 ADD MSTORE PUSH1 0xA0 PUSH1 0x1 DUP1 DUP5 AND PUSH0 DUP2 EQ PUSH2 0x399D JUMPI PUSH1 0x1 DUP2 EQ PUSH2 0x39B9 JUMPI PUSH2 0x39E6 JUMP JUMPDEST PUSH1 0xFF NOT DUP6 AND PUSH1 0xA0 DUP11 ADD MSTORE PUSH1 0xA0 DUP5 ISZERO ISZERO PUSH1 0x5 SHL DUP11 ADD ADD SWAP6 POP PUSH2 0x39E6 JUMP JUMPDEST DUP10 PUSH0 MSTORE PUSH1 0x20 PUSH0 KECCAK256 PUSH0 JUMPDEST DUP6 DUP2 LT ISZERO PUSH2 0x39DD JUMPI DUP2 SLOAD DUP12 DUP3 ADD DUP7 ADD MSTORE SWAP1 DUP4 ADD SWAP1 DUP9 ADD PUSH2 0x39C2 JUMP JUMPDEST DUP11 ADD PUSH1 0xA0 ADD SWAP7 POP POP JUMPDEST POP SWAP4 SWAP10 SWAP9 POP POP POP POP POP POP POP POP POP JUMP JUMPDEST DUP2 DUP2 SUB PUSH2 0x3A00 JUMPI POP POP JUMP JUMPDEST PUSH2 0x3A0A DUP3 SLOAD PUSH2 0x36EA JUMP JUMPDEST PUSH8 0xFFFFFFFFFFFFFFFF DUP2 GT ISZERO PUSH2 0x3A22 JUMPI PUSH2 0x3A22 PUSH2 0x30C7 JUMP JUMPDEST PUSH2 0x3A30 DUP2 PUSH2 0x38BA DUP5 SLOAD PUSH2 0x36EA JUMP JUMPDEST PUSH0 PUSH1 0x1F DUP3 GT PUSH1 0x1 DUP2 EQ PUSH2 0x3A61 JUMPI PUSH0 DUP4 ISZERO PUSH2 0x3A4A JUMPI POP DUP5 DUP3 ADD SLOAD JUMPDEST PUSH0 NOT PUSH1 0x3 DUP6 SWAP1 SHL SHR NOT AND PUSH1 0x1 DUP5 SWAP1 SHL OR DUP5 SSTORE PUSH2 0x18F0 JUMP JUMPDEST PUSH0 DUP6 DUP2 MSTORE PUSH1 0x20 DUP1 DUP3 KECCAK256 DUP7 DUP4 MSTORE SWAP1 DUP3 KECCAK256 PUSH1 0x1F NOT DUP7 AND SWAP3 JUMPDEST DUP4 DUP2 LT ISZERO PUSH2 0x3A97 JUMPI DUP3 DUP7 ADD SLOAD DUP3 SSTORE PUSH1 0x1 SWAP6 DUP7 ADD SWAP6 SWAP1 SWAP2 ADD SWAP1 PUSH1 0x20 ADD PUSH2 0x3A77 JUMP JUMPDEST POP DUP6 DUP4 LT ISZERO PUSH2 0x393E JUMPI SWAP4 ADD SLOAD PUSH0 NOT PUSH1 0xF8 PUSH1 0x3 DUP8 SWAP1 SHL AND SHR NOT AND SWAP1 SWAP3 SSTORE POP POP PUSH1 0x1 SWAP1 DUP2 SHL ADD SWAP1 SSTORE POP JUMP JUMPDEST PUSH1 0x1 PUSH1 0x1 PUSH1 0xA0 SHL SUB SWAP4 DUP5 AND DUP2 MSTORE SWAP2 SWAP1 SWAP3 AND PUSH1 0x20 DUP3 ADD MSTORE PUSH1 0x40 DUP2 ADD SWAP2 SWAP1 SWAP2 MSTORE PUSH1 0x60 ADD SWAP1 JUMP JUMPDEST PUSH1 0x20 DUP1 DUP3 MSTORE PUSH1 0x31 SWAP1 DUP3 ADD MSTORE PUSH32 0x6F6E6C79206120706572736F6E206F66207573657220747970652063616E2076 PUSH1 0x40 DUP3 ADD MSTORE PUSH17 0x6F746520666F7220656C656374696F6E73 PUSH1 0x78 SHL PUSH1 0x60 DUP3 ADD MSTORE PUSH1 0x80 ADD SWAP1 JUMP JUMPDEST PUSH0 PUSH1 0x20 DUP3 DUP5 SUB SLT ISZERO PUSH2 0x3B45 JUMPI PUSH0 DUP1 REVERT JUMPDEST POP MLOAD SWAP2 SWAP1 POP JUMP INVALID LOG2 PUSH5 0x6970667358 0x22 SLT KECCAK256 PUSH12 0x95C6185C97BF1581DE32BCD7 SGT 0xAC SLOAD CODESIZE 0xDC 0xA7 0x1E SWAP14 SMOD PUSH31 0x1B583241ED57B9B15864736F6C634300081900330000000000000000000000 "
		},
		"gasEstimates": {
			"creation": {
				"codeDepositCost": "3046800",
				"executionCost": "infinite",
				"totalCost": "infinite"
			},
			"external": {
				"ADMIN()": "infinite",
				"CANDIDATE()": "infinite",
				"DEPLOYER()": "infinite",
				"ElectionHistory(uint256,address)": "2817",
				"GetProposals()": "infinite",
				"ProposalVotingHistory(address,uint256)": "infinite",
				"ProposalsList(uint256)": "infinite",
				"USER()": "infinite",
				"UniqueElectionId()": "2339",
				"UniquePrposalId()": "2360",
				"VoteForProposal(uint256,string,string)": "infinite",
				"accessControlContractAddress()": "infinite",
				"candidateVotes(uint256,address)": "2680",
				"createProposal(string,string,string,string,address,uint256,uint256,address[])": "infinite",
				"electionList(uint256)": "infinite",
				"executeElection(uint256)": "infinite",
				"executeProposal(uint256,uint256)": "infinite",
				"ielectionwinnerAddress()": "infinite",
				"owner()": "infinite",
				"token()": "infinite",
				"tokenAddress()": "infinite",
				"treasuryAddress()": "infinite",
				"voteForElection(uint256,address)": "infinite"
			}
		},
		"methodIdentifiers": {
			"ADMIN()": "2a0acc6a",
			"CANDIDATE()": "cb26765f",
			"DEPLOYER()": "c1b8411a",
			"ElectionHistory(uint256,address)": "44ea8f83",
			"GetProposals()": "f7c57ad7",
			"ProposalVotingHistory(address,uint256)": "4abe962a",
			"ProposalsList(uint256)": "efda697f",
			"USER()": "81e167cf",
			"UniqueElectionId()": "a3b135ed",
			"UniquePrposalId()": "4de643f8",
			"VoteForProposal(uint256,string,string)": "da230646",
			"accessControlContractAddress()": "9a65f100",
			"candidateVotes(uint256,address)": "afa9c5b0",
			"createProposal(string,string,string,string,address,uint256,uint256,address[])": "c75b9b84",
			"electionList(uint256)": "defb908f",
			"executeElection(uint256)": "35552ed3",
			"executeProposal(uint256,uint256)": "1ab76712",
			"ielectionwinnerAddress()": "1d23d771",
			"owner()": "8da5cb5b",
			"token()": "fc0c546a",
			"tokenAddress()": "9d76ea58",
			"treasuryAddress()": "c5f956af",
			"voteForElection(uint256,address)": "4b5cf6d2"
		}
	},
	"abi": [
		{
			"inputs": [
				{
					"internalType": "address",
					"name": "contractAddress",
					"type": "address"
				},
				{
					"internalType": "address",
					"name": "_treasuryAddress",
					"type": "address"
				},
				{
					"internalType": "address",
					"name": "_tokenAddress",
					"type": "address"
				},
				{
					"internalType": "address",
					"name": "_electionWinnerAddress",
					"type": "address"
				}
			],
			"stateMutability": "nonpayable",
			"type": "constructor"
		},
		{
			"inputs": [
				{
					"internalType": "address",
					"name": "UserAddress",
					"type": "address"
				}
			],
			"name": "AlreadyVotedForProposal",
			"type": "error"
		},
		{
			"inputs": [
				{
					"internalType": "string",
					"name": "message",
					"type": "string"
				}
			],
			"name": "InvalidProposalType",
			"type": "error"
		},
		{
			"inputs": [],
			"name": "ADMIN",
			"outputs": [
				{
					"internalType": "bytes32",
					"name": "",
					"type": "bytes32"
				}
			],
			"stateMutability": "view",
			"type": "function"
		},
		{
			"inputs": [],
			"name": "CANDIDATE",
			"outputs": [
				{
					"internalType": "bytes32",
					"name": "",
					"type": "bytes32"
				}
			],
			"stateMutability": "view",
			"type": "function"
		},
		{
			"inputs": [],
			"name": "DEPLOYER",
			"outputs": [
				{
					"internalType": "bytes32",
					"name": "",
					"type": "bytes32"
				}
			],
			"stateMutability": "view",
			"type": "function"
		},
		{
			"inputs": [
				{
					"internalType": "uint256",
					"name": "",
					"type": "uint256"
				},
				{
					"internalType": "address",
					"name": "",
					"type": "address"
				}
			],
			"name": "ElectionHistory",
			"outputs": [
				{
					"internalType": "address",
					"name": "choice",
					"type": "address"
				},
				{
					"internalType": "bool",
					"name": "voted",
					"type": "bool"
				}
			],
			"stateMutability": "view",
			"type": "function"
		},
		{
			"inputs": [],
			"name": "GetProposals",
			"outputs": [
				{
					"components": [
						{
							"internalType": "uint256",
							"name": "Id",
							"type": "uint256"
						},
						{
							"internalType": "string",
							"name": "Type",
							"type": "string"
						},
						{
							"internalType": "string",
							"name": "Option1",
							"type": "string"
						},
						{
							"internalType": "string",
							"name": "Option2",
							"type": "string"
						},
						{
							"internalType": "uint256",
							"name": "NumberOfVotes",
							"type": "uint256"
						},
						{
							"internalType": "string",
							"name": "Status",
							"type": "string"
						},
						{
							"internalType": "string",
							"name": "Description",
							"type": "string"
						},
						{
							"internalType": "string",
							"name": "Region",
							"type": "string"
						},
						{
							"internalType": "string",
							"name": "ResultAction",
							"type": "string"
						},
						{
							"internalType": "address",
							"name": "ResultContract",
							"type": "address"
						},
						{
							"internalType": "uint256",
							"name": "StartDate",
							"type": "uint256"
						},
						{
							"internalType": "uint256",
							"name": "EndDate",
							"type": "uint256"
						},
						{
							"internalType": "string",
							"name": "WinningOption",
							"type": "string"
						},
						{
							"internalType": "address[]",
							"name": "Users",
							"type": "address[]"
						}
					],
					"internalType": "struct Proposals.ProposalType[]",
					"name": "",
					"type": "tuple[]"
				}
			],
			"stateMutability": "view",
			"type": "function"
		},
		{
			"inputs": [
				{
					"internalType": "address",
					"name": "",
					"type": "address"
				},
				{
					"internalType": "uint256",
					"name": "",
					"type": "uint256"
				}
			],
			"name": "ProposalVotingHistory",
			"outputs": [
				{
					"internalType": "string",
					"name": "VotedChoice",
					"type": "string"
				},
				{
					"internalType": "bool",
					"name": "Voted",
					"type": "bool"
				}
			],
			"stateMutability": "view",
			"type": "function"
		},
		{
			"inputs": [
				{
					"internalType": "uint256",
					"name": "",
					"type": "uint256"
				}
			],
			"name": "ProposalsList",
			"outputs": [
				{
					"internalType": "uint256",
					"name": "Id",
					"type": "uint256"
				},
				{
					"internalType": "string",
					"name": "Type",
					"type": "string"
				},
				{
					"internalType": "string",
					"name": "Option1",
					"type": "string"
				},
				{
					"internalType": "string",
					"name": "Option2",
					"type": "string"
				},
				{
					"internalType": "uint256",
					"name": "NumberOfVotes",
					"type": "uint256"
				},
				{
					"internalType": "string",
					"name": "Status",
					"type": "string"
				},
				{
					"internalType": "string",
					"name": "Description",
					"type": "string"
				},
				{
					"internalType": "string",
					"name": "Region",
					"type": "string"
				},
				{
					"internalType": "string",
					"name": "ResultAction",
					"type": "string"
				},
				{
					"internalType": "address",
					"name": "ResultContract",
					"type": "address"
				},
				{
					"internalType": "uint256",
					"name": "StartDate",
					"type": "uint256"
				},
				{
					"internalType": "uint256",
					"name": "EndDate",
					"type": "uint256"
				},
				{
					"internalType": "string",
					"name": "WinningOption",
					"type": "string"
				}
			],
			"stateMutability": "view",
			"type": "function"
		},
		{
			"inputs": [],
			"name": "USER",
			"outputs": [
				{
					"internalType": "bytes32",
					"name": "",
					"type": "bytes32"
				}
			],
			"stateMutability": "view",
			"type": "function"
		},
		{
			"inputs": [],
			"name": "UniqueElectionId",
			"outputs": [
				{
					"internalType": "uint256",
					"name": "",
					"type": "uint256"
				}
			],
			"stateMutability": "view",
			"type": "function"
		},
		{
			"inputs": [],
			"name": "UniquePrposalId",
			"outputs": [
				{
					"internalType": "uint256",
					"name": "",
					"type": "uint256"
				}
			],
			"stateMutability": "view",
			"type": "function"
		},
		{
			"inputs": [
				{
					"internalType": "uint256",
					"name": "proposalId",
					"type": "uint256"
				},
				{
					"internalType": "string",
					"name": "choice",
					"type": "string"
				},
				{
					"internalType": "string",
					"name": "proposalStatus",
					"type": "string"
				}
			],
			"name": "VoteForProposal",
			"outputs": [],
			"stateMutability": "nonpayable",
			"type": "function"
		},
		{
			"inputs": [],
			"name": "accessControlContractAddress",
			"outputs": [
				{
					"internalType": "address",
					"name": "",
					"type": "address"
				}
			],
			"stateMutability": "view",
			"type": "function"
		},
		{
			"inputs": [
				{
					"internalType": "uint256",
					"name": "",
					"type": "uint256"
				},
				{
					"internalType": "address",
					"name": "",
					"type": "address"
				}
			],
			"name": "candidateVotes",
			"outputs": [
				{
					"internalType": "uint256",
					"name": "count",
					"type": "uint256"
				}
			],
			"stateMutability": "view",
			"type": "function"
		},
		{
			"inputs": [
				{
					"internalType": "string",
					"name": "_type",
					"type": "string"
				},
				{
					"internalType": "string",
					"name": "_description",
					"type": "string"
				},
				{
					"internalType": "string",
					"name": "_region",
					"type": "string"
				},
				{
					"internalType": "string",
					"name": "_resultAction",
					"type": "string"
				},
				{
					"internalType": "address",
					"name": "_resultContract",
					"type": "address"
				},
				{
					"internalType": "uint256",
					"name": "_startDate",
					"type": "uint256"
				},
				{
					"internalType": "uint256",
					"name": "_endDate",
					"type": "uint256"
				},
				{
					"internalType": "address[]",
					"name": "_users",
					"type": "address[]"
				}
			],
			"name": "createProposal",
			"outputs": [],
			"stateMutability": "nonpayable",
			"type": "function"
		},
		{
			"inputs": [
				{
					"internalType": "uint256",
					"name": "",
					"type": "uint256"
				}
			],
			"name": "electionList",
			"outputs": [
				{
					"internalType": "uint256",
					"name": "Id",
					"type": "uint256"
				},
				{
					"internalType": "address",
					"name": "Winner",
					"type": "address"
				},
				{
					"internalType": "uint256",
					"name": "WinnerVote",
					"type": "uint256"
				},
				{
					"internalType": "uint256",
					"name": "StartDate",
					"type": "uint256"
				},
				{
					"internalType": "uint256",
					"name": "EndDate",
					"type": "uint256"
				},
				{
					"internalType": "string",
					"name": "Region",
					"type": "string"
				},
				{
					"internalType": "string",
					"name": "Status",
					"type": "string"
				}
			],
			"stateMutability": "view",
			"type": "function"
		},
		{
			"inputs": [
				{
					"internalType": "uint256",
					"name": "electionId",
					"type": "uint256"
				}
			],
			"name": "executeElection",
			"outputs": [],
			"stateMutability": "nonpayable",
			"type": "function"
		},
		{
			"inputs": [
				{
					"internalType": "uint256",
					"name": "proposalId",
					"type": "uint256"
				},
				{
					"internalType": "uint256",
					"name": "dateInUint",
					"type": "uint256"
				}
			],
			"name": "executeProposal",
			"outputs": [],
			"stateMutability": "nonpayable",
			"type": "function"
		},
		{
			"inputs": [],
			"name": "ielectionwinnerAddress",
			"outputs": [
				{
					"internalType": "address",
					"name": "",
					"type": "address"
				}
			],
			"stateMutability": "view",
			"type": "function"
		},
		{
			"inputs": [],
			"name": "owner",
			"outputs": [
				{
					"internalType": "address",
					"name": "",
					"type": "address"
				}
			],
			"stateMutability": "view",
			"type": "function"
		},
		{
			"inputs": [],
			"name": "token",
			"outputs": [
				{
					"internalType": "contract IERC20",
					"name": "",
					"type": "address"
				}
			],
			"stateMutability": "view",
			"type": "function"
		},
		{
			"inputs": [],
			"name": "tokenAddress",
			"outputs": [
				{
					"internalType": "address",
					"name": "",
					"type": "address"
				}
			],
			"stateMutability": "view",
			"type": "function"
		},
		{
			"inputs": [],
			"name": "treasuryAddress",
			"outputs": [
				{
					"internalType": "address",
					"name": "",
					"type": "address"
				}
			],
			"stateMutability": "view",
			"type": "function"
		},
		{
			"inputs": [
				{
					"internalType": "uint256",
					"name": "electionId",
					"type": "uint256"
				},
				{
					"internalType": "address",
					"name": "choice",
					"type": "address"
				}
			],
			"name": "voteForElection",
			"outputs": [],
			"stateMutability": "nonpayable",
			"type": "function"
		}
	]
}