{
	"data": {
		"bytecode": {
			"linkReferences": {},
			"object": "61081661004d600b8282823980515f1a6073146041577f4e487b71000000000000000000000000000000000000000000000000000000005f525f60045260245ffd5b305f52607381538281f3fe730000000000000000000000000000000000000000301460806040526004361061004a575f3560e01c806381a33a6f1461004e57806394e8767d1461007e578063cfb51928146100ae575b5f80fd5b610068600480360381019061006391906102aa565b6100de565b60405161007591906102ed565b60405180910390f35b61009860048036038101906100939190610330565b61018f565b6040516100a5919061036a565b60405180910390f35b6100c860048036038101906100c391906104bf565b610240565b6040516100d5919061036a565b60405180910390f35b5f805f1b82036100ec575f80fd5b5f805f90505b60208110156101885760ff81601f61010a9190610533565b60086101169190610566565b600261012291906106d6565b855f1c61012f919061074d565b1691505f8203156101885760308210806101495750603982115b15610152575f80fd5b600a8361015f9190610566565b925060308261016e9190610533565b83610179919061077d565b925080806001019150506100f2565b5050919050565b5f8082036101bf577f3000000000000000000000000000000000000000000000000000000000000000905061023b565b5b5f82111561023a57610100815f1c6101d8919061074d565b5f1b90507f01000000000000000000000000000000000000000000000000000000000000006030600a8461020c91906107b0565b610216919061077d565b6102209190610566565b5f1b81179050600a82610233919061074d565b91506101c0565b5b919050565b5f808290505f815103610258575f801b915050610261565b60208301519150505b919050565b5f604051905090565b5f80fd5b5f80fd5b5f819050919050565b61028981610277565b8114610293575f80fd5b50565b5f813590506102a481610280565b92915050565b5f602082840312156102bf576102be61026f565b5b5f6102cc84828501610296565b91505092915050565b5f819050919050565b6102e7816102d5565b82525050565b5f6020820190506103005f8301846102de565b92915050565b61030f816102d5565b8114610319575f80fd5b50565b5f8135905061032a81610306565b92915050565b5f602082840312156103455761034461026f565b5b5f6103528482850161031c565b91505092915050565b61036481610277565b82525050565b5f60208201905061037d5f83018461035b565b92915050565b5f80fd5b5f80fd5b5f601f19601f8301169050919050565b7f4e487b71000000000000000000000000000000000000000000000000000000005f52604160045260245ffd5b6103d18261038b565b810181811067ffffffffffffffff821117156103f0576103ef61039b565b5b80604052505050565b5f610402610266565b905061040e82826103c8565b919050565b5f67ffffffffffffffff82111561042d5761042c61039b565b5b6104368261038b565b9050602081019050919050565b828183375f83830152505050565b5f61046361045e84610413565b6103f9565b90508281526020810184848401111561047f5761047e610387565b5b61048a848285610443565b509392505050565b5f82601f8301126104a6576104a5610383565b5b81356104b6848260208601610451565b91505092915050565b5f602082840312156104d4576104d361026f565b5b5f82013567ffffffffffffffff8111156104f1576104f0610273565b5b6104fd84828501610492565b91505092915050565b7f4e487b71000000000000000000000000000000000000000000000000000000005f52601160045260245ffd5b5f61053d826102d5565b9150610548836102d5565b92508282039050818111156105605761055f610506565b5b92915050565b5f610570826102d5565b915061057b836102d5565b9250828202610589816102d5565b915082820484148315176105a05761059f610506565b5b5092915050565b5f8160011c9050919050565b5f808291508390505b60018511156105fc578086048111156105d8576105d7610506565b5b60018516156105e75780820291505b80810290506105f5856105a7565b94506105bc565b94509492505050565b5f8261061457600190506106cf565b81610621575f90506106cf565b8160018114610637576002811461064157610670565b60019150506106cf565b60ff84111561065357610652610506565b5b8360020a91508482111561066a57610669610506565b5b506106cf565b5060208310610133831016604e8410600b84101617156106a55782820a9050838111156106a05761069f610506565b5b6106cf565b6106b284848460016105b3565b925090508184048111156106c9576106c8610506565b5b81810290505b9392505050565b5f6106e0826102d5565b91506106eb836102d5565b92506107187fffffffffffffffffffffffffffffffffffffffffffffffffffffffffffffffff8484610605565b905092915050565b7f4e487b71000000000000000000000000000000000000000000000000000000005f52601260045260245ffd5b5f610757826102d5565b9150610762836102d5565b92508261077257610771610720565b5b828204905092915050565b5f610787826102d5565b9150610792836102d5565b92508282019050808211156107aa576107a9610506565b5b92915050565b5f6107ba826102d5565b91506107c5836102d5565b9250826107d5576107d4610720565b5b82820690509291505056fea2646970667358221220b83f938a270a5bed4356d28c632f7373b85c9cde9bab7e49b3a9f40c2b34f7ed64736f6c63430008190033",
			"opcodes": "PUSH2 0x816 PUSH2 0x4D PUSH1 0xB DUP3 DUP3 DUP3 CODECOPY DUP1 MLOAD PUSH0 BYTE PUSH1 0x73 EQ PUSH1 0x41 JUMPI PUSH32 0x4E487B7100000000000000000000000000000000000000000000000000000000 PUSH0 MSTORE PUSH0 PUSH1 0x4 MSTORE PUSH1 0x24 PUSH0 REVERT JUMPDEST ADDRESS PUSH0 MSTORE PUSH1 0x73 DUP2 MSTORE8 DUP3 DUP2 RETURN INVALID PUSH20 0x0 ADDRESS EQ PUSH1 0x80 PUSH1 0x40 MSTORE PUSH1 0x4 CALLDATASIZE LT PUSH2 0x4A JUMPI PUSH0 CALLDATALOAD PUSH1 0xE0 SHR DUP1 PUSH4 0x81A33A6F EQ PUSH2 0x4E JUMPI DUP1 PUSH4 0x94E8767D EQ PUSH2 0x7E JUMPI DUP1 PUSH4 0xCFB51928 EQ PUSH2 0xAE JUMPI JUMPDEST PUSH0 DUP1 REVERT JUMPDEST PUSH2 0x68 PUSH1 0x4 DUP1 CALLDATASIZE SUB DUP2 ADD SWAP1 PUSH2 0x63 SWAP2 SWAP1 PUSH2 0x2AA JUMP JUMPDEST PUSH2 0xDE JUMP JUMPDEST PUSH1 0x40 MLOAD PUSH2 0x75 SWAP2 SWAP1 PUSH2 0x2ED JUMP JUMPDEST PUSH1 0x40 MLOAD DUP1 SWAP2 SUB SWAP1 RETURN JUMPDEST PUSH2 0x98 PUSH1 0x4 DUP1 CALLDATASIZE SUB DUP2 ADD SWAP1 PUSH2 0x93 SWAP2 SWAP1 PUSH2 0x330 JUMP JUMPDEST PUSH2 0x18F JUMP JUMPDEST PUSH1 0x40 MLOAD PUSH2 0xA5 SWAP2 SWAP1 PUSH2 0x36A JUMP JUMPDEST PUSH1 0x40 MLOAD DUP1 SWAP2 SUB SWAP1 RETURN JUMPDEST PUSH2 0xC8 PUSH1 0x4 DUP1 CALLDATASIZE SUB DUP2 ADD SWAP1 PUSH2 0xC3 SWAP2 SWAP1 PUSH2 0x4BF JUMP JUMPDEST PUSH2 0x240 JUMP JUMPDEST PUSH1 0x40 MLOAD PUSH2 0xD5 SWAP2 SWAP1 PUSH2 0x36A JUMP JUMPDEST PUSH1 0x40 MLOAD DUP1 SWAP2 SUB SWAP1 RETURN JUMPDEST PUSH0 DUP1 PUSH0 SHL DUP3 SUB PUSH2 0xEC JUMPI PUSH0 DUP1 REVERT JUMPDEST PUSH0 DUP1 PUSH0 SWAP1 POP JUMPDEST PUSH1 0x20 DUP2 LT ISZERO PUSH2 0x188 JUMPI PUSH1 0xFF DUP2 PUSH1 0x1F PUSH2 0x10A SWAP2 SWAP1 PUSH2 0x533 JUMP JUMPDEST PUSH1 0x8 PUSH2 0x116 SWAP2 SWAP1 PUSH2 0x566 JUMP JUMPDEST PUSH1 0x2 PUSH2 0x122 SWAP2 SWAP1 PUSH2 0x6D6 JUMP JUMPDEST DUP6 PUSH0 SHR PUSH2 0x12F SWAP2 SWAP1 PUSH2 0x74D JUMP JUMPDEST AND SWAP2 POP PUSH0 DUP3 SUB ISZERO PUSH2 0x188 JUMPI PUSH1 0x30 DUP3 LT DUP1 PUSH2 0x149 JUMPI POP PUSH1 0x39 DUP3 GT JUMPDEST ISZERO PUSH2 0x152 JUMPI PUSH0 DUP1 REVERT JUMPDEST PUSH1 0xA DUP4 PUSH2 0x15F SWAP2 SWAP1 PUSH2 0x566 JUMP JUMPDEST SWAP3 POP PUSH1 0x30 DUP3 PUSH2 0x16E SWAP2 SWAP1 PUSH2 0x533 JUMP JUMPDEST DUP4 PUSH2 0x179 SWAP2 SWAP1 PUSH2 0x77D JUMP JUMPDEST SWAP3 POP DUP1 DUP1 PUSH1 0x1 ADD SWAP2 POP POP PUSH2 0xF2 JUMP JUMPDEST POP POP SWAP2 SWAP1 POP JUMP JUMPDEST PUSH0 DUP1 DUP3 SUB PUSH2 0x1BF JUMPI PUSH32 0x3000000000000000000000000000000000000000000000000000000000000000 SWAP1 POP PUSH2 0x23B JUMP JUMPDEST JUMPDEST PUSH0 DUP3 GT ISZERO PUSH2 0x23A JUMPI PUSH2 0x100 DUP2 PUSH0 SHR PUSH2 0x1D8 SWAP2 SWAP1 PUSH2 0x74D JUMP JUMPDEST PUSH0 SHL SWAP1 POP PUSH32 0x100000000000000000000000000000000000000000000000000000000000000 PUSH1 0x30 PUSH1 0xA DUP5 PUSH2 0x20C SWAP2 SWAP1 PUSH2 0x7B0 JUMP JUMPDEST PUSH2 0x216 SWAP2 SWAP1 PUSH2 0x77D JUMP JUMPDEST PUSH2 0x220 SWAP2 SWAP1 PUSH2 0x566 JUMP JUMPDEST PUSH0 SHL DUP2 OR SWAP1 POP PUSH1 0xA DUP3 PUSH2 0x233 SWAP2 SWAP1 PUSH2 0x74D JUMP JUMPDEST SWAP2 POP PUSH2 0x1C0 JUMP JUMPDEST JUMPDEST SWAP2 SWAP1 POP JUMP JUMPDEST PUSH0 DUP1 DUP3 SWAP1 POP PUSH0 DUP2 MLOAD SUB PUSH2 0x258 JUMPI PUSH0 DUP1 SHL SWAP2 POP POP PUSH2 0x261 JUMP JUMPDEST PUSH1 0x20 DUP4 ADD MLOAD SWAP2 POP POP JUMPDEST SWAP2 SWAP1 POP JUMP JUMPDEST PUSH0 PUSH1 0x40 MLOAD SWAP1 POP SWAP1 JUMP JUMPDEST PUSH0 DUP1 REVERT JUMPDEST PUSH0 DUP1 REVERT JUMPDEST PUSH0 DUP2 SWAP1 POP SWAP2 SWAP1 POP JUMP JUMPDEST PUSH2 0x289 DUP2 PUSH2 0x277 JUMP JUMPDEST DUP2 EQ PUSH2 0x293 JUMPI PUSH0 DUP1 REVERT JUMPDEST POP JUMP JUMPDEST PUSH0 DUP2 CALLDATALOAD SWAP1 POP PUSH2 0x2A4 DUP2 PUSH2 0x280 JUMP JUMPDEST SWAP3 SWAP2 POP POP JUMP JUMPDEST PUSH0 PUSH1 0x20 DUP3 DUP5 SUB SLT ISZERO PUSH2 0x2BF JUMPI PUSH2 0x2BE PUSH2 0x26F JUMP JUMPDEST JUMPDEST PUSH0 PUSH2 0x2CC DUP5 DUP3 DUP6 ADD PUSH2 0x296 JUMP JUMPDEST SWAP2 POP POP SWAP3 SWAP2 POP POP JUMP JUMPDEST PUSH0 DUP2 SWAP1 POP SWAP2 SWAP1 POP JUMP JUMPDEST PUSH2 0x2E7 DUP2 PUSH2 0x2D5 JUMP JUMPDEST DUP3 MSTORE POP POP JUMP JUMPDEST PUSH0 PUSH1 0x20 DUP3 ADD SWAP1 POP PUSH2 0x300 PUSH0 DUP4 ADD DUP5 PUSH2 0x2DE JUMP JUMPDEST SWAP3 SWAP2 POP POP JUMP JUMPDEST PUSH2 0x30F DUP2 PUSH2 0x2D5 JUMP JUMPDEST DUP2 EQ PUSH2 0x319 JUMPI PUSH0 DUP1 REVERT JUMPDEST POP JUMP JUMPDEST PUSH0 DUP2 CALLDATALOAD SWAP1 POP PUSH2 0x32A DUP2 PUSH2 0x306 JUMP JUMPDEST SWAP3 SWAP2 POP POP JUMP JUMPDEST PUSH0 PUSH1 0x20 DUP3 DUP5 SUB SLT ISZERO PUSH2 0x345 JUMPI PUSH2 0x344 PUSH2 0x26F JUMP JUMPDEST JUMPDEST PUSH0 PUSH2 0x352 DUP5 DUP3 DUP6 ADD PUSH2 0x31C JUMP JUMPDEST SWAP2 POP POP SWAP3 SWAP2 POP POP JUMP JUMPDEST PUSH2 0x364 DUP2 PUSH2 0x277 JUMP JUMPDEST DUP3 MSTORE POP POP JUMP JUMPDEST PUSH0 PUSH1 0x20 DUP3 ADD SWAP1 POP PUSH2 0x37D PUSH0 DUP4 ADD DUP5 PUSH2 0x35B JUMP JUMPDEST SWAP3 SWAP2 POP POP JUMP JUMPDEST PUSH0 DUP1 REVERT JUMPDEST PUSH0 DUP1 REVERT JUMPDEST PUSH0 PUSH1 0x1F NOT PUSH1 0x1F DUP4 ADD AND SWAP1 POP SWAP2 SWAP1 POP JUMP JUMPDEST PUSH32 0x4E487B7100000000000000000000000000000000000000000000000000000000 PUSH0 MSTORE PUSH1 0x41 PUSH1 0x4 MSTORE PUSH1 0x24 PUSH0 REVERT JUMPDEST PUSH2 0x3D1 DUP3 PUSH2 0x38B JUMP JUMPDEST DUP2 ADD DUP2 DUP2 LT PUSH8 0xFFFFFFFFFFFFFFFF DUP3 GT OR ISZERO PUSH2 0x3F0 JUMPI PUSH2 0x3EF PUSH2 0x39B JUMP JUMPDEST JUMPDEST DUP1 PUSH1 0x40 MSTORE POP POP POP JUMP JUMPDEST PUSH0 PUSH2 0x402 PUSH2 0x266 JUMP JUMPDEST SWAP1 POP PUSH2 0x40E DUP3 DUP3 PUSH2 0x3C8 JUMP JUMPDEST SWAP2 SWAP1 POP JUMP JUMPDEST PUSH0 PUSH8 0xFFFFFFFFFFFFFFFF DUP3 GT ISZERO PUSH2 0x42D JUMPI PUSH2 0x42C PUSH2 0x39B JUMP JUMPDEST JUMPDEST PUSH2 0x436 DUP3 PUSH2 0x38B JUMP JUMPDEST SWAP1 POP PUSH1 0x20 DUP2 ADD SWAP1 POP SWAP2 SWAP1 POP JUMP JUMPDEST DUP3 DUP2 DUP4 CALLDATACOPY PUSH0 DUP4 DUP4 ADD MSTORE POP POP POP JUMP JUMPDEST PUSH0 PUSH2 0x463 PUSH2 0x45E DUP5 PUSH2 0x413 JUMP JUMPDEST PUSH2 0x3F9 JUMP JUMPDEST SWAP1 POP DUP3 DUP2 MSTORE PUSH1 0x20 DUP2 ADD DUP5 DUP5 DUP5 ADD GT ISZERO PUSH2 0x47F JUMPI PUSH2 0x47E PUSH2 0x387 JUMP JUMPDEST JUMPDEST PUSH2 0x48A DUP5 DUP3 DUP6 PUSH2 0x443 JUMP JUMPDEST POP SWAP4 SWAP3 POP POP POP JUMP JUMPDEST PUSH0 DUP3 PUSH1 0x1F DUP4 ADD SLT PUSH2 0x4A6 JUMPI PUSH2 0x4A5 PUSH2 0x383 JUMP JUMPDEST JUMPDEST DUP2 CALLDATALOAD PUSH2 0x4B6 DUP5 DUP3 PUSH1 0x20 DUP7 ADD PUSH2 0x451 JUMP JUMPDEST SWAP2 POP POP SWAP3 SWAP2 POP POP JUMP JUMPDEST PUSH0 PUSH1 0x20 DUP3 DUP5 SUB SLT ISZERO PUSH2 0x4D4 JUMPI PUSH2 0x4D3 PUSH2 0x26F JUMP JUMPDEST JUMPDEST PUSH0 DUP3 ADD CALLDATALOAD PUSH8 0xFFFFFFFFFFFFFFFF DUP2 GT ISZERO PUSH2 0x4F1 JUMPI PUSH2 0x4F0 PUSH2 0x273 JUMP JUMPDEST JUMPDEST PUSH2 0x4FD DUP5 DUP3 DUP6 ADD PUSH2 0x492 JUMP JUMPDEST SWAP2 POP POP SWAP3 SWAP2 POP POP JUMP JUMPDEST PUSH32 0x4E487B7100000000000000000000000000000000000000000000000000000000 PUSH0 MSTORE PUSH1 0x11 PUSH1 0x4 MSTORE PUSH1 0x24 PUSH0 REVERT JUMPDEST PUSH0 PUSH2 0x53D DUP3 PUSH2 0x2D5 JUMP JUMPDEST SWAP2 POP PUSH2 0x548 DUP4 PUSH2 0x2D5 JUMP JUMPDEST SWAP3 POP DUP3 DUP3 SUB SWAP1 POP DUP2 DUP2 GT ISZERO PUSH2 0x560 JUMPI PUSH2 0x55F PUSH2 0x506 JUMP JUMPDEST JUMPDEST SWAP3 SWAP2 POP POP JUMP JUMPDEST PUSH0 PUSH2 0x570 DUP3 PUSH2 0x2D5 JUMP JUMPDEST SWAP2 POP PUSH2 0x57B DUP4 PUSH2 0x2D5 JUMP JUMPDEST SWAP3 POP DUP3 DUP3 MUL PUSH2 0x589 DUP2 PUSH2 0x2D5 JUMP JUMPDEST SWAP2 POP DUP3 DUP3 DIV DUP5 EQ DUP4 ISZERO OR PUSH2 0x5A0 JUMPI PUSH2 0x59F PUSH2 0x506 JUMP JUMPDEST JUMPDEST POP SWAP3 SWAP2 POP POP JUMP JUMPDEST PUSH0 DUP2 PUSH1 0x1 SHR SWAP1 POP SWAP2 SWAP1 POP JUMP JUMPDEST PUSH0 DUP1 DUP3 SWAP2 POP DUP4 SWAP1 POP JUMPDEST PUSH1 0x1 DUP6 GT ISZERO PUSH2 0x5FC JUMPI DUP1 DUP7 DIV DUP2 GT ISZERO PUSH2 0x5D8 JUMPI PUSH2 0x5D7 PUSH2 0x506 JUMP JUMPDEST JUMPDEST PUSH1 0x1 DUP6 AND ISZERO PUSH2 0x5E7 JUMPI DUP1 DUP3 MUL SWAP2 POP JUMPDEST DUP1 DUP2 MUL SWAP1 POP PUSH2 0x5F5 DUP6 PUSH2 0x5A7 JUMP JUMPDEST SWAP5 POP PUSH2 0x5BC JUMP JUMPDEST SWAP5 POP SWAP5 SWAP3 POP POP POP JUMP JUMPDEST PUSH0 DUP3 PUSH2 0x614 JUMPI PUSH1 0x1 SWAP1 POP PUSH2 0x6CF JUMP JUMPDEST DUP2 PUSH2 0x621 JUMPI PUSH0 SWAP1 POP PUSH2 0x6CF JUMP JUMPDEST DUP2 PUSH1 0x1 DUP2 EQ PUSH2 0x637 JUMPI PUSH1 0x2 DUP2 EQ PUSH2 0x641 JUMPI PUSH2 0x670 JUMP JUMPDEST PUSH1 0x1 SWAP2 POP POP PUSH2 0x6CF JUMP JUMPDEST PUSH1 0xFF DUP5 GT ISZERO PUSH2 0x653 JUMPI PUSH2 0x652 PUSH2 0x506 JUMP JUMPDEST JUMPDEST DUP4 PUSH1 0x2 EXP SWAP2 POP DUP5 DUP3 GT ISZERO PUSH2 0x66A JUMPI PUSH2 0x669 PUSH2 0x506 JUMP JUMPDEST JUMPDEST POP PUSH2 0x6CF JUMP JUMPDEST POP PUSH1 0x20 DUP4 LT PUSH2 0x133 DUP4 LT AND PUSH1 0x4E DUP5 LT PUSH1 0xB DUP5 LT AND OR ISZERO PUSH2 0x6A5 JUMPI DUP3 DUP3 EXP SWAP1 POP DUP4 DUP2 GT ISZERO PUSH2 0x6A0 JUMPI PUSH2 0x69F PUSH2 0x506 JUMP JUMPDEST JUMPDEST PUSH2 0x6CF JUMP JUMPDEST PUSH2 0x6B2 DUP5 DUP5 DUP5 PUSH1 0x1 PUSH2 0x5B3 JUMP JUMPDEST SWAP3 POP SWAP1 POP DUP2 DUP5 DIV DUP2 GT ISZERO PUSH2 0x6C9 JUMPI PUSH2 0x6C8 PUSH2 0x506 JUMP JUMPDEST JUMPDEST DUP2 DUP2 MUL SWAP1 POP JUMPDEST SWAP4 SWAP3 POP POP POP JUMP JUMPDEST PUSH0 PUSH2 0x6E0 DUP3 PUSH2 0x2D5 JUMP JUMPDEST SWAP2 POP PUSH2 0x6EB DUP4 PUSH2 0x2D5 JUMP JUMPDEST SWAP3 POP PUSH2 0x718 PUSH32 0xFFFFFFFFFFFFFFFFFFFFFFFFFFFFFFFFFFFFFFFFFFFFFFFFFFFFFFFFFFFFFFFF DUP5 DUP5 PUSH2 0x605 JUMP JUMPDEST SWAP1 POP SWAP3 SWAP2 POP POP JUMP JUMPDEST PUSH32 0x4E487B7100000000000000000000000000000000000000000000000000000000 PUSH0 MSTORE PUSH1 0x12 PUSH1 0x4 MSTORE PUSH1 0x24 PUSH0 REVERT JUMPDEST PUSH0 PUSH2 0x757 DUP3 PUSH2 0x2D5 JUMP JUMPDEST SWAP2 POP PUSH2 0x762 DUP4 PUSH2 0x2D5 JUMP JUMPDEST SWAP3 POP DUP3 PUSH2 0x772 JUMPI PUSH2 0x771 PUSH2 0x720 JUMP JUMPDEST JUMPDEST DUP3 DUP3 DIV SWAP1 POP SWAP3 SWAP2 POP POP JUMP JUMPDEST PUSH0 PUSH2 0x787 DUP3 PUSH2 0x2D5 JUMP JUMPDEST SWAP2 POP PUSH2 0x792 DUP4 PUSH2 0x2D5 JUMP JUMPDEST SWAP3 POP DUP3 DUP3 ADD SWAP1 POP DUP1 DUP3 GT ISZERO PUSH2 0x7AA JUMPI PUSH2 0x7A9 PUSH2 0x506 JUMP JUMPDEST JUMPDEST SWAP3 SWAP2 POP POP JUMP JUMPDEST PUSH0 PUSH2 0x7BA DUP3 PUSH2 0x2D5 JUMP JUMPDEST SWAP2 POP PUSH2 0x7C5 DUP4 PUSH2 0x2D5 JUMP JUMPDEST SWAP3 POP DUP3 PUSH2 0x7D5 JUMPI PUSH2 0x7D4 PUSH2 0x720 JUMP JUMPDEST JUMPDEST DUP3 DUP3 MOD SWAP1 POP SWAP3 SWAP2 POP POP JUMP INVALID LOG2 PUSH5 0x6970667358 0x22 SLT KECCAK256 0xB8 EXTCODEHASH SWAP4 DUP11 0x27 EXP JUMPDEST 0xED NUMBER JUMP 0xD2 DUP13 PUSH4 0x2F7373B8 TLOAD SWAP13 0xDE SWAP12 0xAB PUSH31 0x49B3A9F40C2B34F7ED64736F6C634300081900330000000000000000000000 "
		},
		"gasEstimates": {
			"creation": {
				"codeDepositCost": "414000",
				"executionCost": "475",
				"totalCost": "414475"
			},
			"external": {
				"bytesToUInt(bytes32)": "infinite",
				"stringToBytes32(string)": "infinite",
				"uintToBytes(uint256)": "infinite"
			}
		},
		"methodIdentifiers": {
			"bytesToUInt(bytes32)": "81a33a6f",
			"stringToBytes32(string)": "cfb51928",
			"uintToBytes(uint256)": "94e8767d"
		}
	},
	"abi": [
		{
			"inputs": [
				{
					"internalType": "bytes32",
					"name": "v",
					"type": "bytes32"
				}
			],
			"name": "bytesToUInt",
			"outputs": [
				{
					"internalType": "uint256",
					"name": "ret",
					"type": "uint256"
				}
			],
			"stateMutability": "pure",
			"type": "function"
		},
		{
			"inputs": [
				{
					"internalType": "string",
					"name": "_src",
					"type": "string"
				}
			],
			"name": "stringToBytes32",
			"outputs": [
				{
					"internalType": "bytes32",
					"name": "result",
					"type": "bytes32"
				}
			],
			"stateMutability": "pure",
			"type": "function"
		},
		{
			"inputs": [
				{
					"internalType": "uint256",
					"name": "v",
					"type": "uint256"
				}
			],
			"name": "uintToBytes",
			"outputs": [
				{
					"internalType": "bytes32",
					"name": "ret",
					"type": "bytes32"
				}
			],
			"stateMutability": "pure",
			"type": "function"
		}
	]
}